:020000041102E7
:1000000003B40148019001BDADAE000003B4014846
:10001000019001BD456B010003B40148019001BD91
:100020000189000003B40148019001BDC53F0000F3
:1000300003B40148019001BDE94C010003B401483B
:10004000019001BDC95C010003B40148019001BDEC
:10005000CD4C010003B40148019001BD090E000020
:1000600003B40148019001BD5139FF1F03B4014899
:10007000019001BD350E000003B40148019001BD9F
:100080006189000003B40148019001BD154D0100D4
:1000900003B40148019001BD1D4B010003B40148A8
:1000A000019001BDF54E010003B40148019001BD6E
:1000B000434D010003B40148019001BD45510100C9
:1000C00003B40148019001BD2526000003B4014896
:1000D000019001BD8B52010003B40148019001BDA4
:1000E000B352010003B40148019001BD0D5201005B
:1000F00003B40148019001BDC94A010003B401489D
:10010000019001BD3D4B010003B40148019001BDC8
:10011000014C010003B40148019001BDF94C0100FC
:1001200003B40148019001BD691F000003B40148F8
:10013000019001BD5D17000003B40148019001BDAD
:100140005952010003B40148019001BD512500003E
:1001500003B40148019001BD594F010003B40148A7
:10016000019001BD8D12000003B40148019001BD52
:100170004D1F000003B40148019001BD552200004D
:1001800003B40148019001BDDD52010003B40148F0
:10019000019001BD1D4D010003B40148019001BD56
:1001A000810E000003B40148019001BDC90E00009A
:1001B00003B40148019001BD2976FF1F03B4014833
:1001C000019001BD5977FF1F03B40148019001BDA3
:1001D0005976FF1F03B40148019001BD0176FF1F4E
:1001E00003B40148019001BD75A9000003B40148A2
:1001F000019001BD3178FF1F03B40148019001BD9A
:100200000178FF1F03B40148019001BD9DA90000C2
:1002100003B40148019001BD5178FF1F03B40148A8
:10022000019001BD017F000003B40148019001BDB0
:10023000E117000003B40148019001BD79180000E6
:1002400003B40148019001BDD949010003B401483C
:10025000019001BDE928000003B40148019001BDEF
:100260005549010003B40148019001BDA17CFF1F65
:1002700003B40148019001BD9971FF1F03B4014807
:10028000019001BD9172FF1F03B40148019001BDAF
:10029000F571FF1F03B40148019001BD997EFF1F56
:1002A00003B40148019001BD297DFF1F03B401483B
:1002B000019001BD617DFF1F03B40148019001BDA4
:1002C000C926000003B40148019001BD1D83FF1F32
:1002D00003B40148019001BDB30E000003B401480E
:1002E000019001BDB30E000003B40148019001BDAF
:1002F000194EFF1F03B40148019001BD5D4FFF1F60
:1003000003B40148019001BDB982FF1F03B4014845
:10031000019001BDE9A7FF1F03B40148019001BD91
:100320001DA7FF1F03B40148019001BDE173FF1F2A
:1003300003B40148019001BDED3AFF1F03B4014829
:10034000019001BD9174FF1F03B40148019001BDEC
:100350003519000003B40148019001BDBD1800002B
:1003600003B40148019001BDC521000003B4014858
:10037000019001BD291C000003B40148019001BD9A
:10038000851F000003B40148019001BD51470100E1
:1003900003B40148019001BDA946010003B401481E
:1003A000019001BD1147010003B40148019001BD56
:1003B000810E000003B40148019001BD2973FF1FA5
:1003C00003B40148019001BD3D7AFF1F03B4014809
:1003D000019001BDB17AFF1F03B40148019001BD36
:1003E000D56EFF1F03B40148019001BDE179FF1FE5
:1003F00003B40148019001BDA16EFF1F03B4014881
:10040000019001BD832EFF1F03B40148019001BD7F
:100410005D2EFF1F03B40148019001BD3154FF1F41
:1004200003B40148019001BDD162FF1F03B401482C
:10043000019001BD3963FF1F03B40148019001BD64
:10044000E548000003B40148019001BD29510100B5
:1004500003B40148019001BDD91B000003B4014859
:10046000019001BD4531FF1F03B40148019001BD5A
:100470006D31FF1F03B40148019001BD2554FF1FDA
:1004800003B40148019001BDC31AFF1F03B4014822
:10049000019001BD3B1EFF1F03B40148019001BD47
:1004A000E11DFF1F03B40148019001BDA11CFF1F06
:1004B00003B40148019001BD8B1EFF1F03B4014826
:1004C000019001BD3D1BFF1F03B40148019001BD18
:1004D000631EFF1F03B40148019001BD6539FF1F72
:1004E00003B40148019001BD091EFF1F03B4014878
:1004F000019001BD5919FF1F03B40148019001BDCE
:10050000451FFF1FF8B5D349D14A002004464A6071
:100510008300401CD450FF28FADD4868CE4A0146CB
:1005200080318A606E22C262CC4A1278002A01D0E1
:100530007F22C2620A220265C94A13788363C94BCB
:10054000C36115781023022D08D01578012D05D030
:100550001578032D02D01578042D00D10362C24D09
:1005600045611925AD0185613725CD6036272826DF
:10057000C7630825466405644F6032270F603B2738
:10058000CF634127CF6439274031E0C132274F6024
:1005900002274F6142270831E0C11E274F60CE601D
:1005A0008D6005264E6142260E615A2660390E6125
:1005B0004D613C258D61AF25ED000560AB4D0563B8
:1005C0001578022D09D01578012D08D01578032D46
:1005D00007D01578042D06D007E0152504E0436008
:1005E00003E00E2500E00C254560FF252D358560D4
:1005F000C560FF25F53505619D4D85647D25ED00C0
:100600009C4ECD67C66445629B4D85627325C5656A
:10061000062545658565C51D0826F93502272E6026
:1006200047664B27FF0087660927C766934F076712
:100630004667BE108467C667914F8E4E3E6016783F
:10064000022E09D01678012E0AD01678032E0BD070
:100650001278042A0CD00EE01A22CA61212205E089
:100660001422CA61182201E01322CB610A6202E05F
:100670000E220B62CA617E4A8A627D22D2008A679C
:1006800064224A620522CA6202220A63C8228C637B
:100690004A63382169607B4929647B49A9614B2100
:1006A000C900E9617349FF30643929627D2109017C
:1006B0006962EC661E212C67A9667049A965E96527
:1006C00089102966696469677049A9677049714A28
:1006D0008130E967026082604160FF21F531C160CD
:1006E00001616E486C495A4A81606D49803A1161D6
:1006F0006A496C4A80318A626B4ACA626B4A82617B
:100700006B4AC2626B4A02636B4A64484038C263F8
:100710006A4ACA616A49816360496A4840318861AE
:100720006A49694888605D48694A80384260694A18
:100730004263694A0A626949816058496848C03918
:10074000C860FFF75DFC0120FFF760FCF8BDF3B562
:100750000746644881B0C169634A1140FF310931DD
:10076000C161002613E000252C461120FFF754FC40
:100770005C48406A8007800F610088402843641C01
:10078000E4B20546102CF0D301C7761CF6B20298ED
:100790008642E8D3FEBD10B52E4C607800280AD101
:1007A00004215248FFF7D3FF504804211030FFF7CF
:1007B000CEFF0120607010BDF0B500248BB00D4657
:1007C0000646102902D901200BB0F0BDFFF7E3FF68
:1007D000464900200A5C401C1419C0B21028F9D305
:1007E000002C03D0102D03D90B20EDE70E20EBE7F2
:1007F0003F483E4C0023006802A91034E25CC75C0D
:100800007A40CA545B1CDBB2102BF7D306AA3748D8
:10081000FFF708FC102D00D910252A4606A93046FE
:10082000FFF706FCFFF70AFC216840182060FFF77D
:1008300005FC616840186060FFF700FCA168401883
:10084000A060FFF7FBFBE1684018E0600020BBE719
:100850000004FF1F80BAFF1FD0EFFF1FCCAFFF1FA8
:100860004A0AFF1F3A07000080C3C9019A0200002C
:1008700050C30000280A00006A180000204E000043
:10088000F009FF1F0040001168100000DC050000A7
:1008900040420F0010270000398BFF1F0001FF1F8F
:1008A0002D35FF1FB599FF1F8D9CFF1F9531FF1F31
:1008B0002933FF1FB131FF1F6960FF1F35ABFF1FD9
:1008C00059A9FF1FDD2EFF1FE938FF1F0002FF1F80
:1008D000B187FF1F8D89FF1FD188FF1F6D87FF1F05
:1008E0001939FF1F40F0004000FEFEFF10E7FF1F18
:1008F000A0BAFF1F0A7802708A7842704A88120AEA
:1009000082700979C170042070470A7802700988E2
:10091000090A417002207047097801700120704770
:1009200070B50C46097801702188C51C090A417010
:10093000A17881706088611D000A28706D1C227981
:100940002846FFF775FB20792146401922890A3194
:10095000FFF76EFB207921894018001D80B270BD21
:1009600010B500220EE093005B189C7804705C8840
:10097000521C240A44701C7984709B88D2B21B0AD2
:10098000C370001D0B789342EDD81806800D10BD82
:100990000A7802700A88120A42708A78827049883E
:1009A000090AC17004207047F8B50D46064649781B
:1009B000012031700024761C16E06978012917D0D7
:1009C0001221614349198A7832704A88871C120AB9
:1009D0007270B61C10223046091DFFF729FB103734
:1009E000B8B21036641CE4B22978A142E5D8F8BD4B
:1009F000A10049198A7832704A88871C120A7270DD
:100A0000B61C02223046091DFFF712FBBF1CB8B20C
:100A1000B61CE7E710B50C46097801702188090A71
:100A200041706288211D801CFFF702FB6088801CDA
:100A300080B210BD10B50C46097801702188090AF2
:100A40004170A17881706188090AC170A288A11DD6
:100A5000001DFFF7EDFAA088001D80B210BD10B593
:100A60000C46097801702188090A4170A1788170CB
:100A70006188090AC170A288A11D001DFFF7D8FA7C
:100A8000A088001D80B210BD0A7802700A88120A80
:100A900042708A7882704988090AC17004207047C0
:100AA00010B50C460A88891CFFF7C2FA208810BDD1
:100AB00010B50B788A7802705343DCB22246401C92
:100AC000091DFFF7B5FA601C10BD10B50C4609787A
:100AD00001702188090A4170A17881706188090A32
:100AE000C1702279611D001DFFF7A2FA2079001D57
:100AF00010BD10B50B788A7802705343DCB22246E1
:100B0000401C091DFFF794FA601C10BD10B50C467F
:100B10000A88891CFFF78CFA208810BD10B50C4696
:100B20000A88891CFFF784FA208810BD10B50C468E
:100B3000097801702188090A41706288211D801C92
:100B4000FFF776FA6088801C80B210BD7FB515462D
:100B50000446022901D0102903D1022B04D0102B06
:100B600002D0002004B070BD994202D10A46294645
:100B700007E01029694607D000F00EF810226946F8
:100B80002846FFF761FAEDE7104600F005F810225D
:100B900069462046F5E7000070B50C4605000CD00C
:100BA000002C0AD0102206492046FFF741FA287887
:100BB000207368786073012070BD002070BD000054
:100BC000F82E031110B50B460122024904F040FC37
:100BD00010BD0000F508021170B5064608880C46E5
:100BE000172812D30B4603220949304604F030FC83
:100BF000050008D1074920880988884200D20146AB
:100C0000304600F0E1FA284670BD022070BD0000B9
:100C10000B090211AEBAFF1F10B50B46182202498C
:100C200004F016FC10BD00001909021110B50023D4
:100C30001922194604F00CFC10BD000010B50A7909
:100C4000022A01D0022010BD0B460622014904F001
:100C5000FFFB10BD2109021110B50A78002A05D04A
:100C60000B460722024904F0F3FB10BD022010BD21
:100C70006109021110B50B460422024904F0E8FB99
:100C800010BD00009109021110B54A78012A01D067
:100C9000022A08D10A78002A05D00B46052203490A
:100CA00004F0D6FB10BD022010BD0000A9090211FE
:100CB00001494000085A7047ACBAFF1F10B50B46F7
:100CC0001D22024904F0C4FB10BD0000150A0211E8
:100CD00010B50B461B22024904F0BAFB10BD000000
:100CE000150A02110149172008807047ACBAFF1F8E
:100CF000042901D00420704701781170837841786D
:100D00001B02C9185180C0781071002070470098EC
:100D1000022B01D0042070471178527812028918F2
:100D20000180002070470098012B01D004207047FB
:100D30001178017000207047002901D0042070470D
:100D40000020704770B5049C1E461546062B1BD329
:100D500069782878090240182080E978A878090283
:100D60004018608002222271291D601DFFF760F982
:100D7000B61FB2B22281F02A06D82046A91D0A3039
:100D8000FFF756F9002070BD042070BD70B58B07C9
:100D90001DD189080B061B0E19D00E4949888B42BC
:100DA00015D8137000210EE0457804782D026519DE
:100DB0008C00A4186580C67885783602AD19491C68
:100DC000A580C9B2001D9942EED3002070BD042059
:100DD00070BD0000A6BAFF1F0098042B01D00420AC
:100DE0007047537811781B02C91801809178D27826
:100DF00012028918418000207047F7B50427164673
:100E0000002937D0491EC8B200990D78012D02D0B3
:100E1000022D07D02EE081072CD18408601E042803
:100E200009D927E01221FFF715F9002922D1040082
:100E300020D0012C1ED875700027009834703D46D4
:100E4000401C15E0717842780129017814D0120213
:100E5000891812226A4393195980801C0090181D2A
:100E600010220099FFF7E4F8009810306D1CEDB2E5
:100E7000A542E7D33846FEBD12028918AA0093198D
:100E80005980801C0090181D02220099FFF7D0F8AD
:100E90000098801CEAE710B502981146022B0FD388
:100EA0004C780A782402121902809B1E9AB2428062
:100EB000F42A05D8001D891CFFF7BAF8002010BDE0
:100EC000042010BDF8B584890D460646002C26D0B6
:100ED000B2681778380620D50C2C20D90C3CA4B267
:100EE0001019009001217088234603F05BFF002851
:100EF00011D0022028707806C00F6870B806800EE6
:100F0000A870641E2004000CA88001D0B068401CAA
:100F1000A8600020F8BD0120ECE70020EAE70120EE
:100F2000F8BD10B502981146042B14D34C780A78FA
:100F3000240212190280CC788A7824021219428085
:100F40001B1F9AB28280F22A05D8801D091DFFF767
:100F50006FF8002010BD042010BD0B4610B50146EF
:100F6000042B16D310464C780A78240212190280FA
:100F7000CC788A78240212191B1F9BB2428083808E
:100F8000F22B06D81A46801D091DFFF751F80020E4
:100F900010BD042010BD0098042B01D00420704720
:100FA000537811781B02C91801809178D278120207
:100FB000891841800020704710B502981146062B11
:100FC00003D0142B03D0042010BD022200E0102215
:100FD00002714B780A781B02D2180280CB788A788B
:100FE0001B02D21842800279401D091DFFF720F82C
:100FF000002010BD70B50546144603290CD3491EC8
:10100000CEB229786180F52E06D8002904D030466A
:10101000FFF720F8002901D0042070BD207032466F
:10102000691C201DFFF704F8002070BD30B5039C3B
:10103000D80718D1D805010E022914D30B4880888F
:10104000814210D8F6200155002008E05578137829
:101050002D025B194500401C6353C0B2921C8842AC
:10106000F4D3002030BD042030BD0000A6BAFF1F1D
:101070000098022B01D00420704711785278120298
:10108000891801800020704770B514460246049804
:10109000022B18D3667825783602AD1905800546EF
:1010A000E0352A766976002A0BD0E8219B1E9AB299
:1010B00042808A4207D8A11C001DFEF7B9FF00201C
:1010C00070BDF421F2E7042070BD002901D0042096
:1010D000704700207047000010B50B4616220249E9
:1010E00004F0B6F910BD0000350A021110B50B4628
:1010F0001722024904F0ACF910BD00005F0A02118A
:1011000010B50B460C22024904F0A2F910BD0000F4
:10111000890A021110B50B460D22024904F098F914
:1011200010BD0000A10A021110B50A79102A03D0DF
:10113000022A01D0022010BD0B461022014904F002
:1011400087F910BDCB0A021110B50A78002A05D024
:101150000B461122024904F07BF910BD022010BD9C
:10116000B10A021110B50A79102A03D0022A01D05F
:10117000022010BD0B460822014904F069F910BD98
:10118000CB0A021110B50A78002A05D00B460922B5
:10119000024904F05DF910BD022010BDF30A0211EE
:1011A00010B50B460F22024904F052F910BD0000A1
:1011B0000D0B021110B50B460B22024904F048F941
:1011C00010BD00001D0B0211044A1288914203D881
:1011D000024A4000921D115270470000A6BAFF1F3C
:1011E00070B50B46E0331C7E1222012C09D10A4D4A
:1011F0004200AA5A4C880F3A944201DD022070BD89
:1012000092225B7E012B01D140231A430B460349F6
:1012100004F01EF970BD0000ACBAFF1F2D0B0211C7
:1012200010B500231322194604F012F910BD000076
:1012300010B50549054801F0D1FC0348044A0521D1
:10124000083001F04DFE10BD08B3FF1FFFFF000086
:10125000B4F3021110B50022104B002809D0012868
:1012600009D01033022809D003280AD002221046E0
:1012700010BD187800E058780870F8E758890880A1
:10128000F5E70648801C04780C7140784871588D49
:101290000880588F488001208871E8E700B3FF1F5D
:1012A00010B50446084884420DD0012907D0022910
:1012B00009D1012120460AF05BFA002803D1034935
:1012C000204601F08BFC10BDFEFF000008B3FF1F9D
:1012D00010B505495F200A785F2A03D908700348D2
:1012E0000AF002FA002010BD00B3FF1FCD54021116
:1012F000014948607047000000B3FF1FFEB51AA007
:1013000000F092F82448002510246F4631C7234E80
:101310001F2233461E210A2003F0C4FD20A06F4681
:1013200031C733461F2232210A2003F0BBFD1820AB
:1013300024A101240091019033461F2202944621EA
:101340000A2003F0AFFD20202AA10091019033462E
:101350001F22029464210A2003F0A4FD4B20000107
:10136000FEF77EFEFEBD0000EFBFBDEFBFBDEFBFCD
:10137000BDEFBFBD363AEFBFBDEFBFBDEFBFBDEFA5
:10138000BFBDEFBFBDEFBFBDCABEEFBFBDEFBFBDAD
:10139000EFBFBDEFBFBD000044300311E0FF000010
:1013A00031365831363A57656C636F6D65C8ABEFAF
:1013B000BFBDEFBFBDEFBFBDEFBFBDEFBFBDEFBF57
:1013C000BD00000032345832343AEFBFBDEFBFBD2C
:1013D000EFBFBDEFBFBDEFBFBDEFBFBDEFBFBDEF07
:1013E000BFBDEFBFBDC4B2EFBFBDEFBFBDEFBFBD5F
:1013F0000000000033325833323AEFBFBDEFBFBDBB
:10140000EFBFBDEFBFBDEFBFBDEFBFBDEFBFBD00C5
:1014100010B5034A1321034801F062FD10BD00001E
:1014200074F30211E0AFFF1FF1B51D4D84B02846E3
:1014300002F0DAFE1F261B4C00960021228814239E
:10144000084602F069FF009663882288184614381F
:1014500081B2002002F060FF134801270580049844
:10146000102600901F232A46022102970196002091
:1014700002F076FA0DA06946C1C160881F231238B8
:1014800081B22A46002002F06BFA0095608822881B
:10149000143883B21421002002F03EFF05B0F0BDE5
:1014A000FFFF0000E8E6FF1F22BAFF1F6874747098
:1014B0003A2F2F7777772E6C636477696B692E6389
:1014C0006F6D0000FFB581B00E4607460A9D0B9C6C
:1014D000049B039A02F0ACFE23462A460499039823
:1014E00002F0A6FE33463A462146284602F0A0FE08
:1014F00005B0F0BDFEB524A0FFF796FF2DA0384F34
:1015000000240C2500903B461F221E2101950294C9
:101510000A2003F0C7FC33A0012600903B461F229F
:101520002D21029601950A2003F0BCFC38A0009002
:101530003B461F223C21019502940A2003F0B2FC95
:101540003BA0102500903B461F225021019502949C
:101550000A2003F0A7FC41A000903B461F22642113
:10156000029601950A2003F09DFC47A000903B469F
:101570001F227821019502940A2003F093FC4B204E
:101580000001FEF76DFDFEBDEFBFBDEFBFBDEFBFBC
:10159000BDEFBFBD353AD3A2EFBFBDEFBFBDEFBFBB
:1015A000BDEFBFBDCABEEFBFBDEFBFBDEFBFBDEF5B
:1015B000BFBD0000365831323A61626364656667C8
:1015C00068696A6B6C6D6E6F707172737475767723
:1015D00078797A3031323334353637383900000093
:1015E000E0FF0000365831323A4142434445464715
:1015F00048494A4B4C4D4E4F5051525354555657F3
:1016000058595A30313233343536373839000000C2
:10161000365831323A7E21402324255E262A282955
:101620005F2B7B7D3A3C3E3F2F7C2D2B2E00000014
:10163000385831363A6162636465666768696A6B17
:101640006C6D6E6F707172737475767778797A30AD
:1016500031323334353637383900000038583136B6
:101660003A4142434445464748494A4B4C4D4E4F08
:10167000505152535455565758595A3031323334C9
:101680003536373839000000385831363A7E214037
:101690002324255E262A28295F2B7B7D3A3C3E3F6A
:1016A0002F7C2D2B2E000000FFB591B000200F9055
:1016B00010A906900889098A884206D910AA1181C2
:1016C0001082908891899180908110A8018A808DE4
:1016D000814206D910AA91851082108D91891185B9
:1016E000908110A90889098A884206D910AA118117
:1016F0001082908891899180908110A80789868DA9
:101700000146B74228D1888869460881888110A996
:101710008989814202D26846818103E0814201D9F0
:101720006846018110A9088D694689898842694601
:1017300001D2888104E00989884201D9694608817B
:1017400046483B46008800906846028919468089D1
:1017500002F0E2FD15B0F0BD8A898D88501B109013
:10176000088AC11B0E9110A9098D4B1B0793891A7A
:101770000991F31B311A0A930C91B04201D0401E1B
:1017800080B23C4601902CE00E990F98FEF76EFC5B
:10179000401981B26A469181049105910A9906988F
:1017A000FEF764FC401980B26A461081109A0F99C6
:1017B00089180F91079A069989180691059981420F
:1017C00003D96A46049990811181244823460088F0
:1017D0000090684602891946808902F09DFD641CCC
:1017E000A4B201988442CFD910A8008A0999201A7E
:1017F00048430F900799E01B484306902AE00C9954
:101800000F98FEF733FC10A98989401887B2694602
:101810008F810A990698FEF729FC401980B2694623
:101820000881099A0F9989180F91079A06998918C2
:101830000691874202D9694688810F81074823466D
:1018400000880090684602891946808902F064FD8C
:10185000641CA4B2B442D2D97CE7000022BAFF1FB4
:1018600070B50C460146012080020A1A00251C486A
:101870001300FEF701FC0F32090B0D1012181A1C91
:101880002A1F212325272A00408A23E0807800E0B0
:10189000C078207021E00079FBE710221149204632
:1018A000FEF7C6FB19E04079F3E7C07AF1E78069FB
:1018B000206012E0407AECE7807AEAE7007BE8E714
:1018C000807BE6E704F0FEFEE3E7272904D2084622
:1018D00000F0E8FE208000E00225284670BD0000F0
:1018E0007CB1FF1F8CD7FF1F10B50249087004F0B0
:1018F000EBFF10BD7CB1FF1FFFB595B000251E4664
:10190000109510AA119500F0CFF907460A287AD24F
:1019100004460620444320462030C0B26A460E21C9
:101920000AF068FC002802D168468089C5B2179881
:101930001490082E14D000201390082E12D02046A8
:101940002130C0B212901C2200216846FEF79AFB9B
:101950006A461C2112980AF04DFC002805D010E0C0
:101960000120E9E720462230EBE76846807EC01F71
:10197000092806D8E907C90F6A46139B149800F096
:10198000D9FD1422002107A8FEF77CFB2046243055
:10199000C0B207AA10210AF02DFC002812D1102293
:1019A000FF2107A8FEF774FB00280BD12534E0B215
:1019B0000BAA04210AF01EFCE907C90F07AA179811
:1019C00001F026F87037F8B20CAA10210AF012FCC8
:1019D000002811D10CA804F068FF00240CAFA0006F
:1019E000C0190188002903D08278179801F0D4FA31
:1019F000641CE4B2042CF2D3A80704D5094801788A
:101A0000179801F0B7FA042E08D106491798491C17
:101A1000085C022802D1179804F08EFF002019B04C
:101A2000F0BD00007CB1FF1F70B500240546002901
:101A30000BD108491046FEF70DFB0846294600F079
:101A4000CDFE040003D00121284601F007F820460E
:101A500070BD000040420F0070B50C46080428D548
:101A600015480078FEF71AFB05001ED00278B02A50
:101A700008D0B12A0ED0D02A14D100F01FF80028C7
:101A800010D112E001791E290CD16888002100F0E4
:101A900065F907E00179002904D10289C1886888C5
:101AA00000F048FA2846FEF7FFFA0120C003604024
:101AB00070BD002070BD00007CB1FF1F7FB5827833
:101AC0006F4D921FE9691300FEF7D6FA0AB3D7D714
:101AD000681B06D7D75F7BD70446002908D00E685D
:101AE000002E05D0637B227B6189E01CB047C4E0F7
:101AF0006189A86900F072FE0028F8D06089012190
:101B000091E00446407800282DD1A079C0072AD062
:101B1000A08881005A4820304058002823D10E2246
:101B200000216846FEF7AEFA6169002903D006225B
:101B30006846103107E0A08809F076FD00283FD004
:101B4000C11D06226846FEF773FA69468889A179A5
:101B50004907C90F0843694688812146684604F051
:101B600069FC002809D0E869002829D04368002BC7
:101B700026D06278A088012152E0A08822466946DA
:101B800004F0AAFF002004B070BD002975D04B6896
:101B9000002B72D042788088022141E0C37804464D
:101BA000011D0022184600F07FF80A2865D20621A0
:101BB000484325302246C0B20C3204210AF046FBCD
:101BC0005BE00446687A0028A08801D0A97A2AE060
:101BD0002B49491C095C002924D009F025FD064643
:101BE000A07AC0070DD0002E47D0B079002808D0C9
:101BF000A189890505D46A46F11D00F055F8002831
:101C000014D02246B179A088083204F0D1FCE869EA
:101C1000002832D04368002B2FD00022A088114624
:101C200098472AE0052100F019FF26E0A08803214B
:101C3000F9E700F0B3FD00281FD1E87B002601285A
:101C400005D0104D0024285D012809D00CE004F0D7
:101C50007DFDEE730A2200210A48FEF713FA07E021
:101C6000204604F07FFD2E55641CE4B20A2CEAD312
:101C700050200AF0BDFA04F027FE012083E700009F
:101C80007CB1FF1F28D8FF1F10B5064CE0612178FA
:101C9000FF2905D0262000F0ABFE207801F01AF9CC
:101CA00010BD00007CB1FF1FF0B50A2485B01546B9
:101CB0000F46002806D0012804D0022810D003289F
:101CC00046D11FE0084604F0AFFD04460A283FD283
:101CD000002D3DD0062239462846FEF7A9F937E007
:101CE0001D4E00240E206043801906223946801DB7
:101CF000FEF7AAF9002823D1641CE4B20A2CF1D320
:101D00000A241DE000242046062148432330C0B2A7
:101D10006A4610210AF06EFA00280CD11022FF2129
:101D20006846FEF7B5F9002805D13946684600F047
:101D300013FE002804D0641CE4B20A2CE3D3DFE7CE
:101D40000A2C05D2002D03D02946204604F092FD2E
:101D5000204605B0F0BD00009CD7FF1F70B50E46B1
:101D600017491525884212D1002432460221204607
:101D700004F0C0FC002800D00025641CE4B20A2C4A
:101D8000F3D3002E1AD00F4809F0AEFC16E009F08C
:101D90004BFC040011D0A0790022E11DFFF784FF65
:101DA0000A2804D23246022104F0A4FC0025002EA9
:101DB00004D0204604F0B6FD00E01425284670BD8E
:101DC000FFFF000025690211FEB5154601229202AF
:101DD000821A00240127544E1300FEF74DF9110A10
:101DE000151A21282F373E434B767E858D9B9B56B7
:101DF0009B00012970D1297802297FD84A48012205
:101E0000401CFEF73FF98DE0022977D128887082C7
:101E100088E0012972D1287801286FD8B07081E05C
:101E200001296BD12878042868D8F0707AE001295C
:101E300064D12878012861D8307173E010295DD110
:101E4000102229463948FEF7F3F86BE0012955D1F5
:101E50002878012852D8707164E001294ED1287881
:101E6000F0725FE0042949D131492868884245D899
:101E7000B06157E0002941D100F090FC002801D06A
:101E8000F7734FE004F062FC19E0072936D106220F
:101E9000691C6846FEF70EF9287800226946FFF7AC
:101EA00003FF05460A280ED200F078FC002803D074
:101EB0001E489C30475535E0284604F053FC50201E
:101EC0000AF096F923E002242CE0012916D12878A3
:101ED000012813D8707225E010E001290ED128786E
:101EE00009280BD8B0721DE0012907D12878C11F3D
:101EF000092903D8307315E0012901D0182411E015
:101F0000B17B2878B07300290CD101280AD104F0E4
:101F1000DBFC07E02728D6D20229D4D1298800F09B
:101F200067FD04462046FEBD7CB1FF1F8CD7FF1F16
:101F30003F420F00F8B50F46134915251646884253
:101F40000DD1002432463946204604F015FD002804
:101F500000D00025641CE4B20A2CF3D312E009F08F
:101F600063FB00280DD08379C11D00221846FFF7BE
:101F70009BFE0A2806D23246394604F0FDFC0025B5
:101F800000E014252846F8BDFFFF000070B50C46A0
:101F90000146032000020A1A002534481300FEF708
:101FA0006BF81D1012151C1F2326282C30323438D4
:101FB0003A3C3E40424446484A4E50525A54565883
:101FC0005A00C07911E01022294902E02849102264
:101FD00010312046FEF72CF845E0C06A206042E050
:101FE000224906223C31F4E7007820703BE08089EA
:101FF00036E01E4942784231EBE71D4982781F39AD
:10200000E7E7007AF1E7407AEFE718490622303136
:10201000DFE7807AE9E7C07AE7E7C08920E0808AD5
:102020001EE0C0781CE0C08A1AE0008B18E0408BEC
:1020300016E0808B14E00D4906223631C9E7C08BCB
:102040000EE0008C0CE0408C0AE08079CDE7008A3D
:1020500006E0408A04E0272904D2084600F022FB6B
:10206000208000E00225284670BD000028B2FF1F36
:1020700067D8FF1F70B50E4C00256071A571691EF1
:10208000E18100F063FC0420E07110220021094886
:10209000FDF7F8FF0748102200211030FDF7F2FF8E
:1020A000E562257265720720A072E57270BD0000BE
:1020B00028B2FF1F67D8FF1FFEB53B4D0C46080432
:1020C0000CD56879FDF7EAFF050004D005F044FA65
:1020D0002846FDF7E9FF0120C00360E0600403D556
:1020E000012080034840FEBD2F48E107012680798A
:1020F00000292AD02978002920D0052821D0287A43
:1021000069460870687A4870274900A8062230316D
:102110000230FDF78DFFA87A69460872E87A4872A6
:10212000687900F0DBFA002808D00720A871696AF6
:10213000002903D00968002900D088472046704054
:10214000FEBD032069460870E5E7A1070DD5052807
:1021500009D1E889FDF7B4FFAA8A002A03D0022139
:102160006879FDF7B3FF022019E0600704D500206D
:1021700005F04AFA042012E0200712D52879012838
:1021800002D002280AD107E00096AB8B6A8B298B1C
:10219000E88A00F00BF801E000F05AF908206040EE
:1021A000FEBD0020FEBD000028B2FF1FF8B5134C95
:1021B000069DA679052E01D01420F8BD104F861F6C
:1021C000BE4219D2062917D3BE1DB14214D2FF2731
:1021D000F537BA4210D20A2B0ED3B3420CD2E082AA
:1021E00021836283A383284605F00EFA04216079D7
:1021F000FDF772FF0020F8BD1820F8BD28B2FF1FC0
:102200007A0C0000F7B50C46804900981646421833
:102210007F4F00257879B9791300FDF72DFF190E4E
:10222000141BE92040455970777E888FE996A2A952
:10223000B4BFC8E9E9E9E9D3E900102C76D110224E
:10224000314674486FE0102C70D17248102231462C
:10225000103068E0042C69D13068F862CEE0012CBF
:1022600064D13B7832783A70002B0AD0002A07D12B
:10227000022903D0062901D0042901D100F0E8F990
:10228000BCE0002A0AD0012905D0032903D0052982
:1022900001D0042902D10121FDF724FFAEE0022C78
:1022A00044D13088B881A9E01F2C3FD858481F225C
:1022B00000214230FDF7E6FE5548224631464230C5
:1022C000FDF7B6FE524B7C7042332246012112E0EC
:1022D0001F2C7CD84F481F2200211F38FDF7D2FE4B
:1022E0004C48224631461F38FDF7A2FE494BBC70D0
:1022F0001F3B22460021787900F000FC83E0012C8E
:1023000065D13078042862D8387277E0012C5ED12C
:10231000307803285BD8787270E0062C57D13C489F
:10232000062231463030FDF783FE67E04FE0012C96
:102330004DD1307807284AD8B8725FE0012C46D1D9
:102340003078032843D8F87258E0022C3FD1328805
:10235000BA82002A52D0052950D10221FDF7B6FEDB
:102360004CE0012C33D13078012830D8F87045E0AA
:102370003088022C2BD1062829D31921C901884283
:1023800025D8F8823AE03088022C20D106281ED3C6
:102390001921C90188421AD838832FE03088022CCD
:1023A00015D1FF21F531884211D2788326E030889B
:1023B000022C0CD10A280AD31921C901884206D857
:1023C000B8831BE03178012C01D1012901D01825F7
:1023D00014E00821FDF78CFE002801D016250DE041
:1023E000002005F011F904217879FDF775FE05E06C
:1023F0000098272801D2022C02D002252846FEBDD3
:10240000318800F0F5FA0546F8E70000FFFCFFFF11
:1024100028B2FF1F67D8FF1F1CB50B4CA1790029FC
:1024200001D011201CBD002800D060620649074879
:102430002C31034601910090103B0022E179607934
:1024400000F0BCF800201CBD28B2FF1F77D8FF1F8A
:1024500010B506488179052901D0122010BDC18927
:102460001322407900F00AFB10BD000028B2FF1FC4
:10247000F8B504462C480F460078022805D00128FC
:1024800003D0082803D1002F01D01220F8BD002C62
:1024900007D02088254D81006958002903D01120DC
:1024A000F8BD0220F8BD09F0BFF8060036D02C2098
:1024B000FDF724FE218889006850002830D02C22A6
:1024C0000021FDF7DFFD20881C228100695848802B
:1024D0002088211D80002858001DFDF7A9FD2188B6
:1024E0000220890069580870228890002B58707962
:1024F0001B1D002816D000200D49097802F0FEFBB4
:102500000546002F03D0394630460AF04BFA002D1D
:1025100002D0208804F05AFB2846F8BD1420F8BDEC
:102520001320F8BD0120E7E7B3BAFF1F1CBBFF1F54
:1025300041BBFF1FFFB5204D81B028781E461746CE
:10254000022823D0012821D0002F22D0019809F0A1
:102550006BF804001FD0606A002801D0FDF7D4FD9D
:102560001C213846FDF7D6FD6062011E15D0287883
:10257000000714D5002E12D0887E00900B4612332F
:102580000A8A01980AF0D8FC014609E0122005B039
:10259000F0BD0220FBE71420F9E71320F7E7002144
:1025A0002079042210432071029A002A02D00222CC
:1025B000104320710846EAE7B3BAFF1FFFB581B0A8
:1025C0001E460D4602240B9F0B00FDF755FD0D1D09
:1025D0000E0C0C0E1D0C1D0C0C1D1D081D000CA05E
:1025E00003F0CAF801E0002C0ED12946019800F052
:1025F000D9F8040008D13A4630460A9900F0B0F9FB
:1026000000F010F902F06AFB204605B0F0BD0000B2
:102610004741505F446576696365496E69743A2045
:102620004741505F50524F46494C455F43454E54D9
:1026300052414C207C204741505F50524F46494CFC
:10264000455F5045524950484552414C200A0000D0
:1026500070B5104C2168002904D00978814203D05C
:10266000032070BD122070BD0B4D02212878FDF7AC
:1026700033FD0A480026468004212878FDF72CFD0A
:10268000074806802168032048700020FDF748FDB8
:1026900070BD000010BBFF1F41BBFF1F24BBFF1F0D
:1026A000B6BAFF1F272803D202494000085A7047D4
:1026B00001487047BEBAFF1FFFFF000010B5064C6F
:1026C000607008F0E1FF6078FDF730FD052160786B
:1026D00001F02CFD10BD000040BBFF1F70B5284E5F
:1026E000054630680C46002801D0112070BD2548F1
:1026F00001780520014216D023488068002805D0C3
:102700000078002802D0C80706D101E0102070BD73
:1027100000F044F8002808D02078032805D00228CB
:1027200003D0002801D0122070BD0C20FDF7E6FC7C
:102730003060002820D00570002141700A22214617
:10274000801CFDF775FC05F041F8040002D004F090
:1027500031FA12E00D48007803280ED11D20FFF752
:10276000A1FF0B490028088007D00B48094A042123
:102770000078FDF7E1FC00E01324204670BD000066
:1027800010BBFF1FB3BAFF1F24BBFF1FB4BAFF1F4C
:10279000B6BAFF1F60EA000041BBFF1F10B508F08A
:1027A00091FF10BD70B50C4605461C22002109485A
:1027B000FDF768FC084805704470FDF7C3FC054947
:1027C000002803D000200870122070BD01220A707A
:1027D00070BD000040E7FF1FB2BAFF1F7FB504467F
:1027E0000D46084608F020FF002805D00C4884421A
:1027F00004D9022004B070BD1220FBE71022002192
:102800006846FDF73FFC68460470210A4170210CC0
:102810008170210EC170294602F0D2F9EAE700006A
:102820003F420F0070B50F4C0025A068002802D071
:10283000FDF76AFCA560E068002802D0FDF764FCA3
:10284000E560094805210078084206D005481030A7
:1028500004F082FD03F0C4FD70BD002004F07CFD97
:10286000002070BD24BBFF1FB3BAFF1FFEB5344D5F
:102870000C46080419D56878FDF710FC0121C9033E
:102880004C40064600280ED004F086FC002807D1F4
:102890002878FF2804D03146FDF75AFC002802D0E2
:1028A0003046FDF701FC2046FEBDE0070127002869
:1028B0000AD0A868002804D04168002901D000206F
:1028C000884720467840FEBDA00709D568680028E3
:1028D00004D04168002901D00120884702202AE065
:1028E00060072AD5174E308800281FD0401E0004EC
:1028F000000C30801ED104F0CFF9002809D0124816
:1029000007706868002804D04168002901D00120C0
:10291000884704F09BF9694602F0D0F8684604F055
:1029200025FC1D20FFF7BEFE308003E004216878FF
:10293000FDF7D2FB04206040FEBD0020FEBD00007C
:1029400040BBFF1FB6BAFF1FB5BAFF1F0149087091
:102950007047000040BBFF1F10B502F099F910BD91
:1029600070B50E4C0B46261D07C6054610220021E9
:102970001846FDF78DFB012803D11021A06809F04E
:102980007DFE102200212846FDF782FB012803D19D
:102990001021606809F072FE70BD000040E7FF1F63
:1029A00038B505460F480C460078400701D4122080
:1029B00038BD284608F038FE002811D00A48A90082
:1029C0004058002801D0817D00E0214668460AF089
:1029D00009FB064B6A46022128460AF069FA38BD0F
:1029E000142038BDB3BAFF1F1CBBFF1FF1D4021166
:1029F000272807D2044A914204D0044A40001152C9
:102A00000020704702207047FFFF0000BEBAFF1F82
:102A100070B50E46104915460978022916D00129CD
:102A200014D0002D14D008F0FFFD040012D0002EA9
:102A300003D0207902210843207110222946A018D2
:102A4000FDF7F6FA28692062002070BD122070BDE3
:102A5000022070BD142070BDB3BAFF1F38B50C46FC
:102A6000054608F0E1FD002806D068460470694676
:102A700028460AF00BFA38BD142038BDF8B50D46CB
:102A800017461D4906461B4A1224C868954208D1BC
:102A900000282DD00268002A2AD0294630469047C7
:102AA00023E0144A521C954213D1002807D0026833
:102AB000002A04D0294630469047040005D0394604
:102AC000304602F00BFF040012D10B48067047702D
:102AD0000EE0284608F0A8FD002809D00078B04292
:102AE00005D139462846FDF739FB044600E00324AA
:102AF0002046F8BDFEFF000014BBFF1FF8B50E46D0
:102B0000014619481546007805221F46104028D076
:102B1000304326D01548012E1BD0C468002C20D08D
:102B20001F2D18D8002D01D0002F14D001701F22A6
:102B30000021601CFDF7A6FA2A463946601CFDF705
:102B400077FA28462570002E07D0611CFDF70CFB94
:102B5000F8BD8468E2E70220F8BD611CFDF70AFBBE
:102B6000F8BD1220F8BD0000B3BAFF1F24BBFF1F41
:102B7000014610B50020C90704D0034A04210348C8
:102B800000F0AEF910BD000088F3021138B1FF1F4C
:102B900070B50F4D0F4CA87029461831204600F033
:102BA0001DF8002128460B461030CA008452121826
:102BB000491C09065360090EF7D0012006F098F869
:102BC000A87800F00FFC044808F0A4FD70BD0000D8
:102BD00018B1FF1FFFFF00004D85021170B50A4CB0
:102BE0000025A04209D1002082008C525218401CBE
:102BF000C0B295700228F7D370BD05F076FC0028AE
:102C0000FAD00480857070BDFFFF0000F8B50E4655
:102C10000746069900240798002902D00B24204675
:102C2000F8BD022B01D00D24F9E711785278120279
:102C300089188DB22946814301D08024EFE73846B8
:102C4000F16800F03FF9A842E9D02A463846F16819
:102C500000F0D0F90400E2D171892A46384600F02C
:102C60006DF9DCE770B50C46080412D50A48807887
:102C7000FDF714FA050008D02878B02802D12846BC
:102C800005F050FD2846FDF70FFA0120C003604013
:102C900070BD002070BD000018B1FF1FFFB583B0EC
:102CA000087A00250C9E1C460F46C0060DD50598D7
:102CB00005F014FC030006D00A2239460398984711
:102CC000050035D101E00E2532E0387802281DD10B
:102CD000786829220178407812020002081881B22F
:102CE000881A91427ED009DC7348081A23D0012843
:102CF00021D002284FD0032808D125E0012872D026
:102D0000022871D003286DD004286ED0059805F0F4
:102D10000DFC00286AD00568002DD4D00E990D98BE
:102D2000019100903346224639460398A84705464C
:102D3000284607B0F0BD0D98002872D1F8680178D8
:102D400031800278416896E00D98002869D1012011
:102D50003080F8680021007820707889401C80B2AB
:102D600000F0DAF900280DD0318802788918891C22
:102D70003180817A61704189090AA17002784168C5
:102D8000E01C79E030880422001D30800021601CA6
:102D9000FDF778F9CCE70D98002875D1F86802A9FD
:102DA0000088009004203080009820700098000A6D
:102DB0006070009800F0B0F9070029D0F868009022
:102DC0006846028901AB3D49384600F0FDF900280C
:102DD00010D13B7802213A487A68FDF7B7FE002807
:102DE00008D104E026E030E01CE04AE062E033482D
:102DF000694688800098007802280CD10098022249
:102E00004168201DFDF714F93088801C308002E0F5
:102E100069460098888068468088A070000AE07043
:102E200086E731E00D9800282ED1F968039800F06C
:102E300049F804E00D98002826D1F868008802219E
:102E400031802070000A607072E7F868FDF798F929
:102E50000D99C0B2814212D8814201D1002206E010
:102E60000E9A8918814202D30D99401AC2B232805B
:102E7000F9680D9809182046FDF7DAF858E7072594
:102E800056E70D98002801D00B2551E70721F86877
:102E9000318001782170417861708178A17041881A
:102EA000090AE1700179217181796171C088000A94
:102EB000A0713DE700252FE700280000FFFF00007C
:102EC0006E2F031110B505F010FB002800D080789C
:102ED00010BD0000014908707047000018B1FF1FC5
:102EE0007CB51546040019D068460194018000F0B5
:102EF0007FFA03001DD1002D1BD06489002C0DD05A
:102F00000C20FDF7FBF800280AD000230360848022
:102F1000094A85609168002904D006E0022308E090
:102F2000132306E0906004E011460A68002AFBD1F2
:102F3000086018467CBD000018B1FF1FF8B50C4CA6
:102F40000746207815460E46FF280FD00A20FDF7C9
:102F50001DF901000AD0B1200870002048700871E6
:102F60004F80CE800D812078FDF7F2F8F8BD00008B
:102F700018B1FF1F70B50C4605460649FFF7A2FFC2
:102F8000800704D52146284600F086FA70BD01204E
:102F900070BD000030B1FF1F1CB56B461A71120ADC
:102FA0005A7100220092022301AA00F001F81CBD10
:102FB000FFB583B008461F4601A90C9E00F0ACF88F
:102FC000050014D06846808805F0B0FA00280AD0C1
:102FD0004468002C09D000963B462946059A039880
:102FE000A04707B0F0BD0024F3E70E20F9E7012069
:102FF000F7E7000070B514460E46054605F075FA71
:10300000002806D13146054805F06FFA002803D0A4
:1030100005808470002070BD112070BDFFFF00008E
:1030200010B50178B0290BD14178002908D1017978
:10303000122906D01B2903D14088012101F000F894
:1030400010BDFF210231095C0129F5D010BD00003F
:10305000FEB56C46A180E280064601AF1D4602A97E
:1030600004F0AEFD04000CD139463046FDF702FEF7
:10307000040006D1044B052239460095029805F05C
:103080006BFF2046FEBD0000FB0D021110B586B09F
:103090006C46218062800221217103216171282107
:1030A000A1710022694605F0AFF906B010BD00001D
:1030B000F0B5C1B01D460646022A01D0102A27D11C
:1030C000002925D00123684603819B1E43810223EA
:1030D0000373002343732823837302821230FCF7A7
:1030E000A7FF02AF01A9304604F06AFD04000CD12D
:1030F00039463046FDF7A2FD040006D1054B0722F4
:1031000039460095019805F027FF204641B0F0BDF3
:103110000220FBE78D0D0211F0B58C4610494B687B
:1031200019E09F687C89A04214D39E88311981429E
:1031300010D900220CE011017D186989814205D166
:103140006046002800D004802846F0BD521C92B290
:103150009642F0D81B68002BE3D10020F0BD0000A0
:1031600050BBFF1FFFB5174881B00A9F446824E099
:1031700000251EE0A068290146187089019988423F
:1031800015D30299884212D80498002807D03178C4
:103190007068049B039AFDF7D9FC002807D0002F24
:1031A00002D0A06840893880304605B0F0BD6D1C63
:1031B000ADB2A088A842DDD82468002CD8D1002068
:1031C000F3E7000050BBFF1FFEB5174600256A4617
:1031D0009580044640891D4A1E46904208D001AAA7
:1031E0000092401C237880B26268FFF7BBFF05465F
:1031F0002378022116486268FDF7A8FC002807D151
:103200002378022113486268FDF7A0FC002801D052
:1032100060890EE0237802210F486268FDF796FC72
:1032200000280DD0002D03D068468088B84203D016
:10323000384605F071FE04E06889401E80B200E067
:103240006089002E00D030802846FEBDFFFF0000C0
:103250006C2F03116E2F0311722F0311FFB581B074
:103260000F461E4614466946019804F0BFFC05004F
:1032700018D1002C06D001221021019808F0AEF9D7
:1032800005000FD139460198FDF718FD050009D159
:10329000009CFF2E06D021461E22A31C034805F0E9
:1032A00047FEE670284605B0F0BD00001D8E0211F5
:1032B00010B505490870042100F038FF00F036F819
:1032C000FDF710FD10BD000060BBFF1FF8B5002426
:1032D000124F2546FF26FF200D306043C019002CF9
:1032E00018D00F49018085704672FF21067209319E
:1032F0000D54FC2200210C30FCF7C4FE641CE4B227
:10330000022CE8D3074805F0B3F8074808F002FAA2
:103310000020F8BD0249491EE4E700005CE7FF1FFA
:10332000FFFF0000857A0211CD79021170B50E4CB5
:1033300000200C4B651CFF228100C91800280ED00C
:103340000D80401CCA70C0B28A700228F4D30748AE
:1033500005F094F8064808F0DDF9002070BD0C80F7
:10336000EFE7000058BBFF1FFEFF0000498E02116F
:103370009D8D0211F8B50D4614460646694604F0C7
:1033800035FC17280CD0002C06D001221021304625
:1033900008F024F9002803D129463046FDF798FCAF
:1033A000F8BD000070B50C46080411D50948007836
:1033B000FCF774FE050007D00178A02901D104F0C4
:1033C00071FF2846FCF770FE0120C003604070BD0D
:1033D000002070BD60BBFF1F0149087070470000EE
:1033E0004CBBFF1F014908707047000050BBFF1F16
:1033F00070B50546008800281DD068680221037852
:1034000042682248FDF7A2FB002808D16868022123
:10341000037842681E48FDF799FB00280BD01D4C2D
:103420006088002805D0012229881204101A8142E0
:1034300003D9012070BD022070BD0C20FCF75EFE98
:10344000060001D000200AE0132070BD02016B6865
:1034500061880A329952491C401C618080B22988D7
:103460008142F3D80020306008222946301DFCF745
:10347000DFFD6068002802D1666004E0084601684C
:103480000029FBD10660002070BD00006C2F0311E5
:103490006E2F031150BBFF1F70B5BEB00D46064620
:1034A000002402230E4A0F4901200094FFF75AFE20
:1034B000002812D040896A461080042050800120E4
:1034C00010715471FF209071D0712B460022694613
:1034D0003046FFF7C3FE3EB070BD0120FBE70000A1
:1034E0008A2F0311FFFF00000649496806E08A6839
:1034F0005289824201D18888704709680029F6D133
:103500000020704750BBFF1F10B51422114201D09C
:10351000012202E04A0604D50022102108F05EF8DC
:1035200010BDC80701D0002010BD022010BD10B58D
:1035300014468A0604D50122102108F04FF810BD68
:10354000882211420ED008220A40102108F046F8C5
:1035500000280BD0E034617E0029F0D0217E0129C3
:10356000EDD103E0880701D4032010BD002010BD79
:1035700010B505F011FD10BD10B505F033FD10BDFF
:1035800030B5CC17640F6418E51055431818281887
:10359000E2080078D200891AC840C007C00F30BDC9
:1035A000D21DD2084A43C11710B5490F0918CC10D3
:1035B000C908E318C900D218401A12780721081A5E
:1035C000C240D007C00F10BD014610B50020C9078A
:1035D00004D0034A07210348FFF782FC10BD000016
:1035E0009CF30211B4B1FF1F70B50D4616460024BE
:1035F0001D490300FCF740FD08051234341934223C
:103600002934152D23D8162200211848FCF73AFD3D
:103610002A4631461548FCF70BFD22E0022D16D153
:1036200011491088103908801BE0082D0FD10E4871
:10363000082231460838FCF7AFFD12E0012D06D113
:10364000CA6909493078283107E0012D01D01824D2
:1036500007E0CA6B04493078483105F0F0FE00E01D
:103660000224204670BD0000B4B1FF1F32D8FF1FF6
:10367000FFB585B0054602903E20019000200090E5
:10368000222148432E490E9A0B5C127893423CD17A
:103690004018039041780E984078814235D10698C1
:1036A00006990F3083B228460F3082B2284600F0C8
:1036B000B5FF00260398002487190F98002812D020
:1036C000204907980880B9788020E040014203D063
:1036D0002846069900F0FAFD6D1C0298ADB2281A32
:1036E000102826D009E0B9788020E040014201D0BE
:1036F000079800E0089801F0A3F8641CE4B2082CD5
:10370000DBD3761CF6B2202ED4D300980199401C4E
:1037100080B200908842B3D30B4841880088491E8C
:103720008BB2401E82B20021084600F077FF09B03C
:10373000F0BD0698029D401C80B20690E1E70000B3
:103740001C16031122BAFF1FE8E6FF1FFFB585B064
:103750000546029007200190002000904A2148432E
:103760002E490E9A0B5C127893423CD1401803907C
:1037700041780E984078814235D1069806991730E5
:1037800083B22846173082B2284600F047FF002651
:103790000398002487190F98002812D02049079811
:1037A0000880B9788020E040014203D0284606997D
:1037B00000F08CFD6D1C0298ADB2281A182826D096
:1037C00009E0B9788020E040014201D0079800E08C
:1037D000089801F035F8641CE4B2082CDBD3761CA1
:1037E000F6B2482ED4D300980199401C80B20090C4
:1037F0008842B3D30B4841880088491E8BB2401ED3
:1038000082B20021084600F009FF09B0F0BD069819
:10381000029D401C80B20690E1E70000581E031193
:1038200022BAFF1FE8E6FF1FFFB585B005460290EC
:103830000420019000200090822148432E490E9AD6
:103840000B5C127893423CD14018039041780E985B
:103850004078814235D1069806991F3083B22846B8
:103860001F3082B2284600F0D9FE002603980024BB
:1038700087190F98002812D0204907980880B97836
:103880008020E040014203D02846069900F01EFD4A
:103890006D1C0298ADB2281A202826D009E0B9780C
:1038A0008020E040014201D0079800E0089800F035
:1038B000C7FF641CE4B2082CDBD3761CF6B2802E62
:1038C000D4D300980199401C80B200908842B3D3B1
:1038D0000B4841880088491E8BB2401E82B20021ED
:1038E000084600F09BFE09B0F0BD0698029D401C02
:1038F00080B20690E1E700005E20031122BAFF1FAC
:10390000E8E6FF1F10B5144600F082FE204600F0E6
:1039100097FF10BD70B515460A46273293B202468E
:10392000273292B200F07AFE00241926B601600018
:10393000295C401940780002084300F081FF641CB4
:10394000B442F4DB054841880088491E8BB2401E12
:1039500082B20021084600F061FE70BDE8E6FF1F5C
:10396000FFB583B00C9C1F4620460D9E0E9DFCF7B4
:1039700019FC094900040988400B081AC10F0818EE
:10398000C0030094000C3B4601960295059A0499E9
:1039900001F088FA07B0F0BDE8E6FF1F38B5114C1A
:1039A0006946E0710120087001466A460E48FEF73C
:1039B0000BFA0025ED432846FFF706FE2846FFF7E1
:1039C000D7F8FDF725FDFDF733FC01F053FA002091
:1039D000FDF78EFC054801F05FFA0121E079FCF764
:1039E00081FB38BDE8B4FF1F0D040000713E0211D9
:1039F0007CB50C46434944A001F0BEFE434D200473
:103A000009D5E879FCF74AFB002801D0FCF74CFB0C
:103A10000120C00372E0E007012600280DD03B48DA
:103A20001830FEF7F9FC37480838FEF72DF938A0B2
:103A300001F0A2FE204670407CBD60070FD52878BB
:103A400005280AD1A878002805D006F013FF35A074
:103A500001F092FE01E0FEF7FBFC04204EE0A0071F
:103A60000BD52878052806D1FDF732FC334A022110
:103A7000E879FCF72BFB022040E0200727D5697886
:103A800008202646464000291DD02DA001F074FED6
:103A90006879A979884201D1002308E00B21401CF4
:103AA000FCF7D8FA69710B2041432A480B18002B08
:103AB00005D09A7859781878DB1C06F079FE687979
:103AC000A979884201D130467CBD20467CBDE00604
:103AD00016D5684606700671287805280DD1312064
:103AE00001AA01210001FEF78DFB6A4601211A4857
:103AF000FEF788FB19A001F03FFE102060407CBD5E
:103B000000207CBD00F4021125730A00E8B4FF1FF9
:103B100073746172742044657669636520455654F8
:103B20000A0D0000686964446576537461727449D3
:103B3000646C6554696D6572200A0D00983A000046
:103B400053656E6420486964205265706F72740A10
:103B50000D00000002DDFF1F190300006465766997
:103B600063652075706461746120636F6E6E656358
:103B700074656420706172616D656E740000000090
:103B8000FEB51D464B6817461C785B7808981B02EB
:103B9000E3180026099A9CB2002804D0304B9C42BE
:103BA00001D00B20FEBD2E4B9B1C9C420AD02C4BFF
:103BB000293B9C4206D02A4B193B9C4202D05B1CFD
:103BC0009C4214D1488906F0D9FD00280CD00197F9
:103BD0000095244A4179126900791568012322462B
:103BE000A847060037D038E00020288033E01C4B7F
:103BF0009C420ED11C4B1B88984201D307262CE017
:103C00001B1A934200DC1A4692B22A80C96809182E
:103C100007E01348401E844207D104202880C96869
:103C200002463846FCF704FA15E0104A0220944296
:103C30000DD00B4AD21C944205D101202880C868BF
:103C40000078387007E0094A521E944203D1288058
:103C5000C9680222E5E706F00DFE3046FEBD000011
:103C60004B2A0000E8B4FF1F08B5FF1F0829000019
:103C7000014A116150617047E8B4FF1F014AD160E9
:103C800010727047E8B4FF1FF8B50E462249074688
:103C900008781C461546052826D0022835D006F09F
:103CA00071FB00282FD020210620FEF7A1FE302135
:103CB0000720FEF79DFE05210120FEF799FE032057
:103CC000694608706A4601211448FEF79BFA0120F4
:103CD00069460870014611486A460838FEF792FAAC
:103CE0000FA001F049FD10E0487800280DD0487978
:103CF0008979884209D13146384606F059FD0BA032
:103D000001F03AFDF8BD06F069FC23462A4631462B
:103D1000384606F0A1FBF8BDE8B4FF1F0D03000014
:103D200068696768206164760A0D000073656E64D7
:103D3000206B657920616374696F6E0A0D00000065
:103D4000FFB583B00C9B002415460F468446002B1C
:103D500002D00B2007B0F0BD7868017840780002EF
:103D6000081886B23F48864203D03E481B38864238
:103D700011D1788906F002FD00286ED006A90195C0
:103D80000091394A4179126900791468002332465A
:103D9000A047044648E03448324A01696846521E4A
:103DA000008B964210D101280CD12878002801D030
:103DB000012805D1002800D00120496888474CE03F
:103DC00080244CE00D244AE0284A964231D101215A
:103DD00000930191C3B22A4639466046FEF716FFAA
:103DE00004003CD169782878090240181E4982B243
:103DF000C8687B89097A05E047889F4205D0491E3B
:103E0000C9B208300029F7D1002000280CD006A93B
:103E100001950091012A0AD00323134A41791269BE
:103E2000007915683246A847002C16D017E0022307
:103E3000F3E70C4A521C96420FD10128C2D12878D0
:103E4000002801D00128BBD1FA681070287800281A
:103E500001D00320B1E70220AFE706F00BFD2046BA
:103E600078E700004D2A0000E8B4FF1F0229000097
:103E70007047000010B515491548FEF7AFFE13480E
:103E8000144A12210A30FFF72BF804460F480A3073
:103E9000C1690220FDF7DEF90C480F49C01E027807
:103EA0000A710A4A40784871CA3250890880508B9A
:103EB00048800120887108310320FDF7CBF90649BD
:103EC0000220FFF7DBFE204610BD00001AB5FF1FE1
:103ED000FFFF000070F402117CDDFF1F70B50C4C79
:103EE000012512190B4C0498002A0FD000261B2A1A
:103EF00003D1022903D0032903D01E8004E02178D6
:103F000000E0A17801701D80002070BD6178F9E7A4
:103F1000CED5FFFF14B5FF1F30B50F4D002052194D
:103F2000039C0E4D13D01B2A04D1022903D0032970
:103F300008D00A2030BD012B02D12178297030BD74
:103F40000D2030BD012BFBD12178A97030BD012B94
:103F5000F6D12178697030BDCED5FFFF14B5FF1FB3
:103F600010B5FCF725F904460021142005F064FE85
:103F70000021152005F060FE204610BD10B5152269
:103F800014210120FCF71AF901210846FCF71CF95D
:103F900010BD38B504466846017042703C21204689
:103FA000FCF718F9FCF71CF92046FCF71FF9022270
:103FB00069462046FCF720F9FCF724F92046FCF777
:103FC00027F938BD0B7803700B8802221B0A437057
:103FD0000B88801C012B02D0022B07D011E08A78BD
:103FE00002704988090A417004220AE08A78027046
:103FF0004A88120A42700A7982708988090AC17057
:10400000062210467047000008B5044B0093134683
:104010000A46012107F0D8F808BD0000C53F02118B
:104020001CB50323019200930A46024B122107F0AC
:10403000FBF81CBDE9AA021110B5FCF7EFF810BDA2
:1040400013B504480078012803D101AA6946FCF79A
:10405000EBF81CBD6CBBFF1F70B50F490F4A087011
:1040600000210B468C00491CC9B213530429F9D313
:104070000A4C00211034FF260A460A256A43151906
:104080006B80491CA354C9B26E720329F4D3FCF7A8
:10409000D1F807F06DF870BD6DBBFF1F74E9FF1F0D
:1040A000082A01D0012070474B780A781B02D218E9
:1040B0000280CB788A781B02D21842804B790A7929
:1040C0001B02D21882808A79C97909025118C180ED
:1040D0000020704770B50C46080411D509480078D7
:1040E000FBF7DCFF050007D00178902901D106F02D
:1040F000A1FF2846FBF7D8FF0120C003604070BD38
:10410000002070BD6DBBFF1F70B500280AD1064CA2
:1041100000252580A581A580A068002802D0FCF795
:104120008FF8A56070BD0000F0E9FF1F072907D0D8
:10413000052905D0042903D0062901D002207047A3
:10414000044A8B009A181346403B1986203A907413
:104150000020704774E9FF1F70B506001BD10E4C9C
:104160000025214640310D744D740D76606D002898
:1041700002D0FCF765F865655C20002546433419DC
:10418000E80020184068002801D0FCF759F86D1CA1
:10419000EDB20A2DF4D370BD00EAFF1F70B50A8896
:1041A0000C460546072A07D0052A05D0042A03D065
:1041B000062A01D0022070BD012107F0D9FA00289B
:1041C00004D02146284606F0A5FC70BD142070BD21
:1041D00010B5001D80B2FCF739F8002803D0032188
:1041E000C943FCF739F810BD70B50B4C0546608823
:1041F0000021401E83B22088401E82B2084600F093
:104200000DFA0121132005F06FFE618820884143DB
:10421000284600F035FB70BDE8E6FF1F38B5034CBB
:104220002488009400F078F838BD000022BAFF1FFF
:10423000F0B587B0121A0026059200905F1A701E22
:1042400035460391002A01DD012109E0002A06D04C
:10425000514205910190002F04DD01200CE0002166
:104260000191F8E7002F06D07F4204900598B842EC
:1042700004DD044603E000200490F7E73C460020FC
:104280000290601C069002981AE0039881B2009890
:1042900080B200F01BF80598ED193618A64204DD2F
:1042A00001990098361B40180090A54204DD04993E
:1042B00003982D1B401803900298401C80B2029076
:1042C00006998842E1DD07B0F0BD000010B500F0AE
:1042D0009FF90248408800F0B3FA10BD20BAFF1FD2
:1042E000F8B51C4615460E4607460B46FFF7A0FFDD
:1042F0003A46234631461046FFF79AFF23462A46A0
:1043000019463846FFF794FF2A46234631461046A1
:10431000FFF78EFFF8BD000070B5141A641CA5B23B
:104320005C1A641CA4B2049E00F078F96C43214628
:10433000304600F0A5FA06494888401E83B2088836
:104340000021401E82B2084600F068F970BD0000EE
:10435000E8E6FF1F1CB59D499C4C8869C96901911D
:10436000009021460C310EC92046FBF77BFF00066A
:10437000000E02D096A001F0FFF900F039F9FBF72A
:1043800077FF9248001D0078FBF778FFA16860680E
:10439000FBF77AFFCF2000F005FA002000F0ECF9DF
:1043A000D92000F0E9F9302000F0E6F9ED2000F026
:1043B000F9F9642000F0E0F9032000F0DDF91220A3
:1043C00000F0DAF9812000F0D7F9E82000F0EAF9EE
:1043D000852000F0D1F9102000F0CEF97A2000F00D
:1043E000CBF9CB2000F0DEF9392000F0C5F92C2004
:1043F00000F0C2F9002000F0BFF9342000F0BCF951
:10440000022000F0B9F9F72000F0CCF9202000F0EC
:10441000B3F9EA2000F0C6F9002000F0ADF9002061
:1044200000F0AAF9C02000F0BDF9212000F0A4F9A5
:10443000C12000F0B7F9122000F09EF9C52000F06D
:10444000B1F9392000F098F9372000F095F9C7202C
:1044500000F0A8F9AB2000F08FF9362000F0A2F9A7
:10446000482000F089F93A2000F09CF9552000F02E
:1044700083F9B12000F096F9002000F07DF91B20AF
:1044800000F07AF9B62000F08DF90A2000F074F9F6
:10449000A22000F071F9F22000F084F9002000F071
:1044A0006BF9262000F07EF9012000F065F9E0208C
:1044B00000F078F90F2000F05FF9232000F05CF99C
:1044C0001F2000F059F90B2000F056F90E2000F0E3
:1044D00053F9082000F050F94B2000F04DF9A820C6
:1044E00000F04AF93B2000F047F90A2000F044F9B7
:1044F000142000F041F9062000F03EF9102000F0F1
:104500003BF9092000F038F9002000F035F9E120EE
:1045100000F048F9002000F02FF91C2000F02CF9E1
:10452000202000F029F9042000F026F9102000F0E6
:1045300023F9082000F020F9342000F01DF947206D
:1045400000F01AF9442000F017F9052000F014F9E2
:104550000B2000F011F9092000F00EF92F2000F0D7
:104560000BF9362000F008F90F2000F005F92B2098
:1045700000F018F9002000F0FFF8002000F0FCF82F
:10458000012000F0F9F83F2000F0F6F82A2000F0B2
:1045900009F9002000F0F0F8002000F0EDF800200C
:1045A00000F0EAF8EF2000F0E7F8112000F0FAF848
:1045B0007820FBF755FD292000F0F4F8002000F0EA
:1045C00017F90121162005F08FFC1CBD20BAFF1F32
:1045D00073706920696E69742065727221706C65F0
:1045E00061736520636865636B206974210A00004C
:1045F00010B50021112005F077FC6420FBF730FD99
:104600000121112005F070FC3220FBF729FD10BDBF
:1046100010B50B46024600F001F810BDF8B507468C
:1046200012481C4615460E46807A00F0BBF8380A40
:1046300000F0A2F8F8B200F09FF8280A00F09CF809
:10464000E8B200F099F80948007B00F0ABF8300AB6
:1046500000F092F8F0B200F08FF8200A00F08CF829
:10466000E0B200F089F800F0B3F8F8BDE8E6FF1F0B
:10467000FFB585B03C480E99008820390290C8B239
:104680000E900F9F0698109CC019401E83B27808A8
:10469000009005994018401E82B206990598FFF7D0
:1046A000BDFF002C01D000254BE00E980C214843A3
:1046B0002E490025401803900E982D4900014018FE
:1046C000019016E00C2F03D001980026445D0BE00A
:1046D0000398FAE7E00701D0079800E0089800F097
:1046E000AFF86408761CF6B20098B042F2D86D1CA0
:1046F000EDB2BD42E6D326E00E980C2F08D00101A2
:104700001B480818465D069800244019019013E0E4
:104710000C21484315494018F4E7134907980880CD
:10472000F00706D0019881B20598001980B2FFF712
:10473000CDFD7608641CE4B20098A042EDD86D1C53
:10474000EDB2BD42D8D3084902980880094948888B
:10475000401E83B208880021401E82B20846FFF73F
:104760005DFF09B0F0BD000022BAFF1FB80B0311B6
:104770002C100311E8E6FF1F3EB50446012113206B
:1047800005F0B2FB68460472002101200B4601913E
:104790000090014602AA0248FBF77CFD3EBD0000E6
:1047A00020BAFF1F3EB504460021132005F09CFBF4
:1047B00068460472002101200B46019100900146D9
:1047C00002AA0248FBF766FD3EBD000020BAFF1FAB
:1047D00010B50248007AFFF7E5FF10BDE8E6FF1FBD
:1047E00010B50C46FFF7DEFFE0B2FFF7C5FF10BDC6
:1047F00010B512492A224A812B228A812C220A8151
:10480000FF23F022413300280CD001280ED00228CB
:1048100010D0032805D10B804A80A8213620FFF74D
:10482000DFFF10BD0A804B800821F7E70B804A802C
:104830006821F3E70A804B80C821EFE7E8E6FF1F15
:104840003EB504460F210D48FBF72AFD0121132038
:1048500005F04AFB69460C72200A487200210120CB
:104860000B4601910090014602AA0448FBF712FD95
:1048700007210248FBF714FD3EBD000020BAFF1FD0
:10488000FEB50C4605460F211648FBF709FD012130
:10489000132005F029FB69460D72280A4872002290
:1048A00001211048FBF702FD0E48001D007800288A
:1048B00005D01F260027B44203D9354602E00A4E30
:1048C000F8E72546A8B20090002302AA012101972B
:1048D0000448FBF7DFFC641BEDD107210148FBF71F
:1048E000DFFCFEBD20BAFF1FFF070000FEB51AA0C7
:1048F000FCF79AFD1E21224A0846FFF70BF8012516
:10490000102420A06F4631C71F4E1F2233464B2173
:104910002A2000F0C7FA1A4A1E215A20FEF7FAFF91
:1049200018A06F4631C733461F224B21662000F086
:10493000B9FA134A1E219620FEF7ECFF334611A068
:104940006E4631C61F224B21A22000F0ABFA4B204D
:104950000001FBF785FBFEBDEFBFBDEFBFBDEFBFA5
:10496000BDEFBFBD373ACDBCC6ACEFBFBDEFBFBDDD
:10497000CABEEFBFBDEFBFBDEFBFBDEFBFBD000003
:104980006822031151510000E0FF0000F0B5184803
:1049900087B00FC803AE0FC67D2500240127ED00A8
:1049A000103E2046FFF724FF12A0FCF73DFDA100BA
:1049B0007158102000910190194B1F2202971E215F
:1049C000142000F06FFA174A32211E20FEF7A2FFD2
:1049D0002846FBF745FB2846FBF742FB641CE4B284
:1049E000042CDED30020FFF703FF07B0F0BD00006A
:1049F000E82E0311EFBFBDEFBFBDEFBFBDEFBFBDE1
:104A0000383AEFBFBDEFBFBDC4BBEFBFBDEFBFBD09
:104A1000D7AAEFBFBDEFBFBDEFBFBDEFBFBD000069
:104A2000E0FF000068220311CB1710B55B0F5B1885
:104A3000DC10E401241824B2802813DA402911DAAA
:104A400000280FDB00290DDB0848DB080019DB001C
:104A5000CB1A012199401230012A0278C9B202D042
:104A60008A43027010BD0A43FBE7000058E2FF1FB3
:104A70004023181A00B2C31710B55B0F1B18DC10C7
:104A8000E401641824B2802913DA402811DA0029DD
:104A90000FDB00280DDB0849DB080919DB00C31A0E
:104AA000012098401231012A0A78C0B202D0824314
:104AB0000A7010BD0243FBE758E2FF1F38B50C46F1
:104AC000050014D0002C12D00321684607F0D6FD53
:104AD0006946887840218006800E084369468870C0
:104AE0002246284608F03EFB050002D006E00220E0
:104AF00038BD03226946E01CFBF79AFA284638BD08
:104B0000F7B58EB00E9815460E4600282DD0002D14
:104B10002BD0301DC0B20190FBF7F0FA040039D061
:104B200002F0A0F807463246201D0E99FBF7C2FAA4
:104B3000F8B20890E0703804000E0B90A0703802B4
:104B4000000E0A9060703F0E277002F085F8014653
:104B5000102202A8FBF7AEFA06AB214602A8019A82
:104B600008F056FA060003D010E0022011B0F0BDA4
:104B7000089828700B9868700A98A870EF7008223F
:104B800006A9281DFBF796FA02F072F82046FBF7FB
:104B9000BBFA00E013263046E8E7000010B5064CEB
:104BA0002070FBF789FB06212078FFF7BFFA034846
:104BB00006F0B0FD10BD00007CBBFF1FD1C6021186
:104BC000F8B50E461F4C0146B50060590027002875
:104BD00007D02422125C022A05D0032A03D0042A1B
:104BE00001D01220F8BDC288B24201D00220F8BD27
:104BF00010220C30FBF71CFA60591021353007F0F9
:104C00003DFD615930460B460A46253335320C319D
:104C100008F0CAFA605902210278002A427807D0C7
:104C2000032A0BD14170304607F0F2FC074605E03D
:104C3000042A02D0032A03D000E041703846F8BDB0
:104C40000521EFE788BBFF1F70B50C46080419D596
:104C50000D480078FBF722FA05000FD007F058FE48
:104C6000002808D109480078FF2804D02946FBF71E
:104C70006FFA002802D02846FBF716FA0120C0037D
:104C8000604070BD002070BD7CBBFF1F40BBFF1F9C
:104C90007CB50C4605001DD0002C1BD00322E11C66
:104CA0006846FBF7C5F96946887840218006800E82
:104CB00008436946887001AA284608F053FA00287C
:104CC00007D10322214601A8FBF7BEF9012803D032
:104CD00001207CBD02207CBD00207CBD10B50548B4
:104CE0000078400701D5044800E0002007F0C4FE2A
:104CF000002010BDB3BAFF1F70BBFF1FFFB581B00E
:104D00000020274C9500009060591E461746002849
:104D100002D0112005B0F0BD002E0BD02120FDF7F0
:104D2000C1FC317E884205D82220FDF7BBFC317ED4
:104D3000884201D20220EDE77820FBF7DFF96051CD
:104D400000282AD078220021FBF79CF96159002025
:104D500048706259019911706259029991706259B3
:104D6000FF21D1706159CF8061598E60615908620D
:104D70006159203108710198002803D0384607F0A6
:104D80005DFC00906159012048700098002802D015
:104D9000384607F00FFC0098BCE71320BAE7000084
:104DA00088BBFF1FFFB58DB00F98169C0E460028DC
:104DB00015D0002C13D00D9806F036FC050011D04C
:104DC0006178207809024018A178E2780904120677
:104DD00089184718286AB84206D3401C04D002201C
:104DE00011B0F0BD1420FBE7002E04D02879800715
:104DF00001D40120F4E70822002106A8FBF742F9BC
:104E00001098001DC0B20190FBF778F9060017D08A
:104E1000301D109A0F99FBF74DF9042221463046B8
:104E2000FBF748F91022A91802A8FBF743F906ABD3
:104E3000314602A8019A08F0EBF8050002D013E011
:104E40001320CDE7082206A908A8FBF733F90822AA
:104E5000211D08A8FBF7F8F8012801D0012503E07F
:104E600039460D9802F00CFD3046FBF74DF9284607
:104E7000B6E7000010B505490548FDF7AFFE034849
:104E8000044A06210830FEF72BF810BD6CB3FF1F53
:104E9000FFFF0000D0F302110149086070470000D5
:104EA00064B3FF1FFFB587B0054610A8D0C8002027
:104EB00003907008059504901CE0039900291ED00A
:104EC0002D480188891BA94217DB4088811B08985F
:104ED000814212DB00200390202E41D001970094E4
:104EE00008A90EC9182E284642D0FEF7C1FBA81902
:104EF00085B2A41C20780028DFD10BB0F0BD1E497C
:104F0000049A0B889A1AAA42F7DB49888A1B0899E7
:104F10008A42F2DB802802D901200390EAE70D28BB
:104F20000CD0102E10D910216A4683C208A90EC9D0
:104F30002846FFF79DFB0835ADB20FE0881980B217
:104F40000890641C059D09E06A46C1C228460A9B78
:104F5000099AFFF78DFB0498401985B2641CC9E7D4
:104F60000197009408A90EC92846FEF75DFCBEE72C
:104F7000FEF7ECFBBBE70000E8E6FF1FF8B50024F6
:104F800025A0FCF751FA2F4F2F4E009770883288DA
:104F9000143883B214210020FFF7BEF92B4D0020F6
:104FA0000090708819224108204650433288091821
:104FB000520810186200AA5A1E235038323904F0E1
:104FC000DDFA641CE4B2052CE9D32148FBF748F86C
:104FD000009770883288143883B214210020FFF7BC
:104FE0009BF9002401270097708819224108204668
:104FF000504332880918520810186200AA5A1E231A
:105000005038323904F0BAFA641CE4B2052CEAD301
:105010000F48FBF725F8F8BDEFBFBDEFBFBDEFBFF1
:10502000BDEFBFBD333A475549EFBFBDEFBFBDD45C
:10503000B2EFBFBDEFBFBDEFBFBDEFBFBDEFBFBDA7
:10504000EFBFBD00FFFF0000E8E6FF1F40BAFF1FF3
:10505000DC050000FEB53048304C0090002163882C
:1050600022880846FFF758F9012610252CA06F4624
:1050700061C7294B1F221F3B1E211420FFF712FF7F
:1050800019204001FAF7ECFF1F27FF0200970021CB
:10509000638822880846FFF73FF923A01E4B009043
:1050A0001F3B1F221E21029601951420FFF7FAFED6
:1050B00019204001FAF7D4FF3F2040010090002161
:1050C000638822880846FFF727F919A0124B009041
:1050D0001F3B1F221E21029601951420FFF7E2FEBE
:1050E00019204001FAF7BCFF1F20009000216388BF
:1050F00022880846FFF710F90FA06C4661C4064BE2
:105100003A461F3B1E211420FFF7CCFE1920400118
:10511000FAF7A6FFFEBD0000FFFF0000E8E6FF1F54
:10512000424C205465737400524544200000000036
:10513000475245454E200000424C55452000000096
:10514000F8B500242BA0FCF76FF93648364F0090D5
:1051500078883A88143883B214210020FFF7DCF8ED
:10516000324D334E6000285A308078884108200143
:10517000001B09180A46143A93B23A88503952086B
:1051800010180246143A503892B289B280B2FFF732
:10519000A7F8641CE4B2052CE4D32648FAF760FFB4
:1051A0002048009078883A88143883B2142100206F
:1051B000FFF7B2F800246000285A30807888410850
:1051C0002001001B09180A46143A93B23A88503954
:1051D000520810180246143A503892B289B280B27E
:1051E000FFF71CF8641CE4B2052CE4D31148FAF76D
:1051F00037FFF8BDEFBFBDEFBFBDEFBFBDEFBFBD18
:10520000323A475549EFBFBDEFBFBDEFBFBDEFBF5E
:10521000BDEFBFBDEFBFBDEFBFBDEFBFBDEFBFBDBA
:10522000EFBFBD00FFFF0000E8E6FF1F40BAFF1F11
:1052300022BAFF1FDC050000FEB5002434A0FCF7F5
:10524000F3F83F483F4D009068882A88143883B2AD
:1052500014210020FFF760F83B4F3C4E6000385AA5
:10526000308038482201418800884908121B1423E5
:105270008A18400863431146C0180546153DABB275
:10528000493A009393B20246143989B2333A5038FE
:10529000019192B280B2FCF715F9641CE4B2052CBE
:1052A000DCD32B48FAF7DCFE2548264D00906888B1
:1052B0002A88143883B214210020FFF72DF8002427
:1052C00021486100405A3080688821014008091B4C
:1052D00042181046143881B22888142340086343CA
:1052E000C0180746153FBBB2493A009393B2024635
:1052F000333A5038019192B280B2FCF7D5F9641C70
:10530000E4B2052CDCD31248FAF7AAFEFEBD000079
:10531000EFBFBDEFBFBDEFBFBDEFBFBD343A4755D7
:105320004920547269616E676C65EFBFBDEFBFBD08
:10533000EFBFBDEFBFBDEFBFBDEFBFBD00000000C1
:10534000FFFF0000E8E6FF1F40BAFF1F22BAFF1F61
:10535000DC05000010B50A460021FEF71AFE10BD5C
:10536000002805DBC106C90E0120884001490860FC
:105370007047000000E100E08307FF22DB0E9A4047
:105380008907090E9940002808DB830809489B001B
:105390001818036893430B43036070470007000F1E
:1053A0000838830804489B001818C36993430B43CB
:1053B000C361704700E400E000ED00E0FEB51C466C
:1053C0000746081915460E4681B2009078190290DA
:1053D00080B2089AFEF796FA0098089A81B2781B74
:1053E000019080B2FEF78EFA301B81B200900298D5
:1053F000089A80B2FEF786FA0098089A81B201985E
:1054000080B2FEF77FFA701981B2019038190090CE
:1054100080B2089AFEF776FA01983C1B81B2A0B2DE
:10542000089AFEF76FFA0098751BA9B280B2089A25
:10543000FEF768FAA9B2A0B2089AFEF763FAFEBDB9
:105440000A4610B501460020FAF73CFF10BD0000E7
:10545000FFB583B00F4603981B4940001646085A13
:10546000FEF7B6FE04002AD00125601C2670002F2E
:1054700003D00699B847401C85B2300610D51021DC
:10548000039806F075F9002801D0192613E0621977
:10549000E9B22046FFF734FB06000CD10C35ADB263
:1054A0000421684601800194058169460398FEF74E
:1054B00075FE060004D02046FAF7C2FE00E013266F
:1054C000304607B0F0BD0000ACBAFF1F10B504466F
:1054D0000079BEB0C00714D060880B49FDF7F2FC1C
:1054E000C0070ED0084869460830408D088001206A
:1054F0004880054800220838007808716088FDF768
:1055000039FF3EB010BD000008B3FF1F70B504980E
:1055100000241546002801D00B2070BD4868027891
:105520004078000210180E4A80B290420AD10D480D
:105530005F2102785F2A00D901700121198000786B
:1055400028700BE0084A904207D1022018800246DA
:10555000C9682846FAF76CFD00E00A24204670BDB1
:10556000192A000000B3FF1F082900007CB54C6811
:10557000154622786478069E24021219104C92B2C5
:10558000E24209D101220192DBB200962A46FDF7E0
:105590003DFB040003D000E00A2420467CBD69786E
:1055A000287809024018074980B249680029F4D0D8
:1055B000002802D001208847EFE70220FBE7000027
:1055C000FED6FFFF00B3FF1F01680A0508D11031A6
:1055D000044A016052781203914201D3891A016092
:1055E000704700004CB6FF1F10B50346002210465E
:1055F00003E09C5C6040521CD2B28A42F9D310BDD9
:10560000F3B5244C064683B0606900900498001FEF
:10561000C7B2B0788106890E85090191607E103489
:10562000002D0BD0012D09D0002823D0217801981E
:10563000814221D0002020700A2217E080210098AA
:10564000FAF746FE3A46F11C0098FAF7A5FD0198D4
:105650002070002067706072002D04D1607206F027
:10566000DBFB002202E00120607202463046049912
:1056700000F028F805B0F0BD617800983A460818A7
:10568000F11CFAF789FD6078C0196070022DEAD12B
:105690000020E3E750DAFF1F30B5BFB00C460546E7
:1056A000F8216846FAF71AFE68464480002203E0B3
:1056B000A95C83181971521CA242F9DB09F054FD50
:1056C0003FB030BD10B5C0B003786C4623700129DF
:1056D00001D9407800E000206070A27003212046CC
:1056E000FFF782FF6946C8700446F82101A8FAF75F
:1056F000F5FD04206946C880087808724878487229
:1057000088788872CC7201A809F02EFD40B010BDD7
:10571000F3B587B0044605A8FAF7E6FDA0787D2129
:10572000090141186F467982E2783A742379FB7354
:105730006079B873A5797D73E6793E7361C706A079
:1057400000F01AF803CFFAF7D5FDC2B22046089947
:10575000FFF7B8FF09B0F0BD636D645F7365745FF8
:1057600074696D653A2025642C25642C25642C25EC
:10577000642C252C25640A000FB410B503AA044834
:10578000029906F0A5F910BC08BC04B01847000047
:105790004154021138B5034B00240FCB0094FAF7A3
:1057A000AFFD38BD7CF40211F8B5496894460A781B
:1057B00049780698090251188FB2444A11210025F0
:1057C000079CBE1A091A974243D009DC404ABA180E
:1057D00013D0012A1CD0022A25D0032A08D12EE09A
:1057E000012E40D0022E48D0032E50D0292E5AD060
:1057F000002018800A252846F8BD082855D208211F
:10580000091AA14200D80C46A2B21A80314957E0C9
:105810000C284AD20C21091AA14200D80C46A2B287
:105820001A802D494CE00D283FD20D21091AA142C2
:1058300000D80C462849A2B21A800D3140E0112848
:1058400033D2A14200D80C462349A2B21A801B31A0
:1058500036E0112829D2A14200D80C461E49A2B236
:105860001A802D312CE011281FD2A14200D80C46FD
:105870001949A2B21A803F3122E0112815D2A14263
:1058800000D80C461449A2B21A80513118E00E28F3
:105890000BD20E21091AA14200D80C460E49A2B221
:1058A0001A8063310CE0072801D30725A3E70721FD
:1058B000091AA14200D80C460649A2B21A80C91F93
:1058C00009186046FAF7B4FB95E70000272A0000A4
:1058D000DDD5FFFFD7AFFF1F00F3021110B50C4657
:1058E00005F0B6FE002804D040882146FAF736FCC1
:1058F00010BD122010BD0000F7B584B06846858A3F
:10590000C08A2C4C0090400703D16846408B40076A
:1059100007D06846008B03906846408B00270290B2
:1059200034E0002200991046C9088C4611E0634615
:1059300000219B18DB0105E05E1876193619491C19
:10594000B07489B26F461826BE5F8E42F4DC521CDA
:1059500092B26B461A21595ECB175B0F5918C910CA
:105960009142E4DC15E000980026381800B201905E
:1059700007E0701900B200220199FFF755F8761C74
:10598000B6B203988642F4D37F1CBFB20298874216
:10599000E9D320890822401C2081204605A90A302D
:1059A000FAF7FAFB082205A90498FAF7F5FB07B005
:1059B000F0BD000058E2FF1FFFB589B00A980890BB
:1059C0001F46154600241846FAF7ECFB86B2002D58
:1059D00007D0012D03D0022D05D0032D05D07C2545
:1059E00004E09B2502E0872500E091250020694620
:1059F0008880C880088148818882C882088348835B
:105A00001CE0385D014630390A2903D36946088C09
:105A1000083010E02818303882B203A8089900F046
:105A200067F804990398069105906946088C098BDC
:105A300040186946401C641C0884A4B2B442E0D3F8
:105A40000A46098D9180508DD080128C511A6A4679
:105A5000491C1181518BD28A8918081A6A465081D3
:105A6000082201A90998FAF797FB0DB0F0BDF7B528
:105A700084B06946088B0290488B0190142616204A
:105A80008E5F085E0025009011E000980024281821
:105A900007B207E0A019394600B20122FEF7C4FFA1
:105AA000641C24B202988442F4DB6D1C2DB2019870
:105AB0008542EADB082205A90498FAF76DFB07B0D6
:105AC000F0BD00001CB500236C4623806380A380DA
:105AD000E380B22A04D908222146FAF75DFB1CBDF7
