:020000041102E7
:1000000003B40148019001BDADAE000003B4014846
:10001000019001BD456B010003B40148019001BD91
:100020000189000003B40148019001BDC53F0000F3
:1000300003B40148019001BDE94C010003B401483B
:10004000019001BDC95C010003B40148019001BDEC
:10005000CD4C010003B40148019001BD0159FF1FBF
:1000600003B40148019001BD1D4B010003B40148D8
:10007000019001BD6189000003B40148019001BDF8
:10008000154D010003B40148019001BD4551010027
:1000900003B40148019001BDFD58FF1F03B401489E
:1000A000019001BDF54E010003B40148019001BD6E
:1000B000434D010003B40148019001BD2526000015
:1000C00003B40148019001BD8B52010003B4014803
:1000D000019001BDB352010003B40148019001BD7C
:1000E0000D52010003B40148019001BDC94A01004D
:1000F00003B40148019001BD691F000003B4014829
:10010000019001BD5D17000003B40148019001BDDD
:100110003D4B010003B40148019001BD595201005B
:1001200003B40148019001BD5125000003B401480A
:10013000019001BD014C010003B40148019001BDD3
:10014000594F010003B40148019001BD8D12000018
:1001500003B40148019001BD4D1F000003B40148E4
:10016000019001BD5522000003B40148019001BD7A
:10017000DD52010003B40148019001BD1D4D010095
:1001800003B40148019001BD810E000003B4014891
:10019000019001BD017F000003B40148019001BD41
:1001A000E117000003B40148019001BD7918000077
:1001B00003B40148019001BDD949010003B40148CD
:1001C000019001BDE928000003B40148019001BD80
:1001D0005549010003B40148019001BDC926000042
:1001E00003B40148019001BD2D4FFF1F03B4014826
:1001F000019001BDF127FF1F03B40148019001BD2B
:10020000D534FF1F03B40148019001BD796EFF1F73
:1002100003B40148019001BD0959FF1F03B401480F
:10022000019001BD1DBC000003B40148019001BD57
:100230006DBC000003B40148019001BDC94EFF1F11
:1002400003B40148019001BD0559FF1F03B40148E3
:10025000019001BD3519000003B40148019001BDB2
:10026000BD18000003B40148019001BDF94C010024
:1002700003B40148019001BDC521000003B4014849
:10028000019001BD291C000003B40148019001BD8B
:10029000851F000003B40148019001BD090E000054
:1002A00003B40148019001BDA946010003B401480F
:1002B000019001BD1147010003B40148019001BD47
:1002C0001D47FF1F03B40148019001BD914CFF1F62
:1002D00003B40148019001BDE9AF000003B4014837
:1002E000019001BD1F27FF1F03B40148019001BD0C
:1002F000F926FF1F03B40148019001BD0928FF1F23
:1003000003B40148019001BDCF38FF1F03B4014879
:10031000019001BDA54EFF1F03B40148019001BD2E
:100320009B38FF1F03B40148019001BDB143FF1F7B
:1003300003B40148019001BDF942FF1F03B4014815
:10034000019001BDE938FF1F03B40148019001BDD0
:10035000E548000003B40148019001BD29510100A6
:1003600003B40148019001BDD91B000003B401484A
:10037000019001BD2928FF1F03B40148019001BD70
:100380005128FF1F03B40148019001BD51470100EE
:10039000F8B5D349D14A002004464A608300401C86
:1003A000D450FF28FADD4868CE4A014680318A6081
:1003B0006E22C262CC4A1278002A01D07F22C26229
:1003C0000A220265C94A13788363C94BC361157851
:1003D0001023022D08D01578012D05D01578032D96
:1003E00002D01578042D00D10362C24D4561192554
:1003F000AD0185613725CD6036272826C7630825DE
:10040000466405644F6032270F603B27CF63412766
:10041000CF6439274031E0C132274F6002274F6156
:1004200042270831E0C11E274F60CE608D6005264F
:100430004E6142260E615A2660390E614D613C259F
:100440008D61AF25ED000560AB4D05631578022D7C
:1004500009D01578012D08D01578032D07D015780F
:10046000042D06D007E0152504E0436003E00E25C7
:1004700000E00C254560FF252D358560C560FF2512
:10048000F53505619D4D85647D25ED009C4ECD675C
:10049000C66445629B4D85627325C5650625456525
:1004A0008565C51D0826F93502272E6047664B274E
:1004B000FF0087660927C766934F07674667BE1028
:1004C0008467C667914F8E4E3E601678022E09D023
:1004D0001678012E0AD01678032E0BD01278042A33
:1004E0000CD00EE01A22CA61212205E01422CA6152
:1004F000182201E01322CB610A6202E00E220B6295
:10050000CA617E4A8A627D22D2008A6764224A6278
:100510000522CA6202220A63C8228C634A63382118
:1005200069607B4929647B49A9614B21C900E96164
:100530007349FF30643929627D2109016962EC66E3
:100540001E212C67A9667049A965E965891029668D
:10055000696469677049A9677049714A8130E967C0
:10056000026082604160FF21F531C16001616E4827
:100570006C495A4A81606D49803A11616A496C4AF6
:1005800080318A626B4ACA626B4A82616B4AC2627C
:100590006B4A02636B4A64484038C2636A4ACA6164
:1005A0006A49816360496A48403188616A4969489B
:1005B00088605D48694A80384260694A4263694A96
:1005C0000A626949816058496848C039C860FFF7C4
:1005D00017FD0120FFF71AFDF8BDF3B50746644883
:1005E00081B0C169634A1140FF310931C161002600
:1005F00013E000252C461120FFF70EFD5C48406AF1
:100600008007800F610088402843641CE4B20546DF
:10061000102CF0D301C7761CF6B202988642E8D3BC
:10062000FEBD10B52E4C607800280AD10421524836
:10063000FFF7D3FF504804211030FFF7CEFF012011
:10064000607010BDF0B500248BB00D460646102931
:1006500002D901200BB0F0BDFFF7E3FF46490020AF
:100660000A5C401C1419C0B21028F9D3002C03D026
:10067000102D03D90B20EDE70E20EBE73F483E4C51
:100680000023006802A91034E25CC75C7A40CA54B7
:100690005B1CDBB2102BF7D306AA3748FFF7C2FC6E
:1006A000102D00D910252A4606A93046FFF7C0FCB8
:1006B000FFF7C4FC216840182060FFF7BFFC6168A9
:1006C00040186060FFF7BAFCA1684018A060FFF70F
:1006D000B5FCE1684018E0600020BBE70004FF1FA4
:1006E000A07BFF1FD0B6FF1F0077FF1F4A0AFF1F26
:1006F0003A07000080C3C9019A02000050C30000FD
:10070000280A00006A180000204E0000F009FF1FB0
:100710000040001168100000DC05000040420F009E
:10072000102700006955FF1F0001FF1F112CFF1F3C
:10073000C959FF1FA15CFF1F7928FF1F0D2AFF1F4A
:100740009528FF1FAD37FF1FA973FF1FCD71FF1F36
:100750007927FF1FCD2FFF1F0002FF1FE151FF1F51
:10076000BD53FF1F0153FF1F9D51FF1FFD2FFF1F93
:1007700040F0004000FEFEFF88AAFF1F907CFF1F94
:100780000A7802708A7842704A88120A827009795F
:10079000C170042070470A7802700988090A417004
:1007A0000220704710B500220EE093005B189C7881
:1007B00004705C88521C240A44701C7984709B88E5
:1007C000D2B21B0AC370001D0B789342EDD81806F5
:1007D000800D10BDF8B50D460646497801203170F0
:1007E0000024761C16E06978012917D01221614394
:1007F00049198A7832704A88871C120A7270B61CAE
:1008000010223046091DFFF713FC1037B8B210361E
:10081000641CE4B22978A142E5D8F8BDA1004919C9
:100820008A7832704A88871C120A7270B61C0222BB
:100830003046091DFFF7FCFBBF1CB8B2B61CE7E74A
:1008400010B50C46097801702188090A4170628848
:10085000211D801CFFF7ECFB6088801C80B210BD5E
:1008600010B50C46097801702188090A4170A178F9
:1008700081706188090AC170A288A11D001DFFF75F
:10088000D7FBA088001D80B210BD10B50C460A88A9
:10089000891CFFF7CDFB208810BD10B50B788A7836
:1008A00002705343DCB22246401C091DFFF7C0FB17
:1008B000601C10BD10B50B788A7802705343DCB20F
:1008C0002246401C091DFFF7B3FB601C10BD10B58C
:1008D0000C460A88891CFFF7ABFB208810BD10B5B9
:1008E0000C460A88891CFFF7A3FB208810BD7FB542
:1008F00015460446022901D0102903D1022B04D049
:10090000102B02D0002004B070BD994202D10A46DB
:10091000294607E01029694607D000F00DF810229B
:1009200069462846FFF790FBEDE7104600F004F813
:10093000102269462046F5E770B50C4605000CD03C
:10094000002C0AD0102206492046FFF771FB2878B8
:10095000207368786073012070BD002070BD0000B6
:10096000A480021110B50B460122024901F002FFDA
:1009700010BD00008107021170B5064608880C46BC
:10098000172812D30B4603220949304601F0F2FE24
:10099000050008D1074920880988884200D201460D
:1009A000304600F0C7F9284670BD022070BD000037
:1009B00097070211CE7BFF1F10B50023192219469D
:1009C00001F0D8FE10BD000010B50A78002A05D04D
:1009D0000B460722024901F0CDFE10BD022010BDDA
:1009E000A507021110B54A78012A01D0022A08D1C0
:1009F0000A78002A05D00B460522034901F0BAFE09
:100A000010BD022010BD0000D507021101494000B1
:100A1000085A7047C8AAFF1F10B50B461D2202498D
:100A200001F0A8FE10BD00004108021110B50B46F0
:100A30001B22024901F09EFE10BD00004108021178
:100A40000020044917224300401CCA520528FADB43
:100A500070470000C8AAFF1F0098022B01D0042095
:100A6000704711785278120289180180002070476F
:100A70000098012B01D004207047117801700020EC
:100A8000704770B5049C1E461546062B1BD369782B
:100A90002878090240182080E978A87809024018CF
:100AA000608002222271291D601DFFF7C1FAB61F66
:100AB000B2B22281F02A06D82046A91D0A30FFF7DB
:100AC000B7FA002070BD042070BD0098042B01D03F
:100AD00004207047537811781B02C918018091785F
:100AE000D27812028918418000207047F8B58489B5
:100AF0000D460646002C26D0B2681778380620D559
:100B00000C2C20D90C3CA4B2101900900121708843
:100B1000234601F0C1FD002811D00220287078067C
:100B2000C00F6870B806800EA870641E2004000C08
:100B3000A88001D0B068401CA8600020F8BD01204A
:100B4000ECE70020EAE70120F8BD10B50298114655
:100B5000042B14D34C780A78240212190280CC7822
:100B60008A782402121942801B1F9AB28280F22ACC
:100B700005D8801D091DFFF75BFA002010BD042079
:100B800010BD0098042B01D00420704753781178D1
:100B90001B02C91801809178D2781202891841800D
:100BA0000020704710B502981146062B03D0142B75
:100BB00003D0042010BD022200E0102202714B7805
:100BC0000A781B02D2180280CB788A781B02D218CE
:100BD00042800279401D091DFFF72AFA002010BD4E
:100BE00030B5039CD80718D1D805010E022914D3BB
:100BF0000B488088814210D8F6200155002008E07B
:100C0000557813782D025B194500401C6353C0B220
:100C1000921C8842F4D3002030BD042030BD000077
:100C2000C87BFF1F0098022B01D004207047117869
:100C300052781202891801800020704770B514465E
:100C400002460498022B18D3667825783602AD192F
:100C500005800546E0352A766976002A0BD0E82122
:100C60009B1E9AB242808A4207D8A11C001DFFF742
:100C7000DFF9002070BDF421F2E7042070BD000010
:100C800010B50B461722024901F074FD10BD00009B
:100C90006108021110B50B460D22024901F06AFDF0
:100CA00010BD00008B08021110B50A78002A05D08B
:100CB0000B461122024901F05DFD10BD022010BD5E
:100CC0009B08021110B50A78002A05D00B460922AC
:100CD000024901F04FFD10BD022010BDB508021100
:100CE00010B50B460F22024901F044FD10BD000073
:100CF000CF08021110B50B460B22024901F03AFD54
:100D000010BD0000DF080211F72800D9F720084ABB
:100D100001461080401EC3179B0F18188003000C5B
:100D20005080491EC80F4018C003000C90807047C7
:100D3000C87BFF1F034A1288914202D8024A400032
:100D400011527047C87BFF1FC8AAFF1F10B50023B0
:100D50001322194601F00EFD10BD000010B5064C1F
:100D6000E0612178FF2905D0262000F055FD20788C
:100D700000F0E2FF10BD00004C78FF1FF0B50A2420
:100D800085B016460F46002807D0012805D00A2551
:100D9000022810D0032847D11FE0084601F03AFF8F
:100DA00004460A2840D2002E3ED00622394630465C
:100DB000FFF73EF938E01E4F002400910E206043FB
:100DC000C0190622801D0099FFF73EF9002823D1A3
:100DD000641CE4B20A2CF1D31CE000242046062156
:100DE00048432330C0B26A461021FFF733F9002888
:100DF0000CD11022FF216846FFF732F9002805D1F7
:100E00003946684600F0E4FC002805D0641CE4B2D2
:100E10000A2CE3D32C4607E00A2C05D2002E03D07F
:100E20003146204601F00EFF204605B0F0BD00001F
:100E3000A09EFF1FFEB5154601229202821A0024D1
:100E40000127544E1300FFF711F9110A151A212832
:100E50002F373E434B767E858D9B9B569B00012909
:100E600070D1297802297FD84A480122401CFFF717
:100E700003F98DE0022977D12888708288E0012962
:100E800072D1287801286FD8B07081E001296BD128
:100E90002878042868D8F0707AE0012964D128788D
:100EA000012861D8307173E010295DD110222946E4
:100EB0003948FFF7BDF86BE0012955D128780128A2
:100EC00052D8707164E001294ED12878F0725FE049
:100ED000042949D131492868884245D8B06157E092
:100EE000002941D100F0BAFB002801D0F7734FE090
:100EF00001F024FE19E0072936D10622691C684654
:100F0000FFF7C0F8287800226946FFF737FF05464B
:100F10000A280ED200F0A2FB002803D01E489C3005
:100F2000475535E0284601F015FE5020FFF7B0F890
:100F300023E002242CE0012916D12878012813D8B7
:100F4000707225E010E001290ED1287809280BD80D
:100F5000B0721DE0012907D12878C11F092903D8E3
:100F6000307315E0012901D0182411E0B07B2978F5
:100F7000B17300280CD101290AD101F07FFE07E0EE
:100F80002728D6D20229D4D1298800F045FC04466E
:100F90002046FEBD4C78FF1F909EFF1F3F420F0072
:100FA00070B50C460146032000020A1A0025344899
:100FB0001300FFF75BF81D1012151C1F2326282CA9
:100FC000303234383A3C3E40424446484A4E505211
:100FD0005A5456585A00C07911E01022294902E0AB
:100FE0002849102210312046FFF722F845E0C06A58
:100FF000206042E0224906223C31F4E7007820706C
:101000003BE0808936E01E4942784231EBE71D49DA
:1010100082781F39E7E7007AF1E7407AEFE718496D
:1010200006223031DFE7807AE9E7C07AE7E7C08956
:1010300020E0808A1EE0C0781CE0C08A1AE0008BA5
:1010400018E0408B16E0808B14E00D490622363103
:10105000C9E7C08B0EE0008C0CE0408C0AE0807980
:10106000CDE7008A06E0408A04E0272904D208463A
:1010700000F078FA208000E00225284670BD0000CC
:10108000F878FF1F6B9FFF1F70B50E4C0025607135
:10109000A571691EE18100F095FB0420E07110222A
:1010A00000210948FEF7E8FF074810220021103010
:1010B000FEF7E2FFE562257265720720A072E57215
:1010C00070BD0000F878FF1F6B9FFF1FFEB53B4D02
:1010D0000C4608040CD56879FEF7E0FF050004D043
:1010E00002F024FB2846FEF7DFFF0120C00360E08A
:1010F000600403D5012080034840FEBD2F48E1076E
:101100000126807900292AD02978002920D00528B5
:1011100021D0297A68460170697A417027490622F0
:101120003031801CFEF784FFA97A68460172E97AA3
:1011300041726946687900F031FA002808D007202A
:10114000A871696A002903D00968002900D088477E
:1011500020467040FEBD032069460870E4E7A10701
:101160000DD5052809D1E889FEF7A4FFAA8A002A2F
:1011700003D002216879FEF7A3FF022019E060077F
:1011800004D5002002F02AFB042012E0200712D52B
:101190002879012802D002280AD107E00096AB8BFB
:1011A0006A8B298BE88A00F00BF801E000F05AF90D
:1011B00008206040FEBD0020FEBD0000F878FF1F43
:1011C000F8B5134C069EA579052D01D01420F8BD65
:1011D000104F851FBD4219D2062917D3BD1DA94244
:1011E00014D2FF27F537BA4210D20A2B0ED3AB42E6
:1011F0000CD2E08221836283A383304602F0EEFAB0
:1012000004216079FEF762FF0020F8BD1820F8BDC8
:10121000F878FF1F7A0C0000F7B50D46804900985A
:10122000164642187F4F00247879B9791300FEF7EB
:101230001DFF190E141BE92040455970777E888FD9
:10124000E996A2A9B4BFC8E9E9E9E9D3E900102DFC
:1012500076D11022314674486FE0102D70D172485B
:1012600010223146103068E0042D69D13068F862F0
:10127000CEE0012D64D13B7832783A70002B0AD051
:10128000002A07D1022903D0062901D0042901D15F
:1012900000F03EF9BCE0002A0AD0012905D003295C
:1012A00003D0052901D0042902D10121FEF714FF42
:1012B000AEE0022D44D13088B881A9E01F2D3FD87F
:1012C00058481F2200214230FEF7D6FE55482A46D4
:1012D00031464230FEF7ACFE524B7D7042332A4617
:1012E000012112E01F2D7CD84F481F2200211F38FA
:1012F000FEF7C2FE4C482A4631461F38FEF798FEDC
:10130000494B2A461F3BBD700021787900F0D4FA82
:1013100083E0012D65D13078042862D8387277E0F7
:10132000012D5ED1307803285BD8787270E0062DED
:1013300057D13C48062231463030FEF779FE67E04F
:101340004FE0012D4DD1307807284AD8B8725FE0C0
:10135000012D46D13078032843D8F87258E0022D89
:101360003FD13288BA82002A52D0052950D10221B9
:10137000FEF7A6FE4CE0012D33D13078012830D89D
:10138000F87045E03088022D2BD1062829D3192189
:10139000C901884225D8F8823AE03088022D20D150
:1013A00006281ED31921C90188421AD838832FE094
:1013B0003088022D15D1FF21F531884211D2788372
:1013C00026E03088022D0CD10A280AD31921C90140
:1013D000884206D8B8831BE03178012D01D101295C
:1013E00001D0182414E00821FEF77CFE002801D06B
:1013F00016240DE0002002F0F1F904217879FEF7BF
:1014000065FE05E00098272801D2022D02D00224B3
:101410002046FEBD318800F0FFF90446F8E70000E1
:10142000FFFCFFFFF878FF1F6B9FFF1F1CB50B4CE5
:10143000A179002901D011201CBD002800D06062D4
:10144000064907482C31034601910090103B0022C9
:10145000E179607900F016F800201CBDF878FF1FD4
:101460007B9FFF1F10B506488179052901D0122006
:1014700010BDC1891322407900F0DEF910BD0000D3
:10148000F878FF1FFFB581B01E460D4602240B9F62
:101490000B00FEF7EBFD0D1A0B1A1A0B1A1A1A1A8B
:1014A0001A1A1A081A000AA001F0C8FA2946019867
:1014B00000F0D8F8040008D13A4630460A9900F006
:1014C0008BF900F0EBF801F0D7F8204605B0F0BD3D
:1014D0004741505F446576696365496E69743A2097
:1014E0004741505F50524F46494C455F43454E542B
:1014F00052414C207C204741505F50524F46494C4E
:10150000455F5045524950484552414C200A000021
:1015100070B5104C2168002904D00978814203D0AD
:10152000032070BD122070BD0B4D02212878FEF7FC
:10153000CDFD0A480026468004212878FEF7C6FD26
:10154000074806802168032048700020FEF7D0FD80
:1015500070BD0000307CFF1F5D7CFF1F407CFF1FC3
:10156000D67BFF1F272803D202494000085A704744
:1015700001487047DE7BFF1FFFFF000010B5064CDF
:10158000607004F099F86078FEF7B8FD0521607886
:1015900000F048FF10BD00005C7CFF1F70B5284EB6
:1015A000054630680C46002801D0112070BD254842
:1015B00001780520014216D023488068002805D014
:1015C0000078002802D0C80706D101E0102070BDC5
:1015D00000F044F8002808D02078032805D002281D
:1015E00003D0002801D0122070BD0C20FEF78CFD26
:1015F0003060002820D00570002141700A22214669
:10160000801CFEF715FD02F0CDF9040002D001F0B8
:10161000C1FB12E00D48007803280ED11D20FFF712
:10162000A1FF0B490028088007D00B48094A042174
:101630000078FEF76FFD00E01324204670BD000027
:10164000307CFF1FD37BFF1F407CFF1FD47BFF1F1D
:10165000D67BFF1F60EA00005D7CFF1F10B504F021
:1016600049F810BD70B50C4605461C2200210948FA
:10167000FEF702FD084805704470FEF751FD05496C
:10168000002803D000200870122070BD01220A70CB
:1016900070BD0000D4AAFF1FD27BFF1F70B50F4C96
:1016A0000025A068002802D0FEF740FDA560E06894
:1016B000002802D0FEF73AFDE560094805210078D0
:1016C000084206D00548103001F036FF01F0F4F969
:1016D00070BD002001F030FF002070BD407CFF1F76
:1016E000D37BFF1FFEB5344D0C46080419D568782E
:1016F000FEF7D4FC0121C9034C40064600280ED059
:1017000001F03AFE002807D12878FF2804D031469E
:10171000FEF712FD002802D03046FEF7C5FC204639
:10172000FEBDE007012700280AD0A868002804D0E1
:101730004168002901D00020884720467840FEBD3E
:10174000A00709D56868002804D04168002901D0A5
:101750000120884702202AE060072AD5174E3088EA
:1017600000281FD0401E0004000C30801ED101F064
:1017700083FB002809D0124807706868002804D04D
:101780004168002901D00120884701F04FFB6946DC
:1017900000F0A6FE684601F0D9FD1D20FFF7E2FE2D
:1017A000308003E004216878FEF790FC042060405C
:1017B000FEBD0020FEBD00005C7CFF1FD67BFF1F2E
:1017C000D57BFF1F01490870704700005C7CFF1F3C
:1017D00010B500F02BFF10BD70B50E4C0B46261D4A
:1017E00007C60546102200211846FEF739FC0128DD
:1017F00003D11021A06805F0E1F91022002128464C
:10180000FEF72EFC012803D11021606805F0D6F9FF
:1018100070BD0000D4AAFF1F272807D2044A9142B6
:1018200004D0044A40001152002070470220704743
:10183000FFFF0000DE7BFF1FF8B50D4617461D4970
:1018400006461B4A12248868954208D100282DD0EC
:101850000268002A2AD029463046904723E0144ADD
:10186000521C954213D1002807D00268002A04D0E8
:10187000294630469047040005D03946304601F0ED
:10188000F5F8040012D10B48067047700EE02846A8
:1018900003F0E2FE002809D00078B04205D13946B5
:1018A0002846FEF74FFC044600E003242046F8BD1E
:1018B000FEFF0000347CFF1FF8B50E4601461948B4
:1018C0001546007805221F46104028D0304326D008
:1018D0001548012E1BD0C468002C20D01F2D18D80D
:1018E000002D01D0002F14D001701F220021601C98
:1018F000FEF7C2FB2A463946601CFEF799FB2846D4
:101900002570002E07D0611CFEF722FCF8BD84680C
:10191000E2E70220F8BD611CFEF720FCF8BD1220B2
:10192000F8BD0000D37BFF1F407CFF1F014610B5B0
:101930000020C90704D0034A0421034800F002FA3A
:1019400010BD0000FC7F02117C79FF1F10B5002341
:1019500009E01C012418E468944202D11901081816
:1019600010BD5B1C9BB28B42F3D3002010BD000066
:1019700070B50F4D0F4CA87029461831204600F065
:101980001DF8002128460B461030CA008452121858
:10199000491C09065360090EF7D0012002F0E2FE4F
:1019A000A87800F097FB044803F0B6FE70BD000075
:1019B0005C79FF1FFFFF00009D3F021170B50A4CCC
:1019C0000025A04209D1002082008C525218401CF0
:1019D000C0B295700228F7D370BD02F0AEFA0028AD
:1019E000FAD00480857070BDFFFF0000F8B50E4688
:1019F0000746069900240798002902D00B242046A8
:101A0000F8BD022B01D00D24F9E7117852781202AB
:101A100089188DB22946814301D08024EFE73846EA
:101A2000F16800F081F9A842E9D02A463846F16809
:101A300000F0F2F90400E2D171892A46384600F03C
:101A4000AFF9DCE7FFB50446C1B01F4600881D4A68
:101A500000254A9B904232D0A07800282FD00A4619
:101A600019463846FFF772FF060028D02088164A2C
:101A70004100515C0023C91EC9B203AA023201937E
:101A8000029100927A8904AB314600F03BF80028BD
:101A900015D1708969468881A078C00705D0208853
:101AA00003A9439A00F0E4FA0546A078800706D51A
:101AB000208803A94B9B439A00F07EFA05432846F1
:101AC00045B0F0BDFFFF0000C8AAFF1F70B50C466F
:101AD000080412D50A488078FEF7E0FA050008D01D
:101AE0002878B02802D1284602F044FB2846FEF7A9
:101AF000DBFA0120C003604070BD002070BD000013
:101B00005C79FF1FFFB587B0087A0025109E1C4640
:101B10000F46C0060DD5099802F008FA030006D05A
:101B20000A22394607989847050035D101E00E256D
:101B300032E0387802281DD178682922017840786F
:101B400012020002081880B2811A90427ED009DC8D
:101B50007249401A23D0012821D0022851D00328ED
:101B600008D125E0012972D0022971D003296DD056
:101B700004296ED0099802F001FA0028D7D0056830
:101B8000002DD4D01299119801910090334622462D
:101B900039460798A847054628460BB0F0BD11986E
:101BA000002873D1F868017831800278416897E0A5
:101BB000119800286AD101203080F868002100784F
:101BC00020707889401C80B200F054F900280FD0B2
:101BD000318802788918891C3180817A6170418945
:101BE000090AA17002784168E01CFEF721FAD3E7E8
:101BF00030880422001D30800021601CFEF73CFA72
:101C0000CAE71198002872D1F86804A900880090EA
:101C100004203080009820700098000A60700098BE
:101C200000F028F9070028D0F86805906846028A75
:101C300003AB3B49384600F075F900280FD13B78DB
:101C4000022138487A68FEF752FE03E027E031E0CF
:101C50001DE049E0002802D1314869468881059895
:101C6000007802280CD1059802224168201DFEF759
:101C7000DFF93088801C308002E069460098888156
:101C800068468089A070000AE07085E72FE011980F
:101C900000282CD1F968079800F046F804E0119864
:101CA000002824D1F8680088022131802070000AC1
:101CB000607071E7F868FEF757FA1199C0B2814277
:101CC00010D8814201D1002206E0129A891881427F
:101CD00002D31199401AC2B23280F96811980918DA
:101CE000204682E7072557E71198002801D00B25E9
:101CF00052E70721F86831800178217041786170DE
:101D00008178A1704188090AE17001792171817996
:101D10006171C088000AA0713EE700000028000041
:101D2000FFFF00001A81021110B502F006F9002829
:101D300000D0807810BD0000014908707047000095
:101D40005C79FF1F7CB51446050019D068460195E3
:101D5000018000F0C5F903001DD1002C1BD06D8956
:101D6000002D0DD00C20FEF7CFF900280AD000235B
:101D700003608580094A84609168002904D006E0E8
:101D8000022308E0132306E0906004E011460A688D
:101D9000002AFBD1086018467CBD00005C79FF1F5B
:101DA000F8B50C4C0746207815460E46FF280FD094
:101DB0000A20FEF7DFF901000AD0B12008700020E8
:101DC000487008714F80CE800D812078FEF7B4F9FD
:101DD000F8BD00005C79FF1FFFB583B008461F46C1
:101DE00001A90C9E00F046F8050012D068468088D4
:101DF00002F0C4F800280AD04468002C07D00096EE
:101E00003B462946059A0398A04707B0F0BD0E202F
:101E1000FBE70120F9E7000070B514460E460546C1
:101E200002F08BF8002806D13146054802F085F80B
:101E3000002803D005808470002070BD112070BD83
:101E4000FFFF000010B50178B0290BD141780029BF
:101E500008D10179122906D01B2903D1408801211C
:101E600000F068FA10BDFF210231095C0129F5D0AC
:101E700010BD0000F0B58C4610494B6819E09F6812
:101E80007C89A04214D39E883119814210D9002246
:101E90000CE011017D186989814205D16046002856
:101EA00000D004802846F0BD521C92B29642F0D871
:101EB0001B68002BE3D10020F0BD0000687CFF1FF1
:101EC000FFB5174881B00A9F446824E000251EE052
:101ED000A0682901461870890199884215D3029992
:101EE000884212D80498002807D031787068049B83
:101EF000039AFEF7FCFC002807D0002F02D0A06850
:101F000040893880304605B0F0BD6D1CADB2A08868
:101F1000A842DDD82468002CD8D10020F3E70000C7
:101F2000687CFF1FFEB5174600256A46958004466B
:101F300040891D4A1E46904208D001AA0092401CCA
:101F4000237880B26268FFF7BBFF05462378022141
:101F500016486268FEF7CBFC002807D123780221DF
:101F600013486268FEF7C3FC002801D060890EE0C8
:101F7000237802210F486268FEF7B9FC00280DD0D3
:101F8000002D03D068468088B84203D0384602F05E
:101F9000FDFC04E06889401E80B200E06089002EEC
:101FA00000D030802846FEBDFFFF000018810211DE
:101FB0001A8102111E810211FFB581B00F461E4623
:101FC00014466946019801F0FFFD050018D1002C68
:101FD00006D001221021019803F018FB05000FD153
:101FE00039460198FEF718FD050009D1009CFF2E27
:101FF00006D021461E22A31C034802F0D3FCE67043
:10200000284605B0F0BD00009148021110B5054901
:102010000870042100F006FA00F006F8FEF710FD43
:1020200010BD0000707CFF1F70B50E4C00200C4BE3
:10203000651CFF228100C91800280ED00D80401CAD
:10204000CA70C0B28A700628F4D3074801F060FF56
:10205000064803F061FB002070BD0C80EFE7000034
:1020600004ABFF1FFEFF0000BD4802111148021122
:10207000F8B50D4614460646694601F0A5FD172839
:102080000CD0002C06D001221021304603F0BEFAFD
:10209000002803D129463046FEF7C8FCF8BD0000F1
:1020A00070B50C46080411D509480078FDF7F6FF15
:1020B000050007D00178A02901D101F0CDFE284606
:1020C000FDF7F2FF0120C003604070BD002070BD2D
:1020D000707CFF1F0149087070470000687CFF1F7B
:1020E00070B50546008800281DD068680221037875
:1020F00042682248FEF7FBFB002808D168680221ED
:10210000037842681E48FEF7F2FB00280BD01D4CF6
:102110006088002805D0012229881204101A814203
:1021200003D9012070BD022070BD0C20FDF7ECFF2B
:10213000060001D000200AE0132070BD02016B6888
:1021400061880A329952491C401C618080B22988FA
:102150008142F3D80020306008222946301DFDF767
:1021600067FF6068002802D1666004E008460168E5
:102170000029FBD10660002070BD0000188102110B
:102180001A810211687CFF1F0649496806E08A68C7
:102190005289824201D18888704709680029F6D1A6
:1021A00000207047687CFF1F10B51422114201D037
:1021B000012202E04A0604D50022102103F026FA8B
:1021C00010BDC80701D0002010BD022010BD10B501
:1021D00014468A0604D50122102103F017FA10BD17
:1021E000882211420ED008220A40102103F00EFA74
:1021F00000280BD0E034617E0029F0D0217E012937
:10220000EDD103E0880701D4032010BD002010BDEC
:10221000014610B50020C90704D0034A072103482E
:10222000FFF790FD10BD0000E87F02118478FF1FCA
:1022300070B50D46164600241D490300FDF716FF34
:1022400008051234341934222934152D23D81622C6
:1022500000211848FDF710FF2A4631461548FDF7C2
:10226000E7FE22E0022D16D11149108810390880AE
:102270001BE0082D0FD10E48082231460838FDF723
:102280007FFF12E0012D06D1CA6909493078283153
:1022900007E0012D01D0182407E0CA6B044930780B
:1022A000483102F040FC00E00224204670BD0000EE
:1022B0008478FF1F369FFF1F0B7803700B88022264
:1022C0001B0A43700B88801C012B02D0022B07D005
:1022D00011E08A7802704988090A417004220AE0F4
:1022E0008A7802704A88120A42700A798270898854
:1022F000090AC170062210467047000008B5044B59
:10230000009313460A46012103F0D0F808BD0000EF
:10231000B92202111CB50323019200930A46024B15
:10232000122103F0F3F81CBDD14D021110B5FDF7D9
:102330002DFF10BD13B504480078012803D101AA70
:102340006946FDF729FF1CBD7C7CFF1F70B50F4956
:102350000F4A087000210B468C00491CC9B2135368
:102360000429F9D30A4C00211034FF260A460A2515
:102370006A4315196B80491CA354C9B26E720329B4
:10238000F4D3FDF70FFF03F05FF870BD7D7CFF1FF6
:102390001CABFF1F082A01D0012070474B780A7838
:1023A0001B02D2180280CB788A781B02D218428096
:1023B0004B790A791B02D21882808A79C97909027D
:1023C0005118C1800020704770B50C46080411D523
:1023D00009480078FDF762FE050007D001789029D2
:1023E00001D102F093FF2846FDF75EFE0120C003F5
:1023F000604070BD002070BD7D7CFF1F70B505285A
:102400000CD201010648002444520D18AC81AC8066
:10241000A868002802D0FDF7CBFEAC6070BD0000BC
:1024200058ACFF1F072907D0052905D0042903D080
:10243000062901D002207047044A8B009A181346DF
:10244000403B1986203A9074002070471CABFF1F58
:1024500070B505281BD25C2148430D49002446185D
:10246000354640352C746C742C76706D002802D083
:10247000FDF79EFE74650024E000301840680028D7
:1024800001D0FDF795FE641CE4B20A2CF4D370BDB4
:10249000A8ACFF1F70B50A880C460546072A07D06E
:1024A000052A05D0042A03D0062A01D0022070BDD7
:1024B000012103F05FF9002804D02146284602F0EC
:1024C0009DFC70BD142070BD10B5001D80B2FDF7DD
:1024D00075FE002803D00321C943FDF775FE10BD2A
:1024E00038B50C46050014D0002C12D003216846E4
:1024F00004F064FB6946887840218006800E08431A
:10250000694688702246284605F094F8050002D0F6
:1025100006E0022038BD03226946E01CFDF788FD75
:10252000284638BDF7B58EB00E9815460E460028E1
:102530002DD0002D2BD0301DC0B20190FDF7E4FD51
:10254000040039D000F07EFC07463246201D0E996B
:10255000FDF798FDF8B20890E0703804000E0B907B
:10256000A0703802000E0A9060703F0E277000F0D5
:1025700063FC0146102202A8FDF784FD06AB21464C
:1025800002A8019A04F0ACFF060003D010E002207C
:1025900011B0F0BD089828700B9868700A98A87060
:1025A000EF70082206A9281DFDF76CFD00F050FC15
:1025B0002046FDF7BBFD00E013263046E8E70000AB
:1025C00010B5064C2070FDF705FE06212078FFF7B8
:1025D00029FF034803F0A0F810BD00008C7CFF1F0A
:1025E000116C021170B50C46080419D50D4800781D
:1025F000FDF754FD05000FD004F02EFC002808D193
:1026000009480078FF2804D02946FDF795FD0028E9
:1026100002D02846FDF748FD0120C003604070BD90
:10262000002070BD8C7CFF1F5C7CFF1F7CB50C46BE
:1026300005001DD0002C1BD00322E11C6846FDF7CD
:10264000F7FC6946887840218006800E0843694679
:10265000887001AA284604F0EDFF002807D1032264
:10266000214601A8FDF7F0FC012803D001207CBD24
:1026700002207CBD00207CBD10B5054800784007D5
:1026800001D5044800E0002004F06EFC002010BDDD
:10269000D37BFF1F807CFF1FFFB58DB00F98169C6A
:1026A0000E46002815D0002C13D00D9802F0D4FF50
:1026B000050011D06178207809024018A178E278ED
:1026C0000904120689184718286AB84206D3401C24
:1026D00004D0022011B0F0BD1420FBE7002E04D07E
:1026E0002879800701D40120F4E70822002106A8F8
:1026F000FDF7C2FC1098001DC0B20190FDF704FD6B
:10270000060017D0301D109A0F99FDF7BBFC04226C
:1027100021463046FDF7B6FC1022A91802A8FDF7A5
:10272000B1FC06AB314602A8019A04F0D9FE0500BF
:1027300002D013E01320CDE7082206A908A8FDF770
:10274000A1FC0822211D08A8FDF77EFC012801D06C
:10275000012503E039460D9801F07EF93046FDF77A
:10276000E5FC2846B6E70A4610B501460020FDF70D
:1027700037FD10BDFFB583B00F4603981B494000DD
:102780001646085AFFF7A0FE04002AD00125601C57
:102790002670002F03D00699B847401C85B230063A
:1027A00010D51021039802F0E5FF002801D019266A
:1027B00013E06219E9B22046FFF7B4FE06000CD11F
:1027C0000C35ADB20421684601800194058169464B
:1027D0000398FFF75FFE060004D02046FDF7E8FCF3
:1027E00000E01326304607B0F0BD0000C8AAFF1F66
:1027F000F0B5634E8BB0707006211F20FFF70CF808
:10280000012568460572057307210174002484823E
:10281000142181831E2101847D218484C9000185C6
:1028200058A003C8019100906846047606AA0121C9
:102830005648FEF7F1FC55486A460621801CFEF713
:10284000EBFCC32004AA01218000FEF7E5FC4F4801
:1028500002AA0121001FFEF7DFFC4C4805AA022155
:10286000C01EFEF7D9FC324661201C321721C00081
:10287000FEF7D2FC4548B21D0621801EFEF7CCFCB7
:10288000312003AA01210001FEF7C6FC3F4807AA38
:1028900002210830FEF7C0FC3C4808AA022109309A
:1028A000FEF7BAFC394809AA02210A30FEF7B4FC47
:1028B000C5200AAA02218000FEF7AEFC3246333260
:1028C00015210020FFF7B4FC1927BF013946062067
:1028D000FEF7A2FF39460720FEF79EFF3946082083
:1028E000FEF79AFF39460920FEF796FF68460094E6
:1028F0000471057203210173057481206A46042165
:10290000C000FEF797FA012101AA8802FEF792FAA9
:102910001E4802AA0121F930FEF78CFA1B4803AACF
:102920000121FA30FEF786FA184804AA0121FD3089
:10293000FEF780FA641E2046FFF76AFC2046FEF789
:10294000F5FFFDF753FC03F09BF9FDF755FCB01CB8
:10295000FDF758FCFDF75CFCF7240120FDF75EFC59
:102960000120FDF761FC2046FEF7CEF9214608A0C4
:1029700000F064F801217078FDF7AEFB0BB0F0BDFC
:10298000F07AFF1F0102030405060000090300009E
:102990005B324D627073207C20444C45207C204D7E
:1029A00054552025645D200A00000000F8B5214D33
:1029B0000C46080409D56878FDF770FB002801D0A3
:1029C000FDF772FB0120C0032FE0E007012600287D
:1029D0000FD018480C30FEF729FD16481430FEF7CA
:1029E000BDF9642202216878FDF76AFB2046704039
:1029F000F8BDA00708D503F0DFF86422022168784B
:102A0000FDF75EFB022010E0200504D502F02AF954
:102A10000120C00209E0200709D5684606706A4611
:102A200001210548FEF7F8FB08206040F8BD0020B2
:102A3000F8BD0000F07AFF1F050300000FB410B5C9
:102A400003AA0448029902F0A7FE10BC08BC04B017
:102A5000184700006727021138B5034B00240FCB3D
:102A60000094FDF7E7FB38BD9480021110B50C46C9
:102A700002F006FE002804D040882146FDF762FBE4
:102A800010BD122010BD0022002913D0002811D043
:102A9000012806D04A799206920E4A71032805D081
:102AA00007E04879C0221043487102E04020024309
:102AB0004A7101221046704770B51248002500780F
:102AC000052108421BD02020FDF71EFB0E4C0028DC
:102AD000A06013D020220021FDF7CEFA2020FDF7C0
:102AE00013FBE060002804D020220021FDF7C4FA87
:102AF00005E0A068FDF71AFB0020A060132528461A
:102B000070BD0000D37BFF1F407CFF1F70B5002508
:102B1000094E2C460E20604380190622FF21FDF746
:102B20009FFA002801D16D1CEDB2641CE4B20A2C9E
:102B3000F0D3284670BD0000A09EFF1F10B50024F2
:102B4000204600F007F8641CE4B20A2C01D20028E9
:102B5000F6D010BD70B5054604460620444326460F
:102B600090B02036F0B207AA0E21FDF773FA0028C4
:102B700006D10622FF2107A8FDF772FA002802D02D
:102B8000002010B070BD0E22FF2107A8FDF774FAD7
:102B90001C22FF216846FDF76FFA1022FF210BA8C7
:102BA000FDF76AFAF0B207AA0E21FDF749FB0646C7
:102BB00020462130C0B26A461C21FDF741FB064386
:102BC00020462230C0B26A461C21FDF739FB06437D
:102BD00020462330C0B26A461021FDF731FB064380
:102BE00020462430C0B26A461021FDF729FB064377
:102BF0002534E0B26A460421FDF722FB0146314349
:102C00000C467035E8B20BAA1021FDF719FB2043E2
:102C1000B7E7000070B50A4D064600240E20604359
:102C2000401906223146FDF70FFA002801D0204650
:102C300070BD641CE4B20A2CF0D30A2070BD000001
:102C4000A09EFF1F7FB50C460A280CD2002C0AD08C
:102C5000062148432030C0B26A460E21FDF7FAF93A
:102C6000050003D007E0022004B070BD06226946CB
:102C70002046FDF7DDF92846F6E7000070B5144E52
:102C800000240E206043821920460621484320304C
:102C90001546C0B20E21FDF7DDF900280BD02846FD
:102CA0000622FF21FDF7E8F9A81D0622FF21FDF706
:102CB000E3F90020A881641CE4B20A2CE1D30548A2
:102CC000807B002801D000F007F800F01FF870BDED
:102CD000A09EFF1F4C78FF1F70B5FDF7B7FA0A4E94
:102CE00000240E206043801905460622FF21FDF7CF
:102CF000B7F9002802D12946FDF7AEFA641CE4B208
:102D00000A2CEED370BD0000A09EFF1F08B5FFF790
:102D1000FDFE012801D9022000E00A206946087062
:102D20006A4601210520FFF783FA08BD002909D072
:102D3000012807D1497989098901C02902D0402990
:102D400001D00220704703207047FFB500200E46D7
:102D500008701AE01C5C401CC5B2002C17D0281962
:102D6000904214D85F5D6D1CEDB2384600F09DFEB8
:102D7000002806D0641EE0B2307000998F4202D164
:102D8000581904B0F0BD4019C0B29042E2D30020FF
:102D9000F7E7000010B5044C2068002803D0FDF7C9
:102DA000C5F90020206010BD307CFF1F70B50E4DAE
:102DB00084002859002815D0006A002801D0FDF7AA
:102DC000B5F92859406A002801D0FDF7AFF9285914
:102DD000806A002801D0FDF7A9F92859FDF7A6F966
:102DE0000020285170BD0000F0AAFF1F10B5044C50
:102DF0006068002803D0FDF799F90020606010BDDD
:102E0000347CFF1F011E044805D10449897800293C
:102E100001D00248801D7047E4AAFF1FD27BFF1F2C
:102E20000148807870470000D27BFF1F014840684E
:102E300070470000D4AAFF1F014880687047000057
:102E4000D4AAFF1F0148C06800687047D4AAFF1FBA
:102E500010B50748C0680168491C01600548007842
:102E6000FF2803D001218903FDF736F910BD0000CA
:102E7000D4AAFF1FD27BFF1F02484068002800D061
:102E8000012070472C7CFF1FFFB581B00F460D9EBF
:102E90000A9D039802F0E0FB040042D0019800284C
:102EA0003FD120791021084320710499490702D5A8
:102EB0000221084301E0FD21084020710B992846BA
:102EC00008430C9908433043207902D00421084379
:102ED00001E0FB2108402071002E06D0306910224D
:102EE00020623146A018FDF7A3F8002D01D0002F75
:102EF00005D00B98002814D0012F08D011E0606A8B
:102F0000002801D0FDF712F91C21284606E0606A6E
:102F1000002801D0FDF70AF91C210B98FDF7A2F952
:102F200060620398224C8700E05900283ED0002DB3
:102F30000FD0006A002806D11C20FDF7E5F8E15902
:102F40000028086205D0E0591C22006A2946FDF7D6
:102F50006FF80C98002810D0E059406A002806D17C
:102F60001620FDF7D1F8E1590028486205D0E05954
:102F70001622406A0C99FDF75BF8002E10D0E0593C
:102F8000806A002806D11420FDF7BEF8E159002818
:102F9000886205D0E0591422806A3146FDF748F86E
:102FA0000B9B049A0399019803F094FC05B0F0BDC3
:102FB000F0AAFF1FF3B581B0019802F04DFB0500A8
:102FC00029D00E20FDF7D6F8040024D02620FEF7E5
:102FD000C9FA060000D12E78D02020700027677033
:102FE0000B20A0700622E91DE01CFDF721F80198D6
:102FF00060810298C1070120002901D0207300E000
:1030000027730299890701D5607300E06773F0B2F6
:103010002146FDF791F8FEBD10B581881F4B0124B4
:10302000CA1A994237D011DC1D4BCA1A994219D0DD
:1030300007DC1C4A8A1810D0022A1ED0032A29D184
:103040001BE0472A27D0482A24D124E01300FDF7AB
:103050000DF806212222222222218068007800F029
:10306000E5FC08E08068827841781202891889B20C
:10307000007800F03BFD04460DE0094A921E9142A3
:1030800001D1012200E0002280680178104600F0A2
:1030900015FD00E00024204610BD00005320000074
:1030A0000A200000FADFFFFF70B51A4D1A4A0146E8
:1030B000002628781268194C01290CD0002A09D062
:1030C00017490978490705D50221FCF7FFFF6680FB
:1030D000FFF760FE70BD6188002903D0114B1B789B
:1030E000002B05D0002AF5D01078FEF711FA70BD3C
:1030F0003C2902D33C39618070BD0221FCF7E6FF18
:1031000062887D20C000424302212878FCF7D8FF66
:10311000668070BD5D7CFF1F307CFF1F407CFF1F01
:10312000D37BFF1FD57BFF1F08B541890091038921
:10313000C2888188C07800F0C5FB08BDF0B50446A0
:103140008088A12189004843304987B00968401828
:10315000FF30FF300230A1794167002C54D02C4D54
:103160006868002823D006782A480068002804D020
:103170004168002901D0002088472146E0790831C4
:103180000591FFF7D3FDE0710246277D638A218A0E
:10319000E089019002A88AC0A0880090E0783146BA
:1031A000059B03F00DFCE078002802D00DE01A48E2
:1031B000D9E7E079E2896B46059907C3A379A1882D
:1031C0000122304602F0F6F9E0706868002811D05C
:1031D000FFF70CFE287800280CD06978FFF746FC32
:1031E000002807D0E078A2880346297803F015FC70
:1031F00000202870A0881721FDF79CFDA088FFF70C
:10320000FDF8A088FFF724F907B0F0BD3409FF1FCF
:10321000347CFF1F607CFF1FD27BFF1F70B504460C
:103220000026808802F018FA002803D00678A088CB
:1032300002F084FA134D2878002808D0864206D17F
:103240006978FFF713FC002809D000202870002EB1
:1032500005D0A379A288A078314603F0DEFBA088D0
:10326000094A81005158002901D0FFF79FFDA0882D
:103270001721FDF75FFDA088FFF7C0F8A088FFF7D2
:10328000E7F870BD347CFF1FF0AAFF1F70B582887D
:10329000294D0124531B2949AA4242D019DC284D4B
:1032A000531BAA4218D00BDC264BD21826D0254B34
:1032B0001033D2181ED0032A17D0042A39D10BE0BC
:1032C000012B09D0022B07D0032B21D0042B30D1A6
:1032D0001AE0433B072B2CD8496800292AD00968FB
:1032E000002927D08847044624E08068007800F051
:1032F000ADF81FE0806800F001F9F4E78068411C38
:10330000007800F0D9F8EEE783681B78002B11D025
:10331000896800290ED00B6808E0014610469847DE
:10332000E1E709490968002904D04B68002BF4D172
:1033300000E00024204670BD0E2000005C7CFF1FD2
:1033400008200000F7EFFFFF3C7CFF1F10B5094C81
:10335000A17800290CD001460622A01DFCF768FECA
:10336000A11DA078FFF78FFBA01DFCF781FF10BD0A
:10337000002010BDD27BFF1F1CB52F49037801240C
:103380000A68912B02D0A22B2ED13EE0417805296C
:1033900009D00E2904D00F2908D03E2924D115E0E8
:1033A000FFF774FF10E0FFF739FF3AE0014680882D
:1033B000224B0124C31801D0062B15D1002A30D08E
:1033C0005268002A2DD0904704462AE081780124D3
:1033D000032917D004DC012911D0022904D105E00A
:1033E00015291ED016291CD000241AE0144989681A
:1033F000002916D04968002913D0884711E0FFF74B
:103400009DFE0EE0FFF790FE0BE00E4909780429BF
:1034100009D0002A05D05268002A02D001460A4885
:10342000904720461CBD00216A46118001794088E2
:10343000FEF764FFF5E700003C7CFF1FF3DFFFFFB2
:103440005C7CFF1FD37BFF1FFFFF0000F8B5164F0A
:103450000646BD1F2878FF2814D00A20FCF78AFEF4
:1034600004000FD0D020207066700820A070A878CB
:10347000E07006223946201DFCF7DAFD2146287847
:10348000FCF75AFEE87801280DD1084800680028AA
:1034900003D08068002800D080470648044A0421F1
:1034A0000078FCF737FEF8BDD87BFF1F607CFF1F5C
:1034B00060EA00005D7CFF1F70B50024054600280F
:1034C00005D1002903D006220B48FCF7B1FD0A48BC
:1034D00010380178012907D10124002D06D00021E0
:1034E0000170284600F0CAF9204670BD0221017023
:1034F000FCF7C4FEF8E70000E4AAFF1F10B50024A3
:10350000002813D002780B49002A03D14288CA82CE
:1035100002790A760A78022A08D102780124002A60
:1035200006D000220A70007800F0A8F9204610BDED
:103530000322F7E7D4AAFF1F014948607047000043
:103540005C7CFF1FF8B5774C87780146002507267D
:103550006079A2793B00FCF789FD0805361A3737F8
:103560005F94C736487800285CD16E4806223C300C
:10357000C91CFCF75DFD0120A0716A4B0146423376
:1035800062786079FEF798F900284BD1A2E00F46E7
:103590004978002946D1F978002906D0624BA278F3
:1035A0000021FEF789F978700AE0022A0BD0012188
:1035B000FCF798FD002803D101216079FCF78CFD10
:1035C000787800282ED1F8BD497800292AD1032F18
:1035D00009D0A289002A0CD0217800290AD0012123
:1035E000FCF76EFD06E0052A01D0022012E006205D
:1035F00010E02570A079062802D0042802D008E047
:10360000052007E00120207001466079FCF764FD89
:1036100060E00320A0715DE048780F46002803D0E9
:1036200031282CD0A67155E03E480622391D36308F
:10363000FCF7FEFC7889E081B8892082F8896082F5
:103640000520A071A28A002A03D002216079FCF72C
:1036500037FDB889E083F8892084388A6084E0786F
:1036600001280AD11F20FDF77DFF7D21C9004843B5
:10367000024604216079FCF723FD25702AE02570BD
:10368000C7E728480E46062200213630FCF7F4FC36
:10369000E5832584658404216079FCF717FD082102
:1036A0006079FCF713FDB079082808D00320A071D9
:1036B0002078002805D06079FDF72AFF07E0042074
:1036C000F5E70120207001466079FCF705FD002038
:1036D000C043E081606A002800D174E701680029D6
:1036E000FBD0A0798847F8BD0D460821FCF7EEFC19
:1036F000687829460028F6D1E888E0832889208464
:103700004889608404216079FCF7ECFC0028EAD148
:10371000A06A0028E7D00368628C218CE08B984770
:10372000F8BD0000F878FF1F4C9FFF1F10B501780F
:10373000224C912906D0A22926D0D02901D1FFF709
:1037400001FF10BD41780E29FBD181881C4A9142AE
:103750000FD1816803200856A1790529F1D17F286E
:10376000EFD0616A0029ECD049680029E9D0884788
:1037700010BD144A9142FBD1806883784278017869
:1037800011A0FFF75BF910BD41791329FBD1008926
:10379000012802D12079022808D00520FDF7E2FE99
:1037A000024608216079FCF78BFC10BD0821607986
:1037B000FCF78CFCFDF756FE10BD0000F878FF1FEB
:1037C00005140000222000005B48434920444C457A
:1037D0005D25642025642025640A00007CB5154C15
:1037E0000546E08BE18A88420AD3218B884207D8BC
:1037F000208C618B884203D1608CA18B884217D0CA
:103800000520FDF7AFFE0646E18A68460180218B60
:103810004180618B8180A18BC18062796946E0899A
:10382000FEF778FD2571324608216079FCF748FCE7
:103830007CBD0000F878FF1FF8B507460E46084625
:1038400001F00AFF040018D02620FDF78BFE0500CA
:1038500000D125780620FCF78DFC04000DD006224F
:103860000021FCF709FCD020207067700E20A070AA
:10387000A680E8B22146FCF75FFCF8BD70B50F4D9D
:1038800006462878FF2818D00E20FCF773FC0400A9
:1038900013D0D020207066700020A0700622084946
:1038A000E01CFCF7C5FB06481038C18A6181007E28
:1038B000207321462878FCF73FFC70BDD27BFF1FA8
:1038C000E4AAFF1FFFB581B01E4617460D460C2027
:1038D000FCF750FC040013D0284601F0BDFE002880
:1038E00010D00078D0212170019961700721A1705A
:1038F000A580E78026810A9961812146FCF71CFC9E
:1039000005B0F0BD0048ECE7D27BFF1F70B50D4D50
:10391000044628680E46002812D00620FCF72AFC30
:10392000010009D0D02008704C70032088708E8070
:1039300028680078FCF700FC002C01D0FFF72AFA79
:1039400070BD0000307CFF1FFFB581B01F460E46E2
:10395000084601F081FE050022D01020FCF70AFC89
:1039600004001DD010220021FCF786FB2620FDF765
:10397000F9FD002800D12878D021217001996170CB
:103980000F21A170A6800399217267720A99A17212
:103990000B99E1720C99E160C0B22146FCF7CCFBB7
:1039A00005B0F0BDF0B51F4D85B02868002837D0B0
:1039B0008778FDF753FE002805D00A20FDF7D2FDD9
:1039C00004900B200EE001F07BF9002805D00620C2
:1039D000FDF7C8FD0490072004E00820FDF7C2FDB4
:1039E00004900920FDF7BEFD04460F48007800282A
:1039F00014D001262968C878091DFFF744F8296802
:103A00006D46CA7A8B7A091D0BC5039233463A4636
:103A100021460498FCF738FC05B0F0BD0026E9E724
:103A20000120F9E7307CFF1FD47BFF1F10B5094947
:103A3000096800290CD0002805D101204870FCF746
:103A400057FB002802D00021FFF760FF012010BDC6
:103A5000002010BD307CFF1FF8B50C4601F0FCFDC6
:103A6000020021D026201462FDF77CFD05062D0EF4
:103A700000D115789679D01D00901020176AFCF7B8
:103A800079FB040010D0D020207000206070092045
:103A9000A070E6700622201D0099FCF7C9FA2146A5
:103AA0002846E760FCF748FBF8BD411E152903D9FD
:103AB000FF2801D0002070470120704770B50A4EE2
:103AC000054630780C46FF280DD00420FCF752FB49
:103AD000010008D0D02008704C7002208870CD7092
:103AE0003078FCF729FB70BD407CFF1FF3B5284DF3
:103AF00081B0286800284AD04078264E012803D09B
:103B00003078002831D041E001F0DAF8224F002867
:103B100013D00120FDF726FD0446412808D91F4A8D
:103B200002213878FCF7F6FA1D483C3C44800EE050
:103B30007D20C0002246424303E00020FDF712FD35
:103B40000246002A03D002213878FCF7B9FA296826
:103B5000022048703078002802D00020307015E034
:103B600002990198FFF7D2FE10E00320019CFCF7B8
:103B700001FB010008D0D02008704C700420887030
:103B800028680078FCF7D8FAFFF704F90120FEBD99
:103B9000307CFF1FD57BFF1F5D7CFF1F60EA0000AC
:103BA000407CFF1F074A00218B00D35A834202D179
:103BB000880080187047491CC9B20629F4D3002038
:103BC0007047000004ABFF1F10B50C46FFF7EAFF7B
:103BD00000280DD0002C00D020608078FE2803D073
:103BE000FF2803D0162010BD172010BD002010BDE7
:103BF000022010BDFFB581B0FF201E4617460530DC
:103C00000A9DFCF7B7FA04001BD0B0202070677043
:103C1000029860802671002D06D02046FC2229469D
:103C20000830FCF705FA05E02046FC2200210830A8
:103C3000FCF722FA21460198FCF77EFA002005B035
:103C4000F0BD1320FBE70000054817220280098819
:103C5000172901D20420704701800020704700001E
:103C6000CE7BFF1F0020704708B50A4608884988A8
:103C700088420BD8002809D0002300931379521DE5
:103C8000FEF71EF9002803D0002008BD012008BD62
:103C90000A2008BDF3B50D4608884988002687B07C
:103CA000814215D3002813D0002769460F71009771
:103CB000002369881A46FEF703F904004FD06846CE
:103CC0000079002807D069464979012925D008E004
:103CD000012009B0F0BD217802291BD002216A46DB
:103CE00051711222504301AA6189801841806846AF
:103CF00000791223584380181022001D6168FCF7D8
:103D000097F968460079401C0106090E6846017162
:103D10001FD11AE001216A465171217802291ED172
:103D2000820001A86189121851806A46127961687F
:103D3000920010180222001DFCF77AF96A461079E9
:103D4000401CC0B21071052803D261890A48814223
:103D500000D101266089401C80B2002EA7D06846A1
:103D60000079002805D001A90798FCF73BFE002048
:103D7000AFE70A20ADE70000FFFF000038B50C46B2
:103D800008884988884215D8002813D02379621DF5
:103D900002210B48FCF7ABFD00280DD0002000905D
:103DA000237961882088621DFEF78AF8002805D0F3
:103DB000002038BD012038BD102038BD0A2038BD94
:103DC0001881021108B50A460888498888420BD82C
:103DD000002809D0002300931379521DFEF770F8D4
:103DE000002803D0002008BD012008BD0A2008BD1E
:103DF000F8B500250F4606460C46E03717E0680088
:103E0000205A0021FEF736F8002809D0017A304602
:103E1000FEF7CAF9002808D06900615A2180F8BD70
:103E20006800205A20800120F8BD6D1CEDB2B87DDD
:103E3000A842E4D80020F8BD10B504460888002147
:103E4000FEF718F8002804D0017A2046FEF7ACF9F6
:103E500010BD012010BD000030B585B00546694693
:103E6000FCF744FE040026D168468078C1071E484E
:103E700009D08268002A04D06888694690470446C1
:103E800019E0062417E04268002A05D068886946D0
:103E90009047040001D10EE00624684640780028CF
:103EA00009D16846817801730021C1810474688852
:103EB00003A9FCF757FDA868002801D0FCF778F9A2
:103EC000002C05D168468078122807D01B2803D023
:103ED00068880121FEF72EFA05B030BD68464078AB
:103EE0000128F5D1F8E70000707CFF1F70B505468A
:103EF0000C4608880021FDF7BDFF002805D0017A97
:103F000022462846FEF763F970BD012070BD00000F
:103F10000149486070470000707CFF1F10B50446DF
:103F2000801C00F046FDFF20E07010BD10B500F0D1
:103F300025F8002800D0806810BD00229300CB5ADD
:103F4000834202D1900040187047521CD2B2022A1C
:103F5000F4D3002070470000074A0021CB00D35A59
:103F6000834202D1C80080187047491C0906090E17
:103F7000F4D00020704700006C79FF1F0649896863
:103F800005E08A88824201D1886870470968002963
:103F9000F7D10020704700005C79FF1FF8B5074695
:103FA000012906D0022924D1012101F0E3FB0028D8
:103FB0001FD13846FFF7D0FF050015D000240D4E65
:103FC0000CE0F8206968604308180188002908D0CF
:103FD000F8220021FCF750F8641CE4B270788442A7
:103FE000EFD30020C0432880024938461831FDF73E
:103FF000E5FCF8BD5C79FF1FF3B5064683B00830D9
:104000000190002000907088FFF7A6FF07002FD0D6
:10401000002523E0F820796868430C1821880029DE
:1040200020D00198007801280FD160880090A388E3
:104030007088A21DFDF7D0FE0090002805D00199E0
:1040400000200870049821880180F8220021204671
:10405000FCF712F800206D1C2080EDB20748407874
:104060008542D7D30020C04338800098002802D171
:104070007088FCF7A1FC009805B0F0BD5C79FF1FCB
:10408000F3B50546374C064685B00835F6220021C3
:104090002046FBF7F1FF03A800902B796988288858
:1040A0006A1DFDF70DFF074645E070882E4A410066
:1040B000515C2E4BC91FC9B200930022029101929C
:1040C000284B69468A89F63B3946FDF71BFD0028D7
:1040D00012D126482989001F828891420CD121499A
:1040E0002846F6390A30FBF7AFFF002804D02178C4
:1040F000788989000919488068468289698804ABF3
:104100003846FDF70FFF07462078810009194A88D5
:10411000002A10D0002F05D06A46128A401C207059
:104120008A800AE002060021920DC9431219401C40
:104130002070918006E0002F04D00D48217800887F
:104140008142B2D32078002806D070882146FCF73F
:104150003BFC002007B0F0BD0698298801800A20AA
:10416000F8E700007AA1FF1FC8AAFF1F6079FF1FB0
:10417000CA7BFF1FF0B585B00446002069468881E0
:1041800020790E2869D00FDC082823D004DC02280F
:1041900013D0062818D118E025460835484F0A28BC
:1041A0001DD00C2810D138E010285BD012285ED02A
:1041B000162861D0182877D163E043484149008828
:1041C00008806088FCF7D8FB6EE003A92046FFF763
:1041D00057FF5AE003A9204600F076F955E02888F9
:1041E00004A9FDF747FE010015D06088354E420056
:1041F000BA5C0023521ED2B20193029200966A4624
:10420000B31C128AFDF77EFC00281DD16088314660
:10421000FCF770FD48E0012016E0288804A9FDF7AE
:1042200029FE0100F7D060886B884200BA5C254EF9
:10423000521ED2B20193029200966A46B31C128AB1
:10424000FDF760FC002803D029886A4691811CE0B4
:1042500060883146FCF71EFD26E003A9204600F0E9
:10426000D3F912E003A9204600F082F80DE003A97B
:10427000204600F039FA08E003A9204600F028F8AB
:1042800003E003A92046FFF7B7FE00280CD06178B1
:10429000142909D00B4922790A706A4692894A800A
:1042A00008716088FCF75EFB2046FDF7CBFD0748F0
:1042B000C168002901D02046884705B0F0BD000044
:1042C000C8AAFF1F7AA1FF1FC87BFF1F5C79FF1FD1
:1042D000F8B504460F460546083400896946FDF7DF
:1042E000C9FD06003AD0307A80060ED568460088AF
:1042F000FFF71CFE030006D068881222314698475B
:10430000060002D02BE00E2629E06E883046FFF72B
:1043100023FE010005D11448FFF71EFE01000ED058
:104320000E80124A0020527807E0F8264B68464378
:104330009B5B002B05D0401CC0B29042F5D30926F0
:104340000DE04968F822504308182146FBF770FE3B
:10435000002668882146FCF793FC02E001262088AD
:1043600038803046F8BD0000FFFF00005C79FF1F79
:10437000F3B58BB000200B9E0746039004A8009075
:104380003246337B718930894C4C0D320836FDF74B
:1043900097FD054678E00B98297A4088FDF704FFE1
:1043A000070003D00C98698901806FE00B9844499D
:1043B0004088444B4200895C0093891FC9B20022A7
:1043C000029101923D4B69460A8AF63B2946FDF768
:1043D00099FB0700E6D10398002833D0394861885B
:1043E000001F8088021D914253D1039909180B9830
:1043F000408842003248805A801F814249DC03993C
:10440000A87A6118087103986989401C80B2221843
:10441000090A401C117180B203906846028A7188B3
:1044200007AB2846FDF77EFD050011D003986946CD
:10443000898B2018017103986946401C898B80B2D2
:10444000090A0CE01F48001F8088001D6080D6E725
:104450000398FF21201801710398401C80B2221894
:104460001171401C80B217490390091F8A881349B3
:104470002018F639001DFBF7DBFD12490398091FD0
:104480008988401880B20390002D84D103980028B9
:104490000CD061880398FBF7FDFE20700B98214635
:1044A0004088FCF701FC00200DB0F0BD002F00D1CA
:1044B0000A270C98318801803846F5E77AA1FF1F5A
:1044C000C8AAFF1F6079FF1FF3B5074604460837E7
:1044D0008BB049480490388800252E4605906AE044
:1044E00007A800903B7979887A1D0598FDF7E8FCCC
:1044F0000890002852D0408905900898017A608879
:10450000FDF752FE06005DD160883C494200895C9F
:104510003B4B091FC9B20093002202910192364B16
:1045200069468A8BF63B0899FDF7ECFA060049D1FB
:10453000002D36D0049841883148001F8088801CA7
:10454000814241D12E4B1B1F988829186088420058
:104550002A48805A001F814220DC0898817A0498FA
:104560004019017108996D1C4989E8B20A0A049939
:1045700009180A71401CC5B2194604988A881E4958
:104580004019F639001DFBF753FD1D481D49001F5A
:1045900000792818C5B20598884209D1002D13D199
:1045A00023E017480499001F8088801C4880C9E7D1
:1045B000401C80B20590608841001048405A001F9E
:1045C000A8428DDA002D0ED0049841882846FBF7CA
:1045D00061FE01460498017060880499FCF772FB43
:1045E00000200DB0F0BD002E00D10A260C990598D0
:1045F00008803046F5E700007AA1FF1FC8AAFF1F18
:104600006079FF1FFFFF0000F3B506460446002057
:1046100085B0324D00900836288007463046E0309D
:10462000049048E07800305A03A9FDF723FC01000C
:104630001AD060882B4B844642002948805C009346
:10464000401EC0B2002202900192244B684682892B
:10465000F63B6046FDF756FA0090002807D0780038
:10466000315A0698018035E001200090F7E71D4996
:104670002888091F8988421861884B001849C95A3F
:104680004B1E9A4204DD081A1649091F401E8880F5
:104690002988A81C08181349091F8A880F49F63968
:1046A000FBF7C6FC0F482988001F8088081828805F
:1046B0007F1C0498FFB2807DB84207D960882988A2
:1046C00042000748805A401E8142ABDB6088294681
:1046D000FCF706FB009807B0F0BD00007AA1FF1FB1
:1046E000C8AAFF1F6079FF1FF3B5054683B00446D3
:1046F0000835008901A9FDF7BDFB2746E8370646C6
:10470000002822D0307A80060ED568468088FFF7D0
:104710000DFC030006D0608812223146984706003F
:1047200002D013E00E2611E0002000906B8829884B
:1047300060882A1DFDF750FB060007D1787E00280F
:1047400007D16088FCF702FB03E001260498298862
:104750000180787E002802D0002005B0F0BD3046F0
:10476000FBE70000F8B504460246F820424319482A
:1047700000250746457010377868002807D00020CC
:10478000C100C919401C00064D60000EF8D0124E41
:1047900000213046FBF770FC002001466143C9B29E
:1047A000F82251438B190B49C200103152180021D5
:1047B000536005E0F8274F435368491CDD53C9B2E5
:1047C000A142F7D3401C0006000EE6D00148447019
:1047D0000020F8BD5C79FF1F8C9FFF1F7CB50C7813
:1047E000069D022C0FD14C68267864782402341977
:1047F000064EA4B2F44206D10224DBB20095019425
:10480000FDF7F4F87CBD01207CBD0000FED6FFFF63
:10481000F8B505461D48854223D0461C002921D005
:1048200001292BD002291CD10121284600F0A2FF2A
:10483000002816D12846FFF7B5F9040011D0A0785A
:10484000FF280ED0FE2807D000200090E0781E231D
:1048500014222946FFF7CEF92046FFF75FFBFF2021
:10486000A070F8BD2846FFF79DF90028F9D1304621
:10487000FFF798F90028F4D00580F8BD2846FFF727
:1048800091F90400F9D02680D9E70000FEFF00006E
:1048900038B5040010D0A078FF280DD0FE280BD02A
:1048A000002000902188E0781E231722FFF7A2F94C
:1048B000FE20A070FF20E07038BD0000F3B50C466C
:1048C0008978C1B01E2914D02E4D2878FF2829D010
:1048D000182927D84808C2002B481218803A976F29
:1048E000002F1FD0D06F00281CD02078002817D1AF
:1048F00013E04198FFF756F905000BD00020009017
:10490000A378E87800224199FFF774F90646284613
:10491000FFF704FB304643B0F0BD6278012A03D1B3
:10492000122901D00620F6E702AE0096A38861782E
:10493000A268B8470028EED1A0784008C10012480C
:1049400008188038C26F02A94198904700280FD0FC
:1049500061780029DFD1A27869460A70087168463B
:104960000189418069464198FBF7FCFF0020D2E7AE
:10497000A378042BCFD00096002228784199FFF726
:1049800039F9C8E7687CFF1FB480021100B50346FF
:10499000FDF7FAFB002803D0C018401E80B200BD0E
:1049A000184600BD10B57D24E4006243FBF778FC97
:1049B00010BD10B5040008D02078FF2805D0FE28CF
:1049C00003D0FBF773FCFF20207010BDF7B506463F
:1049D0000F461020FBF798FB05461020FBF794FBD1
:1049E0000446002D3AD0002C2DD010220021FBF7D8
:1049F00043FB2A462146304602F05EF8060023D1EA
:104A00002878000604D43946284600F0C5FD08E0A1
:104A10002146284600F0C0FD3A461149204603F0E1
:104A2000D3FA3878000604D43846029900F0B4FD71
:104A30000AE02146384600F0AFFD09492046029AB7
:104A400003F0C2FA00E013262846FBF76FFB002CA8
:104A500002D02046FBF76AFB3046FEBD1326F6E780
:104A60003E810211F8B5069800271D4614460E46F1
:104A7000002801D00B20F8BD30780021022801D099
:104A800019804DE0706802784078000210181522F5
:104A900080B25202801A0300FBF7E8FA0504121FE5
:104AA0001A254100F068FBF75FFBC2B2079882420B
:104AB00000D902462A80F1682046FBF7B9FA30E0B7
:104AC000F0680221008829802070000A607028E0C8
:104AD000062028800246F168EEE701202880F06871
:104AE000007820701DE0F068002816D00821298089
:104AF000017821700188090A61708178A17041886C
:104B0000090AE170017921718188090A617181794D
:104B1000A171C088000AE07103E0298001E02980CA
:104B200001273846F8BD10B50B78840702D502245A
:104B3000234301E0FD2423400B7003070B7802D5CB
:104B40000824234301E0F72423400B7083060B78ED
:104B500002D52024234301E0DF2423400B700A21E7
:104B6000084201D1810603D510780C21084304E0E6
:104B7000002803D11078F3210840107010BD000008
:104B8000FFB581B0087800240A9E1F460D46022812
:104B90000FD168680178407800020818152180B2AA
:104BA0004902401A09D0012829D0022848D00328F8
:104BB0003CD00124204605B0F0BDE868FBF7D4FAEC
:104BC000C0B2864205D8F0190090152803D90D24EB
:104BD000F0E70724EEE7E8683A4680190399FBF707
:104BE00027FA0098EA6880B2002111541C484068F6
:104BF0000028DFD001680029DCD0002012E0002E60
:104C000012D1022BE3D10399E8680A7849780902A6
:104C100051180180124840680028CBD00168002953
:104C2000C8D001208847C5E70B24C3E7002EFBD17D
:104C3000062BCCD10622E8680399FBF7F9F9B9E70E
:104C4000002EF1D1012BC2D103980078002803D0A7
:104C5000012801D08024ADE7E9680870AAE70000C8
:104C60007478FF1F10B5134C2079012804D0032855
:104C700001D100F03BF810BD0820FBF71DFB002818
:104C800010D06120FBF71EFB02202071FBF720FBF8
:104C90002060A1680029EED00120884706A0FDF71A
:104CA000CDFE10BD0820FBF707FB0028F9D12071CD
:104CB00010BD000070A8FF1F7072657373000000C4
:104CC00008B509488368002B0CD01A786946012082
:104CD0005B1CFEF73AF8002804D00078C00701D02A
:104CE000012008BD002008BD407CFF1F70B50820D2
:104CF000FBF7E2FA1A4C002807D00820FBF7DCFA91
:104D0000002801D00220207170BDFBF7E1FA216874
:104D1000451A14484543294613A0FDF78FFE61202C
:104D2000FBF7D0FA00202071A0680028ECD01248D0
:104D3000854205D311A0FDF781FE0420A1680DE096
:104D40001048854205D810A0FDF778FE0320A16821
:104D500004E00FA0FDF772FEA1680220884770BD35
:104D600070A8FF1F71020000686F6C645F74696354
:104D70006B3A256400000000C0C62D006C6F6E67A2
:104D80000000000040420F0073686F727400000062
:104D900072656C656173650010B503460B4A0020AF
:104DA0000A21414389184988002905D0401CC0B216
:104DB0000328F5D3002010BD0A2100244143545498
:104DC0000446403488184480037210BD2CABFF1F8A
:104DD0000A7802700A88120A42708A7882704A88B9
:104DE000120AC2700A7902718A88120A42718A799B
:104DF0008271C988090AC17108207047F8B5054653
:104E00000C4648680421FBF7DFF9217A01702189FB
:104E10000346401C090A0170217841702188090A63
:104E20008170207A001DC2B2FB2A35D81B4885420A
:104E300015D114461E460C20FBF79CF901000CD03E
:104E400090200870022008714D808E601448CC803C
:104E50000078FBF771F900271CE013271AE05C20AB
:104E600010496843441826464036307E002805D055
:104E70000D480727416A491C41620BE0214628463C
:104E800000F08EF90746307E002803D121462846DF
:104E9000FBF724FA3846F8BD0220F8BDFEFF0000FB
:104EA0007D7CFF1FA8ACFF1F74AEFF1F10B50A4A20
:104EB00000210A234B439B185C88002C06D01B79E9
:104EC000834203D10A204143881810BD491CC9B24E
:104ED0000329EED3002010BD2CABFF1F0021418021
:104EE0000170704770477CB504000FD060880028BF
:104EF0000CD00025009501951323E188207A172214
:104F000000F028F8FF206072658025707CBDF8B540
:104F1000074615460E461020FBF72CF9040017D063
:104F2000A0202070002060706680002D05D00C222B
:104F30002946201DFBF77CF804E00C220021201DEF
:104F4000FBF79AF821463846FBF7F6F80020F8BD43
:104F50000120F8BDFFB581B01E46174614200B9DF9
:104F6000FBF708F904001AD0A2202070677002989D
:104F700060800A9820716671002D06D020460C22B0
:104F800029460830FBF754F805E020460C220021A2
:104F90000830FBF771F821460198FBF7CDF805B012
:104FA000F0BD022A1CD34B780A781B02D21892B2A9
:104FB0000280012A02D0022A06D00FE08A78C9783E
:104FC00009025118418009E0CB788A781B02D21877
:104FD00042800A794979090251188180002070477E
:104FE00001207047F8B506464D88002070600A79A8
:104FF0000C46022A11D029015B480091415A002930
:1050000006D0009B1F18BB68002B01D0012A7AD064
:1050100056484169491C4161A1E0E288042A41D314
:10502000A068437801781B02C91889B20091C3783F
:1050300081781B02C9188FB2017AC0790002081862
:105040004B4948800099091D8A421FD1072F12D071
:10505000052F10D0042F02D0062F23D10BE0424899
:105060002901405A002806D02846FDF7C7F93F48D5
:105070000169491C01610098308137800321C943CF
:10508000A068FBF7A1F870600020F8BD072F16D0CC
:10509000052F14D0042F06D0062F10D03348C16836
:1050A000491CC1605EE030482901405A002806D002
:1050B0002846FDF7A3F92D480169491C01612A49D9
:1050C0002D01002048536E180098B081B7800098D9
:1050D000FDF7FAF9B060002816D00321C943A06893
:1050E000FBF772F8E28801461F4F121FB068FAF70B
:1050F0009FFF785BE1884018001F78531B480168C8
:10510000491C01602EE004E018488169491C816156
:1051100028E0E2888918009A89B28152BA899142BE
:1051200019D80546B868E2884018801AA168FAF7CD
:105130007FFF0098295AB889814213D13081B888FD
:105140003080B86870600099002068520748416854
:10515000491C416006E005488168491C8160284679
:10516000FDF74CF90120F8BD58ACFF1F74AEFF1FCE
:10517000967CFF1F022A01D0012070470A784978E7
:10518000090251180180002070470A7802704A789D
:1051900042708A78C978090251184180704700002E
:1051A000FFB50C4607463D49A120800009687843B9
:1051B0004018FF30C130067E89B015463846FBF7EF
:1051C00025FC001DB04204D23846FBF71FFC001D31
:1051D000C6B2B54207D82A46002138460C9BFBF7D9
:1051E00083F80DB0F0BD31462846FBF753F827464B
:1051F000403738740C99616501467143691AC9B228
:1052000002910C9904910299002901D0401C387434
:10521000002523E00299002904D0401EA84201D1B4
:10522000084600E03046E900059103916054FDF71F
:105230007DF803990919486000281BD00599625C24
:105240000499FAF7F5FE0598215C04980818049073
:105250001348C169491C6D1CEDB2C161387CA8427C
:10526000D8D8606D002803D0FAF7A2FF002060654F
:105270000020B6E7002038740646606506E0F000BE
:1052800000194068FAF794FF761CF6B2AE42F6D3E6
:105290000348C16A491CC1621320A2E73409FF1FF9
:1052A00074AEFF1FF7B586B016460D464878FFF777
:1052B000FDFD040010D0002727712878012802D0B6
:1052C000132809D105E06A88314602A8FFF769FE74
:1052D0000AE02078032802D0002009B0F0BD6A88D7
:1052E000314602A8FFF746FF0646204600F04CF97B
:1052F00002A8019000972B78207A32460699FFF792
:1053000029FE2046FFF7EAFD3046E6E7FEB50446F3
:10531000468801466846FFF765FE05460198002865
:105320002FD068460088052806D0042809D0062812
:1053300007D0072805D026E06946304600F030F84F
:1053400021E081001548081801464039098E0029DE
:1053500019D02038807C6A463146FFF7D8FD0028F6
:1053600011D168460088042803D001213046FCF79B
:10537000E1FF012D04D1A068002801D0FAF718FF41
:10538000FEBD012D04D1A068002801D0FAF710FF5E
:1053900001213046FCF7CEFFFEBD00001CABFF1F15
:1053A00030B50546088987B00C46042817D302A8F3
:1053B0006168FFF7EAFE68464089172837D82189D7
:1053C000001D81421ED16846007AC10709D062687B
:1053D00002A92846121DFFF765FF002812D107B069
:1053E00030BD6168091D122805D00020694608807B
:1053F000497A6A4622E06846428903A8FCF7CAFF58
:10540000002803D02846FFF76DFDE8E70D488188A6
:105410000029E4D06946497A03AA019200916946BD
:105420000B7A807900222946FFF794FDD7E7012106
:105430006846018017214180417A6A462846FCF778
:105440005DFFCCE71CABFF1FF8B500252C461648C6
:10545000290144520E18B481B480B068002802D0EB
:10546000FAF7A6FEB4605C20294641430E4850304E
:105470000F183E464036347474743476786D0028C4
:1054800002D0FAF795FE7C650026F00038184068D7
:10549000002801D0FAF78CFE761C0A2EF5DB6D1C75
:1054A000052DD4DBF8BD000058ACFF1FFFB589B057
:1054B00015460E461720129FFDF706F8040021D06E
:1054C000684606704570002F03D0201D0C99B84720
:1054D00000E0002069464880267065704888A0700A
:1054E000010AE170052269468A82001D06948883BC
:1054F00005A90998FFF782FC050004D02046FAF7B9
:1055000057FE00E0132528460DB0F0BDFFB581B071
:105510001E46054601210A9F0B9C00F02BF900282E
:1055200011D02046FFF738FC00280AD0C580044679
:10553000077012484178491C0A06120E427004D0C6
:1055400005E015250FE014250DE0012242702271BF
:1055500000962846039B0299FFF7A8FF050005D097
:105560002046FFF7BBFC284605B0F0BD2346214688
:10557000034A09330348FAF793FEF4E7967CFF1FCA
:1055800030750000E74E021110B50446407AFAF774
:105590008DFEFF20607210BD10B500240F22835CC9
:1055A0005B0023438B54835C521EDC0952B2002AF9
:1055B000F5DA10BDFFB581B01E4617460D46084608
:1055C00000F04AF8002802D0112005B0F0BD0E48C6
:1055D00000F042F8040015D00A98A0710622E01DE0
:1055E0000B99FAF725FD6580277166710198207087
:1055F000002060620C98E0810021284601F056F9F5
:105600000020E2E71520E0E7FFFF000070B5144638
:105610000D46064600F020F800280BD0416A0079BC
:1056200000290CD0C20611D580070AD4002C08D05E
:10563000052070BD074886420AD0142070BDC00600
:10564000F6D5887EA84203D20C2070BD0F2070BD15
:10565000002070BDFEFF0000084A002128234B43B4
:105660009B185B88834203D12820414388187047E8
:10567000491CC9B20529F1D3002070474CABFF1F6C
:1056800030B50B4C0B4B002128224A43D5186D88AE
:10569000A54206D09A5C824203D128204143C81813
:1056A00030BD491CC9B20529EED3002030BD000031
:1056B000FFFF00004CABFF1F10B500200B4C0C4B44
:1056C000014628224243D2185480401C1171C0B2B6
:1056D00051620528F5D3064A0020C8328300401CD9
:1056E000C0B2D1500928F9D310BD0000FFFF00005F
:1056F0004CABFF1F0020074A014628234B439B1851
:105700001B79002B01D0401CC0B2491CC9B205292D
:10571000F3D370474CABFF1F074A00218B00D358CF
:10572000002B05D0491CC9B20929F7D313207047B3
:10573000890050500020704714ACFF1F10B5FFF7D0
:105740008BFF040013D06088012101F0AFF8606A7C
:10575000002801D0FAF7EAFC282200212046FAF7B7
:105760008BFC0020C04360800020207110BD02200F
:1057700010BD000010B50C460649884206D0FFF760
:105780006BFF002804D00079204201D0012010BD19
:10579000002010BDFEFF0000F7B5064686B00020D1
:1057A00004900390079810E125290AD00499002954
:1057B00001D0039802E0049000200390401C039065
:1057C00000E10398002805D081B20498B04700207A
:1057D0000490039000250422082310210798401C00
:1057E000079000782B2819D004DC202818D0232813
:1057F00004D117E02D280FD0302815D0079A0027A4
:105800001078FF430346303B3C46092B0FD807A8CE
:1058100001F018F9044615E00D43DFE71543DDE715
:105820001D43DBE7202000E001200543D6E72A28BE
:1058300008D1521C0898079210C80890002C01DA71
:1058400064420D43079938460A782E2A14D1491C20
:10585000079108780246303A092A03D807A801F0D0
:10586000F1F806E02A2806D1491C0791089901C9D8
:105870000891002800DA0020079A39461778682F27
:1058800003D06C2F01D04C2F02D1521C3946079205
:10589000079B0A221B786E2B2CD00CDC632B2AD0A2
:1058A00004DC412B26D0582B11D19BE0642B01D076
:1058B000692B0CD19AE0732B3DD004DC6F2B77D091
:1058C000702B04D164E0752B73D0782B6FD0252B0F
:1058D00009D0252069460872012102A8B04707981F
:1058E0000178002975D0079869460078087201216F
:1058F00002A8B04766E0E80609D42025641E002C03
:1059000005DD68460572012102A8B047F6E7089850
:105910006A4601781172001D0890012102A8B04763
:10592000202504E068460572012102A8B047641EE4
:10593000002CF7DC46E0089A02CA08920091002980
:1059400001D12DA100910A4600E0491C0B78002BE3
:1059500001D0401EF9D28F1AE8060AD4202520462D
:10596000641EB84205DD68460572012102A8B047F1
:10597000F5E7B9B20098B047202504E06846057203
:10598000012102A8B0472046641EB842F6DC19E0A7
:10599000611C02D1082401210D4300900898019553
:1059A00002C823461022089009E001E001E01BE054
:1059B0000822089B02CB08930195009023463046AD
:1059C00000F01EF80798401C07900178002901D0CC
:1059D000EAE60EE00398002802D081B20498B047AE
:1059E00009B0F0BD402215431022E2E702231D4317
:1059F000DFE7401E0790E5E73C4E554C4C3E00006B
:105A0000FFB50746574897B0219D006815901E4680
:105A10000A46680602D5534840681590E80601D545
:105A20006D086D001998801E232870D2E80701D0F8
:105A3000302100E0202110A8017300210172A80785
:105A400010D5002A04DA2D2010A90872524208E06D
:105A5000680701D52B2002E0280703D5202010A9D4
:105A600008725E1EA80608D51998102802D00828CA
:105A700002D002E0B61E00E0761E0024002A14D0F8
:105A800010461999FAF706FC159A525C01A90A55B5
:105A9000641C0200F4D12098844200DD20942098F8
:105AA000361A112005420BD00EE0302069460871ED
:105AB0000124F0E720206946087001216846B847B4
:105AC0003046761E0028F5DC10A8007A002802D0A7
:105AD000012112A8B847A80616D51998082802D09F
