:020000041101E8
:1070000003B40148019001BDADAE000003B40148D6
:10701000019001BD456B010003B40148019001BD21
:107020000189000003B40148019001BDC53F000083
:1070300003B40148019001BDE94C010003B40148CB
:10704000019001BDC95C010003B40148019001BD7C
:10705000CD4C010003B40148019001BD090E0000B0
:1070600003B40148019001BD8B52010003B40148F3
:10707000019001BD154D010003B40148019001BD0F
:107080000D52010003B40148019001BDD70E00006C
:1070900003B40148019001BD3D4B010003B4014818
:1070A000019001BDC534FF1F03B40148019001BD2B
:1070B0000D35FF1F03B40148019001BD014C0100D3
:1070C00003B40148019001BDD544010003B4014857
:1070D000019001BD810E000003B40148019001BD83
:1070E0005147010003B40148019001BDB5440100BE
:1070F00003B40148019001BD1147010003B40148E8
:10710000019001BD894A010003B40148019001BD0D
:10711000B352010003B40148019001BD595201006E
:1071200003B40148019001BD3522000003B40148B9
:10713000019001BD691F000003B40148019001BD29
:107140005D17000003B40148019001BD5125000006
:1071500003B40148019001BDF54E010003B401489C
:10716000019001BD594F010003B40148019001BDD8
:10717000434D010003B40148019001BD8D12000090
:1071800003B40148019001BD4D1F000003B4014844
:10719000019001BD5522000003B40148019001BDDA
:1071A000DD52010003B40148019001BD1D4D0100F5
:1071B00003B40148019001BD6189000003B4014896
:1071C000019001BD017F000003B40148019001BDA1
:1071D000E117000003B40148019001BD79180000D7
:1071E00003B40148019001BDD949010003B401482D
:1071F000019001BDE928000003B40148019001BDE0
:107200005549010003B40148019001BDF30E00008F
:1072100003B40148019001BDB30E000003B401485E
:10722000019001BDB30E000003B40148019001BDFF
:10723000810E000003B40148019001BD6B19FF1FCE
:1072400003B40148019001BDCD68FF1F03B401489C
:10725000019001BD0946FF1F03B40148019001BD23
:107260004551010003B40148019001BD5919FF1FA8
:1072700003B40148019001BDC90E000003B40148E8
:10728000019001BDED4A010003B40148019001BD28
:10729000A54F010003B40148019001BD85520100D2
:1072A00003B40148019001BDE534FF1F03B4014858
:1072B000019001BD1DBC000003B40148019001BD57
:1072C0006DBC000003B40148019001BD8949FF1F56
:1072D00003B40148019001BD3149FF1F03B40148C7
:1072E000019001BD055E000003B40148019001BD9D
:1072F000E548000003B40148019001BD494901007F
:1073000003B40148019001BD311A000003B40148E3
:10731000019001BD9928000003B40148019001BD0E
:10732000B929FF1F03B40148019001BDC521000028
:1073300003B40148019001BD291C000003B40148B9
:10734000019001BD1922000003B40148019001BD64
:10735000851F000003B40148019001BDA94601004A
:1073600003B40148019001BDF549FF1F03B4014872
:10737000019001BD5D4AFF1F03B40148019001BDAA
:10738000E9AF000003B40148019001BD3729FF1F98
:1073900003B40148019001BD1129FF1F03B4014846
:1073A000019001BDA50E000003B40148019001BD8C
:1073B0005145FF1F03B40148019001BDB946FF1FAD
:1073C00003B40148019001BDE944FF1F03B4014823
:1073D000019001BD0B0D000003B40148019001BDF7
:1073E000030D000003B40148019001BD3569FF1F82
:1073F00003B40148019001BD4569FF1F03B4014872
:10740000019001BD2951010003B40148019001BD63
:1074100075A9000003B40148019001BD9DA90000B9
:1074200003B40148019001BDD1A500001CB50124A1
:10743000214601A802F0CCFC684604F085FD6846B0
:107440000079012806D168460078022802D108F0A8
:10745000F9FC0024002014F0EFFA012002F0F0FF04
:1074600020461CBDF8B5D349D14A002004464A60E5
:107470008300401CD450FF28FADD4868CE4A0146FC
:1074800080318A606E22C262CC4A1278002A01D012
:107490007F22C2620A220265C94A13788363C94BFC
:1074A000C36115781023022D08D01578012D05D061
:1074B0001578032D02D01578042D00D10362C24D3A
:1074C00045611925AD0185613725CD603627282610
:1074D000C7630825466405644F6032270F603B2769
:1074E000CF634127CF6439274031E0C132274F6055
:1074F00002274F6142270831E0C11E274F60CE604E
:107500008D6005264E6142260E615A2660390E6155
:107510004D613C258D61AF25ED000560AB4D0563E8
:107520001578022D09D01578012D08D01578032D76
:1075300007D01578042D06D007E0152504E0436038
:1075400003E00E2500E00C254560FF252D35856004
:10755000C560FF25F53505619D4D85647D25ED00F0
:107560009C4ECD67C66445629B4D85627325C5659B
:10757000062545658565C51D0826F93502272E6057
:1075800047664B27FF0087660927C766934F076743
:107590004667BE108467C667914F8E4E3E60167870
:1075A000022E09D01678012E0AD01678032E0BD0A1
:1075B0001278042A0CD00EE01A22CA61212205E0BA
:1075C0001422CA61182201E01322CB610A6202E090
:1075D0000E220B62CA617E4A8A627D22D2008A67CD
:1075E00064224A620522CA6202220A63C8228C63AC
:1075F0004A63382169607B4929647B49A9614B2131
:10760000C900E9617349FF30643929627D210901AC
:107610006962EC661E212C67A9667049A965E96557
:1076200089102966696469677049A9677049714A58
:107630008130E967026082604160FF21F531C160FD
:1076400001616E486C495A4A81606D49803A116106
:107650006A496C4A80318A626B4ACA626B4A8261AB
:107660006B4AC2626B4A02636B4A64484038C26329
:107670006A4ACA616A49816360496A4840318861DF
:107680006A49694888605D48694A80384260694A49
:107690004263694A0A626949816058496848C03949
:1076A000C860FFF7ADFC0120FFF7B0FCF8BDF3B5F3
:1076B0000746644881B0C169634A1140FF3109310E
:1076C000C161002613E000252C461120FFF7A4FC21
:1076D0005C48406A8007800F610088402843641C32
:1076E000E4B20546102CF0D301C7761CF6B202981E
:1076F0008642E8D3FEBD10B52E4C607800280AD132
:1077000004215248FFF7D3FF504804211030FFF7FF
:10771000CEFF0120607010BDF0B500248BB00D4687
:107720000646102902D901200BB0F0BDFFF7E3FF98
:10773000464900200A5C401C1419C0B21028F9D335
:10774000002C03D0102D03D90B20EDE70E20EBE722
:107750003F483E4C0023006802A91034E25CC75C3D
:107760007A40CA545B1CDBB2102BF7D306AA374809
:10777000FFF758FC102D00D910252A4606A93046DF
:10778000FFF756FCFFF75AFC216840182060FFF70E
:1077900055FC616840186060FFF750FCA168401814
:1077A000A060FFF74BFCE1684018E0600020BBE7F9
:1077B0000004FF1F907DFF1F68EAFF1FC074FF1FBA
:1077C0004A0AFF1F3A07000080C3C9019A0200005D
:1077D00050C30000280A00006A180000204E000074
:1077E000F009FF1F0040001168100000DC050000D8
:1077F00040420F0010270000C159FF1F0001FF1F6A
:10780000F92DFF1FD569FF1FAD6CFF1F052BFF1F53
:10781000992CFF1F212BFF1FB543FF1F6972FF1F0C
:107820008D70FF1F9129FF1FB531FF1F0002FF1F41
:107830002556FF1F1558FF1F5957FF1F814CFF1F6B
:107840008D34FF1F40F0004000FEFEFF98D9FF1F5F
:10785000B47DFF1F0149486070470000E87AFF1FB0
:107860000A7802708A7842704A88120A827009790E
:10787000C170042070470A7802700988090A4170B3
:1078800002207047097801700120704770B50C46DE
:10789000097801702188C51C090A4170A17881709E
:1078A0006088611D000A28706D1C22792846FFF748
:1078B000BFFB20792146401922890A31FFF7B8FB26
:1078C000207921894018001D80B270BD10B50022BA
:1078D0000EE093005B189C7804705C88521C240AAC
:1078E00044701C7984709B88D2B21B0AC370001D3F
:1078F0000B789342EDD81806800D10BD0A780270FF
:107900000A88120A42708A7882704988090AC1700E
:1079100004207047F8B50D460646497801203170BD
:107920000024761C16E06978012917D012216143E2
:1079300049198A7832704A88871C120A7270B61CFC
:1079400010223046091DFFF773FB1037B8B210360E
:10795000641CE4B22978A142E5D8F8BDA100491918
:107960008A7832704A88871C120A7270B61C02220A
:107970003046091DFFF75CFBBF1CB8B2B61CE7E739
:1079800010B50C46097801702188090A4170628897
:10799000211D801CFFF74CFB6088801C80B210BD4D
:1079A00010B50C46097801702188090A4170A17848
:1079B00081706188090AC170A288A11D001DFFF7AE
:1079C00037FBA088001D80B210BD10B50C460978A9
:1079D00001702188090A4170A17881706188090AC3
:1079E000C170A288A11D001DFFF722FBA088001D09
:1079F00080B210BD0A7802700A88120A42708A7832
:107A000082704988090AC1700420704710B50C467D
:107A10000A88891CFFF70CFB208810BD10B50B7875
:107A20008A7802705343DCB22246401C091DFFF7DE
:107A3000FFFA601C10BD10B50C4609780170218852
:107A4000090A4170A17881706188090AC1702279A0
:107A5000611D001DFFF7ECFA2079001D10BD10B567
:107A60000B788A7802705343DCB22246401C091D11
:107A7000FFF7DEFA601C10BD10B50C460A88891CA1
:107A8000FFF7D6FA208810BD10B50C460A88891C6D
:107A9000FFF7CEFA208810BD7FB5154604460229AF
:107AA00001D0102903D1022B04D0102B02D00020CA
:107AB00004B070BD994202D10A46294607E0102958
:107AC000694607D000F00EF8102269462846FFF7F5
:107AD000BBFAEDE7104600F005F810226946204693
:107AE000F5E7000070B50C4605000CD0002C0AD05C
:107AF000102206492046FFF79BFA28782073687801
:107B00006073012070BD002070BD0000A0E902116B
:107B100010B50B460122024907F0F6FA10BD00002D
:107B20006178011170B5064608880C46172812D3F3
:107B30000B4603220949304607F0E6FA050008D152
:107B4000074920880988884200D20146304600F063
:107B50008DFA284670BD022070BD000077780111B3
:107B6000B47CFF1F10B50B461822024907F0CCFA6F
:107B700010BD00008578011110B5002319221946A7
:107B800007F0C2FA10BD000010B50A79022A01D030
:107B9000022010BD0B460622014907F0B5FA10BDC0
:107BA0008D78011110B50A78002A05D00B460722FE
:107BB000024907F0A9FA10BD022010BDCD780111CD
:107BC00010B50B460422024907F09EFA10BD0000D2
:107BD000FD78011110B54A78012A01D0022A08D196
:107BE0000A78002A05D00B460522034907F08CFAD3
:107BF00010BD022010BD000015790111014940009F
:107C0000085A7047B27CFF1F10B50B461B22024971
:107C100007F07AFA10BD000081790111014917209F
:107C200008807047B27CFF1F042901D004207047F0
:107C300001781170837841781B02C9185180C0788F
:107C40001071002070470098022B01D0042070476B
:107C5000117852781202891801800020704700982C
:107C6000012B01D00420704711780170002070476B
:107C7000002901D0042070470020704770B5049C93
:107C80001E461546062B1BD3697828780902401832
:107C90002080E978A87809024018608002222271C9
:107CA000291D601DFFF7C4F9B61FB2B22281F02A68
:107CB00006D82046A91D0A30FFF7BAF9002070BD8A
:107CC000042070BD0098042B01D004207047537825
:107CD00011781B02C91801809178D2781202891894
:107CE000418000207047F7B504271646002937D099
:107CF000491EC8B200990D78012D02D0022D07D07F
:107D00002EE081072CD18408601E042809D927E0C1
:107D10001221FFF79FF9002922D1040020D0012C65
:107D20001ED875700027009834703D46401C15E041
:107D3000717842780129017814D012028918122230
:107D40006A4393195980801C0090181D10220099D5
:107D5000FFF76EF9009810306D1CEDB2A542E7D325
:107D60003846FEBD12028918AA0093195980801C5A
:107D70000090181D02220099FFF75AF90098801C04
:107D8000EAE710B502981146022B0FD34C780A7817
:107D90002402121902809B1E9AB24280F42A05D84E
:107DA000001D891CFFF744F9002010BD042010BD00
:107DB000F8B584890D460646002C26D0B26817789F
:107DC000380620D50C2C20D90C3CA4B210190090F8
:107DD00001217088234604F074FC002811D0022091
:107DE00028707806C00F6870B806800EA870641EF0
:107DF0002004000CA88001D0B068401CA8600020BE
:107E0000F8BD0120ECE70020EAE70120F8BD10B53D
:107E100002981146042B14D34C780A7824021219C4
:107E20000280CC788A782402121942801B1F9AB2F1
:107E30008280F22A05D8801D091DFFF7F9F800207D
:107E400010BD042010BD0098042B01D00420704701
:107E5000537811781B02C91801809178D2781202E8
:107E6000891841800020704710B502981146062BF2
:107E700003D0142B03D0042010BD022200E01022F6
:107E800002714B780A781B02D2180280CB788A786C
:107E90001B02D21842800279401D091DFFF7C8F865
:107EA000002010BD70B50546144603290CD3491EA9
:107EB000CEB229786180F52E06D8002904D030464C
:107EC000FFF7C8F8002901D0042070BD20703246A9
:107ED000691C201DFFF7ACF8002070BD30B5039C75
:107EE000D80718D1D805010E022914D30B48808871
:107EF000814210D8F6200155002008E0557813780B
:107F00002D025B194500401C6353C0B2921C88428D
:107F1000F4D3002030BD042030BD0000AC7CFF1F36
:107F20000098022B01D00420704711785278120279
:107F3000891801800020704770B5144602460498E5
:107F4000022B18D3667825783602AD1905800546D0
:107F5000E0352A766976002A0BD0E8219B1E9AB27A
:107F600042808A4207D8A11C001DFFF761F800205B
:107F700070BDF421F2E7042070BD000010B50B467F
:107F80001622024907F0C0F810BD0000A1790111C6
:107F900010B50B461722024907F0B6F810BD0000D5
:107FA000CB79011110B50B460C22024907F0ACF851
:107FB00010BD0000F579011110B50B460D220249E4
:107FC00007F0A2F810BD00000D7A011110B50A7972
:107FD000102A03D0022A01D0022010BD0B46102225
:107FE000014907F091F810BD377A011110B50A78F0
:107FF000002A05D00B461122024907F085F810BD72
:10800000022010BD1D7A011110B50A79102A03D083
:10801000022A01D0022010BD0B460822014907F0B8
:1080200073F810BD377A011110B50A78002A05D00F
:108030000B460922024907F067F810BD022010BD67
:108040005F7A011110B50B460F22024907F05CF868
:1080500010BD0000797A011110B50B460B220249C0
:1080600007F052F810BD0000897A0111044A128805
:10807000914203D8024A4000921D115270470000FD
:10808000AC7CFF1F10B500231322194607F03CF803
:1080900010BD0000014610B502481322407800F0E0
:1080A000E9FC10BD4477FF1F70B50A4D01006878E8
:1080B00003D0094900F0BAFB01E000F071FB0400B5
:1080C00005D10121054A49036878FEF7C9FF20461A
:1080D00070BD00004477FF1F4CB8FF1F1027000041
:1080E00070B505461C461646082000F0B3FC314624
:1080F000092000F0AFFC0021084600F0ABFC064868
:108100000721017205704472002141700622801C13
:10811000FEF7ACFF002070BD4CB8FF1F0B460146B8
:1081200010B50348D2B2407800F0E4FC10BD000066
:108130004477FF1F70B50E4D00280AD028460D3039
:1081400000F0E0FA040010D104216878FEF794FFF3
:108150000BE0687800F0BAFA040006D1012028701C
:108160004103044A6878FEF77BFF204670BD00009B
:108170004477FF1F10270000F8B50E4605461C4641
:1081800017461146112000F065FC3146102000F022
:1081900061FC0021232000F05DFC0B49022000F06F
:1081A00059FC31460C2000F055FC39460D2000F0FA
:1081B00051FC064903208D7048700846CC700D387C
:1081C000407808700020F8BD881300005177FF1F29
:1081D000024A506011700020704700002C7CFF1F85
:1081E000F0B5284A91B0050011D001E0491E6D1C80
:1081F0002878202809D0092807D0002907D0002690
:108200006C1C32466B46691819E00029EED1104605
:1082100011B0F0BD207820280BD0092809D00D28F6
:1082200007D00A2805D020462038C07F002802D079
:1082300004E0227002E0B0001C50761C641CA142D5
:10824000E8D8002001E0401CC0B2B042FBD30024BB
:108250000D4F09E00C207968604309582846FEF765
:1082600011FF002805D0641C38788442F2D3002026
:10827000CEE70C204443786869462018826830466F
:108280009047F4E7FFFF00002C7CFF1FF0B50025AE
:1082900006462C4606E0355D202D01D0092D03D180
:1082A000641CA4B28C42F6D3002301202D2D1BD1D7
:1082B000FF2017E0355D2F46303F092F03D8534389
:1082C0005B19303B0EE02F46613F052F03D8534327
:1082D0005B19573B06E02F46413F052F06D8534315
:1082E0005B19373B641CA4B28C42E3D35843F0BD06
:1082F00010B5034A1321034800F012FE10BD000020
:1083000078E202112075FF1F70B5044680B2FEF7B7
:10831000BFFE050009D1214605A0FEF7BFFE0EA055
:10832000FEF7BCFE0D480020C046284670BD000088
:108330004D656D6F727920416C6C6F636174696F0C
:108340006E204661696C6564212C2073697A652012
:108350003D202564200000000D0A0000C877FF1FA3
:10836000054903200870011F044A00208300401CB7
:10837000D1501028FAD37047CC77FF1F54B9FF1F94
:108380000FB4024610B50B4803780020C0439A4250
:108390000CD80B0F1A074A409900074B59588A43CB
:1083A00004D105A90498FEF77FFE002010BC08BC8C
:1083B00004B01847CC77FF1F54B9FF1F10B5FEF764
:1083C00079FE10BD70470000032801D801490870EC
:1083D00070470000CC77FF1F70470000FFB593B0D7
:1083E00015460F4606461C9CFEF76AFE002E0CD072
:1083F000002D0DD0002C16D0202C0FD92046FFF7D1
:1084000083FF002807D0029009E0124817B0F0BDA2
:108410001048401CFAE70F480C38F7E704A822463A
:108420001699FEF753FE10A80195048068460C9734
:1084300015F08CF8040008D010A80088202802D974
:108440000298FFF7BBFF2046E0E7684600783070EF
:108450000020DBE711C00000F8B5054600780F28C2
:1084600003D3FF2028702348F8BDFEF729FE2878A3
:10847000482148432149204C47183E464036F07871
:1084800000901022384615F019F900282ED1114617
:108490000098FEF721FE00280ED0F0780F21FEF79D
:1084A000D9FD01228A4091B2154A12788018C0B2D3
:1084B000FEF718FE002819D10121384615F0A2F860
:1084C000040013D10098FEF713FE0746F0780F2141
:1084D000FEF7C0FD01228A4091B2094A1278801845
:1084E000C0B2FEF70BFE002F00D0034CFF20287017
:1084F0002046F8BD11C00000FFFF000098B9FF1F23
:10850000C008FF1FF0B50023084EFF2748201D4676
:108510004543AC19204615F0C3F84034E770735555
:108520005B1C9BB20F2BF1D3F0BD000098B9FF1F6D
:1085300001290CD80E4A431C0AD0030F1B074340E5
:10854000000F8000012911580FD099431150704736
:10855000012907D0002100208300401CD1501028A1
:10856000FAD370470021C943F5E71943EEE700004D
:1085700054B9FF1F10B505480078000701D504481D
:1085800000E000200AF028FE10BD0000D17CFF1F93
:10859000C87CFF1F70B50C4C0546012120780AF0FD
:1085A000C9F90A480A210078084207D020462570F8
:1085B00008300AF00BFE0AF0D3F870BD00202070DE
:1085C0000AF004FE002070BDB87CFF1FD17CFF1FA5
:1085D000F3B5044639480026877883B0032C36D893
:1085E000374D2878032802D0102005B0F0BD00F0E8
:1085F0007DF9002807D10AF005FA002803D10AF016
:1086000009FA002801D01220EFE7012C04D0022C37
:1086100002D0032C28D02CE0049800281FD006227A
:1086200000216846FEF722FD062269460498FEF7FF
:108630000BFD00280BD10622FF216846FEF716FD30
:10864000062269460498FEF7FFFC002801D00220AC
:10865000CBE7062268460499FEF7EAFC09E006210A
:10866000684614F079FE04E06946686803F0BAFFD2
:108670000646124D1348AC7004210078FEF744FD05
:108680000020A880002E06D1002C05D068460AF0F4
:1086900077FC060002D0AF703046A6E7032CFBD172
:1086A0001D2000F0A7F8A8800028F5D00548064A4C
:1086B00004210078FEF72EFDEEE70000D07CFF1FBE
:1086C000F8D6FF1F617DFF1F60EA000010B50B495F
:1086D0000968002904D00978814203D0032010BD25
:1086E000122010BD064801210078FEF70DFD302054
:1086F0000AF07EFD00200AF07DFE10BD2C7DFF1FDC
:10870000617DFF1F38B5234D04462868002801D03D
:10871000112038BD20480A210078084201D11220DA
:1087200038BD0420FEF7B4FC286000282FD00422B6
:108730002146FEF77DFC00F0D9F8002805D00C207A
:1087400000F058F805460D2007E06078022812D0A6
:10875000102000F04FF80546112000F04BF80246BB
:10876000E078002800D0012000900C480078002814
:1087700007D0012306E0122000F03CF80546132044
:10878000EBE70023A0782946FEF7CAFC38BD13208A
:1087900038BD00002C7DFF1FD17CFF1FD27CFF1F46
:1087A00070B5104C2168002904D00978814203D0AB
:1087B000032070BD122070BD0B4D02212878FEF7FA
:1087C000A3FC0A480026468004212878FEF79CFC7A
:1087D000074806802168032048700020FEF7A6FCA9
:1087E00070BD0000307DFF1F617DFF1F447DFF1FB6
:1087F000D47CFF1F272803D202494000085A704743
:1088000001487047DC7CFF1FFFFF000010B5064CDD
:1088100060700EF055FD6078FEF78EFC05216078E3
:1088200000F054FF10BD0000607DFF1F70B5284EA2
:10883000054630680C46002801D0112070BD25483F
:1088400001780520014216D023488068002805D011
:108850000078002802D0C80706D101E0102070BDC2
:1088600000F044F8002808D02078032805D002281A
:1088700003D0002801D0122070BD0C20FEF708FCA8
:108880003060002820D00570002141700A22214666
:10889000801CFEF7CDFB0AF0BBFD040002D00AF0FD
:1088A00011F812E00D48007803280ED11D20FFF7C3
:1088B000A1FF0B490028088007D00B48094A042172
:1088C0000078FEF727FC00E01324204670BD00006E
:1088D000307DFF1FD17CFF1F447DFF1FD27CFF1F17
:1088E000D47CFF1F60EA0000617DFF1F10B50EF011
:1088F00005FD10BD70B50C4605461C220021094837
:10890000FEF7B4FB084805704470FEF71BFC0549F0
:10891000002803D000200870122070BD01220A70C8
:1089200070BD0000F8D6FF1FD07CFF1F70B50F4C44
:108930000025A068002802D0FEF7BCFBA560E06817
:10894000002802D0FEF7B6FBE56009480521007853
:10895000084206D0054810300AF044FC09F0D6FE63
:1089600070BD00200AF03EFC002070BD447DFF1F5A
:10897000D17CFF1FFEB5344D0C46080419D568782C
:10898000FEF7E6FB0121C9034C40064600280ED045
:108990000AF00CFB002807D12878FF2804D03146C4
:1089A000FEF7DCFB002802D03046FEF7DDFB204658
:1089B000FEBDE007012700280AD0A868002804D0DF
:1089C0004168002901D00020884720467840FEBD3C
:1089D000A00709D56868002804D04168002901D0A3
:1089E0000120884702202AE060072AD5174E3088E8
:1089F00000281FD0401E0004000C30801ED10AF059
:108A000001F8002809D0124807706868002804D0CF
:108A10004168002901D00120884709F0CDFF69464F
:108A200003F0E0FD68460AF0ABFA1D20FFF7E2FE16
:108A3000308003E004216878FEF766FB0420604084
:108A4000FEBD0020FEBD0000607DFF1FD47CFF1F27
:108A5000D37CFF1F272807D2044A914204D0044A3E
:108A6000400011520020704702207047FFFF0000B5
:108A7000DC7CFF1FF8B50D4617461D4906461B4A0C
:108A80001224C868954208D100282DD00268002A17
:108A90002AD029463046904723E0144A521C95427A
:108AA00013D1002807D00268002A04D02946304696
:108AB0009047040005D03946304609F0FBFD04001C
:108AC00012D10B48067047700EE028460EF0C8FB26
:108AD000002809D00078B04205D139462846FEF773
:108AE00049FB044600E003242046F8BDFEFF0000D9
:108AF000347DFF1FF8B50E4601461948154600782B
:108B000005221F46104028D0304326D01548012E9C
:108B10001BD0C468002C20D01F2D18D8002D01D0E8
:108B2000002F14D001701F220021601CFEF79EFA56
:108B30002A463946601CFEF77BFA28462570002E2F
:108B400007D0611CFEF71CFBF8BD8468E2E7022039
:108B5000F8BD611CFEF71AFBF8BD1220F8BD00003D
:108B6000D17CFF1F447DFF1F014610B50020C907BF
:108B700004D0034A0421034800F0D2F910BD0000DC
:108B80008CE202117876FF1F7CB50C461049054631
:108B90000022886818E08688AE4213D1002A0ED0E1
:108BA00001681160FEF786FA6946284600F050FA1F
:108BB000002803D1002C01D0019921607CBD0268FE
:108BC0008A60EFE7024600680028E4D101207CBDFE
:108BD0005876FF1F70B50F4D0F4CA87029461831FD
:108BE000204600F01DF8002128460B461030CA0030
:108BF00084521218491C09065360090EF7D001204F
:108C00000BF0D6FEA87800F0B5FB04480EF088FB08
:108C100070BD00005876FF1FFFFF0000E941021100
:108C200070B50A4C0025A04209D1002082008C5268
:108C30005218401CC0B295700228F7D370BD0BF0DB
:108C4000A2FA0028FAD00480857070BDFFFF0000F2
:108C5000F8B50E460746069900240798002902D069
:108C60000B242046F8BD022B01D00D24F9E7117822
:108C70005278120289188DB22946814301D080248E
:108C8000EFE73846F16800F03DF9A842E9D02A46FE
:108C90003846F16800F0AEF90400E2D171892A4645
:108CA000384600F06BF9DCE770B50C46080412D5C5
:108CB0000A488078FEF74CFA050008D02878B028DA
:108CC00002D128460BF07CFB2846FEF74DFA012026
:108CD000C003604070BD002070BD00005876FF1FCB
:108CE000FFB587B0087A0025109E1C460F46C006C7
:108CF0000DD509980BF040FA030006D00A22394638
:108D000007989847050035D101E00E2532E0387804
:108D100002281DD1786829220178407812020002C9
:108D2000081880B2811A90427ED009DC7249401A3C
:108D300023D0012821D0022851D0032808D125E0D2
:108D4000012972D0022971D003296DD004296ED077
:108D500009980BF039FA0028D7D00568002DD4D037
:108D6000129911980191009033462246394607988E
:108D7000A847054628460BB0F0BD1198002873D1CE
:108D8000F868017831800278416897E011980028EE
:108D90006AD101203080F86800210078207078893D
:108DA000401C80B200F0AAF900280FD03188027868
:108DB0008918891C3180817A61704189090AA17002
:108DC00002784168E01CFEF733F9D3E730880422CB
:108DD000001D30800021601CFEF748F9CAE7119899
:108DE000002872D1F86804A900880090042030801F
:108DF000009820700098000A6070009800F07EF9DA
:108E0000070028D0F86805906846028A03AB3B4902
:108E1000384600F0CBF900280FD13B7802213848C2
:108E20007A68FEF739FE03E027E031E01DE049E013
:108E3000002802D1314869468881059800780228C7
:108E40000CD1059802224168201DFEF7F1F8308808
:108E5000801C308002E069460098888168468089DD
:108E6000A070000AE07085E72FE0119800282CD14F
:108E7000F968079800F046F804E01198002824D11A
:108E8000F8680088022131802070000A607071E764
:108E9000F868FEF781F91199C0B2814210D8814279
:108EA00001D1002206E0129A8918814202D3119959
:108EB000401AC2B23280F96811980918204682E738
:108EC000072557E71198002801D00B2552E7072105
:108ED000F868318001782170417861708178A170E3
:108EE0004188090AE1700179217181796171C08835
:108EF000000AA0713EE7000000280000FFFF00000C
:108F000016EA021110B50BF03EF9002800D0807867
:108F100010BD000001490870704700005876FF1F1F
:108F20007CB51446050019D068460195018000F013
:108F300027FA03001DD1002C1BD06D89002D0DD008
:108F40000C20FEF7A5F800280AD0002303608580D6
:108F5000094A84609168002904D006E0022308E0F1
:108F6000132306E0906004E011460A68002AFBD152
:108F7000086018467CBD00005876FF1FF8B50C4C01
:108F80000746207815460E46FF280FD00A20FEF728
:108F900009F901000AD0B12008700020487008715A
:108FA0004F80CE800D812078FEF7D8F8F8BD000004
:108FB0005876FF1FFFB583B008461F4601A90C9ED7
:108FC00000F09CF8050012D0684680880BF0FCF891
:108FD00000280AD04468002C07D000963B4629465A
:108FE000059A0398A04707B0F0BD0E20FBE70120CB
:108FF000F9E7000070B514460E4605460BF0C3F8BD
:10900000002806D1314605480BF0BDF8002803D0F2
:1090100005808470002070BD112070BDFFFF00002E
:1090200010B50178B0290BD14178002908D1017918
:10903000122906D01B2903D14088012100F0D0FA63
:1090400010BDFF210231095C0129F5D010BD0000DF
:1090500070B50B461049024600204C6818E0A56820
:109060006D89954212D100280DD021680160002B36
:1090700004D00822211D1846FDF7DAFF2046FEF72E
:1090800019F8002070BD20684860F0E72046246889
:10909000002CE4D1012070BD707DFF1FFEB56C4631
:1090A000A180E280064601AF1D4602A90AF0D6FB68
:1090B00004000CD139463046FEF782FD040006D18B
:1090C000044B05223946009502980BF08FFD20468F
:1090D000FEBD0000E77C011110B586B06C46218012
:1090E000628002212171032161712821A171002276
:1090F00069460AF0D7FF06B010BD0000F0B58C46F7
:1091000010494B6819E09F687C89A04214D39E885F
:109110003119814210D900220CE011017D186989B2
:10912000814205D16046002800D004802846F0BD69
:10913000521C92B29642F0D81B68002BE3D100205B
:10914000F0BD0000707DFF1FFFB5174881B00A9F7A
:10915000446824E000251EE0A068290146187089B3
:109160000199884215D30299884212D804980028A0
:1091700007D031787068049B039AFEF78DFC0028B5
:1091800007D0002F02D0A06840893880304605B053
:10919000F0BD6D1CADB2A088A842DDD82468002CBB
:1091A000D8D10020F3E70000707DFF1FFEB5174601
:1091B00000256A469580044640891D4A1E46904215
:1091C00008D001AA0092401C237880B26268FFF7A1
:1091D000BBFF05462378022116486268FEF75CFC57
:1091E000002807D12378022113486268FEF754FC57
:1091F000002801D060890EE0237802210F486268C0
:10920000FEF74AFC00280DD0002D03D06846808868
:10921000B84203D038460BF0C9FC04E06889401E10
:1092200080B200E06089002E00D030802846FEBD6C
:10923000FFFF000014EA021116EA02111AEA0211F5
:1092400010B505490870042100F040FA00F036F826
:10925000FEF7E4FC10BD0000807DFF1FF8B5002480
:10926000124F2546FF26FF200D306043C019002C09
:1092700018D00F49018085704672FF2106720931AE
:109280000D54FC2200210C30FDF7F0FE641CE4B20A
:10929000022CE8D307480AF039FF07480EF040F8DF
:1092A0000020F8BD0249491EE4E7000014D7FF1F63
:1092B000FFFF0000213702116936021170B50E4C14
:1092C00000200C4B651CFF228100C91800280ED01D
:1092D0000D80401CCA70C0B28A700228F4D30748BF
:1092E0000AF01AFF06480EF01BF8002070BD0C8033
:1092F000EFE70000787DFF1FFEFF0000DD4A02114E
:109300005D4A0211F8B50D461446064669460AF054
:10931000BBFA17280CD0002C06D0012210213046B1
:109320000DF078FF002803D129463046FEF76CFC8B
:10933000F8BD000070B50C46080411D50948007846
:10934000FDF706FF050007D00178A02901D10AF03A
:10935000F7FD2846FDF708FF0120C003604070BDFF
:10936000002070BD807DFF1F01490870704700001C
:109370006C7DFF1F0149087070470000707DFF1F62
:1093800070B50546008800281DD068680221037862
:1093900042682248FEF780FB002808D16868022155
:1093A000037842681E48FEF777FB00280BD01D4C5F
:1093B0006088002805D0012229881204101A8142F1
:1093C00003D9012070BD022070BD0C20FDF760FEA6
:1093D000060001D000200AE0132070BD02016B6876
:1093E00061880A329952491C401C618080B22988E8
:1093F0008142F3D80020306008222946301DFDF755
:1094000017FE6068002802D1666004E00846016823
:109410000029FBD10660002070BD000014EA021193
:1094200016EA0211707DFF1F0649496806E08A6846
:109430005289824201D18888704709680029F6D193
:1094400000207047707DFF1F10B51422114201D01B
:10945000012202E04A0604D5002210210DF0DAFEB6
:1094600010BDC80701D0002010BD022010BD10B5EE
:1094700014468A0604D5012210210DF0CBFE10BD42
:10948000882211420ED008220A4010210DF0C2FE9F
:1094900000280BD0E034617E0029F0D0217E012924
:1094A000EDD103E0880701D4032010BD002010BDDA
:1094B000014610B50020C90704D0034A072103481C
:1094C000FFF72EFD10BD0000A0E20211CC76FF1FB9
:1094D00070B50D46164600241D490300FDF768FED1
:1094E00008051234341934222934152D23D81622B4
:1094F00000211848FDF7BAFD2A4631461548FDF708
:1095000097FD22E0022D16D11149108810390880EC
:109510001BE0082D0FD10E48082231460838FDF710
:10952000D5FD12E0012D06D1CA69094930782831EC
:1095300007E0012D01D0182407E0CA6B04493078F8
:1095400048310BF02EFC00E00224204670BD0000E4
:10955000CC76FF1F36B8FF1F0B7803700B880222F2
:109560001B0A43700B88801C012B02D0022B07D0F2
:1095700011E08A7802704988090A417004220AE0E1
:109580008A7802704A88120A42700A798270898841
:10959000090AC1700622104670470A7802700988CD
:1095A000090A41700220704708B5044B0093134626
:1095B0000A4601210DF0A8FC08BD000059950111D3
:1095C00008B5044B009313460A4613210DF09CFC8A
:1095D00008BD00009B95011110B5FDF7EFFD10BD12
:1095E00013B504480078012803D101AA6946FDF7A4
:1095F000EBFD1CBD8C7DFF1F70B50F490F4A087035
:1096000000210B468C00491CC9B213530429F9D31D
:109610000A4C00211034FF260A460A256A43151910
:109620006B80491CA354C9B26E720329F4D3FDF7B1
:10963000D1FD0DF03DFC70BD8D7DFF1F2CD9FF1FAE
:10964000082A01D0012070474B780A781B02D218F3
:109650000280CB788A781B02D21842804B790A7933
:109660001B02D21882808A79C97909025118C180F7
:109670000020704770B50C46080411D509480078E1
:10968000FDF766FD050007D00178902901D10DF0A6
:1096900071FB2846FDF768FD0120C003604070BDE6
:1096A000002070BD8D7DFF1F70B500280AD1064CCB
:1096B00000252580A581A580A068002802D0FDF79F
:1096C0008FFDA56070BD0000B8D9FF1F072907D026
:1096D000052905D0042903D0062901D002207047AE
:1096E000044A8B009A181346403B1986203A90741E
:1096F000002070472CD9FF1F70B506001BD10E4CFF
:109700000025214640310D744D740D76606D0028A2
:1097100002D0FDF765FD65655C20002546433419E0
:10972000E80020184068002801D0FDF759FD6D1CA5
:10973000EDB20A2DF4D370BDC8D9FF1F70B50A88E9
:109740000C460546072A07D0052A05D0042A03D06F
:10975000062A01D0022070BD01210DF00FFE002865
:1097600004D0214628460DF089F870BD142070BD44
:1097700010B5001D80B2FDF739FD002803D003218C
:10978000C943FDF739FD10BD0A4670B501463820C2
:10979000154B4143C8180579124C002D02D1595878
:1097A000002904D02821095C012902D018E00D24E9
:1097B00016E003240D4E0E4B002128254D43ED18D5
:1097C0006D8CB54209D0954207D12C3005F03CFD97
:1097D000002402200FF072FE02E0491C0329ECD3A2
:1097E000204670BD2124000078CCFF1FFFFF000041
:1097F00064D3FF1FF7B50746274E032527488C463D
:1098000000242146282251430A18528C244B9A42A4
:1098100014D0624515D128225443025BBA4201D0CC
:10982000042636E008181022801C0299FDF7EAFC95
:10983000002801D006262CE000262AE0032D00D1C6
:109840002546641C032CDCD3032D22D02C46282271
:1098500054431248614626187184B01C10220299A4
:10986000FDF734FC0D4829460753782047430D483F
:109870003818703005F0E8FC324624321021029886
:1098800010F02EFD00202036B071064610200FF09B
:1098900015FE3046FEBD00002024000064D3FF1FEB
:1098A000FFFF000084D1FF1FF7B52F4A0E462D4C55
:1098B000518984462546052901D32C48FEBD002048
:1098C0002B4A08E0142343439B181B8AB34201D15F
:1098D000002504E0401C0B468842F3D318461421AF
:1098E000484323491022471861463846FDF7EEFBEE
:1098F0003E820298B874A54203D11B484189491C95
:1099000041811C480078022826D11748A646818844
:109910008689C58843898C468189A94201D16146DF
:1099200002E0491C89B281818181B14201D10D4897
:10993000FEBD00220BE0142714467C430C4FE419B3
:10994000248A8C4202D100218E46E5E7521C9A42BD
:10995000F1D304498E45DFD108200FF0AFFD002080
:10996000FEBD0000FFFF0000A279FF1F25240000BC
:10997000DCD3FF1FCC7AFF1F7FB50C463821184A75
:1099800041438D182821495D144E012923D12178A6
:1099900001290CD061886A4691806B46012201A999
:1099A00010F000FB00280DD0052004B070BD6B4600
:1099B00001AA0121201D10F059FB0028F4D16846AE
:1099C00080886080284600263030009905F03CFCF5
:1099D00002200FF073FD3046E7E70000212400006D
:1099E00078CCFF1FF8B5944606460B4603240520A5
:1099F0002E4A2F4D002178274F43EF5B974201D12C
:109A0000032C11D0B74210D10C462A498B4215D1F4
:109A100078204443601910226146801CFDF7F2FB58
:109A2000002800D00620F8BD0C46491C0329E2D3CB
:109A30002049491D8B4201D10420F8BD032CFCD0E4
:109A40001C4883421BD1A0B20023624631460FF06E
:109A500077FBA0B200210FF089FB78204443641902
:109A600020467030032105F0DBFB204674300121D5
:109A700005F0D6FB10490889401C088113E0A0B20C
:109A80007821484340196030407B002801D00B20EA
:109A9000F8BDA0B20123624631460FF051FBA0B2DF
:109AA00001210FF063FB0020F8BD0000FFFF000064
:109AB00084D1FF1F40800000A279FF1F70B53821BC
:109AC000484311490F4D44182820005D012813D147
:109AD000002230342046212105F060FB0546401C61
:109AE00005D0012128460FF07FFD6A1CF2E72046D1
:109AF000212105F095FB002502200FF0DFFC284610
:109B000070BD00002124000078CCFF1FF8B50C4682
:109B10000021C9430091382148431649144E451885
:109B20002820405D012820D12078012808D06A46ED
:109B30000121A01C10F018FA002808D00020F8BD60
:109B40006B46A21C0121201D10F0DEFAF4E7012172
:109B500000980FF049FD060007D1284630300099E3
:109B600005F066FB02200FF0A9FC3046F8BD0000AE
:109B70002124000078CCFF1F70B5104B0C261A89E9
:109B8000012A19D9782148430D490E4C0D5AA54296
:109B900012D0521E0C5200261A81451832467035DA
:109BA0002846032105F0FAFA0446401C04D020465A
:109BB0000FF04EFD621CF3E7304670BDA279FF1F27
:109BC00084D1FF1FFFFF000078235843034B00227E
:109BD000C018406F088010467047000084D1FF1FF6
:109BE00070B504460848094E094B002278255543B4
:109BF0005D5BB54204D0A54202D10A80002070BD51
:109C0000521C032AF2D370BD21240000FFFF000084
:109C100084D1FF1F70B5114C002911D0002A0FD03C
:109C2000282358430E4B0F4DC018438CAB4205D030
:109C3000831C20300B60007910700024204670BD1A
:109C4000064909A00F390C46FDF728FA14A0FDF7C4
:109C500025FA14480020C046F0E700002224000046
:109C600064D3FF1FFFFF00005B434D5D204E554C4A
:109C70004C20706172616D6574657220696E206739
:109C80006574204170704B65792E20526574757231
:109C90006E696E67203078253034580A0000000065
:109CA0000D0A0000C877FF1FFFB59446024613480F
:109CB000134F144D81B000242346282673435E19A8
:109CC000768CBE4215D08E4213D1EB5A934210D1FE
:109CD00028206043411910226046891CFDF792FA42
:109CE000002802D0062005B0F0BD049804800020B2
:109CF000F9E7641C032CDFD3F5E700002124000002
:109D0000FFFF000064D3FF1FF0B596467822154B85
:109D100042438C469A5A144F11490024BA421BD030
:109D2000002328221E46114D56437219528CBA4206
:109D30000CD0AD5B854209D165462D88A54208D976
:109D4000660015467246641C9553A4B25B1C032B37
:109D5000E7D3002C00D00021604604800846F0BD07
:109D60002124000084D1FF1FFFFF000064D3FF1FE8
:109D7000002804D003490978017000207047024888
:109D800070470000A279FF1F13240000052807D2A6
:109D9000002905D0074A5289904204D306487047EB
:109DA0000548401E704714225043044A801808603A
:109DB00000207047A279FF1F12240000DCD3FF1F90
:109DC000024A0146527800200A707047A279FF1FAC
:109DD00001228A4005490346497800200A4201D001
:109DE000012100E00021197070470000A279FF1FD7
:109DF000024A0146927800200A707047A279FF1F3C
:109E000010B500280CD0074A14791368E407E40F52
:109E10001B1B0360002901D010790870002010BDC1
:109E2000014810BDE4D0FF1F1324000000290BD00F
:109E3000064AC0071268C00FD307DB0F834200D069
:109E4000521E00200A60704701487047E4D0FF1F8F
:109E50001324000030B578235843074B074D1C5A94
:109E6000044AAC4204D0C0186030407B0870002225
:109E7000104630BD2124000084D1FF1FFFFF0000E9
:109E8000F7B50F46382148431349124E451828208C
:109E9000405D0024012819D100222C3528460321D9
:109EA00005F07CF9411C0ED03988A1420BD928213C
:109EB0000A4A414389184A8C63000299641CCA52B9
:109EC000A4B2421CEAE7002C00D000263C803046B9
:109ED000FEBD00002124000078CCFF1F64D3FF1FCB
:109EE00070B50C46014638225143154A13488E1866
:109EF00035462035297A012907D12879012805D04E
:109F00001C212046FDF784F9002070BDA21C002111
:109F1000B0690FF029FDB08B28214843094940184A
:109F2000408CA082B07FA075F07FE0752878207605
:109F3000A8786076E878A076E6E7000021240000A3
:109F400078CCFF1F64D3FF1FF7B53821484314496D
:109F5000124F46182820805D002501281AD10022C2
:109F600030363046212105F019F90446401C0ED048
:109F700001980088A8420AD9029869000A180121AC
:109F800020460FF0F1FC6D1CADB2621CE9E7002D1C
:109F900000D00027019805803846FEBD212400002E
:109FA00078CCFF1FF0B504460C4800220C4D134638
:109FB00078265E43AE5B0B4FBE4206D027889742A1
:109FC00006D95700521CCE5392B25B1C032BEFD321
:109FD000002A00D000202280F0BD000021240000D3
:109FE00084D1FF1FFFFF000038B50C46002222700D
:109FF000782250430C4A0D4D135A0A49AB420ED0F9
:10A0000080186030007B207001216846FFF7E0FE79
:10A0100068460078012801D00220207000210846FF
:10A0200038BD00002124000084D1FF1FFFFF000085
:10A03000002804D0034909880180002070470248A5
:10A0400070470000B679FF1F1324000010B50B46BF
:10A05000042801D3084810BD002B0AD078214843BA
:10A0600006491022411818464431FDF72FF8002008
:10A0700010BD01480F3810BD2224000084D1FF1FFD
:10A0800010B50B46042801D3084810BD002B0AD098
:10A090007821484306491022411818463231FDF70D
:10A0A00015F8002010BD01480F3810BD2224000013
:10A0B00084D1FF1F10B50B46042801D30B4810BDF7
:10A0C000002B0ED07821484309490A4C0A5AA24273
:10A0D0000AD04118102218465C31FCF7F7FF002027
:10A0E00010BD02480F3810BD042010BD222400000E
:10A0F00084D1FF1FFFFF000010B50B46042801D3D9
:10A100000B4810BD002B0ED07821484309490A4C5A
:10A110000A5AA2420AD04118082218465431FCF7C4
:10A12000D5FF002010BD02480F3810BD042010BD1F
:10A130002224000084D1FF1FFFFF000010B5042877
:10A1400006D278225043094A094C135AA34201D13E
:10A15000084810BD002905D080184030807808706C
:10A16000002010BD03480F3810BD000084D1FF1F30
:10A17000FFFF00002224000010B50B46042801D385
:10A18000084810BD002B0AD0782148430649102208
:10A19000411818462231FCF799FF002010BD0148F4
:10A1A0000F3810BD2224000084D1FF1F10B50246D5
:10A1B000054B54001A5D0A70E3185B780020DB0041
:10A1C0001A430A7010BD0000B279FF1FF8B5184C91
:10A1D00015460B00064615D0002D13D018881549DA
:10A1E000884221D100202821134A414389180A4678
:10A1F00020321779B74208D100241880102228464F
:10A20000891C0DE00A4C0E3C10E09779002F0AD013
:10A210005279B24207D11880002410222846123108
:10A22000FCF754FF02E0401C0328DCD32046F8BDB5
:10A2300021240000FFFF000064D3FF1FFFB593B08F
:10A240000F461699002008701398374E002835D015
:10A25000002F33D01598002830D03D8833488542F0
:10A2600027D10025782032496843441821465431CB
:10A2700008221398FCF7C6FF002822D02046603041
:10A280001190407B002813D02AA000682AA11090CA
:10A2900003C90991089012340EAA102120460FF02C
:10A2A000EDFF08220EA91398FCF7ACFF002818D088
:10A2B0006D1C032DD6D3304617B0F0BD1A4E0E3E9E
:10A2C000F9E73D8021460026443110221598FCF71D
:10A2D000FDFE6034607B0228EDD3169901200870E2
:10A2E000E9E71198407B022802D2169901200870F4
:10A2F0000020049005900690079004AA042110A85D
:10A3000010F01CF80AA906200191009008AB04AADD
:10A31000102120460FF028FF3D80002610220AA9B8
:10A320001598FCF7D3FEC6E721240000FFFF0000CC
:10A3300084D1FF1F6E6B626B69643132380100009B
:10A34000FFB50E003A4F8BB0014622D00D98002881
:10A350001FD00E9800281CD03488364A36489442C4
:10A3600045D100247822624315182A46403293785A
:10A370008B4214D13148807802280DD000273480D8
:10A380002946223110220D98FCF7A0FE29463231D1
:10A3900044E0274F0E3F47E0254F7F1DEFE76D2339
:10A3A0005B5D002B22D0D2788A421FD100200A9018
:10A3B000284601AD123001230AAA102100950FF0A2
:10A3C000EDFE1E48807802280DD000273480102230
:10A3D000691C0E98FCF77AFE05A9102201310D9830
:10A3E000FCF774FE20E0124F7F1DEFE7641C032C86
:10A3F000B8D317E0782262431218403292788A422A
:10A400000FD1348078214C43241821460027223173
:10A4100010220D98FCF75AFE2146323110220E9878
:10A42000DEE7641C042CE5D338460FB0F0BD000015
:10A4300021240000FFFF000084D1FF1FA279FF1F2D
:10A44000FEB50024354D012830D1354A0020382191
:10A45000414389188C61CC610C624C62CC62401C17
:10A460000C6380B24C631428F1D3FF212C81E131BD
:10A470002C48FCF7D3FE0EF037FE78212A48FCF773
:10A48000C7FE264F08211437BE783846FCF7C0FEB9
:10A490002448BE7014219438FCF7BAFE214880216C
:10A4A0008038FCF7B5FE381F048044806C81A88892
:10A4B000A8811D4864217830FCF7AAFE1948A0380D
:10A4C000046004718460002001F0C4FB01F0AAFB69
:10A4D00001F0B4FB01F030FD0121022000F08EFDFF
:10A4E0000121032000F08AFD0121002000F086FDFB
:10A4F0000021084600F082FD684601F033FA019918
:10A500000098884204D0C81DFF30FA3001900090B6
:10A51000684601F007FB2046EC81FEBDA279FF1FD3
:10A5200078CCFF1F84D1FF1F64D3FF1F002802D007
:10A53000811E7D2903D8034A0021107000E00249E2
:10A5400008467047A279FF1FFFFF000070B5012287
:10A550008A400F4905464878134600240340012DE0
:10A560000FD0002B00D0012390434870002B06D061
:10A57000D0B201F04BFF012040020EF09FFF2046B9
:10A5800070BD002B02D000231043EEE70123FBE750
:10A59000A279FF1F70B50C460A460546014608A081
:10A5A000FCF77CFD11A0FCF779FD11480020C046A6
:10A5B00010480560047104200EF080FF002070BD7B
:10A5C0005B434D5D2053657420495620496E646598
:10A5D00078206173203078253038582E20466C6101
:10A5E000673A3078253032580A0000000D0A000022
:10A5F000C877FF1FE4D0FF1F70B50D4603467821D2
:10A60000484302460C490D488E5A0A4C86420FD0E8
:10A61000511860314A7B00242978002A04D018465A
:10A620000EF0A4FD024602E0032900D004462A7081
:10A63000204670BD2124000084D1FF1FFFFF0000D1
:10A64000FEB50C4636490291E27E3649012A01D018
:10A65000A58A16E0344B002528266E43F618768C22
:10A660008E4202D0A78AB74202D06D1C032DF3D3CD
:10A67000032D02D0012A04D101E00320FEBD032DE9
:10A680004CD03821294A41438F183E462036317A32
:10A69000012943D1217801AB012907D00022A11C57
:10A6A0000FF080FC00280BD00520FEBD6A4600217B
:10A6B000201D0FF0DBFC0028F6D168460088608082
:10A6C0003079012809D1B8690199884202D161889D
:10A6D000002902D100210EF087FF0198B86160883F
:10A6E00069460880002803D11C212046FCF790FD14
:10A6F000BD83A07DB877E07DF877207E3070607EE6
:10A70000B070A07EF07068460088002800D001205C
:10A7100030710020029002200EF0D0FE0298FEBDA3
:10A7200021240000FFFF000064D3FF1F78CCFF1F2F
:10A730000F2901D90448704738225043034A801832
:10A7400020304170024870471124000078CCFF1F70
:10A75000FFFF0000F8B50D46044678210D4E4C432E
:10A76000315B0D4A0A48914211D001216846FFF73A
:10A770002FFB68460078012801D002202870A0191C
:10A7800029786030017304200EF098FE0020F8BD97
:10A790002124000084D1FF1FFFFF0000002805D006
:10A7A000010403D4034A0021108000E0012108467F
:10A7B00070470000B679FF1F7CB504460EF094FC8C
:10A7C0000EF06CFC80212048FCF722FD1E4814216D
:10A7D0001438FCF71DFD1D480021018041800DF05B
:10A7E00043FC208BFFF7DAFFA07C4008C00705D0B0
:10A7F00021250021284601F09DF900E00025294689
:10A800006069FFF7C7FE208A22461149FFF7EAF880
:10A810000546A07CC00711D00D49208A2246491D5B
:10A82000FFF7E0F8208A01A9FFF7DAF905460221CF
:10A830006846017001468088FFF7DEFE05480EF08D
:10A840003DFE28467CBD000004D1FF1FB279FF1FEA
:10A8500040800000FF0F000010B54B074200064883
:10A860005B0F8354C9081018417001200024400276
:10A870000EF024FE204610BDB279FF1FFFB50B4637
:10A8800003252A4E2A4981B0174600242822624314
:10A890005218528CB2420CD09A420AD128226243FA
:10A8A0008A5A824201D011253CE00025032C06D1B2
:10A8B00038E0641C032CE9D334D0002D32D1782346
:10A8C00058431C4B0122D203C618974208D1204698
:10A8D0000EF0BEFE30467030214604F0A9FC1BE0AD
:10A8E00028204443641827462037B879002803D12C
:10A8F0006036707B012801D00B250DE02046123018
:10A9000010220499FCF7E2FB22462532102104981C
:10A910000FF0E6FC0120B87110200EF0CFFD0220F0
:10A920000EF0CCFD284605B0F0BD0000FFFF000092
:10A9300064D3FF1F84D1FF1F0021017008467047B8
:10A94000F1B584B00498002858D08088002855D0EC
:10A9500004980068002851D0142000905020FDF782
:10A96000D3FC06004DD004980B250468002020700D
:10A970004B48017861700188090AA1708178E17003
:10A980004188090A2171017961718188090AA171DF
:10A990008179E171C188090A2172017A61720089A5
:10A9A000000AA07200273846062148433D4902901C
:10A9B000401801900079002867D0142000906A4662
:10A9C000314638460EF044FC009800285DD03548EA
:10A9D0000299415C61550299405A6119000A487018
:10A9E0000199AD1CA8B2897821540199401C80B20C
:10A9F000C9782154401C85B2002016E02A4805B0D1
:10AA0000F0BD29480E38FAE78100715838225143C9
:10AA1000264A8B181B79002B06D1515A6155090A19
:10AA20006219AD1C5170ADB2401C00998842EBD345
:10AA3000002027E08100725838235A431B4B94466C
:10AA4000D2181279012A1CD162469A5C625572585A
:10AA500038235A43154B9A5A6319120A5A709C4666
:10AA6000725838235A43114B9A586346120C9A7005
:10AA70007158382251430D4A5158090E2D1DD97075
:10AA8000ADB2401C00998842D4D37F1C032F8AD3D7
:10AA90003046FDF793FC049885800020AFE7000066
:10AAA000D8D0FF1F64CCFF1F1324000078CCFF1FF9
:10AAB000064B1A889B78904206D3D318834203D959
:10AAC000801A08700020704701207047B679FF1F78
:10AAD000FFB56A460646177A0020104A9C46014692
:10AAE00038230D465D43AC1828231B5D012B0CD188
:10AAF000237AB34209D12379BB4206D15359019C31
:10AB0000A34202D16246118002E0491C1429E7D316
:10AB1000142900D1022004B0F0BD000078CCFF1F42
:10AB200010B5008838225043064A80182422125C4F
:10AB3000012A01D0044810BD0A46806900210EF0A8
:10AB400013FF10BD78CCFF1F2724000030B50C4A3E
:10AB5000904212D00B49551E931ED41E4978A8422C
:10AB600002D1C80709D109E0984201D1480702E0A3
:10AB7000A04203D18807002800DA0022104630BD29
:10AB8000FFFF0000A279FF1F30B50D4B002814D045
:10AB9000010412D40B4A00218D00545B002C08D014
:10ABA000AD18AD78A04204D36419844201D90023C2
:10ABB00004E0491C0229EFD300E00123184630BD10
:10ABC00021240000B679FF1F01B581B06A4601213A
:10ABD00001A80FF0C9F9002804D06A46012101A894
:10ABE0000FF07CFA0CBD0000F8B5244D0122697805
:10ABF000002010F0CBFF224E040001D53046F8BDF6
:10AC000002236A466978002010F0E6FF6846018852
:10AC10001B48814204D16978002010F093FF2BE09B
:10AC20000026012C26D01748112100680906471874
:10AC30000024142021464143104808300D180838DC
:10AC4000417800206A6810F0FBFF6868AA68C119A3
:10AC5000304607F091FB641C06460C2CE9D30748EC
:10AC60004178002010F06EFF68460088B04203D0A3
:10AC70000348F8BD0448D7E70020F8BDC079FF1F9E
:10AC8000FFFF0000407CFF1F3C7CFF1F0149087054
:10AC900070470000C079FF1FFFB583B00F461C4608
:10ACA000164602A90C9D0398FFF73AFF002808D129
:10ACB000684601950094028933463946039800F0AE
:10ACC00003F807B0F0BD0000F0B59446134A1C46E7
:10ACD0001388028838204243114885B01218107A30
:10ACE0000A9E1818938B927F0B9D80B2012A03D085
:10ACF000032B03D3002206E0032204E01A46282790
:10AD00007A43084FBA5A084F3F78009701AF52C7AD
:10AD10000495614600F088F805B0F0BDB679FF1FD4
:10AD200078CCFF1F64D3FF1FA279FF1F38B51446EC
:10AD30000D4668460EF0B4F800280BD169462B8802
:10AD400009780622044D4A43AB52217003498A78A0
:10AD5000521C8A7038BD000064CCFF1FB679FF1FFB
:10AD6000F8B50C461546694620460EF0E9FB010091
:10AD700005D01548814200D100210846F8BD68463B
:10AD800002883820114E50438019E368C360A369DC
:10AD90004361A38A0382237A037248CC48C0083CEB
:10ADA00023790B48002B237A07D0062463431B1812
:10ADB000D878401CD8702A80DFE7062463431B182C
:10ADC0009878401C9870F6E72324000078CCFF1F89
:10ADD00064CCFF1FFFB587B0119C149E1546FF2C55
:10ADE00001D11048047805A90798FFF799FE0027BC
:10ADF00000280AD16846828AAA4206D001970096A6
:10AE0000139B12990798FFF75FFF1298139901AAF5
:10AE10000094C3C22946109B0A9A089800F004F8CF
:10AE20000BB0F0BDA279FF1FFFB5E7B01F46739EC0
:10AE3000719C679800F08EFD012802D021486BB00C
:10AE4000F0BD2148210EFAD17F2CF8D021020B0E43
:10AE50002204120EE1B204AD002B0AD0E3431B0220
:10AE60009B0FECD1240C6B461C7499745A7403210B
:10AE70000CE023041B0E06D02304E0D56B46597466
:10AE80001A74022102E06A46117401218C19FF2311
:10AE9000221D81339A42D2D8681832467299FCF743
:10AEA00015F960A8649584827099749864AA0292D6
:10AEB00003900097019167A80BC8002201F03CF9AC
:10AEC000BDE700002424000012240000F8B50B4662
:10AED000382148431649154F45182E462036307AFA
:10AEE000012821D1134A144800242821614309185C
:10AEF000498C0327914214D0994212D128462C3014
:10AF0000214604F095F93079012805D1A88BA1B22A
:10AF1000884201D100203071002702200EF0CEFAC5
:10AF200002E0641C032CE0D33846F8BD2124000065
:10AF300078CCFF1FFFFF000064D3FF1FF7B52B4A3B
:10AF400082B0074600294ED029488860FF206B4612
:10AF50001870002627483546012F02D0032F42D112
:10AF600005E0406800283ED1224C18701AE0012309
:10AF7000A0245C4324186468002C04D05B1CDBB262
:10AF8000022BF5D32FE0A0245C43241868460370FD
:10AF90000868006803882046803043830B681B687C
:10AFA0009B780377002C1ED014222046FCF73CF936
:10AFB0002068002801D085880668BC000E482B4612
:10AFC0000759324601216846B8470B482B462018DE
:10AFD0004468324601216846A04769460A780499C8
:10AFE0000A7005B0F0BD1046FBE70000FFFF00004F
:10AFF00061070211E8C1FF1F28C3FF1F1FB50B4ADD
:10B000005468002C0FD000226B4600011A700843D0
:10B01000587001921A81102303926A462B2104482A
:10B02000A04704B010BD0348FBE70000E8C1FF1FC4
:10B030004C79FF1F14200000FFB51B4F8FB07868BC
:10B040001D46164600282DD000206C462070102288
:10B05000601CFCF73BF86A469674300A5074132261
:10B06000002D0FD0286800280CD0A988002909D00D
:10B070000AAA0FF063F904A804220AA90330FCF716
:10B0800025F817221021684601760F99417607941A
:10B090000284099510237C6806AA2B210348A04747
:10B0A00013B0F0BD0248FBE7E8C1FF1F4C79FF1F5A
:10B0B0001420000070B50D46154988B04E6814463E
:10B0C000002E22D0102269460A72000148720395B0
:10B0D0000C8200201346059002AA2B210D48B04790
:10B0E00001206946087068460695848306AA4321B4
:10B0F00000F08EF868460078401CC1B268460170C6
:10B100000229F0D3002008B070BD0348FBE700001F
:10B11000E8C1FF1F4C79FF1F142000001FB50B4A28
:10B120005468002C0FD00A016946521C0A704870FE
:10B13000002001900881102303906A462B210448C7
:10B14000A04704B010BD0348FBE70000E8C1FF1FA3
:10B150004C79FF1F14200000052806D2002904D0D6
:10B16000034A8000115000207047024870470000D9
:10B1700028C3FF1F11200000002901D0012801D998
:10B1800003487047034A80001150002070470000B8
:10B19000112000003CC3FF1FF8B50D00044608D085
:10B1A00028781749022828D2032C04D0012C05D076
:10B1B00009E01448F8BD002802D004E0002802D0BD
:10B1C0000F48401CF8BDA02250430F4A8018426827
:10B1D000002A12D0A021FCF721F8A4000B4F002375
:10B1E0003E591A4619462846B047E01900234468DC
:10B1F0001A4619462846A047F8BD0846F8BD000083
:10B2000011200000FFFF0000E8C1FF1F28C3FF1F3F
:10B21000F7B58CB00C98002842D0002A40D01068B6
:10B2200003900C9896880078A02250433A4A8418DC
:10B2300065683A48002D34D08A098906890E019242
:10B24000012930D0022930D0032901D0042928D186
:10B2500000200B90204640300A9016300790401E88
:10B26000254680350590FCF7C9FCC01E82B26A8372
:10B27000771C0B98BA4227D200281CD00199802055
:10B2800008430A994875288B8018401E288381B28C
:10B290000398521E09180798FBF718FF6B8B26E0DE
:10B2A0001F480FB0F0BD2A2100E029213346039A40
:10B2B0000C98A847F5E701200B900199402008431E
:10B2C0000A9948750020E1E700281DD00199C020A7
:10B2D00008430A994875288B8018401E2883298BBB
:10B2E0000398324609180798FBF7F0FEBBB2F01A34
:10B2F000401C86B26768059A01990C98B8470028E7
:10B30000CFD1002EAFD1CCE701200B900A9A019843
:10B31000002150752983E2E7E8C1FF1FFFFF00000D
:10B3200011200000F0B5134F064678688BB0144624
:10B33000002803D0022E04D0012203E00E480BB0F7
:10B34000F0BD00226D462A70681C2246FBF7BEFE47
:10B350001021684601753101491C4175641C069530
:10B3600084830020089010237C6805AA2B210348C1
:10B37000A047E4E7E8C1FF1F142000004C79FF1F3D
:10B3800010B588B004460A4AFF20107000206B46B2
:10B39000009018711C72074A0392074A06920490A3
:10B3A0002F229A820A466946FFF7DAFC08B010BDE0
:10B3B000E87AFF1F9D1E021108E6021130B51546FE
:10B3C00087B002460B480C46009000206946087181
:10B3D0000A720949039109490691049001226946BC
:10B3E0008A822246FFF7BCFC05494D6022880A800C
:10B3F00007B030BD01100000C54C021104E7021176
:10B40000147BFF1FFFB5344F344D387889B00E469A
:10B4100000280FD1B0212846FBF700FF0020FF21B4
:10B420005822424352194032401C51710228F7D32E
:10B43000012038700024582060434019C06C002857
:10B4400002D0641C022CF6D3022C1FD3244C5C21A6
:10B4500024A0FBF7EFFE002805D05C2121A0FBF71C
:10B46000E9FE401C00E01FA02A49324D034600912E
:10B4700029A229460120FCF783FF23462EA2294654
:10B480000120FCF77DFF20460DB0F0BD02200190A9
:10B49000002069460872099A0A73364904913649B0
:10B4A0000591364907910B2269460A83324601A964
:10B4B000FFF756FC3188798058214C4361190A46C0
:10B4C0003388403253820B9BD3800C9A8A64129A41
:10B4D000CA64139A4A65D7E7F07AFF1F34D6FF1F74
:10B4E000138000002E2E2F6D6573682F70726976A1
:10B4F0006174652F6D6F64656C732F6865616C7422
:10B50000682F6865616C74685F7365727665722E0A
:10B5100063000000220200000A5B2A2A20455252E2
:10B52000202A2A5D3A5B25735D3A5B25645D3A20EB
:10B5300000000000000800405B4845414C54485D55
:10B54000204E6F2066726565204865616C746820C6
:10B5500053657276657220656E746974792E205217
:10B56000657475726E696E673A203078253034588C
:10B570000A000000A55B0211955F0211C4E60211EA
:10B58000F8B5274D297800292DD100282CD0014667
:10B590000822A81CFBF79AFDFBF752FE0EF002F8FA
:10B5A0000EF052FC0EF040FC0FF0F0F80DF0F8FE3B
:10B5B0000EF07AF80EF0AEFC0EF004F8194EB06AF8
:10B5C0000402240A06F096FFB06A0002000A011B7A
:10B5D00015A0FBF763FD22A0FBF760FD21480020CA
:10B5E000C04601202870F8BD5C211FA0FBF722FE99
:10B5F000002805D05C211CA0FBF71CFE401C00E0CD
:10B6000019A05121294C0346009121A22146012075
:10B61000FCF7B6FE26A221460120FCF7B1FEF8BDDC
:10B620004079FF1F00F00040636F6E73756D6520F9
:10B6300074696D65206F662066756E6374696F6EE0
:10B64000206372795F656364685F696E69743A202C
:10B65000256420525443207469636B0D0A00000076
:10B660000D0A0000C877FF1F2E2E2F6D6573682FFF
:10B67000707269766174652F636F72652F636F6D89
:10B680006D6F6E2F4D535F636F6D6D6F6E2E630028
:10B690000A5B2A2A20455252202A2A5D3A5B2573EA
:10B6A0005D3A5B25645D3A20000000000100004027
:10B6B00044796E616D696320436F6E666967757268
:10B6C0006174696F6E2063616E206E6F74206265B5
:10B6D000204E554C4C2E2052657475726E696E6703
:10B6E0000A00000030B5154687B002460B480C46EC
:10B6F00000900020694608710A72094903910949BE
:10B7000006910490062269468A822246FFF728FBAA
:10B7100005494D6022880A8007B030BD091300003A
:10B72000A570021148E702113C7BFF1F70B5064D62
:10B7300000243020604340190CF0F0FD641C102CF4
:10B74000F7D3002070BD0000A4C5FF1F01490860A9
:10B75000002070475079FF1FFFB591B007469C4607
:10B760001BA82CC80026079608961F9C6E46378497
:10B7700071841A99F177E904C90C09950E91414831
:10B780006146002953D0012940D13246B1770B2CB4
:10B790003ED96105090E0C911E990026097835469F
:10B7A0000F9130E00F9980200143684601730E9895
:10B7B000C004410E684641730E988100E8080143B9
:10B7C000684681730C98690101436846C173A01BE8
:10B7D000C7B2082F00D908271E983A46811904A835
:10B7E000FBF774FCF019C6B203A80A9068463F1D27
:10B7F000878500230AAA07A8139900F079F9002881
:10B8000004D16D1CEDB20C998D42CBD915B0F0BDB1
:10B810001E980A909485002400230AAA07A8139969
:10B8200000F066F9641C2406240EF5D0EEE7002033
:10B83000B0772098012801D00F2C08D90E981E99B6
:10B840006D4613C507A813990CF0E8FEDEE79001DA
:10B850009906890E0843307303AD2246681C1E9971
:10B86000FBF734FC6946641C0A958C850024002390
:10B870000AAA07A8139900F03BF9641C2406240EB9
:10B88000F5D0C3E7FFFF000010B50D4C2168016043
:10B890002168606881420DD3FF30FF3002300F21F4
:10B8A00009056060884201D300F0E6F8FF2001300E
:10B8B0000DF004FE2068401C2060002010BD000038
:10B8C0007079FF1F30B58FB00546012168460174BD
:10B8D00004AC02A90AA8FEF793FA6846007AC107E9
:10B8E000C90F6846017203A92846FEF7B3FA6846F5
:10B8F000007B02282BD000216A46107A40000843C2
:10B900005074A11C2846FEF7F7FB6A46117A0A9884
:10B9100041180A915177080A1077080CD076080E62
:10B9200090760BA92846FEF791FB07A80821023064
:10B93000019100900BAB0D22611C002006F078FDF8
:10B94000162204A90120FFF7B5FB0FB030BD01217D
:10B95000D2E70000002803D0800B022800D201208B
:10B9600070470000024A06CA06C000207047000067
:10B970007079FF1F10B502200CF09EF900280DD041
:10B9800009490120087109A0FBF788FB0DA0FBF70E
:10B9900085FB0D480020C0460C4810BD0C48002116
:10B9A00001604160084610BD7C79FF1F5341522061
:10B9B0006361636865206E6F7420656D7074790AC9
:10B9C000000000000D0A0000C877FF1FFFFF000005
:10B9D0007079FF1FF8B5264C0546206800260F46F3
:10B9E000A84224D801462A31A94220D321794A0904
:10B9F000012A01D1002F01D0A84218D04806800F9B
:10BA000003D000F00FF90020A0602079194C410903
:10BA1000012901D1002F0BD0012F0BD00026FFF7F9
:10BA2000A9FF00281ED0E56066710020A071F8BD56
:10BA3000402706E0C00900D001262127002E08D0AB
:10BA4000F5D0FFF797FF002803D0E560677101206C
:10BA5000ECE739462846FEF79DFD0021384600F008
:10BA600069F8F8BD31462846FEF794FDF8BD0000A0
:10BA7000E4D0FF1F7C79FF1F3EB501A96846FEF7A1
:10BA8000BFF9684600796121084220D100061ED422
:10BA90000FA0FBF703FB11A0FBF700FB10480020F1
:10BAA000C046042102A8FEF793F90098A124401C87
:10BAB00021460090FEF76EFD0021204600F03AF886
:10BAC0006846007A012802D0002000F095F83EBDBB
:10BAD0004956207570646174650A00000D0A000003
:10BAE000C877FF1F01490860002070476C79FF1F6D
:10BAF00070B515460E4607C886B01C4602AB07C394
:10BB0000002101A8FEF77CF901986946C007C00F23
:10BB1000087200232A46314602A800940FF070F8FC
:10BB200006B070BD024905C805C10020704700007D
:10BB30007079FF1F38B502461A48002901D0816884
:10BB400009E0110601D5184904E05106890F0129C1
:10BB50000FD01649816016A0FBF7A0FA1AA0FBF7D8
:10BB60009DFA1A480020C04619484078FF2802D0A4
:10BB700016E01849EEE70020034600901448E12142
:10BB8000154AC901401CFCF729FC040008D013A089
:10BB9000FBF784FA0CA0FBF781FA0C480020C046A2
:10BBA000204638BDE4D0FF1FFF0B4509FF85A204E6
:10BBB00069765F6578706972655F74696D653A3042
:10BBC00078253038580A00000D0A0000C877FF1F9A
:10BBD0007C79FF1FFF91E70DC19A02115B434D5D18
:10BBE0002053746172742054696D657220466169D6
:10BBF0006C65640A0000000001B5074882B08078D7
:10BC0000FF2808D102200090034802AB034A0449F0
:10BC1000801CFCF7E3FB0EBD7C79FF1F49A10211DC
:10BC20001027008010B504484078FF2803D0024850
:10BC3000401CFCF711FC10BD7C79FF1F10B50448B7
:10BC4000C078FF2803D00248C01CFCF705FC10BDDB
:10BC50007C79FF1F10B504488078FF2803D0024884
:10BC6000801CFCF7F9FB10BD7C79FF1FFFB5434832
:10BC700081B00F46002B11D0002F0FD00199012960
:10BC800001D002290AD13E4800250068B22807D019
:10BC9000B12805D0B02803D03848401E05B0F0BD0B
:10BCA000184610F08FF8040020D036482646FF369C
:10BCB00000786136307402281BD0204610223249A9
:10BCC000B030FBF703FA2246FF3200208132906049
:10BCD0002A490198091D2D4B012811D0022828D08E
:10BCE0002B4D204610F032FA2846D7E72348401C57
:10BCF000D4E78ECF2046B0308EC003983076E2E78E
:10BD00001878FF2837D0022093607074307C0228A6
:10BD1000EAD12046FF300421753006F0F5FB2046BD
:10BD200010F062FD0500DCD1B320FF340134E06681
:10BD3000DAE701201F5CFF2F02D01B18936003E09D
:10BD4000401CC0B20228F5D3022814D0042070741D
:10BD50000120FF21B0746D310851307C0228C3D11D
:10BD600000200346024600900121204610F002FA0E
:10BD70000500B6D1B8E70D46B3E700001230000069
:10BD8000C87AFF1FCC7AFF1F24D6FF1FCD7AFF1F72
:10BD9000FFFF000010B5002908D0054A10600548D3
:10BDA00001600548FCF758FB002010BD034810BD9A
:10BDB000C07AFF1FC47AFF1FB87AFF1F123000003D
:10BDC00038B515460C4600280DD0002C0BD010F0CD
:10BDD000B3F8002809D0C11DF931CA7A022A07D068
:10BDE000032A09D00BE0104838BD0F48801C38BD2D
:10BDF000097B042911D002E0097B03290DD02168B9
:10BE00006A46D1700B0A93700B0C090E53701170B7
:10BE1000A0300099C160002038BD21462A46A030DC
:10BE2000FBF754F9F7E7000012300000FFB50546B4
:10BE300037480E460168374881B000290FD0471CAB
:10BE4000022E08D0012E09D133490968002906D0F5
:10BE50000398002802D0681E032802D3384605B094
:10BE6000F0BD2F482D4C067006F044FB2D4806F01F
:10BE70003DFB30462C4E012804D0022834D03C46ED
:10BE80002046ECE7039910220C462848FBF71EF9E0
:10BE9000012D1DD0022D20D0254D0A9868800498D0
:10BEA000A880228A214600206369FFF7C5F8012097
:10BEB00068700420009068880121C907411803AB0D
:10BEC0001C4A2846FCF78AFA0400D9D1B1201CE0AC
:10BED000228A21460020636903E0228A214601204C
:10BEE0006369FFF7A9F8EFE7E80704D00121002014
:10BEF000FFF714F90446A80704D501210846FFF707
:10BF00000DF90446002CBBD1B2203060B8E7000028
:10BF1000C47AFF1F11300000C07AFF1FFFFF00002E
:10BF2000CC7AFF1FE4D5FF1FC87AFF1F24D6FF1F5E
:10BF3000B87AFF1FA19E021110B50248FCF78CFAD7
:10BF400010BD0000B87AFF1F00280AD008498A688F
:10BF5000002A08D00978012907D0012101700020AA
:10BF60007047044870470021F8E70221F6E7000017
:10BF70009079FF1FFFFF0000014988600020704793
:10BF80009079FF1FF0B507460020264C022685B0A9
:10BF90000546012915D0022920D1A078FF2802D01A
:10BFA000A01CFCF759FA032F2BD0E5706846878058
:10BFB00080880EF0E1FF002810D1E178012925D01A
:10BFC0002CE06078184FFF2807D169468D802846FD
:10BFD00002A9FEF791F8002802D0384605B0F0BD5E
:10BFE000082202A90220FFF79DF90E4801AB0F4A73
:10BFF0000F49401C0096FCF7F1F921790122114309
:10C000000EE00120E07068468580D1E7054801AB6D
:10C01000084A0749801C0096FCF7E0F92179314372
:10C020002171DBE79079FF1FFFFF000015AF0211C0
:10C030002C01008015B0021170B50D4C002520793F
:10C04000C00707D001210220FEF7D8FF2079400861
:10C05000400020712079800707D501210320FEF7D9
:10C06000CDFF2079FD2108402071284670BD0000D9
:10C070009079FF1F30B5154687B002460B480C4635
:10C0800000900020694608710A7209490391094924
:10C0900006910490022269468A822246FEF760FEDB
:10C0A00005494D6022880A8007B030BD05120000A6
:10C0B00071CA021194E702115C7BFF1F07490A88CD
:10C0C00002808A788270CA78C2700A790271CA883E
:10C0D000C28009890181002070470000A4C8FF1FA9
:10C0E0000C490A88002A0FD04B88002B0CD0028004
:10C0F0004A884280CA7942710A89C2804A8902818B
:10C1000089790171002070470022028042804271CB
:10C11000C280F4E7B8C8FF1F012902D0002902D06D
:10C1200003E0034900E00349086000207047000075
:10C130005C79FF1F6079FF1FFFB5EBB0749808288A
:10C1400002D31F486FB0F0BD042603280AD3C01ED7
:10C15000C0B208A9FDF71AFE02250020694608773B
:10C16000044607E007AA08A9FDF754FD0028E9D115
:10C1700001252C4609A8FFF787FB08980AAF01A9FB
:10C18000E1C1099800906BA807C8769B11F04EFB9F
:10C190007698099A80887799001D80B20590049757
:10C1A000039206916846017F7598029100900023E2
:10C1B00001946E9A6C996B98FFF7CEFAC2E7000073
:10C1C00012230000FFB5C9B0529953981D46174677
:10C1D0000A2902D911484DB0F0BD6A46012407AEC4
:10C1E00011770A2908D1027869464A778278CA7796
:10C1F0004088000A8877042447A8FFF745FB002001
:10C20000479906903A46019002AF43C70095012333
:10C2100005944A994998FFF79FFADCE7122300003A
:10C22000F8B50446002600882B4D374600280DD06F
:10C23000701E68812089294628810A31FDF7D0FCCB
:10C2400006000BD0042611F031FC13E01421224823
:10C25000FAF7E4FF2F80AF70EF700BE020882880A2
:10C26000A078A870E078E87020792871A07900079C
:10C27000000FE88028882080A878A070E888E080F7
:10C2800028892081E878E07028792071002E17D164
:10C29000E978002914D0A878002811D00124274675
:10C2A000491E8F40FF2803D0401E84402C6101E0CE
:10C2B0000A48286111F0FAFB384611F0CFFB00E084
:10C2C0002F6107A0FAF7EAFE0FA0FAF7E7FE0F4882
:10C2D0000020C0463046F8BDA4C8FF1FFFFF000085
:10C2E0003C3C204D535F74726E5F7365745F68658C
:10C2F000617274626561745F7075626C69636174A8
:10C30000696F6E0A000000000D0A0000C877FF1F69
:10C31000F0B5044687B000200590208800252E4EF9
:10C32000002813D06088002810D0617900290DD032
:10C33000FFF710FB07462088FFF70CFB009006A8CC
:10C34000FDF776FE0098012816D103E03580758050
:10C35000F57128E0012F0AD0032F0DD16846057032
:10C360006188418069460020FDF706FB08E06946C8
:10C370006088098B884203D0F5710120059012E096
:10C3800020883080608870806079F0717F213181F1
:10C390007581B571B5800125401E854011F092FB75
:10C3A000284611F06FFB3088208070886080B0795B
:10C3B0002071F07960713089E0807089208107A058
:10C3C000FAF76CFE0FA0FAF769FE0F480020C0468E
:10C3D000059807B0F0BD0000B8C8FF1F3C3C204DD9
:10C3E000535F74726E5F7365745F686561727462C7
:10C3F0006561745F737562736372697074696F6E7F
:10C400000A0000000D0A0000C877FF1F10B5164C87
:10C4100088B0E188884302D0144808B010BD02A853
:10C42000FDF706FE7F216846017405A8FDF7C8FCEC
:10C4300006A8FDF7DDFC6846007E022805D06846A8
:10C44000007D4107490F684601756846017D4182BC
:10C450000A2004A9009001916846037C6289218822
:10C460000089FFF7AFFED8E7A4C8FF1FFFFF000059
:10C47000F0B50F460446014687B0164600250FA0CA
:10C48000FAF70CFE1AA0FAF709FE1A480020C04677
:10C490001948009001216846017104721748039001
:10C4A000174806900421684681823A466946284624
:10C4B000FEF756FC13494E6107B0F0BD5B56454E82
:10C4C000444F525F4558414D504C455D2052656781
:10C4D0006973746572656420456C656D656E742062
:10C4E00048616E646C65203078253032580A00004F
:10C4F0000D0A0000C877FF1F0405010051DE02117C
:10C5000090E90211507CFF1FFEB5244C0646244FD3
:10C51000A0680D4604226946C01900F045F8E0689D
:10C52000042201A9C01900F03FF8009F019B3804C4
:10C53000010E1804020EB00026461036002D0CD055
:10C540007F077F0F174D012F18D05907490F012979
:10C550001AD000202870FF20FEBD7D076D0F012D31
:10C5600002D0A168315017E05B075B0F012B02D0AE
:10C57000E16831500BE09142FAD8F2E75B075B0FBC
:10C58000012B06D1914204D2E16831502A70022079
:10C59000FEBDA268325029700120FEBD347CFF1F11
:10C5A000B40F0000C279FF1F10B51446FAF74EFE13
:10C5B000204610BD70B50A4D0446027A416807480E
:10C5C000AB78C018FAF734FD207AA9784018A87023
:10C5D00002216878FAF750FD70BD000056B8FF1FC1
:10C5E0004477FF1F38B50C46050014D0002C12D03C
:10C5F0000321684610F0B0FE694688784021800625
:10C60000800E0843694688702246284610F061FF74
:10C61000050002D006E0022038BD03226946E01C76
:10C62000FAF706FD284638BDF7B58EB00E981546C8
:10C630000E4600282DD0002D2BD0301DC0B2019009
:10C64000FAF726FD040039D006F0C2F90746324653
:10C65000201D0E99FAF700FEF8B20890E070380439
:10C66000000E0B90A0703802000E0A9060703F0E12
:10C67000277006F0A7F90146102202A8FAF7ECFD90
:10C6800006AB214602A8019A10F079FE060003D0FD
:10C6900010E0022011B0F0BD089828700B98687067
:10C6A0000A98A870EF70082206A9281DFAF7D4FD91
:10C6B00006F094F92046FAF7FDFC00E01326304618
:10C6C000E8E7FFB58DB00F98169C0E46002815D0F0
:10C6D000002C13D00D980AF0C3FD050011D061782D
:10C6E000207809024018A178E27809041206891816
:10C6F0004718286AB84206D3401C04D0022011B063
:10C70000F0BD1420FBE7002E04D02879800701D467
:10C710000120F4E70822002106A8FAF7A7FC1098E8
:10C72000001DC0B20190FAF7B3FC060017D0301D0F
:10C73000109A0F99FAF790FD042221463046FAF735
:10C740008BFD1022A91802A8FAF786FD06AB314628
:10C7500002A8019A10F013FE050002D013E0132086
:10C76000CDE7082206A908A8FAF776FD0822211DC0
:10C7700008A8FAF769FC012801D0012503E0394631
:10C780000D9806F0CBFE3046FAF794FC2846B6E743
:10C79000FFB583B00D980C9D1E4614460F46012828
:10C7A00015D00CA32A460D48FAF778FC0CA0FAF72E
:10C7B00075FC0C480020C0460020019022463346FC
:10C7C000394600950398FEF77FFA07B0F0BD06A33F
:10C7D000E8E7000046616C7365000000B4F20211E6
:10C7E0000D0A0000C877FF1F547275650000000035
:10C7F00070B586B00B9D0E46294640A00C9CFAF7FA
:10C800004DFC45A0FAF74AFC44480020C046444984
:10C81000681A8D4255D007DC002D64D04148281895
:10C8200025D0012866D133E0032852D0192861D0E1
:10C8300025285FD13CA0FAF731FC37A0FAF72EFC8F
:10C8400036480020C04600F0F7FE044600200FF0F6
:10C85000F3F8022C08D0002003460090374A052147
:10C860003748FBF7BBFD45E003F0ECFA42E0E07827
:10C870000102A07801436846418032A0FAF70EFC1D
:10C8800025A0FAF70BFC25480020C04637A00FE092
:10C89000E0780102A07801436846418029A0FAF7B8
:10C8A000FDFB1DA0FAF7FAFB1C480020C04634A08F
:10C8B000FAF7F4FB18A0FAF7F1FB18480020C0467D
:10C8C00018E005A90020FDF771FC6846017D32A043
:10C8D00006E005A90120FDF769FC6846017D33A04B
:10C8E000FAF7DCFBE6E7002003F014FE11F09CFBF6
:10C8F00033480680002006B070BD00005B415050F8
:10C900005F4346475F534552565F43425D202530A3
:10C910003478200A000000000D0A0000C877FF1FCD
:10C9200024800000E57FFFFF5B53542054696D6550
:10C930004F75742043425D0A0000000039D5021192
:10C94000517CFF1F5B434F4E4649475D2053756244
:10C95000736372697074696F6E2041646472657389
:10C9600073203078253034580A0000005B4D4F4466
:10C97000454C2053554253204144445D0A00000079
:10C980005B4D4F44454C20535542532044454C4544
:10C9900054455D0A000000005B4E45542054525837
:10C9A0005D20307825303258200A00005B524C5907
:10C9B000205452585D20307825303258200A00002B
:10C9C000B079FF1F38B50D46002827D0304C01281C
:10C9D00008D0022841D0032850D001462D48FAF74C
:10C9E0005DFB4EE02C48FAF759FB2CA0FAF756FBFA
:10C9F0002B480020C0462B48012109030078FAF794
:10CA000083FB6078FF2808D100200346009020486F
:10CA1000254A0321401CFBF7E1FC38BD23A0FAF7AF
:10CA20003DFB1EA0FAF73AFB1D480020C04603F06C
:10CA3000B9FA002806D003F0B5FA0128EDD1FFF7C6
:10CA4000FBFA38BDFFF778FA01210020FEF7D6FA8D
:10CA500000210846FEF7D2FA38BD24A0FAF71EFBE3
:10CA60000EA0FAF71BFB0E480020C046002DF3D1A4
:10CA700002202071002100F041FA38BD26A0FAF70B
:10CA80000DFB06A0FAF70AFB05480020C04638BD9A
:10CA9000507CFF1FD8F002111CF102110D0A00009A
:10CAA000C877FF1F4577FF1F39D502110D0A203EB9
:10CAB0003E20474154542042656172657220424CC9
:10CAC00045204C696E6B204C6179657220436F6E16
:10CAD0006E656374696F6E204576656E742052656D
