:020000041102E7
:1000000003B40148019001BDADAE000003B4014846
:10001000019001BD456B010003B40148019001BD91
:100020000189000003B40148019001BDC53F0000F3
:1000300003B40148019001BDE94C010003B401483B
:10004000019001BDC95C010003B40148019001BDEC
:10005000CD4C010003B40148019001BD618900004D
:1000600003B40148019001BD154D010003B40148DE
:10007000019001BD1D4B010003B40148019001BD79
:10008000090E000003B40148019001BDF54E0100C6
:1000900003B40148019001BD434D010003B4014880
:1000A000019001BD4551010003B40148019001BD1B
:1000B0002526000003B40148019001BD8B520100C8
:1000C00003B40148019001BDB352010003B40148DB
:1000D000019001BD0D52010003B40148019001BD22
:1000E000C94A010003B40148019001BD3D4B010024
:1000F00003B40148019001BD014C010003B4014863
:10010000019001BDF94C010003B40148019001BD0B
:10011000691F000003B40148019001BD5D17000094
:1001200003B40148019001BD5952010003B40148D4
:10013000019001BD5125000003B40148019001BDAB
:10014000594F010003B40148019001BD8D12000018
:1001500003B40148019001BD4D1F000003B40148E4
:10016000019001BD5522000003B40148019001BD7A
:10017000DD52010003B40148019001BD1D4D010095
:1001800003B40148019001BD810E000003B4014891
:10019000019001BDF925FF1F03B40148019001BD85
:1001A0008D22FF1F03B40148019001BD5924FF1F98
:1001B00003B40148019001BD3129FF1F03B4014878
:1001C000019001BD9979FF1F03B40148019001BD61
:1001D0009538FF1F03B40148019001BDA128FF1FFE
:1001E00003B40148019001BD3931FF1F03B4014838
:1001F000019001BD7124FF1F03B40148019001BDAE
:100200004949010003B40148019001BD21240000C7
:1002100003B40148019001BD017F000003B401480F
:10022000019001BDE117000003B40148019001BD38
:100230007918000003B40148019001BDD9490100BB
:1002400003B40148019001BDE928000003B401484E
:10025000019001BD5549010003B40148019001BD61
:10026000C926000003B40148019001BD3957FF1FA2
:1002700003B40148019001BDC556FF1F03B40148F6
:10028000019001BDC143FF1F03B40148019001BDAE
:10029000350E000003B40148019001BDB544FF1FB5
:1002A00003B40148019001BDAD35FF1F03B40148FF
:1002B000019001BD8945FF1F03B40148019001BDB4
:1002C0003519000003B40148019001BDBD180000BC
:1002D00003B40148019001BDC521000003B40148E9
:1002E000019001BD291C000003B40148019001BD2B
:1002F000851F000003B40148019001BDA94601001B
:1003000003B40148019001BD1147010003B4014845
:10031000019001BD0B22FF1F03B40148019001BDF4
:10032000E521FF1F03B40148019001BDE54800002D
:1003300003B40148019001BD2951010003B40148F3
:10034000019001BDD91B000003B40148019001BD1B
:100350008926FF1F03B40148019001BDB126FF1F8C
:1003600003B40148019001BD51470100F8B5D349DC
:10037000D14A002004464A608300401CD450FF2824
:10038000FADD4868CE4A014680318A606E22C26238
:10039000CC4A1278002A01D07F22C2620A2202656A
:1003A000C94A13788363C94BC36115781023022DA2
:1003B00008D01578012D05D01578032D02D01578B9
:1003C000042D00D10362C24D45611925AD0185613F
:1003D0003725CD6036272826C7630825466405647F
:1003E0004F6032270F603B27CF634127CF64392707
:1003F0004031E0C132274F6002274F614227083168
:10040000E0C11E274F60CE608D6005264E614226FA
:100410000E615A2660390E614D613C258D61AF2514
:10042000ED000560AB4D05631578022D09D01578F8
:10043000012D08D01578032D07D01578042D06D08E
:1004400007E0152504E0436003E00E2500E00C25DD
:100450004560FF252D358560C560FF25F5350561B3
:100460009D4D85647D25ED009C4ECD67C66445623B
:100470009B4D85627325C565062545658565C51D4A
:100480000826F93502272E6047664B27FF0087664E
:100490000927C766934F07674667BE108467C6671C
:1004A000914F8E4E3E601678022E09D01678012E9E
:1004B0000AD01678032E0BD01278042A0CD00EE046
:1004C0001A22CA61212205E01422CA61182201E021
:1004D0001322CB610A6202E00E220B62CA617E4ADD
:1004E0008A627D22D2008A6764224A620522CA6239
:1004F00002220A63C8228C634A63382169607B49FF
:1005000029647B49A9614B21C900E9617349FF3026
:10051000643929627D2109016962EC661E212C671C
:10052000A9667049A965E9658910296669646967E2
:100530007049A9677049714A8130E9670260826039
:100540004160FF21F531C16001616E486C495A4A32
:1005500081606D49803A11616A496C4A80318A62D2
:100560006B4ACA626B4A82616B4AC2626B4A02631F
:100570006B4A64484038C2636A4ACA616A49816307
:1005800060496A48403188616A49694888605D48C5
:10059000694A80384260694A4263694A0A62694925
:1005A000816058496848C039C860FFF729FD0120BB
:1005B000FFF72CFDF8BDF3B50746644881B0C1696B
:1005C000634A1140FF310931C161002613E0002563
:1005D0002C461120FFF720FD5C48406A8007800F01
:1005E000610088402843641CE4B20546102CF0D317
:1005F00001C7761CF6B202988642E8D3FEBD10B55C
:100600002E4C607800280AD104215248FFF7D3FF0E
:10061000504804211030FFF7CEFF0120607010BD5C
:10062000F0B500248BB00D460646102902D90120F2
:100630000BB0F0BDFFF7E3FF464900200A5C401C09
:100640001419C0B21028F9D3002C03D0102D03D9EF
:100650000B20EDE70E20EBE73F483E4C00230068FF
:1006600002A91034E25CC75C7A40CA545B1CDBB25E
:10067000102BF7D306AA3748FFF7D4FC102D00D96A
:1006800010252A4606A93046FFF7D2FCFFF7D6FC14
:10069000216840182060FFF7D1FC61684018606055
:1006A000FFF7CCFCA1684018A060FFF7C7FCE16829
:1006B0004018E0600020BBE70004FF1F809BFF1F85
:1006C00028F4FF1F2081FF1F4A0AFF1F3A0700007E
:1006D00080C3C9019A02000050C30000280A00002C
:1006E0006A180000204E0000F009FF1F00400011B2
:1006F00068100000DC05000040420F0010270000D9
:10070000F566FF1F0001FF1F252DFF1F916CFF1FC6
:10071000696FFF1F8D29FF1F212BFF1FA929FF1FB5
:10072000913CFF1FD17CFF1FF57AFF1F6522FF1F41
:10073000E130FF1F0002FF1F6D63FF1F4965FF1FB0
:100740008D64FF1F2963FF1F1131FF1F40F0004020
:1007500000FEFEFFB0E2FF1FA09BFF1F0A780270A1
:100760008A7842704A88120A82700979C17004201E
:1007700070470A7802700988090A417002207047A0
:1007800010B500220EE093005B189C7804705C8822
:10079000521C240A44701C7984709B88D2B21B0AB4
:1007A000C370001D0B789342EDD81806800D10BD64
:1007B000F8B50D4606464978012031700024761CB4
:1007C00016E06978012917D01221614349198A7806
:1007D00032704A88871C120A7270B61C102230468A
:1007E000091DFFF725FC1037B8B21036641CE4B2BF
:1007F0002978A142E5D8F8BDA10049198A7832705C
:100800004A88871C120A7270B61C02223046091DE3
:10081000FFF70EFCBF1CB8B2B61CE7E710B50C46DC
:10082000097801702188090A41706288211D801CA5
:10083000FFF7FEFB6088801C80B210BD10B50C462F
:10084000097801702188090A4170A1788170618856
:10085000090AC170A288A11D001DFFF7E9FBA0884D
:10086000001D80B210BD10B50C460A88891CFFF728
:10087000DFFB208810BD10B50B788A7802705343D7
:10088000DCB22246401C091DFFF7D2FB601C10BDE4
:1008900010B50B788A7802705343DCB22246401CB4
:1008A000091DFFF7C5FB601C10BD10B50C460A887A
:1008B000891CFFF7BDFB208810BD10B50C460A88C7
:1008C000891CFFF7B5FB208810BD7FB5154604468F
:1008D000022901D0102903D1022B04D0102B02D001
:1008E000002004B070BD994202D10A46294607E0B3
:1008F0001029694607D000F00DF8102269462846F5
:10090000FFF7A2FBEDE7104600F004F8102269465D
:100910002046F5E770B50C4605000CD0002C0AD037
:10092000102206492046FFF783FB28782073687859
:100930006073012070BD002070BD0000F0B1021195
:1009400010B50B460122024903F038FD10BD00002E
:100950005D07021170B5064608880C46172812D3A9
:100960000B4603220949304603F028FD050008D153
:10097000074920880988884200D20146304600F0A5
:10098000ABF9284670BD022070BD0000730702114C
:10099000AE9BFF1F10B500231922194603F00EFD70
:1009A00010BD000010B50A78002A05D00B460722BA
:1009B000024903F003FD10BD022010BD81070211A2
:1009C00010B54A78012A01D0022A08D10A78002AF3
:1009D00005D00B460522034903F0F0FC10BD0220B0
:1009E00010BD0000B107021101494000085A7047CC
:1009F000AC9BFF1F10B50B461D22024903F0DEFC25
:100A000010BD00001D08021110B50B461B22024943
:100A100003F0D4FC10BD00001D080211014917208D
:100A200008807047AC9BFF1F0098022B01D0042068
:100A3000704711785278120289180180002070479F
:100A40000098012B01D0042070471178017000201C
:100A5000704770B5049C1E461546062B1BD369785B
:100A60002878090240182080E978A87809024018FF
:100A7000608002222271291D601DFFF7D9FAB61F7E
:100A8000B2B22281F02A06D82046A91D0A30FFF70B
:100A9000CFFA002070BD042070BD0098042B01D057
:100AA00004207047537811781B02C918018091788F
:100AB000D27812028918418000207047F8B58489E5
:100AC0000D460646002C26D0B2681778380620D589
:100AD0000C2C20D90C3CA4B2101900900121708874
:100AE000234603F0CFFB002811D00220287078069F
:100AF000C00F6870B806800EA870641E2004000C39
:100B0000A88001D0B068401CA8600020F8BD01207A
:100B1000ECE70020EAE70120F8BD10B50298114685
:100B2000042B14D34C780A78240212190280CC7852
:100B30008A782402121942801B1F9AB28280F22AFC
:100B400005D8801D091DFFF773FA002010BD042091
:100B500010BD0098042B01D0042070475378117801
:100B60001B02C91801809178D2781202891841803D
:100B70000020704710B502981146062B03D0142BA5
:100B800003D0042010BD022200E0102202714B7835
:100B90000A781B02D2180280CB788A781B02D218FE
:100BA00042800279401D091DFFF742FA002010BD66
:100BB00030B5039CD80718D1D805010E022914D3EB
:100BC0000B488088814210D8F6200155002008E0AB
:100BD000557813782D025B194500401C6353C0B251
:100BE000921C8842F4D3002030BD042030BD0000A8
:100BF000A69BFF1F0098022B01D00420704711789C
:100C000052781202891801800020704770B514468E
:100C100002460498022B18D3667825783602AD195F
:100C200005800546E0352A766976002A0BD0E82152
:100C30009B1E9AB242808A4207D8A11C001DFFF772
:100C4000F7F9002070BDF421F2E7042070BD000028
:100C500010B50B461722024903F0B0FB10BD00008F
:100C60003D08021110B50B460D22024903F0A6FB08
:100C700010BD00006708021110B50A78002A05D0DF
:100C80000B461122024903F099FB10BD022010BD52
:100C90007708021110B50A78002A05D00B46092200
:100CA000024903F08BFB10BD022010BD9108021118
:100CB00010B50B460F22024903F080FB10BD000067
:100CC000AB08021110B50B460B22024903F076FB6C
:100CD00010BD0000BB080211044A1288914203D8DB
:100CE000024A4000921D115270470000A69BFF1F50
:100CF00010B500231322194603F060FB10BD00BF9E
:100D000000BF00BF7047000010B500240549064829
:100D100001F09EFC054A0621054801F0CFFE04467D
:100D2000204610BDC883FF1FFFFF0000B0B00211B6
:100D3000D483FF1F10B502460023002A06D0012AE3
:100D400008D0022A0AD0032A1CD10BE010480078F0
:100D5000087019E00F480078087015E00E484089C7
:100D6000088011E008460D4C247804710B4C64781F
:100D70004471094C648D0480074C648F44800124C5
:100D8000847101E0022300BF00BF184610BD0000BF
:100D9000BE83FF1FBC83FF1FD483FF1FD083FF1FB1
:100DA00070B505460C46094885420DD0012C07D088
:100DB000022C09D10121284608F006FA002803D1A7
:100DC0000349284601F044FC70BD0000FEFF00000E
:100DD000C883FF1F10B503F02FFB044604480078BA
:100DE000844203DA0248047003F052FB002010BD75
:100DF000BE83FF1F0149086070470000B883FF1FD2
:100E000070B505460C46002601208002281A030012
:100E1000FFF720F90F090A0E12161A202428402C79
:100E20003034383C40003EE02048008820803AE0E2
:100E30001F480078207036E01E480078207032E0AD
:100E40001D48007820702EE010221C492046FFF734
:100E5000EFF828E01A480078207024E0194800785C
:100E6000207020E01848006820601CE017480078D7
:100E7000207018E016480078207014E015480078BB
:100E8000207010E01448007820700CE004F092F814
:100E9000207008E0272D04DA284601F01FF9208091
:100EA00000E0022600BF00BF304670BDA282FF1FD7
:100EB000A482FF1FA582FF1FA682FF1FB0BFFF1FD6
:100EC000A782FF1FAD82FF1FB082FF1FAB82FF1FF3
:100ED000AC82FF1FB482FF1FBC82FF1F10B5044607
:100EE0000248047004F0D4F910BD0000A082FF1F76
:100EF000FFB58DB015461E4600200B900C900BAA36
:100F00000E990D9800F004FA04460A2C64DA204683
:100F100004F095F90746082E01D1012000E00020D9
:100F200033463A4621460090284604F011F8142230
:100F3000002106A8FFF794F82146062251432431E8
:100F4000C8B206AA102108F0E9FB002815D110222A
:100F5000FF2106A8FFF78AF800280ED121460622B5
:100F600051432531C8B20AAA042108F0D7FBF9077A
:100F7000C90F06AA284601F067FA21467031C8B2A7
:100F800002AA102108F0CAFB00281BD102A804F015
:100F90006AF90020019012E00198800002A940182F
:100FA000009000980088002805D000988278018879
:100FB000284601F0D3FD0198401CC0B20190019871
:100FC0000428E9DB02203840002804D008480178D2
:100FD000284601F0ADFD00BF042E06D10548405D56
:100FE000022802D1284604F0BDF9002011B0F0BD5E
:100FF000A082FF1FA182FF1FF8B504460D461646CA
:101000000027002D10D10B493046FFF735F80E466A
:101010002146304601F0FEF80746002F08D0012196
:10102000204601F037FA03E02946204601F032FA63
:101030003846F8BD40420F0070B506460C46012008
:10104000C0032040002812D00A480078FFF71AF8A1
:10105000051E07D0284604F03FFA002802D0284693
:10106000FFF716F820460121C903484070BD002053
:10107000FCE70000A082FF1F7FB50446A078801F18
:101080000300FEF7E7FF0AF1EFEF8D2506EFEF7B98
:10109000A1EF25468B48006800280DD089480068DC
:1010A0000068002808D06B7B2A7B69898548006826
:1010B0000668E81CB0470AE069898348006801F0C7
:1010C000A9F8002803D06889012101F0E3F9F5E0CF
:1010D00025466878002840D1A879C007C00F0028AD
:1010E0003BD0A888800079490858002835D10E22C5
:1010F00000216846FEF7B4FF6869002807D06869D8
:101100000146103106226846FEF792FF0DE0A888DE
:1011100007F0B6FF0646002E05D00622F11D6846F0
:10112000FEF786FF00E0C9E000BF69468889A9791B
:101130000422114089080843694688812946684687
:1011400003F046FD002807D1A8882A46694604F026
:101150004FFA002004B070BD00BF5A480068002854
:101160000BD0584800684068002806D06A78A888E4
:10117000544909684B68012198479FE0254651482A
:10118000006800280BD04F4800684068002806D04F
:101190006278A8884B4909684B68022198478DE01E
:1011A0002546E8780022291D00F0B2F806460A2EEE
:1011B00009DA3146062251432531C8B22A460C329B
:1011C000042108F0D9FA79E0254641480078002842
:1011D00005D0A8883F49097801F05CF941E0A8886A
:1011E0003D49085C002804D1A888052101F052F986
:1011F00037E0A88807F044FF0646A87AC007C00F6A
:10120000002817D0002E14D0B079002812D0A88959
:101210008005C00F00280DD1B07902AAF11D00F0A1
:1012200077F8002804D1A888032101F033F945E0BC
:1012300000E043E0B179A8882A46083203F0BCFDFB
:101240002048006800280BD01E480068406800282D
:1012500006D0A8881B49096800224B6811469847A8
:1012600000BF2BE029E0FFE700F0B4FF002823D106
:101270001A48007801280AD103F0EBFE0020174934
:1012800008700A2200211648FEF7EAFE0FE000254A
:101290000BE01348405D012805D1284603F0E9FE24
:1012A00000200F494855681CC5B20A2DF1DB5020BB
:1012B00008F031FA03F0ECFF00E000BF00BF0120AE
:1012C00048E70000B882FF1FB082FF1FC082FF1FE7
:1012D000AB82FF1FAC82FF1FA182FF1FBD82FF1FD9
:1012E0004CC0FF1F10B5044607480460074800784B
:1012F000FF2808D005480178262001F095F803481A
:10130000007801F0D5FB10BDB882FF1FA082FF1F3F
:10131000F8B506460F4614460A25002E06D0012EC3
:1013200005D0022E11D0032E29D11BE000BF384674
:1013300003F00CFF05460A2D06DA002C04D0062225
:1013400039462046FEF774FE1AE0384603F040FFA7
:1013500005460A2D05DA002C03D02146284603F065
:1013600051FF0DE0384603F0CDFF05460A2D05DAA2
:10137000002C03D02146284603F044FF00E000BFC4
:1013800000BF2846F8BD0000F8B506460C461520FB
:1013900000901C48864214D100250AE02246022112
:1013A000284603F01FFE002801D000200090681C92
:1013B000C5B20A2DF2DB002C02D0134807F0C0FEA4
:1013C0001DE0304607F05CFE0546002D14D0A879DC
:1013D0000022E91DFFF79CFF07460A2F06DA224686
:1013E0000221384603F0FEFD00200090002C02D0C0
:1013F000284603F0ADFF01E01420009000BF0098E4
:10140000F8BD0000FFFF000051530211FEB5064673
:101410000D4614460020029001208002301A03007D
:10142000FEF718FE110A18212D3945505C6572AD82
:10143000B9C5D4E7E787E700012D08D12078022855
:1014400005DC217801227348FEF70AFE01E018202E
:101450000290DBE0022D03D120886F49088001E073
:1014600018200290D2E0012D06D12078012803DC5B
:1014700020786A49087001E018200290C6E0012D2A
:1014800006D12078042803DC20786549087001E043
:1014900018200290BAE0012D06D12078012803DC43
:1014A00020786049087001E018200290AEE0102D0D
:1014B00005D1102221465C48FEF7BAFD01E0182054
:1014C0000290A3E0012D06D12078012803DC2078CA
:1014D0005649087001E01820029097E0012D03D1D1
:1014E00020785349087001E0182002908EE0042D06
:1014F00007D150492068884203D84F4920680860C6
:1015000001E01820029081E0002D0FD100F062FE72
:10151000002807D103F09DFD502008F0FCF803F0EF
:10152000B7FE05E001204549087001E0182002904F
:101530006CE0072D20D10622611C6846FEF7AEFD47
:10154000207800226946FFF7E3FE07460A2F10DAEB
:1015500000F040FE002808D1384603F08AFD5020F4
:1015600008F0D9F803F094FE05E001203449C8558D
:1015700001E00220029001E01820029046E0012DD7
:1015800006D12078012803DC20782E49087001E07C
:10159000182002903AE0012D06D12078092803DCBA
:1015A00020782949087001E0182002902EE0012DD2
:1015B00009D12078072806DB2078102803DC207862
:1015C0002249087001E0182002901FE0012D0DD182
:1015D0001F48077820781E490870002F05D108465B
:1015E0000078012801D103F053FE01E01820029099
:1015F0000CE0272E07DA022D05D12188304600F0B5
:1016000013FF029001E00220029000BF00BF029889
:10161000FEBD0000A182FF1FA282FF1FA482FF1F48
:10162000A582FF1FA682FF1FB0BFFF1FA782FF1F5B
:10163000AD82FF1F3F420F00B082FF1FBD82FF1F20
:101640004CC0FF1FAB82FF1FAC82FF1FB482FF1F85
:10165000BC82FF1FF7B582B005460E4615200190EB
:10166000174885420FD100240AE031462046049AEB
:1016700003F0B2FE002801D000200190601CC4B22B
:101680000A2CF2DB18E0284607F0FAFC0446002C8E
:101690000FD0A0790022E11DFFF73AFE07460A2F7E
:1016A00006DA31463846049A03F096FE002001908F
:1016B00001E01420019000BF019805B0F0BD0000CA
:1016C000FFFF000070B505460C460026032000020F
:1016D000281A0300FEF7BEFC1D10141A20242A2E1F
:1016E00032394044484E52565A5E62666A6E72788B
:1016F0007C809084888C900045480078207084E03D
:10170000102244492046FEF793FC7EE01022424915
:101710002046FEF78DFC78E040480068206074E0C9
:1017200006223F492046FEF783FC6EE03D480078E4
:1017300020706AE03C480088208066E03B480278E0
:101740003B492046FEF774FC5FE03A4802783A498C
:101750002046FEF76DFC58E038480078207054E0D1
:1017600037480078207050E0062236492046FEF7C0
:101770005FFC4AE034480078207046E03348007847
:10178000207042E03248008820803EE031480088E6
:1017900020803AE030480078208036E02F480088EA
:1017A000208032E02E48008820802EE02D480088DE
:1017B00020802AE02C480088208026E006222B4941
:1017C0002046FEF735FC20E02948008820801CE0F8
:1017D00028480088208018E027480088208014E0EE
:1017E00026480078207010E02548008820800CE012
:1017F00024480088208008E0272D04DA284600F0DD
:101800006DFC208000E0022600BF00BF304670BDA6
:101810005283FF1F6CC0FF1F7CC0FF1F5483FF1F3C
:101820005883FF1F5E83FF1F6083FF1F6283FF1FBC
:101830006383FF1F8283FF1F8CC0FF1F8383FF1FF3
:101840008483FF1F8583FF1F8B83FF1F8C83FF1FF4
:101850008E83FF1F9483FF1F9C83FF1F9E83FF1FA8
:10186000A083FF1FA283FF1FA483FF1F9683FF1F78
:10187000A683FF1FA883FF1FAA83FF1F5183FF1F9B
:101880009083FF1F9283FF1F10B504461348047016
:10189000002013490870401E124908800F48007844
:1018A00000F070FD042010490870102200210F483C
:1018B000FEF7D6FB102200210D48FEF7D1FB0020D9
:1018C0000C4908600C4908700C49087007200C4945
:1018D000087000200B49087010BD00005083FF1FE6
:1018E0005183FF1F8E83FF1F5283FF1F6CC0FF1F9A
:1018F0007CC0FF1F5483FF1F8383FF1F8483FF1F50
:101900008B83FF1F8C83FF1FFEB506460C4601200C
:10191000C0032040002810D048480078FEF7B2FBF2
:10192000051E05D0284604F05FFC2846FEF7B0FBF4
:1019300020460121C9034840FEBD0120800320400C
:10194000002804D02046012189034840F4E7E0073D
:10195000C00F00283FD03A480078002837D03948D7
:101960000078052803D10320694608700CE036484A
:101970000178684601703548017868464170062252
:101980003349801CFEF754FB3248017868460172E7
:10199000314801786846417269462848007800F06D
:1019A000B9FB0546002D11D00720264908702B48A9
:1019B000006800280AD0294800680068002805D07F
:1019C0002648006801681F480078884700BF204605
:1019D00001214840B0E702202040002816D01948D5
:1019E000007805280ED11E480088FEF75DFB1D48D3
:1019F0000088002806D01B48028802210F48007882
:101A0000FEF758FB20460221484095E7042020407D
:101A1000002806D0002004F083FC20460421484022
:101A20008AE708202040002805D004F02BFA204641
:101A30000821484080E700207EE700005083FF1F18
:101A40005E83FF1F5183FF1F8383FF1F8483FF1F5C
:101A50008583FF1F8B83FF1F8C83FF1FB083FF1FB6
:101A60008E83FF1F9483FF1FF8B504460D4617466B
:101A70001E4617480078052801D01420F8BD062C12
:101A800023DB1920C00184421FDA062D1DDB8542AD
:101A90001BDAFF20F530874217DA0A2E15DB1920F2
:101AA000C001864211DA0B4804800B4805800B48C0
:101AB00007800B480680069804F032FC0421094890
:101AC0000078FEF7FDFA0020D8E71820D6E70000DE
:101AD0005183FF1F9E83FF1FA083FF1FA283FF1F51
:101AE000A483FF1F5083FF1FF8B506460C4615461A
:101AF00000200090BA4830180300FEF7ABFA190E28
:101B00001924FD2D6A738DA7B3BFCAD6FDE2FCFB75
:101B1000FAF9F8FDFDFDFDF7FD00102C05D11022AE
:101B20002946B048FEF784FA01E01820009054E1FD
:101B3000102C05D110222946AB48FEF779FA01E0B6
:101B40001820009049E1042C03D1A84928680860B6
:101B500001E01820009040E1012C37D1A44807781B
:101B60002878A3490870002F14D008460078002870
:101B700010D1A0480078022807D09E480078062897
:101B800003D09C48007804281FD19B48007800F0BF
:101B90007BFA1AE0002F18D195480078002814D05D
:101BA0009448007801280BD092480078032807D089
:101BB00090480078052803D08E480078042804D186
:101BC00001218D480078FEF781FA01E0182000908D
:101BD00003E1022C03D128888849088001E01820FD
:101BE0000090FAE01F2C14DC1F2200218448FEF72D
:101BF00037FA224629468248FEF71AFA81480470CD
:101C00007F4B224601217C48007800F093FC009035
:101C100001E018200090E0E01F2C14DC1F220021BE
:101C20007948FEF71DFA224629467748FEF700FA62
:101C300076480470744B027800216F48007800F0F9
:101C400079FC009001E018200090C6E0012C06D13C
:101C50002878042803DC28786D49087001E01820F2
:101C60000090BAE0012C06D12878032803DC2878FC
:101C70006849087001E018200090AEE0062C05D1FC
:101C8000062229466448FEF7D3F901E018200090A7
:101C9000A3E0012C06D12878072803DC28785F49C7
:101CA000087001E01820009097E0012C06D12878F8
:101CB000032803DC28785A49087001E018200090B6
:101CC0008BE0022C19D128885649088008460088E4
:101CD000002814D047480078052810D1084602880B
:101CE000022145480078FEF7E5F908E04EE03EE0C5
:101CF00030E020E010E003E062E0182000906CE0AB
:101D0000012C06D12878012803DC28784649087080
:101D100001E01820009060E02888022C08D10628F5
:101D200006DB1921C901884202DC4049088001E034
:101D30001821009151E02888022C08D1062806DBE2
:101D40001921C901884202DC3949088001E01821C3
:101D5000009142E02888022C06D1FF21F53188420B
:101D600002DA3449088001E01821009135E0288822
:101D7000022C08D10A2806DB1921C901884202DC9D
:101D80002D49088001E01821009126E02F78012CD0
:101D900013D1012F11D1082117480078FEF79CF9C3
:101DA000002807D104F0BCFA042113480078FEF79C
:101DB00087F904E01620009001E0182000900CE064
:101DC000272E07DA022C05D12988304600F02CFB9B
:101DD000009001E00220009000BF00BF0098F8BD15
:101DE000FFFCFFFF6CC0FF1F7CC0FF1F5483FF1F61
:101DF0005E83FF1F5183FF1F5083FF1F6083FF1F00
:101E00006383FF1F6283FF1F8CC0FF1F8283FF1F3E
:101E10008383FF1F8483FF1F8583FF1F8B83FF1F27
:101E20008C83FF1F9483FF1F9C83FF1F9E83FF1FD4
:101E3000A083FF1FA283FF1FA483FF1F10B50446CA
:101E400006480078002807D1002C01D0044804601F
:101E500004F04EFA002010BD1120FCE75183FF1F53
:101E6000B083FF1F10B507480078052807D113225B
:101E7000054801880548007800F01CFB10BD1220C1
:101E8000FCE700005183FF1F8E83FF1F5083FF1F5D
:101E9000F8B504462C480F460078022805D00128E2
:101EA00003D0082803D1002F01D01220F8BD002C48
:101EB00007D02088254D81006958002903D01120C2
:101EC000F8BD0220F8BD07F0DBF8060036D02C2064
:101ED000FEF708F9218889006850002830D02C22AC
:101EE0000021FEF7BDF820881C2281006958488037
:101EF0002088211D80002858001DFEF799F82188B0
:101F00000220890069580870228890002B58707947
:101F10001B1D002816D000200D49097802F05EF93B
:101F20000546002F03D03946304607F0E1FF002D6B
:101F300002D0208803F0DAFB2846F8BD1420F8BD53
:101F40001320F8BD0120E7E7B39BFF1F1C9CFF1F78
:101F5000419CFF1FFFB5204D81B028781E461746D3
:101F6000022823D0012821D0002F22D0019807F089
:101F700087F804001FD0606A002801D0FEF7B8F887
:101F80001C213846FEF7BAF86062011E15D0287889
:101F9000000714D5002E12D0887E00900B46123315
:101FA0000A8A019808F06EFA014609E0122005B08D
:101FB000F0BD0220FBE71420F9E71320F7E700212A
:101FC0002079042210432071029A002A02D00222B2
:101FD000104320710846EAE7B39BFF1FF8B5074698
:101FE0000C461E4602252300FEF734F80D16080A9B
:101FF0000E0B160F160D10161611160000250DE00B
:102000000CE000250AE009E008E007E006E00EA089
:1020100002F0DAFA002501E0022500BF00BF002D22
:102020000FD12146384600F0D9F80546002D08D1D9
:102030003046079A069900F0AFF900F00FF902F068
:10204000BDF82846F8BD00004741505F44657669F9
:102050006365496E69743A204741505F50524F465C
:10206000494C455F43454E5452414C207C204741EA
:10207000505F50524F46494C455F50455249504879
:102080004552414C200A000070B5104C21680029CF
:1020900004D00978814203D0032070BD122070BDA6
:1020A0000B4D02212878FEF70BF80A4800264680DF
:1020B00004212878FEF704F80748068021680320E9
:1020C00048700020FEF720F870BD0000109CFF1F34
:1020D000419CFF1F249CFF1FB69BFF1F272803D294
:1020E00002494000085A704701487047BE9BFF1FD5
:1020F000FFFF000010B5064C607006F0F1FF60783D
:10210000FEF708F80521607801F0EAFE10BD000036
:10211000409CFF1F70B5284E054630680C460028CD
:1021200001D0112070BD254801780520014216D04C
:1021300023488068002805D00078002802D0C8070E
:1021400006D101E0102070BD00F044F8002808D04E
:102150002078032805D0022803D0002801D01220BF
:1021600070BD0C20FDF7BEFF3060002820D0057048
:10217000002141700A222146801CFDF759FF04F01E
:10218000D9F9040002D003F0A5FA12E00D48007856
:1021900003280ED11D20FFF7A1FF0B49002808805E
:1021A00007D00B48094A04210078FDF7B9FF00E089
:1021B0001324204670BD0000109CFF1FB39BFF1F1F
:1021C000249CFF1FB49BFF1FB69BFF1F60EA00000B
:1021D000419CFF1F10B506F0A1FF10BD70B50C4665
:1021E00005461C2200210948FDF73AFF0848057002
:1021F0004470FDF79BFF0549002803D000200870BC
:10220000122070BD01220A7070BD0000E0E2FF1FC5
:10221000B29BFF1F7FB504460D46084606F030FF0F
:10222000002805D00C48844204D9022004B070BDB7
:102230001220FBE7102200216846FDF711FF6846D7
:102240000470210A4170210C8170210EC170294651
:1022500001F026FFEAE700003F420F0070B50F4C87
:102260000025A068002802D0FDF742FFA560E068C5
:10227000002802D0FDF73CFFE56009480521007801
:10228000084206D00548103003F0F6FD02F05EFC6F
:1022900070BD002003F0F0FD002070BD249CFF1FE6
:1022A000B39BFF1FFEB5344D0C46080419D5687862
:1022B000FDF7E8FE0121C9034C40064600280ED078
:1022C00003F0FAFC002807D12878FF2804D0314613
:1022D000FDF732FF002802D03046FDF7D9FE204638
:1022E000FEBDE007012700280AD0A868002804D016
:1022F0004168002901D00020884720467840FEBD73
:10230000A00709D56868002804D04168002901D0D9
:102310000120884702202AE060072AD5174E30881E
:1023200000281FD0401E0004000C30801ED103F096
:1023300043FA002809D0124807706868002804D0C2
:102340004168002901D00120884703F00FFA69464F
:1023500001F024FE684603F099FC1D20FFF7BEFE45
:10236000308003E004216878FDF7AAFE0420604075
:10237000FEBD0020FEBD0000409CFF1FB69BFF1F5E
:10238000B59BFF1F0149087070470000409CFF1F6C
:1023900010B501F0EDFE10BD70B50E4C0B46261DBC
:1023A00007C60546102200211846FDF75FFE0128EA
:1023B00003D11021A06807F007FC10220021284655
:1023C000FDF754FE012803D11021606807F0FCFBE3
:1023D00070BD0000E0E2FF1F38B505460F480C460F
:1023E0000078400701D4122038BD284606F048FE88
:1023F000002811D00A48A9004058002801D0817D4A
:1024000000E02146684608F093F8064B6A46022130
:10241000284607F0F3FF38BD142038BDB39BFF1FDB
:102420001C9CFF1F3DAA0211272807D2044A914293
:1024300004D0044A40001152002070470220704727
:10244000FFFF0000BE9BFF1F70B50E4610491546EA
:102450000978022916D0012914D0002D14D006F0D5
:102460000FFE040012D0002E03D020790221084371
:10247000207110222946A018FDF7DAFD2869206294
:10248000002070BD122070BD022070BD142070BDF0
:10249000B39BFF1F38B50C46054606F0F1FD00283A
:1024A00006D0684604706946284607F095FF38BD97
:1024B000142038BDF8B50D4617461D4906461B4A7F
:1024C0001224C868954208D100282DD00268002A3D
:1024D0002AD029463046904723E0144A521C9542A0
:1024E00013D1002807D00268002A04D029463046BC
:1024F0009047040005D03946304602F089F80400C0
:1025000012D10B48067047700EE0284606F0B8FD61
:10251000002809D00078B04205D139462846FDF799
:1025200011FE044600E003242046F8BDFEFF000033
:10253000149CFF1FF8B50E46014619481546007851
:1025400005221F46104028D0304326D01548012EC2
:102550001BD0C468002C20D01F2D18D8002D01D00E
:10256000002F14D001701F220021601CFDF778FDA0
:102570002A463946601CFDF75BFD28462570002E73
:1025800007D0611CFDF7E4FDF8BD8468E2E7022096
:10259000F8BD611CFDF7E2FDF8BD1220F8BD00009A
:1025A000B39BFF1F249CFF1F70B504460025E00766
:1025B000C00F002805D0044A0121044800F07EFA2B
:1025C0000546284670BD000084B002118C82FF1FB2
:1025D00010B503460C46002109E00801C018C06888
:1025E000904202D10801C01810BD481C81B2A1421E
:1025F000F3DB0020F8E7000010B504460F48047034
:102600000F49104800F024F800200AE00021C943D7
:10261000C2000D4B99520021C200D2185160411CDA
:10262000C8B20128F2DB012004F05CFF0348007807
:1026300000F02AFC054806F099FD10BD6C82FF1FD2
:102640008282FF1FFFFF00007082FF1FCD6B02110F
:1026500070B506460C46104886420ED1002009E0AF
:102660000021C9438200A1520021820012199170F9
:10267000411CC8B20228F3DB0CE02146304604F0CE
:1026800058FA0546002D04D00020C04328800020C1
:10269000A87000BF70BD0000FFFF0000FFB581B053
:1026A0000C4615461F46002000900A98002826D1A7
:1026B000022F21D1287869780902401886B2314664
:1026C0000B988143002914D1E168019800F0E2F9E8
:1026D000B04210D03246E168019800F073FA0090E1
:1026E0000098002807D161893246019800F000FA6D
:1026F00001E08020009004E00D20009001E00B201C
:102700000090009805B0F0BDFFB5C3B005461E4669
:1027100000272C462088224988423DD0A0780028F6
:102720003AD03046449A4C99FFF752FF4290429873
:10273000002830D0208840001A49085CC01EC0B272
:10274000002204A90231019200910290728920882E
:1027500005AB0390429900F04BF800281AD142983B
:10276000408969460882A078C007C00F002805D0BC
:10277000208804A9459A00F055FB0743A078022160
:102780000840002806D0208804A94D9B459A00F0F7
:10279000EDFA074300BF00BF384647B0F0BD000068
:1027A000FFFF0000AC9BFF1F70B506460C460120E2
:1027B000C0032040002816D00C480078FDF762FCCA
:1027C000051E0BD02878B02803D1284604F014FB4E
:1027D00000E000BF00BF2846FDF75AFC204601215B
:1027E000C903484070BD0020FCE700006C82FF1F59
:1027F000FFB587B00D461C46109E00200690059040
:10280000287A10210840002814D0099804F086F98D
:102810000746002F05D00A2229460798B847059099
:1028200001E00E2005900598002802D005980BB015
:10283000F0BD00BF287802287ED1686800786968FA
:1028400049780902401880B20490292212020498A3
:10285000811A904271D009DC8B49401A0FD00128AF
:102860000ED0022848D0032868D118E0012966D08C
:1028700002297DD003297CD00429F5D1C9E000BF0D
:102880001198002808D1EF68387830803A782046CF
:102890007968FDF7CDFB01E00B200590D6E011989B
:1028A000002826D101203080E868007820706989EE
:1028B000491C88B2002100F0B7F90746002F0FD05D
:1028C00031883878801C08183080B87A6070788930
:1028D0000012A0703A78E01C7968FDF7A9FB07E0C8
:1028E0003088001D308004220021601CFDF7B8FBF9
:1028F00001E00B200590A9E01198002844D1E86878
:102900000088019004203080019820700198001206
:10291000607003A9019800F087F90746002F29D0BD
:10292000F868009002AB684682895849384600F042
:10293000D3F900280ED103E08AE039E083E046E0D5
:102940003B78022152487A68FDF7BFFF002801D189
:10295000401E029000980078022808D100980222B8
:102960004168201DFDF764FB3088801C308003E047
:102970000DE01EE00198029068460089A07068464C
:1029800000890012E07001E00B2005905EE01198D4
:1029900000280AD1E968079800F07CF80746022071
:1029A000308027703812607001E00B2005904DE0F8
:1029B00000BF1198002807D1E968088802213180FA
:1029C00020700112617001E00B2005903EE0E86884
:1029D000FDF7CAFBC7B21198B84217DC1198B8428C
:1029E00001D1002709E0129911984018B84201DA84
:1029F000129F02E01198381AC7B23780EA6811981E
:102A000011183A462046FDF713FB01E00720059018
:102A10001CE01198002813D1E86807213180017863
:102A20002170417861708178A17041880912E1704C
:102A30000179217181796171C1880912A17101E067
:102A40000B20059002E00120069000BF00BF01E0CE
:102A5000012006900698012813D1099804F08EF8F9
:102A60000746002F0AD01299119833462246019149
:102A7000009029460798B847059001E00E20059080
:102A800000BF0598D3E6000000280000FFFF00000B
:102A900066B2021170B505460E463146284604F06E
:102AA00048F80446002C01D0A07870BD0020FCE757
:102AB00001490870704700006D82FF1FFEB5044693
:102AC0000F461646002C0FD001946846078000F090
:102AD000E1F90546002D06D1002E04D0608931466B
:102AE00004F0D8FC054600E002252846FEBD0000A3
:102AF000F8B505460E4617460C480078FF2813D057
:102B00000A20FDF737FB0446002C0CD0B1202070C2
:102B10000020607020716580E6802781214603488F
:102B20000078FDF709FB00BFF8BD00006D82FF1FB4
:102B300070B504460D4608492046FFF7ABFF064630
:102B400002203040002804D02946204600F0F6F943
:102B500070BD0120FCE700008282FF1F7CB50546A6
:102B60000E461446684604712004010E6846417101
:102B70000020022301AA31460090284600F001F807
:102B80007CBDFFB583B00D4602A9284600F04CF885
:102B90000646002E11D06846008904F00BF807465F
:102BA000002F08D00C9800903146069B059A039898
:102BB000B847044600E00E2400E00124204607B098
:102BC000F0BD0000F8B505460F46164639462846C2
:102BD00003F0AFFF0446002C09D13946054803F045
:102BE000A8FF0446002C01D11120F8BD2580A67055
:102BF0000020FAE7FFFF000010B50178B0290BD1E3
:102C00004178002908D10179122906D01B2903D166
:102C10004088012101F0EEF810BDFF210231095C6E
:102C20000129F5D010BD0000F0B58C4610494B6865
:102C300019E09F687C89A04214D39E883119814293
:102C400010D900220CE011017D186989814205D15B
:102C50006046002800D004802846F0BD521C92B285
:102C60009642F0D81B68002BE3D10020F0BD000095
:102C70004C9CFF1FFFB5174881B00A9F446824E0B1
:102C800000251EE0A0682901461870890199884234
:102C900015D30299884212D80498002807D03178B9
:102CA0007068049B039AFDF710FE002807D0002FE0
:102CB00002D0A06840893880304605B0F0BD6D1C58
:102CC000ADB2A088A842DDD82468002CD8D100205D
:102CD000F3E700004C9CFF1FFEB5174600256A462F
:102CE0009580044640891D4A1E46904208D001AA9C
:102CF0000092401C237880B26268FFF7BBFF054654
:102D00002378022116486268FDF7DFFD002807D10D
:102D10002378022113486268FDF7D7FD002801D00F
:102D200060890EE0237802210F486268FDF7CDFD2F
:102D300000280DD0002D03D068468088B84203D00B
:102D4000384604F007FD04E06889401E80B200E0C8
:102D50006089002E00D030802846FEBDFFFF0000B5
:102D600064B2021166B202116AB20211FFB581B0FB
:102D70000F461E4614466946019803F0EDFC050017
:102D800018D1002C06D001221021019806F052F92A
:102D900005000FD139460198FDF72CFE050009D139
:102DA000009CFF2E06D021461E22A31C034804F0DF
:102DB000DDFCE670284605B0F0BD00005976021132
:102DC00010B505490870042101F08AF800F006F8F2
:102DD000FDF724FE10BD00005C9CFF1F70B50E4C7B
:102DE00000200C4B651CFF228100C91800280ED062
:102DF0000D80401CCA70C0B28A700228F4D3074804
:102E000003F04EFE064806F0B1F9002070BD0C80BC
:102E1000EFE70000549CFF1FFEFF000085760211C3
:102E2000D9750211F8B50D4614460646694603F0F9
:102E300093FC17280CD0002C06D00122102130461C
:102E400006F0F8F8002803D129463046FDF7DCFDEE
:102E5000F8BD000070B50C46080411D5094800788B
:102E6000FDF710F9050007D00178A02901D103F082
:102E7000BBFD2846FDF70CF90120C003604070BD82
:102E8000002070BD5C9CFF1F014908707047000066
:102E90004C9CFF1F70B50546008800281DD068684F
:102EA0000221037842682248FDF70FFD002808D16F
:102EB00068680221037842681E48FDF706FD002875
:102EC0000BD01D4C6088002805D0012229881204EF
:102ED000101A814203D9012070BD022070BD0C2060
:102EE000FDF700F9060001D000200AE0132070BDB4
:102EF00002016B6861880A329952491C401C61804A
:102F000080B229888142F3D8002030600822294607
:102F1000301DFDF78DF86068002802D1666004E07E
:102F2000084601680029FBD10660002070BD000042
:102F300064B2021166B202114C9CFF1F70B5BEB0A4
:102F40000D460646002402230E4A0F490120009434
:102F5000FFF790FE002812D040896A4610800420B6
:102F60005080012010715471FF209071D0712B4658
:102F7000002269463046FFF7F9FE3EB070BD0120E1
:102F8000FBE7000082B20211FFFF0000064949681A
:102F900006E08A685289824201D1888870470968B0
:102FA0000029F6D1002070474C9CFF1F10B5142259
:102FB000114201D0012202E04A0604D5002210216C
:102FC00006F038F810BDC80701D0002010BD02205F
:102FD00010BD10B514468A0604D50122102106F052
:102FE00029F810BD882211420ED008220A40102173
:102FF00006F020F800280BD0E034617E0029F0D0E4
:10300000217E0129EDD103E0880701D4032010BD02
:10301000002010BD70B504460025E007C00F002851
:1030200005D0044A07210448FFF748FD0546284615
:1030300070BD000098B00211E082FF1FF8B506468F
:103040000C46154600273300FDF704F80805143C2C
:103050003C1C3C26313C152C0ADC162200211C4865
:10306000FCF7FEFF224629461948FCF7E1FF00E085
:10307000182729E0022C03D128881649088000E08F
:10308000182721E0082C05D1082229461248FDF70F
:1030900077F800E0182717E0012C06D10F492878AF
:1030A000CA69283104F032FC00E018270CE0012C3A
:1030B00006D10A492878CA6B483104F027FC00E0A1
:1030C000182701E0022700BF00BF3846F8BD000006
:1030D00056C0FF1FD282FF1FD682FF1FE082FF1F54
:1030E00038B5044611480470002000906A4601215A
:1030F0000F48FEF78BF90020C043FFF78BFF00203D
:10310000C043FFF751FAFDF741F8FDF7FDFD01F06F
:1031100021F90020FDF76EFE064801F031F901218A
:1031200002480078FCF7D2FF38BD00003485FF1F4D
:103130000D0400001136021170B506460C463D49DB
:103140003DA001F041FA0120C0032040002810D02A
:103150003A480078FCF796FF051E05D0284605F092
:10316000A3FA2846FCF794FF20460121C9034840F2
:1031700070BDE007C00F002811D03148FEF75EFE99
:103180003048FEF7AFF8002211462F48FEF73EF90F
:103190002EA001F019FA204601214840E8E704205A
:1031A0002040002813D02E48007805280BD12D4848
:1031B0000078002805D005F059FA2BA001F004FA98
:1031C00001E0FEF74FFE204604214840D0E70220F0
:1031D0002040002805D004F03FFF2046022148404F
:1031E000C6E708202040002821D025480078002884
:1031F00019D024A001F0E8F904F04EFF0546002D97
:1032000005D0AA7869782878EB1C05F0D7F9224810
:10321000007822490978884203D120460821484095
:10322000A6E72046A4E7204608214840A0E7002062
:103230009EE70000E0B0021125730A003485FF1FED
:103240005085FF1FD8B00211090400007374617229
:103250007420446576696365204556540A0D000064
:103260003585FF1F3A85FF1F68696444657653748E
:1032700061727449646C6554696D6572200A0D0051
:103280003685FF1F53656E6420486964205265705F
:103290006F72740A0D0000004D85FF1F4E85FF1FE1
:1032A000FFB585B00D461E46002004906868007882
:1032B000696849780902401884B20E98002805DD33
:1032C0004148844202D00B2009B0F0BD3E48801C2A
:1032D00084420AD03C482938844206D03A481938FA
:1032E000844202D0401C844218D1688905F026F936
:1032F000039000280FD00798009601900398417919
:10330000007902903148006801232246076802983C
:10331000B847049050E0002030804DE02A488442B5
:103320001DD12B4909880E98884202DB07200490A2
:1033300042E0274801880E98091A0F98814201DD62
:103340000F9803E0224801880E98081A30803288CE
:10335000EB680E9819180798FCF76AFE2CE01A48DB
:10336000401E844207D1042030800422E968079877
:10337000FCF75EFE20E01748844207D1022030802F
:103380000222E9680798FCF753FE15E00E48C01CBE
:10339000844206D101203080E868017807980170E6
:1033A0000AE00C48401E844206D1022030800222EE
:1033B000E9680798FCF73CFE0498002801D105F065
:1033C00055F9049880E700004B2A00004485FF1F50
:1033D0005885FF1F08290000024A1160024A106048
:1033E000704700004485FF1F4885FF1F024A116097
:1033F000024A1070704700003C85FF1F4085FF1F88
:10340000F8B504460D4616461F46164800780528AE
:1034100013D11548007800281CD0144800781449AE
:103420000978884216D13B4632462946204605F0A7
:10343000C5F810A001F0C8F8F8BD0A4800780228C5
:1034400008D004F01DFE002802DD04F071FF01E049
:1034500004F08CFF3B4632462946204604F072FEBB
:1034600000BFE9E73585FF1F3685FF1F4D85FF1F2C
:103470004E85FF1F73656E64206B657920616374F0
:10348000696F6E0A0D000000FFB585B0144600207C
:1034900004900E98002802DD0B2009B0F0BD0698BC
:1034A000406800780699496849780902401886B250
:1034B0004F48864203D04E481B38864214D10699A5
:1034C000488905F03BF8051E0DD008A8019400902E
:1034D00069792879039047480068002332460768D5
:1034E0000398B84704907CE04148401E86421BD1B7
:1034F0006846008C012814D12078002802D020785A
:1035000001280BD12278002A01D0012200E00022FC
:103510001046384A12685168884762E0802004905B
:103520005FE00D2004905CE03348864236D10121F3
:103530000E98019100906846008CC3B2224606990D
:103540000598FFF7ABF804900498002849D120783B
:1035500061780902401880B203900699488904F006
:10356000C3FF051E19D02548408D6988884203D1C4
:1035700023A0039901F028F808A801940090039A69
:10358000012A01D1022200E0032213466979287939
:10359000184A126817683246B84722E01448401C9F
:1035A00086421ED16846008C012818D12078002858
:1035B00002D0207801280FD121780698C0680170C8
:1035C0002278002A01D1022200E003221046094A93
:1035D00012685168884704E08020049001E00D20C3
:1035E00004900498002801D105F040F8049854E7AD
:1035F0004D2A00004485FF1F0229000046C2FF1F1C
:10360000417564696F206366672534580A0D0000B0
:103610007047000010B500243F494048FFF718F8F4
:103620003F493E48FFF714F83E493C48FFF710F881
:103630003D4A1B213D48FFF741FA04463B48C1691A
:103640000220FDF777FB3A4800783A49087138487C
:10365000407848713548C030408908803348D030C0
:1036600040894880012088713348017831480173CE
:10367000314841782F484173304840892D490881AD
:1036800000212C4841810121817329480178294872
:1036900001752748417827484175284830304089CE
:1036A000244908822548403041892248418200212E
:1036B0008175214801781F4801771F4841781D48CE
:1036C00041771E48603040891A4908830021194813
:1036D000418381771A4801781648203001711848D3
:1036E0004178144820304171144880304089114994
:1036F00008841248903041890E48418401212030CD
:103700008171014610390320FDF714FB094905209A
:10371000FFF76CFE204610BD6685FF1FFFFF00000F
:103720007685FF1F8285FF1FC8B102118C85FF1FA0
:103730006E85FF1F46C2FF1F7285FF1F8C86FF1F0D
:103740008A85FF1F30B50546039C0F4810180028D6
:103750000ED01B2812D1022905D10C480078207008
:103760000120188003E0032901D00020188008E020
:103770000748007820700120188002E0002018809F
:1037800000BF00BF002030BDCED5FFFF7185FF1FF9
:103790007F85FF1F30B587B004465A4804705A49E8
:1037A0005AA000F011FF0F211F20FEF73DFE06205A
:1037B000574908700D204880FF200230888005207E
:1037C000544909684865534909688865012106918B
:1037D00000210591012104910A21039102913221D6
:1037E0000191FF21F531009106AA01214A48FEF717
:1037F0007BF905AA02214848401CFEF775F9474AA3
:103800000D214548801CFEF76FF9454A0B216120C8
:10381000C000FEF769F904AA012131200001FEF77A
:1038200063F903AA02213C480C30FEF75DF902AAB5
:10383000022139480D30FEF757F901AA0221364816
:103840000E30FEF751F96A460221C5208000FEF7CE
:103850004BF9344A15210020FFF7F0FB00200690B9
:10386000022105910021049103210391012102917C
:1038700006AA04218120C000FDF7C8FD05AA012188
:103880008802FDF7C3FD04AA01212348FD30FDF79E
:10389000BDFD03AA01212048FE30FDF7B7FD02AAB5
:1038A00001212148FDF7B2FDA02529460620FEF79B
:1038B000BBFD29460720FEF7B7FD29460820FEF785
:1038C000B3FD29460920FEF7AFFD0020C043FCF7F9
:1038D00063FCFFF79FFE15491548FFF77DFD15486E
:1038E000FCF760FC144805F013FF0546294613A0B9
:1038F00000F06AFE012103480078FCF7E7FB07B0FF
:1039000030BD00004087FF1FD4B1021125730A00AB
:103910007209FF1F849BFF1F050300004C87FF1FD8
:103920004187FF1F5987FF1F060400009887FF1F6C
:103930007087FF1FA487FF1F4819FF1F696E743A25
:10394000484541502053495A453D25640A0D000021
:10395000F8B50C460120C0032040002810D0C14813
:103960000078FCF78FFB051E05D0284604F004FF05
:103970002846FCF78DFB20460121C9034840F8BDCD
:10398000E007C00F002803D0204601214840F6E799
:103990001020204000281FD0B3A000F015FEFCF737
:1039A00007FC0020B549887008800120B4494870A0
:1039B0000020B4490880B4490880B4490870B4496B
:1039C0000870B44908700221A6480078FCF77EFB15
:1039D000204610214840D2E702202040002863D032
:1039E000A748407801285BD1AB480078052857D11B
:1039F000182202219B480078FCF75CFB00254CE074
:103A0000FF218131A548FCF7D9FB002842D0FF22D5
:103A10008132A249A248FCF70BFB984BFF2281326E
:103A2000A0499F48FCF7D0FB97480088401C964966
:103A300008800888C117C90E091849114901411A9F
:103A4000C900491CCEB297480670FCF7C3FB8C48EE
:103A500040680C281FD1022182480078FCF730FB17
:103A6000042004F07DFE002808D1322204217D4884
:103A70000078FCF71FFB8CA000F0A6FD8DA000F0E5
:103A8000A3FD914805F044FE074639468FA000F09B
:103A90009BFD00E003E0681CC5B2032DB0DB00BF56
:103AA0002046022148406AE70420204000287DD0BB
:103AB00076480078062804DD0020744908707449AF
:103AC000087072480078401C704908706C48407853
:103AD000012833D17048007805282FD100262AE02C
:103AE000FF2181316D48FCF769FB002820D0FF22BF
:103AF00081326A496A48FCF79BFA604BFF228132A7
:103B000068496748FCF760FB5F480088401C5E49D5
:103B100008800888C117C90E091849114901411ABE
:103B2000C900491CCDB25F480570FCF753FB00E0AB
:103B300003E0701CC6B2022ED2DB00BF50484078B2
:103B4000012850D16548007801284CD152480078AE
:103B5000052848D14F48007805280BD16048FCF76C
:103B60003FFB002803D05FA000F02EFD02E0002004
:103B70004849087032E0464800781D2800DB31E0F3
:103B80004448007814214843554942181421012023
:103B9000FCF72CFB002820D13948407801281CD1A3
:103BA0003C480078401C3B49087000E038E0384849
:103BB0000078401C364908703648007805280DD139
:103BC0004748FCF70DFB002803D046A000F0FCFCA2
:103BD00004E000202F49087000E003E02D48007841
:103BE0000528C8DB00BF3D480078002814D12448D0
:103BF0004078012810D139490870FCF7FDFA0646D3
:103C000031463EA000F0E0FC052022490870042166
:103C100014480078FCF7F6FA204604214840AEE646
:103C20000820204000281BD0002004F099FD002827
:103C300007D12A4908701249487034A000F0C4FC2A
:103C40000AE01E22082107480078FCF733FA00201A
:103C5000224908700A4948702046082148408EE6EB
:103C600000208CE64087FF1F7374617274206164CA
:103C700070636D206576656E740A0D00B487FF1F52
:103C8000A8DDFF1F5C89FF1F5E89FF1F9487FF1F50
:103C90009587FF1FF49AFF1F3585FF1F36C3FF1F4F
:103CA000B6C4FF1F6EC2FF1F617564696F20303498
:103CB0000A0D0000737461727420766F6963652069
:103CC00073656E640A0D00004819FF1F4845415096
:103CD0002053495A453D25640A0D00007987FF1F8E
:103CE000D2C2FF1F566F696365205472616E73669E
:103CF00020656D7074790A0D0000000073746172A4
:103D0000745F7469636B3A25640A0D00566F6963CA
:103D1000652053746F70200A0D000000F0B5054651
:103D2000059C0020114E9619002E13D01B2E19D180
:103D3000022907D1012B03D126780D4F3E7008E0F0
:103D40000D2006E0032903D1012B02D00D2000E055
:103D50000A2008E0012B03D12678064F3E7000E0D0
:103D60000D2000E000BF00BFF0BD0000CED5FFFF7A
:103D70007185FF1F7F85FF1F0B7803700B88022260
:103D80001B0A43700B88801C012B02D0022B07D02A
:103D900011E08A7802704988090A417004220AE019
:103DA0008A7802704A88120A42700A798270898879
:103DB000090AC170062210467047000008B5044B7E
:103DC000009313460A46012105F084F808BD00005F
:103DD000793D02111CB50323019200930A46024B60
:103DE000122105F0A7F81CBDF587021110B5FCF7EC
:103DF0000FFA10BD13B504480078012803D101AAB9
:103E00006946FCF70BFA1CBD689CFF1F70B50F4993
:103E10000F4A087000210B468C00491CC9B213538D
:103E20000429F9D30A4C00211034FF260A460A253A
:103E30006A4315196B80491CA354C9B26E720329D9
:103E4000F4D3FCF7F1F905F019F870BD699CFF1F78
:103E5000FCE2FF1F082A01D0012070474B780A7846
:103E60001B02D2180280CB788A781B02D2184280BB
:103E70004B790A791B02D21882808A79C9790902A2
:103E80005118C1800020704770B50C46080411D548
:103E900009480078FCF7F6F8050007D0017890296A
:103EA00001D104F04DFF2846FCF7F2F80120C003D1
:103EB000604070BD002070BD699CFF1F70B5002878
:103EC0000AD1064C00252580A581A580A068002880
:103ED00002D0FCF7AFF9A56070BD000078E3FF1FCA
:103EE000072907D0052905D0042903D0062901D0C8
:103EF00002207047044A8B009A181346403B1986EB
:103F0000203A907400207047FCE2FF1F70B5060055
:103F10001BD10E4C0025214640310D744D740D7699
:103F2000606D002802D0FCF785F965655C200025EE
:103F300046433419E80020184068002801D0FCF7F7
:103F400079F96D1CEDB20A2DF4D370BD88E3FF1F23
:103F500070B50A880C460546072A07D0052A05D001
:103F6000042A03D0062A01D0022070BD012105F0E9
:103F70002BF9002804D02146284604F051FC70BDDE
:103F8000142070BD10B5001D80B2FCF759F900284F
:103F900003D00321C943FCF759F910BD38B50C46CD
:103FA000050014D0002C12D00321684605F00CFE49
:103FB0006946887840218006800E084369468870EB
:103FC0002246284606F074FB050002D006E00220D7
:103FD00038BD03226946E01CFCF72AF8284638BDA4
:103FE000F7B58EB00E9815460E4600282DD0002D40
:103FF0002BD0301DC0B20190FCF774F8040039D00A
:1040000001F0C0FB07463246201D0E99FCF746F82A
:10401000F8B20890E0703804000E0B90A0703802DF
:10402000000E0A9060703F0E277001F0A5FB01465C
:10403000102202A8FCF732F806AB214602A8019A2A
:1040400006F08CFA060003D010E0022011B0F0BD9B
:10405000089828700B9868700A98A870EF7008226A
:1040600006A9281DFCF71AF801F092FB2046FCF780
:104070003FF800E013263046E8E7000010B5064C94
:104080002070FCF7E9F806212078FFF729FF0348A4
:1040900005F06CF810BD0000789CFF1F1D9C0211FC
:1040A000F8B50E461F4C0146B500605900270028A0
:1040B00007D02422125C022A05D0032A03D0042A46
:1040C00001D01220F8BDC288B24201D00220F8BD52
:1040D00010220C30FBF7ACFF60591021353005F091
:1040E00073FD615930460B460A46253335320C3193
:1040F00006F000FB605902210278002A427807D0BE
:10410000032A0BD14170304605F028FD074605E033
:10411000042A02D0032A03D000E041703846F8BDDB
:104120000521EFE7849CFF1F70B50C46080419D5E4
:104130000D480078FBF7A6FF05000FD005F08EFEB6
:10414000002808D109480078FF2804D02946FBF749
:10415000F3FF002802D02846FBF79AFF0120C00396
:10416000604070BD002070BD789CFF1F409CFF1F09
:104170007CB50C4605001DD0002C1BD00322E11C91
:104180006846FBF755FF6946887840218006800E17
:1041900008436946887001AA284606F089FA002873
:1041A00007D10322214601A8FBF74EFF012803D0C7
:1041B00001207CBD02207CBD00207CBD10B50548DF
:1041C0000078400701D5044800E0002005F0FAFE21
:1041D000002010BDB39BFF1F6C9CFF1FFFB581B07B
:1041E0000020274C9500009060591E461746002875
:1041F00002D0112005B0F0BD002E0BD02120FDF71C
:104200006DFF317E884205D82220FDF767FF317EA1
:10421000884201D20220EDE77820FBF763FF60516E
:1042200000282AD078220021FBF71AFF61590020CC
:1042300048706259019911706259029991706259DE
:10424000FF21D1706159CF8061598E606159086238
:104250006159203108710198002803D0384605F0D3
:1042600093FC00906159012048700098002802D00A
:10427000384605F045FC0098BCE71320BAE700007B
:10428000849CFF1FFFB58DB00F98169C0E4600282A
:1042900015D0002C13D00D9804F0F2FE050011D0BB
:1042A0006178207809024018A178E27809041206A2
:1042B00089184718286AB84206D3401C04D0022047
:1042C00011B0F0BD1420FBE7002E04D02879800740
:1042D00001D40120F4E70822002106A8FBF7C0FE64
:1042E0001098001DC0B20190FBF7FCFE060017D02D
:1042F000301D109A0F99FBF7D1FE0422214630465B
:10430000FBF7CCFE1022A91802A8FBF7C7FE06ABEC
:10431000314602A8019A06F021F9050002D013E007
:104320001320CDE7082206A908A8FBF7B7FE08224C
:10433000211D08A8FBF788FE012801D0012503E014
:1043400039460D9802F050F93046FBF7D1FE284669
:10435000B6E7000010B5002405490648FEF778F9D5
:10436000054A06210548FEF7A9FB0446204610BD74
:10437000CC84FF1FFFFF0000CCB00211D484FF1FCC
:104380000149086070470000C084FF1F10B5024655
:104390000B46114600E0491C0878002803D0184657
:1043A0005B1E0028F7D1881A10BD70B504460D4673
:1043B0002A4621460020FBF755FF70BDFFB583B0AC
:1043C0000F4603981B4940001646085AFFF7DAFDCE
:1043D00004002AD00125601C2670002F03D0069906
:1043E000B847401C85B2300610D51021039804F060
:1043F000EBFE002801D0192613E06219E9B220462D
:10440000FFF7EEFD06000CD10C35ADB20421684675
:1044100001800194058169460398FFF799FD060024
:1044200004D02046FBF706FF00E01326304607B015
:10443000F0BD0000AC9BFF1F5F20704730B5BFB0E0
:1044400004462079C007C00F002819D060880D49A4
:10445000FEF720FB0546E807C00F00280FD00A48EA
:10446000418D684681800121C180084801786846F5
:1044700001726088002201A9FEF7D4FC00BF00BFD2
:104480003FB030BDC883FF1FD483FF1FBE83FF1F13
:1044900010B5024804F054FE10BD00003D44021166
:1044A000FEB50C4615461E460020019008980028CF
:1044B00001DD0B20FEBD6068007861684978090263
:1044C000401887B21148874210D1FFF7B5FF00901E
:1044D0000F4909780098884202DA0D49009808705F
:1044E000012030800A48007828700CE00948874293
:1044F00007D10220308002222846E168FBF798FDB0
:1045000001E00A2001900198D4E70000192A000078
:10451000BE83FF1F08290000FFB583B00C46154677
:104520001E460027606800786168497809024018D3
:1045300080B20290164902984018002822D1012129
:104540000C98F3B22A460191009021460398FEF799
:10455000A5F80746002F14D1287869780902401879
:1045600080B201900B480068002809D00199002909
:1045700001D1022100E00121084606490968884767
:1045800000BF01E00A2700BF00BF384607B0F0BDFA
:10459000FED6FFFFB883FF1F01880905090D00291A
:1045A0000ED1016810310160064A127812030168C9
:1045B000914205D3034A127812030168891A0160F7
:1045C00070470000709BFF1F0FB408B503A8009050
:1045D0000548009A029904F009FE0020009001B0FD
:1045E00008BC04B018470000AB43021100B585B009
:1045F000064B0FCB049301AB07C30020009001A82A
:104600000FC8FBF735FE05B000BD0000E0B1021198
:1046100010B50C4604F048FD002804D0408821461F
:10462000FBF790FD10BD122010BD000010B5044630
:10463000024909680819FBF721FE10BD749BFF1F92
:1046400038B5002000900D480078002801D12720BF
:1046500038BD00226946104600F0DEF80446002C02
:1046600003D107490098488205E0212C03D101209D
:104670000003034948822046EAE70000789BFF1FB9
:104680009CE2FF1F70B598B00024272500265E48E5
:1046900000685E4908605E4800780871FF208871F4
:1046A000102048710922FF215848C01DFBF7D8FC93
:1046B0004E22002104A8FBF7D3FC00BF44E053497D
:1046C0000968220388181022694600F0DDF94F4975
:1046D00000980968884224D1684600794B490979D5
:1046E00088421ED16846407948494979884218D1A4
:1046F0006846817946480078401E81420FDA684654
:104700008079A04201D1022600E003266846807924
:1047100004A90855684680793C49887112E004264E
:1047200016E00098401C00280AD168460079FF284E
:1047300006D168464079FF2802D104A9085501E056
:10474000042605E0601CC4B230480079A042B6DC03
:1047500000BF042E02D1202018B070BD2B488079F4
:10476000FF2800D10126012E23D100240FE0274885
:10477000847101460968220388181022234900F039
:10478000A3F9002801D01F20E6E7601CC4B21F482F
:104790000079401EA042EADC00201C49087408464B
:1047A0000079401E48741020488201201949087081
:1047B00027E0002406E004A8005D002800D105E001
:1047C000601CC4B211480079A042F4DC00BF0F485D
:1047D0000079A04215DD0D4A117912791219501E87
:1047E000FBF752FDC8B20949487401200949087015
:1047F000FFF726FFC5B2212D03D0002D01D02A20BE
:10480000AAE70020A8E70000749BFF1F9CE2FF1F9F
:10481000709BFF1F789BFF1FF7B586B00D460124E4
:10482000002000900120059018E1954A1179537CF1
:10483000059A9818FBF728FDC8B20490FF2C05DBF9
:10484000E01FF83884B2FF2C00DB03E10698002853
:1048500009D18B4A1179537C059A9818FBF714FDFE
:10486000C8B2874908740498000303900126ECE05D
:104870000098012804D100200090301986B211E080
:10488000012C0FDDB01E0019FF2803DA701E00197D
:1048900086B207E0FF200230801B201A84B201207C
:1048A0000090D5E0310103980918029174490A6813
:1048B00002995018042201A900F0E6F80698002891
:1048C00004D0012831D0022873D168E00198800318
:1048D000800F002804D0022803D0032822D11AE038
:1048E00000BF01980003800F012812D10199080D23
:1048F0000C21FBF7C9FC07460199080D0C21FBF7B9
:10490000C3FC002901D0012000E00020381884B247
:1049100000E0012407E002980005000D2860002057
:1049200009B0F0BD00BF00BF8CE001988003800F8C
:10493000002804D0022803D003282DD12AE000BF8C
:1049400001988003800F02280AD1019880B229883B
:1049500089B2884204D10899029808600020DFE7F4
:1049600001980003800F012812D10199080D0C2134
:10497000FBF78AFC07460199080D0C21FBF784FC24
:10498000002901D0012000E00020381884B200E0A6
:10499000012402E02520C3E700BF00BF52E00198D8
:1049A0008003800F002805D002282AD0032844D194
:1049B00041E045E001980003800F012817D10199DB
:1049C000080D0C21FBF760FC07460199080D0C212E
:1049D000FBF75AFC002901D0012000E00020381824
:1049E00084B20C20604329680818286003E0012481
:1049F00028680C30286008980068401C08990860F6
:104A00001CE001980003800F012812D10199080DC4
:104A10000C21FBF739FC07460199080D0C21FBF727
:104A200033FC002901D0012000E00020381884B2B6
:104A300000E0012402E0002072E700BF00BF01E0B7
:104A400006206DE700BF701C86B2FF2E00DC0FE76A
:104A500000BF00BF0598401CC0B205900949097805
:104A60000598884200DAE0E60698002802D001287E
:104A700004D101E0212053E7252051E700204FE732
:104A80009CE2FF1F709BFF1F70B504460D46164643
:104A90000B48006884420BD30A4800780003084999
:104AA00009684018A04203D9002D01D0002E01D181
:104AB000222070BD324629462046FBF7EBFBF8E783
:104AC000749BFF1F709BFF1F70B504460D46164672
:104AD000FBF7E6FB8006800E002801D0292070BD80
:104AE0000B48006884420BD30A4800780003084949
:104AF00009684018A04203D9A007800F002801D000
:104B00002220ECE7324629462046FBF7CFFBE6E7BA
:104B1000749BFF1F709BFF1F0022002913D00028E9
:104B200011D0012806D04A799206920E4A710328C4
:104B300005D007E04879C0221043487102E04020C8
:104B400002434A71012210467047000070B51248B6
:104B500000250078052108421BD02020FBF7C2FA6F
:104B60000E4C0028A06013D020220021FBF778FA19
:104B70002020FBF7B7FAE060002804D020220021B3
:104B8000FBF76EFA05E0A068FBF7B2FA0020A06020
:104B90001325284670BD0000B39BFF1F249CFF1FF8
:104BA00010B50446A00008490858002808D0A10004
:104BB000054A5058FBF76CFA0020A100024A5050F9
:104BC0000A200249087010BDC082FF1FBE82FF1F6D
:104BD0007FB505460C46A088800072490858002819
:104BE00023D1002D01D0002C02D1012004B070BDD2
:104BF000284600F0ABFA6C490870084600780A288D
:104C000003DB00F0CDFA68490870674800780A288D
:104C10000BD1664908780978491C644B19700A2140
:104C2000FBF732FBC8B2604908705F4800780A2879
:104C30007EDAA08880005B490858002825D15A49AF
:104C40000978062251432031C8B22A460E2104F0C9
:104C500093FD1022FF216846FBF702FA52490978BA
:104C60007031C8B26A46102104F086FD4E490978B9
:104C70000E2251434E4A88180E222946FBF7D8F9D6
:104C8000A088800047490C5087E0A08880004549F3
:104C900008588068002813D0A1888900414B5958D2
:104CA0008A6841490978062359432131C8B21C2139
:104CB00004F062FD0020A18889003A4A51588860BA
:104CC000A0888000374908580069002813D0A188BF
:104CD0008900344B59580A693349097806235943E6
:104CE0002231C8B21C2104F047FD0020A1888900B0
:104CF0002C4A51580861A08880002A490858406908
:104D0000002813D0A1888900264B59584A692649A2
:104D10000978062359432331C8B2102104F02CFD31
:104D20000020A18889001F4A51584861A08800E0EE
:104D300035E080001B490858C068002823D0A188AE
:104D40008900184B5958CA681749097806235943EE
:104D50002431C8B2102104F00FFDA1888900114B45
:104D60005958C9680A4610320F4909780623594331
:104D70002531C8B2042104F0FFFC0020A18889007D
:104D8000084A5158C8600B480078002801D000F04C
:104D900011FC00F05BFC012028E7002026E7012041
:104DA00024E70000C082FF1FBE82FF1FB582FF1FE5
:104DB000C0BFFF1FBC82FF1F70B588B004460D4600
:104DC0001646202200216846FBF74AF9684604800F
:104DD0005548017868460171544801786846417128
:104DE00053480178684601770698400840005149C9
:104DF0000978C907C90F084306900221069888431D
:104E00004C490978022211404908490011400843E1
:104E10000690D10106988843464909780822114036
:104E2000C908090252011140084306905100069832
:104E3000884340490978102211400909490252016A
:104E40001140084306905100069888433949097873
:104E5000202211404909890252011140084306905D
:104E600004210698884333490978042211408908AF
:104E700089001140084306902C480078002805D08E
:104E800010222D4901A80230FBF7D2F82B480078F8
:104E9000002806D0002D04D0022106988843801CEB
:104EA00006906846807D25490978002901D00121B6
:104EB00000E000210843694688756846807D2049E6
:104EC0000978002901D0042100E000210843694647
:104ED00088756846807D1B490978002901D0082122
:104EE00000E000210843694688756846807D1649C0
:104EF0000978002901D0102100E00021084369460B
:104F000088756846807D11490978002901D02021E3
:104F100000E0002108436946887531466846FCF781
:104F2000B7FF08B070BD0000A582FF1FA682FF1F5B
:104F3000B482FF1FAD82FF1FB0BFFF1FA782FF1FFC
:104F4000A482FF1FA882FF1FA982FF1FAA82FF1F42
:104F5000FFB589B00C4616461F46082F05D12046DE
:104F6000062148432230C5B204E0204606214843CA
:104F70002130C5B21C22002102A8FBF771F802AA59
:104F80001C21284604F0CAFB002810D108A880780C
:104F900007280CDB08A88078102808DCF107C90F67
:104FA00002AA129B0998FCF7D5FF019000BF0DB033
:104FB000F0BD000070B5002500240DE00E21614316
:104FC000074A88180622FF21FBF750F8002801D174
:104FD000681CC5B2601CC4B20A2CEFDB284670BD49
:104FE000C0BFFF1FF0B585B005460E4617462946DF
:104FF000062251432031C8B26A460E2104F08EFBCE
:10500000002824D10622FF216846FBF72FF800284C
:105010001DD168468089C4B2002F03D0204630439A
:10502000C4B202E02046B043044668468089A042EC
:105030000AD0684684812946062251432031C8B2ED
:105040006A460E2104F098FB012005B0F0BD002057
:10505000FBE770B50025002405E0204600F009F8C4
:105060000546601CC4B20A2C01DA002DF5D0284692
:1050700070BD30B58FB00446214606225143203121
:10508000C8B20BAA0E2104F049FB00285AD106220F
:10509000FF210BA8FAF7EAFF002853D10E22FF21C7
:1050A0000BA8FAF7DDFF1C22FF2104A8FAF7D8FFAE
:1050B0001022FF216846FAF7D3FF2146062251430A
:1050C0002031C8B20BAA0E2104F056FB054621463A
:1050D000062251432131C8B204AA1C2104F04CFB22
:1050E00005432146062251432231C8B204AA1C219D
:1050F00004F042FB05432146062251432331C8B246
:1051000004AA102104F038FB05432146062251432E
:105110002431C8B204AA102104F02EFB0543214615
:10512000062251432531C8B204AA042104F024FB0D
:10513000054321467031C8B26A46102104F01CFBB9
:10514000054300E0002528460FB030BD70B5054688
:1051500000240DE00E216143074A881806222946E3
:10516000FAF772FF002801D0204670BD601CC4B25F
:105170000A2CEFDB0A20F8E7C0BFFF1F03460A46F0
:10518000002108E08800105A984202D18800801857
:105190007047481CC1B20429F4DB0020F8E7000086
:1051A00010B500240DE00E216143084A881806223C
:1051B000FF21FAF75BFF002801D0204610BD601CDC
:1051C000C4B20A2CEFDB0A20F8E70000C0BFFF1FC3
:1051D00070B5054600240EE00E216143084A891887
:1051E000881D06222946FAF72FFF002801D0204605
:1051F00070BD601CC4B20A2CEEDB0A20F8E7000088
:10520000C0BFFF1F7FB504460D460A2C01DA002DF2
:1052100002D1022004B070BD214606225143203144
:10522000C8B26A460E2104F079FA0646002E04D16F
:10523000062269462846FAF7FBFE3046EAE71FB524
:1052400004462146062251432031C8B26A460E2147
:1052500004F064FA002804D168468089C0B204B022
:1052600010BD0020FBE7014600200DE082008A5AB5
:10527000D2438300CA52820052189278D2438300EC
:105280005B189A70421CD0B20428EFDB7047000014
:1052900010B5002426E00E216143184BCA182146A0
:1052A000062359432031C8B20E2104F037FA0028F2
:1052B00016D00E216143114A88180622FF21FAF701
:1052C000CFFE0E2161430D4A8918881D0622FF2159
:1052D000FAF7C6FE00210E206043084A801881813B
:1052E000601CC4B20A2CD6DB05480078002801D027
:1052F00000F060F900F0AAF910BD0000C0BFFF1F68
:10530000BC82FF1F7FB5054600241CE02146062213
:1053100051432331C8B26A46102104F0FFF9002836
:105320000FD11022FF216846FAF7A0FE002808D10D
:1053300029466846FDF72CF8002802D1204604B023
:1053400070BD601CC4B20A2CE0DB0A20F7E7000045
:1053500010B50446608802490978FDF7E9FB10BDE5
:10536000A082FF1F70B5054600241648007800286B
:1053700001D0012000E000200443134800780028F9
:1053800001D0042000E000200443104800780028E9
:1053900001D0082000E0002004430D4800780028D8
:1053A00001D0102000E0002004430A4800780028C3
:1053B00001D0202000E00020044321462846FDF7CC
:1053C0000BF870BDA782FF1FA482FF1FA882FF1FDA
:1053D000A982FF1FAA82FF1FF0B589B006460F46BB
:1053E00014463146062251432031C8B205AA0E2187
:1053F00004F094F9002851D10622FF2105A8FAF7FC
:1054000035FE00284AD131467031C8B201AA1021B8
:1054100004F084F900283FD1009001A8FFF723FF92
:10542000002F0ED11022002101A8FAF71FFE00283C
:1054300024D11022002101A8FAF712FE01200090C9
:105440001CE001A93846FFF799FE0546002D0AD158
:10545000002C04D001A9FFF791FE051E02D1002007
:1054600009B0F0BD2F80A878A04206D0AC70002C07
:1054700001D1002028800120009000BF0098002862
:1054800009D001A8FFF7EFFE31467031C8B201AA7A
:10549000102104F071F900BF0120E1E70020DFE7EF
:1054A00010B5044620791E2804D160880021FBF73E
:1054B0006BFF00E000BF00BF10BD70B5044620794F
:1054C000002806D125462A89E9886888FCF7C2F8B1
:1054D00000E000BF00BF70BD70B504460125207814
:1054E000B02808D0B1280AD0D0280CD12046FBF72C
:1054F000C3FD054608E02046FFF7D2FF04E0204642
:10550000FFF7DBFF00E000BF00BF284670BD0000D2
:1055100030B585B0054623480068002809D12248E7
:105520000223224A224900900120FDF7A3FB1D49D6
:1055300008602AE00220002104AA03AB0092019136
:10554000029019480288174801682846FDF750F96B
:1055500000280FD16946087B497B0902401884B2B4
:10556000002C06D00F480068418922462846FCF7E7
:1055700071F800BF00230C4802880D4909480068F3
:10558000FDF7AAFB0749086000BF0648006800282D
:10559000D0D104480068002802D1012005B030BDF8
:1055A0000020FBE7C482FF1FC882FF1F70B20211F8
:1055B000FFFF000010B5FAF77FFE002412E00E2175
:1055C00061430A4A88180622FF21FAF74FFD002896
:1055D00006D10E206043054A81180020FAF772FEBA
:1055E000601CC4B20A2CEADB10BD0000C0BFFF1F64
:1055F00070B504460D46164631462846FFF7E8FAD0
:1056000000281DD0A1000F4A51588888FFF780FF5D
:10561000002815D00C48006800280ED00A48006801
:105620004068002809D0A100064A515888880649D8
:10563000096800224B68012198472046FFF7B0FA1D
:1056400070BD0000C082FF1FB882FF1F08B5FFF7C2
:10565000B1FC012802DD0220009001E00A20009048
:105660006A4601210520FDF7E9FC08BD002909D0A3
:10567000012807D1497989098901C02902D0402927
:1056800001D00220704703207047FFB500200E466E
:1056900008701AE01C5C401CC5B2002C17D02819F9
:1056A000904214D85F5D6D1CEDB2384600F0C5FF26
:1056B000002806D0641EE0B2307000998F4202D1FB
:1056C000581904B0F0BD4019C0B29042E2D3002096
:1056D000F7E7000010B5044C2068002803D0FAF763
:1056E00007FD0020206010BD109CFF1F70B50E4DFF
:1056F00084002859002815D0006A002801D0FAF744
:10570000F7FC2859406A002801D0FAF7F1FC285923
:10571000806A002801D0FAF7EBFC2859FAF7E8FC78
:105720000020285170BD00001C9CFF1F10B5044CC8
:105730006068002803D0FAF7DBFC0020606010BD31
:10574000149CFF1F011E044805D1044989780029D3
:1057500001D00248801D7047F0E2FF1FB29BFF1F7F
:105760000148807870470000B29BFF1F01484068E5
:1057700070470000E0E2FF1F0148806870470000AA
:10578000E0E2FF1F0148C06800687047E0E2FF1FC9
:1057900010B50748C0680168491C016005480078D9
:1057A000FF2803D001218903FAF790FC10BD000007
:1057B000E0E2FF1FB29BFF1F02484068002800D0B4
:1057C000012070470C9CFF1FFFB581B00F460D9E56
:1057D0000A9D039803F054FC040042D0019800286D
:1057E0003FD120791021084320710499490702D53F
:1057F0000221084301E0FD21084020710B99284651
:1058000008430C9908433043207902D0042108430F
:1058100001E0FB2108402071002E06D030691022E3
:1058200020623146A018FAF703FC002D01D0002FAA
:1058300005D00B98002814D0012F08D011E0606A21
:10584000002801D0FAF754FC1C21284606E0606AC3
:10585000002801D0FAF74CFC1C210B98FAF74EFCFB
:1058600060620398224C8700E05900283ED0002D4A
:105870000FD0006A002806D11C20FAF733FCE1594A
:105880000028086205D0E0591C22006A2946FAF770
:10589000CFFB0C98002810D0E059406A002806D1B0
:1058A0001620FAF71FFCE1590028486205D0E0599C
:1058B0001622406A0C99FAF7BBFB002E10D0E05973
:1058C000806A002806D11420FAF70CFCE159002860
:1058D000886205D0E0591422806A3146FAF7A8FBA5
:1058E0000B9B049A0399019803F0F4FF05B0F0BDF7
:1058F0001C9CFF1FF3B581B0019803F0C1FB0500AC
:1059000029D00E20FAF736FC040024D02620FCF71C
:10591000E5FB060000D12E78D020207000276770AC
:105920000B20A0700622E91DE01CFAF781FB01980C
:1059300060810298C1070120002901D0207300E096
:1059400027730299890701D5607300E06773F0B28D
:105950002146FAF7F1FBFEBD10B581881F4B0124EB
:10596000CA1A994237D011DC1D4BCA1A994219D074
:1059700007DC1C4A8A1810D0022A1ED0032A29D11B
:105980001BE0472A27D0482A24D124E01300FAF745
:1059900061FB06212222222222218068007800F069
:1059A0000DFE08E08068827841781202891889B279
:1059B000007800F063FE04460DE0094A921E914211
:1059C00001D1012200E0002280680178104600F039
:1059D0003DFE00E00024204610BD000053200000E2
:1059E0000A200000FADFFFFF70B51A4D1A4A01467F
:1059F000002628781268194C01290CD0002A09D0F9
:105A000017490978490705D50221FAF759FB66803D
:105A1000FFF760FE70BD6188002903D0114B1B7831
:105A2000002B05D0002AF5D01078FCF72DFB70BDB7
:105A30003C2902D33C39618070BD0221FAF740FB5A
:105A400062887D20C000424302212878FAF732FBA9
:105A5000668070BD419CFF1F109CFF1F249CFF1F90
:105A6000B39BFF1FB59BFF1F08B5418900910389B8
:105A7000C2888188C07800F0EDFC08BDF0B504460E
:105A80008088A12189004843304987B009684018BF
:105A9000FF30FF300230A1794167002C54D02C4DEB
:105AA0006868002823D006782A480068002804D0B7
:105AB0004168002901D0002088472146E07908315B
:105AC0000591FFF7D3FDE0710246277D638A218AA5
:105AD000E089019002A88AC0A0880090E078314651
