:020000041102E7
:1000000003B40148019001BDADAE000003B4014846
:10001000019001BD456B010003B40148019001BD91
:100020000189000003B40148019001BDC53F0000F3
:1000300003B40148019001BDE94C010003B401483B
:10004000019001BDC95C010003B40148019001BDEC
:10005000A52EFF1F03B40148019001BDF52EFF1F1F
:1000600003B40148019001BD0933FF1F03B40148E7
:10007000019001BDB30E000003B40148019001BD21
:100080009D32FF1F03B40148019001BDA133FF1F42
:1000900003B40148019001BD810E000003B4014882
:1000A000019001BDD1A5000003B40148019001BD3C
:1000B000090E000003B40148019001BD810E00004B
:1000C00003B40148019001BD75A9000003B40148C3
:1000D000019001BD9DA9000003B40148019001BD3C
:1000E0000936FF1F03B40148019001BD618900007A
:1000F00003B40148019001BDAD31FF1F03B40148B5
:10010000019001BDD12CFF1F03B40148019001BD36
:10011000552EFF1FF8B5D349D14A002004464A6046
:100120008300401CD450FF28FADD4868CE4A0146BF
:1001300080318A606E22C262CC4A1278002A01D0D5
:100140007F22C2620A220265C94A13788363C94BBF
:10015000C36115781023022D08D01578012D05D024
:100160001578032D02D01578042D00D10362C24DFD
:1001700045611925AD0185613725CD6036272826D3
:10018000C7630825466405644F6032270F603B272C
:10019000CF634127CF6439274031E0C132274F6018
:1001A00002274F6142270831E0C11E274F60CE6011
:1001B0008D6005264E6142260E615A2660390E6119
:1001C0004D613C258D61AF25ED000560AB4D0563AC
:1001D0001578022D09D01578012D08D01578032D3A
:1001E00007D01578042D06D007E0152504E04360FC
:1001F00003E00E2500E00C254560FF252D358560C8
:10020000C560FF25F53505619D4D85647D25ED00B3
:100210009C4ECD67C66445629B4D85627325C5655E
:10022000062545658565C51D0826F93502272E601A
:1002300047664B27FF0087660927C766934F076706
:100240004667BE108467C667914F8E4E3E60167833
:10025000022E09D01678012E0AD01678032E0BD064
:100260001278042A0CD00EE01A22CA61212205E07D
:100270001422CA61182201E01322CB610A6202E053
:100280000E220B62CA617E4A8A627D22D2008A6790
:1002900064224A620522CA6202220A63C8228C636F
:1002A0004A63382169607B4929647B49A9614B21F4
:1002B000C900E9617349FF30643929627D21090170
:1002C0006962EC661E212C67A9667049A965E9651B
:1002D00089102966696469677049A9677049714A1C
:1002E0008130E967026082604160FF21F531C160C1
:1002F00001616E486C495A4A81606D49803A1161CA
:100300006A496C4A80318A626B4ACA626B4A82616E
:100310006B4AC2626B4A02636B4A64484038C263EC
:100320006A4ACA616A49816360496A4840318861A2
:100330006A49694888605D48694A80384260694A0C
:100340004263694A0A626949816058496848C0390C
:10035000C860FFF755FE0120FFF758FEF8BDF3B562
:100360000746644881B0C169634A1140FF310931D1
:10037000C161002613E000252C461120FFF74CFE3A
:100380005C48406A8007800F610088402843641CF5
:10039000E4B20546102CF0D301C7761CF6B20298E1
:1003A0008642E8D3FEBD10B52E4C607800280AD1F5
:1003B00004215248FFF7D3FF504804211030FFF7C3
:1003C000CEFF0120607010BDF0B500248BB00D464B
:1003D0000646102902D901200BB0F0BDFFF7E3FF5C
:1003E000464900200A5C401C1419C0B21028F9D3F9
:1003F000002C03D0102D03D90B20EDE70E20EBE7E6
:100400003F483E4C0023006802A91034E25CC75C00
:100410007A40CA545B1CDBB2102BF7D306AA3748CC
:10042000FFF700FE102D00D910252A4606A93046F8
:10043000FFF7FEFDFFF702FE216840182060FFF77E
:10044000FDFD616840186060FFF7F8FDA168401885
:10045000A060FFF7F3FDE1684018E0600020BBE713
:100460000004FF1F8C4EFF1F787FFF1F184EFF1FD9
:100470004A0AFF1F3A07000080C3C9019A02000020
:1004800050C30000280A00006A180000204E000037
:10049000F009FF1F0040001168100000DC0500009B
:1004A00040420F00102700002939FF1F0001FF1FE5
:1004B0003123FF1FE141FF1FB944FF1F3D20FF1FF4
:1004C000D121FF1F5920FF1F412CFF1F9D4BFF1FF4
:1004D000C149FF1F6D36FF1FB124FF1F0002FF1F20
:1004E000B536FF1F7D37FF1FC136FF1F7136FF1F57
:1004F000E124FF1F40F0004000FEFEFF4873FF1F95
:10050000AC4EFF1F002809DB00BF00BFC206D20EA1
:1005100001219140024A116000BF00BF70470000F6
:1005200000E100E0002809DB00BF00BFC206D20ED8
:1005300001219140024A116000BF00BF70470000D6
:1005400000E100E010B5002819DB1A4A03231B0262
:10055000D21883089B00D2588307DC0EFF23A340E8
:100560009A438B071B0E8407E40EA3401A43114BDA
:10057000032424021B198408A4001A5118E00E4A0F
:1005800003071B0F083B9B089B00D2588307DC0E18
:10059000FF23A3409A438B071B0E8407E40EA3405E
:1005A0001A43054B0407240F083CA408A4001A5161
:1005B00010BD000000E100E01CED00E010B50028D7
:1005C00019DB1A4A03231B02D21883089B00D25856
:1005D0008307DC0EFF23A3409A438B071B0E84077F
:1005E000E40EA3401A43114B032424021B19840870
:1005F000A4001A5118E00E4A03071B0F083B9B0882
:100600009B00D2588307DC0EFF23A3409A438B073D
:100610001B0E8407E40EA3401A43054B0407240F66
:10062000083CA408A4001A5110BD000000E100E03D
:100630001CED00E010B5002819DB1A4A03231B0249
:10064000D21883089B00D2588307DC0EFF23A340F7
:100650009A438B071B0E8407E40EA3401A43114BE9
:10066000032424021B198408A4001A5118E00E4A1E
:1006700003071B0F083B9B089B00D2588307DC0E27
:10068000FF23A3409A438B071B0E8407E40EA3406D
:100690001A43054B0407240F083CA408A4001A5170
:1006A00010BD000000E100E01CED00E010B50028E6
:1006B00019DB1A4A03231B02D21883089B00D25865
:1006C0008307DC0EFF23A3409A438B071B0E84078E
:1006D000E40EA3401A43114B032424021B1984087F
:1006E000A4001A5118E00E4A03071B0F083B9B0891
:1006F0009B00D2588307DC0EFF23A3409A438B074D
:100700001B0E8407E40EA3401A43054B0407240F75
:10071000083CA408A4001A5110BD000000E100E04C
:100720001CED00E0112804D101214904154A116093
:1007300026E0122804D101218904124A11601FE029
:10074000132804D10121C9040E4A116018E01428AD
:1007500004D1012109050B4A116011E0152804D1CB
:1007600001214905074A11600AE0162804D1012138
:100770008905044A116003E00121C904014A11609E
:1007800070470000484EFF1FF0B587B005460E4683
:10079000174600242878002801D1134800E01348A8
:1007A0000446E06C02210840E0640197684601724B
:1007B00000214172817220466030039068460174C6
:1007C000417481740596017601A9002000F032F988
:1007D000002000F07DFAE06C01210843E064002075
:1007E000606507B0F0BD0000006000400070004090
:1007F000F7B586B005460E4600BF2878002801D11F
:100800001C4800E01C480446E06CC007C00FE064D0
:10081000287830214843194947180898009000204B
:1008200069460871B87A072804D1002168464171E9
:10083000417303E00121684641714173002168461C
:10084000817102960221017300218173204660307C
:100850000490684601756946002000F0EBF800201E
:1008600000F036FAE06C02210843E06400202065C5
:1008700009B0F0BD0060004000700040C472FF1F6E
:100880007047000010B50320FFF7DEFB02211320A4
:10089000FFF70CFF1320FFF745FE03480349C8602C
:1008A00001200349886110BD6D090211C003FF1FBB
:1008B0008003014001461048814201D10120704768
:1008C0000E48814201D10320F9E70D48814201D150
:1008D0000920F4E70B48814201D10B20EFE70A48D9
:1008E000814201D10D20EAE70848814201D10F2061
:1008F000E5E70020E3E70000606000406070004032
:10090000105000401058004000400040009000404F
:1009100001461048814201D1022070470E488142B1
:1009200001D10420F9E70D48814201D10A20F4E702
:100930000B48814201D10C20EFE70A48814201D1E6
:100940000E20EAE70848814201D11020E5E70020A7
:10095000E3E700006060004060700040105000401D
:1009600010580040004000400090004010B50024A6
:1009700017E00D48806A0121A140084000280ED0F0
:10098000204600F0DFF9E100084808184068002818
:1009900005D0E20005481018416820468847601CD1
:1009A000C4B2042CE5DB10BDC00201402873FF1F58
:1009B00070B50548C56B044840300468C4602946DA
:1009C000204600F025FD70BD0080004010B50A4CA7
:1009D0006069002800D110BD207E002805D0074A9C
:1009E0002146002001F042FB04E0044A2146002099
:1009F00001F05CF900BFEEE7C472FF1F0060004029
:100A000010B50A4C6069002800D110BD207E002876
:100A100005D0074A2146012001F028FB04E0044AE2
:100A20002146012001F042F900BFEEE7F472FF1FFA
:100A300000700040F0B587B004460D4600200590D8
:100A40000490039074488069029001208007806AB6
:100A5000019072480078002802D1122007B0F0BD42
:100A6000042C01DB0620F9E7E1006C48001D0E189C
:100A70003078002801D10720F0E76948006A012199
:100A8000A140C9B20840002802D1B078002801D0A6
:100A90001120E3E70120A040C0B26149803988639A
:100AA0008815A0400861A868FFF732FF0690286902
:100AB000FFF700FF0746069800280DD0002F0BD047
:100AC000032004900698401EC006C00E791EC90679
:100AD000C90D0843039012E00698002807D00220B1
:100AE00004900698401EC006C00E039007E0002F39
:100AF00005D001200490781EC006C00D039011217E
:100B000009062869884212D94649286988420ED8C0
:100B10000020F0700298002802D000203E49886131
:100B20000198002805D101208107886201E0012099
:100B3000F070582060433C4A8018A9680160582032
:100B40006043801829698160002158206043801823
:100B50000161002C01D1354800E01F20296888423E
:100B600001D206207AE728884105490D58206043C4
:100B70002D4A8018C1615820604311464018406CCE
:100B80002B4908400399C90108435821614389183A
:100B9000486400215820604380180164049840078D
:100BA000400AA9794907C90B0843A97B4907890C61
:100BB000084369794907490E0843697B4907090FCA
:100BC000084329798907490D0843297B8907C90DFD
:100BD0000843401C05905821614389180598886195
:100BE000287D00280AD09015A0400121A14008438B
:100BF0000B4980390861012070700AE00120A04093
:100C0000C0B20749803988638815A0400861002078
:100C10007070002022E7000040C800402473FF1FCE
:100C2000800301400000081100000140FF070000A0
:100C30007F00FFFF10B50320FFF706FA0320FFF740
:100C400009FA02211320FFF731FD1320FFF76AFC98
:100C50000B480C49C8600C4A00210320FFF700FA3A
:100C6000C4B2002C0AD1012008490870202107488D
:100C7000001DFFF7FBF9012005498861204610BDE2
:100C80006D090211C003FF1F850802112473FF1FA5
:100C90008003014003B50D480078002801D11220DF
:100CA0000CBD68460278042A01DB0620F8E7D30071
:100CB0000648001D19180878002801D00720EFE722
:100CC00001984860012008700020E9E72473FF1FA5
:100CD00070B504460C480078002801D1122070BD80
:100CE000E1000948001D0D18FF200130A04001213E
:100CF000A1400843054908620120A8700320FFF7BE
:100D0000BBF90020EBE700002473FF1F80030140C4
:100D100070B504460A480078002801D1122070BD41
:100D2000042C01DB0620FAE7E1000548001D0D1840
:100D30006878002802D1204600F042F80020EEE753
:100D40002473FF1FF8B50446194886690006876AB0
:100D500018480078002801D11220F8BD042C01DBCE
:100D60000620FAE7E1001348001D0D18E878002876
:100D70000DD1002E02D002200D498861002F06D12E
:100D8000002001218907886201200B4908600120A9
:100D9000A040C0B2094988638815A0400749803146
:100DA00008620020A8700320FFF76CF90020D4E748
:100DB00040C800402473FF1F00C0004000030140F2
:100DC00070B5044600250A480078002801D1122099
:100DD00070BD05E06D1C07480068002800D000E0E9
:100DE000F8E700BF2046FFF7ADFF0020F0E7000066
:100DF0002473FF1FC002014030B504460D46072C86
:100E000001DB102C01DD062030BD002D0CD00021AF
:100E1000204600F007F909480068E11F01228A40D6
:100E200010430649086007E004480068E11F0122FA
:100E30008A409043014908600020E5E700380040FF
:100E4000002907D0074AD268012383401A43054B83
:100E5000DA6006E0034AD268012383409A43014BDB
:100E6000DA60704700380040FCB504460F460020A9
:100E700001900025FF2C27D02046E117890F091883
:100E80008E10E117890F091889108900611A0091E5
:100E90000099C806050E681DC0B201900B48B1004C
:100EA00041580198421B521C01209040421EAA400A
:100EB000084690433946A94008430449B200885087
:100EC00001212046FFF7BCFFFCBD000018380040A0
:100ED00010B511480078002801D0072010BDFF216F
:100EE0002D310D48FFF7C2F801200B490870002092
:100EF0000A49086348630A490862486202211020CF
:100F0000FFF720FB1020FFF7FDFA064A06490D20E7
:100F1000FFF7A6F80020E1E7E070FF1F0080004027
:100F200080F00040291202116D11021110B5024625
:100F30000B46172A01DB052010BD1248816B0120EA
:100F4000904001430F488163416B012090400C4663
:100F5000844321460B484163C16B012B03D101201F
:100F60009040014304E0012090400C468443214618
:100F70000448C163016B01209040014301480163B3
:100F80000020D9E70080004010B5002908D0094AA8
:100F90005269831E01249C402243064B5A6107E09C
:100FA000044A5269841E0123A3409A43014B5A61AB
:100FB00010BD00000038004030B504460D46002D3D
:100FC00005D11648005D012801D1072030BD002160
:100FD0002046FFF735FF022C01D0032C03D101215D
:100FE0002046FFF7D1FF00212046FFF705FF012D26
:100FF00007D10B4840680121A140084308494860D7
:1010000009E0074840680121A1408843044948603D
:101010000221024801550020D8E70000E170FF1FBF
:1010200000800040F0B5024655005519174E735D1B
:1010300055005519AD196C7855005519AD19A8789A
:10104000132A11DA124D9E00AE59271A7F1C012572
:10105000BD406F1E87403546BD430E4686402E4339
:101060000B4D9F00EE5110E0094D083D6E69271AA7
:101070007F1C0125BD406F1E87403546BD430E468F
:1010800086403543024E083E7561F0BDCB25021106
:1010900008F0004001460948406801238B40184091
:1010A000002802D00548026802E004484030026986
:1010B0001046C840C007C00F7047000000800040C5
:1010C00030B5002926D0142803D0152801D01628C1
:1010D0000BD1244A52694300234C1B195C7801232D
:1010E000A3401A431F4B5A613AE01E4A083243009C
:1010F0001D4CE3569B00D25843001B195C7801231A
:10110000A3401A43174B08334400174D2C57A40033
:101110001A5125E0142803D0152801D016280BD128
:10112000104A53694200104C121954780122A2400F
:1011300093430C4A536113E00A4A083243000A4CB5
:10114000E3569B00D3584200121954780122A24062
:101150009343044A08324400034D2C57A400135112
:1011600030BD000000F000401026021170B50024D0
:101170001FE01148005D012803D1E0B20121FFF713
:101180009FFF0D48005D022812D1E0B2FFF782FFF9
:10119000012148400546E0B2294600F07BF8E0B264
:1011A000FFF778FF0C216143034A17328918487012
:1011B000641C172CDDDB70BDE170FF1F10B5142817
:1011C00015DA002909D0164A126A164B1C5C012355
:1011D000A3401A43124B1A6220E0114A136A114AC3
:1011E000145C0122A24093430D4A136216E00029C9
:1011F0000AD00B4A526A0B4B1B5C203B01249C40DB
:101200002243074B5A6209E0054A526A054B1B5CB0
:10121000203B01249C40A243014B5A6210BD0000B8
:1012200080F00040B425021170B502211020FFF7B4
:1012300089F91020FFF766F9002426E0022C01D07E
:10124000032C03D1E0B20121FFF79EFE1048005DA0
:1012500001280CD1E0B2FFF71DFF0546E0B2294698
:1012600000F06CF8E0B20021FFF72AFF00BF0C206D
:10127000604307491731085C002805D0E0B200F050
:1012800079F8E0B200F036F9641C172CD6DB70BD9B
:10129000E170FF1FF8B504460F466000201823498F
:1012A0000D5C6000201840188078401EC6B22048AF
:1012B000005D022800D0F8BD1E48806B0121A140CE
:1012C00008431C498863132C15DA002F09D11A48EA
:1012D000A90040580121B14001431748AA0081509C
:1012E0001EE01548A90040580121B1408843124929
:1012F000AA00885014E0002F09D10F48083840692F
:101300000121B14008430C490839486108E00A4806
:10131000083840690121B1408843074908394861CC
:1013200001212046FFF74AFF00BFC4E7CB25021189
:10133000E170FF1F0080004008F0004030B5044617
:101340000D46002D07D00A4800680121A14008433E
:101350000749086006E0064800680121A14088436B
:101360000349086001212046FFF726FE30BD00003A
:1013700000800040F8B50446244D002600270C20CC
:10138000604340194068002807D10C206043401991
:101390008068002801D11220F8BD02211B481738AF
:1013A000015501210C206043295400212046FFF7FC
:1013B00003FE0C20604340194068002810D00C2028
:1013C00060434019806800280AD02046FFF762FE7B
:1013D0000746002F01D1012000E0002006460EE064
:1013E0000C20604340194068002801D0012606E027
:1013F0000C20604340198068002800D00026314648
:101400002046FFF793FD0020C6E70000F870FF1F9D
:10141000F3B581B00646234D002440E00120A040F2
:10142000304000283AD00120A0400299084000280E
:1014300001D0012000E000200746E0B2394600F06C
:1014400033F80C20604340194068002810D00C206D
:1014500060434019806800280AD0012F01D0012084
:1014600000E000200746E0B23946FFF75FFD14E0D8
:101470000C20604340194068002804D0E0B20121EC
:10148000FFF754FD09E00C206043401980680028F4
:1014900003D0E0B20021FFF749FD00BF641C172C08
:1014A000BCDBFEBDF870FF1F70B504460E46104D44
:1014B0000C20604340194068002808D0012E06D156
:1014C0000C20604340194268204690470EE00C20F3
:1014D000604340198068002808D0002E06D10C20F7
:1014E00060434019002182682046904770BD00008B
:1014F000F870FF1F70B504462046FFF7CBFD054688
:10150000002D01D0012000E0002006460C206043A1
:10151000044940184078A84203D031462046FFF7DE
:10152000C3FF70BDF870FF1F0FB438B50446002527
:10153000002C02D02078012804DD062038BC08BC2D
:1015400004B018472078302148431A494518686983
:10155000002801D01120F1E721780B31C8B2FEF745
:1015600073FD6846C07D00906846837D427D017DA5
:10157000204600F0A1F86846037F427F2046069986
:1015800000F030F8142205A92846FEF781FD00205E
:1015900028776C6108A84078002804D010212046E4
:1015A00000F048FB02E0204600F022FB00202876F5
:1015B00000BFC3E7C472FF1F30B503460C460021CD
:1015C000002B02D01878012801DD062030BD1878E4
:1015D00030256843024D41190A73CC720020F5E7AB
:1015E000C472FF1FFFB583B00646002700242248BF
:1015F0000290FEF753FD01903078012800D10127B9
:101600003078002801D11D4800E01D480446002024
:1016100020720120B840391D01228A4010430299EE
:10162000C96A08430299C86220880F21890188434A
:101630000599890108430699090208432080049905
:101640004A08019950180499FEF72EFD85B2022D23
:1016500001DA022503E00B48854200DD054665619D
:101660000420A0610120E0610020E06201202074DC
:10167000207207B0F0BD0000003000400060004064
:1016800000700040FEFF000002460020002900D14B
:1016900070471378002B01D1054B00E0054B18462D
:1016A000002303724B1E83800123037200BFEFE708
:1016B0000060004000700040F8B504460D46164634
:1016C0001F462078002810D110212846FFF7CCFBB8
:1016D00011213046FFF7C8FB12213846FFF7C4FB43
:1016E00013210698FFF7C0FB12E0207801280FD1E4
:1016F00014212846FFF7B8FB15213046FFF7B4FB4D
:1017000016213846FFF7B0FB17210698FFF7ACFB10
:10171000F8BD000010B5024600201378002B01D15F
:10172000074B00E0074B18460023037203680324AD
:101730002402A3430C02234303600123037210BD60
:101740000060004000700040FFB585B006460E9F67
:1017500000200390002E02D03078012802DD062000
:1017600009B0F0BD59484069B04205D05748406CB7
:10177000B04201D01220F3E730783021484353497A
:10178000441825461C35002F02D10F98002805D09B
:101790000698032802DC0798002801D10620DFE71D
:1017A000207F012801D11120DAE7207B002802D018
:1017B0000F98002804D0E07A002803D0002F01D130
:1017C0000620CDE73078002801D1414800E04148AB
:1017D000039030460699FFF79DFF0698012803DD28
:1017E00030460F99FFF750FFA07B012807D16078A2
:1017F0000021FFF725FB60780021FFF79FFD607B4C
:10180000002817D10F983B4600903046089A079958
:1018100000F074F80490A07B012806D1207E0028F7
:1018200003D160780121FFF70BFB049800284BD00F
:101830000D2095E7304600F0DBF9A888B84201DAC0
:1018400003208DE70798002804D0A868002801D15C
:10185000032085E7002028823A46A8680799FEF70A
:1018600029FC03982030007A02210840002825D066
:101870000898002801D00898E86031780B31C8B288
:10188000FEF7FAFB082F01DB082000E03846029043
:10189000A86800280AD0298A029808182882029885
:1018A000C1B2079A039800F017F805E00298C1B298
:1018B0006A46039800F010F86F8000BF012020777F
:1018C0001121304600F0B6F9002049E7C472FF1F2D
:1018D0000060004000700040F8B505460E4617460F
:1018E0000024FEF7EDFB03E0385D2866601CC4B2FF
:1018F000B442F9DBFEF7EAFBF8BD0000FFB585B0A6
:101900000D460E980490089F002405980078302119
:1019100048438349461805980078002801D181483A
:1019200000E081480446FEF7D7FB01900E9800289E
:1019300008D0307B002805D00E9A07990598FEF74D
:1019400023FF0AE00898002807D0F07A002804D086
:101950002946089A0598FEF74BFFC1E02820005D54
:1019600002210840002878D0002F76D0F07A002895
:1019700073D1206A0821081A03900398B84200D94D
:101980000397002D5BD003980300FEF7ABFB0956CD
:1019900006090E151E2936455600287820664DE0AA
:1019A000287820666878206648E02878206668787D
:1019B0002066A878206641E028782066687820664E
:1019C000A8782066E878206638E02878206668786D
:1019D0002066A8782066E8782066287920662DE0C1
:1019E0002878206668782066A8782066E8782066DF
:1019F000287920666879206620E028782066687853
:101A00002066A8782066E8782066287920666879BC
:101A10002066A879206611E028782066687820661C
:101A2000A8782066E878206628792066687920669C
:101A3000A8792066E879206600E000BF0BE000206E
:101A4000029004E0002020660298401C0290039956
:101A500002988842F6D303983F1A0E98002805D1C1
:101A6000002F0BD002D0F07A002807D10E98002862
:101A700005D0002F03D1307B002800D031E00E9834
:101A8000002820D0307B00281DD1606A002816D0A5
:101A9000606A03900020029009E0206EC1B20798AE
:101AA00001700798401C07900298401C029003990F
:101AB00002988842F1D303990498401A049004983C
:101AC000002800D10DE00198FEF712FB7D21C9002E
:101AD000884205D915A0FEF711FB0D2009B0F0BD15
:101AE0003CE700BF307B002802D1F07A002802D00A
:101AF0000020FFF70DF90BE00198FEF7F9FA7D21C0
:101B0000C900884204D909A0FEF7F8FA0D20E5E7DC
:101B10002820005DC007C00F0028EDD100BFDDE721
:101B2000C472FF1F006000400070004068616C5F7D
:101B30007370695F786D69745F706F6C6C696E67E4
:101B400020544F0A000000007FB5089C600118492E
:101B5000085C002802D0112004B070BD6846407AAD
:101B6000002801D00520F7E76101114A88182021DB
:101B7000FEF77CFA60010E49401869462EC9103004
:101B80002EC0204600F006FC01206101084A505496
:101B9000002C05D1074A00210820FEF761FA04E075
:101BA000054A00211920FEF75BFA0020D4E7000067
:101BB0000C72FF1FE5240211EF24021170B50446D8
:101BC0000D461646600108494018807E002805D061
:101BD00032462946204600F023FB70BD3246294696
:101BE000204600F0D5FAF8E70C72FF1F704700009E
:101BF00010B500220178002901D10B4900E00B4902
:101C00000A4603780E3359B2002909DBCC06E40EEC
:101C10000123A340064C2360BFF34F8FBFF36F8FA8
:101C200000BF0021D16210BD006000400070004084
:101C300080E100E070B504460D46002620780028BB
:101C400001D1144800E01448064611202840F062F3
:101C50001048864203D111481149886302E01148B7
:101C60000F49C86321780E3148B2002809DB00BF54
:101C700000BFC206D20E012191400B4A116000BF85
:101C800000BF00BF21780E3148B20221FEF7D2FC1E
:101C900070BD00000060004000700040CD090211DE
:101CA0008003FF1F010A021100E100E0F7B586B0D2
:101CB0000E46154634461C34286BC1B20591684661
:101CC000007DC007C00F002822D0286A0821081A0A
:101CD000C0B20190002717E0A068002806D0218A32
:101CE000481C2082A068405C286604E0208A401CD2
:101CF000208200202866208A6188884202D1102034
:101D0000E86204E0781CC7B201988742E4DB00BFB8
:101D10006846007D10210840002833D0E869C0B231
:101D20000190002708E0286EC1B2628A501C6082D0
:101D3000E0688154781CC7B201988742F3DB608A5F
:101D4000618888421ED1B07B012803D170780121BF
:101D5000FFF776F800202070E06060826946069800
:101D6000087202216846417206990B31C8B2FEF72B
:101D700089F902A83169884701216846417202A8A1
:101D80003169884709B0F0BD10B5002000F09CF81B
:101D9000C007C00F10BD00001CB500240F49C86863
:101DA0000969019100900D480EC80D48FFF7BCFB72
:101DB000C4B2002C04D00BA0FEF7A0F920461CBD35
:101DC000104803C8FEF766FFC4B2002C04D00EA072
:101DD000FEF794F92046F2E72046F0E7504EFF1F49
:101DE0004C4EFF1F73706920696E697420657272B2
:101DF00021706C6561736520636865636B2069742D
:101E0000210A0000644EFF1F646D6120696E6974D1
:101E10002065727221706C6561736520636865630B
:101E20006B206974210A0000FEB504460D46164673
:101E30000DA0006802902002010E68464172200445
:101E4000010E68468172C472012200210748FFF723
:101E5000B3FB04202B4602AA0321019600900348FD
:101E6000FFF772FCFEBD0000030000004C4EFF1F98
:101E70001FB512A0006803900020029000221146B6
:101E80000F48FFF799FB0320012102AB03AA009141
:101E9000019001460A48FFF757FC00280BD168461D
:101EA000007A01046846407A000208436946897A4C
:101EB000084304B010BD0348FBE700009F0000008A
:101EC0004C4EFF1FFFFFFF001FB50446002003908C
:101ED0000290002C02D10520039001E035200390F0
:101EE000002211460B48FFF767FB0220012102ABDD
:101EF00003AA0091019003210648FFF725FC002862
:101F000006D16946087A0002497A084304B010BD38
:101F10000148FBE74C4EFF1FFFFF00003EB50446A3
:101F200011A0006802902002010E68464172200450
:101F3000010E68468172C47200F05AF80022114600
:101F40000A48FFF739FB00200421034602AA00914A
:101F5000019001210548FFF7F7FB00BFFFF714FFD1
:101F60000028FBD13EBD0000200000004C4EFF1FAA
:101F7000F0B5C3B004460E4615460221684601720C
:101F80002002010E684641722004010E68468172EB
:101F9000C4722A46314603A8FEF78CF80020FFF7EA
:101FA00093FF0746002F07D0002000F03DF800BF48
:101FB000FFF7EAFE0028FBD100F01AF80022012109
:101FC0000A48FFF7F9FA0021281D80B20B4602AA41
:101FD0000191009001210548FFF7B6FB00BFFFF714
:101FE000D3FE0028FBD143B0F0BD00004C4EFF1FD4
:101FF0000EB50BA00068029000BFFFF7C5FE0028D9
:10200000FBD1002211460748FFF7D6FA0020012134
:10201000034602AA009101900248FFF795FB0EBD0E
:10202000060000004C4EFF1F3EB504460DA00068A0
:1020300002906846447200BFFFF7A6FE0028FBD15D
:10204000FFF7D6FF002211460748FFF7B5FA002038
:102050000221034602AA0091019001210248FFF7E4
:1020600073FB3EBD010000004C4EFF1FF7B58AB068
:1020700015460B9804461C34286BC1B2099108A878
:102080000079C007C00F002820D0286A0821081A4C
:1020900087B2002617E0208A6188884202D110208A
:1020A000E86212E0A068002806D0218A481C20823D
:1020B000A068405C286604E0208A401C2082002042
:1020C0002866701C86B2BE42E5DB00BF08A8007916
:1020D00010210840002858D0686A87B2E0680028BC
:1020E00014D000260FE06088618A884207DD286EE0
:1020F000C1B2628A501C6082E068815401E0286E9F
:102100000590701C86B2BE42EDDB1DE020780028F1
:1021100002D0608AC0196082002604E0286E01A9FE
:102120008855701C86B2BE42F8DB69460A9808766C
:1021300004216846417601A8079008A807700B980B
:10214000016906A8884700BF207800281CD0608A53
:102150006188884218DB14212046FDF787FF694615
:102160000A9808760221684641760020079008A860
:1021700007700B98016906A88847012168464176D7
:102180000B98016906A8884700BF0DB0F0BD00009C
:1021900038B504460B461F49012C00D11E490020CA
:1021A000009007E00098451C00951C4DA84201DDF9
:1021B0000D2038BDC86FC007C00F0028F2D112E053
:1021C0000020009007E00098451C0095134DA842A0
:1021D00001DD0D20EDE7087D202528400028F2D004
:1021E000187808705B1C1046551EAAB20028E7D16B
:1021F000009007E00098451C0095084DA84201DDBD
:102200000D20D6E7087D402528400028F2D0002088
:10221000CFE700000040004000900040A086010091
:10222000F7B582B007461546780132494018041DBB
:10223000314E002D02D00398002802D1062005B0AF
:10224000F0BD2078002801D10320F8E7E088A842FB
:1022500001DA0320F3E72078012816D0A08840197E
:10226000E188884201DD0320E9E7FDF729FFA28824
:10227000A16888182A460399FDF71CFFA088401919
:10228000A080FDF723FF0020D9E72A46A068039924
:10229000FDF710FFA5800020608002202070A0685C
:1022A0000190102D01DD102000E028460546012F89
:1022B00000D1124E706802218843706005E0618889
:1022C000481C60800198405C30702846691E8DB2C1
:1022D0000028F4D1002F03D10820FDF7CDFE02E045
:1022E0001920FDF7C9FE70680221084370600020C4
:1022F000A5E700000C72FF1F004000400090004066
:10230000F8B5054608270B261D4C012D02D11927CB
:1023100011261C4C3046002809DBC206D20E0121D2
:102320009140194A1160BFF34F8FBFF36F8F00BF09
:102330006901164A8918087C0021FEF781FD6901B0
:10234000124A8918487C0021FEF77AFD802020730C
:102350000020207120702073207260603846FDF7E5
:1023600079FE3846FDF7D0FE002D03D10020084944
:10237000C86203E000200649403148600020F8BDF3
:10238000004000400090004080E100E00C72FF1F20
:102390008003FF1FF0B585B00646FDF77FFE049071
:1023A000494C082003900B20029004200190052046
:1023B00000903046FFF7A4FF012E08D1434C1920AE
:1023C00003901120029008200190092000907001D4
:1023D0003F494018007CFF2807D170014018407C1D
:1023E000FF2802D1062005B0F0BD70013849401821
:1023F000054610350398FDF727FE0398FDF72AFEE2
:1024000028780221FEF70EFE68780221FEF70AFE08
:1024100028780199FEF728FD68780099FEF724FDD9
:1024200000202073049A12116B685B08D018696849
:10243000FDF73AFE074600202061802020733846D1
:10244000FF2109020840000A20712770E87A00285D
:1024500002D01B20207301E003202073287A00287B
:1024600002D08720207201E00020207201206060ED
:10247000287A002803D06068802108436060A87A29
:10248000002803D06068022108436060002E03D159
:1024900010481149C86203E010480F4940314860B4
:1024A00002210298FEF78AF80298002809DB00BF93
:1024B00000BFC206D20E01219140094A116000BF3F
:1024C00000BF00BF00208EE70040004000900040A9
:1024D0000C72FF1F591FFF1F8003FF1F0B1FFF1FE1
:1024E00000E100E010B50020FFF754FF10BD10B56B
:1024F0000120FFF74FFF10BD10B5FFF7B9FC0446F0
:10250000002C02D00848844205D1214607A0FDF7DF
:10251000F5FD062010BD21460AA0FDF7EFFDE0B253
:10252000FEF700F90020F5E7FFFFFF007265616428
:1025300020666C617368206964206572726F722016
:1025400025580A00666C6173682069643A30782502
:10255000780A000070B506460C4615460848006823
:1025600086420AD2002C08D0002D06DD2A462146DC
:102570003046FFF759FC002070BD1720FCE7000033
:10258000484EFF1F70B506460C46154608480068C1
:1025900086420AD2002C08D0002D06DD2A462146AC
:1025A0003046FFF7E5FC002070BD1720FCE7000077
:1025B000484EFF1F0001020307090A0B0E0F1011FE
:1025C00012141718191A1B1F2021220002010005DE
:1025D00004000807000B0A001716001D1C01020169
:1025E000010504010E0D011110011413011716014C
:1025F0001A19020201020B0A020E0D021110021436
:1026000013021716030504030807030B0A030E0D34
:10261000000D000E00100011001300140107010846
:10262000010A010B011C011D020402050207020838
:102630000219021A021C021D030103020317000003
:0C2640000300000000000000000000008B
:020000041FFFDC
:10000000000000003141FF1F144DFF1F1C4DFF1F5A
:10001000244EFF1F00000000000000000000000050
:1000200000000000000000000000000000000000D0
:1000300000000000000000000000000000000000C0
:1000400000000000000000000000000000000000B0
:1000500000000000000000000000000000000000A0
:100060000000000000000000000000000000000090
:100070000000000000000000000000000000000080
:100080000000000000000000000000000000000070
:100090000000000000000000000000000000000060
:1000A0000000000000000000000000000000000050
:1000B0000000000000000000000000000000000040
:1000C0000000000000000000000000000000000030
:1000D0000000000000000000000000000000000020
:1000E0000000000000000000000000000000000010
:1000F0000000000000000000000000000000000000
:1001000000000000000000000000000000000000EF
:1001100000000000000000000000000000000000DF
:1001200000000000000000000000000000000000CF
:1001300000000000000000000000000000000000BF
:1001400000000000000000000000000000000000AF
:10015000000000000000000000000000000000009F
:10016000000000000000000000000000000000008F
:10017000000000000000000000000000000000007F
:10018000000000000000000000000000000000006F
:100190005D33FF1F2534FF1F6145FF1F0000000076
:1001A000000000000000000000000000000000004F
:1001B000000000000000000000000000000000003F
:1001C000000000000000000000000000000000002F
:1001D000000000000000000000000000000000001F
:1001E000000000000000000000000000000000000F
:1001F00000000000000000000000000000000000FF
:1002000000000000000000000000000000000000EE
:1002100000000000000000000000000000000000DE
:1002200000000000000000000000000000000000CE
:1002300000000000000000000000000000000000BE
:1002400000000000000000000000000000000000AE
:10025000000000000000000000000000000000009E
:10026000000000000000000000000000000000008E
:10027000000000000000000000000000000000007E
:10028000000000000000000000000000000000006E
:10029000000000000000000000000000000000005E
:1002A000000000000000000000000000000000004E
:1002B000000000000000000000000000000000003E
:1002C000000000000000000000000000000000002E
:1002D000000000000000000000000000000000001E
:1002E000000000000000000000000000000000000E
:1002F00000000000000000000000000000000000FE
:1003000000000000000000000000000000000000ED
:1003100000000000000000000000000000000000DD
:1003200000000000000000000000000000000000CD
:1003300000000000000000000000000000000000BD
:1003400000000000000000000000000000000000AD
:10035000000000000000000000000000000000009D
:10036000000000000000000000000000000000008D
:100370000D19FF1F00000000000000000000000039
:10038000000000000000000000000000000000006D
:10039000000000000000000000000000000000005D
:1003A000000000000000000000000000591FFF1FB7
:1003B000000000000000000000000000000000003D
:1003C000000000000000000000000000000000002D
:1003D000000000000000000000000000000000001D
:1003E000000000000000000000000000000000000D
:1003F00000000000000000000000000000000000FD
:0C04000001FF01FF01FF01FF910000005F
:020000041FFFDC
:10183800787FFF1F3D19FF1F81840000F1280000F9
:101848000000000000000000000000000000000090
:101858000000000000000000000000004919FF1F00
:101868000000000000000000CD8400004D19FF1F9B
:101878004F19FF1F4F19FF1F4F19FF1F4F19FF1F48
:101888004F19FF1F4F19FF1F4F19FF1F4F19FF1F38
:101898004F19FF1F4F19FF1F4F19FF1F4F19FF1F28
:1018A8004F19FF1F4F19FF1F4F19FF1F4F19FF1F18
:1018B8004F19FF1F4F19FF1F4F19FF1F4F19FF1F08
:1018C8000000000000000000000000000000000010
:1018D8000000000000000000000000000000000000
:1018E8004F19FF1F000000004F19FF1F4F19FF1F5E
:1018F8000348854600F02CF8004800477D3EFF1F4E
:10190800787FFF1F09484838694601600430F0C0F5
:1019180044464D4656465F46F0C030BCF0BCF0C069
:10192800F0BCF0C044380249084700000004FF1F1B
:10193800D126FF1F0448804704480047FEE7FEE71A
:10194800FEE7FEE7FEE7FEE70925FF1FF918FF1F80
:10195800064C0125064E05E0E36807CC2B430C3CFA
:1019680098471034B442F7D3FFF7C6FFE84DFF1F7E
:10197800184EFF1F30B58C180278401C13071B0F38
:1019880001D10378401C120906D10278401C03E0FB
:1019980005780D70401C491C5B1EF9D101E00B70E5
:1019A800491C521EFBD1A142E6D3002030BD0000E5
:1019B80003B40148019001BDD94F010003B40148A7
:1019C800019001BD75A9000003B40148019001BD53
:1019D800F9A6000003B40148019001BDA1AF0000C1
:1019E80003B40148019001BD9DA9000003B401485A
:1019F800019001BDDD3F000003B40148019001BD25
:101A08008944000003B40148019001BD214400004D
:101A180003B40148019001BD750F000003B40148EB
:101A2800019001BDC95C010003B40148019001BDEA
:101A38001907010003B40148019001BDBD0B010065
:101A480003B40148019001BDDD0C010003B4014855
:101A5800019001BDDD0A010003B40148019001BDF8
:101A68000134010003B40148019001BD09340100AB
:101A780003B40148019001BD0534010003B40148D5
:101A8800019001BDF535010003B40148019001BD85
:101A9800F935010003B40148019001BDE9170100BF
:101AA80003B40148019001BD6137010003B4014846
:101AB800019001BD01D7000003B40148019001BDA8
:101AC8006DF6000003B40148019001BD79120100D0
:101AD80003B40148019001BD4DF9000003B4014869
:101AE800019001BDC1F7000003B40148019001BD98
:101AF800116E000003B40148019001BD8D82000001
:101B080003B40148019001BDE1AC000003B40148F1
:101B1800019001BDE53A010003B40148019001BDFF
:101B2800496D010003B40148019001BD3D710100F8
:101B380003B40148019001BD0189000003B40148C4
:101B4800019001BDBD1B021103B40148019001BD04
:101B5800ED4A010003B40148019001BDA54F010001
:101B680003B40148019001BD8552010003B4014846
:101B7800019001BDB54C010003B40148019001BDBD
:101B88004550000003B40148019001BD156B0100E8
:101B980003B40148019001BD016C010003B4014880
:101BA800019001BDBD5C010003B40148019001BD75
:101BB800491B021103B40148019001BDCD4C01003D
:101BC80003B40148019001BDEDA5000003B401482C
:101BD800019001BDD10E021103B40148019001BD6D
:101BE800810E000003B40148019001BD25100211C7
:101BF80003B40148019001BD090E000003B4014877
:101C0800019001BDB30E000003B40148019001BD6D
:101C180021A9000003B40148019001BDADAE000048
:101C280003B40148019001BDC56D010003B401482A
:101C3800019001BD51B8000003B40148019001BDF5
:101C480085C1000003B40148019001BDE9D400003A
:101C580003B40148019001BDE90B010003B4014838
:101C6800019001BD6D0B010003B40148019001BD55
:101C7800C115010003B40148019001BDCD0C01005C
:101C880003B40148019001BD71B0000003B40148DC
:101C9800019001BDD9B0000003B40148019001BD15
:101CA8005976010003B40148019001BD53B9000001
:101CB80003B40148019001BDE94C010003B4014897
:101CC800019001BDED6B010003B40148019001BD15
:101CD800C9A9000003B40148019001BD1501021112
:101CE80003B40148019001BD3D4B010003B4014814
:101CF800019001BD154D010003B40148019001BDDB
:101D0800B14E000003B40148019001BD2D1101003E
:101D180003B40148019001BD8914010003B40148CE
:101D2800019001BD6189000003B40148019001BD23
:101D3800350C021103B40148019001BD991D02112F
:101D480003B40148019001BDF924021103B401480C
:101D5800019001BD5952010003B40148019001BD31
:101D68008525021103B40148019001BD55250211D2
:101D780003B40148019001BD1D1F021103B40148BD
:101D8800019001BDD544010003B40148019001BD93
:101D98002D6C010003B40148019001BD7997000042
:101DA80003B40148019001BD6911010003B4014861
:101DB800019001BD8512010003B40148019001BDE5
:101DC8008D11010003B40148019001BDE512010025
:101DD80003B40148019001BDF90D0100F3B587B0C6
:101DE80004466F4F012C00D16E4F60016E494018B8
:101DF800007E00280BD08420C059C6B2002503E01D
:101E0800387803A948556D1CB542F9DB04E0012672
:101E1800387D387869460873600163494018C0699D
:101E280000280CD069460898087003A801900E7223
:101E380060015D4A8018C1696846884700BF09B0DB
:101E4800F0BDF0B585B00546680157494018041D36
:101E5800534803906801085C002801D105B0F0BD23
:101E6800680151494018007E002800D1F6E7680152
:101E78004D494018807E002800D1EFE720780228DD
:101E880000D0EBE7A768A0886188401A86B2102EB8
:101E980001DD102000E030460646002E1FD101204B
:101EA800207000206080A08068013F494018C06908
:101EB80000280AD03D4A07CA6B4607C368013A4A58
:101EC8008018C1696846884700BF002D03D10820E3
:101ED80001F062FA02E0192001F05EFABEE7012D76
:101EE80001D13048039005E06188481C6080795C26
:101EF800039801703046711E8EB20028F4D100BFDD
:101F0800ACE710B5274880680407240F062C17D0C3
:101F180004DC022C10D0042C17D108E0072C10D0B8
:101F28000C2C12D102210120FFF758FF0EE00121ED
:101F38000846FFF753FF09E00120FFF782FF05E09D
:101F480004E018484030C06B00E000BF00BF10BD7F
:101F580010B5134880680407240F062C17D004DC3A
:101F6800022C10D0042C17D108E0072C10D00C2C10
:101F780012D102210020FFF731FF0EE001210020DD
:101F8800FFF72CFF09E00020FFF75BFF05E004E006
:101F980003484030C06B00E000BF00BF10BD000028
:101FA80000400040009000400C72FF1F40260211C4
:101FB80010B500BF76200E49C86000BFFFF7F8FCD7
:101FC80010BD0446FFF7FAFC0A48C069402188435F
:101FD8000849C8612046FFF7F7FC01F011F9042011
:101FE8000449C03108600120FFF7F4FC00BFFEE798
:101FF8000020004000F0004010B5FFF7DFFC0B4860
:102008000468401709498031086009480749086091
:10201800FFF7E6FC204610BD10B50446FFF7CEFCDE
:1020280002480460FFF7DCFC10BD000000E100E09E
:102038001000100070B50124A407A36810252B43D5
:10204800A360FFF7D3FCA068A843A06070BD0000A0
:10205800FFB5064601208007816881B01D46102221
:1020680011438160554F002038603046D730FFF764
:10207800C3FC9D20800034468059FF36CA3401369F
:102088000028306822462CD00121FFF7BBFC4B4FBB
:102098002078F863641C2046FFF7BAFC00BA000AEF
:1020A800E17800020843B863241D2046FFF7B0FC1E
:1020B80000BA000AE178000208437863241D20462C
:1020C800FFF7A6FC00BA000AE1780002084338636B
:1020D8000398029900020843F860039F00243F1DFB
:1020E8000EE00021D1E72819401CFFF791FC0102FE
:1020F800285D0143324820180160241DA4B23F1F07
:10210800042FF0DA032F04D0022F08D0012F0CD0AF
:1021180011E02819FFF77CFC0102090A06E02919D9
:1021280048780A780102114300E0295D2448201804
:102138000160241DA4B20021214F02E0E0190160D2
:10214800241DFF2CFADD1D481E4A42600F22026141
:10215800012202604269002AFCD04269930701D437
:10216800520708D401208007826810218A438260C0
:10217800002005B0F0BD01600020039A11E0C119EC
:1021880009682954401C80B20B0A2B54401C0B0CC4
:1021980080B22B54401C80B2090E2954401C80B2D6
:1021A800121F002AEBDC3068401C306001208007D9
:1021B800826810218A4382600120DAE70000044027
:1021C80000010440080F0000FFB505460120800704
:1021D800816881B01E46102211438160504F002053
:1021E80038602846D730FFF707FC9D2080002C4632
:1021F8004059CA3480350028E86F22462BD0002188
:10220800FFF700FC464F2078F863641C2046FFF770
:10221800FFFB00BA000AE17800020843B863241DF6
:102228002046FFF7F5FB00BA000AE17800020843F0
:102238007863241D2046FFF7EBFB00BA000AE1781B
:102248000002084338630398029900020843F860C3
:102258000024039F0EE00121D2E73019401CFFF74C
:10226800D7FB0102305D01432E4820180160241D70
:10227800A4B23F1F042FF0DA032F04D0022F08D096
:10228800012F0FD014E03019FFF7C2FB0102090A31
:1022980009E0311948780978000208432149611892
:1022A800086003E0315D1F4820180160241DA4B2B6
:1022B80000211C4B02E0E0180160241DFF2CFADD10
:1022C8000F221748120242600F22026101220260A7
:1022D8004269002AFCD00160039A0020121D11E017
:1022E800C11809683154401C80B20C0A3454401C8F
:1022F8000C0C80B23454401C80B2090E3154401C7E
:1023080080B2121F002AEBDCE86F401CE86701204E
:102318008007826810218A43826005B0F0BD000002
:102328000000044000010440F8B5FFF777FB564968
:1023380008600420FFF778FBFFF77CFB0646C00720
:1023480015D052490020086051480078012811D062
:10235800032813D0042815D0022817D0052819D02F
:10236800FFF76EFB4B4F044601281AD01EE0FFF71B
:102378006DFBF8BD3046FFF76FFB0EE03046FFF708
:1023880071FB0AE03046FFF773FB06E03046FFF7C3
:1023980075FB02E03046FFF777FB40B20128E8D032
:1023A8004FE0387805280BD0062809D03A483B4D2D
:1023B8000078022808D0052806D0022C0ED005E0A7
:1023C800304601F07BFB3CE0022C02D0012C11D0FE
:1023D80014E0A87B002805D0022803D03878052807
:1023E80004D00BE0304601F081FB15E0304601F0E7
:1023F80071FB11E0012807D0062809D03046FFF705
:1024080049FB022C08D01CE0304601F087FB18E09D
:10241800304601F077FB14E03878012811D17005B7
:102428000FD4687BC10701D0252004E0800701D5BF
:10243800262000E02720297D814202D93220FFF79B
:102448002FFB154C2078042804D003280ED0072829
:1024580011D014E0FFF72AFB002810D0FFF72CFB5F
:102468005820FFF72FFB0220207008E00C48807CE2
:10247800FFF72EFB03E00B48807BFFF72FFB0320C1
:10248800FFF7D2FAF8BD00009C09FF1F9809FF1F4B
:102498009009FF1F1C09FF1F2309FF1FA60BFF1F21
:1024A800BC0BFF1FD40BFF1F10B5FB2908D8084B26
:1024B8009A4205D81B2903D3FF2349339A4201D2F4
:1024C800302010BD034B19825A82FFF70DFB10BD57
:1024D800480800008410FF1F10B5FFF70BFB0249E6
:1024E8000020488010BD00008C4EFF1FC106C90E99
:1024F80001208840014908607047000000E100E0C1
:10250800014802490860704740787D01884EFF1FE6
:1025180010B5002819DB1A4A03231B02D2188308B6
:102528009B00D2588307DC0EFF23A3409A438B07F6
:102538001B0E8407E40EA3401A43114B0324240204
:102548001B198408A4001A5118E00E4A03071B0F30
:10255800083B9B089B00D2588307DC0EFF23A3404F
:102568009A438B071B0E8407E40EA3401A43054BBE
:102578000407240F083CA408A4001A5110BD000049
:1025880000E100E01CED00E010B5002819DB1A4A54
:1025980003231B02D21883089B00D2588307DC0E42
:1025A800FF23A3409A438B071B0E8407E40EA34026
:1025B8001A43114B032424021B198408A4001A513E
:1025C80018E00E4A03071B0F083B9B089B00D258D4
:1025D8008307DC0EFF23A3409A438B071B0E840757
:1025E800E40EA3401A43054B0407240F083CA40833
:1025F800A4001A5110BD000000E100E01CED00E04D
:1026080010B5002819DB1A4A03231B02D2188308C5
:102618009B00D2588307DC0EFF23A3409A438B0705
:102628001B0E8407E40EA3401A43114B0324240213
:102638001B198408A4001A5118E00E4A03071B0F3F
:10264800083B9B089B00D2588307DC0EFF23A3405E
:102658009A438B071B0E8407E40EA3401A43054BCD
:102668000407240F083CA408A4001A5110BD000058
:1026780000E100E01CED00E002E008C8121F08C1FC
:10268800002AFAD170477047002001E001C1121FEB
:10269800002AFBD1704700000248C069002800D01A
:1026A800004770474003FF1F1CB569460120FFF72C
:1026B80027FA012000900348019000F035FB012023
:1026C8001CBD0000BB0B0000044625462AA0FFF7EE
:1026D8001DFA2FA0696AFFF719FA31A0A96AFFF756
:1026E80015FA33A0E96AFFF711FA35A0296BFFF74D
:1026F8000DFA37A06968FFF709FA39A0A968FFF74A
:1027080005FA3BA0E968FFF701FA3DA02969FFF740
:10271800FDF93FA06969FFF7F9F941A0A969FFF739
:10272800F5F943A0E969FFF7F1F945A0296AFFF730
:10273800EDF947A0696BFFF7E9F949A02968FFF7A8
:10274800E5F94BA0A96BFFF7E1F94DA0E96BFFF79D
:10275800DDF94FA0296CFFF7D9F95148416851A01C
:10276800FFF7D4F953480068002802D051480068A0
:10277800804700BFFEE700005B4861726420666125
:10278800756C742068616E646C65725D0A00000087
:1027980052302020203D203078253038780A00003B
:1027A80052312020203D203078253038780A00002A
:1027B80052322020203D203078253038780A000019
:1027C80052332020203D203078253038780A000008
:1027D80052342020203D203078253038780A0000F7
:1027E80052352020203D203078253038780A0000E6
:1027F80052362020203D203078253038780A0000D5
:1028080052372020203D203078253038780A0000C3
:1028180052382020203D203078253038780A0000B2
:1028280052392020203D203078253038780A0000A1
:1028380052313020203D203078253038780A000089
:1028480052313120203D203078253038780A000078
:1028580052313220203D203078253038780A000067
:1028680053502020203D203078253038780A000049
:102878004C522020203D203078253038780A00003E
:1028880050432020203D203078253038780A000039
:1028980050535220203D203078253038780A0000E7
:1028A80000ED00E049435352203D20307825303870
:1028B800780A00001C4EFF1F10B500F029FAFFF738
:1028C800F3FE002802D00248804710BDFEE7000052
:1028D800E1A200000EB50020009003460222014646
:1028E80001900520FFF718F900BF00BF0E480069E6
:1028F800022108400228F9D02020019000BF019849
:10290800411E01910028FAD100BF074880380068AD
:10291800C00FC0070028F8D000BF012102A8FFF7A8
:1029280001F96846007A0EBD80C80040F8B5054632
:102938000E4600960DE0FFF7CDFF044620462840DE
:10294800002800D1F8BD0520FFF7F2F80098401ED6
:10295800009000980028EED11120F3E710B5024648
:102968000B46114600E0491C0878002803D0184699
:102978005B1E0028F7D1881A10BD70B504460D46B5
:102988002A4621460020FFF7D9F870BD10B5FFF799
:10299800DBF80120FFF7DEF8FFF7E2F8002010BDB2
:1029A8001CB5012109030748FFF7E0F801200421BD
:1029B8000B4602460091019003490448FFF7DCF8F2
:1029C8001CBD0000E05EFF1FC04EFF1F5C5CFF1FC8
:1029D800F8B54D484068C043000603D53C20FFF7D2
:1029E800A7F8F8BDFFF7CEF8474D0746803D2868A1
:1029F8000121890408432860E869444908402830CF
:102A0800E8610320FFF794F8686AC603F60B032011
:102A1800FFF78EF8686AC403E40B0320FFF788F811
:102A2800686AC503ED0BA64201D3204600E0304694
:102A3800A84200D32846A64201D3314600E02146E9
:102A4800A94200D22946324AB218C32A26D2304AAD
:102A5800D243944222D92F4B9C421FD295421DD972
:102A68009D421BD2081A132818D2274841680C2205
:102A7800914341604168FF22120291434160142052
:102A8800FFF756F820488038416AC269C903C90B64
:102A980008239A43C2612048C160F8BD26462C46E7
:102AA8000320FFF745F818488038406AC503ED0B46
:102AB800FFF768F8B84201D3C01B01E0C01B401EF5
:102AC80016498842AFD310484168090A0091426804
:102AD800FF2109028A430099491C0906090C0A4387
:102AE800426041680C229143091D41600020FFF7B4
:102AF8004FF80B48009988400A49884200DB08468D
:102B0800FFF75FFA8FE70000C0F0004000FEFEFF0D
:102B180091FCFFFF320400008C4EFF1FE40C000004
:102B2800E880000060361E00F8B53D4840683C4C1F
:102B38000006803C8021002806DB6068084360604E
:102B48000320FEF7F5FFF8BD364D002068612068C8
:102B58000122920410432060334F606880210843AB
:102B680060600320FEF7E4FF6869401C68616068E4
:102B780001210904084360600026E0692B493840B8
:102B88004018E0610320FEF7D3FF606AE169C003E3
:102B9800C00B08229143E161E96806225143814252
:102BA80001D3091A00E0411A3C2909D2E26901213E
:102BB80009048A43E26162688A4362602861F8BD59
:102BC800761CF6B2052ED8D3E169012000048143B2
:102BD800E16161688143616068692E46052807D311
:102BE800BFF34F8F13491248C860BFF34F8FFEE7FA
:102BF80060688021884360600320FEF799FFE069E0
:102C080038402830E0610320FEF792FF606AC00375
:102C1800C00BF060E16908208143E1619DE7000095
:102C2800C0F000408C4EFF1F00FEFEFF2800010090
:102C38000400FA0500ED00E0F8B504460120FEF7AF
:102C480077FFFEF7ABFF1849184A0860966A184BD9
:102C58001E60184BDF6A184D2D68AF4202D2DB6A3E
:102C6800EB1A00E00023154D2B603319D362536A29
:102C78002924E40323435362114A1278002A0FD00F
:102C8800104A1378022B07D01378012B06D012783C
:102C9800032A06D0C01E02E00F3800E0083808609A
:102CA800F8BD401FFBE70000E408FF1F00F00040EC
:102CB800340AFF1F00100040180AFF1F1C0AFF1FDC
:102CC8001C09FF1F4A0AFF1F0FB408B503A800908C
:102CD8000548009A029900F02DFF0020009001B0ED
:102CE80008BC04B0184700008329FF1F00B585B051
:102CF800064B0FCB049301AB07C30020009001A83B
:102D08000FC8FEF751FF05B000BD0000204DFF1FA2
:102D18000349002048610349086048607047000083
:102D280040F0004040F1004070B58AB000241E4DCC
:102D3800049405942878012806D004A90120FEF7F8
:102D4800DFFE002802D000200AB070BD0498009071
:102D580005980190154881680291C068134903904D
:102D680006AA10316846FEF741FE104E10222036A2
:102D7800314606A8FEF71EFF002811D00120287052
:102D88000B4A31466846FEF731FE04940020694636
:102D980005948200401C8C500428FADB0120D3E7FC
:102DA800FF202870CFE70000B04EFF1F0029001158
:102DB8006873FF1F08B564200090412000F06EF88A
:102DC800402000F06BF802204107486200BF0098DD
:102DD800411E00910028FAD1032001218907486289
:102DE80000F006F8002001218907886208BD00006C
:102DF80038B5FEF7E3FD01208007846A08200090BB
:102E0800002C02D101208107886202200E49086047
:102E180000BF0098411E00910028FAD103200A49FA
:102E280008600820009000BF0098411E009100280B
:102E3800FAD105490860002C02D10121890788626E
:102E4800FEF7CEFD38BD000000C00040202809DA9A
:102E58000121890789680122824091430122920752
:102E680091601AE040280BDA012189074A69014676
:102E7800203901238B409A43012189074A610CE0DC
:102E880060280ADA012189070A6A014640390123C4
:102E98008B409A43012189070A627047202809DA82
:102EA8000121890789680122824011430122920782
:102EB80091601AE040280BDA012189074A69014626
:102EC800203901238B401A43012189074A610CE00C
:102ED80060280ADA01218907096A0246403A012373
:102EE800934019430122920711627047202823DA80
:102EF80015280FDB16280DDC012189070968202217
:102F08009143520611601146096820221143520666
:102F1800116056E001218907096801228240914326
:102F2800012292071160114609680122824011436B
:102F380001229207116044E0402827DA35280FDB88
:102F480038280DDC01218907C968102291439206AF
:102F5800D1601146C968102211439206D16030E051
:102F680001218907C9680246203A01239340994301
:102F780001229207D1601146C9680246203A01230E
:102F88009340194301229207D1601AE0602818DAA9
:102F980001218907496A0246413A01239B1A012205
:102FA8009A4091430122920751621146496A0246AA
:102FB800413A01239B1A01229A40114301229207A8
:102FC8005162704710B588B043480078012802D193
:102FD800002008B010BDFFF70FF8044600BF00BF7F
:102FE8003E480069022108400228F9D020200290BA
:102FF80000BF0298411E02910028FAD100BF37484D
:1030080080380068C00FC0070028F8D000BF3449D6
:103018000120FFF78BFC002801D01120D9E7002000
:10302800009003460322014601909F20FEF774FD9D
:10303800032103A8FEF776FD00BF00BF27480069FB
:10304800022108400228F9D02020029000BF0298EF
:10305800411E02910028FAD100BF2048803800683C
:10306800C00FC0070028F8D000BF1D490120FFF796
:103078005DFC002801D01120ABE72046FEF7CCFF0D
:103088006946887B0004497B090208436946097B35
:103098000843114948606946887B11280EDB684659
:1030A800807B16280ADC6846817B012088400A4913
:1030B8008860084680680B49886107E00120C004E1
:1030C80005498860084680680649886101200249E8
:1030D800087000207DE700007C4EFF1F80C800407C
:1030E800FFFFFF078008FF1F1CB500F01DF80B4805
:1030F8000078FEF765FD0A48007800F017FA00F03E
:103108009DF8084903C9019100900199009800F0C1
:1031180061FAFFF7EBFDFEF759FD1CBD4A0AFF1FD8
:10312800184EFF1F0C4DFF1F10B58CB030221B49E5
:103138006846FEF751FD002409E062006B46D2188C
:1031480051786200985CFEF74DFD601CC4B2172CE4
:10315800F3D3134840690F21C903884305210904A3
:1031680040180F49486108464069012149068843CB
:1031780040180B49486108464069032149058843BE
:1031880001214905401806494861012000F028F846
:1031980000F042F800F022F80CB010BDDC4CFF1F24
:1031A80000F0004070B5044600250A480068A042B7
:1031B80005D2681E051B07480068451902E0054846
:1031C8000068051B0449694308467D21C900FEF7CC
:1031D8000FFD70BD6008FF1F710200000F207047CF
:1031E800014648094001002804D00020034A106025
:1031F80006207047014801600020FAE7344EFF1F9F
:103208000448C0691F21490488430249C861002055
:103218007047000000F000400648C0691F214904BB
:10322800884305490988490408430249C8610020C0
:103238007047000000F00040344EFF1F10B57821A1
:103248000F48FEF7DBFC0F480078012804D002285D
:1032580006D0042807D100E000BFFEF7D5FC02E045
:10326800FEF7D8FC00BF00BF07480078C007C00FB2
:10327800002802D0054806490863002010BD000058
:103288004C72FF1F304EFF1F00200040B91FFF1F68
:10329800C000FF1F70B505461226174800780128A0
:1032A80003D015480078042803D1FEF7ADFC0020B0
:1032B80070BDFEF783FB002417E00C2060430F4924
:1032C800085C002800D112E00C2060430B49085C20
:1032D800A84209D101210C206043084A8018417096
:1032E800FEF792FC002602E0641C0A2CE5DB00BF16
:1032F800FEF776FB3046DBE7304EFF1F4C72FF1FB0
:1033080070B503460C4615460021002212E00C2039
:1033180050430F4E305C984201D1072070BD0C20FD
:1033280050430B4E305C002803D10C2050438119C8
:1033380002E0521C0A2AEADB00BF002901D103205F
:10334800ECE7002048700B704C608D6000BFE5E72B
:103358004C72FF1F10B5FFF75FFF002414E00C202C
:1033680060430C49085C002800D10FE00C20604342
:10337800084940184068002805D00C216143054AD7
:10338800891848688047641C0A2CE8DB00BF0020C5
:1033980010BD00004C72FF1F70B5054600261D4881
:1033A8000078012803D01B480078042803D1FEF7D1
:1033B8002BFC002070BDFEF701FB00241BE00C2055
:1033C80060431549085C002800D116E00C206043D2
:1033D8001149085CA84205D100210C2060430E4A1F
:1033E800801841700C2060430B4940184078002831
:1033F80000D0761C641C0A2CE1DB00BF002E02D131
:10340800FEF708FC01E0FEF7FFFBFEF7E9FA0020F3
:10341800D0E70000304EFF1F4C72FF1F10B5204848
:1034280000680121890788601E4800680121084357
:10343800890748611C48006B1C4908601A483030ED
:1034480040681B49086000210420FFF79DF801210E
:103458001420FFF799F801211520FFF795F80121AD
:103468001720FFF791F8002415E00C20604311495C
:10347800085C002801D1122010BD0C2060430D49C2
:1034880040188068002805D00C216143094A891832
:1034980088688047641C0A2CE7DB0020ECE7000002
:1034A800384EFF1F3C4EFF1F80F00040404EFF1F6C
:1034B800444EFF1F4C72FF1F10B51F20154908709E
:1034C8000120154908700020144908701448C06B81
:1034D8004009400109301249C8630846C06B6021A1
:1034E800884320300E49C86300F01CF800210420EE
:1034F800FFF70EF801211420FFF70AF80121152023
:10350800FFF706F801211720FFF702F8FFF748FA3E
:1035180010BD0000480AFF1F490AFF1F680AFF1F65
:1035280080F0004010B5FFF7C7F910BD10B504468C
:10353800012C18D124484069400140090521C906D9
:103548004018214948610846C06920490840204977
:1035580040181D49C8610846C06940218843403069
:103568001949C86120E0002C1ED100210A20FEF76D
:1035780039FB00210B20FEF735FB1348C0690321F6
:103588000902884340181049C8610846C0694021AB
:1035980088430D49C86108464069400140090B212C
:1035A8000907401808494861074840690121090787
:1035B8008843401804494861084680690321490442
:1035C80088430149886110BD00F000407F00FEFF7C
:1035D80080FD010013B50848002101604160019A8F
:1035E800009906C000F012F8044A00211320FFF7E2
:1035F80087FE00201CBD00006C4EFF1F1536FF1F04
:1036080001480068704700006008FF1F08B50020E7
:10361800104900904A68087800230121FEF700FB52
:103628000D480E4988631220002809DBC206D20E15
:10363800012191400A4A1160BFF34F8FBFF36F8F8A
:1036480000BF02211220FEF7DBFFFFF7B3FBFFF7F5
:10365800B9FC08BD6C4EFF1F050001FF00C8004003
:1036680080E100E07047000070B50D460446282947
:1036780010D1A420005BE188401A0B4980B288422F
:1036880008D321466A3105220E46481FFEF792FAF2
:10369800002804D029462046FEF7C8FA70BD3146F6
:1036A8002046FEF7C9FA70BDFF7F000010B500295B
:1036B80001D0FEF7C7FA10BD70B5264D264E286812
:1036C800002804D0FEF7C4FA2978C84004E0FEF7C1
:1036D800BFFA3168FEF78CFA04462868002804D03F
:1036E800FEF7BCFA2978C84004E0FEF7B7FA31685B
:1036F800FEF77EFA1949A122897892005143184AA7
:10370800184B126889180D78174A002D17D0FF3109
:10371800FF3102314C6C1548641C4C640068996890
:10372800884201D3401A02E0114B591A0818D238BE
:103738001060012C02D1FF30F530106070BDFF31F0
:10374800FF31002502314D645968201AC9684018B4
:10375800F3E700001C08FF1F1808FF1F300DFF1FAC
:103768003409FF1F8C4EFF1FA009FF1F9C09FF1F74
:10377800FFFF3F00F3B506466548A1218078890020
:103788004843644983B00968A12244182046FF30A1
:1037980021305F4900908978920051435D4A407D0D
:1037A800126800258F18FF37813732281DD022284C
:1037B8001BD0F86A0168002909D08188001D090A10
:1037C800891CFEF751FAF96A002001250860FEF706
:1037D80051FA04992746FF370880C137387C0028FA
:1037E80021D0B0421FDC002014E04B4901200860C2
:1037F8000020F96A01250860E9E780000019FF3018
:103808008130006B8188001D090A891CFEF72CFA9B
:103818000198401C0190397C8142EEDCC8B2361A0E
:103828004519002038743D490020C870FF20AD308C
:1038380000590168002903D00079C04380071ED0D1
:103848000098C07D00281AD00098807D002816D1E5
:10385800387CB04213DAFF204930005B010A204669
:10386800FF304930891CFEF7FFF900990020C87520
:1038780000980121817529486D1CC170761E387C1D
:10388800002802D0284605B0F0BD2046FEF7F8F91A
:103898000090002821DD002E1FDD002718E02046BB
:1038A800FEF7F4F980000019FF300130C06E8188FE
:1038B800001D090A891CFEF7D7F92046FEF7ECF926
:1038C800E01DFF30FA30016A6D1C491C7F1C016243
:1038D8000098874201DAB742E1DB0920800120180D
:1038E800817E002911D0017D00290ED0428E002A48
:1038F8000BD0817F914202D2491C817705E00021DB
:1039080081771A212046FEF7CDF9A8B2BBE700005F
:10391800300DFF1F3409FF1F00140340E010FF1F84
:1039280070B54E480068012803D14D48816D491C87
:103938008165FEF773F84B4D4B49A8604B484161D0
:103948000124C46004602878002806D0062248496B
:103958004848FEF7ADF9002028704749486B474AA8
:10396800C0B21278002A17D1454A0023D356002B3B
:10397800444BD35606DB1B04002555572A029A18D8
:10398800121808E0FF331B04002555572A029A181D
:103998003D4B1218D2184A63022801D2022002E0D5
:1039A800502800D95020394A1278022A11D0384AB2
:1039B8001578384B1E78B5420FD915781B78EB1A55
:1039C800801E4010434310784001C01A1030401147
:1039D80004E0314A1578314BECE710784A69120A4D
:1039E800120210434861FEF72BF80546052801D05E
:1039F800042D1ED12A480078002806D029480078CE
:103A0800002802D00020FEF759F92748A121807824
:103A180089004843254909684018FF30FF300230C3
:103A2800007B042801D0032803D1FF205F30FEF774
:103A380049F8022D0ED11E480078012807D0032826
:103A480005D0022803D01B480078022802D16C2038
:103A5800FEF738F81848C48270BD00009809FF1FA7
:103A6800FC0FFF1F8C4EFF1FFF3F0000001003409C
:103A7800D50BFF1F7211FF1F800003408C09FF1F29
:103A8800680AFF1F00000000FFFE0000490AFF1F30
:103A9800440AFF1F450AFF1F460AFF1F470AFF1F68
:103AA800F908FF1F2209FF1F300DFF1F3409FF1FF0
:103AB8001C09FF1F2309FF1FBC0BFF1F10B504497A
:103AC8000968002901D0884710BDFDF7E3FF10BD44
:103AD8008002FF1F10B504498968002901D0884772
:103AE80010BDFDF7D7FF10BD8002FF1F10B50449B8
:103AF8004968002901D0884710BDFDF7CBFF10BDEC
:103B08008002FF1F10B504490969002901D08847C0
:103B180010BDFDF7BFFF10BD8002FF1F10B504499F
:103B2800C968002901D0884710BDFDF7B3FF10BD53
:103B38008002FF1FF7B58CB005460020069005905F
:103B480083E10D98007825280AD00698002803D12B
:103B58000D980690002005900598401C059071E18D
:103B68000598002806D0059881B20698A847002035
:103B780006900590002400BF0D98401C0D900D98EC
:103B880000782B280DD004DC20280DD0232814D150
:103B98000DE02D2802D030280FD10BE0102004436F
:103BA800EAE704200443E7E708200443E4E7202089
:103BB8000443E1E701200443DEE70026F6430D98BD
:103BC8000078302808DB0D980078392804DC0DA827
:103BD80000F05EFE06460EE00D9800782A280AD10D
:103BE8000D98401C0D900E9840C80E90002E02DAD9
:103BF8007642102004430020C04308900D980078B6
:103C08002E2821D10D98401C0D900D980078302851
:103C180008DB0D980078392804DC0DA800F038FE80
:103C280008900CE00D9800782A2808D10D98401CBF
:103C38000D900E98006808900E98001D0E90089838
:103C4800002801DA002008900020C04307900D9852
:103C58000078682807D00D9800786C2803D00D9854
:103C680000784C2805D10D98007807900D98401CD5
:103C78000D900A200A900D9800786E287ED00CDCF2
:103C8800632817D004DC412879D0582873D17AE00A
:103C980064287FD06928F9D17DE073282AD004DC14
:103CA8006F286DD070287AD150E0752876D07828A2
:103CB80075D16BE010202040002808D104E02020B6
:103CC8000490012104A8A847701E061EF7DC0E9870
:103CD8000178001D0E90C8B20490012104A8A847DD
:103CE80004E020200490012104A8A847701E061EA5
:103CF800F7DCA7E00E98006809900E98001D0E905A
:103D08000998002801D159A0099008990998FEF747
:103D180025FE074610202040002809D104E0202075
:103D28000490012104A8A8473046761EB842F6DC64
:103D3800B9B20998A84704E020200490012104A8FA
:103D4800A8473046761EB842F6DC7BE0701C002897
:103D580002D10826012004430898019400900E9887
:103D680002C83346102203910E90284600F000F94D
:103D780068E003E003E012E00CE001E062E061E0EB
:103D880008200A9023E04020044300BF10200A9036
:103D98001DE003E000BF0220044300BF17E00D98B8
:103DA8000078252804D025200490012104A8A847DC
:103DB8000D980078002806D00D980078049001210D
:103DC80004A8A84702E00D98401E0D903AE000BFF5
:103DD80007986C2806D10E9800680B900E98001D65
:103DE8000E9025E00798682811D10220204000286D
:103DF80006D00E9800680B900E98001D0E9017E0E4
:103E08000E9800680B900E98001D0E9010E002208E
:103E18002040002806D00E9800680B900E98001DD0
:103E28000E9005E00E9800680B900E98001D0E90FD
:103E3800089833460194009028460A9A0B9900F096
:103E480097F800BF0D98401C0D900D980078002839
:103E580000D076E60598002806D0059881B2069825
:103E6800A8470020069005900FB0F0BD3C4E554C79
:103E78004C3E00001CB5012017490870174908700E
:103E8800FDF722FFFDF726FFFFF716FBFFF72CF9DA
:103E9800134914A0FEF718FF184800781849097844
:103EA800009101900C4803780C4802781548017875
:103EB80015A0FEF709FF204A082120A0FEF704FFFD
:103EC80001231B03A12292001B492848FEF7FCFE90
:103ED800FEF75CFD00201CBD4A0AFF1F184EFF1F9D
:103EE8000101030053444B2056657273696F6E20BD
:103EF80049442025303878200A000000450AFF1F71
:103F0800440AFF1F4B0AFF1F7266436C6B2025642F
:103F1800207263436C6B20256420737973436C6B48
:103F28002025642074704361705B25303278202529
:103F38003032785D0A0000009C0D000073697A65D4
:103F48006F6628737472756374206C6C5F706B7421
:103F58005F6465736329203D2025642C20627566A3
:103F68002073697A65203D2025640A00304DFF1FC3
:103F7800FFB597B0054617461E46219C684800685D
:103F8800039040202040002802D066480068039033
:103F980010202040002801D064086400022F01DBB3
:103FA800242F01DD1BB0F0BDE007C00F002801D0B1
:103FB800302100E020211691002115910220204097
:103FC800002818D01898002806DA2D20159018987F
:103FD80040421890761E0EE004202040002803D0AE
:103FE8002B201590761E06E008202040002802D0DD
:103FF80020201590761E20202040002806D0102F63
:1040080001D1B61E02E0082F00D1761E00200290D2
:104018001898002806D130220298411C029104A960
:104028000A5413E00FE039461898FDF7E1FD0398AC
:10403800425C0298411C029104A90A543946189816
:10404800FDF7D6FD189018980028ECD12099029811
:10405800884201DD029820902098361A11202040CD
:10406800002809D104E020200190012101A8A847D7
:104078003046761E0028F6DC10A8007D002802D005
:10408800012115A8A84720202040002816D0082F75
:1040980005D130200190012101A8A8470EE0102F7A
:1040A8000CD130210191012101A8A8471C480068C2
:1040B800203041780191012101A8A8471020204013
:1040C800002807D102E0012116A8A8473046761E2D
:1040D8000028F8DC04E030200190012101A8A8475D
:1040E8002098411E209102998842F4DC06E004A938
:1040F8000298085C0190012101A8A8470298411E76
:1041080002910028F3DC04E020200190012101A89D
:10411800A8473046761E0028F6DC00BF42E70000BC
:10412800284EFF1F2C4EFF1F10B500240420FDF75A
:10413800D7FD084908600422002106480068FDF7F9
:10414800D5FD2046641CFDF7D7FD204600F0B6FBE0
:1041580010BD0000244EFF1FF8B51E48416809062F
:1041680001D50020F8BD4168802211434160194DF6
:104178000A260027803DE86940084000E8610620DB
:10418800FDF7D6FC134CC03CA06980210843A06110
:10419800E86901210843E86102E00820FDF7C8FC4E
:1041A800A86A800504D43046761EF6B20028F4D1F9
:1041B800002E07D0286A7E21C70BA0690F408843CC
:1041C8003843A061A16980208143A1613806400E6F
:1041D800F8BD0000C0F0004010B500F0A5FA044A90
:1041E8000121582000F010FAFFF7B6FF10BD0000BB
:1041F800600AFF1F30B53848016801229204114354
:1042080001604168032212069143344A13781B0661
:10421800194341604368032189058B4330490C7871
:10422800A405234343604368602423434360137811
:10423800022B08D01378012B05D00B78022B02D063
:104248000B78012B04D14368FF24013423434360D6
:104258001278032A02D00A78032A03D142688023FD
:104268001A434260426803239B041A4342600B7856
:104278000122D2051B48002B03D11B4B1B78032BB3
:1042880019D0C3689343C360164A184B4032D360B1
:10429800FF2581351561164C5461164B9361114BFE
:1042A80080335D609C60144CDC60144B03600978BB
:1042B800002903D006E0C3681343E4E7016801233B
:1042C800194301600E4909780E4BC906C90BC91874
:1042D80081630D48D06130BD40F000404C0AFF1F9B
:1042E8004B0AFF1F800003404A0AFF1FC00B002033
:1042F8007A3E6A070000890400808904CC24000003
:10430800480AFF1F250800002FFCA601F8B5050084
:104318004A484B4B4B4C4C4A4C4934D0022D32D076
:1043280086155710066286699E43B3188361207804
:10433800002833D00F6146480863464800780122B8
:10434800120380184861414E404C434B803E403C2C
:10435800002D27D06521414AC9024148012D2ED0A0
:10436800022D31D0032D5AD0042D58D03D4969185B
:1043780031603D49A1602360E06002210846FDF7F5
:10438800C1FC3A482BE08026066286699E430123D9
:10439800DB04F61886612078002801D00A61CAE794
:1043A8000B61C8E7324830600020A06023603148C4
:1043B800E06003210846FDF7A5FC2F480FE02F4BCE
:1043C8003360A2602160D7E72C4B5B1C3360A2608E
:1043D8002160E06002210846FDF794FC284820612E
:1043E800F068FF210843F060264860612648A06114
:1043F8002648E06126482062264860622648A06276
:104408002648E0622648206326486063E020012DA4
:104418000DD02168022D0ED081432160F8BD224BBA
:10442800EB183360214B73602160A260A4E7216818
:1044380081432031F1E781434031EEE7C00003407A
:1044480000001C004B0AFF1F00000400800003400E
:1044580003000001440AFF1F00280B00555555377B
:10446800D6BE898E008006425555550080550822D3
:104478000080067807EE7536806608220180063DC2
:1044880080450822A49C5C544C44434241524C460B
:10449800403A342E28007F554F49433D37312B4C45
:1044A80046403A342E28221C00800698545A9850C8
:1044B800F0B5224B214D21498026204A0727BF0409
:1044C800403BC03DE024803902281662966914D02A
:1044D800BE430127BF04F6199661194A1278002ACB
:1044E8001ED07A101A6101281ED0164A801828603A
:1044F800154808610868A04314E00120BE43C004C1
:10450800361896610E4A1278002A00D040101861B9
:104518000E4828600E4808610868A043403001E052
:104528001F61E0E70860F0BD0848401E28600948A0
:1045380008610868A0432030F4E70000C000034089
:104548004B0AFF1F00800698805508220280063D0E
:10455800804508228066082210B50A4900200870A4
:10456800094902200870FFF745FE0848007800F066
:1045780011F8074C2078FFF7C9FE2078FDF7C8FB33
:1045880010BD00004B0AFF1F4C0AFF1F480AFF1FFF
:10459800490AFF1FF0B51A4A03230725D60019490F
:1045A8009B026024ED0157693F281AD0B7430526BE
:1045B8003604BE195661CA689A43CB14D218CA6029
:1045C800CA69A2432032CA61CA69AA43CA610D49AD
:1045D80040398A6BC0061205120DC00B02438A636C
:1045E800F0BDB7430126B604BE195661CA689A439E
:1045F800CA60CA69A243CA61CA69AA438032E5E7A8
:1046080000F00040C0000340F8B53A4B5D6A9C6A70
:1046180000265E629E62384B58630E2018629E1513
:104628005E62402098625020D862FF202B3058628A
:1046380031484030012915D0802101622F49FF23DC
:104648002D48A533403083602D4B43602A4B2D48BD
:10465800403B18617D20C0000090471E009705D39D
:104668003846FAE7066225498331E8E7264889058E
:104678000F18214840388763234B5B1CC918816396
:1046880022480090224800780300FDF747FB050404
:104698000408060D08001F4800E01F4800901F4846
:1046A80010601548403005E01D48F7E7C16AC94366
:1046B800890F14D000994B1E0093F7D20E49403948
:1046C8008F630D4900228A62CA6282604E620A6262
:1046D800FF2041304862074845628462F8BDC16ADC
:1046E800104B1940116011680122090C1204891835
:1046F8004160E3E70010034080000340CA02000065
:104708002020000080560C2064652100102700003E
:104718004A0AFF1F204E00003075000000002020CC
:10472800409C0000FFFF3F3F00B50021022000F041
:1047380021F80C49801C08700021422000F01AF86A
:104748000949801C08700121022000F013F807496C
:10475800801C08700121422000F00CF80449801CDC
:10476800087000BD440AFF1F450AFF1F460AFF1FC5
:10477800470AFF1FF8B53B4C394A2260394D394A80
:1047880007239B04803540320129A9690ED099433B
:1047980001239B04C918A9613349D16033490B78B7
:1047A8000121C905324E002B07D009E099430123A6
:1047B800DB04C918A9612F49EFE73378032B14D01C
:1047C800D3688B43D36050630E2010620027576272
:1047D800FF20153050622848009030780300FDF71C
:1047E8009DFA0507070D090B0D00D3680B43E9E790
:1047F800224802E0224800E0224800900098431E28
:104808000093FBD2686B57620002000E17621E4BC2
:10481800D360FF23413353626523DB0223601B4DC2
:104828002F78E023012F0AD02D78022D25680AD091
:104838009D4325600D4B1B78002B07D009E02568A8
:104848009D432035F5E79D434035F2E73378032B48
:1048580003D0D3688B43D360F8BDD3680B43FAE722
:1048680010000300400003407F4073004B0AFF1F05
:104878004A0AFF1F7F40530010270000204E000007
:1048880030750000409C000040401000490AFF1F9E
:104898000146002008E00B685A1C0A601B780A22AF
