:020000041102E7
:1000000003B40148019001BDADAE000003B4014846
:10001000019001BD456B010003B40148019001BD91
:100020000189000003B40148019001BDC53F0000F3
:1000300003B40148019001BDE94C010003B401483B
:10004000019001BDC95C010003B40148019001BDEC
:10005000CD4C010003B40148019001BD090E000020
:1000600003B40148019001BD154D010003B40148DE
:10007000019001BD0D52010003B40148019001BD82
:10008000D70E000003B40148019001BDB30E00007B
:1000900003B40148019001BD3D4B010003B4014888
:1000A000019001BDE934FF1F03B40148019001BD77
:1000B0003135FF1F03B40148019001BD014C01001F
:1000C00003B40148019001BDD544010003B40148C7
:1000D000019001BD810E000003B40148019001BDF3
:1000E0005147010003B40148019001BDB54401002E
:1000F00003B40148019001BD1147010003B4014858
:10010000019001BD894A010003B40148019001BD7D
:100110001D4B010003B40148019001BDF54E0100E3
:1001200003B40148019001BD434D010003B40148EF
:10013000019001BD2526000003B40148019001BDD6
:100140008B52010003B40148019001BDB35201007C
:1001500003B40148019001BDF94C010003B401480A
:10016000019001BD5952010003B40148019001BD45
:100170003522000003B40148019001BD691F000051
:1001800003B40148019001BD5D17000003B40148AC
:10019000019001BD5125000003B40148019001BD4B
:1001A000594F010003B40148019001BD8D120000B8
:1001B00003B40148019001BD4D1F000003B4014884
:1001C000019001BD5522000003B40148019001BD1A
:1001D000DD52010003B40148019001BD1D4D010035
:1001E00003B40148019001BD6189000003B40148D6
:1001F000019001BD017F000003B40148019001BDE1
:10020000E117000003B40148019001BD7918000016
:1002100003B40148019001BDD949010003B401486C
:10022000019001BDE928000003B40148019001BD1F
:100230005549010003B40148019001BDF30E0000CF
:1002400003B40148019001BDB30E000003B401489E
:10025000019001BD810E000003B40148019001BD71
:10026000556AFF1F03B40148019001BD6B19FF1FC0
:1002700003B40148019001BDA946FF1F03B4014822
:10028000019001BD4551010003B40148019001BD39
:100290005919FF1F03B40148019001BDC90E0000A8
:1002A00003B40148019001BDED4A010003B40148C7
:1002B000019001BDA54F010003B40148019001BDAB
:1002C0008552010003B40148019001BD0935FF1FAB
:1002D00003B40148019001BD1DBC000003B40148F6
:1002E000019001BD6DBC000003B40148019001BD47
:1002F000D149FF1F03B40148019001BD6944FF1FAC
:1003000003B40148019001BD8945FF1F03B40148B2
:10031000019001BD055E000003B40148019001BDDC
:10032000E548000003B40148019001BD49490100BE
:1003300003B40148019001BD311A000003B4014823
:10034000019001BD9928000003B40148019001BD4E
:10035000DD29FF1F03B40148019001BDC521000044
:1003600003B40148019001BD291C000003B40148F9
:10037000019001BDC94A010003B40148019001BDCB
:100380001922000003B40148019001BD851F00003F
:1003900003B40148019001BDA946010003B401481E
:1003A000019001BD294AFF1F03B40148019001BD1E
:1003B000954AFF1F03B40148019001BDFD4AFF1F8C
:1003C00003B40148019001BD5B29FF1F03B401483C
:1003D000019001BD3529FF1F03B40148019001BD03
:1003E000A50E000003B40148019001BDF145FF1FB7
:1003F00003B40148019001BD5947FF1F03B40148F0
:10040000019001BD6945FF1F03B40148019001BD82
:100410000B0D000003B40148019001BD030D000065
:1004200003B40148019001BD216BFF1F03B40148D3
:10043000019001BD316BFF1F03B40148019001BD64
:100440002951010003B40148019001BD75A90000C4
:1004500003B40148019001BD9DA9000003B4014807
:10046000019001BDD1A50000F8B5D349D14A0020C3
:1004700004464A608300401CD450FF28FADD4868D7
:10048000CE4A014680318A606E22C262CC4A12781E
:10049000002A01D07F22C2620A220265C94A13786B
:1004A0008363C94BC36115781023022D08D01578DA
:1004B000012D05D01578032D02D01578042D00D11B
:1004C0000362C24D45611925AD0185613725CD60B7
:1004D00036272826C7630825466405644F603227FF
:1004E0000F603B27CF634127CF6439274031E0C1FC
:1004F00032274F6002274F6142270831E0C11E2793
:100500004F60CE608D6005264E6142260E615A26F0
:1005100060390E614D613C258D61AF25ED000560B0
:10052000AB4D05631578022D09D01578012D08D043
:100530001578032D07D01578042D06D007E0152572
:1005400004E0436003E00E2500E00C254560FF2534
:100550002D358560C560FF25F53505619D4D8564A8
:100560007D25ED009C4ECD67C66445629B4D85623E
:100570007325C565062545658565C51D0826F935BC
:1005800002272E6047664B27FF0087660927C7664C
:10059000934F07674667BE108467C667914F8E4EBC
:1005A0003E601678022E09D01678012E0AD01678F1
:1005B000032E0BD01278042A0CD00EE01A22CA6146
:1005C000212205E01422CA61182201E01322CB6126
:1005D0000A6202E00E220B62CA617E4A8A627D22B2
:1005E000D2008A6764224A620522CA6202220A6332
:1005F000C8228C634A63382169607B4929647B493E
:10060000A9614B21C900E9617349FF30643929624E
:100610007D2109016962EC661E212C67A96670497B
:10062000A965E96589102966696469677049A967E0
:100630007049714A8130E967026082604160FF2140
:10064000F531C16001616E486C495A4A81606D495B
:10065000803A11616A496C4A80318A626B4ACA6287
:100660006B4A82616B4AC2626B4A02636B4A64489E
:100670004038C2636A4ACA616A49816360496A480C
:10068000403188616A49694888605D48694A8038B4
:100690004260694A4263694A0A626949816058490D
:1006A0006848C039C860FFF7ABFC0120FFF7AEFC1B
:1006B000F8BDF3B50746644881B0C169634A11408B
:1006C000FF310931C161002613E000252C461120BD
:1006D000FFF7A2FC5C48406A8007800F61008840F9
:1006E0002843641CE4B20546102CF0D301C7761CE5
:1006F000F6B202988642E8D3FEBD10B52E4C607863
:1007000000280AD104215248FFF7D3FF50480421A2
:100710001030FFF7CEFF0120607010BDF0B500244F
:100720008BB00D460646102902D901200BB0F0BD52
:10073000FFF7E3FF464900200A5C401C1419C0B2D1
:100740001028F9D3002C03D0102D03D90B20EDE78E
:100750000E20EBE73F483E4C0023006802A910340E
:10076000E25CC75C7A40CA545B1CDBB2102BF7D347
:1007700006AA3748FFF756FC102D00D910252A4647
:1007800006A93046FFF754FCFFF758FC21684018D3
:100790002060FFF753FC616840186060FFF74EFC73
:1007A000A1684018A060FFF749FCE1684018E060CC
:1007B0000020BBE70004FF1FD87FFF1F78F3FF1F57
:1007C000AC76FF1F4A0AFF1F3A07000080C3C90129
:1007D0009A02000050C30000280A00006A180000B6
:1007E000204E0000F009FF1F0040001168100000BB
:1007F000DC05000040420F00102700004D5BFF1F8A
:100800000001FF1F1D2EFF1FC16BFF1F996EFF1FF1
:10081000292BFF1FBD2CFF1F452BFF1FD943FF1F97
:100820005574FF1F7972FF1FB529FF1FD931FF1FB4
:100830000002FF1FB157FF1FA159FF1FE558FF1FFF
:100840000D4EFF1FB134FF1F40F0004000FEFEFFC1
:1008500098D2FF1F0880FF1F0A7802708A784270C2
:100860004A88120A82700979C170042070470A7898
:1008700002700988090A41700220704709780170E6
:100880000120704770B50C46097801702188C51C9D
:10089000090A4170A17881706088611D000A287082
:1008A0006D1C22792846FFF7C3FB207921464019A9
:1008B00022890A31FFF7BCFB207921894018001DED
:1008C00080B270BD10B500220EE093005B189C78DA
:1008D00004705C88521C240A44701C7984709B88C4
:1008E000D2B21B0AC370001D0B789342EDD81806D4
:1008F000800D10BD0A7802700A88120A42708A7848
:1009000082704988090AC17004207047F8B50D4605
:1009100006464978012031700024761C16E069787B
:10092000012917D01221614349198A7832704A8807
:10093000871C120A7270B61C10223046091DFFF780
:1009400077FB1037B8B21036641CE4B22978A142A4
:10095000E5D8F8BDA10049198A7832704A88871C09
:10096000120A7270B61C02223046091DFFF760FBA6
:10097000BF1CB8B2B61CE7E710B50C460978017089
:100980002188090A41706288211D801CFFF750FBF5
:100990006088801C80B210BD10B50C4609780170CB
:1009A0002188090A4170A17881706188090AC170A3
:1009B000A288A11D001DFFF73BFBA088001D80B28F
:1009C00010BD10B50C46097801702188090A4170E4
:1009D000A17881706188090AC170A288A11D001DDB
:1009E000FFF726FBA088001D80B210BD0A780270B8
:1009F0000A88120A42708A7882704988090AC1708E
:100A00000420704710B50C460A88891CFFF710FBBC
:100A1000208810BD10B50B788A7802705343DCB281
:100A20002246401C091DFFF703FB601C10BD10B5DA
:100A30000C46097801702188090A4170A1788170FB
:100A40006188090AC1702279611D001DFFF7F0FA63
:100A50002079001D10BD10B50B788A7802705343C1
:100A6000DCB22246401C091DFFF7E2FA601C10BDF3
:100A700010B50C460A88891CFFF7DAFA208810BDE9
:100A800010B50C460A88891CFFF7D2FA208810BDE1
:100A90007FB515460446022901D0102903D1022B47
:100AA00004D0102B02D0002004B070BD994202D1B6
:100AB0000A46294607E01029694607D000F00EF8DB
:100AC000102269462846FFF7BFFAEDE7104600F00E
:100AD00005F8102269462046F5E7000070B50C467F
:100AE00005000CD0002C0AD0102206492046FFF742
:100AF0009FFA2878207368786073012070BD002009
:100B000070BD00006458031110B50B460122024964
:100B100007F06CFB10BD00005908021170B50646C5
:100B200008880C46172812D30B4603220949304681
:100B300007F05CFB050008D1074920880988884236
:100B400000D20146304600F097FA284670BD0220D8
:100B500070BD00006F080211FC7EFF1F10B50B4630
:100B60001822024907F042FB10BD00007D08021167
:100B700010B500231922194607F038FB10BD0000FC
:100B800010B50A79022A01D0022010BD0B460622B8
:100B9000014907F02BFB10BD8508021110B50A783A
:100BA000002A05D00B460722024907F01FFB10BDA3
:100BB000022010BDC508021110B50B4604220249DF
:100BC00007F014FB10BD0000F508021110B54A78BB
:100BD000012A01D0022A08D10A78002A05D00B4642
:100BE0000522034907F002FB10BD022010BD0000E2
:100BF0000D09021101494000085A7047FA7EFF1F93
:100C000010B50B461D22024907F0F0FA10BD000096
:100C10007909021110B50B461B22024907F0E6FACA
:100C200010BD0000790902110149172008807047A2
:100C3000FA7EFF1F042901D004207047017811704B
:100C4000837841781B02C9185180C0781071002048
:100C500070470098022B01D0042070471178527819
:100C6000120289180180002070470098012B01D0E2
:100C7000042070471178017000207047002901D0CE
:100C8000042070470020704770B5049C1E4615462E
:100C9000062B1BD369782878090240182080E97850
:100CA000A87809024018608002222271291D601D67
:100CB000FFF7BEF9B61FB2B22281F02A06D820464D
:100CC000A91D0A30FFF7B4F9002070BD042070BDE3
:100CD0000098042B01D004207047537811781B0230
:100CE000C91801809178D2781202891841800020B9
:100CF0007047F7B504271646002937D0491EC8B2F9
:100D000000990D78012D02D0022D07D02EE0810729
:100D10002CD18408601E042809D927E01221FFF78E
:100D200099F9002922D1040020D0012C1ED8757019
:100D30000027009834703D46401C15E071784278D9
:100D40000129017814D01202891812226A439319DA
:100D50005980801C0090181D10220099FFF768F937
:100D6000009810306D1CEDB2A542E7D33846FEBDA9
:100D700012028918AA0093195980801C0090181D2E
:100D800002220099FFF754F90098801CEAE710B599
:100D900002981146022B0FD34C780A7824021219BC
:100DA00002809B1E9AB24280F42A05D8001D891C3D
:100DB000FFF73EF9002010BD042010BDF8B584896E
:100DC0000D460646002C26D0B2681778380620D586
:100DD0000C2C20D90C3CA4B2101900900121708871
:100DE000234604F04FFF002811D002202870780617
:100DF000C00F6870B806800EA870641E2004000C36
:100E0000A88001D0B068401CA8600020F8BD012077
:100E1000ECE70020EAE70120F8BD10B50298114682
:100E2000042B14D34C780A78240212190280CC784F
:100E30008A782402121942801B1F9AB28280F22AF9
:100E400005D8801D091DFFF7F3F8002010BD042010
:100E500010BD0098042B01D00420704753781178FE
:100E60001B02C91801809178D2781202891841803A
:100E70000020704710B502981146062B03D0142BA2
:100E800003D0042010BD022200E0102202714B7832
:100E90000A781B02D2180280CB788A781B02D218FB
:100EA00042800279401D091DFFF7C2F8002010BDE5
:100EB00070B50546144603290CD3491ECEB22978D5
:100EC0006180F52E06D8002904D03046FFF7C2F81D
:100ED000002901D0042070BD20703246691C201DFD
:100EE000FFF7A6F8002070BD30B5039CD80718D1D5
:100EF000D805010E022914D30B488088814210D8EE
:100F0000F6200155002008E0557813782D025B1972
:100F10004500401C6353C0B2921C8842F4D30020A9
:100F200030BD042030BD0000F47EFF1F0098022B6E
:100F300001D004207047117852781202891801807C
:100F40000020704770B5144602460498022B18D34F
:100F5000667825783602AD1905800546E0352A7693
:100F60006976002A0BD0E8219B1E9AB242808A4201
:100F700007D8A11C001DFFF75BF8002070BDF4210D
:100F8000F2E7042070BD000010B50B46162202499E
:100F900007F02CF910BD00009909021110B50B469D
:100FA0001722024907F022F910BD0000C3090211FF
:100FB00010B50B460C22024907F018F910BD0000CD
:100FC000ED09021110B50B460D22024907F00EF98A
:100FD00010BD0000050A021110B50A79102A03D0CD
:100FE000022A01D0022010BD0B461022014907F051
:100FF000FDF810BD2F0A021110B50A78002A05D09D
:101000000B461122024907F0F1F810BD022010BD75
:10101000150A021110B50A79102A03D0022A01D04C
:10102000022010BD0B460822014907F0DFF810BD71
:101030002F0A021110B50A78002A05D00B460922A2
:10104000024907F0D3F810BD022010BD570A021163
:1010500010B50B460F22024907F0C8F810BD00007A
:10106000710A021110B50B460B22024907F0BEF8B7
:1010700010BD0000810A0211044A1288914203D86F
:10108000024A4000921D115270470000F47EFF1F7B
:1010900010B500231322194607F0A8F810BD000070
:1010A000014610B502481322C07800F0E3FF10BDDE
:1010B000BC79FF1F010010B50448C07803D0044973
:1010C00000F05CFE10BD00F013FE10BDBC79FF1FE8
:1010D000C4B1FF1F70B505461C461646082000F037
:1010E00093FF3146092000F08FFF0021084600F0F1
:1010F0008BFF064807210172057044720021417080
:101100000622801CFEF7ACFF002070BDC4B1FF1F9B
:101110000B46014610B50348D2B2C07800F0EAFF92
:1011200010BD0000BC79FF1F70B50B4D00280AD020
:101130002846103000F08EFD04000AD10421E87822
:10114000FEF794FF05E001206870E87800F066FD86
:101150000446204670BD0000BC79FF1FF8B50E465E
:1011600005461C4617461146112000F04DFF31463A
:10117000102000F049FF0021232000F045FF0B491B
:10118000022000F041FF31460C2000F03DFF3946BF
:101190000D2000F039FF064903208D704870084685
:1011A000CC701038C07808700020F8BD881300009B
:1011B000CC79FF1F024A5060117000207047000078
:1011C000647EFF1FF0B5284A91B0050011D001E000
:1011D000491E6D1C2878202809D0092807D000292D
:1011E00007D000266C1C32466B46691819E00029AE
:1011F000EED1104611B0F0BD207820280BD0092880
:1012000009D00D2807D00A2805D020462038C07FF5
:10121000002802D004E0227002E0B0001C50761CCE
:10122000641CA142E8D8002001E0401CC0B2B042DA
:10123000FBD300240D4F09E00C2079686043095866
:101240002846FEF719FF002805D0641C3878844230
:10125000F2D30020CEE70C2044437868694620187A
:10126000826830469047F4E7FFFF0000647EFF1F6E
:10127000FFB581B00C4605461F4610261946039857
:10128000FEF700FF7800204AA0423BD37F1EBBB28E
:10129000641E34D4002C08D028192038C07F295D62
:1012A0000746303F092F02D903E029783020303833
:1012B0000AE00746613F052F01D8573804E007468A
:1012C000413F052F1ED837380F46303FC0B2092F97
:1012D00001D8F9B20BE00F46613F052F01D857390D
:1012E00004E00F46413F052F0CD83739C9B270438F
:1012F00041180398C1545B1E9BB2A41ECAD500209E
:1013000005B0F0BD1046FBE7FFFF0000F0B500257B
:1013100006462C4606E0355D202D01D0092D03D16F
:10132000641CA4B28C42F6D3002301202D2D1BD1C6
:10133000FF2017E0355D2F46303F092F03D8534378
:101340005B19303B0EE02F46613F052F03D8534316
:101350005B19573B06E02F46413F052F06D8534304
:101360005B19373B641CA4B28C42E3D35843F0BDF5
:1013700010B5034A1321034801F0ACF810BD00007A
:10138000645103110C77FF1F70B5044680B2FEF75D
:101390007FFE050009D1214605A0FEF77FFE0EA0C5
:1013A000FEF77CFE0D480020C046284670BD0000B8
:1013B0004D656D6F727920416C6C6F636174696FFC
:1013C0006E204661696C6564212C2073697A652002
:1013D0003D202564200000000D0A0000007AFF1F58
:1013E000054903200870011F044A00208300401CA7
:1013F000D1501028FAD37047047AFF1F38B2FF1F6C
:101400000FB4024610B50B4803780020C0439A423F
:101410000CD80B0F1A074A409900074B59588A43BA
:1014200004D105A90498FEF73FFE002010BC08BCBB
:1014300004B01847047AFF1F38B2FF1F10B5FEF73B
:1014400039FE10BD70470000032801D8014908701B
:1014500070470000047AFF1F70470000FFB593B08B
:1014600015460F4606461C9CFEF72AFE002E0CD0A1
:10147000002D0DD0002C16D0202C0FD92046FFF7C0
:1014800083FF002807D0029009E0124817B0F0BD92
:101490001048401CFAE70F480C38F7E704A822462A
:1014A0001699FEF713FE10A80195048068460C9764
:1014B00013F0FAF8040008D010A80088202802D9F8
:1014C0000298FFF7BBFF2046E0E7684600783070DF
:1014D0000020DBE711C00000F8B5054600780F28B2
:1014E00003D3FF2028702348F8BDFEF7E9FD2878D4
:1014F000482148432149204C47183E464036F07861
:1015000000901022384613F087F900282ED111469A
:101510000098FEF7E1FD00280ED0F0780F21FEF7CD
:1015200099FD01228A4091B2154A12788018C0B202
:10153000FEF7D8FD002819D10121384613F010F923
:10154000040013D10098FEF7D3FD0746F0780F2171
:10155000FEF780FD01228A4091B2094A1278801874
:10156000C0B2FEF7CBFD002F00D0034CFF20287047
:101570002046F8BD11C00000FFFF000078B2FF1F39
:10158000C008FF1FF0B50023084EFF2748201D4666
:101590004543AC19204613F031F94034E7707355D8
:1015A0005B1C9BB20F2BF1D3F0BD000078B2FF1F84
:1015B00001290CD80E4A431C0AD0030F1B074340D5
:1015C000000F8000012911580FD099431150704726
:1015D000012907D0002100208300401CD150102891
:1015E000FAD370470021C943F5E71943EEE700003D
:1015F00038B2FF1FFFB58DB0054600200A900B9052
:101600001E460AAA284600F083F804460A2855D246
:1016100008F06BFD0546082E19D0002000903346D7
:101620002A4621460F9808F005FD1422002101A842
:10163000FEF716FD20460621484307462430C0B277
:1016400001AA102111F0E4F9002802D014E00120D1
:10165000E4E71022FF2101A8FEF756FD00280BD178
:101660002537F8B205AA042111F0D2F9E907C90F0C
:1016700001AA0F9800F0D8FC7034E0B206AA10213D
:1016800011F0C6F9002811D106A808F040FD002489
:1016900006AFA000C0190188002903D082780F98F6
:1016A00000F074FF641CE4B2042CF2D3A80707D541
:1016B000164801780F9800F057FF01E0082E02D07D
:1016C000042E17D01FE011480F99401C405C0228DF
:1016D00019D1002229460F9808F022FC0B48C06956
:1016E000002810D04368002B0DD0002211460F981F
:1016F000984708E005480F99401C405C022802D139
:10170000084608F013FD002011B0F0BD9079FF1FCE
:10171000F0B50A2485B016460F46002807D00128E8
:1017200005D00A25022810D0032847D11FE008461B
:1017300008F0A8FC04460A2840D2002E3ED006221B
:1017400039463046FEF774FC38E01E4F0024009105
:101750000E206043C0190622801D0099FEF774FC1C
:10176000002823D1641CE4B20A2CF1D31CE000242D
:101770002046062148432330C0B26A46102111F0AA
:1017800047F900280CD11022FF216846FEF7BCFC67
:10179000002805D13946684600F00AFC002805D02B
:1017A000641CE4B20A2CE3D32C4607E00A2C05D2D1
:1017B000002E03D03146204608F07CFC204605B0C0
:1017C000F0BD00002EB1FF1F70B50E4C00256071FA
:1017D000A571691EE18100F0E5FB0420E071102293
:1017E00000210948FEF73CFC074810220021103078
:1017F000FEF736FCE562257265720720A072E5727D
:1018000070BD0000A878FF1FE7B0FF1FFEB53B4D7D
:101810000C4608040CD56879FEF77CFC050004D062
:1018200009F05AFB2846FEF77BFC0120C00360E06C
:10183000600403D5012080034840FEBD2F48E10726
:101840000126807900292AD02978002920D005286E
:1018500021D0297A68460170697A417027490622A9
:101860003031801CFEF7E4FBA97A68460172E97A00
:1018700041726946687900F081FA002808D0072093
:10188000A871696A002903D00968002900D0884737
:1018900020467040FEBD032069460870E4E7A107BA
:1018A0000DD5052809D1E889FEF740FCAA8A002A4F
:1018B00003D002216879FEF73FFC022019E060079F
:1018C00004D5002009F060FB042012E0200712D5A7
:1018D0002879012802D002280AD107E00096AB8BB4
:1018E0006A8B298BE88A00F00BF801E000F034F8ED
:1018F00008206040FEBD0020FEBD0000A878FF1F4C
:10190000F8B5134C069EA579052D01D01420F8BD1D
:10191000104F851FBD4219D2062917D3BD1DA942FC
:1019200014D2FF27F537BA4210D20A2B0ED3AB429E
:101930000CD2E08221836283A383304609F024FB2A
:1019400004216079FEF7FEFB0020F8BD1820F8BDE9
:10195000A878FF1F7A0C000010B506488179052988
:1019600001D0122010BDC1891322407900F082FB02
:1019700010BD0000A878FF1FF8B504462C480F469C
:101980000078022805D0012803D0082803D1002FB1
:1019900001D01220F8BD002C07D02088254D8100F1
:1019A0006958002903D01120F8BD0220F8BD0CF0C1
:1019B00015FC060036D02C20FEF76AFB2188890032
:1019C0006850002830D02C220021FEF749FB2088E7
:1019D0001C228100695848802088211D80002858D9
:1019E000001DFEF725FB2188022089006958087038
:1019F000228890002B5870791B1D002816D00020DB
:101A00000D49097804F0EAF80546002F03D039465D
:101A1000304612F029FC002D02D0208808F042FC4C
:101A20002846F8BD1420F8BD1320F8BD0120E7E7D3
:101A3000197FFF1F847FFF1FA97FFF1FFFB5204D68
:101A400081B028781E461746022823D0012821D0CD
:101A5000002F22D001980CF0C1FB04001FD0606A57
:101A6000002801D0FEF726FB1C213846FEF770FB4C
:101A70006062011E15D02878000714D5002E12D000
:101A8000887E00900B4612330A8A019812F06EFC91
:101A9000014609E0122005B0F0BD0220FBE714204A
:101AA000F9E71320F7E70021207904221043207181
:101AB000029A002A02D00222104320710846EAE767
:101AC000197FFF1F10B505480078000701D50448AD
:101AD00000E0002009F0FAF810BD0000197FFF1F98
:101AE000107FFF1F70B50C4C05460121207808F0CF
:101AF00005FC0A480A210078084207D020462570D4
:101B0000083009F0DDF808F0E7F970BD002020701A
:101B100009F0D6F8002070BD007FFF1F197FFF1F5E
:101B2000F3B5044639480026877883B0032C36D8AD
:101B3000374D2878032802D0102005B0F0BD00F002
:101B40007DF9002807D108F041FC002803D108F0F6
:101B500045FC002801D01220EFE7012C04D0022C14
:101B600002D0032C28D02CE0049800281FD0062295
:101B700000216846FEF774FA062269460498FEF7CB
:101B800063FA00280BD10622FF216846FEF768FAA7
:101B9000062269460498FEF757FA002801D0022071
:101BA000CBE7062268460499FEF742FA09E00621CF
:101BB000684612F045FB04E06946686803F078FF68
:101BC0000646124D1348AC7004210078FEF7BAFAAD
:101BD0000020A880002E06D1002C05D0684608F011
:101BE00049FF060002D0AF703046A6E7032CFBD1B8
:101BF0001D2000F0A7F8A8800028F5D00548064A67
:101C000004210078FEF7AAFAEEE70000187FFF1F14
:101C1000F8CFFF1FA97FFF1F60EA000010B50B4936
:101C20000968002904D00978814203D0032010BD3F
:101C3000122010BD064801210078FEF783FA3020FB
:101C400009F0D0F9002009F0CFFA10BD747FFF1F12
:101C5000A97FFF1F38B5234D04462868002801D00E
:101C6000112038BD20480A210078084201D11220F5
:101C700038BD0420FEF70CFA286000282FD004227B
:101C80002146FEF7D5F900F0D9F8002805D00C2040
:101C900000F058F805460D2007E06078022812D0C1
:101CA000102000F04FF80546112000F04BF80246D6
:101CB000E078002800D0012000900C48007800282F
:101CC00007D0012306E0122000F03CF8054613205F
:101CD000EBE70023A0782946FEF746FA38BD13202B
:101CE00038BD0000747FFF1F197FFF1F1A7FFF1F81
:101CF00070B5104C2168002904D00978814203D0C6
:101D0000032070BD122070BD0B4D02212878FEF714
:101D100019FA0A480026468004212878FEF712FAAC
:101D2000074806802168032048700020FEF722FA49
:101D300070BD0000787FFF1FA97FFF1F8C7FFF1FF2
:101D40001C7FFF1F272803D202494000085A704712
:101D500001487047247FFF1FFFFF000010B5064CAD
:101D600060700CF06BFA6078FEF70AFA0521607873
:101D700000F0DCFF10BD0000A87FFF1F70B5284EEB
:101D8000054630680C46002801D0112070BD25485A
:101D900001780520014216D023488068002805D02C
:101DA0000078002802D0C80706D101E0102070BDDD
:101DB00000F044F8002808D02078032805D0022835
:101DC00003D0002801D0122070BD0C20FEF760F96E
:101DD0003060002820D00570002141700A22214681
:101DE000801CFEF725F909F00DFA040002D008F076
:101DF0004DFA12E00D48007803280ED11D20FFF7A0
:101E0000A1FF0B490028088007D00B48094A04218C
:101E10000078FEF7A3F900E01324204670BD00000F
:101E2000787FFF1F197FFF1F8C7FFF1F1A7FFF1F07
:101E30001C7FFF1F60EA0000A97FFF1F10B50CF098
:101E40001BFA10BD70B50C4605461C22002109483E
:101E5000FEF706F9084805704470FEF797F9054942
:101E6000002803D000200870122070BD01220A70E3
:101E700070BD0000F8CFFF1F187FFF1F70B50F4C1B
:101E80000025A068002802D0FEF714F9A560E068DC
:101E9000002802D0FEF70EF9E56009480521007818
:101EA000084206D00548103008F016FF07F0EAFF98
:101EB00070BD002008F010FF002070BD8C7FFF1F58
:101EC000197FFF1FFEB5344D0C46080419D56878FC
:101ED000FEF720F90121C9034C40064600280ED028
:101EE00008F0DEFD002807D12878FF2804D031460D
:101EF000FEF752F9002802D03046FEF711F92046CD
:101F0000FEBDE007012700280AD0A868002804D0F9
:101F10004168002901D00020884720467840FEBD56
:101F2000A00709D56868002804D04168002901D0BD
:101F30000120884702202AE060072AD5174E308802
:101F400000281FD0401E0004000C30801ED108F075
:101F50003DFA002809D0124807706868002804D0AC
:101F60004168002901D00120884708F009FA694634
:101F700003F09EFD684608F07DFD1D20FFF7E2FEA0
:101F8000308003E004216878FEF7DCF8042060402C
:101F9000FEBD0020FEBD0000A87FFF1F1C7FFF1FAD
:101FA0001B7FFF1F0149087070470000A87FFF1FBB
:101FB00010B503F0ECFD10BD38B505460F480C46D2
:101FC0000078400701D4122038BD28460CF006F9ED
:101FD000002811D00A48A9004058002801D0817D6E
:101FE00000E02146684612F011FA064B6A460221CB
:101FF000284612F077F938BD142038BD197FFF1F2D
:10200000847FFF1F89460311272807D2044A914283
:1020100004D0044A4000115200207047022070474B
:10202000FFFF0000247FFF1F70B50E4610491546C4
:102030000978022916D0012914D0002D14D00CF0F3
:10204000CDF8040012D0002E03D0207902210843DD
:10205000207110222946A018FDF7EAFF28692062A6
:10206000002070BD122070BD022070BD142070BD14
:10207000197FFF1FF8B50D4617461D4906461B4A36
:102080001224C868954208D100282DD00268002A81
:102090002AD029463046904723E0144A521C9542E4
:1020A00013D1002807D00268002A04D02946304600
:1020B0009047040005D03946304607F0B7FE0400CB
:1020C00012D10B48067047700EE028460CF086F8D7
:1020D000002809D00078B04205D139462846FEF7DD
:1020E00061F8044600E003242046F8BDFEFF00002E
:1020F0007C7FFF1FF8B50E4601461948154600784B
:1021000005221F46104028D0304326D01548012E06
:102110001BD0C468002C20D01F2D18D8002D01D052
:10212000002F14D001701F220021601CFDF798FFC2
:102130002A463946601CFDF77BFF28462570002E95
:1021400007D0611CFEF734F8F8BD8468E2E702208E
:10215000F8BD611CFEF732F8F8BD1220F8BD000092
:10216000197FFF1F8C7FFF1F014610B50020C90794
:1021700004D0034A0421034800F0ACF910BD00006C
:10218000785103116478FF1F70B50F4D0F4CA87084
:1021900029461831204600F01DF8002128460B463C
:1021A0001030CA0084521218491C09065360090EE7
:1021B000F7D001200AF0F6FAA87800F0D7FB04481F
:1021C0000CF06CF870BD00004478FF1FFFFF0000AA
:1021D000DDBF021170B50A4C0025A04209D10020D4
:1021E00082008C525218401CC0B295700228F7D35E
:1021F00070BD09F0C2FE0028FAD00480857070BD61
:10220000FFFF0000F8B50E46074606990024079820
:10221000002902D00B242046F8BD022B01D00D244A
:10222000F9E711785278120289188DB22946814354
:1022300001D08024EFE73846F16800F03DF9A8426C
:10224000E9D02A463846F16800F0CCF90400E2D122
:1022500071892A46384600F06BF9DCE770B50C4608
:10226000080412D50A488078FDF754FF050008D00D
:102270002878B02802D1284609F09CFF2846FDF7AF
:102280004FFF0120C003604070BD002070BD000002
:102290004478FF1FFFB587B0087A0025109E1C46C2
:1022A0000F46C0060DD5099809F060FE030006D060
:1022B0000A22394607989847050035D101E00E25D6
:1022C00032E0387802281DD17868292201784078D8
:1022D00012020002081880B2811A90427ED009DCF6
:1022E0007249401A23D0012821D0022851D0032856
:1022F00008D125E0012972D0022971D003296DD0BF
:1023000004296ED0099809F059FE0028D7D0056835
:10231000002DD4D012991198019100903346224695
:1023200039460798A847054628460BB0F0BD1198D6
:10233000002873D1F868017831800278416897E00D
:10234000119800286AD101203080F86800210078B7
:1023500020707889401C80B200F0A2F900280FD0CC
:10236000318802788918891C3180817A61704189AD
:10237000090AA17002784168E01CFDF759FED3E715
:1023800030880422001D30800021601CFDF768FEAB
:10239000CAE71198002872D1F86804A90088009053
:1023A00004203080009820700098000A6070009827
:1023B00000F076F9070028D0F86805906846028A90
:1023C00003AB3B49384600F0C3F900280FD13B78F6
:1023D000022138487A68FEF75BFB03E027E031E032
:1023E0001DE049E0002802D13148694688810598FE
:1023F000007802280CD1059802224168201DFDF7C3
:1024000017FE3088801C308002E069460098888181
:1024100068468089A070000AE07085E72FE0119877
:1024200000282CD1F968079800F046F804E01198CC
:10243000002824D1F8680088022131802070000A29
:10244000607071E7F868FDF7BFFE1199C0B2814274
:1024500010D8814201D1002206E0129A89188142E7
:1024600002D31199401AC2B23280F9681198091842
:10247000204682E7072557E71198002801D00B2551
:1024800052E70721F8683180017821704178617046
:102490008178A1704188090AE170017921718179FF
:1024A0006171C088000AA0713EE7000000280000AA
:1024B000FFFF0000DA58031110B509F05EFD002897
:1024C00000D0807810BD00000149087070470000FE
:1024D0004478FF1F7CB51446050019D06846019565
:1024E000018000F049FA03001DD1002C1BD06D893A
:1024F000002D0DD00C20FDF7CBFD00280AD00023C5
:1025000003608580094A84609168002904D006E050
:10251000022308E0132306E0906004E011460A68F5
:10252000002AFBD1086018467CBD00004478FF1FDC
:10253000F8B50C4C0746207815460E46FF280FD0FC
:102540000A20FDF747FE01000AD0B12008700020E4
:10255000487008714F80CE800D812078FDF71CFEF9
:10256000F8BD00004478FF1F70B50C4605460649CB
:10257000FFF7A2FF800704D52146284600F050FA55
:1025800070BD012070BD00005C78FF1F1CB56B465C
:102590001A71120A5A7100220092022301AA00F055
:1025A00001F81CBDFFB583B008461F4601A90C9E6B
:1025B00000F076F8050012D06846808809F0FEFC2D
:1025C00000280AD04468002C07D000963B462946D4
:1025D000059A0398A04707B0F0BD0E20FBE7012045
:1025E000F9E7000070B514460E46054609F0C5FC33
:1025F000002806D13146054809F0BFFC002803D069
:1026000005808470002070BD112070BDFFFF0000A8
:1026100010B50178B0290BD14178002908D1017992
:10262000122906D01B2903D14088012100F008FBA4
:1026300010BDFF210231095C0129F5D010BD000059
:10264000FEB56C46A180E280064601AF1D4602A998
:1026500008F0FEFF04000CD139463046FEF7ACFA14
:10266000040006D1044B05223946009502980AF071
:10267000CDF92046FEBD0000F30C021110B586B066
:102680006C46218062800221217103216171282121
:10269000A1710022694609F0FFFB06B010BD0000E1
:1026A000F0B58C4610494B6819E09F687C89A042C0
:1026B00014D39E883119814210D900220CE01101F7
:1026C0007D186989814205D16046002800D00480C8
:1026D0002846F0BD521C92B29642F0D81B68002BDF
:1026E000E3D10020F0BD0000B87FFF1FFFB5174801
:1026F00081B00A9F446824E000251EE0A0682901FB
:10270000461870890199884215D30299884212D8D7
:102710000498002807D031787068049B039AFEF76C
:10272000B7F9002807D0002F02D0A0684089388070
:10273000304605B0F0BD6D1CADB2A088A842DDD812
:102740002468002CD8D10020F3E70000B87FFF1FD9
:10275000FEB5174600256A469580044640891D4A05
:102760001E46904208D001AA0092401C237880B2F5
:102770006268FFF7BBFF05462378022116486268AE
:10278000FEF786F9002807D12378022113486268F2
:10279000FEF77EF9002801D060890EE0237802213F
:1027A0000F486268FEF774F900280DD0002D03D0A1
:1027B00068468088B84203D038460AF007F904E03A
:1027C0006889401E80B200E06089002E00D0308011
:1027D0002846FEBDFFFF0000D8580311DA58031148
:1027E000DE580311FFB581B00F461E4614466946F8
:1027F000019808F043FF050018D1002C06D00122F3
:10280000102101980BF0C4FC05000FD13946019846
:10281000FEF7F6F9050009D1009CFF2E06D02146EF
:102820001E22A31C03480AF0DDF8E670284605B016
:10283000F0BD0000D1C8021110B50549087004218F
:1028400000F074FA00F036F8FEF7EEF910BD000063
:10285000C87FFF1FF8B50024124F2546FF26FF2032
:102860000D306043C019002C18D00F4901808570CD
:102870004672FF21067209310D54FC2200210C30F2
:10288000FDF7EEFB641CE4B2022CE8D3074809F024
:1028900037FB07480BF002FD0020F8BD0249491E36
:1028A000E4E7000014D0FF1FFFFF000015B5021180
:1028B0005DB4021170B50E4C00200C4B651CFF225C
:1028C0008100C91800280ED00D80401CCA70C0B20B
:1028D0008A700228F4D3074809F018FB06480BF069
:1028E000DDFC002070BD0C80EFE70000C07FFF1F03
:1028F000FEFF0000FDC8021151C80211F8B50D46D7
:1029000014460646694608F0B9FE17280CD0002C7C
:1029100006D00122102130460BF03AFC002803D1EA
:1029200029463046FEF776F9F8BD000070B50C4632
:10293000080411D509480078FDF7ECFB050007D025
:102940000178A02901D109F0F5F92846FDF7E8FB47
:102950000120C003604070BD002070BDC87FFF1F14
:102960000149087070470000B47FFF1F01490870DB
:1029700070470000B87FFF1F70B50546008800282B
:102980001DD068680221037842682248FEF780F86B
:10299000002808D168680221037842681E48FEF7C3
:1029A00077F800280BD01D4C6088002805D0012244
:1029B00029881204101A814203D9012070BD022017
:1029C00070BD0C20FDF764FB060001D000200AE07A
:1029D000132070BD02016B6861880A329952491C4C
:1029E000401C618080B229888142F3D80020306089
:1029F00008222946301DFDF71BFB6068002802D124
:102A0000666004E0084601680029FBD106600020EA
:102A100070BD0000D8580311DA580311B87FFF1FAA
:102A200070B5BEB00D460646002402230E4A0F497B
:102A300001200094FFF75AFE002812D040896A4610
:102A4000108004205080012010715471FF2090717B
:102A5000D0712B46002269463046FFF7C3FE3EB0D8
:102A600070BD0120FBE70000F6580311FFFF0000D6
:102A70000649496806E08A685289824201D18888FD
:102A8000704709680029F6D100207047B87FFF1F02
:102A900010B51422114201D0012202E04A0604D5E9
:102AA000002210210BF074FB10BDC80701D00020DC
:102AB00010BD022010BD10B514468A0604D50122AF
:102AC00010210BF065FB10BD882211420ED00822A8
:102AD0000A4010210BF05CFB00280BD0E034617E33
:102AE0000029F0D0217E0129EDD103E0880701D42F
:102AF000032010BD002010BD014610B50020C907FD
:102B000004D0034A07210348FFF7E4FC10BD00008E
:102B10008C5103111C79FF1F70B50D461646002419
:102B20001D490300FDF75CFB0805123434193422FB
:102B30002934152D23D8162200211848FDF790FAC4
:102B40002A4631461548FDF773FA22E0022D16D1C8
:102B500011491088103908801BE0082D0FD10E484C
:102B6000082231460838FDF7B1FA12E0012D06D1EE
:102B7000CA6909493078283107E0012D01D01824AD
:102B800007E0CA6B0449307848310AF01AF800E0CF
:102B90000224204670BD00001C79FF1F07B1FF1FF3
:102BA0000B7803700B8802221B0A43700B88801C71
:102BB000012B02D0022B07D011E08A7802704988DD
:102BC000090A417004220AE08A7802704A88120ACF
:102BD00042700A7982708988090AC17006221046FB
:102BE00070470A7802700988090A4170022070470C
:102BF00008B5044B009313460A4601210BF03CF93B
:102C000008BD0000A12B02111CB503230192009303
:102C10000A46024B12210BF05FF91CBD99D7021135
:102C200008B5044B009313460A4613210BF024F910
:102C300008BD0000E32B021110B5FDF7D7FA10BD57
:102C400013B504480078012803D101AA6946FDF7AD
:102C5000D3FA1CBDD47FFF1F70B50F490F4A08700F
:102C600000210B468C00491CC9B213530429F9D327
:102C70000A4C00211034FF260A460A256A4315191A
:102C80006B80491CA354C9B26E720329F4D3FDF7BB
:102C9000B9FA0BF0C5F870BDD57FFF1F2CD2FF1F0E
:102CA000082A01D0012070474B780A781B02D218FD
:102CB0000280CB788A781B02D21842804B790A793D
:102CC0001B02D21882808A79C97909025118C18001
:102CD0000020704770B50C46080411D509480078EB
:102CE000FDF718FA050007D00178902901D10AF004
:102CF000F9FF2846FDF714FA0120C003604070BDBB
:102D0000002070BDD57FFF1F70B500280AD1064C8A
:102D100000252580A581A580A068002802D0FDF7A8
:102D200077FAA56070BD0000B8D2FF1F072907D051
:102D3000052905D0042903D0062901D002207047B7
:102D4000044A8B009A181346403B1986203A907427
:102D5000002070472CD2FF1F70B506001BD10E4C0F
:102D60000025214640310D744D740D76606D0028AC
:102D700002D0FDF74DFA65655C2000254643341905
:102D8000E80020184068002801D0FDF741FA6D1CCA
:102D9000EDB20A2DF4D370BDC8D2FF1F70B50A88FA
:102DA0000C460546072A07D0052A05D0042A03D079
:102DB000062A01D0022070BD01210BF09DFA0028E7
:102DC00004D0214628460AF0FDFC70BD142070BDD9
:102DD00010B5001D80B2FDF721FA002803D00321B1
:102DE000C943FDF721FA10BD0A4670B501463820E7
:102DF000154B4143C8180579124C002D02D1595882
:102E0000002904D02821095C012902D018E00D24F2
:102E100016E003240D4E0E4B002128254D43ED18DE
:102E20006D8CB54209D0954207D12C3005F07EFA61
:102E3000002402200DF0FAF902E0491C0329ECD32A
:102E4000204670BD2124000058C5FF1FFFFF000071
:102E500044CCFF1FF7B50746274E032527488C466D
:102E600000242146282251430A18528C244B9A42AE
:102E700014D0624515D128225443025BBA4201D0D6
:102E8000042636E008181022801C0299FDF7D2F9BA
:102E9000002801D006262CE000262AE0032D00D1D0
:102EA0002546641C032CDCD3032D22D02C4628227B
:102EB00054431248614626187184B01C10220299AE
:102EC000FDF704F90D4829460753782047430D487C
:102ED0003818703005F02AFA324624321021029850
:102EE0000EF04AF900202036B071064610200DF091
:102EF0009DF93046FEBD00002024000044CCFF1F99
:102F0000FFFF000064CAFF1FF7B52F4A0E462D4C85
:102F1000518984462546052901D32C48FEBD002051
:102F20002B4A08E0142343439B181B8AB34201D168
:102F3000002504E0401C0B468842F3D318461421B8
:102F4000484323491022471861463846FDF7BEF82A
:102F50003E820298B874A54203D11B484189491C9E
:102F600041811C480078022826D11748A64681884E
:102F70008689C58843898C468189A94201D16146E9
:102F800002E0491C89B281818181B14201D10D48A1
:102F9000FEBD00220BE0142714467C430C4FE419BD
:102FA000248A8C4202D100218E46E5E7521C9A42C7
:102FB000F1D304498E45DFD108200DF037F9002008
:102FC000FEBD0000FFFF0000DA7BFF1F252400008C
:102FD000BCCCFF1F047DFF1FF8B5944606460B4688
:102FE000032405202E4A2F4D002178274F43EF5B05
:102FF000974201D1032C11D0B74210D10C462A4977
:103000008B4215D178204443601910226146801C00
:10301000FDF710F9002800D00620F8BD0C46491C29
:103020000329E2D32049491D8B4201D10420F8BD78
:10303000032CFCD01C4883421BD1A0B20023624663
:1030400031460CF051FFA0B200210CF063FF782054
:103050004443641920467030032105F053F920469B
:103060007430012105F04EF910490889401C08818F
:1030700013E0A0B27821484340196030407B00281B
:1030800001D00B20F8BDA0B20123624631460CF0FE
:103090002BFFA0B201210CF03DFF0020F8BD000085
:1030A000FFFF000064CAFF1F40800000DA7BFF1FA3
:1030B000F8B5194D6989884201D31848F8BD174FF2
:1030C00084B20E37164E1CE0401E84420AD11420F2
:1030D00044430021A019018281741021FCF7D2FF22
:1030E000002711E0142060438019818C0182262181
:1030F000095C8174014614311022FCF7E7FF641C5F
:10310000A4B268898442DFD36889401E68810820A0
:103110000DF08CF83846F8BDDA7BFF1F1324000051
:10312000BCCCFF1F78235843034B0022C018406FCC
:10313000088010467047000064CAFF1F70B504463F
:103140000848094E094B0022782555435D5BB5427E
:1031500004D0A54202D10A80002070BD521C032A6F
:10316000F2D370BD21240000FFFF000064CAFF1FDE
:1031700070B5114C002911D0002A0FD028235843D4
:103180000E4B0F4DC018438CAB4205D0831C203032
:103190000B60007910700024204670BD064909A01C
:1031A0000F390C46FCF77AFF14A0FCF777FF1448A0
:1031B0000020C046F0E700002224000044CCFF1F9E
:1031C000FFFF00005B434D5D204E554C4C2070616D
:1031D00072616D6574657220696E20676574204147
:1031E00070704B65792E2052657475726E696E67CA
:1031F000203078253034580A000000000D0A000005
:10320000007AFF1F052807D2002905D0074A5289F6
:10321000904204D3064870470548401E7047142268
:103220005043044A8018086000207047DA7BFF1F73
:1032300012240000BCCCFF1F30B5034600290BD080
:1032400009480A4C0022142555432D192D8A9D4208
:1032500005D100200A6030BD03480E3830BD521C35
:1032600092B2052AEFD330BD21240000BCCCFF1F51
:10327000024A0146527800200A707047DA7BFF1F2D
:1032800001228A4005490346497800200A4201D0BC
:10329000012100E00021197070470000DA7BFF1F58
:1032A000024A0146927800200A707047DA7BFF1FBD
:1032B00010B500280CD0074A14791368E407E40F0E
:1032C0001B1B0360002901D010790870002010BD7D
:1032D000014810BDC4C9FF1F1324000000290BD0F2
:1032E000064AC0071268C00FD307DB0F834200D025
:1032F000521E00200A60704701487047C4C9FF1F72
:103300001324000030B578235843074B074D1C5A4F
:10331000044AAC4204D0C0186030407B08700022E0
:10332000104630BD2124000064CAFF1FFFFF0000CB
:1033300070B5154678220A4C5043225A094E074B65
:10334000B24208D000190901411810222846891CF0
:10335000FCF7BCFE0023184670BD000021240000CD
:1033600064CAFF1FFFFF0000002804D0034909883A
:10337000018000207047024870470000EE7BFF1F6D
:1033800013240000F0B59446002806D0002904D08C
:10339000144A0023558996890FE01348F0BD142282
:1033A0001C465443114AA2180624178A5C4307534B
:1033B0002418927C5B1CA2709BB2AB42EFD30D80B1
:1033C0000B4A002108E006234B43C35AB34201D104
:1033D0001046F0BD491C89B2A942F4D3604606806C
:1033E0000020F0BDDA7BFF1F13240000BCCCFF1FC0
:1033F000FFFF000010B50B46042801D3084810BD9C
:10340000002B0AD07821484306491022411818465B
:103410004431FCF75BFE002010BD01480F3810BDA1
:103420002224000064CAFF1F10B50B46042801D3F4
:10343000084810BD002B0AD07821484306491022C5
:10344000411818463231FCF741FE002010BD0148FA
:103450000F3810BD2224000064CAFF1F10B50B46B0
:10346000042801D30B4810BD002B0ED0782148430F
:1034700009490A4C0A5AA2420AD0411808221846A1
:103480005431FCF723FE002010BD02480F3810BD58
:10349000042010BD2224000064CAFF1FFFFF0000AB
:1034A00010B5042806D278225043094A094C135A11
:1034B000A34201D1084810BD002905D08018403032
:1034C00080780870002010BD03480F3810BD000040
:1034D00064CAFF1FFFFF00002224000010B50B4646
:1034E000042801D3084810BD002B0AD07821484396
:1034F00006491022411818462231FCF7E7FD00204A
:1035000010BD01480F3810BD2224000064CAFF1FFF
:1035100010B50246054B54001A5D0A70E3185B783B
:103520000020DB001A430A7010BD0000EA7BFF1F79
:10353000F8B5184C15460B00064615D0002D13D0D3
:1035400018881549884221D100202821134A414377
:1035500089180A4620321779B74208D1002418800A
:1035600010222846891C0DE00A4C0E3C10E0977989
:10357000002F0AD05279B24207D1188000241022BD
:1035800028461231FCF7A2FD02E0401C0328DCD3E0
:103590002046F8BD21240000FFFF000044CCFF1F9F
:1035A000FFB593B00F461699002008701398374E58
:1035B000002835D0002F33D01598002830D03D8812
:1035C0003348854227D10025782032496843441882
:1035D0002146543108221398FCF72CFE002822D0F3
:1035E000204660301190407B002813D02AA000684C
:1035F0002AA1109003C90991089012340EAA102133
:1036000020460DF087FD08220EA91398FCF712FE44
:10361000002818D06D1C032DD6D3304617B0F0BD4E
:103620001A4E0E3EF9E73D80214600264431102215
:103630001598FCF74BFD6034607B0228EDD316999A
:1036400001200870E9E71198407B022802D2169900
:10365000012008700020049005900690079004AAAD
:10366000042110A80DF0B6FD0AA9062001910090D2
:1036700008AB04AA102120460DF0C2FC3D800026B4
:1036800010220AA91598FCF721FDC6E721240000A5
:10369000FFFF000064CAFF1F6E6B626B696431320A
:1036A00038010000FFB50E003A4F8BB0014622D022
:1036B0000D9800281FD00E9800281CD03488364A58
:1036C0003648944245D100247822624315182A4690
:1036D000403293788B4214D13148807802280DD043
:1036E000002734802946223110220D98FCF7EEFC89
:1036F0002946323144E0274F0E3F47E0254F7F1DDA
:10370000EFE76D235B5D002B22D0D2788A421FD178
:1037100000200A90284601AD123001230AAA102188
:1037200000950DF087FC1E48807802280DD00027F8
:1037300034801022691C0E98FCF7C8FC05A91022E1
:1037400001310D98FCF7C2FC20E0124F7F1DEFE71E
:10375000641C032CB8D317E078226243121840325D
:1037600092788A420FD1348078214C432418214624
:103770000027223110220D98FCF7A8FC2146323197
:1037800010220E98DEE7641C042CE5D338460FB0F7
:10379000F0BD000021240000FFFF000064CAFF1FED
:1037A000DA7BFF1FFEB50024354D012830D1354AA4
:1037B00000203821414389188C61CC610C624C6235
:1037C000CC62401C0C6380B24C631428F1D3FF21FF
:1037D0002C81E1312C48FCF733FD0CF059FB7821AA
:1037E0002A48FCF74FFC264F08211437BE7838468C
:1037F000FCF748FC2448BE7014219438FCF742FCC6
:10380000214880218038FCF73DFC381F048044802B
:103810006C81A888A8811D4864217830FCF732FCAF
:103820001948A038046004718460002001F042FD52
:1038300001F028FD01F032FD01F018FF0121022006
:1038400000F0BAFC0121032000F0B6FC01210020A9
:1038500000F0B2FC0021084600F0AEFC684601F022
:10386000FDFA01990098884204D0C81DFF30FA3053
:1038700001900090684601F055FC2046EC81FEBDA9
:10388000DA7BFF1F58C5FF1F64CAFF1F44CCFF1F10
:1038900070B501228A400F49054648781346002436
:1038A0000340012D0FD0002B00D00123904348701E
:1038B000002B06D0D0B201F09BFF012040020CF09B
:1038C000B5FC204670BD002B02D000231043EEE76C
:1038D0000123FBE7DA7BFF1F70B50C460A4605465D
:1038E000014608A0FCF7DAFB11A0FCF7D7FB114852
:1038F0000020C04610480560047104200CF096FCBE
:10390000002070BD5B434D5D2053657420495620F7
:10391000496E646578206173203078253038582EE0
:1039200020466C61673A3078253032580A00000032
:103930000D0A0000007AFF1FC4C9FF1F70B50D46B5
:1039400003467821484302460C490D488E5A0A4CDA
:1039500086420FD0511860314A7B00242978002A12
:1039600004D018460CF0D6FA024602E0032900D033
:1039700004462A70204670BD2124000064CAFF1F3F
:10398000FFFF0000FEB50C4636490291E27E364943
:10399000012A01D0A58A16E0344B002528266E4363
:1039A000F618768C8E4202D0A78AB74202D06D1CE0
:1039B000032DF3D3032D02D0012A04D101E003200B
:1039C000FEBD032D4CD03821294A41438F183E4675
:1039D0002036317A012943D1217801AB012907D062
:1039E0000022A11C0DF04AFA00280BD00520FEBDD4
:1039F0006A460021201D0DF0A5FA0028F6D1684680
:103A0000008860803079012809D1B869019988421D
:103A100002D16188002902D100210CF09DFC01989F
:103A2000B861608869460880002803D11C212046BF
:103A3000FCF728FBBD83A07DB877E07DF877207E7A
:103A40003070607EB070A07EF070684600880028FC
:103A500000D0012030710020029002200CF0E6FB23
:103A60000298FEBD21240000FFFF000044CCFF1F90
:103A700058C5FF1F002805D0010403D4034A0021C4
:103A8000108000E00121084670470000EE7BFF1F18
:103A90007CB5194D0446297918A0FCF7FFFA21A03E
:103AA000FCF7FCFA20480020C046208BFFF7E2FF1D
:103AB00029796069FFF710FF208A22461B49FFF72A
:103AC0008BFA0546A07CC00711D01849208A2246EF
:103AD000491DFFF781FA208A01A9FFF72FFB054650
:103AE00002216846017001468088FFF727FF1048D1
:103AF0000CF09CFB28467CBDC4C9FF1F5B434D5D99
:103B0000204D535F6163636573735F636D5F7365BE
:103B1000745F70726F765F646174612030782530F5
:103B200032580A000D0A0000007AFF1F4080000092
:103B3000FF0F000010B54B07420006485B0F83548F
:103B4000C908101841700120002440020CF06EFBDF
:103B5000204610BDEA7BFF1FFFB50B4603252A4E0A
:103B60002A4981B017460024282262435218528CF9
:103B7000B2420CD09A420AD1282262438A5A824227
:103B800001D011253CE00025032C06D138E0641C4F
:103B9000032CE9D334D0002D32D1782358431C4B69
:103BA0000122D203C618974208D120460CF008FC27
:103BB00030467030214604F0ADFB1BE02820444322
:103BC000641827462037B879002803D16036707B07
:103BD000012801D00B250DE0204612301022049957
:103BE000FCF774FA22462532102104980DF0C4FA2D
:103BF0000120B87110200CF019FB02200CF016FB0C
:103C0000284605B0F0BD0000FFFF000044CCFF1FB8
:103C100064CAFF1F002101700846704700883823DE
:103C20005843034B0022C018808B08801046704711
:103C300058C5FF1FFFB56A460646177A0020104A8E
:103C40009C46014638230D465D43AC1828231B5D76
:103C5000012B0CD1237AB34209D12379BB4206D17F
:103C60005359019CA34202D16246118002E0491CD3
:103C70001429E7D3142900D1022004B0F0BD0000BC
:103C800058C5FF1F10B5008838225043064A8018D7
:103C90002422125C012A01D0044810BD0A46806922
:103CA00000210CF019FD10BD58C5FF1F272400008E
:103CB00030B50C4A904212D00B49551E931ED41EAB
:103CC0004978A84202D1C80709D109E0984201D138
:103CD000480702E0A04203D18807002800DA00224A
:103CE000104630BDFFFF0000DA7BFF1F30B50D4BE3
:103CF000002814D0010412D40B4A00218D00545B1B
:103D0000002C08D0AD18AD78A04204D364198442C9
:103D100001D9002304E0491C0229EFD300E001236C
:103D2000184630BD21240000EE7BFF1F01B581B095
:103D30006A46012101A80DF083F8002804D06A46E4
:103D4000012101A80DF036F90CBD0000F8B5244D95
:103D50000122697800200EF0D1FD224E040001D529
:103D60003046F8BD02236A46697800200EF0ECFD6B
:103D7000684601881B48814204D1697800200EF012
:103D800099FD2BE00026012C26D017481121006850
:103D900009064718002414202146414310480830E2
:103DA0000D180838417800206A680EF001FE686836
:103DB000AA68C119304605F09BFE641C06460C2C0F
:103DC000E9D30748417800200EF074FD684600886A
:103DD000B04203D00348F8BD0448D7E70020F8BD3F
:103DE000F87BFF1FFFFF0000787EFF1F747EFF1F20
:103DF00010B502480CF01AFA10BD0000FF0F0000C9
:103E00000149087070470000F87BFF1FF0B5944629
:103E1000134A1C461388028838204243114885B053
:103E20001218107A0A9E1818938B927F0B9D80B2FD
:103E3000012A03D0032B03D3002206E0032204E06F
:103E40001A4628277A43084FBA5A084F3F780097F6
:103E500001AF52C70495614600F0C4F805B0F0BD4B
:103E6000EE7BFF1F58C5FF1F44CCFF1FDA7BFF1FEF
:103E7000F0B585B094460AAA008870CA38277843FE
:103E80000B4F0A4AC0191288007A282710181A46C0
:103E90007A43084F80B2BA5A074F3F78009701AF74
:103EA00072C7614600F09EF805B0F0BDEE7BFF1FC3
:103EB00058C5FF1F44CCFF1FDA7BFF1F38B51446DF
:103EC0000D4668460BF0C0FE00280BD169462B88D2
:103ED00009780622044D4A43AB52217003498A787F
:103EE000521C8A7038BD000044C5FF1FEE7BFF1FC7
:103EF000F8B50C461546694620460CF0D9F9010084
:103F000005D01548814200D100210846F8BD684619
:103F100002883820114E50438019E368C360A369BA
:103F20004361A38A0382237A037248CC48C0083CC9
:103F300023790B48002B237A07D0062463431B18F0
:103F4000D878401CD8702A80DFE7062463431B180A
:103F50009878401C9870F6E72324000058C5FF1F8E
:103F600044C5FF1FFEB50E461C461546074602A96E
:103F7000FFF788FE002809D10120019000946846CF
:103F800002892B4631463846FFF740FFFEBD000050
:103F9000FFB587B0119C149E1546FF2C01D1104827
:103FA000047805A90798FFF76DFE002700280AD1BD
:103FB0006846828AAA4206D001970096139B1299FE
:103FC0000798FFF723FF1298139901AA0094C3C220
:103FD0002946109B0A9A089800F004F80BB0F0BD2F
:103FE000DA7BFF1FFFB5E7B01F46739E719C679891
:103FF00000F02CFF012802D021486BB0F0BD214811
:10400000210EFAD17F2CF8D021020B0E2204120EC1
:10401000E1B204AD002B0AD0E3431B029B0FECD1AD
:10402000240C6B461C7499745A7403210CE023040D
:104030001B0E06D02304E0D56B4659741A74022176
:1040400002E06A46117401218C19FF23221D81337D
:104050009A42D2D8681832467299FCF737F860A8AD
:10406000649584827099749864AA02920390009770
:10407000019167A80BC8002201F046FBBDE70000D4
:104080002424000012240000F8B50B4638214843D0
:104090001649154F45182E462036307A012821D171
:1040A000134A14480024282161430918498C032726
:1040B000914214D0994212D128462C30214604F066
:1040C00029F93079012805D1A88BA1B2884201D104
:1040D00000203071002702200CF0A8F802E0641CD8
:1040E000032CE0D33846F8BD2124000058C5FF1F3B
:1040F000FFFF000044CCFF1FF7B52B4A82B00746F4
:1041000000294ED029488860FF206B461870002691
:1041100027483546012F02D0032F42D105E04068E1
:1041200000283ED1224C18701AE00123A0245C43E1
:1041300024186468002C04D05B1CDBB2022BF5D37E
:104140002FE0A0245C4324186846037008680068C8
:1041500003882046803043830B681B689B78037775
:10416000002C1ED014222046FCF770F8206800288E
:1041700001D085880668BC000E482B460759324698
:1041800001216846B8470B482B4620184468324640
:1041900001216846A04769460A7804990A7005B06B
:1041A000F0BD1046FBE70000FFFF00000593021181
:1041B000C8BAFF1F08BCFF1F1FB50B4A5468002C6C
:1041C0000FD000226B4600011A700843587001920C
:1041D0001A81102303926A462B210448A04704B099
:1041E00010BD0348FBE70000C8BAFF1F847BFF1F18
:1041F00014200000FFB51B4F8FB078681D4616468F
:1042000000282DD000206C4620701022601CFBF787
:104210005DFF6A469674300A50741322002D0FD049
:10422000286800280CD0A988002909D00AAA0CF017
:10423000D1FF04A804220AA90330FBF747FF172285
:104240001021684601760F994176079402840995FA
:1042500010237C6806AA2B210348A04713B0F0BDA9
:104260000248FBE7C8BAFF1F847BFF1F1420000031
:1042700070B50D46154988B04E681446002E22D000
:10428000102269460A720001487203950C820020D0
:104290001346059002AA2B210D48B047012069461C
:1042A000087068460695848306AA432100F08EF8BC
:1042B00068460078401CC1B2684601700229F0D3FC
:1042C000002008B070BD0348FBE70000C8BAFF1F1C
:1042D000847BFF1F142000001FB50B4A5468002C7C
:1042E0000FD00A016946521C0A70487000200190E4
:1042F0000881102303906A462B210448A04704B08C
:1043000010BD0348FBE70000C8BAFF1F847BFF1FF6
:1043100014200000052806D2002904D0034A80009A
:1043200011500020704702487047000008BCFF1F72
:1043300011200000002901D0012801D9034870474D
:10434000034A800011500020704700001120000037
:104350001CBCFF1FF8B50D00044608D0287817498B
:10436000022828D2032C04D0012C05D009E01448DF
:10437000F8BD002802D004E0002802D00F48401CFD
:10438000F8BDA02250430F4A80184268002A12D07C
:10439000A021FBF755FFA4000B4F00233E591A46FE
:1043A00019462846B047E019002344681A461946C2
:1043B0002846A047F8BD0846F8BD000011200000BF
:1043C000FFFF0000C8BAFF1F08BCFF1FF7B58CB085
:1043D0000C98002842D0002A40D0106803900C9816
:1043E00096880078A02250433A4A841865683A4873
:1043F000002D34D08A098906890E0192012930D016
:10440000022930D0032901D0042928D100200B90A3
:10441000204640300A9016300790401E25468035D1
:104420000590FCF7E7FBC01E82B26A83771C0B98ED
:10443000BA4227D200281CD00199802008430A994B
:104440004875288B8018401E288381B20398521E1D
:1044500009180798FBF73AFE6B8B26E01F480FB050
:10446000F0BD2A2100E029213346039A0C98A84781
:10447000F5E701200B900199402008430A994875FF
:104480000020E1E700281DD00199C02008430A99C7
:104490004875288B8018401E2883298B0398324644
:1044A00009180798FBF712FEBBB2F01A401C86B23F
:1044B0006768059A01990C98B8470028CFD1002E5B
:1044C000AFD1CCE701200B900A9A019800215075DA
:1044D0002983E2E7C8BAFF1FFFFF00001120000098
:1044E00030B5154687B0024601200C4600900020EA
:1044F000694608710A7208490391084906910490B7
:10450000182269468A822246FFF7F2FC04494D6070
:1045100022880A8007B030BDF59902115C5403115E
:10452000107DFF1FF7B58CB0FB4B0C980024C21A0E
:10453000032601AD98427DD02DDCF84B0027C21A2E
:10454000984243D01ADCF64BC21A98423ED00EDC99
:10455000032853D004DC00286DD001286CD17DE104
:104560000122D203801A68D00128F7D158E2130043
:10457000FBF736FE0662622C62622C62921E13000A
:10458000FBF72EFE0F5A245AF8F75AF65A84F5F51F
:10459000F6F55A585A001300FBF722FE2D4E4C4EEA
:1045A000F44E4E1C4EF34EF24EEC4E4E4E4E4E4ED0
:1045B0004E4E4E4E4EF14EF04EEF4EEEEDEC4E4E58
:1045C0004EEDECEB4E4E4EF34EF24E00087869463F
:1045D000087132E208786A4610714878507189781B
:1045E000C900084319E188889071000AD071042439
:1045F00024E20128FCD10A796846F4E00A7868468A
:1046000002710888020A684642718A788271488875
:10461000020A6846C2710A79027247728888020AE1
:104620006846427288790001024368464272CA793C
:10463000827203E0B9E0F3E0BCE12DE10A7AC272D4
:104640004A7A0273887A0924C000024368460273DA
:10465000087C002802D0012807D0EFE1888969464C
:104660004873000A88730B24E8E10A7B68464273AA
:104670008889020A68468273C868020C6846C27359
:10468000C868010E684601740D24D7E10E460A7809
:1046900069460A713188A81C0A0A69464A711022C3
:1046A000B11CFBF713FDB07C69468875CF75708A25
:1046B0001724000AC875317D090108436946C87589
:1046C000707D0876B07D4876F07D8876317EC900B1
:1046D0000843694688762021885D002802D0012899
:1046E00007D0ABE1B08B6946C876000A0877192479
:1046F000A4E1317F6846C176B08B010A6846017734
:10470000F069010C68464177F069010E68468177CF
:104710001B2493E188882DE106248FE101289CD198
:104720000A79684602728888020A684642724868B6
:10473000020C684682724868F7E0888A6946887584
:10474000000AC875142479E1012886D1317D6846B4
:104750008175B08A010A6846C1757069010C6846A6
:1047600001767069010E68464176162466E10AE01A
:104770002DE0A8E054E144E0DCE0AFE03FE123E1DC
:1047800019E109E152E10A786846027108880424B7
:10479000020A684642718A7882714888020A68462D
:1047A000C271087A0028B9D1B4E70E4609786A4682
:1047B00011713188A81C090A51711022B11CFBF734
:1047C00085FC307E122431460028BDD1B5E708783B
:1047D0006A46107108880224000A5071087A00287D
:1047E00000D006E7FFE682718888020A6846C27137
:1047F0004868020C684602724868010E68464172B9
:104800008AE7087C6A461071088A000A5071A81C61
:104810001022FBF75BFC122410E1507102240DE121
:104820000C46098A68460185618A4185618A22466B
:104830000020FEF70FFB684686852E462A460BAB06
:104840000AA9022005F0F4F86846858D1022701937
:104850002146FBF73BFC1035ACB231E00C46098A2F
:1048600068460185618A4185618A234601220020CC
:10487000FFF772F9684686852A460BAB0AA9022023
:1048800005F0D6F86846868D1022A8192146FBF758
:104890001DFC1036B4B213E00B88684603854B88C4
:1048A0004385002349881846FFF756F96846068075
:1048B0002A466B460AA9022005F0BAF86846048821
:1048C000002C77D0BAE00A78684602710888020A9C
:1048D00068464271897881710324AFE00D460978FA
:1048E0006846017128880424010A68464171A97844
:1048F000817168880BAB010A6846C17100202A6982
:10490000E968FFF797F9002830D168466988808DFB
:10491000FEF76AFA2AE00000218000001080000003
:104920000880000001282AD088E0010E6846C17284
:10493000082483E00D46097868460171288804241C
:10494000010A68464171A978817168880BAB010A38
:104950006846C17100202A69E968FFF76BF90028F1
:1049600004D168466988808DFFF78EFB287A00287D
:10497000D8D1A88869460872000A4872CCE629791D
:1049800068460172A888010A684641726868010C8D
:10499000684681726868C8E70A78684602710888C4
:1049A000020A684642718A7882714888010A68461C
:1049B000C1711CE64CE00A78684602710888020A58
:1049C000684642710A790EE70A78684602710888DB
:1049D000020A684642718A788271CA78C2710A797D
:1049E00002728A794272C888020A684682720A7A1A
:1049F000C2720889010A6846017309241EE00A7818
:104A0000684602710888020A684642718A78827193
:104A10004888020A6846C2710979017205240DE0CE
:104A200008786A4610710888000AF6E608786A462F
:104A300010714978C90008431071012401AA0E9829
:104A40000090234603480C99FFF78CFA0FB0F0BD95
:104A50000022F4E7107DFF1F10B588B004461C212A
:104A60006846FBF7EDFB00216A4611705480D17651
:104A7000204607A9FEF7E0FB002803D10798694606
:104A8000C01C8882034869460088FEF77BFF08B097
:104A900010BD0000107DFF1F30B5154687B00246DF
:104AA0000B480C4600900020694608710A720949BB
:104AB0000391094906910490012269468A8222469F
:104AC000FFF716FA05494D6022880A8007B030BD0D
:104AD00001100000E5CA0211C85503114C7DFF1FEB
:104AE000F8B5274D297800292DD100282CD0014672
:104AF0000822A81CFBF7EAFAFBF7AEFB0BF00AFC56
:104B00000CF0E0F80CF0CEF80CF08CFD0BF000FB94
:104B10000BF082FC0CF06AF90BF00CFC194EB06A39
:104B20000402240A05F0A2F8B06A0002000A011B80
:104B300015A0FBF7B3FA22A0FBF7B0FA214800203A
:104B4000C04601202870F8BD5C211FA0FBF78AFB3E
:104B5000002805D05C211CA0FBF784FB401C00E072
:104B600019A05121294C0346009121A22146012080
:104B7000FCF746FC26A221460120FCF741FCF8BDCB
:104B8000787BFF1F00F00040636F6E73756D6520CA
:104B900074696D65206F662066756E6374696F6EEB
:104BA000206372795F656364685F696E69743A2037
:104BB000256420525443207469636B0D0A00000081
:104BC0000D0A0000007AFF1F2E2E2F6D6573682FCF
:104BD000707269766174652F636F72652F636F6D94
:104BE0006D6F6E2F4D535F636F6D6D6F6E2E630033
:104BF0000A5B2A2A20455252202A2A5D3A5B2573F5
:104C00005D3A5B25645D3A20000000000100004031
:104C100044796E616D696320436F6E666967757272
:104C20006174696F6E2063616E206E6F74206265BF
:104C3000204E554C4C2E2052657475726E696E670D
:104C40000A0000000149086000207047887BFF1FB0
:104C5000FFB591B007469C461BA82CC800260796B6
:104C600008961F9C6E46378471841A99F177E9047F
:104C7000C90C09950E9141486146002953D001297C
:104C800040D13246B1770B2C3ED96105090E0C910B
:104C90001E990026097835460F9130E00F99802043
:104CA0000143684601730E98C004410E6846417383
:104CB0000E988100E8080143684681730C986901E9
:104CC00001436846C173A01BC7B2082F00D908274B
:104CD0001E983A46811904A8FBF7F8F9F019C6B2F4
:104CE00003A80A9068463F1D878500230AAA07A8E3
:104CF000139900F0FDF9002804D16D1CEDB20C9958
:104D00008D42CBD915B0F0BD1E980A909485002431
:104D100000230AAA07A8139900F0EAF9641C2406E4
:104D2000240EF5D0EEE70020B0772098012801D0BE
:104D30000F2C08D90E981E996D4613C507A8139914
:104D40000AF060FCDEE790019906890E0843307393
:104D500003AD2246681C1E99FBF7B8F96946641C2E
:104D60000A958C85002400230AAA07A8139900F04D
:104D7000BFF9641C2406240EF5D0C3E7FFFF000032
:104D800010B50D4C216801602168606881420DD327
:104D9000FF30FF3002300F2109056060884201D3E7
:104DA00000F0E6F8FF2001300BF040FA2068401CCC
:104DB0002060002010BD0000A87BFF1F30B58FB021
:104DC000054601216846017404AC02A90AA8FEF751
:104DD0006FFA6846007AC107C90F6846017203A9D5
:104DE0002846FEF78FFA6846007B02282BD0002168
:104DF0006A46107A400008435074A11C2846FEF70A
:104E00002DFB6A46117A0A9841180A915177080ACF
:104E10001077080CD076080E90760BA92846FEF77E
:104E2000E9FA07A808210230019100900BAB0D228E
:104E3000611C002004F0B8FE162204A90120FFF72F
:104E400017FA0FB030BD0121D2E70000002803D0CF
:104E5000800B022800D2012070470000024A06CAD7
:104E600006C0002070470000A87BFF1F10B502207D
:104E700009F016FF00280DD009490120087109A08A
:104E8000FBF70CF90DA0FBF709F90D480020C0460F
:104E90000C4810BD0C48002101604160084610BD5F
:104EA000B47BFF1F534152206361636865206E6FBE
:104EB0007420656D7074790A000000000D0A00000E
:104EC000007AFF1FFFFF0000A87BFF1FF8B5264CEC
:104ED0000546206800260F46A84224D801462A31FC
:104EE000A94220D321794A09012A01D1002F01D0FA
:104EF000A84218D04806800F03D000F0C3F9002064
:104F0000A0602079194C4109012901D1002F0BD053
:104F1000012F0BD00026FFF7A9FF00281ED0E56067
:104F200066710020A071F8BD402706E0C00900D0DE
:104F300001262127002E08D0F5D0FFF797FF002883
:104F400003D0E56067710120ECE739462846FEF79B
:104F5000C3FC0021384600F0EDF8F8BD3146284684
:104F6000FEF7BAFCF8BD0000C4C9FF1FB47BFF1FE9
:104F70003EB501A96846FEF79BF9684600796121B4
:104F8000084220D100061ED40FA0FBF787F811A01D
:104F9000FBF784F810480020C046042102A8FEF761
:104FA0006FF90098A124401C21460090FEF794FC64
:104FB0000021204600F0BEF86846007A012802D0A1
:104FC000002000F049F93EBD4956207570646174B7
:104FD000650A00000D0A0000007AFF1F70B5044644
:104FE000002917D000200C4D04E04300E65A401C75
:104FF000EE5280B28842F8D3084800240180084964
:105000000120C871214610460BF088FE0A21204677
:1050100000F0F2F870BD000020CDFF1FF67BFF1FEF
:10502000B47BFF1F10B5154C86B02088002810D027
:1050300004A90020FEF766F96846007C002808D025
:10504000012808D0022811D0032802D1002100F045
:105050001BF806B010BD6A4601210020FEF768F972
:105060006A4621880648FFF7B9FFF2E700210220CF
:1050700000F00AF803490020C871EAE7F67BFF1F39
:1050800020CDFF1FB47BFF1FF8B5044668460025FE
:105090000E4605808470811C2846FEF74FFC012EC9
:1050A00015D00120FEF7ACFE0B480088FFF7D4FCBA
:1050B0000020FEF7A5FE6846084A84706946501E27
:1050C000FFF730FA0A21284600F096F8F8BD0448A8
:1050D00078210088F8E7000020CDFF1F178000002E
:1050E000F67BFF1F0149086000207047A47BFF1F6B
:1050F00070B515460E4607C886B01C4602AB07C3FE
:10510000002101A8FEF7D4F801986946C007C00F36
:10511000087200232A46314602A800940CF0E0FCF5
:1051200006B070BD024905C805C1002070470000E7
:10513000A87BFF1F38B502461A48002901D08168B4
:1051400009E0110601D5184904E05106890F01292B
:105150000FD01649816016A0FAF7A0FF1AA0FAF73F
:105160009DFF1A480020C04619484078FF2802D009
:1051700016E01849EEE70020034600901448E121AC
:10518000154AC901401CFCF769F9040008D013A0B6
:10519000FAF784FF0CA0FAF781FF0C480020C04604
:1051A000204638BDC4C9FF1FFF0B4509FF85A20477
:1051B00069765F6578706972655F74696D653A30AC
:1051C00078253038580A00000D0A0000007AFF1FC9
:1051D000B47BFF1FFF91E70D310803115B434D5D69
:1051E0002053746172742054696D65722046616940
:1051F0006C65640A0000000003B50C4881B0C078FB
:10520000FF2812D102200090084801AB084AC01CB8
:10521000FCF724F9002808D006A0FAF73FFF0CA0FD
:10522000FAF73CFF0B480020C0460EBDB47BFF1FC1
:10523000A50803115B4E45545D20537461727420C0
:1052400054696D6572204661696C65640A000000EE
:105250000D0A0000007AFF1F01B5074882B0807870
:10526000FF2808D102200090034802AB034A0449FA
:10527000801CFCF7F3F80EBDB47BFF1FE10F031198
:105280001027008010B504484078FF2803D002485A
:10529000401CFCF721F910BDB47BFF1F10B504487A
:1052A000C078FF2803D00248C01CFCF715F910BDD8
:1052B000B47BFF1F10B504488078FF2803D0024854
:1052C000801CFCF709F910BDB47BFF1FFFB54348F4
:1052D00081B00F46002B11D0002F0FD0019901296A
:1052E00001D002290AD13E4800250068B22807D023
:1052F000B12805D0B02803D03848401E05B0F0BD15
:1053000018460DF019FC040020D036482646FF361A
:1053100000786136307402281BD0204610223249B2
:10532000B030FAF7D3FE2246FF320020813290607F
:105330002A490198091D2D4B012811D0022828D097
:105340002B4D20460DF0BCFD2846D7E72348401CD6
:10535000D4E78ECF2046B0308EC003983076E2E797
:105360001878FF2837D0022093607074307C0228B0
:10537000EAD12046FF300421753004F081FC20463C
:105380000EF0ECF80500DCD1B320FF340134E06608
:10539000DAE701201F5CFF2F02D01B18936003E0A7
:1053A000401CC0B20228F5D3022814D00420707427
:1053B0000120FF21B0746D310851307C0228C3D127
:1053C0000020034602460090012120460DF08CFD8E
:1053D0000500B6D1B8E70D46B3E700001230000073
:1053E000007DFF1F047DFF1F04CFFF1F057DFF1FF2
:1053F000FFFF000010B5002908D0054A10600548DD
:1054000001600548FCF768F8002010BD034810BD96
:10541000F87CFF1FFC7CFF1FF07CFF1F1230000098
:10542000FFB5334E8BB015460F4600280FD0002D28
:105430000DD00DF03BFC04000BD0022F0CD0042F3C
:105440001FD0072F49D0354628460FB0F0BD304653
:10545000FBE72748801CF8E70822294608A8FAF746
:1054600035FE0820009008AB0022032120460DF0F5
:105470003BFD0500E8D10022042120460EF040F952
:10548000E2E7E01DF930C17A022902D0032904D0F5
:1054900006E0007B042819D002E0007B032815D029
:1054A00028686946C870020A8A70020C4A70000EA9
:1054B0000870AC20009901510020034602460521E6
:1054C000009020460DF010FD0546BDE72046294618
:1054D000A0300E9AFAF7FAFDEEE71C22294601A841
:1054E000FAF7B4FE1C20002201AB08210090E8E787
:1054F0001230000038B515460C4600280DD0002C9F
:105500000BD00DF0D3FB002809D0C11DF931CA7AA8
:10551000022A07D0032A09D00BE0104838BD0F48F3
:10552000801C38BD097B042911D002E0097B0329C6
:105530000DD021686A46D1700B0A93700B0C090ECE
:1055400053701170A0300099C160002038BD214611
:105550002A46A030FAF7BAFDF7E700001230000043
:10556000FFB5054637480E460168374881B0002927
:105570000FD0471C022E08D0012E09D133490968EB
:10558000002906D00398002802D0681E032802D301
:10559000384605B0F0BD2F482D4C067004F066FB70
:1055A0002D4804F05FFB30462C4E012804D0022821
:1055B00034D03C462046ECE7039910220C4628489C
:1055C000FAF784FD012D1DD0022D20D0254D0A981B
:1055D00068800498A880228A214600206369FEF72B
:1055E00009FE012068700420009068880121C90725
:1055F000411803AB1C4A2846FBF730FF0400D9D101
:10560000B1201CE0228A21460020636903E0228A3F
:10561000214601206369FEF7EDFDEFE7E80704D0BE
:1056200001210020FEF758FE0446A80704D50121F9
:105630000846FEF751FE0446002CBBD1B220306074
:10564000B8E70000FC7CFF1F11300000F87CFF1F52
:10565000FFFF0000047DFF1FC4CEFF1F007DFF1F62
:1056600004CFFF1FF07CFF1F790D031110B5024816
:10567000FBF732FF10BD0000F07CFF1F00280AD0AE
:1056800008498A68002A08D00978012907D0012131
:10569000017000207047044870470021F8E702219C
:1056A000F6E70000C87BFF1FFFFF000070B50D4C40
:1056B00000252079C00707D001210220FEF77CFDDC
:1056C00020794008400020712079800707D501210A
:1056D0000320FEF771FD2079FD2108402071284646
:1056E00070BD0000C87BFF1F012902D0002902D035
:1056F00003E0034900E00349086000207047000010
:10570000947BFF1F987BFF1FFFB5EBB074980828B0
:1057100002D31F486FB0F0BD042603280AD3C01E71
:10572000C0B208A9FDF76EFD022500206946087782
:10573000044607E007AA08A9FDF71AFD0028E9D1E9
:1057400001252C4609A8FFF71BFB08980AAF01A901
:10575000E1C1099800906BA807C8769B0FF014F977
:105760007698099A80887799001D80B205900497F1
:10577000039206916846017F75980291009000237C
:1057800001946E9A6C996B98FFF762FAC2E7000079
:1057900012230000FFB5C9B0529953981D46174611
:1057A0000A2902D911484DB0F0BD6A46012407AE5E
:1057B00011770A2908D1027869464A778278CA7730
:1057C0004088000A8877042447A8FFF7D9FA002008
:1057D000479906903A46019002AF43C700950123CE
:1057E00005944A994998FFF733FADCE71223000041
:1057F00010B5164C88B0E188884302D0144808B030
:1058000010BD02A8FDF7B0FD7F216846017405A810
:10581000FDF72EFD06A8FDF743FD6846007E022831
:1058200005D06846007D4107490F68460175684606
:10583000017D41820A2004A9009001916846037C01
:10584000628921880089FFF7A5FFD8E784C1FF1F7F
:10585000FFFF000030B50C4687B00C49154600919B
:105860000246012369460B710A72094903910949ED
:105870000691042269468A8200202246FEF738FB00
:1058800005494D6022880A8007B030BD040501003B
:10589000314F031154580311E87EFF1FF7B5344A06
:1058A00006463248137835185B1CC6B0002403A89E
:1058B000DBB2002D30D001273F04ED1B37D0ED1BAC
:1058C00035D00F273F04BD424ED14D686C782D78FE
:1058D0002402254313706A4601241373002D09D056
:1058E00049682A46401C891CFAF7F0FB6D1CACB2D3
:1058F000002C39D003AD44A91E48FEF78FF90020D3
:1059000002900095019440A8038A31461948489AAC
:10591000FEF7AEFA49B0F0BD1370684603730A781B
:1059200042730888010A684681730324E2E7137012
:105930006A4613730B7853730A880324130A6A4662
:1059400093730A88FF3A521E08D0232AD2D149689D
:105950000622C01CFAF7BAFB0924CBE7486869465F
:105960000078C8730424C5E70025C4E7FBFB2FFFBC
:10597000D97BFF1FE87EFF1F10B50C880022FF3C7B
:10598000C6B0012C0ED00021FF2401940293049292
:10599000039101890091C38842888188FEF7F8FA53
:1059A00046B010BD094A13785B1C13706A46137524
:1059B0000B7853750A88130A6A4693754968044B35
:1059C0000978D175042205A9DEE70000D97BFF1F05
:1059D0000504D500FEB5244C0646244FA0680D46AC
:1059E00004226946C01900F045F8E068042201A9C4
:1059F000C01900F03FF8009F019B3804010E180405
:105A0000020EB00026461036002D0CD07F077F0F07
:105A1000174D012F18D05907490F01291AD000201E
:105A20002870FF20FEBD7D076D0F012D02D0A168FB
:105A3000315017E05B075B0F012B02D0E16831505A
:105A40000BE09142FAD8F2E75B075B0F012B06D11E
:105A5000914204D2E16831502A700220FEBDA26852
:105A6000325029700120FEBD6C7EFF1FB40F000074
:105A7000FA7BFF1F10B51446FAF7FAFB204610BD5B
:105A800070B50A4D0446027A416807482B79C01860
:105A9000FAF7CEFA207A2979401828710221E8789D
:105AA000FAF7E4FA70BD0000CEB1FF1FBC79FF1F0A
:105AB00038B50C46050014D0002C12D003216846DE
:105AC0000EF0BEFB6946887840218006800E0843B0
:105AD00069468870224628460EF058FD050002D01F
