:020000041FFFDC
:10000000000000008549FF1F245CFF1F285CFF1FC4
:100010006C5DFF1F000000000000000000000000F9
:1000200000000000000000000000000000000000D0
:1000300000000000000000000000000000000000C0
:1000400000000000000000000000000000000000B0
:1000500000000000000000000000000000000000A0
:100060000000000000000000000000000000000090
:100070000000000000000000000000000000000080
:100080000000000000000000000000000000000070
:100090000000000000000000000000000000000060
:1000A0000000000000000000000000000000000050
:1000B0000000000000000000000000000000000040
:1000C0000000000000000000000000000000000030
:1000D0000000000000000000000000000000000020
:1000E0000000000000000000000000000000000010
:1000F0000000000000000000000000000000000000
:1001000000000000000000000000000000000000EF
:1001100000000000000000000000000000000000DF
:1001200000000000000000000000000000000000CF
:1001300000000000000000000000000000000000BF
:1001400000000000000000000000000000000000AF
:10015000000000000000000000000000000000009F
:10016000000000000000000000000000000000008F
:10017000000000000000000000000000000000007F
:10018000000000000000000000000000000000006F
:10019000ED3CFF1F853DFF1F6552FF1F0000000063
:1001A000000000000000000000000000000000004F
:1001B000000000000000000000000000000000003F
:1001C000000000000000000000000000000000002F
:1001D000000000000000000000000000000000001F
:1001E000000000000000000000000000000000000F
:1001F00000000000000000000000000000000000FF
:1002000000000000000000000000000000000000EE
:1002100000000000000000000000000000000000DE
:1002200000000000000000000000000000000000CE
:1002300000000000000000000000000000000000BE
:1002400000000000000000000000000000000000AE
:10025000000000000000000000000000000000009E
:10026000000000000000000000000000000000008E
:10027000000000000000000000000000000000007E
:10028000000000000000000000000000000000006E
:10029000000000000000000000000000000000005E
:1002A000000000000000000000000000000000004E
:1002B000000000000000000000000000000000003E
:1002C000000000000000000000000000000000002E
:1002D000000000000000000000000000000000001E
:1002E000000000000000000000000000000000000E
:1002F00000000000000000000000000000000000FE
:1003000000000000000000000000000000000000ED
:1003100000000000000000000000000000000000DD
:1003200000000000000000000000000000000000CD
:1003300000000000000000000000000000000000BD
:1003400000000000000000000000000000000000AD
:10035000000000000000000000000000000000009D
:10036000000000000000000000000000000000008D
:100370005518FF1F000000000000000000000000F2
:10038000000000000000000000000000000000006D
:10039000000000000000000000000000000000005D
:1003A000000000000000000000000000791EFF1F98
:1003B000000000000000000000000000000000003D
:1003C000000000000000000000000000000000002D
:1003D000000000000000000000000000000000001D
:1003E000000000000000000000000000000000000D
:1003F00000000000000000000000000000000000FD
:0C04000001FF01FF01FF01FF41000000AF
:020000041FFFDC
:10183800586AFF1F8518FF1F0348854600F028F8DF
:10184800004800475147FF1F586AFF1F094848389A
:10185800694601600430F0C044464D4656465F462E
:10186800F0C030BCF0BCF0C0F0BCF0C04438024955
:10187800084700000004FF1FF52CFF1F024880479F
:1018880002480047FEE70000B12BFF1F4118FF1F69
:10189800064C0125064E05E0E36807CC2B430C3CBB
:1018A80098471034B442F7D3FFF7CAFF385DFF1FDB
:1018B800685DFF1F70B58C180578401C6B075B0FBF
:1018C80001D10378401C2A1106D10278401C03E09C
:1018D80006780E70401C491C5B1EF9D12B0705D4F5
:1018E8000023521E0DD40B70491CFAE70378401CE4
:1018F800CB1A921C03E01D780D70491C5B1C521E0C
:10190800F9D5A142D8D3002070BD000003B4014826
:10191800019001BDD94F010003B40148019001BDF8
:1019280075A9000003B40148019001BDF9A60000A3
:1019380003B40148019001BDA1AF000003B4014800
:10194800019001BD9DA9000003B40148019001BDAB
:10195800ADAE000003B40148019001BD456B010024
:1019680003B40148019001BD0189000003B4014896
:10197800019001BDC53F000003B40148019001BDBD
:10198800E94C010003B40148019001BDC95C0100A4
:1019980003B40148019001BDDD3F000003B40148D4
:1019A800019001BD8944000003B40148019001BDC4
:1019B8002144000003B40148019001BD750F0000E7
:1019C80003B40148019001BD1907010003B401489F
:1019D800019001BDBD0B010003B40148019001BD98
:1019E800DD0C010003B40148019001BDDD0A0100CE
:1019F80003B40148019001BD0134010003B401485A
:101A0800019001BD0934010003B40148019001BDF2
:101A18000534010003B40148019001BDF53501000A
:101A280003B40148019001BDF935010003B4014830
:101A3800019001BDE917010003B40148019001BDFF
:101A48006137010003B40148019001BD01D70000CE
:101A580003B40148019001BD6DF6000003B40148CC
:101A6800019001BD7912010003B40148019001BD44
:101A78004DF9000003B40148019001BDC1F7000011
:101A880003B40148019001BD116E000003B4014880
:101A9800019001BD8D82000003B40148019001BD91
:101AA8006D0E010003B40148019001BDE90E01006B
:101AB80003B40148019001BD0D52010003B401486F
:101AC800019001BD8B52010003B40148019001BD92
:101AD800E1AC000003B40148019001BDE53A010002
:101AE80003B40148019001BD496D010003B40148E8
:101AF800019001BD3D71010003B40148019001BD91
:101B0800ED4A010003B40148019001BDA54F010051
:101B180003B40148019001BD8552010003B4014896
:101B2800019001BD156B010003B40148019001BD8E
:101B3800016C010003B40148019001BDBD5C0100C6
:101B480003B40148019001BDCD4C010003B4014824
:101B5800019001BDB30E000003B40148019001BD1E
:101B6800810E000003B40148019001BD21A90000C5
:101B780003B40148019001BDB54C010003B401480C
:101B8800019001BDC56D010003B40148019001BD7C
:101B980051B8000003B40148019001BD85C100009F
:101BA80003B40148019001BDE9D4000003B4014821
:101BB800019001BDE90B010003B40148019001BD8A
:101BC800090E000003B40148019001BD6D0B01002E
:101BD80003B40148019001BDC115010003B40148D7
:101BE800019001BDCD0C010003B40148019001BD75
:101BF80071B0000003B40148019001BDD9B00000E4
:101C080003B40148019001BD5976010003B40148AD
:101C1800019001BD53B9000003B40148019001BD12
:101C2800ED6B010003B40148019001BDC9A9000092
:101C380003B40148019001BDEDA5000003B40148BB
:101C4800019001BD3D4B010003B40148019001BD65
:101C5800154D010003B40148019001BD2D1101008B
:101C680003B40148019001BDF90D010003B4014816
:101C7800019001BDA111010003B40148019001BD0B
:101C8800A512010003B40148019001BDDD13010054
:101C980003B40148019001BDB912010003B4014821
:101CA800019001BDC913010003B40148019001BDB1
:101CB8000514010003B40148019001BD911201000F
:101CC80003B40148019001BDF113010003B40148B8
:101CD800019001BDE910010003B40148019001BD64
:101CE800B110010003B40148019001BD891401003D
:101CF80003B40148019001BD6189000003B40148A3
:101D0800019001BD810E000003B40148019001BD9E
:101D1800D1A5000003B40148019001BDD5440100DC
:101D280003B40148019001BD2D6C010003B40148C2
:101D3800019001BD7997000003B40148019001BDED
:101D48006911010003B40148019001BD8512010029
:101D580003B40148019001BD8D11010003B401488D
:101D6800019001BDE512010070B54E4A8AB0012804
:101D780000D14D4A43014D486D461C18207E00286D
:101D88000AD084208058C3B2002002E016782E546E
:101D9800401C9842FADB03E0107D0123107828707C
:101DA800E269002A04D0297506952B7705A8904783
:101DB8000AB070BDFEB5044642013C48394D1318BF
:101DC800805C191D002829D0187E002826D0987E0E
:101DD800002823D00878022820D188884A888E686D
:101DE800801A82B2102A01D9102201E0002A02D0FA
:101DF800012C16D01CE00120087000204880888043
:101E0800D969002905D02A4B6D460DCB0DC568460A
:101E18008847002C03D0192001F07CFFFEBD082064
:101E2800FAE7214D04E04888431C4B80305C287059
:101E38001046521E92B20028F5D1FEBD1A4880689D
:101E48000007000F062812D006DC02280AD0042852
:101E58000DD10121012087E7072805D00C2806D1DC
:101E68000221F7E70120A5E70F484030C06B704713
:101E78000C4880680007000F062812D006DC0228EC
:101E88000AD004280DD1012100206DE7072805D0CC
:101E98000C2806D10221F7E700208BE701484030E3
:101EA800C06B704700400040009000404464FF1F32
:101EB8002C5CFF1F10B50D497620C860FFF726FD82
:101EC80010BD0446FFF728FD0949C8694022904320
:101ED800C8612046FFF726FD01F07AFE0449042078
:101EE800C03108600120FFF723FDFEE70020004015
:101EF80000F0004010B5FFF70FFD0A480468094AD2
:101F080041178032116008490160FFF717FD20462C
:101F180010BD10B50446FFF7FFFC02480460FFF748
:101F28000DFD10BD00E100E010001000F8B5D34928
:101F3800D14A002004464A608300401CD450FF2840
:101F4800FADD4868CE4A014680318A606E22C26254
:101F5800CC4A1278002A01D07F22C2620A22026586
:101F6800C94A13788363C94BC36115781023022DBE
:101F780008D01578012D05D01578032D02D01578D5
:101F8800042D00D10362C24D45611925AD0185615B
:101F98003725CD6036272826C7630825466405649B
:101FA8004F6032270F603B27CF634127CF64392723
:101FB8004031E0C132274F6002274F614227083184
:101FC800E0C11E274F60CE608D6005264E61422617
:101FD8000E615A2660390E614D613C258D61AF2531
:101FE800ED000560AB4D05631578022D09D0157815
:101FF800012D08D01578032D07D01578042D06D0AB
:1020080007E0152504E0436003E00E2500E00C25F9
:102018004560FF252D358560C560FF25F5350561CF
:102028009D4D85647D25ED009C4ECD67C664456257
:102038009B4D85627325C565062545658565C51D66
:102048000826F93502272E6047664B27FF0087666A
:102058000927C766934F07674667BE108467C66738
:10206800914F8E4E3E601678022E09D01678012EBA
:102078000AD01678032E0BD01278042A0CD00EE062
:102088001A22CA61212205E01422CA61182201E03D
:102098001322CB610A6202E00E220B62CA617E4AF9
:1020A8008A627D22D2008A6764224A620522CA6255
:1020B80002220A63C8228C634A63382169607B491B
:1020C80029647B49A9614B21C900E9617349FF3043
:1020D800643929627D2109016962EC661E212C6739
:1020E800A9667049A965E9658910296669646967FF
:1020F8007049A9677049714A8130E9670260826056
:102108004160FF21F531C16001616E486C495A4A4E
:1021180081606D49803A11616A496C4A80318A62EE
:102128006B4ACA626B4A82616B4AC2626B4A02633B
:102138006B4A64484038C2636A4ACA616A49816323
:1021480060496A48403188616A49694888605D48E1
:10215800694A80384260694A4263694A0A62694941
:10216800816058496848C039C860FFF7EDFB012015
:10217800FFF7F0FBF8BDF3B50746644881B0C169C5
:10218800634A1140FF310931C161002613E000257F
:102198002C461120FFF7E4FB5C48406A8007800F5B
:1021A800610088402843641CE4B20546102CF0D333
:1021B80001C7761CF6B202988642E8D3FEBD10B578
:1021C8002E4C607800280AD104215248FFF7D3FF2B
:1021D800504804211030FFF7CEFF0120607010BD79
:1021E800F0B500248BB00D460646102902D901200F
:1021F8000BB0F0BDFFF7E3FF464900200A5C401C26
:102208001419C0B21028F9D3002C03D0102D03D90B
:102218000B20EDE70E20EBE73F483E4C002300681B
:1022280002A91034E25CC75C7A40CA545B1CDBB27A
:10223800102BF7D306AA3748FFF798FB102D00D9C3
:1022480010252A4606A93046FFF796FBFFF79AFBAA
:10225800216840182060FFF795FB616840186060AE
:10226800FFF790FBA1684018A060FFF78BFBE168BF
:102278004018E0600020BBE70004FF1FCC5DFF1F93
:10228800586AFF1F685DFF1F4A0AFF1F3A070000D0
:1022980080C3C9019A02000050C30000280A000048
:1022A8006A180000204E0000F009FF1F00400011CE
:1022B80068100000DC05000040420F0010270000F5
:1022C800D542FF1F0001FF1F1926FF1F8D4EFF1F5C
:1022D8006551FF1F2523FF1FB924FF1F4123FF1F3F
:1022E800ED31FF1FAD5AFF1FD158FF1F1940FF1FC7
:1022F8009927FF1F0002FF1F6140FF1F2941FF1F91
:102308006D40FF1F1D40FF1FC927FF1F40F0004001
:1023180000FEFEFF2866FF1FEC5DFF1F70B501245D
:10232800A407A36810252B43A360FFF731FBA0681F
:10233800A843A06070BD0000FFB5064601208007D5
:10234800816881B01D46102211438160554F0020DD
:1023580038603046D730FFF721FB9D208000344697
:102368008059FF36CA3401360028306822462CD0FE
:102378000121FFF719FB4B4F2078F863641C2046B6
:10238800FFF718FB00BA000AE17800020843B863B7
:10239800241D2046FFF70EFB00BA000AE178000270
:1023A80008437863241D2046FFF704FB00BA000A9F
:1023B800E178000208433863039802990002084351
:1023C800F860039F00243F1D0EE00021D1E7281983
:1023D800401CFFF7EFFA0102285D0143324820183C
:1023E8000160241DA4B23F1F042FF0DA032F04D08C
:1023F800022F08D0012F0CD011E02819FFF7DAFAC4
:102408000102090A06E0291948780A7801021143ED
:1024180000E0295D244820180160241DA4B2002191
:10242800214F02E0E0190160241DFF2CFADD1D4850
:102438001E4A42600F220261012202604269002A9C
:10244800FCD04269930701D4520708D401208007C1
:10245800826810218A438260002005B0F0BD0160C7
:102468000020039A11E0C11909682954401C80B260
:102478000B0A2B54401C0B0C80B22B54401C80B20E
:10248800090E2954401C80B2121F002AEBDC306868
:10249800401C306001208007826810218A438260D6
:1024A8000120DAE70000044000010440080F0000A2
:1024B800FFB5054601208007816881B01E461022BD
:1024C80011438160504F002038602846D730FFF70D
:1024D80065FA9D2080002C464059CA348035002872
:1024E800E86F22462BD00021FFF75EFA464F20788E
:1024F800F863641C2046FFF75DFA00BA000AE17829
:1025080000020843B863241D2046FFF753FA00BAB7
:10251800000AE178000208437863241D2046FFF78B
:1025280049FA00BA000AE1780002084338630398C0
:10253800029900020843F8600024039F0EE001217D
:10254800D2E73019401CFFF735FA0102305D01432C
:102558002E4820180160241DA4B23F1F042FF0DA72
:10256800032F04D0022F08D0012F0FD014E0301908
:10257800FFF720FA0102090A09E0311948780978B9
:102588000002084321496118086003E0315D1F48D3
:1025980020180160241DA4B200211C4B02E0E018A1
:1025A8000160241DFF2CFADD0F2217481202426039
:1025B8000F220261012202604269002AFCD00160F8
:1025C800039A0020121D11E0C11809683154401CFB
:1025D80080B20C0A3454401C0C0C80B23454401C99
:1025E80080B2090E3154401C80B2121F002AEBDC65
:1025F800E86F401CE86701208007826810218A4341
:10260800826005B0F0BD00000000044000010440F5
:10261800F8B5FFF7B7F9564908600420FFF7D0F975
:10262800FFF7D4F90646C00715D0524900200860C4
:1026380051480078012811D0032813D0042815D058
:10264800022817D0052819D0FFF7C6F94B4F0446C2
:1026580001281AD01EE0FFF7C5F9F8BD3046FFF78C
:10266800C7F90EE03046FFF7C9F90AE03046FFF730
:10267800CBF906E03046FFF7CDF902E03046FFF728
:10268800CFF940B20128E8D04FE0387805280BD0C0
:10269800062809D03A483B4D0078022808D005287A
:1026A80006D0022C0ED005E0304601F0DDFE3CE0FD
:1026B800022C02D0012C11D014E0A87B002805D0F0
:1026C800022803D03878052804D00BE0304601F002
:1026D800E3FE15E0304601F0D3FE11E0012807D0F3
:1026E800062809D03046FFF7A1F9022C08D01CE0D3
:1026F800304601F0E9FE18E0304601F0D9FE14E05A
:102708003878012811D170050FD4687BC10701D032
:10271800252004E0800701D5262000E02720297D18
:10272800814202D93220FFF787F9154C2078042816
:1027380004D003280ED0072811D014E0FFF782F93F
:10274800002810D0FFF784F95820FFF787F90220F6
:10275800207008E00C48807CFFF786F903E00B48FE
:10276800807BFFF787F90320FFF72AF9F8BD0000FF
:102778009C09FF1F9809FF1F9009FF1F1C09FF1FD5
:102788002309FF1FA60BFF1FBC0BFF1FD40BFF1F46
:1027980010B5FB2908D8084B9A4205D81B2903D342
:1027A800FF2349339A4201D2302010BD034B1982CE
:1027B8005A82FFF765F910BD480800008410FF1F12
:1027C80010B5FFF763F902490020488010BD0000EA
:1027D800CC5DFF1FC106C90E012088400149086071
:1027E8007047000000E100E0F0B585B0FFF7CAF8D7
:1027F8003C4DA860FFF7EAF80446C00711D03A49F3
:1028080000200860FFF788F8FFF7E6F83749002846
:102818000BD00F460C3F2E4601280BD0022831D092
:1028280051E0FFF7DFF805B0F0BD087800284AD17D
:10283800042145E00878012845D12A4A111DC81EFF
:1028480002F0E0FCF878002813D060050FD502AB41
:1028580001AA03A92648FFF71FF9224B00961B1D62
:10286800DA1E0299019802F0E5FC02F0C3F908218A
:1028780026E06007FBD402AB01AA03A91C48FFF7B6
:1028880011F9EAE7087802281DD1164A111DC81E59
:1028980002F0B8FCF87800281AD060050FD502AB12
:1028A80001AA03A91248FFF7F7F80E4B00961B1D63
:1028B800DA1E0299019802F0BDFC02F09BF9102182
:1028C800A878FFF7F5F8FFF78DF8FFF737F8AAE7CC
:1028D8006007F4D402AB01AA03A90548FFF7E2F8A0
:1028E800E3E70000705DFF1F9809FF1F2C64FF1FBE
:1028F8000062FF1FF0B54D4F85B0B8704D494C4888
:102908000861062203A94C4800F0E4FD69463846F0
:10291800097B0C30C1706946497B81706946897BA7
:1029280041706946C97B01706946097C41716946F5
:10293800497C01710020414A01461154401CC0B233
:10294800FF28FAD33E480224047001254570062268
:1029580082701B22C270FF26067104224271052272
:102968008271C571047203224272CC238372C172D0
:102978000273AA23437381739321C173037467217C
:102988004174F7218174DB21C17434210175C4219C
:10299800417582758E21C1755C2101760B214176C6
:1029A80083769721C1763021017756214177E62138
:1029B800817724A0006800901C481F23204A69469C
:1029C8000C3002F09FF930461D4E7D222C363070B7
:1029D80064207060C820B060FF20F53030821A484B
:1029E800F0812846354634730C3D287025206870E0
:1029F800EC70164868605320A8701548A860D2008B
:102A08000121B878FFF75AF8124A0221B878FFF77F
:102A180055F8E878AA786B46696807C3327B31783D
:102A28000DA0AB6800F026FC05B0F0BD705DFF1F7F
:102A3800F127FF1F8003FF1F004000110063FF1FE5
:102A48000064FF1F002500001027000055555500A1
:102A5800D6BE898EC40900005B5048595D20696E56
:102A6800697420646F6E6520256420726663686EE1
:102A780025642053575B2538785D204352435B25F6
:102A880064202538785D2057545B2532785D0A002C
:102A9800F8B5344D0C46C807304E314F297815D05B
:102AA800FF2909D030A000F0E5FB14220121B878F5
:102AB800FFF704F801204CE000202870022028735A
:102AC8005320B07002F062F86A68EFE7A00718D5E3
:102AD800FF2909D02CA000F0CDFB14220221B878E0
:102AE800FEF7ECFF022034E0012028700220287352
:102AF800FEF748FF68615320B07002F021F8AA6819
:102B0800ECE7A00603D502F087F8202021E0600753
:102B180016D5287B022804D01A2806D050280BD0B6
:102B28000CE01A202873332002E050202873732009
:102B3800B07002F02BF801E0FF202870042008E0B4
:102B4800200703D502F032F9082002E0E00602D59A
:102B580010206040F8BD0020F8BD00002064FF1F71
:102B6800705DFF1F2C64FF1F534B49502054585F62
:102B78004556542043757272656E7420537461749F
:102B8800732025640A000000534B49502052585FB7
:102B98004556542043757272656E7420537461747F
:102BA800732025640A000000024901480860704744
:102BB80040787D01C85DFF1F002805DBC106C90EEE
:102BC80001208840014908607047000000E100E0EA
:102BD8008307FF22DB0E9A408907090E99400028D7
:102BE80008DB830809489B001B18186890430843B2
:102BF800186070470007000F0838830804489B00D6
:102C08001B18D86990430843D861704700E400E076
:102C180000ED00E08307FF22DB0E9A408907090ECA
:102C28009940002808DB830809489B001B1818688E
:102C380090430843186070470007000F083883085E
:102C480004489B001B18D86990430843D861704713
:102C580000E400E000ED00E08307FF22DB0E9A406D
:102C68008907090E9940002808DB830809489B005A
:102C78001B18186890430843186070470007000F36
:102C88000838830804489B001B18D86990430843F8
:102C9800D861704700E400E000ED00E002E008C8F9
:102CA800121F08C1002AFAD170477047002001E0BE
:102CB80001C1121F002AFBD1704700000248C069F9
:102CC800002800D0004770474003FF1F1CB5694625
:102CD8000120FEF7F9FE012000900348019000F062
:102CE800EDFA01201CBD0000BB0B0000044629A022
:102CF800FEF7F0FE2DA0616AFEF7ECFE2FA0A16A98
:102D0800FEF7E8FE31A0E16AFEF7E4FE33A0216B8E
:102D1800FEF7E0FE35A06168FEF7DCFE37A0A1688B
:102D2800FEF7D8FE39A0E168FEF7D4FE3BA0216982
:102D3800FEF7D0FE3DA06169FEF7CCFE3FA0A16979
:102D4800FEF7C8FE41A0E169FEF7C4FE43A0216A70
:102D5800FEF7C0FE45A0616BFEF7BCFE47A02168E8
:102D6800FEF7B8FE49A0A16BFEF7B4FE4BA0E16BDD
:102D7800FEF7B0FE4DA0216CFEF7ACFE4F4841684F
:102D88004FA0FEF7A7FE52480068002800D08047F1
:102D9800FEE700005B48617264206661756C742010
:102DA80068616E646C65725D0A0000005230202014
:102DB800203D203078253038780A00005231202014
:102DC800203D203078253038780A00005232202003
:102DD800203D203078253038780A000052332020F2
:102DE800203D203078253038780A000052342020E1
:102DF800203D203078253038780A000052352020D0
:102E0800203D203078253038780A000052362020BE
:102E1800203D203078253038780A000052372020AD
:102E2800203D203078253038780A0000523820209C
:102E3800203D203078253038780A0000523920208B
:102E4800203D203078253038780A00005231302073
:102E5800203D203078253038780A00005231312062
:102E6800203D203078253038780A00005231322051
:102E7800203D203078253038780A00005350202033
:102E8800203D203078253038780A00004C52202028
:102E9800203D203078253038780A00005043202023
:102EA800203D203078253038780A000050535220D1
:102EB800203D203078253038780A000000ED00E009
:102EC80049435352203D203078253038780A000095
:102ED800C45DFF1F10B500F0E5F9FFF7F7FE002805
:102EE80002D00248804710BDFEE70000E1A20000C2
:102EF800F0B585B005460291002927D0154F00246A
:102F0800144E803F002300940222194605200194A4
:102F1800FEF7E6FD30698007FCD420200090411EB2
:102F2800009101D30846FAE738680028FCDA012145
:102F380003A8FEF7DBFD6846007B284007D0052084
:102F4800FEF70EFD0298401E0290DBD1112005B05D
:102F5800F0BD000080C800400A4610B501460020B8
:102F680001F008F810BD10B5FEF7C6FD0120FEF708
:102F7800C9FDFEF7CDFD002010BD0000F8B54D4895
:102F88004068C043000603D53C20FEF7E9FCF8BDC5
:102F9800FEF7C4FD474D0746803D28680121890496
:102FA80008432860E869444908402830E86103205C
:102FB800FEF7D6FC686AC603F60B0320FEF7D0FCC2
:102FC800686AC403E40B0320FEF7CAFC686AC503F9
:102FD800ED0BA64201D3204600E03046A84200D3BC
:102FE8002846A64201D3314600E02146A94200D234
:102FF8002946324AB218C32A26D2304AD2439442CA
:1030080022D92F4B9C421FD295421DD99D421BD2DB
:10301800081A132818D2274841680C2291434160A6
:103028004168FF221202914341601420FEF798FC88
:1030380020488038416AC269C903C90B08239A43EA
:10304800C2612048C160F8BD26462C460320FEF721
:1030580087FC18488038406AC503ED0BFEF75EFD13
:10306800B84201D3C01B01E0C01B401E164988426C
:10307800AFD310484168090A00914268FF2109024C
:103088008A430099491C0906090C0A4342604168B1
:103098000C229143091D41600020FEF745FD0B48B5
:1030A800009988400A49884200DB0846FEF709FF74
:1030B8008FE70000C0F0004000FEFEFF91FCFFFF1C
:1030C80032040000CC5DFF1FE40C0000E880000023
:1030D80060361E00F8B53D4840683C4C0006803C10
:1030E8008021002806DB6068084360600320FEF743
:1030F80037FCF8BD364D0020686120680122920433
:1031080010432060334F60688021084360600320CB
:10311800FEF726FC6869401C6861606801210904A3
:10312800084360600026E0692B4938404018E06198
:103138000320FEF715FC606AE169C003C00B082292
:103148009143E161E96806225143814201D3091A9A
:1031580000E0411A3C2909D2E269012109048A43A5
:10316800E26162688A4362602861F8BD761CF6B243
:10317800052ED8D3E169012000048143E16161682B
:103188008143616068692E46052807D3BFF34F8FD6
:1031980013491248C860BFF34F8FFEE7606880216B
:1031A800884360600320FEF7DBFBE0693840283085
:1031B800E0610320FEF7D4FB606AC003C00BF06037
:1031C800E16908208143E1619DE70000C0F000400B
:1031D800CC5DFF1F00FEFEFF280001000400FA0579
:1031E80000ED00E0F8B504460120FEF7B9FBFEF754
:1031F800A1FC1849184A0860966A184B1E60184BBB
:10320800DF6A184D2D68AF4202D2DB6AEB1A00E084
:103218000023154D2B603319D362536A2924E40324
:1032280023435362114A1278002A0FD0104A1378A8
:10323800022B07D01378012B06D01278032A06D068
:10324800C01E02E00F3800E008380860F8BD401FD3
:10325800FBE70000E408FF1F00F00040340AFF1FEE
:1032680000100040180AFF1F1C0AFF1F1C09FF1F3F
:103278004A0AFF1F0FB410B503AA0448029901F0C7
:103288002FF910BC08BC04B018470000612FFF1FBD
:1032980038B5034B00240FCB009400F039FE38BD3D
:1032A800C45CFF1F03490020486103490860486067
:1032B8007047000040F0004040F1004070B58AB00F
:1032C80000241E4D049405942878012806D004A9EA
:1032D8000120FEF7F9FB002802D000200AB070BDDB
:1032E8000498009005980190154881680291C0687B
:1032F8001349039006AA10316846FEF749FB104EA1
:1033080010222036314606A8FEF71AFC002811D0F4
:10331800012028700B4A31466846FEF739FB0494B1
:103328000020694605948200401C8C500428FADB72
:103338000120D3E7FF202870CFE70000F05DFF1FD2
:10334800002900114866FF1F10B50448C16B034AE5
:1033580040321068D06000F0B1FB10BD0080004022
:103368000648006AC00708D004481030C0680448FE
:103378000168002901D00520084770474010004027
:10338800845DFF1F0648406BC00708D004482430FE
:10339800C06804480168002901D006200847704722
:1033A80040100040845DFF1F38B5FEF7B5FA0122D2
:1033B8009207936A08240094002B01D1012090629F
:1033C8000A480221016000994D1E0095FBD2032195
:1033D80001600094641E0094FCD200210160002B5F
:1033E80000D19162FEF7AAFA38BD000000C0004083
:1033F800012189070122202804D28B688240934347
:103408008B607047402805D24B692038824093432F
:103418004B6170476028FCD20B6A40388240934366
:103428000B627047012292070121202804D2936879
:1034380081400B4393607047402805D25369203878
:1034480081400B43536170476028FCD2136A4038AF
:1034580081400B4313627047012110B5890701228F
:10346800202813D20346153B012B07D80A682020D1
:1034780082430A600A6802430A6010BD0B688240F2
:1034880093430B6008681043086010BD402814D2AD
:103498000346353B032B07D8CA6810208243CA600D
:1034A800CA680243CA6010BDCB6820388240934383
:1034B800CB60C8681043C86010BD6028FCD24B6A56
:1034C8004224201A824093434B62486A1043486260
:1034D80010BD0000F7B582B00446FEF70BFD009062
:1034E80060031121400B090647188D01AE6A224876
:1034F8008168E812814209D91F20C004044005D020
:103508001E4844620168AA1311430160002E09D1C4
:10351800FEF702FA1A490220086068620120A862D0
:10352800FEF70CFA002003E03A5C03990A54401CA9
:1035380004998842F8D30027002E08D1FEF7ECF949
:103548000F48076003206862AF62FEF7F7F90A4880
:1035580081680120C004814208D9002C06D00748A0
:1035680047620268012109048A4302600098FEF755
:10357800D0FC002005B0F0BDB85DFF1F00C80040BA
:1035880000C00040F0B52C4C89B02078012818D034
:10359800FEF7B0FC294D079028698007FCD4202746
:1035A80000970098411E0091FBD2244E803E30685F
:1035B8000028FCDA22490120FFF79AFC002821D1D3
:1035C80002E0002009B0F0BD00200090034601464B
:1035D800019003229F20FEF783FA032102A8FEF739
:1035E80085FA28698007FCD400970098411E00914D
:1035F800FBD230680028FCDA11490120FFF778FC7B
:10360800002801D01120DDE70798FEF782FC029818
:103618000C4A0002000A60606846817A0123084665
:103628001138052802D81846884001E00120C00456
:10363800A06090612370C4E7B85DFF1F80C8004098
:10364800FFFFFF078008FF1F30B5C21F0A2A01D3FA
:10365800062030BD0124074D9440002905D00021E3
:1036680000F0C0F82868204301E02868A0432860DB
:10367800002030BD00380040054B01228240D86848
:10368800002901D0104300E09043D8607047000043
:103698000038004070B5FF2814D08207D30E840884
:1036A800094A5E1DA400A518AC69F21A0126521C2D
:1036B8009640761E9E40B44399400C43AC6101216C
:1036C800FFF7DAFF70BD00000038004010B5114C5C
:1036D8002078002801D0072010BDFF212D310D488A
:1036E800FEF734FA012020700B4900200863486374
:1036F8000A490862486202211020FFF78BFA10205D
:10370800FFF75AFA064A07490D2000F0CDFA0020C3
:1037180010BD00008464FF1F0080004080F000405E
:103728003D39FF1FB138FF1F10B5172801D30520F9
:1037380010BD0C4B9C6B01228240104620439863BD
:10374800586B90435863DC6B012907D0204690439F
:10375800D863186B02431A63002010BD104620433B
:10376800F6E7000000800040054B0122801E8240E1
:103778005869002901D0104300E090435861704710
:103788000038004070B5044614480E460519002953
:1037980002D16878012808D000212046FFF76CFF85
:1037A800022C04D0032C02D005E0072070BD0121B3
:1037B8002046FFF7D9FF00212046FFF745FF0849BB
:1037C8000120A0404A68012E05D082434A600220A9
:1037D8006870002070BD02434A60FAE78464FF1FE6
:1037E8000080004070B5420083180D4A9C18A578E7
:1037F8006478D65C641B0122641CA240521EAA4055
:10380800084BA940132806D2B000C0188368934318
:103818000B43836070BD586990430843586170BD7D
:103828004F5CFF1F00F0004007494A6801238340AE
:103838001A4201D0096802E0034940310969C140D0
:10384800C807C00F704700000080004070B5154CD5
:1038580045002E1976780123114AB34000290ED06D
:10386800142809D0152807D0162805D060578000DD
:103878008018816819430DE0506918430EE0142838
:103888000AD0152808D0162806D06057800080185E
:1038980081689943816070BD50699843506170BDDB
:1038A80000F00040945CFF1F70B5104D00242E19E5
:1038B8007078012803D1E0B20121FFF7C7FF7078C3
:1038C80002280ED1E0B2FFF7AFFF01214140E0B27C
:1038D80000F074F8E0B2FFF7A7FF0C216143491923
:1038E8004876641C172CE2DB70BD00008464FF1F5F
:1038F80010B50F4C0D4A0123245C142809D2106A14
:10390800002902D0A340184301E0A3409843106265
:1039180010BD506A002903D0203CA340184302E0A0
:10392800203CA3409843506210BD000080F0004046
:10393800385CFF1F70B502211020FFF76BF91020CB
:10394800FFF73AF900241C4D07E0022C01D0032CA4
:1039580003D1E0B20121FFF707FF281940780128B9
:103968000BD1E0B2FFF760FFE2B20146104600F06B
:1039780061F8E0B20021FFF769FF0C2060434019AD
:10398800007E002814D0E0B200F066F8E6B23046B7
:10399800FFF74AFF002801D0012100E000210C2296
:1039A80072435219527E824202D0304600F0BAF871
:1039B800641C172CC9DB70BD8464FF1FF8B5420076
:1039C8008318184AD55C9A189278521ED4B2164AAF
:1039D80012185278022A21D1144EB76B01221346CD
:1039E80083401F43B763124B13280ED2002906D019
:1039F800A900C9188B68A24093438B600BE0A9000B
:103A0800C9188B68A2401343F7E70029596906D003
:103A1800A240914359610121FFF76AFFF8BDA24016
:103A28001143F7E74F5CFF1F8464FF1F00800040CD
:103A380000F00040012200B5064B824000291968B9
:103A480001D0114300E0914319600121FFF79AFE6C
:103A580000BD00000080004070B5044616482146AD
:103A68000C2251430D186A680026002A02D1AA6860
:103A7800002A1CD0104B0222183B1B195A70012235
:103A8800425400212046FFF77DFE6868002808D0D0
:103A9800A86800280DD02046FFF7C6FE002808D0E9
:103AA800002631462046FFF73FFE002070BD122059
:103AB80070BD0126F5E700009C64FF1FF3B5184EA2
:103AC800002481B0074601252846A040384223D06B
:103AD8000299084000D001200090E0B2009900F05F
:103AE80021F80C20604380194168806800290ED0B5
:103AF800002807D00098002802D00021E0B203E097
:103B08000121FBE7E0B20121FFF70EFE04E00028E7
:103B180002D0E0B20021F7E7641C172CD4DBFEBD0D
:103B28009C64FF1F074A0C2343439B185A68002ACA
:103B380001D0012904D09A68002A02D0002900D1B6
:103B4800104770479C64FF1F30B58DB0302217496D
:103B58006846FEF701F800246D466000411949786F
:103B6800285CFFF73FFE641CE4B2172CF5D310481D
:103B78004169C200914305221204891841614169D3
:103B880001225206114341614169032252059143C2
:103B98000122520589184161012000F00DF800F05A
:103BA80021F800F007F80DB030BD0000F45BFF1FEE
:103BB80000F000400F2070470449420903D000205C
:103BC800C86006207047C86000207047885DFF1FE6
:103BD8000348C1691F2252049143C1610020704704
:103BE80000F000400548C1691F2252049143044A6D
:103BF800928952041143C1610020704700F00040CF
:103C0800885DFF1F10B578210C48FDF79FFF0C4811
:103C18000078012803D0022804D0042804D1FDF735
:103C2800A1FF01E0FDF790FE06480078C00702D02A
:103C3800064905480863002010BD0000B065FF1F55
:103C4800885DFF1F00200040BD1EFF1FC000FF1F32
:103C580070B50546124812240078012815D00428AA
:103C680013D0FDF759FE0F4800210C224A43825C0D
:103C7800002A11D0AA420CD10C235943012208185A
:103C88004270FDF76FFF002406E0FDF76BFF002090
:103C980070BD491C0A29E8DBFDF750FE204670BDBF
:103CA800885DFF1FB065FF1F30B50D4C00230C2544
:103CB8005D43655D854201D1072030BD002D04D0EC
:103CC8005B1C0A2BF3DB032030BD0C256B431B194F
:103CD800F9D000245C7018709A602046596030BD95
:103CE800B065FF1F70B5FFF77DFF094D0024204622
:103CF8000C214843295C002907D040194068002856
:103D080000D08047641C0A2CF1DB002070BD000045
:103D1800B065FF1F70B505461648002400780128D5
:103D280011D004280FD0FDF7F7FD0021124A0B46E9
:103D380008460C267043165C002E0FD0AE4205D103
:103D48008018437007E0FDF70DFF0DE080184078FC
:103D5800002800D0641C491C0A29E9DB002C05D086
:103D6800FDF700FFFDF7EAFD002070BDFDF7ECFD53
:103D7800F8E70000885DFF1FB065FF1F70B51948A0
:103D88000121890742688A60826801231A434A61CF
:103D980015490A6B0261496B416100210420FEF755
:103DA8005BFF01211420FEF757FF01211520FEF7C4
:103DB80053FF01211720FEF74FFF0C4D002420462A
:103DC8000C214843295C002909D040198068002843
:103DD80000D08047641C0A2CF1DB002070BD122043
:103DE80070BD0000885DFF1F80F00040B065FF1FB8
:103DF80010B516490F20087015490120087015499B
:103E0800002008701448C16B490949010931C16390
:103E1800C16B602291432031C16300F021F8002179
:103E28000420FEF7D5FE01211420FEF7D1FE012162
:103E38001520FEF7CDFE01211720FEF7C9FE01214E
:103E480089020648FDF794FE10BD0000480AFF1FCE
:103E5800490AFF1F680AFF1F80F00040005EFF1F2D
:103E680010B5FFF737F810BD70B540251C4C012878
:103E780002D0002811D027E06069052140014009DF
:103E8800C90640186061E06916490840164940189B
:103E9800E061E0692843E06116E000210A20FFF7AD
:103EA800A1FC00210B20FFF79DFCE069032109021A
:103EB8000843E061E069A843E06160690B214001C3
:103EC8004009090740186061606901210907084332
:103ED8006061A069032149048843A06170BD0000A6
:103EE80000F000407F00FEFF80FD010010B5064A8B
:103EF800D160906000F04EF8044A00211320FFF7CB
:103F0800D3FE002010BD0000A85DFF1F9D3FFF1FCE
:103F1800FFB581B00A9F144D7E01A85D002802D02C
:103F2800112005B0F0BD6846407B002801D005206F
:103F3800F7E7741920212046FDF708FE01A80FC8ED
:103F480010340FC4384601F009FC0120A855002F91
:103F580006D0064A00211920FFF7A6FE0020E0E758
:103F68000021034A0820F7E74464FF1FC758FF1FD2
:103F7800BD58FF1F10B5064C43011B199B7E002B33
:103F880002D001F04DFB10BD01F014FB10BD000084
:103F98004464FF1FF8B5002518480095426800786A
:103FA8002B460121FDF7EAFD1649154888630120D3
:103FB800154980040860BFF34F8FBFF36F8F134814
:103FC8000168FF22120402269143B20511430160E1
:103FD800642000904120FFF725FA4020FFF722FADD
:103FE800740766620098411E0091FBD2032060624C
:103FF800FFF7DAF9A562FFF7C5FAF8BDB05DFF1F54
:10400800050001FF00C8004080E100E010E400E086
:104018007047000070B50D460446282910D1A42029
:10402800005BE188401A0B4980B2884208D32146D8
:104038006A3105220E46481FFDF782FD002804D08C
:1040480029462046FDF7A0FD70BD31462046FDF704
:10405800A1FD70BDFF7F000010B5002901D0FDF75C
:104068009FFD10BD70B5264D264E2868002804D047
:10407800FDF79CFD2978C84004E0FDF797FD3168FD
:10408800FDF79AFD04462868002804D0FDF79AFD3C
:104098002978C84004E0FDF795FD3168FDF78CFDEF
:1040A8001949A122897892005143184A184B12687D
:1040B80089180D78174A002D17D0FF31FF310231CA
:1040C8004C6C1548641C4C6400689968884201D39C
:1040D800401A02E0114B591A0818D2381060012C06
:1040E80002D1FF30F530106070BDFF31FF3100257F
:1040F80002314D645968201AC9684018F3E7000076
:104108001C08FF1F1808FF1F300DFF1F3409FF1F71
:10411800CC5DFF1FA009FF1F9C09FF1FFFFF3F0089
:10412800F3B506466548A12180788900484364496B
:1041380083B00968A12244182046FF3021305F4926
:1041480000908978920051435D4A407D12680025AD
:104158008F18FF37813732281DD022281BD0F86AE4
:104168000168002909D08188001D090A891CFDF70A
:104178002FFDF96A002001250860FDF72FFD04993D
:104188002746FF370880C137387C002821D0B04245
:104198001FDC002014E04B49012008600020F96A68
:1041A80001250860E9E780000019FF308130006BC5
:1041B8008188001D090A891CFDF70AFD0198401C29
:1041C8000190397C8142EEDCC8B2361A45190020CC
:1041D80038743D490020C870FF20AD30005901688F
:1041E800002903D00079C04380071ED00098C07D05
:1041F80000281AD00098807D002816D1387CB0425B
:1042080013DAFF204930005B010A2046FF304930AD
:10421800891CFDF7DDFC00990020C8750098012174
:10422800817529486D1CC170761E387C002802D023
:10423800284605B0F0BD2046FDF7D6FC00900028C2
:1042480021DD002E1FDD002718E02046FDF7D2FCF7
:1042580080000019FF300130C06E8188001D090AF6
:10426800891CFDF7B5FC2046FDF7CAFCE01DFF30B0
:10427800FA30016A6D1C491C7F1C01620098874254
:1042880001DAB742E1DB092080012018817E00298C
:1042980011D0017D00290ED0428E002A0BD0817FDB
:1042A800914202D2491C817705E0002181771A21C9
:1042B8002046FDF7ABFCA8B2BBE70000300DFF1F9E
:1042C8003409FF1F00140340E010FF1F70B54E486B
:1042D8000068012803D14D48816D491C8165FDF7AF
:1042E80051FB4B4D4B49A8604B4841610124C460C8
:1042F80004602878002806D0062248494848FDF777
:104308003BFB002028704749486B474AC0B21278E7
:10431800002A17D1454A0023D356002B444BD356C5
:1043280006DB1B04002555572A029A18121808E0C4
:10433800FF331B04002555572A029A183D4B1218C3
:10434800D2184A63022801D2022002E0502800D97C
:104358005020394A1278022A11D0384A1578384B39
:104368001E78B5420FD915781B78EB1A801E4010BD
:10437800434310784001C01A1030401104E0314A1C
:104388001578314BECE710784A69120A120210438B
:104398004861FDF721FB0546052801D0042D1ED1F3
:1043A8002A480078002806D029480078002802D03A
:1043B8000020FDF731FC2748A12180788900484377
:1043C800254909684018FF30FF300230007B042877
:1043D80001D0032803D1FF205F30FDF73FFB022DFA
:1043E8000ED11E480078012807D0032805D00228DE
:1043F80003D01B480078022802D16C20FDF72EFB61
:104408001848C48270BD00009809FF1FFC0FFF1FE9
:10441800CC5DFF1FFF3F000000100340D50BFF1FBE
:104428007211FF1F800003408C09FF1F680AFF1FDD
:1044380000000000FFFE0000490AFF1F440AFF1F9A
:10444800450AFF1F460AFF1F470AFF1FF908FF1FFB
:104458002209FF1F300DFF1F3409FF1F1C09FF1F12
:104468002309FF1FBC0BFF1F10B504490968002969
:1044780001D0884710BDFDF7D9FA10BD8002FF1F93
:1044880010B504498968002901D0884710BDFDF797
:10449800CDFA10BD8002FF1F10B5044949680029F4
:1044A80001D0884710BDFDF7C1FA10BD8002FF1F7B
:1044B80010B504490969002901D0884710BDFDF7E6
:1044C800B5FA10BD8002FF1F10B50449C96800295C
:1044D80001D0884710BDFDF7A9FA10BD8002FF1F63
:1044E800F7B5064686B0002004900390079810E1BF
:1044F80025290AD00499002901D0039802E00490E4
:1045080000200390401C039000E10398002805D088
:1045180081B20498B047002004900390002504223B
:10452800082310210798401C079000782B2819D0E1
:1045380004DC202818D0232804D117E02D280FD018
:10454800302815D0079A00271078FF430346303BE0
:104558003C46092B0FD807A801F01CF8044615E0C3
:104568000D43DFE71543DDE71D43DBE7202000E0CF
:1045780001200543D6E72A2808D1521C089807923B
:1045880010C80890002C01DA64420D430799384698
:104598000A782E2A14D1491C079108780246303A25
:1045A800092A03D807A800F0F5FF06E02A2806D153
:1045B800491C0791089901C90891002800DA0020D0
:1045C800079A39461778682F03D06C2F01D04C2FE3
:1045D80002D1521C39460792079B0A221B786E2B80
:1045E8002CD00CDC632B2AD004DC412B26D0582B92
:1045F80011D19BE0642B01D0692B0CD19AE0732B6D
:104608003DD004DC6F2B77D0702B04D164E0752B80
:1046180073D0782B6FD0252B09D0252069460872D6
:10462800012102A8B04707980178002975D007989A
:10463800694600780872012102A8B04766E0E806DA
:1046480009D42025641E002C05DD68460572012169
:1046580002A8B047F6E708986A4601781172001D6B
:104668000890012102A8B047202504E06846057299
:10467800012102A8B047641E002CF7DC46E0089A26
:1046880002CA08920091002901D12DA100910A4681
:1046980000E0491C0B78002B01D0401EF9D28F1A7C
:1046A800E8060AD420252046641EB84205DD68467F
:1046B8000572012102A8B047F5E7B9B20098B047E2
:1046C800202504E068460572012102A8B04720466B
:1046D800641EB842F6DC19E0611C02D108240121ED
:1046E8000D4300900898019502C8234610220890AF
:1046F80009E001E001E01BE00822089B02CB0893D7
:10470800019500902346304600F084F80798401C35
:1047180007900178002901D0EAE60EE00398002806
:1047280002D081B20498B04709B0F0BD40221543C9
:104738001022E2E702231D43DFE7401E0790E5E76A
:104748003C4E554C4C3E00007CB5194C0220207064
:10475800184D01202870FDF765FAFDF7E7FBFFF714
:1047680047FBFFF7F1F92078FDF762FA2878FFF7A1
:104778007BFBFFF747FA104903C9FFF7B7FBFEF7C2
:1047880087FDFEF7A3FF0D490DA0FEF773FD124943
:104798000978124800780191009023782A78104807
:1047A800017810A0FEF766FDFEF7DDFB00207CBD5A
:1047B8004A0AFF1F685DFF1FEC5BFF1F0101030032
:1047C80053444B2056657273696F6E204944202507
:1047D800303878200A000000450AFF1F440AFF1FEE
:1047E8004B0AFF1F7266436C6B202564207263437B
:1047F8006C6B20256420737973436C6B20256420CF
:1048080074704361705B2530327820253032785DD2
:104818000A000000FFB50746574897B0219D006879
:1048280015901E460A46680602D5534840681590FA
:10483800E80601D56D086D001998801E232870D2EE
:10484800E80701D0302100E0202110A801730021E1
:104858000172A80710D5002A04DA2D2010A90872C1
:10486800524208E0680701D52B2002E0280703D54B
:10487800202010A908725E1EA80608D519981028CD
:1048880002D0082802D002E0B61E00E0761E0024FE
:10489800002A14D010461999FDF78EF9159A525C22
:1048A80001A90A55641C0200F4D12098844200DD55
:1048B80020942098361A112005420BD00EE03020A3
:1048C800694608710124F0E7202069460870012133
:1048D8006846B8473046761E0028F5DC10A8007AEE
:1048E800002802D0012112A8B847A80616D51998A1
:1048F800082802D0102802D010E0302009E030202B
:104908006946087001216846B8471B48006820308E
:1049180040786946087001216846B847E80604D51A
:1049280007E027E0012113A8B8473046761E002883
:10493800F8DC30252099481E2090A1420BDD6846FE
:1049480005700121B847F5E7285D6946087001211F
:104958006846B84700E001AD2046641E0028F3DC35
:1049680020243046761E002804DD684604700121A4
:10497800B847F6E71BB0F0BDA05DFF1F10B50024D7
:104988000220FDF75BF90549022208600021FDF7C6
:104998005BF92046FDF7AEFF10BD00006C5DFF1F00
:1049A80070B51C480068012802D11BA0FEF762FC04
:1049B8001E481D4941610121C16001601C49486BC5
:1049C800C0B2022801D2022002E0502800D95020AB
:1049D800184A1278022A11D0174A1478174B1D78F2
:1049E800AC4215D914781B78E31A801E4010434353
:1049F80010784001C01A1030401103E0104A1478B2
:104A0800104BECE74A69120A12021043486170BD64
:104A18001078F7E79809FF1F5B504859205452490E
:104A280047204552525D0A00FF3F00000010034036
:104A3800800003402064FF1F440AFF1F450AFF1F30
:104A4800460AFF1F470AFF1F37B56846007800F07F
:104A5800B3FA6846C078104C002816D00146FDF716
:104A6800F9F8A0680199000E00060843A06002202A
:104A7800FDF7F6F8A068694600028978000A090679
:104A88000843A0600298E0603EBD68464078FDF7A4
:104A9800EDF80020ECE700004000034010B5FCF7FB
:104AA800DDFFFDF7E9F83C2208215A20FDF7EAF876
:104AB80010BD10B5FDF7ECF83C2208215A20FDF78F
:104AC800E1F810BD10B5FCF7C9FFFDF7E7F83C2287
:104AD80008215A20FDF7D6F810BD000070B5002453
:104AE8002120FCF7BBFF084D0AE00320FCF738FF44
:104AF800641CE4B20A2C03D904A0FEF7BBFB70BD0A
:104B080028680028F1D170BD9809FF1F5B504859EB
:104B18002053544F50204552525D0A0010B50121D0
:104B28000A20FDF7C1F83C20FDF7C4F84220FDF744
:104B3800C7F8342208213920FDF7A4F810BD000079
:104B480010B5FFF7CBFFFCF7E7FE0E4807C8FFF7E5
:104B58007BFFFFF7E3FF0B4C0C34207B00F0AEF833
:104B6800E089FFF79BFFFDF7B1F8FDF7B5F8FF20E7
:104B7800FDF752F8FFF714FF034901200860FCF71E
:104B8800DDFE10BD2064FF1F9809FF1F10B5FFF759
:104B9800A5FFFCF7C1FE144807C8FFF755FFFFF74C
:104BA800BDFF114C0C34207B00F088F820780228D7
:104BB80015D0FFF77EFFFDF789F8FDF78DF8FF2088
:104BC800FDF72AF809484178891CFDF701F8FFF735
:104BD800E7FE074901200860FCF7B0FE10BD208AF7
:104BE800FFF770FFE7E700002064FF1F0063FF1F67
:104BF8009809FF1F10B506480078032806D0054815
:104C080020218078FCF754FF002010BD012010BD42
:104C18002C64FF1F705DFF1F70B51248124EC178DB
:104C2800002911D0757811A0FEF724FB0D480C302F
:104C3800037B154882884178FF3AFF3A13A0023A6D
:104C4800FEF718FB002407E04578ECE7315D18A073
:104C5800FEF710FB641CE4B2AC42F7D316A0FEF7D3
:104C680009FB70BD2064FF1F0062FF1F2D2D2D2D35
:104C78002D2D2D2D2D2D2D2D2D2D2D2D2D2D2D2D5C
:104C88002D2D2D2D2D0A0000705DFF1F5B504859FA
:104C98002052585D205B2D2530336464626D2025D9
:104CA80034644B487A20253032642043485D200024
:104CB80025303278200000000A00000010B50D49A8
:104CC8000023CB560C4A002B0C4BCB5606DB1B049F
:104CD80000240C5721025918081808E0FF331B0458
:104CE80000240C5721025918081805494018506328
:104CF80010BD0000680AFF1F80000340000000008C
:104D0800FFFE0000F8B5174604461E460222124868
:104D1800FCF732FE104D06222146A81CFCF72CFE9B
:104D28002846324639460830FCF726FE0BA0FEF727
:104D3800A1FA17A0FEF79EFA002405E0295D19A044
:104D4800FEF798FA641CE4B26878801CA042F5D893
:104D580002A0FEF78FFAF8BD0063FF1F0A2D2D2D64
:104D68002D2D2D2D2D2D2D2D2D2D2D2D2D2D2D2D6B
:104D78002D2D2D2D2D2D2D2D2D2D2D2D2D2D2D2D5B
:104D88002D2D2D2D2D2D2D2D2D2D2D2D0A000000F5
:104D9800504859204255462054782044756D700A71
:104DA80000000000253032782000000010B5FCF724
:104DB800E9FD12494A69824201D8821A02E0104B81
:104DC8009A1A1218CB899A4202D2FFF7B9FE10BD7F
:104DD80048610A4A087B0C3A022806D01A2808D0EB
:104DE8005028F4D1FF20087010BD1A200873332012
:104DF80002E05020087373209070E6E72C64FF1FD0
:104E0800FFFF3F00F8B51E484168090601D500209C
:104E1800F8BD4168802211434160194D0A260027D8
:104E2800803DE86940084000E8610620FCF798FDED
:104E3800134CC03CA06980210843A061E8690121A6
:104E48000843E86102E00820FCF78AFDA86A8005AB
:104E580004D43046761EF6B20028F4D1002E07D0CE
:104E6800286A7E21C70BA0690F4088433843A06198
:104E7800A16980208143A1613806400EF8BD000079
:104E8800C0F0004010B500F0D1FA044A01215820C2
:104E980000F03CFAFFF7B6FF10BD0000600AFF1FE4
:104EA80030B5384801680122920411430160416815
:104EB800032212069143344A13781B0619434160B2
:104EC8004368032189058B4330490C78A4052343A3
:104ED800436043686024234343601378022B08D05F
:104EE8001378012B05D00B78022B02D00B78012BFD
:104EF80004D14368FF240134234343601278032A12
:104F080002D00A78032A03D1426880231A434260F8
:104F1800426803239B041A4342600B780122D2059E
:104F28001B48002B03D11B4B1B78032B19D0C368DC
:104F38009343C360164A184B4032D360FF2581352E
:104F48001561164C5461164B9361114B80335D60AB
:104F58009C60144CDC60144B03600978002903D072
:104F680006E0C3681343E4E70168012319430160BD
:104F78000E4909780E4BC906C90BC91881630D483B
:104F8800D06130BD40F000404C0AFF1F4B0AFF1FA4
:104F9800800003404A0AFF1FC00B00207A3E6A07C0
:104FA8000000890400808904CC240000480AFF1FFF
:104FB800250800002FFCA601F8B505004A484B4B10
:104FC8004B4C4C4A4C4934D0022D32D086155710E0
:104FD800066286699E43B31883612078002833D01F
:104FE8000F6146480863464800780122120380187A
:104FF8004861414E404C434B803E403C002D27D0F9
:105008006521414AC9024148012D2ED0022D31D0D7
:10501800032D5AD0042D58D03D49691831603D49B7
:10502800A1602360E06002210846FCF713FE3A48BD
:105038002BE08026066286699E430123DB04F6186E
:1050480086612078002801D00A61CAE70B61C8E7A9
:10505800324830600020A06023603148E0600321BE
:105068000846FCF7F7FD2F480FE02F4B3360A2608E
:105078002160D7E72C4B5B1C3360A2602160E060A5
:1050880002210846FCF7E6FD28482061F068FF2168
:105098000843F060264860612648A0612648E06120
:1050A80026482062264860622648A0622648E062B8
:1050B8002648206326486063E020012D0DD0216832
:1050C800022D0ED081432160F8BD224BEB183360CE
:1050D800214B73602160A260A4E7216881432031DD
:1050E800F1E781434031EEE7C000034000001C00B7
:1050F8004B0AFF1F0000040080000340030000016A
:10510800440AFF1F00280B0055555537D6BE898E17
:1051180000800642555555008055082200800678C3
:1051280007EE7536806608220180063D8045082214
:10513800A49C5C544C44434241524C46403A342E61
:1051480028007F554F49433D37312B4C46403A3470
:105158002E28221C00800698545A9850F0B5224BED
:10516800214D21498026204A0727BF04403BC03DE6
:10517800E024803902281662966914D0BE430127BC
:10518800BF04F6199661194A1278002A1ED07A10BF
:105198001A6101281ED0164A80182860154808612F
:1051A8000868A04314E00120BE43C0043618966185
:1051B8000E4A1278002A00D0401018610E48286064
:1051C8000E4808610868A043403001E01F61E0E72D
:1051D8000860F0BD0848401E286009480861086852
:1051E800A0432030F4E70000C00003404B0AFF1F33
:1051F80000800698805508220280063D80450822D6
:105208008066082270B50A4B5C6A9D6AA305012670
:105218009B0D7602B34201D99B1B02E0FF33FF339B
:1052280002330B80290E0170200E107070BD000033
:10523800C000034070B584050126A40D7602049DC4
:10524800B44201D9A41B02E0FF34FF340234090E32
:105258001C801170000E287070BD000010B50A493E
:1052680000200870094902200870FFF719FE084855
:10527800007800F011F8074C2078FFF79DFE2078A1
:10528800FCF730FD10BD00004B0AFF1F4C0AFF1F42
:10529800480AFF1F490AFF1FF0B51A4A03230725CA
:1052A800D60019499B026024ED0157693F281AD09E
:1052B800B74305263604BE195661CA689A43CB140B
:1052C800D218CA60CA69A2432032CA61CA69AA430D
:1052D800CA610D4940398A6BC0061205120DC00B10
:1052E80002438A63F0BDB7430126B604BE1956616E
:1052F800CA689A43CA60CA69A243CA61CA69AA430A
:105308008032E5E700F00040C0000340F8B53A4BB2
:105318005D6A9C6A00265E629E62384B58630E2066
:1053280018629E155E62402098625020D862FF2065
:105338002B30586231484030012915D08021016254
:105348002F49FF232D48A533403083602D4B436000
:105358002A4B2D48403B18617D20C0000090471E15
:10536800009705D33846FAE7066225498331E8E70E
:10537800264889050F18214840388763234B5B1C52
:10538800C918816322480090224800780300FCF77E
:10539800AFFC05040408060D08001F4800E01F487C
:1053A80000901F4810601548403005E01D48F7E799
:1053B800C16AC943890F14D000994B1E0093F7D2D4
:1053C8000E4940398F630D4900228A62CA628260A1
:1053D8004E620A62FF204130486207484562846293
:1053E800F8BDC16A104B1940116011680122090CFF
:1053F800120489184160E3E700100340800003406D
:10540800CA0200002020000080560C20646521009C
:10541800102700004A0AFF1F204E000030750000C8
:1054280000002020409C0000FFFF3F3F00B5002106
:10543800022000F021F80C49801C0870002142204D
:1054480000F01AF80949801C08700121022000F0B8
:1054580013F80749801C08700121422000F00CF85D
:105468000449801C087000BD440AFF1F450AFF1F3D
:10547800460AFF1F470AFF1FF8B53B4C394A22600E
:10548800394D394A07239B04803540320129A969DF
:105498000ED0994301239B04C918A9613349D160EF
:1054A80033490B780121C905324E002B07D009E09A
:1054B80099430123DB04C918A9612F49EFE7337821
:1054C800032B14D0D3688B43D36050630E20106233
:1054D80000275762FF201530506228480090307826
:1054E8000300FCF705FC0507070D090B0D00D36841
:1054F8000B43E9E7224802E0224800E022480090F6
:105508000098431E0093FBD2686B57620002000E9E
:1055180017621E4BD360FF23413353626523DB02BE
:1055280023601B4D2F78E023012F0AD02D78022D00
:1055380025680AD09D4325600D4B1B78002B07D0AA
:1055480009E025689D432035F5E79D434035F2E79E
:105558003378032B03D0D3688B43D360F8BDD3686B
:105568000B43FAE710000300400003407F4073003C
:105578004B0AFF1F4A0AFF1F7F40530010270000F5
:10558800204E000030750000409C00004040100094
:10559800490AFF1F0146002006E0531C0B600A233E
:1055A80012785843303810180A681378303B092BA2
:1055B800F3D9704778B5174B012800D1164B002452
:1055C8001648009404E0009D6E1C009685421ADC83
:1055D800DD6FED07F7D10AE0009D6E1C009685424D
:1055E80011DC1D7DAD06F7D50D781D70491C1546DB
:1055F800521E92B2002D0094F3D106E000994A1C85
:105608000092814201DD0D2078BD197D4906F5D54E
:10561800002078BD0040004000900040A0860100B6
:10562800F7B507462A49400144182A4E241D154655
:10563800002A10D0019800280DD02178002908D020
:10564800E088A84205D3012916D0A18849198142CA
:1056580003D90320FEBD0620FEBDFCF75DF9A18835
:10566800A0682A4640180199FCF748FBA088401911
:10567800A080FCF763F927E0A0680199FCF73EFBDE
:10568800A5800020608002202070A168102D00D91C
:105698001025012F00D1104E7268022082437260DB
:1056A80004E06088421C6280085C307028466D1EE9
:1056B800ADB20028F5D1002F08D01920FEF7C8FA9E
:1056C80070680221084370600020FEBD0820F5E7DD
:1056D8004464FF1F0040004000900040F8B50646B3
:1056E80008270B20184C012E02D11927174C11201E
:1056F8000121814016480160BFF34F8FBFF36F8FC0
:10570800144871010D18287C0021FDF7B5FF687C4D
:105718000021FDF7B1FF8020207300252571257039
:105728002573257265603846FDF796FE3846FDF705
:105738005FFE002E03D0084845600020F8BD0648EB
:105748004038C562F9E70000004000400090004082
:1057580080E100E04464FF1FC003FF1FF0B587B07D
:105768000746FCF7D1FA0690082001900420009023
:1057780005200390464C0B263846FFF7AFFF012F54
:1057880007D119200190082011260090414C0920CA
:105798000390414879010D18287CFF2802D1687CC4
:1057A800FF282CD010350198FDF73CFE0198FDF735
:1057B80053FE28780221FEF715F868780221FEF7D3
:1057C80011F828780099FDF765FF68780399FDF7C7
:1057D80061FF002020730698696800114A08801844
:1057E800FCF7EAF9014600202061802020730A0AAC
:1057F80022712170E97A002904D01B2103E00620D8
:1058080007B0F0BD03212173297A002900D0872130
:105818002172012161602A7A002A02D0626802435B
:105828006260AA7A002A03D0626802231A4362607F
:10583800002F12D01A4B194A5A60FF22002E11DB92
:10584800B408184BA400E4182368B507ED0EAA4065
:105858009343A8400343236013E0114B124A403B93
:10586800DA62EAE733071B0F083B9C080F4BA400DA
:10587800E418E369B507ED0EAA409343A840034333
:10588800E361002E02DB0A48B14001600020B7E75F
:1058980000400040009000404464FF1F451EFF1F69
:1058A800C003FF1F00E400E0791EFF1F00ED00E0C9
:1058B80000E100E010B50020FFF750FF10BD10B563
:1058C8000120FFF74BFF10BDF8B5614C60688030D0
:1058D800806880F30888FCF7A5F95E485E4900688F
:1058E8000225884206D00020FCF71EF968070169E6
:1058F800A943016100F0D6F858480078FCF7F2F99E
:10590800574E0020F061F561564D75610120FCF796
:1059180027F80320F061FCF701F90746FCF732F895
:105928000646FCF7FBF850490860FFF797FC4F481C
:105938000068874201D9381A01E0381A401E4C49DC
:10594800884200D9084061688A8DD20709D0494A3F
:10595800030C126880B2534350431B02000A181804
:105968000BE0C2018300D21A4300D21AC3001818F0
:10597800921C80309208400A1018E061FF313E48BE
:1059880001314968006809183C480068081A41193B
:105998008B083B488A073B4903600D68920F5219F0
:1059A8000A60042A04D95B1C9207920F03600A60FC
:1059B800E169354FC8183946FCF7FEF80246334806
:1059C800334D0368D31803602A688A182A60BA42DC
:1059D80006D95B1C036039461046FCF7EDF82960D0
:1059E800FCF798F92B480078002810D0FBF7CAFF7D
:1059F800294AE169801B12680B18934202D2511A96
:105A0800091A01E07D21C9001548FCF789F9234DE1
:105A1800287A002811D0FBF7B5FF811BE3691048ED
:105A2800EA685C183C30A24202D9D21A511A00E046
:105A38001B49FCF775F900202872FCF777F902205A
:105A4800FBF7BEFF0020FCF76FF8FCF761F8F8BD24
:105A5800CC5DFF1F0C0AFF1FB6412103490AFF1F37
:105A680000100040C4090000100AFF1F340AFF1F7D
:105A7800FFFF3F00380AFF1F1C0AFF1F200AFF1FF5
:105A8800240AFF1F280AFF1F710200006008FF1F79
:105A98002C0AFF1F1C09FF1FE408FF1F740BFF1FC0
:105AA800DC050000F8B5FDF7FDFBFDF707F901205F
:105AB800404E00903078404C022810D0FCF72EF869
:105AC80005463220FBF74CFFFDF758FA0F20FBF78D
:105AD80047FF3078012808D0FDF7FCFA1AE037486C
:105AE8004068006AFBF73CFF24E033484038C06B4D
:105AF8004007400F012802D10020FCF799F86068A0
:105B0800FF270137B84360600220FBF729FF606870
:105B180038436060FCF702F8A84201D3401B01E05B
:105B2800401B401E25491E2288615043244A49686B
:105B38008018C861244923480860234823498030D5
:105B4800C163FF21413141623078FCF771F8204987
:105B58002048FCF7E5F81F481F491430FCF7E0F827
:105B68000420FCF737FE1420FCF734FE1520FCF760
:105B780031FE1720FCF72EFEFF20FCF74DF8012020
:105B8800FCF7DAF8FF20F530FCF7DCF85820FBF7D3
:105B980065FF1248FCF7DCF80098FCF7DFF80720EF
:105BA800FCF75EF8E0690E490840FF300930E06113
:105BB800F8BD00004A0AFF1F40F00040CC5DFF1FFF
:105BC800720600000180063D000003403408000012
:105BD8007102000014100040FFFF3F003075000004
:105BE80000FEFEFF000000003B0001080200030069
:105BF800050206020703080309030A000C030D0344
:105C08000003010304030B000E030F031003110329
:105C1800120313031403150316030000992AFF1F28
:105C28000100000003000000000000000000000068
:105C38000001020307090A0B0E0F1011121417189E
:105C4800191A1B1F20212200020100050400080761
:105C5800000B0A001716001D1C01020101050401B2
:105C68000E0D011110011413011716011A19020261
:105C780001020B0A020E0D0211100214130217166C
:105C8800030504030807030B0A030E0D000D000E9D
:105C9800001000110013001401070108010A010B8C
:105CA800011C011D02040205020702080219021A5A
:105CB800021C021D03010302031700000506FFFF73
:105CC80000C2010001000000000000003031323342
:105CD8003435363738394142434445464748494ABE
:105CE8004B4C4D4E4F505152535455565758595A84
:105CF80000000000303132333435363738396162CC
:105D0800636465666768696A6B6C6D6E6F707172E3
:105D1800737475767778797A000000005048592BAB
:105D280036325858504C5553303530340000000046
:105D38000004FF1F005EFF1F0C000000A42CFF1FC3
:105D4800005EFF1F0004FF1F00040000BC18FF1FB7
:105D5800005EFF1F005EFF1F580C0000B42CFF1FE1
:105D6800000000000000000000000000000000002B
:105D7800000000000000000000000000000000001B
:105D880002000000882108005902E001000000001C
:105D98000000000000000000FC5CFF1FD45CFF1F37
:105DA8000000000000000000040000003B000108A3
:105DB80000000000000000000000080000000000D3
:105DC80040787D0100000000000000000000000095
:105DD80000000000000000000100000000000000BA
:105DE80000000000245DFF1F00000000000000000C
:085DF8000000000000000000A3
:040000051FFF184180
:00000001FF
