:020000041102E7
:1000000003B40148019001BDADAE000003B4014846
:10001000019001BD456B010003B40148019001BD91
:100020000189000003B40148019001BDC53F0000F3
:1000300003B40148019001BDE94C010003B401483B
:10004000019001BDC95C010003B40148019001BDEC
:10005000CD4C010003B40148019001BD090E000020
:1000600003B40148019001BD6189000003B4014857
:10007000019001BD154D010003B40148019001BD7F
:100080001D4B010003B40148019001BDF54E010074
:1000900003B40148019001BD434D010003B4014880
:1000A000019001BD4551010003B40148019001BD1B
:1000B0005952010003B40148019001BD3D4B0100BC
:1000C00003B40148019001BD014C010003B4014893
:1000D000019001BDF94C010003B40148019001BD3C
:1000E000B352010003B40148019001BD3522000064
:1000F00003B40148019001BD493CFF1F03B401480E
:10010000019001BD691F000003B40148019001BDC9
:100110004D1A000003B40148019001BD5D170000B5
:1001200003B40148019001BD5125000003B401480A
:10013000019001BD594F010003B40148019001BD78
:100140008D12000003B40148019001BD4D1F000055
:1001500003B40148019001BD5522000003B40148D9
:10016000019001BDDD52010003B40148019001BDC1
:100170001D4D010003B40148019001BD810E000036
:1001800003B40148019001BD017F000003B40148A0
:10019000019001BDE117000003B40148019001BDC9
:1001A0007918000003B40148019001BDD94901004C
:1001B00003B40148019001BDE928000003B40148DF
:1001C000019001BD5549010003B40148019001BDF2
:1001D0008B52010003B40148019001BDB11F000022
:1001E00003B40148019001BDC926000003B40148D1
:1001F000019001BDE122000003B40148019001BD5E
:10020000ED4A010003B40148019001BDA54F010072
:1002100003B40148019001BD8552010003B40148B7
:10022000019001BD810E000003B40148019001BDA1
:100230003519000003B40148019001BDBD1800004C
:1002400003B40148019001BD311A000003B4014814
:10025000019001BD0D52010003B40148019001BDA0
:100260009928000003B40148019001BD2129FF1F16
:1002700003B40148019001BDC521000003B4014849
:10028000019001BD291C000003B40148019001BD8B
:100290001922000003B40148019001BD851F000030
:1002A00003B40148019001BD5147010003B4014866
:1002B000019001BDA946010003B40148019001BDB0
:1002C0001147010003B40148019001BD4F28FF1FF1
:1002D00003B40148019001BD2928FF1F03B4014860
:1002E000019001BDC94A010003B40148019001BD5C
:1002F0008D1BFF1F03B40148019001BDBD1AFF1FF4
:1003000003B40148019001BDA11AFF1F03B40148C5
:10031000019001BDA91BFF1F03B40148019001BD5D
:10032000E946FF1F03B40148019001BD2983FF1F67
:1003300003B40148019001BD7945FF1F03B4014892
:10034000019001BDC145FF1F03B40148019001BDEB
:100350007144FF1F03B40148019001BD9547FF1F81
:1003600003B40148019001BDE548000003B4014811
:10037000019001BD2951010003B40148019001BD64
:10038000D91B000003B40148019001BD3D29FF1FA6
:1003900003B40148019001BD6529FF1FF8B5D34999
:1003A000D14A002004464A608300401CD450FF28F4
:1003B000FADD4868CE4A014680318A606E22C26208
:1003C000CC4A1278002A01D07F22C2620A2202653A
:1003D000C94A13788363C94BC36115781023022D72
:1003E00008D01578012D05D01578032D02D0157889
:1003F000042D00D10362C24D45611925AD0185610F
:100400003725CD6036272826C7630825466405644E
:100410004F6032270F603B27CF634127CF643927D6
:100420004031E0C132274F6002274F614227083137
:10043000E0C11E274F60CE608D6005264E614226CA
:100440000E615A2660390E614D613C258D61AF25E4
:10045000ED000560AB4D05631578022D09D01578C8
:10046000012D08D01578032D07D01578042D06D05E
:1004700007E0152504E0436003E00E2500E00C25AD
:100480004560FF252D358560C560FF25F535056183
:100490009D4D85647D25ED009C4ECD67C66445620B
:1004A0009B4D85627325C565062545658565C51D1A
:1004B0000826F93502272E6047664B27FF0087661E
:1004C0000927C766934F07674667BE108467C667EC
:1004D000914F8E4E3E601678022E09D01678012E6E
:1004E0000AD01678032E0BD01278042A0CD00EE016
:1004F0001A22CA61212205E01422CA61182201E0F1
:100500001322CB610A6202E00E220B62CA617E4AAC
:100510008A627D22D2008A6764224A620522CA6208
:1005200002220A63C8228C634A63382169607B49CE
:1005300029647B49A9614B21C900E9617349FF30F6
:10054000643929627D2109016962EC661E212C67EC
:10055000A9667049A965E9658910296669646967B2
:100560007049A9677049714A8130E9670260826009
:100570004160FF21F531C16001616E486C495A4A02
:1005800081606D49803A11616A496C4A80318A62A2
:100590006B4ACA626B4A82616B4AC2626B4A0263EF
:1005A0006B4A64484038C2636A4ACA616A498163D7
:1005B00060496A48403188616A49694888605D4895
:1005C000694A80384260694A4263694A0A626949F5
:1005D000816058496848C039C860FFF711FD0120A3
:1005E000FFF714FDF8BDF3B50746644881B0C16953
:1005F000634A1140FF310931C161002613E0002533
:100600002C461120FFF708FD5C48406A8007800FE8
:10061000610088402843641CE4B20546102CF0D3E6
:1006200001C7761CF6B202988642E8D3FEBD10B52B
:100630002E4C607800280AD104215248FFF7D3FFDE
:10064000504804211030FFF7CEFF0120607010BD2C
:10065000F0B500248BB00D460646102902D90120C2
:100660000BB0F0BDFFF7E3FF464900200A5C401CD9
:100670001419C0B21028F9D3002C03D0102D03D9BF
:100680000B20EDE70E20EBE73F483E4C00230068CF
:1006900002A91034E25CC75C7A40CA545B1CDBB22E
:1006A000102BF7D306AA3748FFF7BCFC102D00D952
:1006B00010252A4606A93046FFF7BAFCFFF7BEFC14
:1006C000216840182060FFF7B9FC6168401860603D
:1006D000FFF7B4FCA1684018A060FFF7AFFCE16829
:1006E0004018E0600020BBE70004FF1F7CA4FF1F50
:1006F000D0ECFF1F40A2FF1F4A0AFF1F3A0700006D
:1007000080C3C9019A02000050C30000280A0000FB
:100710006A180000204E0000F009FF1F0040001181
:1007200068100000DC05000040420F0010270000A8
:100730009562FF1F0001FF1F552EFF1FD585FF1F6C
:10074000AD88FF1FBD2AFF1F512CFF1FD92AFF1F95
:10075000B93BFF1FE99EFF1F0D9DFF1FA928FF1F2B
:100760001132FF1F0002FF1FE55DFF1FE960FF1F41
:100770002D60FF1F4154FF1FE934FF1F40F0004070
:1007800000FEFEFF44DEFF1F98A5FF1F0A780270DF
:100790008A7842704A88120A82700979C1700420EE
:1007A00070470A7802700988090A41700220704770
:1007B0000A7802700988090A417002207047097896
:1007C00001700120704770B50C46097801702188CE
:1007D000C51C090A4170A17881706088611D000AFA
:1007E00028706D1C22792846FFF722FC20792146CB
:1007F000401922890A31FFF71BFC20792189401812
:10080000001D80B270BD10B500220EE093005B1891
:100810009C7804705C88521C240A44701C79847093
:100820009B88D2B21B0AC370001D0B789342EDD88F
:100830001806800D10BD0A7802700A88120A4270EC
:100840008A7882704988090AC17004207047F8B517
:100850000D4606464978012031700024761C16E0CA
:100860006978012917D01221614349198A783270B9
:100870004A88871C120A7270B61C10223046091D65
:10088000FFF7D6FB1037B8B21036641CE4B22978F3
:10089000A142E5D8F8BDA10049198A7832704A888A
:1008A000871C120A7270B61C02223046091DFFF71F
:1008B000BFFBBF1CB8B2B61CE7E710B50C46097801
:1008C00001702188090A41706288211D801CFFF790
:1008D000AFFB6088801C80B210BD10B50C46097853
:1008E00001702188090A4170A17881706188090A24
:1008F000C170A288A11D001DFFF79AFBA088001DF2
:1009000080B210BD10B50C46097801702188090A23
:100910004170A17881706188090AC170A288A11D07
:10092000001DFFF785FBA088001D80B210BD0A786E
:1009300002700A88120A42708A7882704988090A0D
:10094000C1700420704710B50C460A88891CFFF757
:100950006FFB208810BD10B50B788A780270534366
:10096000DCB22246401C091DFFF762FB601C10BD73
:1009700010B50C46097801702188090A4170A178E8
:1009800081706188090AC1702279611D001DFFF71D
:100990004FFB2079001D10BD10B50B788A780270CE
:1009A0005343DCB22246401C091DFFF741FB601C8B
:1009B00010BD10B50C460A88891CFFF739FB20884A
:1009C00010BD10B50C460A88891CFFF731FB208842
:1009D00010BD10B50C46097801702188090A4170D4
:1009E0006288211D801CFFF723FB6088801C80B279
:1009F00010BD7FB515460446022901D0102903D148
:100A0000022B04D0102B02D0002004B070BD9942FC
:100A100002D10A46294607E01029694607D000F0AE
:100A20000DF8102269462846FFF70EFBEDE7104649
:100A300000F004F8102269462046F5E770B50C4630
:100A400005000CD0002C0AD0102206492046FFF7E2
:100A5000EFFA2878207368786073012070BD002059
:100A600070BD000037BE021110B50B4601220249CD
:100A700003F01AFB10BD00008D07021110B50A88A3
:100A8000173AE02A05D80B460222034903F00CFB73
:100A900010BD022010BD0000A307021170B506466C
:100AA00008880C46172812D30B4603220949304602
:100AB00003F0FAFA050008D107492088098888421E
:100AC00000D20146304600F093FA284670BD02205D
:100AD00070BD0000B1070211AAA4FF1F10B50B469C
:100AE0001822024903F0E0FA10BD0000BF0702110E
:100AF00010B500231922194603F0D6FA10BD0000E4
:100B000010B50A79022A01D0022010BD0B46062238
:100B1000014903F0C9FA10BDC707021110B50A78E0
:100B2000002A05D00B460722024903F0BDFA10BD8A
:100B3000022010BD0708021110B50B46042202491D
:100B400003F0B2FA10BD00003708021110B54A7860
:100B5000012A01D0022A08D10A78002A05D00B46C2
:100B60000522034903F0A0FA10BD022010BD0000C9
:100B70004F08021101494000085A704784DEFF1FE8
:100B800010B50B461D22024903F08EFA10BD00007D
:100B9000BB08021110B50B461B22024903F084FA70
:100BA00010BD0000BB0802110020044917224300B9
:100BB000401CCA520528FADB7047000084DEFF1F84
:100BC000042901D00420704701781170837841789E
:100BD0001B02C9185180C07810710020704700981E
:100BE000022B01D004207047117852781202891824
:100BF000018000207047022901D00420704701784D
:100C00004078000208181080002070470098012BDF
:100C100001D004207047117801700020704700292E
:100C200001D0042070470020704770B5049C1E4618
:100C30001546062B1BD369782878090240182080B6
:100C4000E978A87809024018608002222271291DE3
:100C5000601DFFF7EDF9B61FB2B22281F02A06D867
:100C60002046A91D0A30FFF7E3F9002070BD0420DB
:100C700070BD0098042B01D0042070475378117880
:100C80001B02C91801809178D2781202891841801C
:100C90000020704710B502981146022B0FD34C78F4
:100CA0000A782402121902809B1E9AB24280F42A0A
:100CB00005D8001D891CFFF7BBF9002010BD0420DA
:100CC00010BDF8B584890D460646002C26D0B268C2
:100CD0001778380620D50C2C20D90C3CA4B210195A
:100CE000009001217088234603F06CF9002811D090
:100CF000022028707806C00F6870B806800EA870B1
:100D0000641E2004000CA88001D0B068401CA860BC
:100D10000020F8BD0120ECE70020EAE70120F8BD43
:100D200010B502981146042B14D34C780A7824028B
:100D300012190280CC788A782402121942801B1F73
:100D40009AB28280F22A05D8801D091DFFF770F93A
:100D5000002010BD042010BD0098042B01D00420F9
:100D60007047537811781B02C91801809178D278A6
:100D70001202891841800020704770B5054614465C
:100D800003290CD3491ECEB229786180F52E06D8EE
:100D9000002904D03046FFF75DF9002901D0042076
:100DA00070BD20703246691C201DFFF741F90020FC
:100DB00070BD10B502981146062B03D0142B03D03A
:100DC000042010BD022200E0102202714B780A7844
:100DD0001B02D2180280CB788A781B02D21842807C
:100DE0000279401D091DFFF723F9002010BD70B5E1
:100DF0000546144603290CD3491ECEB229786180DA
:100E0000F52E06D8002904D03046FFF723F9002933
:100E100001D0042070BD20703246691C201DFFF7F0
:100E200007F9002070BD000030B5039CD80718D129
:100E3000D805010E022914D30B488088814210D8AE
:100E4000F6200155002008E0557813782D025B1933
:100E50004500401C6353C0B2921C8842F4D300206A
:100E600030BD042030BD0000A4A4FF1F0098022B59
:100E700001D004207047117852781202891801803D
:100E80000020704770B5144602460498022B18D310
:100E9000667825783602AD1905800546E0352A7654
:100EA0006976002A0BD0E8219B1E9AB242808A42C2
:100EB00007D8A11C001DFFF7BBF8002070BDF4216E
:100EC000F2E7042070BD002901D004207047002003
:100ED0007047000010B50B461622024903F0E4F8F3
:100EE00010BD0000DB08021110B50B4617220249A5
:100EF00003F0DAF810BD00000509021110B50B4629
:100F00000C22024903F0D0F810BD00002F09021195
:100F100010B50B460D22024903F0C6F810BD0000C3
:100F20004709021110B50A79102A03D0022A01D00C
:100F3000022010BD0B461022014903F0B5F810BD88
:100F40007109021110B50A78002A05D00B4611224A
:100F5000024903F0A9F810BD022010BD5709021183
:100F600010B50A79102A03D0022A01D0022010BD40
:100F70000B460822014903F097F810BD71090211D0
:100F800010B50A78002A05D00B460922024903F061
:100F90008BF810BD022010BD9909021110B50B4647
:100FA0000F22024903F080F810BD0000B3090211BE
:100FB00010B50B460B22024903F076F810BD000075
:100FC000C3090211F72800D9F720084A014610800A
:100FD000401EC3179B0F18188003000C5080491E39
:100FE000C80F4018C003000C90807047A4A4FF1FD6
:100FF000034A1288914202D8024A400011527047B7
:10100000A4A4FF1F84DEFF1F70B50B46E0331C7ED7
:101010001222012C09D10A4D4200AA5A4C880F3ADB
:10102000944201DD022070BD92225B7E012B01D132
:1010300040231A430B46034903F036F870BD000005
:1010400084DEFF1FD309021110B5002313221946B5
:1010500003F02AF810BD000070B50C4601460120CF
:1010600080020A1A00251C481300FEF7F9FF0F3210
:10107000090B0D1012181A1C2A1F212325272A00DC
:10108000408A23E0407800E08078207021E0C0783A
:10109000FBE7102211492046FEF7CAFF19E000794C
:1010A000F3E7807AF1E78069206012E0007AECE7EC
:1010B000407AEAE7C07AE8E7807BE6E703F046FAA1
:1010C000E3E7272904D2084600F08EFF208000E0E5
:1010D0000225284670BD0000ACA2FF1F64D4FF1F8C
:1010E00010B50249087003F045FB10BDACA2FF1F0C
:1010F000FFB58DB0054600200A900B901E460AAA47
:10110000284600F013FA04460A2855D203F011FBD2
:101110000546082E19D00020009033462A46214665
:101120000F9803F0EBF91422002101A8FEF79EFFAF
:1011300020460621484307462430C0B201AA1021A8
:1011400008F0CEFE002802D014E00120E4E71022CF
:10115000FF2101A8FEF790FF00280BD12537F8B238
:1011600005AA042108F0BCFEE907C90F01AA0F98DF
:1011700001F0EAF87034E0B206AA102108F0B0FEDF
:10118000002811D106A803F0E6FA002406AFA0005B
:10119000C0190188002903D082780F9801F0F0FB74
:1011A000641CE4B2042CF2D3A80707D516480178D2
:1011B0000F9801F0D3FB01E0082E02D0042E17D0C7
:1011C0001FE011480F992430405C022819D10022F9
:1011D00029460F9803F008F90B48C069002810D081
:1011E0004368002B0DD0002211460F98984708E065
:1011F00005480F992430405C022802D1084603F0CC
:10120000F1FA002011B0F0BDACA2FF1F70B50024B0
:10121000054600290BD108491046FEF71BFF08467A
:10122000294600F07DFF040003D00121284601F08B
:10123000B1F8204670BD000040420F0070B50C466A
:10124000080428D515480078FEF71CFF05001ED0BD
:101250000278B02A08D0B12A0ED0D02A14D100F0DA
:101260001FF8002810D112E001791E290CD16888DE
:10127000002100F0B5F907E00179002904D10289C5
:10128000C188688800F0A0FA2846FEF701FF012017
:10129000C003604070BD002070BD0000ACA2FF1F05
:1012A000F0B504468078964F801F3D4685B0243DBA
:1012B00000260300FEF7D4FE0AFC1111881B06CCA1
:1012C000115D9911E869002808D00668002E05D044
:1012D000637B227B6189E01CB0470EE16189A869CC
:1012E00000F01EFF0028F8D060890121D7E0607867
:1012F00000282CD1A079C00729D0A088814980007E
:101300000858002823D10E2200216846FEF7AEFEC1
:101310006169002903D006226846103107E0A088E1
:1013200006F0E6FC0028D8D0C11D06226846FEF76C
:101330007FFE69468889A1794907C90F0843694634
:1013400088812146684602F091FF002809D0E869AB
:101350000028C2D04368002BBFD06278A08801214A
:101360006FE0A0882246694603F00CFB002005B020
:10137000F0BD6078062817D1A08806F0B9FC0600F9
:1013800012D0687B012804D0022808D003280BD192
:1013900014E0B179A088002203F026F804E0A188C7
:1013A0003078052201F006F8E86900281CD043686F
:1013B000002B19D06278A088022142E00022114659
:1013C000514800F043F9EAE7E0780022211D00F0DF
:1013D000ADF80A2808D20621484325302246C0B27B
:1013E0000C32042108F0A8FD87E0287A0028A088A4
:1013F00001D0697A53E0395C002924D006F078FCEA
:101400000646A07AC0070DD0002E76D0B07900280D
:1014100008D0A189890505D46A46F11D00F086F837
:10142000002812D02246B179A088083202F0DCFFF1
:10143000E869002861D04368002B5ED00022A088B4
:101440001146984759E0052129E0A088032126E0AC
:10145000A58801962846029606F04AFC04004CD066
:10146000785D022849D0A07901AAE11D00F05EF85C
:1014700006460A280AD203F05CF9024601200090D1
:1014800008233146284603F039F836E0785D002815
:1014900003D0012806D030E00AE00521284600F0FC
:1014A00079FF2AE0A1790022284602F09DFF24E07E
:1014B00000F016FE002820D1E87B012806D0114D4F
:1014C00000240C3D285D01280AD00DE003F082F8CD
:1014D0000C48EE730A2200210C38FEF7C7FD07E026
:1014E000204603F083F82E55641CE4B20A2CE9D39D
:1014F000502008F0F3FC03F03DF9012037E700002D
:10150000D0A2FF1F0CD5FF1F0904000010B5064C28
:10151000E0612178FF2905D0262000F005FF207822
:1015200001F0CCF910BD0000ACA2FF1FF0B50A24F9
:1015300085B015460F46002806D0012804D00228A1
:1015400010D0032846D11FE0084603F0B1F8044646
:101550000A283FD2002D3DD0062239462846FEF704
:1015600067FD37E01D4E00240E20604380190622DF
:101570003946801DFEF768FD002823D1641CE4B2C3
:101580000A2CF1D30A241DE00024204606214843FA
:101590002330C0B26A46102108F0A2FC00280CD10A
:1015A0001022FF216846FEF767FD002805D1394665
:1015B000684600F06DFE002804D0641CE4B20A2CDA
:1015C000E3D3DFE70A2C05D2002D03D029462046BD
:1015D00003F094F8204605B0F0BD000074D4FF1F5E
:1015E00070B50E4617491525884212D1002432469F
:1015F0000221204602F0C2FF002800D00025641C12
:10160000E4B20A2CF3D3002E1AD00F4806F0D0FB18
:1016100016E006F06DFB040011D0A0790022E11D58
:10162000FFF784FF0A2804D23246022102F0A6FF07
:101630000025002E04D0204603F0CAF800E014254F
:10164000284670BDFFFF0000D1470211FEB51546C8
:1016500001229202821A00240127584E1300FEF73D
:10166000FFFC110A151A21282F373E434B767E8541
:101670008DA29956A200012970D1297802296DD82E
:101680004E4805222430FEF7F1FC94E0022965D192
:10169000288870828FE0012960D1287801285DD8E0
:1016A000707088E001297CD12878042879D8B0703E
:1016B00081E0012975D12878012872D8F0707AE08C
:1016C00010296ED1102229463D48FEF7B1FC72E088
:1016D000012966D12878012863D830716BE001298F
:1016E0005FD12878B07266E004295AD1354928685C
:1016F000884256D8B0615EE0002952D100F0F0FC7B
:10170000002801D0F77356E002F064FF19E00729C2
:1017100047D10622691C6846FEF7C0FC28780022E3
:101720006946FFF703FF05460A280ED200F0D8FCF1
:10173000002803D022489C3047553CE0284602F060
:1017400055FF502008F0CAFB21E0022433E00129B4
:1017500027D12878012824D830722CE021E00129F3
:101760001FD1287809281CD8707224E0012918D1CB
:101770002878C11F092914D8F0721CE0012910D162
:10178000B17B2878B073002915D1012813D102F05C
:10179000F1FF10E0012904D12878032801D87073E3
:1017A00009E0182407E02728CFD20229CDD12988C3
:1017B00000F0BAFD04462046FEBD0000ACA2FF1FAB
:1017C00064D4FF1F3F420F00F8B50F46134915259B
:1017D000164688420DD1002432463946204603F091
:1017E00021F8002800D00025641CE4B20A2CF3D3B1
:1017F00012E006F07DFA00280DD08379C11D002289
:101800001846FFF793FE0A2806D23246394603F0FF
:1018100009F8002500E014252846F8BDFFFF000068
:1018200010B50248807800F07FFA10BD8CA2FF1F2F
:101830003EB5084C6D46A4782C706870A970EA70AB
:101840000622194601A8FEF7F3FB684600F04EFB9E
:101850003EBD00008CA2FF1F70B52D4E0C462B4BD9
:10186000024631460025C01A20319A4244D00CDC91
:101870002848101A0300FEF7F3FB0D1D1F232A2D25
:10188000161616163A16163D160006282BD006DC3C
:10189000032833D0042822D0052804D121E00728CA
:1018A00023D0F7282CD0272A2CD2104600F09CFBFE
:1018B000208028E030781BE01022711C204603E0D5
:1018C0001349102211312046FEF7B2FB1BE0706A6B
:1018D000206018E00E49062228312046F4E7F08DFA
:1018E000E6E7308EE4E7708EE2E7B08EE0E7087E50
:1018F000207008E0487EFBE7887EF9E7C87EF7E7BE
:10190000087FF5E70225284670BD00000D030000A2
:10191000F0D3FF1F0003000010B50C4CA07008F0BE
:10192000CFF9442200210A48FEF7A0FB01F0B6F9E6
:10193000A07801F039FA0748FFF7E8FDFF22F532F9
:101940000421A078FEF7B0FB10BD00008CA2FF1FA1
:10195000F0D3FF1F1CBD021170B50C46080417D54B
:101960001B488078FEF78EFB05000ED00178A22977
:1019700008D0B02904D0D02904D101F0A5FE01E09F
:1019800007F00AFC2846FEF783FB0120C0031AE09B
:10199000E00703D008F040F9012014E0A00702D5C9
:1019A0000220484070BD200704D50A4800F0DEF848
:1019B000082008E0600708D5FF20F53008F086FA17
:1019C00008F042FA0420604070BD002070BD0000A5
:1019D0008CA2FF1FFEFF0000F8B5554E1546534B75
:1019E000024637460024C01A20379A424AD00EDCFD
:1019F0005048101A0300FEF733FB12272C323B200D
:101A0000202020205420205B622020694020F428E0
:101A10006BD008DC01283AD002283DD0F2285AD0F9
:101A2000F3280AD15CE0F52864D0414B4033F62816
:101A300065D0F72868D0F8286BD0272A01D2022970
:101A40006ED002242046F8BD012964D12878307078
:101A5000F8E710295FD110222946701C05E01029F3
:101A600059D13348102229461130FEF7E1FAE9E74F
:101A7000042950D128687062E4E702294BD12888F4
:101A8000F085DFE7022946D128883086DAE7022987
:101A900041D128887086D5E702293CD12888B086B4
:101AA000D0E7012937D12878042834D83876C9E717
:101AB000012930D1287807282DD87876C2E7012966
:101AC00029D12878032826D8B876BBE7012922D166
:101AD0002878F876B6E701291DD128783877B1E75C
:101AE000012918D128787877ACE7012913D1287813
:101AF000B877A7E701290ED12878F877A2E701295E
:101B000009D1287818709DE7012904D128785870E8
:101B100098E7022901D0182494E72888588091E793
:101B20002988104600F000FC04468BE712030000F1
:101B3000F0D3FF1F0003000010B5002801D0034AB6
:101B40005060084601F08EFD002010BD8CA2FF1FE2
:101B500038B5054B6C469B7823706070A170E270BD
:101B6000684600F0FDF838BD8CA2FF1F014610B595
:101B700002481322807800F01DFC10BD8CA2FF1FCC
:101B8000F8B504462C480F460078022805D00128F5
:101B900003D0082803D1002F01D01220F8BD002C5B
:101BA00007D02088254D81006958002903D01120D5
:101BB000F8BD0220F8BD06F09BF8060036D02C20B8
:101BC000FEF778FA218889006850002830D02C224E
:101BD0000021FEF74BFA20881C22810069584880BA
:101BE0002088211D80002858001DFEF721FA218839
:101BF0000220890069580870228890002B5870795B
:101C00001B1D002816D000200D49097802F086F926
:101C10000546002F03D03946304608F0D3FD002D8D
:101C200002D0208802F084FF2846F8BD1420F8BDB9
:101C30001320F8BD0120E7E7C9A4FF1FACDEFF1F9A
:101C400055A5FF1FFFB5204D81B028781E461746C9
:101C5000022823D0012821D0002F22D0019806F09D
:101C600047F804001FD0606A002801D0FEF728FA68
:101C70001C213846FEF72AFA6062011E15D028782A
:101C8000000714D5002E12D0887E00900B46123328
:101C90000A8A019809F066F8014609E0122005B0A9
:101CA000F0BD0220FBE71420F9E71320F7E700213D
:101CB0002079042210432071029A002A02D00222C5
:101CC000104320710846EAE7C9A4FF1F10B5054874
:101CD0000078000701D5044800E0002003F082FCF2
:101CE00010BD0000C9A4FF1FC0A4FF1F70B50C4C9D
:101CF00005460121207802F047FF0A480A210078B2
:101D0000084207D020462570083003F065FC02F039
:101D100089FA70BD0020207003F05EFC002070BDC9
:101D2000B0A4FF1FC9A4FF1F10B50B490968002903
:101D300004D00978814203D0032010BD122010BDC9
:101D4000064801210078FEF7C7F9302003F078FC3F
:101D5000002003F0A5FD10BD24A5FF1F55A5FF1F02
:101D600038B5234D04462868002801D0112038BD1D
:101D700020480A210078084201D1122038BD0420F1
:101D8000FEF798F9286000282FD004222146FEF79C
:101D90004FF900F0A5F9002805D00C2000F024F937
:101DA00005460D2007E06078022812D0102000F0D0
:101DB0001BF90546112000F017F90246E0780028CB
:101DC00000D0012000900C480078002807D00123A3
:101DD00006E0122000F008F905461320EBE7002387
:101DE000A0782946FEF77EF938BD132038BD0000E3
:101DF00024A5FF1FC9A4FF1FCAA4FF1FFFB51E46CD
:101E000081B017460D4602240B00FEF729F90D217B
:101E10000B0B0B0B210B210B0B21210821000EA01A
:101E2000FEF766F92946019800F05EF904000FD12B
:101E300030460B9A0A9900F02FFA3846FFF756FF02
:101E4000FFF744FF01F090FF00F08EF902F02AF84E
:101E5000204605B0F0BD00004741505F44657669FB
:101E60006365496E69743A204741505F50524F464E
:101E7000494C455F43454E5452414C207C204741DC
:101E8000505F50524F46494C455F5045524950486B
:101E90004552414C200A000070B5104C21680029C1
:101EA00004D00978814203D0032070BD122070BD98
:101EB0000B4D02212878FEF70FF90A4800264680CC
:101EC00004212878FEF708F90748068021680320D6
:101ED00048700020FEF712F970BD000028A5FF1F12
:101EE00055A5FF1F38A5FF1FCCA4FF1FF0B5054661
:101EF0003A4889B00078000702D4122009B0F0BD3A
:101F000002F0C6FE002801D01020F7E700F0E8F844
:101F1000052801D31520F1E7314C2068002801D0B5
:101F20001120EBE70A20FEF7C5F82060002851D009
:101F30000A222946FEF77CF820684078002805D060
:101F40000E2000F051F808900F2004E00C2000F063
:101F50004BF808900D2000F047F80546214800781E
:101F6000002835D001261C2000F03EF804901B20EC
:101F700000F03AF80390192000F036F802901A2089
:101F800000F032F80746162000F02EF801901520D8
:101F900000F02AF800902168C878091D02F0FFF8C7
:101FA000034602A807C8049705AF07C7226801992E
:101FB00000980391141D029001960094927829468E
:101FC0000898FEF7A1F8040005D002F0D1FD02E068
:101FD0000026C8E71324204690E70000C9A4FF1F8D
:101FE00030A5FF1FCAA4FF1F272803D202494000C3
:101FF000085A704701487047D4A4FF1FFFFF000034
:1020000010B5064C607005F0A3FE6078FEF782F80C
:102010000521607801F0B4F810BD000054A5FF1F41
:1020200070B5284E054630680C46002801D01120B6
:1020300070BD254801780520014216D023488068EC
:10204000002805D00078002802D0C80706D101E09A
:10205000102070BD00F044F8002808D02078032834
:1020600005D0022803D0002801D0122070BD0C201A
:10207000FEF720F83060002820D005700021417064
:102080000A222146801CFDF7D3FF03F035FC040033
:1020900002D002F041FD12E00D48007803280ED175
:1020A0001D20FFF7A1FF0B490028088007D00B482F
:1020B000094A04210078FDF7F7FF00E013242046C9
:1020C00070BD000028A5FF1FC9A4FF1F38A5FF1F72
:1020D000CAA4FF1FCCA4FF1F60EA000055A5FF1F84
:1020E00010B505F053FE10BD70B50C4605461C2218
:1020F00000210948FDF7BAFF084805704470FEF753
:102100000FF80549002803D000200870122070BD88
:1021100001220A7070BD000090DEFF1FC8A4FF1FDF
:102120007FB504460D46084605F0E2FD002805D0BF
:102130000C48844204D9022004B070BD1220FBE791
:10214000102200216846FDF791FF68460470210ABD
:102150004170210C8170210EC170294601F014FEDE
:10216000EAE700003F420F0070B50F4C0025A06861
:10217000002802D0FDF7A4FFA560E068002802D087
:10218000FDF79EFFE560094805210078084206D06A
:102190000548103003F02CFA02F01AF870BD002048
:1021A00003F026FA002070BD38A5FF1FC9A4FF1F49
:1021B000FEB5344D0C46080419D56878FDF762FF6A
:1021C0000121C9034C40064600280ED003F0F4F864
:1021D000002807D12878FF2804D03146FDF7A6FF54
:1021E000002802D03046FDF753FF2046FEBDE00731
:1021F000012700280AD0A868002804D041680029D7
:1022000001D00020884720467840FEBDA00709D5B0
:102210006868002804D04168002901D0012088475F
:1022200002202AE060072AD5174E308800281FD0E8
:10223000401E0004000C30801ED102F021FD002859
:1022400009D0124807706868002804D04168002946
:1022500001D00120884702F0EDFC694601F002FD43
:10226000684603F093F81D20FFF7BEFE308003E0C0
:1022700004216878FDF730FF04206040FEBD002097
:10228000FEBD000054A5FF1FCCA4FF1FCBA4FF1F61
:1022900010B501F0E1FD10BD70B50E4C0B46261DCA
:1022A00007C60546102200211846FDF7E5FE012865
:1022B00003D11021A06808F01BF810220021284645
:1022C000FDF7DAFE012803D11021606808F010F84C
:1022D00070BD000090DEFF1F38B505460F480C4664
:1022E0000078400701D4122038BD284605F000FDD3
:1022F000002811D00A48A9004058002801D0817D4B
:1023000000E02146684608F083FD064B6A4602213C
:10231000284608F0E3FC38BD142038BDC9A4FF1FCF
:10232000ACDEFF1F1DB30211272807D2044A9142D9
:1023300004D0044A40001152002070470220704728
:10234000FFFF0000D4A4FF1F70B50E4610491546CC
:102350000978022916D0012914D0002D14D005F0D7
:10236000C7FC040012D0002E03D0207902210843BC
:10237000207110222946A018FDF75AFE2869206214
:10238000002070BD122070BD022070BD142070BDF1
:10239000C9A4FF1F38B50C46054605F0A9FC002866
:1023A00006D0684604706946284608F085FC38BDAA
:1023B000142038BDF8B50D4617461D4906461B4A80
:1023C00012248868954208D100282DD00268002A7E
:1023D0002AD029463046904723E0144A521C9542A1
:1023E00013D1002807D00268002A04D029463046BD
:1023F0009047040005D03946304601F0C3FE040082
:1024000012D10B48067047700EE0284605F070FCAC
:10241000002809D00078B04205D139462846FDF79A
:102420008BFE044600E003242046F8BDFEFF0000BA
:102430002CA5FF1FF8B50E46014619481546007831
:1024400005221F46104028D0304326D01548012EC3
:102450001BD0C468002C20D01F2D18D8002D01D00F
:10246000002F14D001701F220021601CFDF7FEFD1B
:102470002A463946601CFDF7DBFD28462570002EF4
:1024800007D0611CFDF75EFEF8BD8468E2E702201C
:10249000F8BD611CFDF75CFEF8BD1220F8BD000020
:1024A000C9A4FF1F38A5FF1F014610B50020C907AA
:1024B00004D0034A0421034800F006FA10BD0000CE
:1024C000B8BD02116CA3FF1F10B5002309E01C0169
:1024D0002418E468944202D11901081810BD5B1C4D
:1024E0009BB28B42F3D3002010BD000070B50E4D9F
:1024F0000F4CA8700D49204600F020F800210D482F
:102500000B46CA0084521218491CC9B253600529EF
:10251000F7D3012004F0B0FCA87800F04BFC06488B
:1025200005F05CFC70BD00005CA3FF1F28DCFF1FF2
:10253000FFFF000038D5FF1FD166021170B50A4CAD
:102540000025A04209D1002082008C525218401C64
:10255000C0B295700628F7D370BD04F088F8002843
:10256000FAD00480857070BDFFFF0000F8B50E46FC
:102570000746069900240798002902D00B2420461C
:10258000F8BD022B01D00D24F9E711785278120220
:1025900089188DB22946814301D08024EFE738465F
:1025A000F16800F083F9A842E9D02A463846F1687C
:1025B00000F014FA0400E2D171892A46384600F08E
:1025C000B1F9DCE7FFB51F460446C1B022881D4BB8
:1025D00000254A989A4232D0A278002A2FD00A4683
:1025E00001463846FFF770FF060028D02088164ABB
:1025F0004100515C0023C91EC9B203AA02320193F3
:10260000029100927A8904AB314600F03BF8002831
:1026100015D1708969468881A078C00705D02088C7
:1026200003A9439A00F08EFB0546A078800706D5E3
:10263000208803A94B9B439A00F0F8FA05432846EB
:1026400045B0F0BDFFFF000084DEFF1F70B50C46F3
:10265000080412D50A488078FDF714FD050008D05B
:102660002878B02802D1284604F020F92846FDF742
:102670000FFD0120C003604070BD002070BD000050
:102680005CA3FF1FFFB583B0087A00250C9E1C4693
:102690000F46C0060DD5059803F0E2FF030006D0F3
:1026A0000A22394603989847050035D101E00E25E6
:1026B00032E0387802281DD17868292201784078E4
:1026C00012020002081881B2881A91427ED009DCF9
:1026D0007348081A23D0012821D002284FD003289C
:1026E00008D125E0012872D0022871D003286DD0CE
:1026F00004286ED0059803F0DBFF00286AD0056837
:10270000002DD4D00E990D980191009033462246A9
:1027100039460398A8470546284607B0F0BD0D98EE
:10272000002872D1F868017831800278416896E01B
:102730000D98002869D101203080F86800210078C8
:1027400020707889401C80B200F0CEF900280DD0AE
:10275000318802788918891C3180817A61704189B9
:10276000090AA17002784168E01C79E030880422EF
:10277000001D30800021601CFDF778FCCCE70D982F
:10278000002875D1F86802A90088009004203080E4
:10279000009820700098000A6070009800F0A4F97A
:1027A000070029D0F86800906846028901AB3D49CE
:1027B000384600F0F1F9002810D13B7802213A4860
:1027C0007A68FEF716F9002808D104E026E030E028
:1027D0001CE04AE062E0334869468880009800784F
:1027E00002280CD1009802224168201DFDF720FC30
:1027F0003088801C308002E06946009888806846F6
:102800008088A070000AE07086E731E00D9800280B
:102810002ED1F968039800F049F804E00D980028DB
:1028200026D1F8680088022131802070000A60708B
:1028300072E7F868FDF792FC0D99C0B2814212D898
:10284000814201D1002206E00E9A8918814202D30A
:102850000D99401AC2B23280F9680D9809182046C5
:10286000FDF7E6FB58E7072556E70D98002801D04D
:102870000B2551E70721F8683180017821704178F4
:1028800061708178A1704188090AE1700179217134
:1028900081796171C088000AA0713DE700252FE7AA
:1028A00000280000FFFF0000AEBE021110B503F0CB
:1028B000DEFE002800D0807810BD000001490870BD
:1028C000704700005CA3FF1F7CB51546040019D0BB
:1028D00068460194018000F073FA03001DD1002DB9
:1028E0001BD06489002C0DD00C20FDF7E3FB0028E1
:1028F0000AD0002303608480094A8560916800291A
:1029000004D006E0022308E0132306E0906004E010
:1029100011460A68002AFBD1086018467CBD0000F9
:102920005CA3FF1FF8B50C4C0746207815460E46F1
:10293000FF280FD00A20FDF717FC01000AD0B120B4
:1029400008700020487008714F80CE800D8120787B
:10295000FDF7ECFBF8BD00005CA3FF1F70B50C4653
:1029600005460649FFF7A2FF800704D52146284601
:1029700000F07AFA70BD012070BD000028DCFF1F56
:102980001CB56B461A71120A5A710022009202237A
:1029900001AA00F001F81CBDFFB583B008461F4630
:1029A00001A90C9E00F0A0F8050014D068468088AC
:1029B00003F07EFE00280AD04468002C09D000965F
:1029C0003B462946059A0398A04707B0F0BD00246E
:1029D000F3E70E20F9E70120F7E7000070B5144691
:1029E0000E46054603F043FE002806D13146054851
:1029F00003F03DFE002803D005808470002070BDE8
:102A0000112070BDFFFF000010B50178B0290BD177
:102A10004178002908D10179122906D01B2903D158
:102A20004088012100F034FB10BDFF210231095C18
:102A30000129F5D010BD10B586B06C4621806280AA
:102A400002212171032161712821A17100226946AF
:102A500003F09CFD06B010BDF0B58BB001236A46B3
:102A600093819B1ED3810223137400235374282364
:102A70000D469374064603AF02A903F063F9040000
:102A80000CD139463046FEF74DFA040006D1054B0D
:102A9000112239460095029804F022FB20460BB023
:102AA000F0BD00007B0D0211FEB50E46154607462F
:102AB00001A903F047F904000FD131463846FDF76C
:102AC000DDFF040009D1064930880880054B032248
:102AD00031460095019804F003FB2046FEBD00003E
:102AE000AAA4FF1FF70B0211F0B58C4610494B68E2
:102AF00019E09F687C89A04214D39E8831198142D5
:102B000010D900220CE011017D186989814205D19C
:102B10006046002800D004802846F0BD521C92B2C6
:102B20009642F0D81B68002BE3D10020F0BD0000D6
:102B300064A5FF1FFFB5174881B00A9F446824E0D1
:102B400000251EE0A0682901461870890199884275
:102B500015D30299884212D80498002807D03178FA
:102B60007068049B039AFDF744FF002807D0002FEC
:102B700002D0A06840893880304605B0F0BD6D1C99
:102B8000ADB2A088A842DDD82468002CD8D100209E
:102B9000F3E7000064A5FF1FFEB5174600256A464F
:102BA0009580044640891D4A1E46904208D001AADD
:102BB0000092401C237880B26268FFF7BBFF054695
:102BC0002378022116486268FDF713FF002807D119
:102BD0002378022113486268FDF70BFF002801D01B
:102BE00060890EE0237802210F486268FDF701FF3B
:102BF00000280DD0002D03D068468088B84203D04D
:102C0000384604F04DFA04E06889401E80B200E0C6
:102C10006089002E00D030802846FEBDFFFF0000F6
:102C2000ACBE0211AEBE0211B2BE0211FFB581B040
:102C30000F461E4614466946019803F099F80500B0
:102C400018D1002C06D001221021019805F02AF895
:102C500005000FD139460198FDF792FF050009D113
:102C6000009CFF2E06D021461E22A31C034804F020
:102C700023FAE670284605B0F0BD0000A56F0211EA
:102C800010B505490870042100F07AFA00F036F812
:102C9000FDF78AFF10BD00006CA5FF1FF8B50024EA
:102CA000124F2546FF26FF200D306043C019002C2F
:102CB00018D00F49018085704672FF2106720931D4
:102CC0000D54FC2200210C30FDF7D0F9641CE4B255
:102CD000062CE8D3074803F08DFC074805F07EF882
:102CE0000020F8BD0249491EE4E70000C0DEFF1FD6
:102CF000FFFF0000095C0211515B021170B50E4C20
:102D000000200C4B651CFF228100C91800280ED042
:102D10000D80401CCA70C0B28A700628F4D30748E0
:102D200003F06EFC064805F059F8002070BD0C80D9
:102D3000EFE7000008E5FF1FFEFF0000D16F021162
:102D4000256F0211F8B50D4614460646694603F094
:102D50000FF817280CD0002C06D001221021304685
:102D600004F0A0FF002803D129463046FDF712FFEA
:102D7000F8BD000070B50C46080411D5094800786C
:102D8000FDF780F9050007D00178A02901D103F0F3
:102D90004BFB2846FDF77CF90120C003604070BD65
:102DA000002070BD6CA5FF1F01490870704700002E
:102DB00060A5FF1F014908707047000064A5FF1F50
:102DC00070B50546008800281DD068680221037888
:102DD00042682248FDF70DFE002808D168680221EC
:102DE000037842681E48FDF704FE00280BD01D4CF6
:102DF0006088002805D0012229881204101A814217
:102E000003D9012070BD022070BD0C20FDF752F9DE
:102E1000060001D000200AE0132070BD02016B689B
:102E200061880A329952491C401C618080B229880D
:102E30008142F3D80020306008222946301DFDF77A
:102E4000F7F86068002802D1666004E0084601686F
:102E50000029FBD10660002070BD0000ACBE02114D
:102E6000AEBE021164A5FF1F70B5BEB00D4606468A
:102E7000002402230E4A0F4901200094FFF75AFE56
:102E8000002812D040896A4610800420508001201A
:102E900010715471FF209071D0712B460022694649
:102EA0003046FFF7C3FE3EB070BD0120FBE70000D7
:102EB000CABE0211FFFF00000649496806E08A68A1
:102EC0005289824201D18888704709680029F6D169
:102ED0000020704764A5FF1F10B51422114201D0D5
:102EE000012202E04A0604D50022102104F0DAFE95
:102EF00010BDC80701D0002010BD022010BD10B5C4
:102F000014468A0604D50122102104F0CBFE10BD20
:102F1000882211420ED008220A40102104F0C2FE7D
:102F200000280BD0E034617E0029F0D0217E0129F9
:102F3000EDD103E0880701D4032010BD002010BDAF
:102F400010B504F0EDF810BD014610B50020C9071A
:102F500004D0034A07210348FFF7B6FC10BD000068
:102F6000A4BD0211E8A2FF1F70B50D46164600244D
:102F70001D490300FDF774F8080512343419342292
:102F80002934152D23D8162200211848FDF76EF894
:102F90002A4631461548FDF74BF822E0022D16D19E
:102FA00011491088103908801BE0082D0FD10E48F8
:102FB000082231460838FDF7DDF812E0012D06D170
:102FC000CA6909493078283107E0012D01D0182459
:102FD00007E0CA6B04493078483104F074F900E026
:102FE0000224204670BD0000E8A2FF1F20D5FF1F6D
:102FF0000B7803700B8802221B0A43700B88801C1D
:10300000012B02D0022B07D011E08A780270498888
:10301000090A417004220AE08A7802704A88120A7A
:1030200042700A7982708988090AC17006221046A6
:1030300070470A7802700988090A417002207047B7
:1030400008B5044B009313460A46012104F07AFDAB
:1030500008BD0000F12F02111CB50323019200935B
:103060000A46024B122104F09DFD1CBD6974021139
:1030700008B5044B009313460A46132104F062FD81
:1030800008BD00003330021110B5FDF779F810BD0E
:1030900013B504480078012803D101AA6946FDF759
:1030A00075F81CBD78A5FF1F70B50F490F4A087051
:1030B00000210B468C00491CC9B213530429F9D3D3
:1030C0000A4C00211034FF260A460A256A431519C6
:1030D0006B80491CA354C9B26E720329F4D3FDF767
:1030E0005BF804F0FDFC70BD79A5FF1F20E5FF1F14
:1030F000082A01D0012070474B780A781B02D218A9
:103100000280CB788A781B02D21842804B790A79E8
:103110001B02D21882808A79C97909025118C180AC
:103120000020704770B50C46080411D50948007896
:10313000FCF7A8FF050007D00178902901D104F021
:1031400031FC2846FCF7A4FF0120C003604070BD9D
:10315000002070BD79A5FF1F70B505280CD20101B4
:103160000648002444520D18AC81AC80A8680028A1
:1031700002D0FDF717F8AC6070BD00005CE6FF1FE1
:10318000072907D0052905D0042903D0062901D035
:1031900002207047044A8B009A181346403B198658
:1031A000203A90740020704720E5FF1F70B5052875
:1031B0001BD25C2148430D49002446183546403552
:1031C0002C746C742C76706D002802D0FCF7EAFF2A
:1031D00074650024E00030184068002801D0FCF736
:1031E000E1FF641CE4B20A2CF4D370BDACE6FF1F0F
:1031F00070B50A880C460546072A07D0052A05D06F
:10320000042A03D0062A01D0022070BD012104F057
:1032100013FE002804D02146284604F03BF970BD77
:10322000142070BD10B5001D80B2FCF7C1FF00284E
:1032300003D00321C943FCF7C1FF10BD10B50649F7
:103240000648FFF77BF9064804F0C8FD054A082147
:103250000548FFF739FB10BD2EDEFF1FFFFF000002
:1032600051880211FCBD0211B8A3FF1F70B50024E4
:103270001546022904D0032907D00224204670BD38
:10328000FDF778FCC21E054904E0FDF773FC034915
:10329000C21EF7312846FCF7CBFEEFE740DCFF1FEC
:1032A000FFB5174602460020184D83B0032902D00F
:1032B000022007B0F0BD164E0024A100715A9142C1
:1032C00006D1A00081191046FFF7F0FA254603E069
:1032D000641CE4B2052CF0D3C00715D00C483A4664
:1032E000F7380699FCF7A4FE0A48FF21077008206A
:1032F00001910090074B0649A8008019083300226D
:10330000F739FFF75FF9D4E71020D2E7FFFF00009D
:103310002EDEFF1FB0A3FF1F002803D00249486024
:103320000020704711207047B0A3FF1F10B504465E
:10333000054906A0FCF7DCFE05494978012902D1C0
:10334000204600F077FC10BD77BD021125730A00FE
:103350008CA2FF1F70B50446024688B0214922485E
:10336000FCF7C6FE0520FEF73FFE054606A91F48EE
:10337000FEF772FA1D4804A9401CFEF76DFA1B48BF
:1033800005A9801CFEF768FAC52003A98000FEF796
:1033900063FA6946088B8880088AC880888A088111
:1033A00088894881204605F0A9F80646024621464C
:1033B0000FA0FCF79DFE144801A982783046FFF764
:1033C0004BFE182000944443104800232018044664
:1033D0002A460F4906F024FD204606F051FD08B0AC
:1033E00070BD000053BD0211543C021111030000D6
:1033F0006964782025642C636F6E6E48616E646C1E
:10340000652025640A0000008CA2FF1F4CD4FF1F1A
:103410002D33021138B541780446002903D015A098
:10342000FCF766FE38BD608900902389E288A18898
:1034300019A0FCF75DFE204605F034F8002802D103
:103440001E4806F02FFD1E48016810E0887803280A
:103450000CD10888A2880005000D904206D1C878DA
:1034600092B20823091DFDF743FE38BD0969002902
:10347000ECD138BD506172616D55706461746549FD
:103480006E666F206572726F7220737461747573EB
:103490002025640A0000000068616E646C652025C8
:1034A000642C496E74762025642C6C6174656E639F
:1034B000792025642C544F2025640A004CD4FF1F2A
:1034C00074A4FF1FF0B50446821C8BB0554905203B
:1034D00005F06FF906003FD0214620790C310A91A2
:1034E000491C0991491C0891491C4E4D4F1C1C3D1B
:1034F0000791092837D011282ED1207A00282DD005
:10350000002526E060890A996843425C0999405C7D
:103510006946000210180880608908996843425C77
:103520000799405C6946000210184880A07A001F85
:10353000C2B20A7160896843C11901A80130FCF761
:1035400077FD31466A460831062005F0CAF86D1C41
:10355000EDB2207AA842D5D80BB0F0BD60781A2819
:10356000FAD1B06843E0207A002836D0002530E058
:1035700060890A996843425C0999405C6946000287
:1035800010180880608908996843405C6946887013
:10359000608907996843415CC05D0002081869466C
:1035A0008880A07A401FC2B28A7160892146684330
:1035B0001131411801A80330FCF73AFD31466A4643
:1035C0000C31072005F08DF8694688886D1C7080E5
:1035D000EDB2207AA842CBD8BEE760781A28BBD1DA
:1035E000B21C911D062005F0E4F8002806D04288A0
:1035F00001886088AB78FFF71EFAADE761880AA002
:10360000FCF776FD6868002804D08168002901D0A5
:1036100030468847608806F0E1FB608806F0F6FBDC
:103620009AE70000A8A2FF1F416C6C2043686172FA
:103630006163746572697374696320446973636F4D
:10364000766572205375636365737320704D73677D
:103650002D3E636F6E6E48616E646C652025640A52
:10366000000000007CB50E4D297801700D48047FE4
:103670000DA02146FCF73CFD0A482246001D0146EC
:103680001339034600910190243B1978A8785B1CFC
:10369000FEF7B4FB0246084908A0FCF729FD7CBDF3
:1036A0008CA2FF1F10D4FF1F6D61785363616E4EB3
:1036B000756D2025640A000024BD021125732C724B
:1036C00065742025640A0000F0B5044680788BB04C
:1036D000A64EA74D0300FCF7C3FC0E08FE242929C3
:1036E0002CDFFD0E0E0E0EFCFB0E6178002903D0C0
:1036F000A0A0FCF7FDFC35E1A7A0FCF7F9FCABA00E
:10370000FCF7F6FCE01C00F00DFDFCF7F1FCA1A0BD
:10371000FCF7EEFC6189ABA0FCF7EAFC217BAEA0D4
:10372000E7E7E278617804F0A1FD1BE1617800220F
:10373000F9E7617800297DD1214604F0C7FC0490A7
:103740006846008A00060390000F40D16289A848AD
:10375000022181546289E0780423211DFDF7C8FC11
:103760000146A4A0FCF7C4FC00276846077131207D
:1037700001A90001FEF770F868460079002826D0FC
:103780006846078102A91F20FEF766F86846008A8E
:103790000005070F3946A1A0FCF7AAFC6846009770
:1037A00002897D20C0004243182047436F48002310
:1037B0003E18A149304606F033FB6C490120C85140
:1037C000304606F05DFB01469CA0FCF791FC039897
:1037D000000F03284AD162898548012181540821BC
:1037E000A878FCF779FC04F01DFE6048001F4088B3
:1037F00000283BD06946098A00260A07120F69464D
:103800008A80C8800E725A4901AA14310320039697
:1038100004F067FF002829D01822002105A8FCF732
:1038200025FC68460A96008A51490007000F05AA40
:10383000183100E01AE00690042004F052FF00283E
:1038400014D04B490420183104F007FF064668469F
:10385000008AFF220107090F00910123F5327E49FA
:10386000304606F0DDFA304606F00AFB6868056966
:10387000002D77D0201D00906846008A01050B0FAF
:103880000106090F032905D000220107090F6078FE
:10389000A84767E00322F8E76178002917D121469D
:1038A00004F014FC0090A08806F098FAA08806F0B6
:1038B000ADFA684600880005070F18204743B8197D
:1038C00006F0F0FA29481830381806F0EBFA03E051
:1038D00018E041E012E021E068684569002D41D020
:1038E00068460088A37901050A0F0106090F03291C
:1038F00000D000210007000FA84733E02046FFF763
:1039000089FD2FE0204606F0E1F96968002929D0F9
:103910000968002926D02046884723E068680028E7
:1039200004D04168002901D0A8688847AC68002C01
:103930000FD0A069A860E068002801D0FCF7C0FBA8
:103940006069002801D0FCF7BBFB2046FCF7B8FB00
:10395000ECE704F039FD05E040A0FCF7C9FB204688
:10396000FDF79EFC01200BB0F0BD000034D4FF1F1A
:103970008CA2FF1F44657669636520496E697420D7
:10398000446F6E65204552525F436F646520307806
:10399000253032580A000000446576696365204985
:1039A0006E697420446F6E65200A0000424C452009
:1039B0004D756C74692D526F6C652041646472653D
:1039C00073733A004843495F4C4520504B54204C98
:1039D000454E2025640A00004843495F4C45204E6F
:1039E000554D20544F54414C2025640A00000000DE
:1039F000D0A2FF1F474150426F6E644D67725F4C0B
:103A0000696E6B45737420534C41564520626F6E4E
:103A1000647265742025640A000000006D756C7482
:103A20006974696D65725F696E6974207065724949
:103A300064782025640A0000353C02116D756C74B1
:103A40006974696D65725F73746172742052455454
:103A50002025640A00000000853B021147415020E8
:103A6000736C617665207265717565737465642029
:103A70007365637572697479206576656E74200A62
:103A80000000000038B5054604F006FD044602219A
:103A9000684604F0EBFC002C0BD068464178227895
:103AA0000078631CFDF7C4FE010003D008A0FCF7FA
:103AB0001FFB38BD01206870A8700D4808210078F0
:103AC000AA68FCF781FB0BA0FCF712FB38BD0000D5
:103AD00073746172742065737461626C69736820B9
:103AE0006661696C757265207265742025640A00D0
:103AF0008EA2FF1F73746172742065737461626CAF
:103B00006973682073756363657373200A0000002E
:103B100038B504460321684604F0B2FCA0780028BA
:103B200004D0FDF77DFE010011D012E068468278D6
:103B300041780078FEF70CF80546014607A0FCF72F
:103B4000D7FA002D02D101206070A07038BD00208E
:103B5000A07007A0FCF7CCFA38BD00007374617246
:103B600074207363616E207265742025640A0000FE
:103B700073746F70207363616E20726574202564A6
:103B80000A000000F1B582B002AA2849042004F01E
:103B900010FE2649054602AA091F032004F009FE6B
:103BA0000446002D2AD0002C28D02079002825D1C9
:103BB00060881E4FC107183F0126002910D017202A
:103BC000FDF700FA6B4617201880BA781946188955
:103BD000FEF76AFF002811D126716088B0430CE01F
:103BE00081070CD56846124AFB210089FCF7F2FADE
:103BF000002803D16088022188436080FEBD400711
:103C0000FCD50A4902AA091D052004F0D2FD0500D1
:103C1000F4D028790028F1D16846B9780089FEF7F8
:103C20001BFF0028EAD126712E71FEBDA4A2FF1F42
:103C30004808000010B504460246054905A0FCF7F7
:103C400057FA0749E0B24978FFF784FB10BD00003E
:103C500037BD02112573206964782025640A0000AD
:103C60008CA2FF1F38B50C46050014D0002C12D0D2
:103C70000321684606F03CFB6946887840218006AF
:103C8000800E0843694688702246284607F080F96E
:103C9000050002D006E0022038BD03226946E01C80
:103CA000FCF7C6F9284638BDF7B58EB00E98154614
:103CB0000E4600282DD0002D2BD0301DC0B2019013
:103CC000FCF7F8F9040039D000F0C0FF074632468F
:103CD000201D0E99FCF7E2F9F8B20890E070380464
:103CE000000E0B90A0703802000E0A9060703F0E1C
:103CF000277000F0A5FF0146102202A8FCF7CEF9BC
:103D000006AB214602A8019A07F098F8060003D0F6
:103D100010E0022011B0F0BD089828700B98687070
:103D20000A98A870EF70082206A9281DFCF7B6F9BA
:103D300000F092FF2046FCF7C3F900E0132630465E
:103D4000E8E7000010B5064C2070FCF749FA0621A0
:103D50002078FFF715FA034804F040F810BD000082
:103D600094A5FF1FE9A4021110B5054800780007CB
:103D700001D5044800E0002006F08EFD002010BDB3
:103D8000C9A4FF1F7CA5FF1FF8B50E461F4C0146B6
:103D9000B50060590027002807D02422125C022AAF
:103DA00005D0032A03D0042A01D01220F8BDC2880E
:103DB000B24201D00220F8BD10220C30FCF738F9D5
:103DC00060591021353006F093FA615930460B46A0
:103DD0000A46253335320C3107F0FCF860590221D0
:103DE0000278002A427807D0032A0BD1417030466E
:103DF00006F048FA074605E0042A02D0032A03D059
:103E000000E041703846F8BD0521EFE7BCE8FF1F30
:103E100070B50C46080419D50D480078FCF732F946
:103E200005000FD006F084FC002808D1094800786E
:103E3000FF2804D02946FCF779F9002802D028464B
:103E4000FCF726F90120C003604070BD002070BD62
:103E500094A5FF1F54A5FF1F7CB50C4605001DD07F
:103E6000002C1BD00322E11C6846FCF7E1F86946F0
:103E7000887840218006800E08436946887001AA30
:103E8000284607F085F8002807D10322214601A81B
:103E9000FCF7DAF8012803D001207CBD02207CBDAC
:103EA00000207CBD10B505480078400701D50448C6
:103EB00000E0002006F0F6FC002010BDC9A4FF1FA2
:103EC00088A5FF1FF0B587B00C9E1C460D00074665
:103ED00014D068460276110A417610220021FCF7C0
:103EE000C5F8324629466846FCF7A2F8002C08D0EF
:103EF0000822214604A8FCF79BF807E0022007B03F
:103F0000F0BD0822002104A8FCF7B0F86B4606AA11
:103F100004A93846FCF76AF9F1E70000FFB581B063
:103F20000020274C9500009060591E461746002837
:103F300002D0112005B0F0BD002E0BD02120FEF7DD
:103F400053F8317E884205D82220FEF74DF8317EA5
:103F5000884201D20220EDE77820FCF7ABF86051EF
:103F600000282AD078220021FCF780F8615900202F
:103F700048706259019911706259029991706259A1
:103F8000FF21D1706159CF8061598E6061590862FB
:103F90006159203108710198002803D0384606F095
:103FA00087F900906159012048700098002802D0DC
:103FB000384606F039F90098BCE71320BAE700004C
:103FC000BCE8FF1FFFB58DB00F98169C0E46002869
:103FD00015D0002C13D00D9803F08AFE050011D0E7
:103FE0006178207809024018A178E2780904120665
:103FF00089184718286AB84206D3401C04D002200A
:1040000011B0F0BD1420FBE7002E04D02879800702
:1040100001D40120F4E70822002106A8FCF726F8C5
:104020001098001DC0B20190FCF744F8060017D0AC
:10403000301D109A0F99FCF731F8042221463046C2
:10404000FCF72CF81022A91802A8FCF727F806ABF9
:10405000314602A8019A06F0F1FE050002D013E0F5
:104060001320CDE7082206A908A8FCF717F80822B4
:10407000211D08A8FBF7E8FF012801D0012503E076
:1040800039460D9801F0BEFC3046FCF719F8284679
:10409000B6E710B5FCF7B0F80120FCF7B3F8FCF771
:1040A000B7F8002010BD0000FFB583B00F4603989D
:1040B0001B4940001646085AFFF7B4F804002AD0FE
:1040C0000125601C2670002F03D00699B847401CBC
:1040D00085B2300610D51021039803F0ADFE0028FC
:1040E00001D0192613E06219E9B22046FFF7DCFD82
:1040F00006000CD10C35ADB2042168460180019454
:10410000058169460398FFF773F8060004D020463E
:10411000FCF748F800E01326304607B0F0BD000079
:1041200084DEFF1F10B586B0044614220FA1684636
:10413000FCF774F812493020087078204870062087
:10414000891C6A46A41D641E2378401E1B09D35C8B
:104150000B70237800061B071B0FD35C4B70891C68
:10416000000EF0D10870064806B010BD3031323371
:104170003435363738394142434445460000000063
:10418000E0D3FF1F10B50C4603F0C6FD002804D095
:1041900040882146FBF7D0FF10BD122010BD002241
:1041A000002913D0002811D0012806D04A799206A0
:1041B000920E4A71032805D007E04879C0221043C7
:1041C000487102E0402002434A71012210467047C4
:1041D00070B5124800250078052108421BD0202028
:1041E000FBF768FF0E4C0028A06013D020220021AE
:1041F000FBF73CFF2020FBF75DFFE060002804D0C8
:1042000020220021FBF732FF05E0A068FBF758FFF2
:104210000020A0601325284670BD0000C9A4FF1F20
:1042200038A5FF1F70B5104C606800281AD120789F
:10423000002815D005012846FBF73CFF60600028E8
:1042400010D02A460021FBF711FF00202278FF231F
:10425000616803E00401401C0B55C0B29042F9D3E1
:10426000002070BD132070BDB0A4FF1FF3B5888877
:104270000C4681005A485A4F4058983F594E85B0D5
:10428000002823D1059800287ED0002C7CD000F097
:104290000FFA30740A281CD300250E206843C01979
:1042A0000622FF21FBF7E8FE002804D16D1CEDB2C9
:1042B0000A2DF2D30A2535740A2D07D1307B0A2145
:1042C0000546FBF7C7FE31746D1C3573307C0A2838
:1042D00061D2A088424D8000285800285ED08268B4
:1042E0000027002A0BD0307C062148432130C0B281
:1042F0001C2105F021FEA088800028588760A08836
:10430000800028580269002A0BD0307C06214843DF
:104310002230C0B21C2105F00FFEA0888000285872
:104320000761A088800028584269002A0BD0307CA1
:10433000062148432330C0B2102105F0FDFDA088BE
:10434000800028584761A08880002858C268002A49
:1043500018D0307C062148432430C0B2102105F02B
:10436000EBFDA088062180002858C268307C1032FE
:1043700048432530C0B2042105F0DEFDA08880004E
:104380002858C760B07B00E005E0002801D000F0AD
:10439000DFFA00F023FB012007B0F0BD307C0621DE
:1043A00048432030C0B20E21059A05F0C5FD102209
:1043B000FF216846FBF75AFE307C6A467030C0B277
:1043C000102105F0B9FD307C0E2148430A46C01982
:1043D0000599FBF72DFEA08880002C500020DBE71C
:1043E0000CD5FF1FACA2FF1FF0B589B017460E46D3
:1043F0000446202200216846FBF738FE68463A4D05
:104400000480A9780171EA784271E97A0177069807
:1044100002244108A87A4900C307DB0F194306911B
:1044200081070029069901DA214300E0A1430691A2
:1044300001072E4B069901D5194300E099430691D7
:10444000C1062B4B069901D5194300E0994306910B
:104450008106284B069901D5194300E0994306913E
:10446000400704210028069801DA084300E0884349
:104470000690002A05D001A810221F490230FBF740
:10448000D7FD2979002904D0002E02D006982043B8
:1044900006906846807D002900D0012108436946C6
:1044A00088756978002900D0042108436946887519
:1044B0006979002900D00821084369468875A979DF
:1044C000002900D01021084369468875E979002940
:1044D00000D0202108436946887539466846FDF7B3
:1044E0004FFB09B0F0BD0000ACA2FF1F00010000AF
:1044F000000200000004000064D4FF1FF0B506466F
:1045000087B0062041430C9D1446082B1BD0213157
:10451000CFB21C2200216846FBF7A8FD6A461C2189
:10452000384605F0DDFC00280BD16846807EC01FB0
:10453000092806D8E107C90F2B466A463046FDF721
:1045400081FB07B0F0BD2231E2E7000070B5002525
:10455000094E2C460E20604380190622FF21FBF7EE
:104560008BFD002801D16D1CEDB2641CE4B20A2C55
:10457000F0D3284670BD000074D4FF1F7FB50D46F0
:1045800006214843044616462034E0B26A460E210E
:1045900005F0A6FC002806D10622FF216846FBF79D
:1045A0006BFD002802D0002004B070BD68468089F1
:1045B000002EC3B202D02B43DBB200E0AB439842E3
:1045C00006D068468381E0B26A460E2105F0B4FC4D
:1045D0000120E9E710B50024204600F007F8641C2C
:1045E000E4B20A2C01D20028F6D010BDF0B5064680
:1045F00004460620444325468FB02035E8B207AA7A
:104600000E2105F06DFC002806D10622FF2107A827
:10461000FBF732FD002802D000200FB0F0BD0E22C3
:10462000FF2107A8FBF722FD1C22FF216846FBF7AC
:104630001DFD1022FF210BA8FBF718FDE8B207AA09
:104640000E2105F079FC074620462130C0B26A46AB
:104650001C2105F071FC0546204622303D43C0B2C6
:104660006A461C2105F068FC0746204623302F438C
:10467000C0B26A46102105F05FFC05462046243092
:104680003D43C0B26A46102105F056FC074625346A
:104690002F43E0B26A46042105F04EFC0446703612
:1046A0003C43F0B20BAA102105F046FC2043B4E7CE
:1046B00070B50A4D064600240E20604340190622BC
:1046C0003146FBF7C1FC002801D0204670BD641CB8
:1046D000E4B20A2CF0D30A2070BD000074D4FF1F8E
:1046E00000229300CB5A834202D1900040187047B9
:1046F000521CD2B2042AF4D3002070477FB50D4675
:104700000A280CD2002D0AD0062148432030C0B21E
:104710006A460E2105F0E4FB040003D007E0022006
:1047200004B070BD062269462846FBF781FC20468E
:10473000F6E71FB5062148432030C0B26A460E2175
:1047400005F0CEFB002802D0002004B010BD684662
:104750008089C0B2F9E700218A00835A491CDB43F3
:10476000835212189378C9B2DB4393700429F3D3B0
:104770007047000070B5144E00240E206043851968
:104780002046062148432030C0B22A460E2105F0BB
:10479000A7FB00280BD028460622FF21FBF766FC6A
:1047A000A81D0622FF21FBF761FC0020A881641CE4
:1047B000E4B20A2CE1D30548807B002801D000F048
:1047C000C7F800F00BF970BD74D4FF1FACA2FF1F37
:1047D00010B5034940880978FEF7C0F810BD000005
:1047E000ACA2FF1F10B50E4B1979002900D0012192
:1047F0005A78002A00D004220A435979002900D0AF
:10480000082111439A79002A00D010220A43D9794D
:10481000002900D020211143FDF75EFD10BD0000EE
:10482000ACA2FF1F70B50E4605460621484388B06E
:1048300014462030C0B204AA0E2105F051FB002816
:1048400043D10622FF2104A8FBF716FC00283CD127
:104850007035E8B26A46102105F042FB002831D1DC
:104860006846FFF778FF002E06D069463046FFF70E
:1048700037FF00280DD015E0102200216846FBF715
:10488000FBFB00281ED1102200216846FBF7EEFB3F
:1048900010E0002C19D069460020FFF721FF002806
:1048A00013D006808178A1420CD08470002C01D1F5
:1048B000002101806846FFF74EFFE8B26A461021EA
:1048C00005F03AFB012008B070BD0020FBE70000B6
:1048D00070B51C4C0646206A1B4D86B0002809D1D5
:1048E0002046143000900223184A29460120FEF782
:1048F00021F920E004A802220021009002920191F7
:1049000003ABA28A3046216AFDF7BCFE00280CD119
:104910006946087B497B090240180204120C04D046
:10492000206A41893046FCF74FFF0023A28A2946BE
:10493000206AFEF731F920620028DBD1012006B0A1
:1049400070BD0000ACA2FF1FFFFF0000B8BE021147
:1049500070B5FBF769FC0A4E00240E2060438019F5
:1049600005460622FF21FBF787FB002802D12946D6
:10497000FBF760FC641CE4B20A2CEED370BD0000AF
:1049800074D4FF1F70B50B46044611461846FFF756
:104990006DFC00281CD00F4DA40028598088FFF71B
:1049A00097FF002814D00C4EF069002807D0436808
:1049B000002B04D0285900228088012198472859CB
:1049C000002803D0FBF764FB002028510A20307434
:1049D00070BD00000CD5FF1FACA2FF1F08B5FFF78C
:1049E000B5FD012801D9022000E00A2069460870BF
:1049F0006A4601210520FEF7B7FA08BD10B50D4A39
:104A000003460B4C12201268A14209D1002A04D09F
:104A10001078984202D1FBF713FC10BD032010BDA3
:104A2000034B5B1C9942FAD1002AF4D110BD00005F
:104A3000FEFF000030A5FF1F0246094B10B5012004
:104A4000D21807D0012A01D0002010BD8A68127840
:104A5000002AFAD08868007800F0A8FF10BD000096
:104A6000F5DFFFFF002909D0012807D1497989091D
:104A70008901C02902D0402901D0022070470320BB
:104A80007047FFB500200E4608701AE01C5C401C01
:104A9000C5B2002C17D02819904214D85F5D6D1C48
:104AA000EDB2384600F0D7FF002806D0641EE0B211
:104AB000307000998F4202D1581904B0F0BD4019EE
:104AC000C0B29042E2D30020F7E70000F8B5114DE4
:104AD000064668680F4600281AD0002415E0696869
:104AE00020010A5CFF2A0ED040184178B1420AD159
:104AF00006223946801CFBF7A7FA002803D0696814
:104B000020014018F8BD641CE4B228788442E6D342
:104B10000020F8BDB0A4FF1F10B5044C2068002889
:104B200003D0FBF7CDFA0020206010BD28A5FF1FA1
:104B300070B50E4D84002859002815D0006A002851
:104B400001D0FBF7BDFA2859406A002801D0FBF7D5
:104B5000B7FA2859806A002801D0FBF7B1FA285922
:104B6000FBF7AEFA0020285170BD0000ACDEFF1F3D
:104B700010B5044C6068002803D0FBF7A1FA0020B0
:104B8000606010BD2CA5FF1FF3B51F4C0646606882
:104B900081B0002824D0002518E060682F01381863
:104BA0008068002805D0FBF78BFA6168002079182F
:104BB000886060683818C068002805D0FBF780FA64
:104BC000616800207918C8606D1CEDB2B542E4D36D
:104BD0000298002805D06068FBF772FA0020606038
:104BE000FEBD606832010028FAD00021FBF73EFAD2
:104BF0000021FF22606803E00B01491CC254C9B2C6
:104C0000B142F9D3FEBD0000B0A4FF1F011E04484D
:104C100005D104498978002901D00248801D7047D8
:104C2000A0DEFF1FC8A4FF1F014880787047000066
:104C3000C8A4FF1F014840687047000090DEFF1FB6
:104C4000014880687047000090DEFF1F0148C0687F
:104C50000068704790DEFF1F10B50748C068016804
:104C6000491C016005480078FF2803D00121890311
:104C7000FBF7ECFA10BD000090DEFF1FC8A4FF1F79
:104C800002484068002800D00120704724A5FF1F7B
:104C900002480068002800D00120704724A5FF1FAB
:104CA000FFB581B00F460D9E0A9D039803F020F8D2
:104CB000040042D0019800283FD1207910210843F8
:104CC00020710499490702D50221084301E0FD2122
:104CD000084020710B99284608430C99084330433B
:104CE000207902D00421084301E0FB210840207113
:104CF000002E06D03069102220623146A018FBF742
:104D000097F9002D01D0002F05D00B98002814D062
:104D1000012F08D011E0606A002801D0FBF7D0F91C
:104D20001C21284606E0606A002801D0FBF7C8F97C
:104D30001C210B98FBF7CAF960620398224C87008C
:104D4000E05900283ED0002D0FD0006A002806D17F
:104D50001C20FBF7AFF9E1590028086205D0E059A3
:104D60001C22006A2946FBF763F90C98002810D032
:104D7000E059406A002806D11620FBF79BF9E1595B
:104D80000028486205D0E0591622406A0C99FBF7CA
:104D90004FF9002E10D0E059806A002806D1142067
:104DA000FBF788F9E1590028886205D0E059142200
:104DB000806A3146FBF73CF90B9B049A03990198F2
:104DC00005F006F905B0F0BDACDEFF1FF3B581B00C
:104DD000019802F08DFF050029D00E20FBF7C4F9E1
:104DE000040024D02620FDF7FFF8060000D12E781D
:104DF000D0202070002767700B20A0700622E91DCC
:104E0000E01CFBF715F9019860810298C1070120A9
:104E1000002901D0207300E027730299890701D58A
:104E2000607300E06773F0B22146FBF77FF9FEBDC7
:104E300010B581881F4B0124CA1A994237D011DC62
:104E40001D4BCA1A994219D007DC1C4A8A1810D087
:104E5000022A1ED0032A29D11BE0472A27D0482A3C
:104E600024D124E01300FBF7FBF8062122222222A2
:104E700022218068007800F083FD08E08068827855
:104E800041781202891889B2007800F005FE0446C4
:104E90000DE0094A921E914201D1012200E0002258
:104EA00080680178104600F0DFFD00E00024204615
:104EB00010BD0000532000000A200000FADFFFFFB1
:104EC000F8B54B4F002539680446284600291DD007
:104ED00021782646093601290BD0227A33466946C5
:104EE0000120FFF7CEFD002800D0057821780429A5
:104EF00012D03968497803290ED00A462A430BD0CC
:104F0000002872D0012902D0022902D06DE0A80742
:104F100000E0E807002868D06078A11CFFF7A2FD38
:104F20006070A11CFFF7D2FD050028D0207804286E
:104F300001D0A86800E0E86800283ED02D49096843
:104F4000898DC90509D40178227A914205D131466B
:104F5000401CFBF779F8012847D020780027042867
:104F600006D0A868002828D0FBF7AAF8AF6024E094
:104F7000E868002821D0FBF7A3F8EF601DE0237854
:104F8000042B32D01C494A68002A2ED00020097810
:104F900005E00501555DFF2D04D0401CC0B28842DC
:104FA000F7D322E0000185181FD02B70607868705D
:104FB0000622A11CA81CFBF73BF8207A401CFBF73B
:104FC00079F800280CD02178042901D0A86000E0ED
:104FD000E860217A0170227A3146401CFBF728F8FC
:104FE000207A002801D00120F8BD0020F8BD000083
:104FF00024A5FF1F80A4FF1FB0A4FF1F70B51A4D8A
:105000001A4A0146002628781268194C01290CD04A
:10501000002A09D017490978490705D50221FBF76D
:105020005BF86680FFF778FD70BD6188002903D0CA
:10503000114B1B78002B05D0002AF5D01078FCF717
:105040002BFF70BD3C2902D33C39618070BD022129
:10505000FBF742F862887D20C00042430221287895
:10506000FBF7B2F8668070BD55A5FF1F28A5FF1F8E
:1050700038A5FF1FC9A4FF1FCBA4FF1F10B50E4A00
:105080000124801810D001280BD0062810D00B4A1C
:10509000D04203D1084600F049F900E00024204640
:1050A00010BD00F0ABFCFAE7887800F08DF8F6E769
:1050B000887800F005F8F2E7F3DFFFFF0E20FFFF2E
:1050C00008B5002805D000210B460A46009100F0E3
:1050D00077FB08BD08B5418900910389C2888188A2
:1050E000C07800F06DFB08BDF0B504468088A121B2
:1050F00089004843304987B009684018FF30FF30C5
:105100000230A1794167002C54D02C4D68680028EA
:1051100023D006782A480068002804D04168002976
:1051200001D0002088472146E07908310591FFF73A
:1051300099FCE0710246277D638A218AE08901900B
:1051400002A88AC0A0880090E0783146059B04F050
:10515000B5FFE078002802D00DE01A48D9E7E079E1
:10516000E2896B46059907C3A379A18801223046DD
:1051700002F06CFDE0706868002811D0FFF7F8FCC1
:10518000287800280CD06978FEF7FCFF002807D0AB
:10519000E078A2880346297804F0BDFF002028703B
:1051A000A0881721FBF724FFA088FDF7D5FFA08872
:1051B000FDF7FCFF07B0F0BD3409FF1F2CA5FF1F52
:1051C00058A5FF1FC8A4FF1F00B585B0002810D048
:1051D00009490B68002B0CD0002101910291039129
:1051E00004910091DA7819781B1D04F067FFFFF72E
:1051F000BFFC05B000BD000030A5FF1F70B5044620
:105200000026808802F074FD002803D00678A0886C
:1052100002F0F6FD134D2878002808D0864206D10A
:105220006978FEF7AFFF002809D000202870002E13
:1052300005D0A379A288A078314604F06CFFA0883D
:10524000094A81005158002901D0FFF771FCA0885C
:105250001721FBF7CDFEA088FDF77EFFA088FDF7A4
:10526000A5FF70BD2CA5FF1FACDEFF1F70B58288A7
:10527000294D0124531B2949AA4242D019DC284D4B
:10528000531BAA4218D00BDC264BD21826D0254B34
:105290001033D2181ED0032A17D0042A39D10BE0BC
:1052A000012B09D0022B07D0032B21D0042B30D1A6
:1052B0001AE0433B072B2CD8496800292AD00968FB
:1052C000002927D08847044624E08068007800F051
:1052D000DDF81FE0806800F061F9F4E78068411CA8
:1052E000007800F039F9EEE783681B78002B11D0C5
:1052F000896800290ED00B6808E0014610469847DF
:10530000E1E709490968002904D04B68002BF4D172
:1053100000E00024204670BD0E20000054A5FF1FB1
:1053200008200000F7EFFFFF34A5FF1F7FB50546FB
:105330004079122825D12C460834EB89AA8969893D
:105340002889FAF789FF0026002804D02520FCF7D9
:105350004BFE002816D0012069468881297968888B
:1053600003AAFDF785FE68468089002809D1E088F8
:10537000019602960090A388628821886888FAF7CF
:1053800071FF7FBD68468681E8E7000010B5094CD3
:10539000A17800290CD001460622A01DFAF748FE8C
:1053A000A11DA078FEF7FBFEA01DFAF761FF10BD5E
:1053B000002010BDC8A4FF1F1CB52F49037801248D
:1053C0000A68912B02D0A22B2ED13EE0417805290C
:1053D00009D00E2904D00F2908D03E2924D115E088
:1053E000FFF744FF10E0FFF709FF3AE0014680882D
:1053F000224B0124C31801D0062B15D1002A30D02E
:105400005268002A2DD0904704462AE08178012472
:10541000032917D004DC012911D0022904D105E0A9
:1054200015291ED016291CD000241AE014498968B9
:10543000002916D04968002913D0884711E0FFF7EA
:1054400053FE0EE0FFF746FE0BE00E4909780429F3
:1054500009D0002A05D05268002A02D001460A4825
:10546000904720461CBD00216A4611800179408882
:10547000FDF7E6FDF5E7000034A5FF1FF3DFFFFFB2
:1054800054A5FF1FC9A4FF1FFFFF0000F8B5164F6A
:105490000646BD1F2878FF2814D00A20FAF764FEBC
:1054A00004000FD0D020207066700820A070A8786B
:1054B000E07006223946201DFAF7BAFD2146287809
:1054C000FAF734FEE87801280DD108480068002872
:1054D00003D08068002800D080470648044A042191
:1054E0000078FAF7E1FDF8BDCEA4FF1F58A5FF1F15
:1054F00060EA000055A5FF1FF8B505000BD0E8785D
:10550000002812D06C68002C0FD02420FCF76CFD12
:1055100047B2002619E00F480068002805D0002097
:1055200000F08EF8002000F0BBF9F8BD28200157EC
:10553000B94207DB2046FFF7C3FC002802D0204613
:1055400000F0E6F8761CF6B22934E878B042EDD8DF
:10555000F8BD000024A5FF1F70B5002405460028F3
:1055600005D1002903D006220B48FAF761FD0A484D
:1055700010380178012907D10124002D06D000211F
:105580000170284600F0F8F8204670BD0221017035
:10559000FAF774FEF8E70000A0DEFF1F10B5002444
:1055A000002813D002780B49002A03D14288CA820E
:1055B00002790A760A78022A08D102780124002AA0
:1055C00006D000220A70007800F0D6F8204610BD00
:1055D0000322F7E790DEFF1F014988607047000053
:1055E00054A5FF1F01498860704700002CA5FF1FCC
:1055F000014948607047000054A5FF1FF8B50746F1
:105600000E46084602F074FB040018D02620FCF772
:10561000EBFC050000D125780620FAF7A5FD040073
:105620000DD006220021FAF721FDD02020706770EE
:105630000E20A070A680E8B22146FAF777FDF8BDEB
:10564000F8B5064630480025006800285BD02F4892
:105650004268002A57D0002E0DD12C49002009782D
:1056600007E00301D35CFF2B01D06D1CEDB2401CA1
:10567000C0B28842F5D3E8000830FAF775FD04009F
:1056800007D10820FAF770FD0025132604460028EC
:105690002ED0D020207001206670A070E570002D03
:1056A0001ED0264608360027666012E0426839019F
:1056B000505CFF280BD08918307048787070062233
:1056C000B01C891CFAF7B4FC6D1EEDB208367F1CC5
:1056D000FFB20E4801788F4204D2002DE6D101E0DE
:1056E000002060600848214600680078FAF71EFD37
:1056F000064800210078FFF747FA034C2068FAF7C4
:10570000DFFC00202060F8BD24A5FF1FB0A4FF1F10
:10571000F8B5184E05463068002829D0287A14308C
:10572000FAF722FD040023D0D020207000276770F4
:105730000D20A0702878E0702820405DE072687825
:1057400020710622A91C601DFAF772FC2A7A2273C6
:10575000002A07D020461430294609312061FAF783
:1057600067FC00E02761306821460078FAF7DEFC2C
:10577000F8BD000024A5FF1F70B50F4D0646287820
:10578000FF2818D00E20FAF7EFFC040013D0D02029
:10579000207066700020A07006220849E01CFAF70D
:1057A00047FC06481038C18A6181007E207321467B
:1057B0002878FAF7BBFC70BDC8A4FF1FA0DEFF1F4E
:1057C000FFB581B01E4617460D460C20FAF7CCFCFB
:1057D000040013D0284602F08BFA002810D000787D
:1057E000D0212170019961700721A170A580E78007
:1057F00026810A9961812146FAF798FC05B0F0BD2F
:105800000048ECE7C8A4FF1F70B50D4D044628689A
:105810000E46002812D00620FAF7A6FC010009D097
:10582000D02008704C70032088708E802868007823
:10583000FAF77CFC002C01D0FFF76EF970BD000078
:1058400028A5FF1FFFB581B01F460E46084602F08F
:105850004FFA050022D01020FAF786FC04001DD074
:1058600010220021FAF702FC2620FCF7BDFB0028DD
:1058700000D12878D0212170019961700F21A17089
:10588000A6800399217267720A99A1720B99E1723D
:105890000C99E160C0B22146FAF748FC05B0F0BDB2
:1058A00010B504462320FCF79FFB002801D00121FE
:1058B00000E000212046FAF7E7FC10BDFFB581B0FB
:1058C0001D4617460E460E20FAF74EFC040010D077
:1058D000D0202070002060700C20A070A6800622CE
:1058E0003946A01DFAF7A4FB257321460198FAF763
:1058F0001DFC05B0F0BD0000F0B51F4D85B0286857
:10590000002837D08778FCF7EBFB002805D00A2069
:10591000FCF76AFB04900B200EE001F073FD0028F9
:1059200005D00620FCF760FB0490072004E0082067
:10593000FCF75AFB04900920FCF756FB04460F487D
:105940000078002814D001262968C878091DFEF7C0
:1059500026FC29686D46CA7A8B7A091D0BC503920D
:1059600033463A4621460498FAF794FC05B0F0BD58
:105970000026E9E70120F9E728A5FF1FCAA4FF1FB9
:1059800010B50949096800290CD0002805D101206B
:105990004870FAF7B3FB002802D00021FFF734FF6C
:1059A000012010BD002010BD28A5FF1F70B50446C2
:1059B0001048006800281AD00F4D002C0FD14078F5
:1059C000022815D00220FCF70FFB0246012128789F
:1059D000FAF7FAFB0120FFF763FF040006D001216C
:1059E0002878FAF779FB2046FFF72AFE012070BDE0
:1059F0000320E8E724A5FF1F55A5FF1F10B5FFF7FB
:105A0000B7F810BDF8B50C4602F072F9020021D0CB
:105A100026201462FCF7E8FA05062D0E00D1157851
:105A20009679D01D00901020176AFAF79DFB0400AC
:105A300010D0D0202070002060700920A070E67087
:105A40000622201D0099FAF7F3FA21462846E7605E
:105A5000FAF76CFBF8BD411E152903D9FF2801D0C8
:105A6000002070470120704770B50A4E0546307817
:105A70000C46FF280DD00420FAF776FB010008D071
:105A8000D02008704C7002208870CD703078FAF702
:105A90004DFB70BD38A5FF1FF3B5284D81B02868B8
:105AA00000284AD04078264E012803D030780028BC
:105AB00031D041E001F0A6FC224F002813D0012094
:105AC000FCF792FA0446412808D91F4A0221387887
:105AD000FAF7EAFA1D483C3C44800EE07D20C00005
