:020000041102E7
:1000000003B40148019001BDADAE000003B4014846
:10001000019001BD456B010003B40148019001BD91
:100020000189000003B40148019001BDC53F0000F3
:1000300003B40148019001BDE94C010003B401483B
:10004000019001BDC95C010003B40148019001BDEC
:10005000CD4C010003B40148019001BD090E000020
:1000600003B40148019001BD154D010003B40148DE
:10007000019001BD016EFF1F03B40148019001BD55
:100080001D4B010003B40148019001BDF54E010074
:1000900003B40148019001BD434D010003B4014880
:1000A000019001BD6189000003B40148019001BDC8
:1000B000256EFF1F03B40148019001BDFD6DFF1FB8
:1000C00003B40148019001BD4551010003B401484A
:1000D000019001BD1147010003B40148019001BD29
:1000E0006924FF1F03B40148019001BD3D4B01008D
:1000F00003B40148019001BD014C010003B4014863
:10010000019001BDF94C010003B40148019001BD0B
:100110003522000003B40148019001BDB352010033
:1001200003B40148019001BD691F000003B40148F8
:10013000019001BD4D1A000003B40148019001BDBA
:100140005D17000003B40148019001BD5125000076
:1001500003B40148019001BD594F010003B40148A7
:10016000019001BD8D12000003B40148019001BD52
:10017000DD52010003B40148019001BD1D4D010095
:1001800003B40148019001BD810E000003B4014891
:10019000019001BD017F000003B40148019001BD41
:1001A000E117000003B40148019001BD7918000077
:1001B00003B40148019001BDD949010003B40148CD
:1001C000019001BDE928000003B40148019001BD80
:1001D0005549010003B40148019001BDC926000042
:1001E00003B40148019001BDE122000003B40148BD
:1001F000019001BD3555000003B40148019001BDD7
:100200000D52010003B40148019001BDA137FF1F49
:1002100003B40148019001BDBD18000003B40148BA
:10022000019001BDD524FF1F03B40148019001BD19
:10023000B11F000003B40148019001BDAD210000D1
:1002400003B40148019001BD8B52010003B4014881
:10025000019001BDD554000003B40148019001BDD7
:100260001955000003B40148019001BD3519000083
:1002700003B40148019001BD311A000003B40148E4
:10028000019001BDA946010003B40148019001BDE0
:100290002526000003B40148019001BD9928000003
:1002A00003B40148019001BDC521000003B4014819
:1002B000019001BD5952010003B40148019001BDF4
:1002C000291C000003B40148019001BD192200005F
:1002D00003B40148019001BD851F000003B401482B
:1002E000019001BD5147010003B40148019001BDD7
:1002F000E723FF1F03B40148019001BDC123FF1F85
:1003000003B40148019001BD2124000003B4014859
:10031000019001BD6DBC000003B40148019001BD16
:10032000D91F000003B40148019001BD1DBC0000AD
:1003300003B40148019001BDB11D000003B40148A0
:10034000019001BDF525000003B40148019001BDF5
:10035000E9AF000003B40148019001BDE548000089
:1003600003B40148019001BD2951010003B40148C3
:10037000019001BDD91B000003B40148019001BDEB
:100380008524FF1F03B40148019001BDAD24FF1F68
:10039000F8B5D349D14A002004464A608300401C86
:1003A000D450FF28FADD4868CE4A014680318A6081
:1003B0006E22C262CC4A1278002A01D07F22C26229
:1003C0000A220265C94A13788363C94BC361157851
:1003D0001023022D08D01578012D05D01578032D96
:1003E00002D01578042D00D10362C24D4561192554
:1003F000AD0185613725CD6036272826C7630825DE
:10040000466405644F6032270F603B27CF63412766
:10041000CF6439274031E0C132274F6002274F6156
:1004200042270831E0C11E274F60CE608D6005264F
:100430004E6142260E615A2660390E614D613C259F
:100440008D61AF25ED000560AB4D05631578022D7C
:1004500009D01578012D08D01578032D07D015780F
:10046000042D06D007E0152504E0436003E00E25C7
:1004700000E00C254560FF252D358560C560FF2512
:10048000F53505619D4D85647D25ED009C4ECD675C
:10049000C66445629B4D85627325C5650625456525
:1004A0008565C51D0826F93502272E6047664B274E
:1004B000FF0087660927C766934F07674667BE1028
:1004C0008467C667914F8E4E3E601678022E09D023
:1004D0001678012E0AD01678032E0BD01278042A33
:1004E0000CD00EE01A22CA61212205E01422CA6152
:1004F000182201E01322CB610A6202E00E220B6295
:10050000CA617E4A8A627D22D2008A6764224A6278
:100510000522CA6202220A63C8228C634A63382118
:1005200069607B4929647B49A9614B21C900E96164
:100530007349FF30643929627D2109016962EC66E3
:100540001E212C67A9667049A965E965891029668D
:10055000696469677049A9677049714A8130E967C0
:10056000026082604160FF21F531C16001616E4827
:100570006C495A4A81606D49803A11616A496C4AF6
:1005800080318A626B4ACA626B4A82616B4AC2627C
:100590006B4A02636B4A64484038C2636A4ACA6164
:1005A0006A49816360496A48403188616A4969489B
:1005B00088605D48694A80384260694A4263694A96
:1005C0000A626949816058496848C039C860FFF7C4
:1005D00017FD0120FFF71AFDF8BDF3B50746644883
:1005E00081B0C169634A1140FF310931C161002600
:1005F00013E000252C461120FFF70EFD5C48406AF1
:100600008007800F610088402843641CE4B20546DF
:10061000102CF0D301C7761CF6B202988642E8D3BC
:10062000FEBD10B52E4C607800280AD10421524836
:10063000FFF7D3FF504804211030FFF7CEFF012011
:10064000607010BDF0B500248BB00D460646102931
:1006500002D901200BB0F0BDFFF7E3FF46490020AF
:100660000A5C401C1419C0B21028F9D3002C03D026
:10067000102D03D90B20EDE70E20EBE73F483E4C51
:100680000023006802A91034E25CC75C7A40CA54B7
:100690005B1CDBB2102BF7D306AA3748FFF7C2FC6E
:1006A000102D00D910252A4606A93046FFF7C0FCB8
:1006B000FFF7C4FC216840182060FFF7BFFC6168A9
:1006C00040186060FFF7BAFCA1684018A060FFF70F
:1006D000B5FCE1684018E0600020BBE70004FF1FA4
:1006E000407FFF1F38E8FF1FA47DFF1F4A0AFF1F3E
:1006F0003A07000080C3C9019A02000050C30000FD
:10070000280A00006A180000204E0000F009FF1FB0
:100710000040001168100000DC05000040420F009E
:1007200010270000595BFF1F0001FF1FF529FF1F65
:10073000E16EFF1FB971FF1F5D26FF1FF127FF1F2D
:100740007926FF1F1137FF1FA97AFF1FCD78FF1FE2
:100750004124FF1FB12DFF1F0002FF1FBD57FF1FC8
:10076000AD59FF1FF158FF1F194EFF1F8930FF1FA2
:1007700040F0004000FEFEFFA8D8FF1F6080FF1F72
:100780000A7802708A7842704A88120A827009795F
:10079000C170042070470A7802700988090A417004
:1007A000022070470A7802700988090A4170022005
:1007B0007047097801700120704770B50C460978C0
:1007C00001702188C51C090A4170A1788170608878
:1007D000611D000A28706D1C22792846FFF728FC4D
:1007E00020792146401922890A31FFF721FC20791E
:1007F00021894018001D80B270BD10B500220EE0A6
:1008000093005B189C7804705C88521C240A447026
:100810001C7984709B88D2B21B0AC370001D0B78B0
:100820009342EDD81806800D10BD0A7802700A8830
:10083000120A42708A7882704988090AC1700420BD
:100840007047F8B50D4606464978012031700024FE
:10085000761C16E06978012917D0122161434919E5
:100860008A7832704A88871C120A7270B61C10226D
:100870003046091DFFF7DCFB1037B8B21036641C98
:10088000E4B22978A142E5D8F8BDA10049198A78D7
:1008900032704A88871C120A7270B61C02223046D7
:1008A000091DFFF7C5FBBF1CB8B2B61CE7E710B5C2
:1008B0000C46097801702188090A41706288211D5F
:1008C000801CFFF7B5FB6088801C80B210BD10B59E
:1008D0000C46097801702188090A4170A17881705D
:1008E0006188090AC170A288A11D001DFFF7A0FB45
:1008F000A088001D80B210BD10B50C4609780170AB
:100900002188090A4170A17881706188090AC17043
:10091000A288A11D001DFFF78BFBA088001D80B2DF
:1009200010BD0A7802700A88120A42708A788270B2
:100930004988090AC1700420704710B50C460A881E
:10094000891CFFF775FB208810BD10B50B788A78DD
:1009500002705343DCB22246401C091DFFF768FBBE
:10096000601C10BD10B50C46097801702188090A79
:100970004170A17881706188090AC1702279611D76
:10098000001DFFF755FB2079001D10BD10B50B7839
:100990008A7802705343DCB22246401C091DFFF7DF
:1009A00047FB601C10BD10B50C460A88891CFFF778
:1009B0003FFB208810BD0A7802700988090A41703F
:1009C0000220704710B50C460A88891CFFF730FBDF
:1009D000208810BD10B50C46097801702188090ADD
:1009E00041706288211D801CFFF722FB6088801CFB
:1009F00080B210BD7FB515460446022901D01029EA
:100A000003D1022B04D0102B02D0002004B070BD03
:100A1000994202D10A46294607E01029694607D0C3
:100A200000F00EF8102269462846FFF70DFBEDE7AF
:100A3000104600F005F8102269462046F5E7000050
:100A400070B50C4605000CD0002C0AD010220649C7
:100A50002046FFF7EDFA287820736878607301204C
:100A600070BD002070BD0000BE9E021110B50B4687
:100A70000122024902F08EFE10BD00008107021122
:100A800010B50A88173AE02A05D80B460222034916
:100A900002F080FE10BD022010BD00009707021179
:100AA00070B5064608880C46172812D30B46032259
:100AB0000949304602F06EFE050008D1074920883A
:100AC0000988884200D20146304600F09BFA284649
:100AD00070BD022070BD0000A5070211687FFF1FD6
:100AE00010B50B461822024902F054FE10BD00005A
:100AF000B307021110B500231922194602F04AFE6D
:100B000010BD000010B50A79022A01D0022010BDE4
:100B10000B460622014902F03DFE10BDBB07021143
:100B200010B50A78002A05D00B460722024902F0C8
:100B300031FE10BD022010BDFB07021110B50B469F
:100B40000422024902F026FE10BD00002B0802110B
:100B500010B54A78012A01D0022A08D10A78002A61
:100B600005D00B460522034902F014FE10BD0220F9
:100B700010BD00004308021101494000085A7047A7
:100B8000667FFF1F10B50B461D22024902F002FED0
:100B900010BD0000AF0802110149172008807047FE
:100BA000667FFF1F042901D004207047017811706F
:100BB000837841781B02C9185180C07810710020D9
:100BC00070470098022B01D00420704711785278AA
:100BD00012028918018000207047022901D00420E8
:100BE0007047017840780002081810800020704794
:100BF0000098012B01D0042070471178017000206B
:100C00007047002901D0042070470020704770B55C
:100C1000049C1E461546062B1BD3697828780902CA
:100C200040182080E978A8780902401860800222E4
:100C30002271291D601DFFF7FBF9B61FB2B2228198
:100C4000F02A06D82046A91D0A30FFF7F1F9002046
:100C500070BD042070BD0098042B01D004207047A3
:100C6000537811781B02C91801809178D27812024A
:100C7000891841800020704710B502981146022B58
:100C80000FD34C780A782402121902809B1E9AB264
:100C90004280F42A05D8001D891CFFF7C9F90020FD
:100CA00010BD042010BDF8B584890D460646002C01
:100CB00026D0B2681778380620D50C2C20D90C3CE9
:100CC000A4B21019009001217088234602F0FCF9AB
:100CD000002811D0022028707806C00F6870B8066E
:100CE000800EA870641E2004000CA88001D0B0689B
:100CF000401CA8600020F8BD0120ECE70020EAE7D6
:100D00000120F8BD10B502981146042B14D34C787D
:100D10000A78240212190280CC788A7824021219E7
:100D200042801B1F9AB28280F22A05D8801D091DBD
:100D3000FFF77EF9002010BD042010BD0098042BA1
:100D400001D004207047537811781B02C918018024
:100D50009178D2781202891841800020704770B5CE
:100D60000546144603290CD3491ECEB2297861806A
:100D7000F52E06D8002904D03046FFF76BF900297C
:100D800001D0042070BD20703246691C201DFFF781
:100D90004FF9002070BD10B502981146062B03D004
:100DA000142B03D0042010BD022200E01022027197
:100DB0004B780A781B02D2180280CB788A781B0203
:100DC000D21842800279401D091DFFF731F9002039
:100DD00010BD70B50546144603290CD3491ECEB28A
:100DE00029786180F52E06D8002904D03046FFF717
:100DF00031F9002901D0042070BD20703246691CF1
:100E0000201DFFF715F9002070BD000030B5039CD0
:100E1000D80718D1D805010E022914D30B488088B1
:100E2000814210D8F6200155002008E0557813784B
:100E30002D025B194500401C6353C0B2921C8842CE
:100E4000F4D3002030BD042030BD0000607FFF1FC0
:100E50000098022B01D004207047117852781202BA
:100E6000891801800020704710B503461046F62906
:100E700007D801800A461946801CFFF7D9F80020E0
:100E800010BD042010BD70B5144602460498022B14
:100E900018D3667825783602AD1905800546E03509
:100EA0002A766976002A0BD0E8219B1E9AB24280EE
:100EB0008A4207D8A11C001DFFF7BAF8002070BDB8
:100EC000F421F2E7042070BD002901D0042070470E
:100ED0000020704710B50B461622024902F05AFC5A
:100EE00010BD0000CF08021110B50B4617220249B1
:100EF00002F050FC10BD0000F908021110B50B46BD
:100F00000C22024902F046FC10BD00002309021128
:100F100010B50B460D22024902F03CFC10BD00004A
:100F20003B09021110B50A79102A03D0022A01D018
:100F3000022010BD0B461022014902F02BFC10BD0F
:100F40006509021110B50A78002A05D00B46112256
:100F5000024902F01FFC10BD022010BD4B09021116
:100F600010B50A79102A03D0022A01D0022010BD40
:100F70000B460822014902F00DFC10BD6509021163
:100F800010B50A78002A05D00B460922024902F062
:100F900001FC10BD022010BD8D09021110B50B46D9
:100FA0000F22024902F0F6FB10BD0000A709021152
:100FB00010B50B460A22024902F0ECFB10BD0000FE
:100FC000B709021110B50B460B22024902F0E2FBF1
:100FD00010BD0000C5090211F72800D9F720084A02
:100FE00001461080401EC3179B0F18188003000C89
:100FF0005080491EC80F4018C003000C90807047F5
:10100000607FFF1F044A1288914203D8024A4000C1
:10101000921D115270470000607FFF1F70B50B4694
:10102000E0331C7E1222012C09D10A4D4200AA5A3B
:101030004C880F3A944201DD022070BD92225B7E03
:10104000012B01D140231A430B46034902F0A2FBB6
:1010500070BD0000667FFF1FD509021110B5002387
:101060001322194602F096FB10BD000010B502498C
:10107000087002F0D1FE10BDA87DFF1FFFB58DB036
:10108000054600200A900B901E460AAA284600F04A
:10109000F9F904460A2855D202F09DFE0546082EAD
:1010A00019D00020009033462A4621460F9802F0BE
:1010B00079FD1422002101A8FEF7D2FF2046062167
:1010C000484307462430C0B201AA1021FEF7CEFFE4
:1010D000002802D014E00120E4E71022FF2101A83B
:1010E000FEF7CAFF00280BD12537F8B205AA042164
:1010F000FEF7BCFFE907C90F01AA0F9800F05AFFDD
:101100007034E0B206AA1021FEF7B0FF002811D11A
:1011100006A802F072FE002406AFA000C0190188E4
:10112000002903D082780F9801F0CCF9641CE4B256
:10113000042CF2D3A80707D5164801780F9801F0C0
:10114000AFF901E0082E02D0042E17D01FE011489D
:101150000F99401C405C022819D1002229460F98A3
:1011600002F096FC0B48C069002810D04368002BA1
:101170000DD0002211460F98984708E005480F99B6
:10118000401C405C022802D1084602F07DFE00208F
:1011900011B0F0BDA87DFF1F70B50C46080428D51E
:1011A00015480078FEF76EFF05001ED00178B029C3
:1011B00008D0B1290ED0D02914D100F01FF8002892
:1011C00010D112E001791E290CD16888002100F0AD
:1011D000B5F907E00179002904D10289C18868883E
:1011E00000F0A0FA2846FEF753FF0120C00360403C
:1011F00070BD002070BD0000A87DFF1FF0B5044643
:101200008078954F801F85B07D1E00260300FEF775
:1012100045FF0AFD1111891B06CD115E9A11E8697F
:10122000002808D00668002E05D0637B227B6189E8
:10123000E01CB0470DE16189A86900F0A1FD00281C
:10124000F8D060890121D8E0607800282DD1A079FC
:10125000C0072AD0A088804980001F310858002884
:1012600023D10E2200216846FEF7FAFE61690029AB
:1012700003D006226846103107E0A08806F0D2F8B5
:101280000028D7D0C11D06226846FEF7D1FE694668
:101290008889A1794907C90F084369468881214691
:1012A000684602F037FB002809D0E8690028C1D061
:1012B0004368002BBED06278A08801216FE0A0882F
:1012C0002246694602F0B2FE002005B0F0BD60780B
:1012D000062817D1A08806F0A5F8060012D0A87B32
:1012E000012804D0022808D003280BD114E0B179DA
:1012F000A088002202F0CCFB04E0A188307805220F
:1013000000F08EFEE86900281CD04368002B19D03D
:101310006278A088022142E0002211464F4800F086
:1013200043F9EAE7E0780022211D00F0ABF80A2833
:1013300008D20621484325302246C0B20C3204218F
:10134000FEF7B2FE85E0687A0028A08801D0A97A6D
:1013500053E0395C002924D006F064F80646A07AF0
:10136000C0070DD0002E74D0B079002808D0A18914
:10137000890505D46A46F11D00F084F8002812D0D2
:101380002246B179A088083202F082FBE869002881
:101390005FD04368002B5CD00022A088114698479C
:1013A00057E0052129E0A088032126E0A5880196C1
:1013B0002846029606F036F804004AD0785D0228E6
:1013C00047D0A07901AAE11D00F05CF806460A2882
:1013D0000AD202F000FD01210246009108233146A5
:1013E000284602F0DFFB34E0785D002803D00128B6
:1013F00006D02EE00AE00521284600F001FE28E094
:10140000A1790022284602F043FB22E000F098FC7C
:1014100000281ED1287C012805D0114D0024285D0C
:10142000012809D00CE002F029FC2E740A220021C8
:101430000B48FEF715FE07E0204602F02BFC2E5568
:10144000641CE4B20A2CEAD35020FEF733FE02F00B
:10145000E3FC012039E70000A97DFF1F090400001B
:10146000D8ADFF1F10B5064CE0612178FF2905D0EB
:10147000262000F08FFD207800F0C2FF10BD000094
:10148000A87DFF1FF0B50A2485B016460F46002838
:1014900007D0012805D00A25022810D0032847D1FB
:1014A0001FE0084602F056FC04460A2840D2002EEF
:1014B0003ED0062239463046FEF7BAFD38E01E4FD0
:1014C000002400910E206043C0190622801D00995F
:1014D000FEF7BAFD002823D1641CE4B20A2CF1D334
:1014E0001CE000242046062148432330C0B26A464F
:1014F0001021FEF7BBFD00280CD11022FF21684609
:10150000FEF7BAFD002805D13946684600F0F6FC22
:10151000002805D0641CE4B20A2CE3D32C4607E073
:101520000A2C05D2002E03D03146204602F038FCAA
:10153000204605B0F0BD00004CADFF1F70B50E4653
:1015400017491525884212D100243246022120462F
:1015500002F068FB002800D00025641CE4B20A2CCD
:10156000F3D3002E1AD00F4805F0BCFF16E005F0AB
:1015700059FF040011D0A0790022E11DFFF782FF7E
:101580000A2804D23246022102F04CFB0025002E2C
:1015900004D0204602F06EFC00E01425284670BD01
:1015A000FFFF0000753E0211FEB5154601229202B2
:1015B000821A00240127584E1300FEF76FFD110A0E
:1015C000151A21282F373E434B767E858DA29956DA
:1015D000A200012970D1297802296DD84E48012234
:1015E000401CFEF73DFD94E0022965D128887082F9
:1015F0008FE0012960D1287801285DD8B07088E09B
:1016000001297CD12878042879D8F07081E001295B
:1016100075D12878012872D830717AE010296ED1FE
:10162000102229463D48FEF703FD72E0012966D1EC
:101630002878012863D870716BE001295FD1287880
:10164000F07266E004295AD135492868884256D894
:10165000B0615EE0002952D100F072FB002801D099
:10166000377456E002F00AFB19E0072947D1062239
:10167000691C6846FEF724FD287800226946FFF7BA
:1016800001FF05460A280ED200F05AFB002803D0BD
:1016900022489C3047553CE0284602F0FBFA502097
:1016A000FEF708FD21E0022433E0012927D1287844
:1016B000012824D870722CE021E001291FD128785C
:1016C00009281CD8B07224E0012918D12878C11F3C
:1016D000092914D830731CE0012910D1F07B297836
:1016E000F173002815D1012913D102F095FB10E008
:1016F000012904D12878032801D8B07309E01824FF
:1017000007E02728CFD20229CDD1298800F042FC5A
:1017100004462046FEBD0000A87DFF1F3CADFF1F14
:101720003F420F00F8B50F4613491525164688426B
:101730000DD1002432463946204602F0C7FB00286E
:1017400000D00025641CE4B20A2CF3D312E005F0AB
:1017500069FE00280DD08379C11D00221846FFF7CD
:1017600091FE0A2806D23246394602F0AFFB002528
:1017700000E014252846F8BDFFFF000010B5044620
:1017800002F03AFD002817D00079FEF79FFC0B48C5
:10179000002106224A4312185288A24206D1002292
:1017A0000623D24359430818428003E0491CC9B2BA
:1017B0000429EED3002010BD122010BDE0B0FF1FA1
:1017C0003EB5084C65786C4625706070A170E2707B
:1017D0000622194601A8FEF72BFC684600F016FA0F
:1017E0003EBD0000B87EFF1F70B50949094C487026
:1017F0000021094AFF2506234B439B18491C5C80A6
:10180000C9B21D710429F6D300F072FB70BD00004F
:10181000B87EFF1FFFFF0000E0B0FF1F70B50C4651
:1018200008040ED50B484078FEF72CFC050004D0C8
:1018300002F0A2FC2846FEF72BFC0120C00360400A
:1018400070BD600403D501208003484070BD0020B6
:1018500070BD0000B87EFF1F10B5134601220024A2
:101860009202821A09D0012A0DD01148022A13D0FF
:10187000042A16D00224204610BD102913D11022AC
:1018800019460C4805E010290DD10A4810221946C6
:101890001030FEF7CDFBEEE7042904D11968816012
:1018A000E9E7012901D01824E5E719780170E2E79A
:1018B000B87EFF1FF8B0FF1F1CB5084C002800D0F1
:1018C0006060064906480831019103460090103BCC
:1018D00022780821607800F049F91CBDB87EFF1F0E
:1018E00008B1FF1F38B5054B5C786B461C7058700B
:1018F0009970DA70684600F0EBF838BDB87EFF1FCB
:10190000014610B502481322407800F089FB10BD53
:10191000B87EFF1F3EB50024069D019400950294F9
:10192000FEF7DAFB3EBD0000F8B504462C480F4632
:101930000078022805D0012803D0082803D1002F01
:1019400001D01220F8BD002C07D02088254D810041
:101950006958002903D01120F8BD0220F8BD05F018
:1019600061FD060036D02C20FEF7BCFB21888900E3
:101970006850002830D02C220021FEF771FB20880F
:101980001C228100695848802088211D8000285829
:10199000001DFEF74DFB2188022089006958087060
:1019A000228890002B5870791B1D002816D000202B
:1019B0000D49097801F034FB0546002F03D0394664
:1019C000304606F09DFF002D02D0208802F0A2FCD8
:1019D0002846F8BD1420F8BD1320F8BD0120E7E724
:1019E000857FFF1FF07FFF1F1580FF1FFFB5204D74
:1019F00081B028781E461746022823D0012821D01E
:101A0000002F22D0019805F00DFD04001FD0606A60
:101A1000002801D0FEF76CFB1C213846FEF76EFB58
:101A20006062011E15D02878000714D5002E12D050
:101A3000887E00900B4612330A8A019807F030FA2C
:101A4000014609E0122005B0F0BD0220FBE714209A
:101A5000F9E71320F7E700212079042210432071D1
:101A6000029A002A02D00222104320710846EAE7B7
:101A7000857FFF1F10B505480078000701D5044891
:101A800000E0002003F0A0F910BD0000857FFF1FDB
:101A90007C7FFF1F70B50C4C05460121207802F0B9
:101AA00065FC0A480A210078084207D020462570C4
:101AB000083003F083F901F009FF70BD00202070A9
:101AC00003F07CF9002070BD6C7FFF1F857FFF1F36
:101AD00038B5234D04462868002801D0112038BDB0
:101AE00020480A210078084201D1122038BD042084
:101AF000FEF7F8FA286000282FD004222146FEF7CE
:101B000097FA00F01DF9002805D00C2000F0FCF831
:101B100005460D2007E06078022812D0102000F062
:101B2000F3F80546112000F0EFF80246E0780028AF
:101B300000D0012000900C480078002807D0012335
:101B400006E0122000F0E0F805461320EBE7002342
:101B5000A0782946FEF7D8FA38BD132038BD00001A
:101B6000E07FFF1F857FFF1F867FFF1FF8B51D46A3
:101B700016460224079F0B00FEF790FA0D1C08087A
:101B800008081C081C08081C1C081C0000F0DCF8D5
:101B900004000FD13A462846069900F0B3F93046C2
:101BA000FFF778FFFFF766FF01F060F900F00CF92E
:101BB00001F0FAF92046F8BD70B5104C21680029F3
:101BC00004D00978814203D0032070BD122070BD7B
:101BD0000B4D02212878FEF79DFA0A480026468020
:101BE00004212878FEF796FA07480680216803202A
:101BF00048700020FEF794FA70BD0000E47FFF1FDC
:101C00001580FF1FF87FFF1F887FFF1FF0B5054677
:101C10003A4889B00078000702D4122009B0F0BD1C
:101C200002F028FC002801D01020F7E700F088F827
:101C3000002801D01520F1E7314C2068002801D0A0
:101C40001120EBE70A20FEF74DFA2060002851D062
:101C50000A222946FEF7ECF920684078002805D0D2
:101C60000E2000F051F808900F2004E00C2000F046
:101C70004BF808900D2000F047F805462148007801
:101C8000002835D001261C2000F03EF804901B20CF
:101C900000F03AF80390192000F036F802901A206C
:101CA00000F032F80746162000F02EF801901520BB
:101CB00000F02AF800902168C878091D01F0C2FDE3
:101CC000034602A807C8049705AF07C72268019911
:101CD00000980391141D0290019600949278294671
:101CE0000898FEF723FA040005D002F033FB02E067
:101CF0000026C8E71324204690E70000857FFF1FD9
:101D0000EC7FFF1F867FFF1F272803D20249400078
:101D1000085A704701487047907FFF1FFFFF00007F
:101D200010B5064C607005F0ADFB6078FEF704FA64
:101D30000521607800F0BAFF10BD00001480FF1F7D
:101D400010B505F0BDFB10BD70B50C4605461C2254
:101D500000210948FEF784F9084805704470FEF731
:101D6000F1F90549002803D000200870122070BD49
:101D700001220A7070BD0000C8D8FF1F847FFF1FBA
:101D80007FB504460D46084605F04CFB002805D0FB
:101D90000C48844204D9022004B070BD1220FBE735
:101DA000102200216846FEF75BF968460470210A9C
:101DB0004170210C8170210EC170294601F066F836
:101DC000EAE700003F420F0070B50F4C0025A06805
:101DD000002802D0FEF78CF9A560E068002802D048
:101DE000FEF786F9E560094805210078084206D02B
:101DF0000548103002F0EEFF01F03EFD70BD0020FE
:101E000002F0E8FF002070BDF87FFF1F857FFF1FF5
:101E1000FEB5344D0C46080419D56878FEF732F942
:101E20000121C9034C40064600280ED002F0B6FE40
:101E3000002807D12878FF2804D03146FEF788F91A
:101E4000002802D03046FEF723F92046FEBDE00709
:101E5000012700280AD0A868002804D0416800297A
:101E600001D00020884720467840FEBDA00709D554
:101E70006868002804D04168002901D00120884703
:101E800002202AE060072AD5174E308800281FD08C
:101E9000401E0004000C30801ED102F0E3FA00283E
:101EA00009D0124807706868002804D041680029EA
:101EB00001D00120884702F0AFFA694600F054FFD4
:101EC000684602F055FE1D20FFF71EFF308003E03C
:101ED00004216878FEF71EF904206040FEBD002052
:101EE000FEBD00001480FF1F887FFF1F877FFF1F3C
:101EF00001490870704700001480FF1F10B501F001
:101F00002DF810BD70B50E4C0B46261D07C60546B4
:101F1000102200211846FEF7AFF8012803D1102146
:101F2000A06806F087FA102200212846FEF7A4F8E0
:101F3000012803D11021606806F07CFA70BD000012
:101F4000C8D8FF1F38B505460F480C460078400733
:101F500001D4122038BD284605F064FA002811D0BB
:101F60000A48A9004058002801D0817D00E02146A0
:101F7000684606F0EBFF064B6A460221284606F04B
:101F80004BFF38BD142038BD857FFF1FF07FFF1F3A
:101F900059940211272807D2044A914204D0044AD6
:101FA000400011520020704702207047FFFF0000E0
:101FB000907FFF1F70B50E4610491546097802291B
:101FC00016D0012914D0002D14D005F02BFA0400EE
:101FD00012D0002E03D02079022108432071102254
:101FE0002946A018FEF724F828692062002070BD59
:101FF000122070BD022070BD142070BD857FFF1FB0
:1020000038B50C46054605F00DFA002806D068469E
:1020100004706946284606F0EDFE38BD142038BD30
:10202000F8B50D4617461D4906461B4A1224C868D6
:10203000954208D100282DD00268002A2AD02946CE
:102040003046904723E0144A521C954213D1002891
:1020500007D00268002A04D0294630469047040081
:1020600005D03946304601F0E0FB040012D10B48A0
:10207000067047700EE0284605F0D4F9002809D014
:102080000078B04205D139462846FEF767F8044685
:1020900000E003242046F8BDFEFF0000E87FFF1F9C
:1020A000014610B50020C90704D0034A04210348A3
:1020B00000F0ACF910BD0000749E0211747EFF1F89
:1020C00070B50F4D0F4CA87029461831204600F00E
:1020D0001DF8002128460B461030CA008452121801
:1020E000491C09065360090EF7D0012004F0E0FAFC
:1020F000A87800F0EBFB044805F00AFA70BD000078
:10210000547EFF1FFFFF0000E95E021170B50A4C0C
:102110000025A04209D1002082008C525218401C98
:10212000C0B295700228F7D370BD03F0ACFE002852
:10213000FAD00480857070BDFFFF0000F8B50E4630
:102140000746069900240798002902D00B24204650
:10215000F8BD022B01D00D24F9E711785278120254
:1021600089188DB22946814301D08024EFE7384693
:10217000F16800F03DF9A842E9D02A463846F168F6
:1021800000F0CCF90400E2D171892A46384600F00B
:102190006BF9DCE770B50C46080412D50A48807864
:1021A000FDF770FF050008D02878B02802D1284636
:1021B00003F086FF2846FDF76BFF0120C003604057
:1021C00070BD002070BD0000547EFF1FFFB587B0BA
:1021D000087A0025109E1C460F46C0060DD50998AA
:1021E00003F04AFE030006D00A22394607989847B2
:1021F000050035D101E00E2532E0387802281DD1E6
:10220000786829220178407812020002081880B20A
:10221000811A90427ED009DC7249401A23D00128ED
:1022200021D0022851D0032808D125E0012972D0FD
:10223000022971D003296DD004296ED0099803F0CA
:1022400043FE0028D7D00568002DD4D012991198EC
:10225000019100903346224639460798A847054623
:1022600028460BB0F0BD1198002873D1F8680178AA
:1022700031800278416897E0119800286AD10120E6
:102280003080F8680021007820707889401C80B286
:1022900000F0CAF900280FD0318802788918891C0B
:1022A0003180817A61704189090AA17002784168A0
:1022B000E01CFDF7BDFED3E730880422001D30800E
:1022C0000021601CFDF7CCFECAE71198002872D1EE
:1022D000F86804A9008800900420308000982070DD
:1022E0000098000A6070009800F09EF9070028D05E
:1022F000F86805906846028A03AB3B49384600F00F
:10230000EBF900280FD13B78022138487A68FEF7B4
:1023100071FB03E027E031E01DE049E0002802D135
:102320003148694688810598007802280CD10598C3
:1023300002224168201DFDF77BFE3088801C308022
:1023400002E069460098888168468089A070000A8A
:10235000E07085E72FE0119800282CD1F9680798E4
:1023600000F046F804E01198002824D1F8680088AD
:10237000022131802070000A607071E7F868FDF773
:10238000F3FE1199C0B2814210D8814201D10022DE
:1023900006E0129A8918814202D31199401AC2B2FA
:1023A0003280F96811980918204682E7072557E717
:1023B0001198002801D00B2552E70721F8683180D9
:1023C00001782170417861708178A1704188090A93
:1023D000E1700179217181796171C088000AA07171
:1023E0003EE7000000280000FFFF0000369F0211BA
:1023F00010B503F048FD002800D0807810BD000023
:102400000149087070470000547EFF1F7CB51446D8
:10241000050019D068460195018000F05DFA0300BF
:102420001DD1002C1BD06D89002D0DD00C20FDF787
:1024300059FE00280AD0002303608580094A846081
:102440009168002904D006E0022308E0132306E087
:10245000906004E011460A68002AFBD10860184623
:102460007CBD0000547EFF1FF8B50C4C0746207859
:1024700015460E46FF280FD00A20FDF77BFE01000F
:102480000AD0B12008700020487008714F80CE80BB
:102490000D812078FDF75CFEF8BD0000547EFF1F23
:1024A00070B50C4605460649FFF7A2FF800704D524
:1024B0002146284600F064FA70BD012070BD00007E
:1024C0006C7EFF1F1CB56B461A71120A5A710022EE
:1024D0000092022301AA00F001F81CBDFFB583B0F1
:1024E00008461F4601A90C9E00F09EF8050012D078
:1024F0006846808803F0E8FC00280AD04468002C75
:1025000007D000963B462946059A0398A04707B096
:10251000F0BD0E20FBE70120F9E7000070B514467E
:102520000E46054603F0AFFC002806D131460548AB
:1025300003F0A9FC002803D005808470002070BD42
:10254000112070BDFFFF000010B50178B0290BD13C
:102550004178002908D10179122906D01B2903D11D
:102560004088012100F02CFB10BDFF210231095CE5
:102570000129F5D010BD10B586B06C46218062806F
:1025800002212171032161712821A1710022694674
:1025900003F008FC06B010BDF0B58BB001236A460D
:1025A00093819B1ED3810223137400235374282329
:1025B0000D469374064603AF02A902F0B5FF04006E
:1025C0000CD139463046FEF7ADFC040006D1054B70
:1025D000112239460095029804F09EF920460BB06E
:1025E000F0BD00005F0D0211FEB50E461546074610
:1025F00001A902F099FF04000FD131463846FEF7D9
:102600003FFA040009D1064930880880054B0322AF
:1026100031460095019804F07FF92046FEBD000088
:10262000687FFF1FDB0B0211F0B58C4610494B6829
:1026300019E09F687C89A04214D39E883119814299
:1026400010D900220CE011017D186989814205D161
:102650006046002800D004802846F0BD521C92B28B
:102660009642F0D81B68002BE3D10020F0BD00009B
:102670002480FF1FFFB5174881B00A9F446824E0FB
:1026800000251EE0A068290146187089019988423A
:1026900015D30299884212D80498002807D03178BF
:1026A0007068049B039AFEF7A5F9002807D0002F55
:1026B00002D0A06840893880304605B0F0BD6D1C5E
:1026C000ADB2A088A842DDD82468002CD8D1002063
:1026D000F3E700002480FF1FFEB5174600256A4679
:1026E0009580044640891D4A1E46904208D001AAA2
:1026F0000092401C237880B26268FFF7BBFF05465A
:102700002378022116486268FEF774F9002807D181
:102710002378022113486268FEF76CF9002801D083
:1027200060890EE0237802210F486268FEF762F9A3
:1027300000280DD0002D03D068468088B84203D011
:10274000384604F0C9F804E06889401E80B200E011
:102750006089002E00D030802846FEBDFFFF0000BB
:10276000349F0211369F02113A9F0211FFB581B0CA
:102770000F461E4614466946019802F0EBFE05001E
:1027800018D1002C06D001221021019804F024FE5B
:1027900005000FD139460198FEF7F4F9050009D17B
:1027A000009CFF2E06D021461E22A31C034804F0E5
:1027B0009FF8E670284605B0F0BD0000DD67021105
:1027C00010B505490870042100F070FA00F036F8E1
:1027D000FEF7E2F910BD00003480FF1FF8B50024B9
:1027E000124F2546FF26FF200D306043C019002CF4
:1027F00018D00F49018085704672FF210672093199
:102800000D54FC2200210C30FDF72AFC641CE4B2BC
:10281000022CE8D3074803F0F9FA074804F078FEE1
:102820000020F8BD0249491EE4E70000E4D8FF1F7C
:10283000FFFF0000ED5302113553021170B50E4C2D
:1028400000200C4B651CFF228100C91800280ED007
:102850000D80401CCA70C0B28A700228F4D30748A9
:1028600003F0DAFA064804F053FE002070BD0C8035
:10287000EFE700002C80FF1FFEFF00000968021137
:102880005D67021170B50C46080411D5094800783F
:10289000FDF7F8FB050007D00178A02901D103F06E
:1028A000B5F92846FDF7F4FB0120C003604070BD78
:1028B000002070BD3480FF1F10B503F059FA10BD21
:1028C00001490870704700002080FF1F014908700F
:1028D000704700002480FF1F70B50546008800285F
:1028E0001DD068680221037842682248FEF782F80A
:1028F000002808D168680221037842681E48FEF764
:1029000079F800280BD01D4C6088002805D00122E2
:1029100029881204101A814203D9012070BD0220B7
:1029200070BD0C20FDF7DEFB060001D000200AE0A0
:10293000132070BD02016B6861880A329952491CEC
:10294000401C618080B229888142F3D80020306029
:1029500008222946301DFDF76BFB6068002802D174
:10296000666004E0084601680029FBD1066000208B
:1029700070BD0000349F0211369F02112480FF1F9A
:1029800070B5BEB00D460646002402230E4A0F491C
:1029900001200094FFF76EFE002812D040896A469D
:1029A000108004205080012010715471FF2090711C
:1029B000D0712B46002269463046FFF7D7FE3EB065
:1029C00070BD0120FBE70000529F0211FFFF0000D5
:1029D0000649496806E08A685289824201D188889E
:1029E000704709680029F6D1002070472480FF1F36
:1029F00010B51422114201D0012202E04A0604D58A
:102A00000022102104F0E8FC10BDC80701D000200E
:102A100010BD022010BD10B514468A0604D501224F
:102A2000102104F0D9FC10BD882211420ED00822DA
:102A30000A40102104F0D0FC00280BD0E034617E65
:102A40000029F0D0217E0129EDD103E0880701D4CF
:102A5000032010BD002010BD10B503F07DFF10BD98
:102A6000F8B50D460646694602F05EFD172808D007
:102A70002C46E034207E002802D1607E012801D05F
:102A80000220F8BD29463046FEF7C8FAF8BD00001E
:102A9000014610B50020C90704D0034A07210348A6
:102AA000FFF7B4FC10BD0000609E0211E07DFF1F27
:102AB00070B50D46164600241D490300FDF7EEFAD9
:102AC00008051234341934222934152D23D816223E
:102AD00000211848FDF7C4FA2A4631461548FDF78B
:102AE000A7FA22E0022D16D111491088103908806A
:102AF0001BE0082D0FD10E48082231460838FDF79B
:102B00003FFB12E0012D06D1CA690949307828310E
:102B100007E0012D01D0182407E0CA6B0449307882
:102B2000483103F0ECFF00E00224204670BD0000B5
:102B3000E07DFF1FE2ADFF1F0B7803700B880222C0
:102B40001B0A43700B88801C012B02D0022B07D07C
:102B500011E08A7802704988090A417004220AE06B
:102B60008A7802704A88120A42700A7982708988CB
:102B7000090AC1700622104670470A780270098857
:102B8000090A41700220704708B5044B00931346B0
:102B90000A46012104F0AEFB08BD0000392B0211EA
:102BA00008B5044B009313460A46132104F0A2FB18
:102BB00008BD00007B2B021110B5FDF7E7FA10BD30
:102BC00013B504480078012803D101AA6946FDF72E
:102BD000E3FA1CBD4080FF1F70B50F490F4A087013
:102BE00000210B468C00491CC9B213530429F9D3A8
:102BF0000A4C00211034FF260A460A256A4315199B
:102C00006B80491CA354C9B26E720329F4D3FDF73B
:102C1000C9FA04F043FB70BD4180FF1FFCDAFF1FBF
:102C2000082A01D0012070474B780A781B02D2187D
:102C30000280CB788A781B02D21842804B790A79BD
:102C40001B02D21882808A79C97909025118C18081
:102C50000020704770B50C46080411D5094800786B
:102C6000FDF710FA050007D00178902901D104F092
:102C700077FA2846FDF70CFA0120C003604070BDCA
:102C8000002070BD4180FF1F70B500280AD1064C9E
:102C900000252580A581A580A068002802D0FDF729
:102CA00087FAA56070BD000088DBFF1F072907D0E9
:102CB000052905D0042903D0062901D00220704738
:102CC000044A8B009A181346403B1986203A9074A8
:102CD00000207047FCDAFF1F70B506001BD10E4CB8
:102CE0000025214640310D744D740D76606D00282D
:102CF00002D0FDF75DFA65655C2000254643341976
:102D0000E80020184068002801D0FDF751FA6D1C3A
:102D1000EDB20A2DF4D370BD98DBFF1F70B50A88A1
:102D20000C460546072A07D0052A05D0042A03D0F9
:102D3000062A01D0022070BD012104F017FC0028F2
:102D400004D02146284603F08FFF70BD142070BDCB
:102D500010B5001D80B2FDF731FA002803D0032121
:102D6000C943FDF731FA10BD38B50C46050014D043
:102D7000002C12D00321684605F05CFB6946887878
:102D800040218006800E0843694688702246284606
:102D900006F09CF9050002D006E0022038BD0322AF
:102DA0006946E01CFDF744F9284638BDF7B58EB0FA
:102DB0000E9815460E4600282DD0002D2BD0301D24
:102DC000C0B20190FDF78EF9040039D001F030FB5C
:102DD00007463246201D0E99FDF772F9F8B20890A9
:102DE000E0703804000E0B90A0703802000E0A90BC
:102DF00060703F0E277001F015FB0146102202A8FB
:102E0000FDF75EF906AB214602A8019A06F0B4F878
:102E1000060003D010E0022011B0F0BD0898287021
:102E20000B9868700A98A870EF70082206A9281DF0
:102E3000FDF746F901F002FB2046FDF759F900E0E5
:102E400013263046E8E7000010B5064C2070FDF769
:102E5000C1F906212078FFF729FF034804F058FB49
:102E600010BD00005C80FF1F2D86021110B50548C3
:102E70000078000701D5044800E0002005F0AAFD15
:102E8000002010BD857FFF1F4480FF1FF8B50E4650
:102E90001F4C0146B50060590027002807D02422A6
:102EA000125C022A05D0032A03D0042A01D0122082
:102EB000F8BDC288B24201D00220F8BD10220C3009
:102EC000FDF7B6F860591021353005F0B3FA6159B5
:102ED00030460B460A46253335320C3106F018F9D8
:102EE000605902210278002A427807D0032A0BD1C8
:102EF0004170304605F068FA074605E0042A02D022
:102F0000032A03D000E041703846F8BD0521EFE701
:102F10007080FF1F70B50C46080419D50D48007865
:102F2000FDF7B0F805000FD005F0A0FC002808D18F
:102F300009480078FF2804D02946FDF709F9002840
:102F400002D02846FDF7A4F80120C003604070BD00
:102F5000002070BD5C80FF1F1480FF1F7CB50C46F5
:102F600005001DD0002C1BD00322E11C6846FDF794
:102F70005FF86946887840218006800E08436946DC
:102F8000887001AA284606F0A1F8002807D103227C
:102F9000214601A8FDF758F8012803D001207CBD87
:102FA00002207CBD00207CBD10B50548007840079C
:102FB00001D5044800E0002005F012FD002010BDFE
:102FC000857FFF1F5080FF1FF0B587B00C9E1C4609
:102FD0000D00074614D068460276110A4176102289
:102FE0000021FDF73DF8324629466846FDF720F8F6
:102FF000002C08D00822214604A8FDF719F807E0A4
:10300000022007B0F0BD0822002104A8FDF728F82F
:103010006B4606AA04A93846FDF7E2F8F1E700007E
:10302000FFB581B00020274C9500009060591E46E6
:103030001746002802D0112005B0F0BD002E0BD09D
:103040002120FEF761FE317E884205D82220FEF75E
:103050005BFE317E884201D20220EDE77820FDF749
:1030600041F8605100282AD078220021FCF7F8FFAF
:103070006159002048706259019911706259029992
:1030800091706259FF21D1706159CF8061598E6072
:10309000615908626159203108710198002803D0F4
:1030A000384605F0A7F90090615901204870009852
:1030B000002802D0384605F059F90098BCE71320E3
:1030C000BAE700007080FF1FFFB58DB00F98169C07
:1030D0000E46002815D0002C13D00D9804F0A2F94C
:1030E000050011D06178207809024018A178E278B3
:1030F0000904120689184718286AB84206D3401CEA
:1031000004D0022011B0F0BD1420FBE7002E04D043
:103110002879800701D40120F4E70822002106A8BD
:10312000FCF79EFF1098001DC0B20190FCF7DAFF7B
:10313000060017D0301D109A0F99FCF7C1FF04222A
:1031400021463046FCF7BCFF1022A91802A8FCF764
:10315000B7FF06AB314602A8019A05F00DFF050046
:1031600002D013E01320CDE7082206A908A8FCF737
:10317000A7FF0822211D08A8FCF766FF012801D03F
:10318000012503E039460D9802F02EF83046FCF791
:10319000AFFF2846B6E70000F0B585B0474D694659
:1031A000E8721E2008706A4601214548FEF754FB6C
:1031B000444C02202146FEF7EDFE21460320FEF797
:1031C000E9FE1E211520FEF7E5FE28211620FEF758
:1031D000E1FE3D4A15210020FFF76AFC0020694608
:1031E0000090087108720873087481206A460421EF
:1031F000C000FEF7D9F9012101AA8802FEF7D4F92F
:103200002F4802AA0121801EFEF7CEF92C4803AAFE
:103210000121401EFEF7C8F9294804AA0121801C9B
:10322000FEF7C2F9294900200854401CC0B21328F7
:10323000FAD3FFF7D3FAE87AFFF742FB0024E4431E
:103240002046FFF725FC2046FEF72AFF2048FCF722
:10325000CDFF0121E87AFCF7CFFF1EA0FCF7D2FFDB
:10326000164E00241E4F1C36E019017A3019817069
:103270001CA0FCF7C7FF641C062CF5DB1BA0FCF7A9
:10328000C1FFB078FF2805D0B11C0020FCF7C0FFBB
:1032900005B0F0BD0C481530FCF766FF014614A0E0
:1032A000FCF7B0FF084917A01531FCF7ABFF0FA0E2
:1032B000FCF7A8FF0120A870EAE70000D47EFF1FFA
:1032C0000404000088130000949E02119CD6FF1F86
:1032D00028B1FF1F5B5045455220414444525D00D8
:1032E0000040001125303278000000000A00000084
:1032F0005B50454552204E414D455D204C3D256477
:103300002000000025730000F0B5DD4D85B00C46AF
:1033100008040FD5E87AFCF7B5FE050007D0017860
:10332000B02901D104F010FD2846FCF7B1FE0120C0
:10333000C003A1E1E007012700280AD0D148FEF729
:10334000BBFAD0480830FEF78DF82046784005B02B
:10335000F0BDA0070026002811DA6E732E73CA4A4A
:103360000021CA48FCF77CFE002201210320FEF761
:10337000B9FA0146C6A0FCF745FF02207CE16007D0
:1033800003D504F005FE042076E120070FD5BE4AE0
:1033900000219032CB48FCF763FECBA00068009080
:1033A0006F70E97AE889FFF7F7F8082064E16004B4
:1033B00004D504F033FD012080035DE1B0486206CE
:1033C0000178C08905D5022901D0FEF799FA40207D
:1033D00052E1220605D5022901D1FEF791FA80209B
:1033E0004AE1BA49E2060DD5B9A30CCB019300928C
:1033F000884205D06846FCF711FFB7A0FCF702FF32
:10340000102039E1A20620D588421CD0288AFF214D
:103410002D310A30FCF71EFE2982A88A0E4689004B
:103420000746FCF717FE6882034632461146ADA0F8
:103430000097FCF7E7FEA88A00902A8A6B8A11465B
:10344000E889FEF767FA202016E1E2050DD58842EB
:1034500008D02A8BE98AFCF7E7FE2A8BE98AA7A025
:10346000FCF7D0FEFF20013006E1A20512D588420C
:103470000DD0ED7800262B461A4631460096FCF713
:10348000D9FE2B461A463146A1A0FCF7BBFE01200F
:103490004002F1E0220530D588422BD0FA20FCF71B
:1034A00021FE0546E030067647762020288003215D
:1034B0009C486980724F0170B97E417086700146E8
:1034C0006A88281DFCF7B4FD2946F889FFF7C8FA79
:1034D00006462846FCF70CFE002E06D001211422D9
:1034E000C902F87AFCF7ACFE04E07A8B31468EA074
:1034F000FCF788FE0120C002BEE0E2047ED58842CF
:1035000014D06879022812D0032810D004280ED0D5
:103510000A2842D00B2840D008283ED009283CD0A9
:103520000C283AD00D2838D00E287BD0A2E00020FD
:1035300003905348007901900490FA20FCF7D2FDE3
:103540000546E030067647762020288004206880F3
:103550007449052008704E7001988870CE706A8892
:10356000281DFCF765FD46482946C089FFF778FA13
:1035700006462846FCF7BCFD002E05D04048142224
:1035800001210903C07A6EE00498009031466CA0D6
:10359000019B039AFCF736FE6CE00A2835D00B2815
:1035A00033D0082833D0092831D0042100910A28CB
:1035B0002FD008282DD00C282BD00021FA200291E2
:1035C000FCF790FD0546E0300676477620202880FF
:1035D000032068805348FC210170009941700299D2
:1035E000817001466A88281DFCF722FD244F294678
:1035F000F889FFF735FA0646284601E03EE011E07B
:10360000FCF776FD002E2AD105E00221CEE703214A
:10361000CCE70121D2E7314651A0009B029AFCF78A
:10362000F1FD27E0FA20FCF75DFD0546E030067667
:103630004776202028803B486F80FD21017001469D
:103640006A88281DFCF7F4FC0D4F2946F889FFF71E
:1036500007FA06462846FCF74BFD002E06D001214E
:1036600014220903F87AFCF7EBFD03E0314643A08E
:10367000FCF7C8FD01200003604068E6002066E614
:10368000D47EFF1F849E02119411000008C5FF1F05
:1036900073696D706C65424C4543656E7472616C04
:1036A0005F446973636F766572446576696365200C
:1036B00052657475726E2056616C7565203A25648A
:1036C0000A000000E4B2FF1FF0FF0000FEFF000050
:1036D000FFFFFFFF1F0000004348414E204D4150B7
:1036E0000D0A00005550445B2025326420253264C9
:1036F00020253264202532645D0D0A00444C455B70
:103700002025326420253264205D0D0A000000006F
:103710005048595B202532642025326420253264CC
:103720005D0D0A009CD6FF1F534C4120444C455B65
:103730002025327820253264205D0D0A000000002B
:10374000534C41205048595B202530327820253297
:103750006420253264202532645D0D0A00000000DB
:10376000534C4120434C4B5B20253032782025328E
:1037700064202532645D0D0A00000000534C412096
:1037800050455220434845434B5B20253032785DFD
:103790000D0A0000FFB583B00F4603981B49400097
:1037A0001646085AFFF7D4FA04002AD00125601CF7
:1037B0002670002F03D00699B847401C85B230060A
:1037C00010D51021039803F0D1FE002801D019264E
:1037D00013E06219E9B22046FFF7E8FA06000CD1BF
:1037E0000C35ADB20421684601800194058169461B
:1037F0000398FFF793FA060004D02046FCF7D8FCA4
:1038000000E01326304607B0F0BD0000667FFF1FC2
:103810003EB5002469462046FCF718FD641CE4B25E
:10382000252CF7D3FCF718FD3EBD10B50C4603F070
:103830000DFE002804D040882146FCF78FFC10BD07
:10384000122010BD0022002913D0002811D0012819
:1038500006D04A799206920E4A71032805D007E0F5
:103860004879C0221043487102E0402002434A7167
:10387000012210467047000070B5124800250078FC
:10388000052108421BD02020FCF72CFC0E4C002800
:10389000A06013D020220021FCF7E2FB2020FCF7DF
:1038A00021FCE060002804D020220021FCF7D8FB96
:1038B00005E0A068FCF71CFC0020A060132528464A
:1038C00070BD0000857FFF1FF87FFF1F70B5104C93
:1038D000606800281AD12078002815D005012846F4
:1038E000FCF700FC6060002810D02A460021FCF79D
:1038F000B7FB00202278FF23616803E00401401C2D
:103900000B55C0B29042F9D3002070BD132070BD9A
:103910006C7FFF1FF3B588880D4681005A485A4CCA
:1039200040585A4F203C85B0002823D105980028E4
:103930007ED0002D7CD000F00DFA60740A281CD3D4
:1039400000260E207043C0190622FF21FCF794FBCD
:10395000002804D1761CF6B20A2EF2D30A26667429
:103960000A2E07D1607B0A210646FCF773FB6174BF
:10397000761C6673607C0A2861D2A888424E80005B
:10398000305800285ED082680027002A0BD0607C67
:10399000062148432130C0B21C21FCF785FBA888D2
:1039A000800030588760A888800030580269002A5B
:1039B0000BD0607C062148432230C0B21C21FCF7AA
:1039C00073FBA888800030580761A88880003058B1
:1039D0004269002A0BD0607C062148432330C0B2E4
:1039E0001021FCF761FBA888800030584761A88847
:1039F00080003058C268002A18D0607C06214843F5
:103A00002430C0B21021FCF74FFBA88806218000AB
:103A10003058C268607C103248432530C0B204215F
:103A2000FCF742FBA88880003058C760E07B00E0CC
:103A300005E0002801D000F0DFFA00F021FB0120B2
:103A400007B0F0BD607C062148432030C0B20E2193
:103A5000059AFCF729FB1022FF216846FCF700FBC2
:103A6000607C6A467030C0B21021FCF71DFB607CA0
:103A70000E2148430A46C0190599FCF7D9FAA888CF
:103A8000800035500020DBE7C87DFF1F4CADFF1FD5
:103A9000F0B589B017460E4604462022002168463C
:103AA000FCF7DEFA68460480394C0225E1780171A2
:103AB00022794271217B017706984108E07A49001A
:103AC000C307DB0F1943069181070029069901DA24
:103AD000294300E0A943069101072E4B069901D521
:103AE000194300E099430691C1062B4B069901D575
:103AF000194300E0994306918106284B069901D5A8
:103B0000194300E0994306914007042100280698D4
:103B100001DA084300E088430690002A05D001A896
:103B200010221F490230FCF783FA6179002904D082
:103B3000002E02D00698284306906846807D002912
:103B400000D00121084369468875A178002900D07A
:103B50000421084369468875A179002900D008210D
:103B6000084369468875E179002900D0102108438F
:103B700069468875217A002900D0202108436946CA
:103B8000887539466846FDF7CFFE09B0F0BD0000E4
:103B9000A87DFF1F000100000002000000040000DB
:103BA0003CADFF1FF0B5064687B0062041430C9D93
:103BB0001446082B1BD02131CFB21C2200216846AD
:103BC000FCF74EFA6A461C213846FCF74FFA0028EB
:103BD0000BD16846807EC01F092806D8E107C90FAF
:103BE0002B466A463046FDF701FF07B0F0BD223193
:103BF000E2E7000070B50025094E2C460E20604318
:103C000080190622FF21FCF737FA002801D16D1C2C
:103C1000EDB2641CE4B20A2CF0D3284670BD00005B
:103C20004CADFF1F7FB50C4606214843064615469E
:103C30002036F0B26A460E21FCF718FA002806D1A9
:103C40000622FF216846FCF717FA002802D0002060
:103C500004B070BD68468189002DC8B202D02043EF
:103C6000C0B200E0A043814206D069468881F0B22C
:103C70006A460E21FCF718FA0120E9E710B5002486
:103C8000204600F007F8641CE4B20A2C01D2002898
:103C9000F6D010BD70B505460446062044432646BE
:103CA00090B02036F0B207AA0E21FCF7DFF9002809
:103CB00006D10622FF2107A8FCF7DEF9002802D072
:103CC000002010B070BD0E22FF2107A8FCF7C8F934
:103CD0001C22FF216846FCF7C3F91022FF210BA824
:103CE000FCF7BEF9F0B207AA0E21FCF7DDF9064693
:103CF00020462130C0B26A461C21FCF7D5F90643A4
:103D000020462230C0B26A461C21FCF7CDF906439A
:103D100020462330C0B26A461021FCF7C5F906439D
:103D200020462430C0B26A461021FCF7BDF9064394
:103D30002534E0B26A460421FCF7B6F90146314366
:103D40000C467035E8B20BAA1021FCF7ADF9204300
:103D5000B7E7000070B50A4D064600240E20604308
:103D6000401906223146FCF76FF9002801D02046A1
:103D700070BD641CE4B20A2CF0D30A2070BD0000B0
:103D80004CADFF1F00229300CB5A834202D190001A
:103D900040187047521CD2B2042AF4D30020704756
:103DA0007FB50C460A280CD2002C0AD006214843C5
:103DB0002030C0B26A460E21FCF758F9050003D046
:103DC00007E0022004B070BD062269462046FCF7D9
:103DD0002FF92846F6E71FB5062148432030C0B228
:103DE0006A460E21FCF742F9002802D0002004B0F8
:103DF00010BD68468089C0B2F9E700218A00835A65
:103E0000491CDB43835212189378C9B2DB43937089
:103E10000429F3D37047000070B5144E00240E201F
:103E20006043821920460621484320301546C0B21F
:103E30000E21FCF71BF900280BD028460622FF2193
:103E4000FCF70EF9A81D0622FF21FCF709F9002056
:103E5000A881641CE4B20A2CE1D30548C07B002889
:103E600001D000F0C9F800F00BF970BD4CADFF1F98
:103E7000A87DFF1F10B5034940880978FEF710FBA5
:103E800010BD0000A87DFF1F10B50F494A79002A18
:103E900001D0012300E000238A78002A00D0042208
:103EA0001A438B79002B00D008231343CA79002AC8
:103EB00000D01022097A1A43002900D02021114392
:103EC000FEF740F810BD0000A87DFF1F70B50E463C
:103ED00004460621484388B015462030C0B204AAE3
:103EE0000E21FCF7C3F8002843D10622FF2104A8C5
:103EF000FCF7C2F800283CD17034E0B26A461021C9
:103F0000FCF7B4F8002831D16846FFF776FF002EA1
:103F100006D069463046FFF735FF00280DD015E082
:103F2000102200216846FCF7A7F800281ED11022B5
:103F300000216846FCF794F810E0002D19D069467E
:103F40000020FFF71FFF002813D006808178A942C8
:103F50000CD08570002D01D1002101806846FFF74B
:103F60004CFFE0B26A461021FCF79EF8012008B031
:103F700070BD0020FBE7000070B51C4C0646606A6F
:103F80001B4D86B0002809D1204614300090022332
:103F9000184A29460120FEF76DFB20E004A8022202
:103FA000002100900292019103ABA28A3046616A1F
:103FB000FEF70CF900280CD16846017B407B00021B
:103FC00008180204120C04D0606A41893046FDF7DB
:103FD000A9FB0023A28A2946606AFEF77DFB606286
:103FE0000028DBD1012006B070BD0000A87DFF1FB6
:103FF000FFFF0000409F021170B5FCF733F90A4E35
:1040000000240E206043801905460622FF21FCF79C
:1040100033F8002802D12946FCF7FAF8641CE4B210
:104020000A2CEED370BD00004CADFF1F70B50B46DF
:10403000044611461846FFF76DFC00281DD00F4DB1
:10404000A40028598088FFF797FF002815D02E4636
:10405000203EF069002807D04368002B04D028597F
:1040600000228088012198472859002803D0FCF7B6
:104070000FF8002028510A20707470BDC87DFF1F02
:1040800008B5FFF7B7FD012801D9022000E00A209A
:10409000694608706A4601210520FEF709FD08BD42
:1040A00010B50D4A03460B4C12201268A14209D1EB
:1040B000002A04D01078984202D1FCF7D9F810BD3C
:1040C000032010BD034B5B1C9942FAD1002AF4D1A6
:1040D00010BD0000FEFF0000EC7FFF1F0246094BF1
:1040E00010B50120D21807D0012A01D0002010BD40
:1040F0008A681278002AFAD08868007801F048F8B7
:1041000010BD0000F5DFFFFF70B504468078002881
:1041100006D005280DD0062816D00C281FD11BE08C
:10412000607800281BD10622E11C1248FBF780FFB3
:1041300015E060782146002811D14A89C878082303
:10414000211DFCF79BFF0AE0A5882046FDF756F8E5
:104150002846FDF713FB02E02046FDF74FF805481F
:104160000C384068002804D04168002901D020465E
:10417000884770BDC47EFF1F10B50178912917D004
:10418000D0292DD0E02912D144681749608888428F
:104190000DD0012103F0EAF9002808D02288231D60
:1041A00021461248FCF76AF86088FCF76DF810BDEC
:1041B00041780E29FBD181880D4A9142F7D182685E
:1041C000917850780902401803215156094A80B26B
:1041D0005268002AEBD01268002AE8D0904710BD40
:1041E000FFF792FF10BD0000FFFF00002142021107
:1041F00005140000B87EFF1F084A002106234B4328
:104200009B185B88834203D106204143881870477E
:10421000491CC9B20429F1D300207047E0B0FF1F48
:1042200010B50446FF2020710820FBF7A3FF010012
:1042300006D0E020087003484C604078FBF788FF08
:1042400010BD0000B87EFF1F002909D0012807D14A
:10425000497989098901C02902D0402901D0022069
:10426000704703207047FFB500200E4608701AE023
:104270001C5C401CC5B2002C17D02819904214D8E1
:104280005F5D6D1CEDB2384600F0D7FF002806D008
:10429000641EE0B2307000998F4202D1581904B008
:1042A000F0BD4019C0B29042E2D30020F7E7000011
:1042B000F8B5114D064668680F4600281AD000244C
:1042C00015E0696820010A5CFF2A0ED04018417889
:1042D000B1420AD106223946801CFBF7B5FE002800
:1042E00003D0696820014018F8BD641CE4B2287846
:1042F0008442E6D30020F8BD6C7FFF1F10B5044C4C
:104300002068002803D0FBF7F3FE0020206010BDDA
:10431000E47FFF1F70B50E4D84002859002815D08A
:10432000006A002801D0FBF7E3FE2859406A002804
:1043300001D0FBF7DDFE2859806A002801D0FBF789
:10434000D7FE2859FBF7D4FE0020285170BD00008D
:10435000F07FFF1F10B5044C6068002803D0FBF706
:10436000C7FE0020606010BDE87FFF1FF3B51F4C43
:104370000646606881B0002824D0002518E06068F7
:104380002F0138188068002805D0FBF7B1FE61685E
:1043900000207918886060683818C068002805D047
:1043A000FBF7A6FE616800207918C8606D1CEDB2AD
:1043B000B542E4D30298002805D06068FBF798FE68
:1043C00000206060FEBD606832010028FAD0002144
:1043D000FBF746FE0021FF22606803E00B01491C49
:1043E000C254C9B2B142F9D3FEBD00006C7FFF1FB9
:1043F000011E044805D104498978002901D00248EA
:10440000801D7047D8D8FF1F847FFF1F0148807828
:1044100070470000847FFF1F01484068704700001C
:10442000C8D8FF1F0148806870470000C8D8FF1F28
:104430000148C06800687047C8D8FF1F10B507481A
:10444000C0680168491C016005480078FF2803D056
:1044500001218903FBF7D0FE10BD0000C8D8FF1F63
:10446000847FFF1F02484068002800D00120704769
:10447000E07FFF1F02480068002800D0012070473D
:10448000E07FFF1FFFB581B00F460D9E0A9D039888
:1044900002F0C8FF040042D0019800283FD12079E3
:1044A0001021084320710499490702D502210843CD
:1044B00001E0FD21084020710B99284608430C9922
:1044C00008433043207902D00421084301E0FB2156
:1044D00008402071002E06D030691022206231463B
:1044E000A018FBF7A5FD002D01D0002F05D00B98DB
:1044F000002814D0012F08D011E0606A002801D0F4
:10450000FBF7F6FD1C21284606E0606A002801D072
:10451000FBF7EEFD1C210B98FBF7F0FD60620398A2
:10452000224C8700E05900283ED0002D0FD0006AB1
:10453000002806D11C20FBF7D5FDE15900280862B0
:1045400005D0E0591C22006A2946FBF771FD0C9842
:10455000002810D0E059406A002806D11620FBF749
:10456000C1FDE1590028486205D0E0591622406A91
:104570000C99FBF75DFD002E10D0E059806A0028F1
:1045800006D11420FBF7AEFDE1590028886205D062
:10459000E0591422806A3146FBF74AFD0B9B049ACE
:1045A0000399019803F008F805B0F0BDF07FFF1FF4
:1045B000F3B581B0019802F035FF050029D00E2037
:1045C000FBF7D8FD040024D02620FDF79DFB060054
:1045D00000D12E78D0202070002767700B20A070AB
:1045E0000622E91DE01CFBF723FD0198608102987B
:1045F000C1070120002901D0207300E02773029930
:10460000890701D5607300E06773F0B22146FBF7BC
:104610009FFDFEBD10B581881F4B0124CA1A994227
:1046200037D011DC1D4BCA1A994219D007DC1C4A3D
:104630008A1810D0022A1ED0032A29D11BE0472A4B
:1046400027D0482A24D124E01300FBF727FD0621B8
:104650002222222222218068007800F083FD08E0D7
:104660008068827841781202891889B2007800F057
:1046700005FE04460DE0094A921E914201D1012235
:1046800000E0002280680178104600F0DFFD00E0C5
:104690000024204610BD0000532000000A20000026
:1046A000FADFFFFFF8B54B4F00253968044628466E
:1046B00000291DD021782646093601290BD0227AFF
:1046C000334669460120FFF7CEFD002800D005786B
:1046D0002178042912D03968497803290ED00A4676
:1046E0002A430BD0002872D0012902D0022902D01F
:1046F0006DE0A80700E0E807002868D06078A11CFA
:10470000FFF7A2FD6070A11CFFF7D2FD050028D0C5
:104710002078042801D0A86800E0E86800283ED08E
:104720002D490968898DC90509D40178227A9142F9
:1047300005D13146401CFBF787FC012847D0207883
:104740000027042806D0A868002828D0FBF7D0FC52
:10475000AF6024E0E868002821D0FBF7C9FCEF60D7
:104760001DE02378042B32D01C494A68002A2ED041
:104770000020097805E00501555DFF2D04D0401C9F
:10478000C0B28842F7D322E0000185181FD02B70F9
:10479000607868700622A11CA81CFBF749FC207AEF
:1047A000401CFBF79FFC00280CD02178042901D085
:1047B000A86000E0E860217A0170227A3146401C4E
:1047C000FBF736FC207A002801D00120F8BD00203C
:1047D000F8BD0000E07FFF1F447FFF1F6C7FFF1FBD
:1047E00070B51A4D1A4A0146002628781268194CED
:1047F00001290CD0002A09D017490978490705D5A5
:104800000221FBF787FC6680FFF778FD70BD6188A9
:10481000002903D0114B1B78002B05D0002AF5D0BE
:104820001078FDF7C9F970BD3C2902D33C3961808D
:1048300070BD0221FBF76EFC62887D20C000424300
:1048400002212878FBF7FCFC668070BD1580FF1FF5
:10485000E47FFF1FF87FFF1F857FFF1F877FFF1FFC
:1048600010B50E4A0124801810D001280BD006285C
:1048700010D00B4AD04203D1084600F049F900E0BD
:104880000024204610BD00F0ABFCFAE7887800F069
:104890008DF8F6E7887800F005F8F2E7F3DFFFFF20
:1048A0000E20FFFF08B5002805D000210B460A4660
:1048B000009100F077FB08BD08B54189009103899C
:1048C000C2888188C07800F06DFB08BDF0B5044651
:1048D0008088A12189004843304987B00968401881
:1048E000FF30FF300230A1794167002C54D02C4DAD
:1048F0006868002823D006782A480068002804D079
:104900004168002901D0002088472146E07908311C
:104910000591FFF799FCE0710246277D638A218AA1
:10492000E089019002A88AC0A0880090E078314612
:10493000059B02F0B7FEE078002802D00DE01A488F
:10494000D9E7E079E2896B46059907C3A379A18885
:104950000122304602F014FDE0706868002811D092
:10496000FFF7F8FC287800280CD06978FEF75DFF87
:10497000002807D0E078A2880346297802F0BFFE1D
:1049800000202870A0881721FCF73CFBA088FEF7C8
:104990007BF9A088FEF7A0F907B0F0BD3409FF1F2E
:1049A000E87FFF1F1880FF1F847FFF1F00B585B0C1
:1049B000002810D009490B68002B0CD00021019170
:1049C0000291039104910091DA7819781B1D02F08D
:1049D00069FEFFF7BFFC05B000BD0000EC7FFF1FC4
:1049E00070B504460026808802F01CFD002803D024
:1049F0000678A08802F09EFD144D2878002808D083
:104A0000864206D16978FEF710FF002809D0002001
:104A10002870002E05D0A379A288A078314602F034
:104A20006EFEA088094A810008325158002901D041
:104A3000FFF770FCA0881721FCF7E4FAA088FEF7C6
:104A400023F9A088FEF748F970BD0000E87FFF1F3A
:104A500070B58288294D0124531B2949AA4242D0AE
:104A600019DC284D531BAA4218D00BDC264BD21858
:104A700026D0254B1033D2181ED0032A17D0042A73
:104A800039D10BE0012B09D0022B07D0032B21D009
:104A9000042B30D11AE0433B072B2CD8496800295E
:104AA0002AD00968002927D08847044624E0806876
:104AB000007800F0DDF81FE0806800F061F9F4E7AD
:104AC0008068411C007800F039F9EEE783681B78B4
:104AD000002B11D0896800290ED00B6808E0014630
:104AE00010469847E1E709490968002904D04B6856
:104AF000002BF4D100E00024204670BD0E20000001
:104B00001480FF1F08200000F7EFFFFFF47FFF1F56
:104B10007FB505464079122825D12C460834EB890B
:104B2000AA8969892889FBF7B5FB0026002804D0EB
:104B30002520FDF7E9F8002816D001206946888174
:104B40002979688803AAFEF72BF86846808900282F
:104B500009D1E088019602960090A3886288218896
:104B60006888FBF7B9FA7FBD68468681E8E70000F0
:104B700010B5094CA17800290CD001460622A01DD1
:104B8000FBF756FAA11DA078FEF75CFEA01DFBF70F
:104B900087FB10BD002010BD847FFF1F1CB52F496F
:104BA000037801240A68912B02D0A22B2ED13EE07B
:104BB0004178052909D00E2904D00F2908D03E29B3
:104BC00024D115E0FFF744FF10E0FFF709FF3AE0BA
:104BD00001468088224B0124C31801D0062B15D131
:104BE000002A30D05268002A2DD0904704462AE08F
:104BF00081780124032917D004DC012911D002296E
:104C000004D105E015291ED016291CD000241AE075
:104C100014498968002916D04968002913D08847AB
:104C200011E0FFF753FE0EE0FFF746FE0BE00E49E2
:104C30000978042909D0002A05D05268002A02D038
:104C400001460A48904720461CBD00216A46118053
:104C500001794088FDF798FFF5E70000F47FFF1F1A
:104C6000F3DFFFFF1480FF1F857FFF1FFFFF0000A2
:104C7000F8B5164F0646BD1F2878FF2814D00A2025
:104C8000FBF778FA04000FD0D0202070667008205F
:104C9000A070A878E07006223946201DFBF7C8F9FD
:104CA00021462878FBF754FAE87801280DD1084806
:104CB0000068002803D08068002800D0804706489C
:104CC000044A04210078FBF7F1FAF8BD8A7FFF1F40
:104CD0001880FF1F60EA00001580FF1FF8B505006F
:104CE0000BD0E878002812D06C68002C0FD024205C
:104CF000FDF70AF847B2002619E00F4800680028BF
:104D000005D0002000F08EF8002000F0BBF9F8BDBF
:104D100028200157B94207DB2046FFF7C3FC0028D3
:104D200002D0204600F0E6F8761CF6B22934E87886
:104D3000B042EDD8F8BD0000E07FFF1F70B5002441
:104D40000546002805D1002903D006220B48FBF7B1
:104D50006FF90A4810380178012907D10124002D84
:104D600006D000210170284600F0F8F8204670BDFA
:104D700002210170FBF7A0FAF8E70000D8D8FF1F66
:104D800010B50024002813D002780B49002A03D163
:104D90004288CA8202790A760A78022A08D1027801
:104DA0000124002A06D000220A70007800F0D6F80C
:104DB000204610BD0322F7E7C8D8FF1F01498860CD
:104DC000704700001480FF1F0149C8607047000051
:104DD000E87FFF1F01494860704700001480FF1FF3
:104DE000F8B507460E46084602F01CFB040018D032
:104DF0002620FCF789FF050000D125780620FBF767
:104E0000B9F904000DD006220021FBF729F9D020C2
:104E1000207067700E20A070A680E8B22146FBF7D4
:104E200097F9F8BDF8B50646304800250068002817
:104E30005BD02F484268002A57D0002E0DD12C4954
:104E40000020097807E00301D35CFF2B01D06D1C23
:104E5000EDB2401CC0B28842F5D3E8000830FBF741
:104E600089F9040007D10820FBF784F900251326EF
:104E7000044600282ED0D020207001206670A0703B
:104E8000E570002D1ED0264608360027666012E029
:104E900042683901505CFF280BD08918307048787F
:104EA00070700622B01C891CFBF7C2F86D1EEDB2B3
:104EB00008367F1CFFB20E4801788F4204D2002DC5
:104EC000E6D101E0002060600848214600680078D3
:104ED000FBF73EF9064800210078FFF747FA034C3C
:104EE0002068FBF705F900202060F8BDE07FFF1F78
:104EF0006C7FFF1FF8B5184E05463068002829D092
:104F0000287A1430FBF736F9040023D0D020207023
:104F1000002767700D20A0702878E0702820405D81
:104F2000E072687820710622A91C601DFBF780F8EA
:104F30002A7A2273002A07D02046143029460931E4
:104F40002061FBF775F800E02761306821460078A2
:104F5000FBF7FEF8F8BD0000E07FFF1F70B50F4DB6
:104F600006462878FF2818D00E20FBF703F9040026
:104F700013D0D020207066700020A070062208494F
:104F8000E01CFBF755F806481038C18A6181007EA5
:104F9000207321462878FBF7DBF870BD847FFF1F64
:104FA000D8D8FF1FFFB581B01E4617460D460C200E
:104FB000FBF7E0F8040013D0284602F033FA00288B
:104FC00010D00078D0212170019961700721A17063
:104FD000A580E78026810A9961812146FBF7B8F810
:104FE00005B0F0BD0048ECE7847FFF1F70B50D4DA4
:104FF000044628680E46002812D00620FBF7BAF8AF
:10500000010009D0D02008704C70032088708E8079
:1050100028680078FBF79CF8002C01D0FFF76EF9A8
:1050200070BD0000E47FFF1FFFB581B01F460E4634
:10503000084602F0F7F9050022D01020FBF79AF895
:1050400004001DD010220021FBF70AF82620FCF7EF
:105050005BFE002800D12878D02121700199617071
:105060000F21A170A6800399217267720A99A1721B
:105070000B99E1720C99E160C0B22146FBF768F828
:1050800005B0F0BD10B504462320FCF73DFE002816
:1050900001D0012100E000212046FBF713F910BDEB
:1050A000FFB581B01D4617460E460E20FBF762F88D
:1050B000040010D0D0202070002060700C20A07060
:1050C000A68006223946A01DFAF7B2FF25732146B5
:1050D0000198FBF73DF805B0F0BD0000F0B51F4D9D
:1050E00085B02868002837D08778FCF729FE00288B
:1050F00005D00A20FCF708FE04900B200EE001F01A
:105100009DFD002805D00620FCF7FEFD0490072039
:1051100004E00820FCF7F8FD04900920FCF7F4FDFA
:1051200004460F480078002814D001262968C87862
:10513000091DFEF787FB29686D46CA7A8B7A091D1F
:105140000BC5039233463A4621460498FBF7C0F854
:1051500005B0F0BD0026E9E70120F9E7E47FFF1F75
:10516000867FFF1F10B50949096800290CD0002867
:1051700005D101204870FAF7D3FF002802D00021A2
:10518000FFF734FF012010BD002010BDE47FFF1F9A
:1051900070B504461048006800281AD00F4D002C46
:1051A0000FD14078022815D00220FCF7ADFD024651
:1051B00001212878FBF744F80120FFF763FF040082
:1051C00006D001212878FAF7A5FF2046FFF72AFE2E
:1051D000012070BD0320E8E7E07FFF1F1580FF1F5F
:1051E00010B5FFF7B7F810BDF8B50C4602F01AF984
:1051F000020021D026201462FCF786FD05062D0E44
:1052000000D115789679D01D00901020176AFAF712
:10521000B1FF040010D0D020207000206070092061
:10522000A070E6700622201D0099FAF701FF2146C2
:105230002846E760FAF78CFFF8BD411E152903D90F
:10524000FF2801D0002070470120704770B50A4E3A
:10525000054630780C46FF280DD00420FAF78AFF67
:10526000010008D0D02008704C7002208870CD70EA
:105270003078FAF76DFF70BDF87FFF1FF3B5284D4A
:1052800081B0286800284AD04078264E012803D0F3
:105290003078002831D041E001F0D0FC224F0028C6
:1052A00013D00120FCF730FD0446412808D91F4ADD
:1052B00002213878FAF7FAFF1D483C3C44800EE0A2
:1052C0007D20C0002246424303E00020FCF71CFD85
:1052D0000246002A03D002213878FAF7B1FF296884
:1052E000022048703078002802D00020307015E08D
:1052F00002990198FFF77AFE10E00320019CFAF76B
:1053000039FF010008D0D02008704C70042088704C
:1053100028680078FAF71CFFFEF7F0FF0120FEBDB9
:10532000E47FFF1F877FFF1F1580FF1F60EA0000DB
:10533000F87FFF1FF8B505461D48854223D0461C5F
:10534000002921D001292BD002291CD10121284676
:1053500002F00CF9002816D1284600F0BDF8040030
:1053600011D0207AFF280ED0FE2807D00020009010
:10537000A378607A1422294600F002F9204600F052
:1053800051FDFF202072F8BD284600F0A5F8002846
:10539000F9D1304600F0A0F80028F4D00580F8BD1F
:1053A000284600F099F80400F9D02680D9E70000DB
:1053B000FEFF000038B5040016D0207AFF2813D075
:1053C00000250095A3782188607A172200F0D8F88C
:1053D000A078182805D16846057020886946FBF733
:1053E0007FFB204600F01EFD38BD0000F3B50878B5
:1053F000C1B00C46002831D1617801292ED0A278A5
:1054000001AE1B2A16D01D2A14D0419800F064F872
:10541000050025D0A078012824D0A978884227D17A
:105420006B68002B24D0A18801AAA06898470700C8
:1054300020D04DE0274D2A78FF2A0FD00096A38870
:10544000A268FBF719FC002806D10096A378002279
:105450002878419900F094F843B0F0BD0620FBE7AE
:105460000020F9E7A18801AAA068FBF79BFBDEE713
:1054700004272DE0A87805280FD007280DD009288B
:105480000BD00D2809D0112807D0172802D00328E7
:105490000AD012E0286900280FD0A27801AB294673
:1054A000419800F065F913E068468088A989884230
:1054B00000D201464198FBF7A5FD0096A378687AD3
:1054C0000022419900F05CF80746284600F0AAFC4B
:1054D0003846C1E72080FF1F094A0021FF230D3312
:1054E0004B43D35A834204D1FF200D3041438818E7
:1054F0007047491CC9B20229F0D300207047000050
:10550000E4D8FF1F074A00218B00D35A834202D1FF
:10551000880080187047491CC9B20229F4D30020C2
:10552000704700002C80FF1F10B50C46FFF7D4FF1A
:1055300000280DD0002C00D02060007AFE2803D077
:10554000FF2803D0162010BD172010BD002010BD6D
:10555000022010BD10B50C46FFF7D4FF00280DD077
:10556000002C00D020608078FE2803D0FF2803D0D4
:10557000162010BD172010BD002010BD022010BD48
:10558000FFB581B0FF201E46174605300A9DFAF789
:10559000F1FD04001BD0B02020706770029860807D
:1055A0002671002D06D02046FC2229460830FAF745
:1055B0003FFD05E02046FC2200210830FAF750FDAF
:1055C00021460198FAF7C4FD002005B0F0BD132074
:1055D000FBE700000548172202800988172901D23D
:1055E000042070470180002070470000687FFF1F83
:1055F0000020704708B50A460888498888420BD8B9
:10560000002809D0002300931379521DFDF732F8CA
:10561000002803D0002008BD012008BD0A2008BDD5
:1056200010B50446FF300130052903D011790A294D
:1056300026D120E0037A21465B1C037250780C319E
:105640000128107812D01223584380184038008E59
:105650004A88824212D9401C08802088FBF76EFAE3
:10566000207A0849FAF73AFE162010BD800080180B
:105670004038C08FECE7007A002801D0002010BD30
:10568000012010BD30750000F3B50D46088849882B
:10569000002687B0814215D3002813D00027694621
:1056A0000F710097002369881A46FCF7E3FF040096
:1056B0004FD068460079002807D06946497901290A
:1056C00025D008E0012009B0F0BD217802291BD0C7
:1056D00002216A4651711222504301AA6189801841
:1056E0004180684600791223584380181022001D1B
:1056F0006168FAF79DFC68460079401C0106090EB6
:10570000684601711FD11AE001216A465171217862
:1057100002291ED1820001A86189121851806A46AF
:1057200012796168920010180222001DFAF780FCBD
:105730006A461079401CC0B21071052803D26189F5
:105740000A48814200D101266089401C80B2002EA7
:10575000A7D068460079002805D001A90798FBF773
:10576000F7F90020AFE70A20ADE70000FFFF0000D7
:10577000FFB50C4617468A78E01D0C31F93001253B
:1057800081B01E460D2A35D006DC052A0AD0072A2C
:105790000ED0092A04D125E0112A4FD0172A53D060
:1057A00001255CE01A4639462046FFF739FF1EE026
:1057B000072F03D031790A2951D138E01A46037AEC
:1057C0005B1C037210784A88800080194038C08FB3
:1057D000904205D2401C08802088FBF793F920E016
:1057E000002549E01A463946204600F0BFF805007A
:1057F00035D120E00D2F03D0317907292FD116E0C4
:10580000037A5B1C03722288284B52009A5A308814
:10581000521E9042E4DB4A88101848802088FBF72B
:105820006DFB207A2249FAF759FD162524E0007A0B
:10583000002814D00025012F11D116E01A46394650
:10584000204600F037F8D2E7207B1A460128394677
:10585000204607D000F024FA054601281AD1092F66
:105860000AD106E000F084F9F6E730790A2803D17E
:1058700012E03078002806D00096607A3B4600227D
:105880000199FFF77DFE002D06D0162D02D020468F
:1058900000F0C8FA05B0F0BD00200090A378607A4F
:1058A0001A220199FFF76CFEF1E70000667FFF1FE7
:1058B0003075000070B50446FF30184B01301129D7
:1058C00003D011790A2926D120E011789578491E54
:1058D0006943CDB2017A491C017250198179C079AE
:1058E0000002081880B2984213D0401C80B2A081F8
:1058F0002146E2890C3190420BD82088FBF712FB3D
:10590000207A0749FAF7EAFC162070BD007A0028D1
:1059100001D0002070BD012070BD0000FFFF00001D
:105920003075000038B50C4608884988884215D87B
:10593000002813D02379621D02210B48FBF75AF887
:1059400000280DD000200090237961882088621DF6
:10595000FCF790FE002805D0002038BD012038BD9E
:10596000102038BD0A2038BD349F0211F0B504461E
:10597000C71D0C34F93787B006460929154603D0F0
:1059800028790A2845D141E02878A978401E484363
:10599000397AC0B2491C397228180179407900025D
:1059A000081880B201902078012865D1002000906D
:1059B0002878A9784843C0B2039000202870074691
:1059C00020E06888EA19401F029283B2A179E01DA5
:1059D0000932FBF70FF8002811D00098874206D053
:1059E000029928186A88001D091DFAF721FBA97879
:1059F00000980818C0B200902878401C2870A87839
:105A0000C019C7B203988742DBD335E0387A002843
:105A100056D1A379E21D02212A48FAF7EBFF0028AC
:105A200022D1A379E21D02212748FAF7E3FF0028DB
:105A30001AD1A379E21D02212448FAF7DBFF0028DE
:105A400012D1A379E21D02212148FAF7D3FF0028E1
:105A50000AD1287902280AD0052808D0082806D0BB
:105A60000F2804D00C2802D0012007B0F0BD387AEE
:105A7000401C3872688801901649019888421FD0EE
:105A8000A18881421CD9401C81B261802078012804
:105A900009D03088A11CFBF763FA307A0E49FAF777
:105AA0001DFC1620E1E768460180A18841800221A3
:105AB0000171032141712821817130886946EAE72B
:105AC0000020D2E7349F0211369F0211389F021145
:105AD0003A9F0211FFFF00003075000008B50A462A
