:020000041102E7
:1000000003B40148019001BDADAE000003B4014846
:10001000019001BD456B010003B40148019001BD91
:100020000189000003B40148019001BDC53F0000F3
:1000300003B40148019001BDE94C010003B401483B
:10004000019001BDC95C010003B40148019001BDEC
:10005000CD4C010003B40148019001BD618900004D
:1000600003B40148019001BD154D010003B40148DE
:10007000019001BD1D4B010003B40148019001BD79
:10008000090E000003B40148019001BDF54E0100C6
:1000900003B40148019001BD434D010003B4014880
:1000A000019001BD4551010003B40148019001BD1B
:1000B0002526000003B40148019001BD8B520100C8
:1000C00003B40148019001BDB352010003B40148DB
:1000D000019001BD0D52010003B40148019001BD22
:1000E000C94A010003B40148019001BD3D4B010024
:1000F00003B40148019001BD014C010003B4014863
:10010000019001BDF94C010003B40148019001BD0B
:10011000691F000003B40148019001BD5D17000094
:1001200003B40148019001BD5952010003B40148D4
:10013000019001BD5125000003B40148019001BDAB
:10014000594F010003B40148019001BD8D12000018
:1001500003B40148019001BD4D1F000003B40148E4
:10016000019001BD5522000003B40148019001BD7A
:10017000DD52010003B40148019001BD1D4D010095
:1001800003B40148019001BD810E000003B4014891
:10019000019001BD7521FF1F03B40148019001BD0D
:1001A0001DBC000003B40148019001BD6DBC0000FE
:1001B00003B40148019001BD017F000003B4014870
:1001C000019001BDE117000003B40148019001BD99
:1001D0007918000003B40148019001BDD94901001C
:1001E00003B40148019001BDE928000003B40148AF
:1001F000019001BD5549010003B40148019001BDC2
:10020000C926000003B40148019001BDF541FF1F5C
:1002100003B40148019001BD9141FF1F03B401489F
:10022000019001BD350E000003B40148019001BDED
:100230007936FF1F03B40148019001BDB92AFF1FA1
:1002400003B40148019001BD2937FF1F03B40148E1
:10025000019001BD3519000003B40148019001BDB2
:10026000BD18000003B40148019001BDC521000084
:1002700003B40148019001BD291C000003B40148EA
:10028000019001BD851F000003B40148019001BD2C
:10029000A946010003B40148019001BD11470100C6
:1002A00003B40148019001BDC135FF1F03B40148EB
:1002B000019001BD6D41FF1F03B40148019001BDD4
:1002C000F320FF1F03B40148019001BDCD20FF1FA3
:1002D00003B40148019001BDB13E000003B40148E0
:1002E000019001BD9929FF1F03B40148019001BD90
:1002F000AD29FF1F03B40148019001BDC90E0000E4
:1003000003B40148019001BD055E000003B401483B
:10031000019001BDE548000003B40148019001BD12
:100320002951010003B40148019001BDD91B00000F
:1003300003B40148019001BD8D21FF1F03B40148A2
:10034000019001BDB521FF1F03B40148019001BD1B
:1003500051470100F8B5D349D14A002004464A600C
:100360008300401CD450FF28FADD4868CE4A01467D
:1003700080318A606E22C262CC4A1278002A01D093
:100380007F22C2620A220265C94A13788363C94B7D
:10039000C36115781023022D08D01578012D05D0E2
:1003A0001578032D02D01578042D00D10362C24DBB
:1003B00045611925AD0185613725CD603627282691
:1003C000C7630825466405644F6032270F603B27EA
:1003D000CF634127CF6439274031E0C132274F60D6
:1003E00002274F6142270831E0C11E274F60CE60CF
:1003F0008D6005264E6142260E615A2660390E61D7
:100400004D613C258D61AF25ED000560AB4D056369
:100410001578022D09D01578012D08D01578032DF7
:1004200007D01578042D06D007E0152504E04360B9
:1004300003E00E2500E00C254560FF252D35856085
:10044000C560FF25F53505619D4D85647D25ED0071
:100450009C4ECD67C66445629B4D85627325C5651C
:10046000062545658565C51D0826F93502272E60D8
:1004700047664B27FF0087660927C766934F0767C4
:100480004667BE108467C667914F8E4E3E601678F1
:10049000022E09D01678012E0AD01678032E0BD022
:1004A0001278042A0CD00EE01A22CA61212205E03B
:1004B0001422CA61182201E01322CB610A6202E011
:1004C0000E220B62CA617E4A8A627D22D2008A674E
:1004D00064224A620522CA6202220A63C8228C632D
:1004E0004A63382169607B4929647B49A9614B21B2
:1004F000C900E9617349FF30643929627D2109012E
:100500006962EC661E212C67A9667049A965E965D8
:1005100089102966696469677049A9677049714AD9
:100520008130E967026082604160FF21F531C1607E
:1005300001616E486C495A4A81606D49803A116187
:100540006A496C4A80318A626B4ACA626B4A82612C
:100550006B4AC2626B4A02636B4A64484038C263AA
:100560006A4ACA616A49816360496A484031886160
:100570006A49694888605D48694A80384260694ACA
:100580004263694A0A626949816058496848C039CA
:10059000C860FFF735FD0120FFF738FDF8BDF3B562
:1005A0000746644881B0C169634A1140FF3109318F
:1005B000C161002613E000252C461120FFF72CFD19
:1005C0005C48406A8007800F610088402843641CB3
:1005D000E4B20546102CF0D301C7761CF6B202989F
:1005E0008642E8D3FEBD10B52E4C607800280AD1B3
:1005F00004215248FFF7D3FF504804211030FFF781
:10060000CEFF0120607010BDF0B500248BB00D4608
:100610000646102902D901200BB0F0BDFFF7E3FF19
:10062000464900200A5C401C1419C0B21028F9D3B6
:10063000002C03D0102D03D90B20EDE70E20EBE7A3
:100640003F483E4C0023006802A91034E25CC75CBE
:100650007A40CA545B1CDBB2102BF7D306AA37488A
:10066000FFF7E0FC102D00D910252A4606A93046D8
:10067000FFF7DEFCFFF7E2FC216840182060FFF77F
:10068000DDFC616840186060FFF7D8FCA168401885
:10069000A060FFF7D3FCE1684018E0600020BBE7F2
:1006A0000004FF1F3862FF1F387DFF1FD85AFF1F4D
:1006B0004A0AFF1F3A07000080C3C9019A020000DE
:1006C00050C30000280A00006A180000204E0000F5
:1006D000F009FF1F0040001168100000DC05000059
:1006E00040420F00102700009D46FF1F0001FF1F22
:1006F0007525FF1F994BFF1F714EFF1FDD21FF1F47
:100700007123FF1FF921FF1FCD31FF1F4157FF1F2D
:100710006555FF1F4D21FF1F3129FF1F0002FF1FDD
:100720001543FF1FF144FF1F3544FF1FD142FF1F38
:100730006129FF1F40F0004000FEFEFFBC77FF1F55
:100740005862FF1F0A7802708A7842704A88120A3B
:1007500082700979C170042070470A780270098894
:10076000090A41700220704710B500220EE0930084
:100770005B189C7804705C88521C240A44701C79B5
:1007800084709B88D2B21B0AC370001D0B78934201
:10079000EDD81806800D10BDF8B50D46064649780F
:1007A000012031700024761C16E06978012917D0E9
:1007B0001221614349198A7832704A88871C120ACB
:1007C0007270B61C10223046091DFFF731FC10373D
:1007D000B8B21036641CE4B22978A142E5D8F8BD5D
:1007E000A10049198A7832704A88871C120A7270EF
:1007F000B61C02223046091DFFF71AFCBF1CB8B216
:10080000B61CE7E710B50C46097801702188090A83
:1008100041706288211D801CFFF70AFC6088801CE3
:1008200080B210BD10B50C46097801702188090A04
:100830004170A17881706188090AC170A288A11DE8
:10084000001DFFF7F5FBA088001D80B210BD10B59C
:100850000C460A88891CFFF7EBFB208810BD10B5F9
:100860000B788A7802705343DCB22246401C091D83
:10087000FFF7DEFB601C10BD10B50B788A780270A4
:100880005343DCB22246401C091DFFF7D1FB601C1C
:1008900010BD10B50C460A88891CFFF7C9FB2088DB
:1008A00010BD10B50C460A88891CFFF7C1FB2088D3
:1008B00010BD7FB515460446022901D0102903D189
:1008C000022B04D0102B02D0002004B070BD99423E
:1008D00002D10A46294607E01029694607D000F0F0
:1008E0000DF8102269462846FFF7AEFBEDE71046EB
:1008F00000F004F8102269462046F5E770B50C4672
:1009000005000CD0002C0AD0102206492046FFF723
:100910008FFB2878207368786073012070BD0020F9
:1009200070BD0000E59C021110B50B460122024982
:1009300002F0DEFF10BD00004507021170B506464B
:1009400008880C46172812D30B4603220949304663
:1009500002F0CEFF050008D10749208809888842A7
:1009600000D20146304600F0C1F9284670BD022091
:1009700070BD00005B0702116662FF1F10B5002307
:100980001922194602F0B4FF10BD000010B50A7814
:10099000002A05D00B460722024902F0A9FF10BD2C
:1009A000022010BD6907021110B54A78012A01D052
:1009B000022A08D10A78002A05D00B4605220349ED
:1009C00002F096FF10BD022010BD00009907021131
:1009D00001494000085A70476462FF1F10B50B467A
:1009E0001D22024902F084FF10BD0000050802111B
:1009F00010B50B461B22024902F07AFF10BD000021
:100A00000508021101491720088070476462FF1F22
:100A10000098022B01D004207047117852781202FE
:100A200089180180002070470098012B01D0042014
:100A30007047117801700020704770B5049C1E4605
:100A40001546062B1BD369782878090240182080A8
:100A5000E978A87809024018608002222271291DD5
:100A6000601DFFF7E5FAB61FB2B22281F02A06D860
:100A70002046A91D0A30FFF7DBFA002070BD0420D4
:100A800070BD0098042B01D0042070475378117872
:100A90001B02C91801809178D2781202891841800E
:100AA00000207047F8B584890D460646002C26D0F4
:100AB000B2681778380620D50C2C20D90C3CA4B28B
:100AC0001019009001217088234602F089FE002849
:100AD00011D0022028707806C00F6870B806800E0A
:100AE000A870641E2004000CA88001D0B068401CCF
:100AF000A8600020F8BD0120ECE70020EAE7012013
:100B0000F8BD10B502981146042B14D34C780A781E
:100B1000240212190280CC788A78240212194280A9
:100B20001B1F9AB28280F22A05D8801D091DFFF78B
:100B30007FFA002010BD042010BD0098042B01D0C6
:100B400004207047537811781B02C91801809178EE
:100B5000D2781202891841800020704710B502989F
:100B60001146062B03D0142B03D0042010BD022203
:100B700000E0102202714B780A781B02D218028022
:100B8000CB788A781B02D21842800279401D091D59
:100B9000FFF74EFA002010BD30B5039CD80718D1DE
:100BA000D805010E022914D30B488088814210D841
:100BB000F6200155002008E0557813782D025B19C6
:100BC0004500401C6353C0B2921C8842F4D30020FD
:100BD00030BD042030BD00005E62FF1F0098022B74
:100BE00001D00420704711785278120289180180D0
:100BF0000020704770B5144602460498022B18D3A3
:100C0000667825783602AD1905800546E0352A76E6
:100C10006976002A0BD0E8219B1E9AB242808A4254
:100C200007D8A11C001DFFF703FA002070BDF421B6
:100C3000F2E7042070BD000010B50B4617220249F0
:100C400002F056FE10BD00002508021110B50B463B
:100C50000D22024902F04CFE10BD00004F080211A7
:100C600010B50A78002A05D00B461122024902F07D
:100C70003FFE10BD022010BD5F08021110B50A78BA
:100C8000002A05D00B460922024902F031FE10BDB0
:100C9000022010BD7908021110B50B460F2202493F
:100CA00002F026FE10BD00009308021110B50B469D
:100CB0000B22024902F01CFE10BD0000A308021125
:100CC000F72800D9F720084A01461080401EC317B4
:100CD0009B0F18188003000C5080491EC80F401845
:100CE000C003000C908070475E62FF1F044A1288A8
:100CF000914203D8024A4000921D115270470000F1
:100D00005E62FF1F10B500231322194602F0F0FDAA
:100D100010BD000010B50549054801F01BFA034855
:100D2000044A0521083001F095FB10BD9461FF1FB6
:100D3000FFFF0000A49C0211034610B50020104ADA
:100D4000002B08D0012B08D01032022B08D0032B27
:100D500009D0022010BD127800E052780A7010BD50
:100D600052890A8010BD064B9B1C1C780C715B7865
:100D70004B71538D0B80528F4A8001228A7110BDB6
:100D80008C61FF1F10B50446084884420DD001292C
:100D900007D0022909D10121204606F007FE0028CC
:100DA00003D10349204601F0D5F910BDFEFF000034
:100DB0009461FF1F10B505495F200A785F2A03D9A7
:100DC0000870034806F0AEFD002010BD8C61FF1FC7
:100DD0006D39021101494860704700008C61FF1FA6
:100DE00070B50C460146012080020A1A00251C48F5
:100DF0001300FFF72FF90F32090B0D1012181A1CF0
:100E00002A1F212325272A00408A23E0807800E03A
:100E1000C078207021E00079FBE7102211492046BC
:100E2000FFF706F919E04079F3E7C07AF1E7806946
:100E3000206012E0407AECE7807AEAE7007BE8E79E
:100E4000807BE6E703F06AF9E3E7272904D2084646
:100E500000F0E4FE208000E00225284670BD00007E
:100E6000245BFF1FB471FF1F10B50249087003F027
:100E700055FA10BD245BFF1FFFB599B000261F4631
:100E8000079607AA089600F0CDF905460A287AD2F7
:100E900004460620444320462030C0B26A460E2154
:100EA00006F0D4FF002802D168468089C6B21B989C
:100EB0000990082F14D000201790082F12D0204638
:100EC0002130C0B218901C2200216846FFF7C8F8F4
:100ED0006A461C21189806F0B9FF002805D010E0DA
:100EE0000120E9E720462230EBE76846807EC01FFC
:100EF000092806D8F107C90F6A46179B099800F020
:100F0000D9FD1422002110A8FFF7AAF820462430AA
:100F1000C0B210AA102106F099FF002812D11022A9
:100F2000FF2110A8FFF7A2F800280BD12534E0B26A
:100F300014AA042106F08AFFF107C90F10AA1B9812
:100F400001F022F87035E8B20BAA102106F07EFFFE
:100F5000002811D10BA803F0D2F900240BADA0009A
:100F600040190188002903D082781B9801F0CEFA3D
:100F7000641CE4B2042CF2D3B00704D5094801780C
:100F80001B9801F0B1FA042F08D106491B98491C9F
:100F9000085C022802D11B9803F0F8F900201DB06C
:100FA000F0BD0000245BFF1F70B50024054600293A
:100FB0000BD108491046FFF75FF80846294600F0B4
:100FC000C9FE040003D00121284601F003F82046A1
:100FD00070BD000040420F0070B50C46080428D5D3
:100FE00015480078FFF74EF805001ED00178B029AB
:100FF00008D0B1290ED0D02914D100F01FF8002854
:1010000010D112E001791E290CD16888002100F06E
:1010100065F907E00179002904D10289C18868884F
:1010200000F048FA2846FFF733F80120C00360407B
:1010300070BD002070BD0000245BFF1F7FB582786B
:101040006E4C921FE1691300FFF704F80AB2D6D67E
:10105000681B06D6D65F7AD60546002908D00E68EA
:10106000002E05D06B7B2A7B6989E81CB047C3E062
:101070006989A06900F06EFE0028F8D06889012116
:1010800090E00546407800282DD1A879C0072AD0E5
:10109000A8885A49800020310858002823D10E2200
:1010A00000216846FEF7DCFF6969002903D00622AB
:1010B0006846103107E0A88806F0D4FB00283ED02F
:1010C000C11D06226846FEF7B3FF69468889A979E3
:1010D0004907C90F0843694688812946684602F0D6
:1010E000D5FE002809D0E069002828D04368002BED
:1010F00025D06A78A888012151E0A8882A46694647
:1011000003F016FA002004B070BD002974D04B68BB
:10111000002B71D042788088022140E00446C078DC
:101120000022211D00F07EF80A2865D206214843DE
:1011300025302246C0B20C32042106F0B3FE5BE03B
:101140000546607A0028A88801D0A17A2AE02B49B8
:10115000491C095C002924D006F084FB0646A87AC5
:10116000C0070DD0002E47D0B079002808D0A9893B
:10117000890505D46A46F11D00F054F8002814D002
:101180002A46B179A888083202F03EFFE0690028BB
:1011900032D04368002B2FD00022A88811469847F0
:1011A0002AE0052100F016FF26E0A8880321F9E7D0
:1011B00000F0B0FD00281FD1E07B0025012805D0FC
:1011C0000F4E0024305D012809D00CE002F0EAFF48
:1011D000E5730A2200210A48FEF742FF07E0204695
:1011E00002F0ECFF3555641CE4B20A2CEAD350201F
:1011F00006F02AFE03F092F8012084E7245BFF1F2B
:101200005072FF1F10B5064CE0612178FF2905D010
:10121000262000F0A9FE207801F016F910BD00008C
:10122000245BFF1FF0B50A2485B016460F46002840
:1012300007D0012805D00A25022810D0032847D15D
:101240001FE0084603F01AF804460A2840D2002E90
:101250003ED0062239463046FEF7EAFE38E01E4F01
:10126000002400910E206043C0190622801D0099C1
:10127000FEF7EAFE002823D1641CE4B20A2CF1D365
:101280001CE000242046062148432330C0B26A46B1
:10129000102106F0DBFD00280CD11022FF2168464A
:1012A000FEF7E4FE002805D13946684600F010FE3E
:1012B000002805D0641CE4B20A2CE3D32C4607E0D6
:1012C0000A2C05D2002E03D03146204602F0FCFF46
:1012D000204605B0F0BD0000C471FF1F70B50E467A
:1012E00017491525884212D1002432460221204692
:1012F00002F02CFF002800D00025641CE4B20A2C68
:10130000F3D3002E1AD00F4806F00CFB16E006F0BF
:10131000A9FA040011D0A0790022E11DFFF782FF95
:101320000A2804D23246022102F010FF0025002EC6
:1013300004D0204603F020F800E01425284670BDB4
:10134000FFFF000079430211FEB51546012292020B
:10135000821A00240127544E1300FEF77BFE110A67
:10136000151A21282F373E434B767E858D9B9B5641
:101370009B00012970D1297802297FD84A4801228F
:10138000401CFEF76DFE8DE0022977D1288870821F
:1013900088E0012972D1287801286FD8B07081E0E7
:1013A00001296BD12878042868D8F0707AE00129E7
:1013B00064D12878012861D8307173E010295DD19B
:1013C000102229463948FEF733FE6BE0012955D13A
:1013D0002878012852D8707164E001294ED128780C
:1013E000F0725FE0042949D131492868884245D824
:1013F000B06157E0002941D100F08CFC002801D0F9
:10140000F7734FE002F0CEFE19E0072936D106222D
:10141000691C6846FEF742FE287800226946FFF7FD
:1014200001FF05460A280ED200F074FC002803D004
:101430001E489C30475535E0284602F0BFFE50203C
:1014400006F002FD23E002242CE0012916D12878C1
:10145000012813D8707225E010E001290ED12878F8
:1014600009280BD8B0721DE0012907D12878C11FC7
:10147000092903D8307315E0012901D0182411E09F
:10148000B07B2978B17300280CD101290AD102F070
:1014900045FF07E02728D6D20229D4D1298800F0B9
:1014A00063FD04462046FEBD245BFF1FB471FF1F91
:1014B0003F420F00F8B50F461349152516468842DE
:1014C0000DD1002432463946204602F081FF002823
:1014D00000D00025641CE4B20A2CF3D312E006F01D
:1014E000C1F900280DD08379C11D00221846FFF7ED
:1014F00099FE0A2806D23246394602F069FF0025D5
:1015000000E014252846F8BDFFFF000070B50C462A
:101510000146032000020A1A002534481300FEF792
:1015200099FD1D1012151C1F2326282C303234382B
:101530003A3C3E40424446484A4E50525A5456580D
:101540005A00C07911E01022294902E028491022EE
:1015500010312046FEF76CFD45E0C06A206042E095
:10156000224906223C31F4E7007820703BE0808974
:1015700036E01E4942784231EBE71D4982781F3937
:10158000E7E7007AF1E7407AEFE7184906223031C1
:10159000DFE7807AE9E7C07AE7E7C08920E0808A60
:1015A0001EE0C0781CE0C08A1AE0008B18E0408B77
:1015B00016E0808B14E00D4906223631C9E7C08B56
:1015C0000EE0008C0CE0408C0AE08079CDE7008AC8
:1015D00006E0408A04E0272904D2084600F01EFBFA
:1015E000208000E00225284670BD0000D05BFF1F70
:1015F0008F72FF1F70B50E4C00256071A571691EBA
:10160000E18100F05FFC0420E07110220021094814
:10161000FEF726FD0748102200211030FEF720FDBE
:10162000E562257265720720A072E57270BD000048
:10163000D05BFF1F8F72FF1FFEB53B4D0C460804A9
:101640000CD56879FEF71EFD050004D003F0B0FC50
:101650002846FEF71DFD0120C00360E0600403D5AD
:10166000012080034840FEBD2F48E1070126807914
:1016700000292AD02978002920D0052821D0297ACC
:1016800068460170697A4170274906223031801C12
:10169000FEF7CEFCA97A68460172E97A4172694682
:1016A000687900F0D7FA002808D00720A871696A85
:1016B000002903D00968002900D0884720467040DF
:1016C000FEBD032069460870E4E7A1070DD5052893
:1016D00009D1E889FEF7E8FCAA8A002A03D0022192
:1016E0006879FEF7E7FC022019E0600704D50020C6
:1016F00003F0B6FC042012E0200712D52879012857
:1017000002D002280AD107E00096AB8B6A8B298BA6
:10171000E88A00F00BF801E000F05AF90820604078
:10172000FEBD0020FEBD0000D05BFF1FF8B5134CCE
:10173000069EA579052D01D01420F8BD104F851FF8
:10174000BD4219D2062917D3BD1DA94214D2FF27C5
:10175000F537BA4210D20A2B0ED3AB420CD2E0823C
:1017600021836283A383304603F07AFC04216079ED
:10177000FEF7A6FC0020F8BD1820F8BDD05BFF1FC7
:101780007A0C0000F7B50D468049009816464218BD
:101790007F4F00247879B9791300FEF75BFC190EAE
:1017A000141BE92040455970777E888FE996A2A9DD
:1017B000B4BFC8E9E9E9E9D3E900102D76D11022D8
:1017C000314674486FE0102D70D1724810223146B6
:1017D000103068E0042D69D13068F862CEE0012D48
:1017E00064D13B7832783A70002B0AD0002A07D1B6
:1017F000022903D0062901D0042901D100F0E4F91F
:10180000BCE0002A0AD0012905D0032903D005290C
:1018100001D0042902D10121FEF758FCAEE0022DCF
:1018200044D13088B881A9E01F2D3FD858481F22E5
:1018300000214230FEF714FC55482A46314642301A
:10184000FEF7F6FB524B7D7042332A46012112E02F
:101850001F2D7CD84F481F2200211F38FEF700FCA7
:101860004C482A4631461F38FEF7E2FB494B2A46D0
:101870001F3BBD700021787900F0FCFB83E0012D57
:1018800065D13078042862D8387277E0012D5ED1B6
:10189000307803285BD8787270E0062D57D13C4829
:1018A000062231463030FEF7C3FB67E04FE0012DE2
:1018B0004DD1307807284AD8B8725FE0012D46D163
:1018C0003078032843D8F87258E0022D3FD132888F
:1018D000BA82002A52D0052950D10221FEF7EAFB34
:1018E0004CE0012D33D13078012830D8F87045E034
:1018F0003088022D2BD1062829D31921C90188420D
:1019000025D8F8823AE03088022D20D106281ED34F
:101910001921C90188421AD838832FE03088022D56
:1019200015D1FF21F531884211D2788326E0308825
:10193000022D0CD10A280AD31921C901884206D8E0
:10194000B8831BE03178012D01D1012901D0182481
:1019500014E00821FEF7C0FB002801D016240DE09A
:10196000002003F07DFB04217879FEF7A9FB05E058
:101970000098272801D2022D02D002242046FEBD65
:10198000318800F0F1FA0446F8E70000FFFCFFFFA1
:10199000D05BFF1F8F72FF1F1CB50B4CA179002974
:1019A00001D011201CBD002800D060620649074804
:1019B0002C31034601910090103B0022E1796079BF
:1019C00000F0BCF800201CBDD05BFF1F9F72FF1F02
:1019D00010B506488179052901D0122010BDC189B2
:1019E0001322407900F006FB10BD0000D05BFF1F02
:1019F000F8B504462C480F460078022805D0012887
:101A000003D0082803D1002F01D01220F8BD002CEC
:101A100007D02088254D81006958002903D0112066
:101A2000F8BD0220F8BD05F01DFF060036D02C20C1
:101A3000FEF758FB218889006850002830D02C22FE
:101A40000021FEF70DFB20881C2281006958488088
:101A50002088211D80002858001DFEF7E9FA218802
:101A60000220890069580870228890002B587079EC
:101A70001B1D002816D000200D49097801F05CFEDE
:101A80000546002F03D03946304606F087FF002D6B
:101A900002D0208802F0C6FD2846F8BD1420F8BD0B
:101AA0001320F8BD0120E7E76B62FF1FD462FF1F20
:101AB000F962FF1FFFB5204D81B028781E461746FA
:101AC000022823D0012821D0002F22D0019805F030
:101AD000C9FE04001FD0606A002801D0FEF708FB91
:101AE0001C213846FEF70AFB6062011E15D02878DB
:101AF000000714D5002E12D0887E00900B461233BA
:101B00000A8A019807F014FA014609E0122005B08C
:101B1000F0BD0220FBE71420F9E71320F7E70021CE
:101B20002079042210432071029A002A02D0022256
:101B3000104320710846EAE76B62FF1FFFB581B0D2
:101B40001E460D4602240B9F0B00FEF783FA0D1A6A
:101B50000B1A1A0B1A1A1A1A1A1A1A081A000AA0B9
:101B600001F094FF2946019800F0D8F8040008D14C
:101B70003A4630460A9900F0AFF900F00FF901F04B
:101B8000CBFD204605B0F0BD4741505F4465766906
:101B90006365496E69743A204741505F50524F4621
:101BA000494C455F43454E5452414C207C204741AF
:101BB000505F50524F46494C455F5045524950483E
:101BC0004552414C200A000070B5104C2168002994
:101BD00004D00978814203D0032070BD122070BD6B
:101BE0000B4D02212878FEF76BFA0A480026468042
:101BF00004212878FEF764FA07480680216803204C
:101C000048700020FEF780FA70BD0000C862FF1F18
:101C1000F962FF1FDC62FF1F6E62FF1F272803D2DD
:101C200002494000085A7047014870477662FF1F1A
:101C3000FFFF000010B5064C607005F043FE6078B1
:101C4000FEF768FA0521607801F0F8FB10BD00008E
:101C5000F862FF1F70B5284E054630680C46002814
:101C600001D0112070BD254801780520014216D011
:101C700023488068002805D00078002802D0C807D3
:101C800006D101E0102070BD00F044F8002808D013
:101C90002078032805D0022803D0002801D0122084
:101CA00070BD0C20FEF71EFA3060002820D00570B1
:101CB000002141700A222146801CFEF7B9F903F089
:101CC000B3FA040002D002F0A1FC12E00D48007843
:101CD00003280ED11D20FFF7A1FF0B490028088023
:101CE00007D00B48094A04210078FEF719FA00E0F2
:101CF0001324204670BD0000C862FF1F6B62FF1FE7
:101D0000DC62FF1F6C62FF1F6E62FF1F60EA000053
:101D1000F962FF1F10B505F0F3FD10BD70B50C465C
:101D200005461C2200210948FEF79AF9084805706B
:101D30004470FEF7FBF90549002803D00020087025
:101D4000122070BD01220A7070BD0000EC77FF1FE9
:101D50006A62FF1F7FB504460D46084605F082FD06
:101D6000002805D00C48844204D9022004B070BD7C
:101D70001220FBE7102200216846FEF771F9684641
:101D80000470210A4170210C8170210EC170294616
:101D900001F034FCEAE700003F420F0070B50F4C41
:101DA0000025A068002802D0FEF7A2F9A560E0682F
:101DB000002802D0FEF79CF9E5600948052100786B
:101DC000084206D00548103002F0F2FF02F034F865
:101DD00070BD002002F0ECFF002070BDDC62FF1F30
:101DE0006B62FF1FFEB5344D0C46080419D56878A8
:101DF000FEF748F90121C9034C40064600280ED0E1
:101E000002F0F6FE002807D12878FF2804D03146DA
:101E1000FEF792F9002802D03046FEF739F9204645
:101E2000FEBDE007012700280AD0A868002804D0DA
:101E30004168002901D00020884720467840FEBD37
:101E4000A00709D56868002804D04168002901D09E
:101E50000120884702202AE060072AD5174E3088E3
:101E600000281FD0401E0004000C30801ED102F05C
:101E70003FFC002809D0124807706868002804D089
:101E80004168002901D00120884702F00BFC694617
:101E900001F032FB684602F095FE1D20FFF7BEFE02
:101EA000308003E004216878FEF70AF904206040DE
:101EB000FEBD0020FEBD0000F862FF1F6E62FF1F26
:101EC0006D62FF1F0149087070470000F862FF1F34
:101ED00010B501F0FBFB10BD70B50E4C0B46261D76
:101EE00007C60546102200211846FEF7BFF8012854
:101EF00003D11021A06806F0BDFB10220021284666
:101F0000FEF7B4F8012803D11021606806F0B2FB97
:101F100070BD0000EC77FF1F38B505460F480C4632
:101F20000078400701D4122038BD284605F09AFCFD
:101F3000002811D00A48A9004058002801D0817D0E
:101F400000E02146684607F049F8064B6A46022140
:101F5000284606F0A9FF38BD142038BD6B62FF1F6C
:101F6000D462FF1FE9940211272807D2044A914244
:101F700004D0044A400011520020704702207047EC
:101F8000FFFF00007662FF1F70B50E461049154630
:101F90000978022916D0012914D0002D14D005F09B
:101FA00061FC040012D0002E03D0207902210843E6
:101FB000207110222946A018FEF73AF828692062FD
:101FC000002070BD122070BD022070BD142070BDB5
:101FD0006B62FF1F38B50C46054605F043FC002830
:101FE00006D0684604706946284606F04BFF38BDA7
:101FF000142038BDF8B50D4617461D4906461B4A44
:102000001224C868954208D100282DD00268002A01
:102010002AD029463046904723E0144A521C954264
:1020200013D1002807D00268002A04D02946304680
:102030009047040005D03946304601F03FFD0400CA
:1020400012D10B48067047700EE0284605F00AFCD6
:10205000002809D00078B04205D139462846FEF75D
:1020600071F8044600E003242046F8BDFEFF00009E
:10207000CC62FF1FF8B50E46014619481546007898
:1020800005221F46104028D0304326D01548012E87
:102090001BD0C468002C20D01F2D18D8002D01D0D3
:1020A000002F14D001701F220021601CFDF7D8FF03
:1020B0002A463946601CFDF7BBFF28462570002ED6
:1020C00007D0611CFEF744F8F8BD8468E2E70220FF
:1020D000F8BD611CFEF742F8F8BD1220F8BD000003
:1020E0006B62FF1FDC62FF1F014610B50020C907AD
:1020F00004D0034A0421034800F0ACF910BD0000ED
:10210000549B0211545CFF1F70B50F4D0F4CA8700B
:1021100029461831204600F01DF8002128460B46BC
:102120001030CA0084521218491C09065360090E67
:10213000F7D0012003F058FFA87800F071FB0448A5
:1021400005F006FC70BD0000345CFF1FFFFF0000BF
:102150002158021170B50A4C0025A04209D1002077
:1021600082008C525218401CC0B295700228F7D3DE
:1021700070BD03F024FB0028FAD00480857070BD88
:10218000FFFF0000F8B50E460746069900240798A1
:10219000002902D00B242046F8BD022B01D00D24CB
:1021A000F9E711785278120289188DB229468143D5
:1021B00001D08024EFE73846F16800F03DF9A842ED
:1021C000E9D02A463846F16800F0CCF90400E2D1A3
:1021D00071892A46384600F06BF9DCE770B50C4689
:1021E000080412D50A488078FDF74CFF050008D096
:1021F0002878B02802D1284603F0FEFB2846FDF7D8
:1022000047FF0120C003604070BD002070BD00008A
:10221000345CFF1FFFB587B0087A0025109E1C466E
:102220000F46C0060DD5099803F0C2FA030006D088
:102230000A22394607989847050035D101E00E2556
:1022400032E0387802281DD1786829220178407858
:1022500012020002081880B2811A90427ED009DC76
:102260007249401A23D0012821D0022851D00328D6
:1022700008D125E0012972D0022971D003296DD03F
:1022800004296ED0099803F0BBFA0028D7D005685E
:10229000002DD4D012991198019100903346224616
:1022A00039460798A847054628460BB0F0BD119857
:1022B000002873D1F868017831800278416897E08E
:1022C000119800286AD101203080F8680021007838
:1022D00020707889401C80B200F072F900280FD07D
:1022E000318802788918891C3180817A617041892E
:1022F000090AA17002784168E01CFDF799FED3E756
:1023000030880422001D30800021601CFDF7A8FEEB
:10231000CAE71198002872D1F86804A900880090D3
:1023200004203080009820700098000A60700098A7
:1023300000F046F9070028D0F86805906846028A40
:1023400003AB3B49384600F093F900280FD13B78A6
:10235000022138487A68FEF7ACFA03E027E031E062
:102360001DE049E0002802D131486946888105987E
:10237000007802280CD1059802224168201DFDF743
:1023800057FE3088801C308002E0694600988881C2
:1023900068468089A070000AE07085E72FE01198F8
:1023A00000282CD1F968079800F046F804E011984D
:1023B000002824D1F8680088022131802070000AAA
:1023C000607071E7F868FDF7CFFE1199C0B28142E5
:1023D00010D8814201D1002206E0129A8918814268
:1023E00002D31199401AC2B23280F96811980918C3
:1023F000204682E7072557E71198002801D00B25D2
:1024000052E70721F86831800178217041786170C6
:102410008178A1704188090AE1700179217181797F
:102420006171C088000AA0713EE70000002800002A
:10243000FFFF00005E9D021110B503F0C0F90028F7
:1024400000D0807810BD000001490870704700007E
:10245000345CFF1F7CB51446050019D06846019511
:10246000018000F0E3F903001DD1002C1BD06D8921
:10247000002D0DD00C20FDF735FE00280AD00023DA
:1024800003608580094A84609168002904D006E0D1
:10249000022308E0132306E0906004E011460A6876
:1024A000002AFBD1086018467CBD0000345CFF1F89
:1024B000F8B50C4C0746207815460E46FF280FD07D
:1024C0000A20FDF757FE01000AD0B1200870002055
:1024D000487008714F80CE800D812078FDF72CFE6A
:1024E000F8BD0000345CFF1F70B50C460546064978
:1024F000FFF7A2FF800704D52146284600F0EAF93D
:1025000070BD012070BD00004C5CFF1F1CB56B4608
:102510001A71120A5A7100220092022301AA00F0D5
:1025200001F81CBDFFB583B008461F4601A90C9EEB
:1025300000F046F8050012D06846808803F060F984
:1025400000280AD04468002C07D000963B46294654
:10255000059A0398A04707B0F0BD0E20FBE70120C5
:10256000F9E7000070B514460E46054603F027F95A
:10257000002806D13146054803F021F9002803D090
:1025800005808470002070BD112070BDFFFF000029
:1025900010B50178B0290BD14178002908D1017913
:1025A000122906D01B2903D14088012100F0D0FE5A
:1025B00010BDFF210231095C0129F5D010BD0000DA
:1025C000F0B58C4610494B6819E09F687C89A042A1
:1025D00014D39E883119814210D900220CE01101D8
:1025E0007D186989814205D16046002800D00480A9
:1025F0002846F0BD521C92B29642F0D81B68002BC0
:10260000E3D10020F0BD00000463FF1FFFB51748B1
:1026100081B00A9F446824E000251EE0A0682901DB
:10262000461870890199884215D30299884212D8B8
:102630000498002807D031787068049B039AFEF74D
:1026400038F9002807D0002F02D0A06840893880D0
:10265000304605B0F0BD6D1CADB2A088A842DDD8F3
:102660002468002CD8D10020F3E700000463FF1F8A
:10267000FEB5174600256A469580044640891D4AE6
:102680001E46904208D001AA0092401C237880B2D6
:102690006268FFF7BBFF054623780221164862688F
:1026A000FEF707F9002807D1237802211348626852
:1026B000FEF7FFF8002801D060890EE023780221A0
:1026C0000F486268FEF7F5F800280DD0002D03D002
:1026D00068468088B84203D0384603F099FD04E08C
:1026E0006889401E80B200E06089002E00D03080F2
:1026F0002846FEBDFFFF00005C9D02115E9D021199
:10270000629D0211FFB581B00F461E461446694610
:10271000019802F09BFE050018D1002C06D0012282
:102720001021019805F078F805000FD1394601987D
:10273000FEF754F9050009D1009CFF2E06D0214672
:102740001E22A31C034803F06FFDE670284605B067
:10275000F0BD00001561021110B505490870042193
:1027600000F06CFE00F006F8FEF74CF910BD00001A
:102770001463FF1F70B50E4C00200C4B651CFF222C
:102780008100C91800280ED00D80401CCA70C0B24C
:102790008A700228F4D3074802F0FCFF064805F0CF
:1027A000D7F8002070BD0C80EFE700000C63FF1F1E
:1027B000FEFF00004161021195600211F8B50D465F
:1027C00014460646694602F041FE17280CD0002C3C
:1027D00006D001221021304605F01EF8002803D152
:1027E00029463046FEF704F9F8BD000070B50C46E6
:1027F000080411D509480078FDF744FC050007D00E
:102800000178A02901D102F069FF2846FDF740FCBC
:102810000120C003604070BD002070BD1463FF1F25
:1028200001490870704700000463FF1F70B505463A
:10283000008800281DD06868022103784268224879
:10284000FEF737F8002808D168680221037842684B
:102850001E48FEF72EF800280BD01D4C608800287B
:1028600005D0012229881204101A814203D90120BF
:1028700070BD022070BD0C20FDF734FC060001D0B5
:1028800000200AE0132070BD02016B6861880A32E3
:102890009952491C401C618080B229888142F3D83A
:1028A0000020306008222946301DFDF7C1FB60681A
:1028B000002802D1666004E0084601680029FBD1C7
:1028C0000660002070BD00005C9D02115E9D02113B
:1028D0000463FF1F70B5BEB00D46064600240223F8
:1028E0000E4A0F4901200094FFF790FE002812D0F5
:1028F00040896A4610800420508001201071547174
:10290000FF209071D0712B46002269463046FFF7B8
:10291000F9FE3EB070BD0120FBE700007A9D021178
:10292000FFFF00000649496806E08A685289824232
:1029300001D18888704709680029F6D100207047C6
:102940000463FF1F10B51422114201D0012202E0DE
:102950004A0604D50022102104F05EFF10BDC8070E
:1029600001D0002010BD022010BD10B514468A060B
:1029700004D50122102104F04FFF10BD882211421E
:102980000ED008220A40102104F046FF00280BD088
:10299000E034617E0029F0D0217E0129EDD103E0F1
:1029A000880701D4032010BD002010BD014610B5DA
:1029B0000020C90704D0034A07210348FFF74AFD56
:1029C00010BD0000409B02115C5BFF1F70B50D46FF
:1029D000164600241D490300FDF73CFB0805123490
:1029E000341934222934152D23D8162200211848F1
:1029F000FDF736FB2A4631461548FDF719FB22E064
:102A0000022D16D111491088103908801BE0082DBD
:102A10000FD10E48082231460838FDF7B1FB12E00D
:102A2000012D06D1CA6909493078283107E0012D06
:102A300001D0182407E0CA6B04493078483103F00C
:102A4000B4FC00E00224204670BD00005C5BFF1F68
:102A50005A72FF1F38B5114C6946E07101200870A9
:102A600001466A460E48FEF76FFC0025ED432846F6
:102A7000FFF79CFF2846FFF737FBFDF787FBFEF7C4
:102A800049F900F015FF0020FEF7A4F9054800F011
:102A900021FF0121E079FDF719FB38BD545EFF1FCE
:102AA0000D040000412F02117CB50C46414942A0A3
:102AB00000F0ECFF414D200409D5E879FDF7E2FA7A
:102AC000002801D0FDF7E4FA0120C0036EE0E00722
:102AD000012600280DD039481830FEF75DFF354833
:102AE0000838FEF78FFB36A000F0D0FF204670407C
:102AF0007CBD60070ED52878052809D1A878002864
:102B000003D004F0B9F933A000E038A000F0BEFF14
:102B100004204BE0A0070BD52878052806D1FEF746
:102B200049F93B4A0221E879FDF7C4FA02203DE069
:102B3000200724D5697808202646464000291AD067
:102B400034A000F0A3FF6879A97988420FD00B2147
:102B5000401CFDF791FA69710B20414332480B1874
:102B600005D09A7859781878DB1C04F023F9687935
:102B7000A979884201D130467CBD20467CBDE00663
:102B800016D5684606700671287805280DD13120C3
:102B900001AA01210001FEF7F5FD6A460121234843
:102BA000FEF7F0FD22A000F071FF102060407CBD18
:102BB00000207CBDAC9B021125730A00545EFF1FF0
:102BC0007374617274204465766963652045565458
:102BD0000A0D000068696444657653746172744933
:102BE000646C6554696D6572200A0D0068696444FF
:102BF0006576537461727449646C6554696D65726D
:102C000020646973636F6E6E656374200A0D000043
:102C1000983A000053656E642048696420526570DC
:102C20006F72740A0D000000F876FF1F1903000090
:102C30006465766963652075706461746120636F93
:102C40006E6E656374656420706172616D656E742B
:102C500000000000FEB51D464B6817461C785B78E7
:102C6000089A1B02E3189CB200260998314B002AEF
:102C700004D09B1E9C4227D00B20FEBD9C420AD054
:102C80002C4B2B3B9C4206D02A4B1B3B9C4202D038
:102C90005B1C9C4214D1488904F072F800280CD0C7
:102CA00001970095244A417912690079156801233A
:102CB0002246A847060038D039E00020288034E0BA
:102CC0001C4B9B1E9C420FD11C4B1B889A4201D36C
:102CD00007262CE09B1A834200DC184680B228802D
:102CE000C968891802461DE01248C01E844204D1FA
:102CF00004202880C968024614E0114A0220944248
:102D00000DD00C4A521C944205D101202880C8687D
:102D10000078387009E00A4A521E944205D1288092
:102D2000C96802223846FDF783F904F0A5F8304659
:102D3000FEBD00004D2A0000545EFF1F745EFF1FA1
:102D400008290000014A116150617047545EFF1F5D
:102D5000014AD16010727047545EFF1FF8B50746F4
:102D600022480E4601781C461546052925D0022921
:102D700034D003F027FE00282ED020210620FFF7B4
:102D8000F3F830210720FFF7EFF805210120FFF7C6
:102D9000EBF80321684601706A4601211448FEF7EA
:102DA000F1FC01216846017011486A460838FEF7B7
:102DB000E9FC10A000F06AFE10E0417800290DD077
:102DC00041798079814209D13146384603F0F2FFDA
:102DD0000BA000F05BFEF8BD03F010FF23462A466F
:102DE0003146384603F05AFEF8BD0000545EFF1F1E
:102DF0000D03000068696768206164760A0D0000B1
:102E000073656E64206B657920616374696F6E0A07
:102E10000D000000FFB583B00C9B002415460F4643
:102E20008446002B02D00B2007B0F0BD78680178F3
:102E300040780002081886B23E48864203D03D48DA
:102E40001B38864212D1788903F09AFF00286AD095
:102E500006A901950091384A4179126900791468F0
:102E600000233246A04704005DD05EE03248314A7C
:102E700001696846521E008B96420AD1012841D151
:102E80002878002801D0012843D1002849D001200A
:102E900047E02A4A96422FD1012100930191C3B203
:102EA0002A4639466046FFF76DF904003DD169783E
:102EB000287809024018204982B2C8687B89097ABB
:102EC00015E047889F420FD100282CD006A9019514
:102ED0000091012A0ED00323174A41791269007923
:102EE00015683246A8471EE0491EC9B208300029BD
:102EF000E7D118E00223EFE70E4A521C964212D1A6
:102F0000012801D00D2410E02878002803D00128E2
:102F100001D0802409E0FA6810702878002806D0D3
:102F200003204968884703F0A7FF20467CE702207A
:102F3000F7E700004D2A0000545EFF1F0229000041
:102F400070470000F8B5424C40492046FFF702F9AF
:102F50003E4920460831FFF7FDF83C492046103134
:102F6000FFF7F8F839483B4A25211A30FFF772FA83
:102F7000009036481A30C1690220FDF7DDFE334863
:102F8000354C0B38077827714678FF30667126304C
:102F900041892180408B60802C480125A57109382A
:102FA0000378237342782D49627348892081002079
:102FB0006081A57327756675498F21822749403145
:102FC0004E896682A07523776277498D218360835D
:102FD0002646A0772036214935717571C0314A895E
:102FE00022844A8B6284194AB071D21F13783373DA
:102FF00052787273498F218560852146B5733031CF
:103000000320FDF799FE1148401F01783177407881
:1030100070771248803841892187408B60870B493F
:10302000B577C91E20460A7840300271497841714F
:103030000A4980314A890280498B41808571214645
:103040000920FFF785FE0098F8BD00008E5EFF1F87
:10305000FFFF0000709C02117277FF1FE85FFF1FE7
:1030600070B50C4C049816190B4A0124002E0FD091
:1030700000251B2E03D1022903D0032903D01D8074
:1030800004E0117800E0917801701C80002070BD90
:103090005178F9E7CED5FFFF805EFF1FF0B5554EA2
:1030A00089B07070544955A000F0F0FC06211F2033
:1030B000FEF75AFF01246846047100250581047358
:1030C0000A21018214218182FF210583F531818348
:1030D00001AA21464A48FEF755FB494802AA0221A7
:1030E000401CFEF74FFB4648324622321021801C1E
:1030F000FEF748FB324661200C321621C000FEF775
:1031000041FB312003AA01210001FEF73BFB3C48B3
:1031100004AA02210C30FEF735FB394805AA02212A
:103120000D30FEF72FFB364806AA02210E30FEF7BF
:1031300029FBC52007AA02218000FEF723FBC4213A
:1031400068460170032747706A4602210120FFF795
:103150003DFC294A1521153A0020FFF737FC684647
:1031600001950472057307740475812001AA042176
:10317000C000FEF7E9F8012102AA8802FEF7E4F890
:103180001F4803AA0121FD30FEF7DEF81C4804AAFF
:103190000121FE30FEF7D8F805AA01211948FEF7F3
:1031A000D3F8502421460620FEF7DEFE21460720F4
:1031B000FEF7DAFE21460820FEF7D6FE214609205A
:1031C000FEF7D2FEFFF7BEFE31463431301DFFF769
:1031D000B9FD1720FDF774FD0020FCF7DDFF00208E
:1031E000FCF7E0FF04F000FF01217078FCF76EFFB0
:1031F00009B0F0BDF061FF1FC59C021125730A00E4
:10320000050300000604000070B50C461A491BA017
:1032100000F03CFC1A4E20040CD57078FCF732FF0D
:10322000050004D003F06EFE2846FCF731FF0120B4
:10323000C00302E0E00702D00120604070BDE0055D
:1032400017D500220121104603F0A6FB00221146EB
:10325000104603F0A1FB0B48FF2500780135052837
:1032600004D1094A29467078FCF724FF20466840BB
:1032700070BD002070BD0000D19C021125730A00B2
:10328000F061FF1F545EFF1F8813000030B50F4D23
:1032900000205519039C0E4A13D01B2D04D102297E
:1032A00003D0032908D00A2030BD012B02D1217898
:1032B000117030BD0D2030BD012BFBD121789170F4
:1032C00030BD012BF6D12178517030BDCED5FFFF36
:1032D000805EFF1F0B7803700B8802221B0A43706D
:1032E0000B88801C012B02D0022B07D011E08A78BA
:1032F00002704988090A417004220AE08A78027043
:103300004A88120A42700A7982708988090AC17053
:10331000062210467047000008B5044B0093134680
:103320000A46012104F0C8F908BD0000D532021197
:103330001CB50323019200930A46024B122104F0AC
:10334000EBF91CBDD96F021110B5FCF731FF10BDB0
:1033500013B504480078012803D101AA6946FCF797
:103360002DFF1CBD2063FF1F70B50F490F4A087069
:1033700000210B468C00491CC9B213530429F9D310
:103380000A4C00211034FF260A460A256A43151903
:103390006B80491CA354C9B26E720329F4D3FCF7A5
:1033A00013FF04F05DF970BD2163FF1F0878FF1F54
:1033B000082A01D0012070474B780A781B02D218E6
:1033C0000280CB788A781B02D21842804B790A7926
:1033D0001B02D21882808A79C97909025118C180EA
:1033E0000020704770B50C46080411D509480078D4
:1033F000FCF748FE050007D00178902901D104F0C0
:1034000091F82846FCF744FE0120C003604070BDDF
:10341000002070BD2163FF1F70B500280AD1064C43
:1034200000252580A581A580A068002802D0FCF792
:10343000D1FEA56070BD00008478FF1F072907D06A
:10344000052905D0042903D0062901D002207047A0
:10345000044A8B009A181346403B1986203A907410
:10346000002070470878FF1F70B506001BD10E4C76
:103470000025214640310D744D740D76606D002895
:1034800002D0FCF7A7FE65655C2000254643341991
:10349000E80020184068002801D0FCF79BFE6D1C56
:1034A000EDB20A2DF4D370BD9478FF1F70B50A8871
:1034B0000C460546072A07D0052A05D0042A03D062
:1034C000062A01D0022070BD012104F06FFA002805
:1034D00004D02146284603F095FD70BD142070BD30
:1034E00010B5001D80B2FCF77BFE002803D003213D
:1034F000C943FCF77BFE10BD38B50C46050014D05F
:10350000002C12D00321684605F0B4F8694688788B
:1035100040218006800E084369468870224628466E
:1035200005F01CFE050002D006E0022038BD032293
:103530006946E01CFCF77CFD284638BDF7B58EB027
:103540000E9815460E4600282DD0002D2BD0301D8C
:10355000C0B20190FCF7C6FD040039D001F0AEF80E
:1035600007463246201D0E99FCF798FDF8B20890E8
:10357000E0703804000E0B90A0703802000E0A9024
:1035800060703F0E277001F093F80146102202A8E8
:10359000FCF784FD06AB214602A8019A05F034FD34
:1035A000060003D010E0022011B0F0BD089828708A
:1035B0000B9868700A98A870EF70082206A9281D59
:1035C000FCF76CFD01F080F82046FCF791FD00E06F
:1035D00013263046E8E7000010B5064C2070FCF7D3
:1035E0000BFE06212078FFF729FF034804F0B0F90D
:1035F00010BD00003063FF1FC9860211F8B50E46EA
:103600001F4C0146B50060590027002807D024222E
:10361000125C022A05D0032A03D0042A01D012200A
:10362000F8BDC288B24201D00220F8BD10220C3091
:10363000FCF7FEFC60591021353005F01BF861598C
:1036400030460B460A46253335320C3105F0A8FDCD
:10365000605902210278002A427807D0032A0BD150
:103660004170304604F0D0FF074605E0042A02D03E
:10367000032A03D000E041703846F8BD0521EFE78A
:103680003C63FF1F70B50C46080419D50D4800783F
:10369000FCF7F8FC05000FD005F036F9002808D13A
:1036A00009480078FF2804D02946FCF745FD00288A
:1036B00002D02846FCF7ECFC0120C003604070BD3E
:1036C000002070BD3063FF1FF862FF1F7CB50C4601
:1036D00005001DD0002C1BD00322E11C6846FCF71E
:1036E000A7FC6946887840218006800E0843694619
:1036F000887001AA284605F031FD002807D1032271
:10370000214601A8FCF7A0FC012803D001207CBDC4
:1037100002207CBD00207CBD10B505480078400724
:1037200001D5044800E0002005F0A2F9002010BDFA
:103730006B62FF1F2463FF1FFFB581B00020274C81
:103740009500009060591E461746002802D01120AF
:1037500005B0F0BD002E0BD02120FEF75FFA317EC0
:10376000884205D82220FEF759FA317E884201D2DC
:103770000220EDE77820FCF7B5FC605100282AD044
:1037800078220021FCF76CFC6159002048706259D6
:10379000019911706259029991706259FF21D1709B
:1037A0006159CF8061598E60615908626159203139
:1037B00008710198002803D0384604F03BFF0090C0
:1037C0006159012048700098002802D0384604F062
:1037D000EDFE0098BCE71320BAE700003C63FF1F32
:1037E000FFB58DB00F98169C0E46002815D0002C02
:1037F00013D00D9804F036F8050011D061782078C8
:1038000009024018A178E2780904120689184718BD
:10381000286AB84206D3401C04D0022011B0F0BD83
:103820001420FBE7002E04D02879800701D4012062
:10383000F4E70822002106A8FCF712FC1098001DEE
:10384000C0B20190FCF74EFC060017D0301D109A54
:103850000F99FCF723FC042221463046FCF71EFC9E
:103860001022A91802A8FCF719FC06AB314602A8E1
:10387000019A05F0C9FB050002D013E01320CDE743
:10388000082206A908A8FCF709FC0822211D08A89F
:10389000FCF7DAFB012801D0012503E039460D9839
:1038A00001F01CFD3046FCF723FC2846B6E700007B
:1038B00010B505490548FEF74DFC0348044A0621AA
:1038C0000830FEF7C7FD10BD2061FF1FFFFF00009D
:1038D0008C9C021101490860704700001861FF1FAD
:1038E0000A4610B501460020FCF78CFC10BD000014
:1038F000FFB583B00F4603981B4940001646085A8F
:10390000FFF7EEFD04002AD00125601C2670002F71
:1039100003D00699B847401C85B2300610D5102157
:10392000039804F043F8002801D0192613E0621927
:10393000E9B22046FFF702FE06000CD10C35ADB20D
:103940000421684601800194058169460398FFF7C8
:10395000ADFD060004D02046FCF73CFC00E0132639
:10396000304607B0F0BD00006462FF1F10B504468A
:103970000079BEB0C00716D060880C49FEF75CFD28
:10398000C00710D0094800220830418D68460180E8
:103990000121418005480838017868460171608836
:1039A0006946FEF70BFF3EB010BD00009461FF1F9B
:1039B00070B5049800241546002801D00B2070BD76
:1039C000486802784078000210180E4A80B290428F
:1039D0000AD10D495F200A785F2A00D908700120BA
:1039E0001880087828700BE0084A904207D102201E
:1039F00018800246C9682846FCF71AFB00E00A2432
:103A0000204670BD192A00008C61FF1F08290000A4
:103A10007CB515464A68069C167852781202B21890
:103A2000104E92B2F24209D101220192DBB200940F
:103A30002A46FEF7A7FB040003D000E00A24204634
:103A40007CBD6978287809024018074980B2496826
:103A50000029F4D0002802D001208847EFE7022097
:103A6000FBE70000FED6FFFF8C61FF1F01680A051F
:103A700008D11031044A016052781203914201D3F7
:103A8000891A016070470000005BFF1F0FB410B57A
:103A900003AA0448029903F0D9FF10BC08BC04B083
:103AA00018470000E138021138B5034B00240FCB52
:103AB0000094FCF7ADFB38BD289B021110B50C46F5
:103AC00003F0E4FE002804D040882146FCF73AFBCE
:103AD00010BD122010BD0000F0B5504E504C9BB0F0
:103AE0007168216071782171FF21A1711021002579
:103AF00061712F460922FF21E01DFCF7B1FA4E2229
:103B0000002106A8FCF7ACFA32E02068290340182F
:103B1000102202A900F040F902982168884218D1C9
:103B20006846007B2179884213D16846407B6179E1
:103B300088420ED168467178807B491E884225DA1A
:103B4000A84201D1022700E0032706A94855A07129
:103B50000CE00298401C19D16846007BFF2815D163
:103B60006846407BFF2811D106A948556D1CEDB26F
:103B70002179A942C9D8042F08D0A0790125FF28AE
:103B800007D0012F05D0002006AA24E020201BB07A
:103B9000F0BD00270DE0A771216838030818102236
:103BA0001F4900F00FF9002801D01F20EFE77F1C0C
:103BB000FFB22079401EB842EDDC0020207420794D
:103BC000401E607410206082357025E0135C002B6D
:103BD00003D0401CC0B28142F8D881421CD9401E9B
:103BE0000818FCF71BFB617400203570024669461B
:103BF000009000F017F8002802D0212802D004E03D
:103C0000009901E0012109036182C0B2212803D09B
:103C1000002801D02A20BAE70020B8E7005BFF1F88
:103C2000A071FF1FF7B501248AB000200E46274679
:103C300005909CE056480179407CC019FCF71CFABD
:103C4000C8B2FF2C03D3FF3CA4B2FF2C33D20A9A94
:103C5000002A01D14E4A11740003029005980125F3
:103C6000002803D000200590601C06E0012C05D937
:103C70002819811EFF2917DA401E85B202982901F2
:103C8000081807904248042201680798081804A9F8
:103C900000F082F80A9800280ED0012829D00228C6
:103CA0003CD006200DB0F0BDFF200230401B201A92
:103CB00084B20120059058E004988103890F04D054
:103CC000022902D003294CD10EE00103890F0129FA
:103CD00001D0012445E0000D0C21FCF7CDF90029AD
:103CE00000D0012144183CE007980005000D306029
:103CF00047E0049881038A0F04D0022A05D0032AE2
:103D00002FD142E0890F0229DFD1328881B292B2ED
:103D10009142DAD10C990798086032E00498810347
:103D2000890F04D00229D0D003291AD129E0010338
:103D3000890F012903D0306801240C300BE0000DFD
:103D40000C21FCF799F9002900D0012144180C201E
:103D500031686043081830600C980C990068401C6A
:103D600008606D1CADB2FF2D80D97F1CFFB20948E1
:103D70004078874200D25DE70A98002803D00128E6
:103D800003D000208EE721208CE725208AE7000061
:103D9000A071FF1F005BFF1F10B5094C63689842BC
:103DA0000BD364782403E318834206D9002904D096
:103DB000002A02D0FCF738FA10BD222010BD000006
:103DC000005BFF1F70B515460E460446FCF732FA3D
:103DD000800601D0292070BD09494868844206D375
:103DE000497809030818A04201D9A00701D0222070
:103DF00070BD2A4631462046FCF722FA70BD00000D
:103E0000005BFF1F0022002913D0002811D00128D9
:103E100006D04A799206920E4A71032805D007E02F
:103E20004879C0221043487102E0402002434A71A1
:103E3000012210467047000070B512480025007836
:103E4000052108421BD02020FCF74CF90E4C00281D
:103E5000A06013D020220021FCF702F92020FCF7FB
:103E600041F9E060002804D020220021FCF7F8F896
:103E700005E0A068FCF73CF90020A0601325284667
:103E800070BD00006B62FF1FDC62FF1FF3B5888806
:103E90000D4681005A485A4C40585A4F203C85B034
:103EA000002823D1059800287ED0002D7CD000F07A
:103EB000E5F920740A281CD300260E207043C0198F
:103EC0000622FF21FCF7D2F8002804D1761CF6B2B6
:103ED0000A2EF2D30A2626740A2E07D1607B0A2105
:103EE0000646FCF7C9F82174761C6673207C0A2804
:103EF00061D2A888424E8000305800285ED0826887
:103F00000027002A0BD0207C062148432130C0B274
:103F10001C2103F0C7FFA888800030588760A8885C
:103F2000800030580269002A0BD0207C06214843CB
:103F30002230C0B21C2103F0B5FFA88880003058A1
:103F40000761A888800030584269002A0BD0207C85
:103F5000062148432330C0B2102103F0A3FFA888F4
:103F6000800030584761A88880003058C268002A15
:103F700018D0207C062148432430C0B2102103F021
:103F800091FFA888062180003058C268207C10323A
:103F900048432530C0B2042103F084FFA888800084
:103FA0003058C760A07B00E005E0002801D000F099
:103FB000A5FA00F0E7FA012007B0F0BD207C062149
:103FC00048432030C0B20E21059A03F06BFF102247
:103FD000FF216846FCF744F8207C6A467030C0B286
:103FE000102103F05FFF207C0E2148430A46C019D0
:103FF0000599FCF71DF8A888800035500020DBE704
:10400000445BFF1FC471FF1FF0B589B017460E4611
:104010000446202200216846FCF722F86846048006
:10402000394C0225E178017122794271217B0177B7
:1040300006984108E07A4900C307DB0F194306914F
:1040400081070029069901DA294300E0A943069176
:1040500001072E4B069901D5194300E099430691BB
:10406000C1062B4B069901D5194300E099430691EF
:104070008106284B069901D5194300E09943069122
:10408000400704210028069801DA084300E088432D
:104090000690002A05D001A810221F490230FBF724
:1040A000C7FF6179002904D0002E02D0069828436A
:1040B00006906846807D002900D0012108436946AA
:1040C0008875A178002900D00421084369468875C5
:1040D000A179002900D00821084369468875E17953
:1040E000002900D01021084369468875217A0029EB
:1040F00000D0202108436946887539466846FDF797
:1041000077FC09B0F0BD0000245BFF1F0001000038
:104110000002000000040000B471FF1F70B500250C
:10412000094E2C460E20604380190622FF21FBF722
:104130009DFF002801D16D1CEDB2641CE4B20A2C75
:10414000F0D3284670BD0000C471FF1F7FB50C4638
:1041500006214843064615462036F0B26A460E212F
:1041600003F074FE002806D10622FF216846FBF703
:104170007DFF002802D0002004B070BD6846818910
:10418000002DC8B202D02043C0B200E0A04381425B
:1041900006D069468881F0B26A460E2103F082FE9D
:1041A0000120E9E710B50024204600F007F8641C60
:1041B000E4B20A2C01D20028F6D010BD70B5054635
:1041C000044606204443264690B02036F0B207AAA3
:1041D0000E2103F03BFE002806D10622FF2107A88E
:1041E000FBF744FF002802D0002010B070BD0E2263
:1041F000FF2107A8FBF734FF1C22FF216846FBF7CD
:104200002FFF1022FF210BA8FBF72AFFF0B207AA0D
:104210000E2103F047FE064620462130C0B26A4612
:104220001C2103F03FFE064320462230C0B26A46FE
:104230001C2103F037FE064320462330C0B26A46F5
:10424000102103F02FFE064320462430C0B26A46F8
:10425000102103F027FE06432534E0B26A4604210C
:1042600003F020FE014631430C467035E8B20BAA3C
:10427000102103F017FE2043B7E7000070B50A4D88
:10428000064600240E206043401906223146FBF703
:10429000DBFE002801D0204670BD641CE4B20A2C6D
:1042A000F0D30A2070BD0000C471FF1F00229300EC
:1042B000CB5A834202D1900040187047521CD2B2B0
:1042C000042AF4D3002070477FB50C460A280CD28C
:1042D000002C0AD0062148432030C0B26A460E2185
:1042E00003F0B4FD050003D007E0022004B070BD68
:1042F000062269462046FBF79BFE2846F6E700218A
:104300008A00835A491CDB43835212189378C9B23E
:10431000DB4393700429F3D37047000070B5144E4B
:1043200000240E2060438219204606214843203095
:104330001546C0B20E2103F089FD00280BD0284697
:104340000622FF21FBF78CFEA81D0622FF21FBF7AA
:1043500087FE0020A881641CE4B20A2CE1D3054842
:10436000807B002801D000F0C9F800F00BF970BD87
:10437000C471FF1F245BFF1F10B5034940880978F3
:10438000FEF7B2F810BD0000245BFF1F10B50F4907
:104390004A79002A01D0012300E000238A78002A0C
:1043A00000D004221A438B79002B00D0082313433A
:1043B000CA79002A00D01022097A1A43002900D0B5
:1043C00020211143FDF7A8FD10BD0000245BFF1F55
:1043D00070B50E4604460621484388B01546203085
:1043E000C0B204AA0E2103F031FD002843D10622F9
:1043F000FF2104A8FBF73AFE00283CD17034E0B25C
:104400006A46102103F022FD002831D16846FFF7EB
:1044100076FF002E06D069463046FFF747FF00289A
:104420000DD015E0102200216846FBF71FFE002882
:104430001ED1102200216846FBF712FE10E0002D6D
:1044400019D069460020FFF731FF002813D00680FD
:104450008178A9420CD08570002D01D10021018006
:104460006846FFF74CFFE0B26A46102103F01AFDE0
:10447000012008B070BD0020FBE7000070B51C4CA7
:104480000646606A1B4D86B0002809D120461430CC
:1044900000900223184A29460120FEF7B7F820E0D1
:1044A00004A80222002100900292019103ABA28A8B
:1044B0003046616AFDF7AEFE00280CD16846017BEC
:1044C000407B000208180204120C04D0606A418983
:1044D0003046FCF7EFFF0023A28A2946606AFEF708
:1044E000C7F860620028DBD1012006B070BD000073
:1044F000245BFF1FFFFF0000689D021170B5FBF7F2
:10450000A5FE0A4E00240E206043801905460622AF
:10451000FF21FBF7ABFD002802D12946FBF79CFEEB
:10452000641CE4B20A2CEED370BD0000C471FF1FFE
:1045300070B50B46044611461846FFF7A7FC002845
:104540001DD00F4DA40028598088FFF797FF002841
:1045500015D02E46203EF069002807D04368002B76
:1045600004D0285900228088012198472859002822
:1045700003D0FBF78DFD002028510A20307470BD58
:10458000445BFF1F08B5FFF7C9FD012801D90220D0
:1045900000E00A20694608706A4601210520FEF7FE
:1045A00015FA08BD002909D0012807D149798909E0
:1045B0008901C02902D0402901D002207047032080
:1045C0007047FFB500200E4608701AE01C5C401CC6
:1045D000C5B2002C17D02819904214D85F5D6D1C0D
:1045E000EDB2384600F0A3FE002806D0641EE0B20B
:1045F000307000998F4202D1581904B0F0BD4019B3
:10460000C0B29042E2D30020F7E7000010B5044C9E
:104610002068002803D0FBF76BFD0020206010BD50
:10462000C862FF1F70B50E4D84002859002815D0B0
:10463000006A002801D0FBF75BFD2859406A00287A
:1046400001D0FBF755FD2859806A002801D0FBF7FF
:104650004FFD2859FBF74CFD0020285170BD00008C
:10466000D462FF1F10B5044C6068002803D0FBF72C
:104670003FFD0020606010BDCC62FF1F011E04489A
:1046800005D104498978002901D00248801D70476E
:10469000FC77FF1F6A62FF1F0148807870470000A7
:1046A0006A62FF1F0148406870470000EC77FF1FF7
:1046B0000148806870470000EC77FF1F0148C06820
:1046C00000687047EC77FF1F10B50748C0680168A5
:1046D000491C016005480078FF2803D001218903A7
:1046E000FBF7F4FC10BD0000EC77FF1F6A62FF1FB0
:1046F00002484068002800D001207047C462FF1FB4
:10470000FFB581B00F460D9E0A9D039803F0AAF8ED
:10471000040042D0019800283FD12079102108439D
:1047200020710499490702D50221084301E0FD21C7
:10473000084020710B99284608430C9908433043E0
:10474000207902D00421084301E0FB2108402071B8
:10475000002E06D03069102220623146A018FBF7E7
:1047600067FC002D01D0002F05D00B98002814D035
:10477000012F08D011E0606A002801D0FBF7B8FCD7
:104780001C21284606E0606A002801D0FBF7B0FC37
:104790001C210B98FBF7B2FC60620398224C870047
:1047A000E05900283ED0002D0FD0006A002806D125
:1047B0001C20FBF797FCE1590028086205D0E0595E
:1047C0001C22006A2946FBF733FC0C98002810D005
:1047D000E059406A002806D11620FBF783FCE15916
:1047E0000028486205D0E0591622406A0C99FBF770
:1047F0001FFC002E10D0E059806A002806D114203A
:10480000FBF770FCE1590028886205D0E0591422BA
:10481000806A3146FBF70CFC0B9B049A03990198C4
:1048200003F080FD05B0F0BDD462FF1FF3B581B089
:10483000019803F017F8050029D00E20FBF79AFC29
:10484000040024D02620FDF7E9F9060000D12E78D7
:10485000D0202070002767700B20A0700622E91D71
:10486000E01CFBF7E5FB019860810298C10701207D
:10487000002901D0207300E027730299890701D530
:10488000607300E06773F0B22146FBF755FCFEBD94
:1048900010B581881F4B0124CA1A994237D011DC08
:1048A0001D4BCA1A994219D007DC1C4A8A1810D02D
:1048B000022A1ED0032A29D11BE0472A27D0482AE2
:1048C00024D124E01300FBF7C5FB0621222222227B
:1048D00022218068007800F0EBFC08E08068827894
:1048E00041781202891889B2007800F041FD04462F
:1048F0000DE0094A921E914201D1012200E00022FE
:1049000080680178104600F01BFD00E0002420467E
:1049100010BD0000532000000A200000FADFFFFF56
:1049200070B51A4D1A4A0146002628781268194CAB
:1049300001290CD0002A09D017490978490705D563
:104940000221FBF7BDFB6680FFF760FE70BD61884A
:10495000002903D0114B1B78002B05D0002AF5D07D
:104960001078FDF731F970BD3C2902D33C396180E4
:1049700070BD0221FBF7A4FB62887D20C00042438A
:1049800002212878FBF796FB668070BDF962FF1F55
:10499000C862FF1FDC62FF1F6B62FF1F6D62FF1F9B
:1049A00008B5418900910389C2888188C07800F0E8
:1049B000CBFB08BDF0B504468088A121890048439F
:1049C000304987B009684018FF30FF300230A179C4
:1049D0004167002C54D02C4D6868002823D00678FD
:1049E0002A480068002804D04168002901D000202E
:1049F00088472146E07908310591FFF7D3FDE07142
:104A00000246277D638A218AE089019002A88AC034
:104A1000A0880090E0783146059B03F0F9FCE0782F
:104A2000002802D00DE01A48D9E7E079E2896B4608
:104A3000059907C3A379A1880122304602F0C0FE80
:104A4000E0706868002811D0FFF70CFE2878002875
:104A50000CD06978FFF732F8002807D0E078A288F8
:104A60000346297803F028FD00202870A08817212C
:104A7000FCF73CF9A088FEF7CFFCA088FEF7F4FC19
:104A800007B0F0BD3409FF1FCC62FF1FFC62FF1F9F
:104A90006A62FF1F70B504460026808802F0E2FEBD
:104AA000002803D00678A08802F064FF144D28780F
:104AB000002808D0864206D16978FEF7FFFF00285B
:104AC00009D000202870002E05D0A379A288A078F4
:104AD000314603F0F1FCA088094A810008325158A0
:104AE000002901D0FFF79EFDA0881721FCF7FEF8F2
:104AF000A088FEF791FCA088FEF7B6FC70BD000010
:104B0000CC62FF1F70B58288294D0124531B2949AF
:104B1000AA4242D019DC284D531BAA4218D00BDC04
:104B2000264BD21826D0254B1033D2181ED0032A7C
:104B300017D0042A39D10BE0012B09D0022B07D062
:104B4000032B21D0042B30D11AE0433B072B2CD868
:104B5000496800292AD00968002927D088470446D7
:104B600024E08068007800F0ADF81FE0806800F075
:104B700001F9F4E78068411C007800F0D9F8EEE70D
:104B800083681B78002B11D0896800290ED00B6830
:104B900008E0014610469847E1E7094909680029FD
:104BA00004D04B68002BF4D100E00024204670BDF7
:104BB0000E200000F862FF1F08200000F7EFFFFF43
:104BC000D862FF1F10B5094CA17800290CD001460E
:104BD0000622A01DFBF72CFAA11DA078FFF712F901
:104BE000A01DFBF73FFB10BD002010BD6A62FF1F38
:104BF0001CB52F49037801240A68912B02D0A22BFF
:104C00002ED13EE04178052909D00E2904D00F2984
:104C100008D03E2924D115E0FFF774FF10E0FFF71C
:104C200039FF3AE001468088224B0124C31801D0A5
:104C3000062B15D1002A30D05268002A2DD090477B
:104C400004462AE081780124032917D004DC0129D5
:104C500011D0022904D105E015291ED016291CD037
:104C600000241AE014498968002916D049680029EF
:104C700013D0884711E0FFF79DFE0EE0FFF790FE8E
:104C80000BE00E490978042909D0002A05D05268A2
:104C9000002A02D001460A48904720461CBD002148
:104CA0006A46118001794088FEF736FBF5E700007F
:104CB000D862FF1FF3DFFFFFF862FF1F6B62FF1F69
:104CC000FFFF0000F8B5164F0646BD1F2878FF28E5
:104CD00014D00A20FBF74EFA04000FD0D020207029
:104CE00066700820A070A878E07006223946201D62
:104CF000FBF79EF921462878FBF71EFAE878012891
:104D00000DD108480068002803D08068002800D032
:104D100080470648044A04210078FBF701FAF8BDF1
:104D20007062FF1FFC62FF1F60EA0000F962FF1F54
:104D300070B500240546002805D1002903D00622BD
:104D40000B48FBF775F90A4810380178012907D19B
:104D50000124002D06D000210170284600F0D0F972
:104D6000204670BD02210170FBF782FAF8E70000CF
:104D7000FC77FF1F10B50024002813D002780B49E0
:104D8000002A03D14288CA8202790A760A78022A66
:104D900008D102780124002A06D000220A70007887
:104DA00000F0AEF9204610BD0322F7E7EC77FF1FB5
:104DB0000149486070470000F862FF1FF8B57A4C5F
:104DC00087780146002507266079A2793B00FBF72A
:104DD00041F90805361A37375F9ACD3648780028EA
:104DE0005CD1714806223C30C91CFBF721F9012037
:104DF000A0716D4B0146423362786079FDF73AF954
:104E000000284BD1A8E00F464978002946D1F9780F
:104E1000002906D0654BA2780021FDF72BF97870A8
:104E20000AE0022A0BD00121FBF756F9002803D132
:104E300001216079FBF74AF9787800282ED1F8BD76
:104E4000497800292AD1032F09D0A289002A0CD041
:104E5000217800290AD00121FBF72CF906E0052A68
:104E600001D0022012E0062010E02570A07906286B
:104E700002D0042802D008E0052007E001202070BD
:104E800001466079FBF722F966E00320A07163E038
:104E900048780F46002803D0312832D0A6715BE055
:104EA00041480622391D3630FBF7C2F87889E08187
:104EB000B8892082F88960820520A071A28A002A20
:104EC00003D002216079FBF7F5F8B889E083F8890F
:104ED0002084388A6084E07801280AD11F20FCF7FA
:104EE0009DFE7D21C9004843024604216079FBF7FD
:104EF000E1F87A89F8780423391DFBF7BDFF2570A6
:104F00002AE02570C1E728480E46062200213630E7
:104F1000FBF7A6F8E5832584658404216079FBF717
:104F2000CFF808216079FBF7CBF8B079082808D0D2
:104F30000320A0712078002805D06079FCF744FE9A
:104F400007E00420F5E70120207001466079FBF7B7
:104F5000BDF80020C043E081606A002800D16EE700
:104F600001680029FBD0A0798847F8BD0D460821CB
:104F7000FBF7A6F8687829460028F6D1E888E08390
:104F8000288920844889608404216079FBF7A4F88B
:104F90000028EAD1A06A0028E7D00368628C218C3F
:104FA000E08B9847F8BD0000D05BFF1F7072FF1FB9
:104FB00010B50178224C912906D0A22926D0D029FB
:104FC00001D1FFF7FBFE10BD41780E29FBD181888E
:104FD0001C4A91420FD1816803200856A179052906
:104FE000F1D17F28EFD0616A0029ECD0496800290F
:104FF000E9D0884710BD144A9142FBD1806883787C
:105000004278017811A0FEF741FD10BD41791329C6
:10501000FBD10089012802D12079022808D005207F
:10502000FCF7FCFD024608216079FBF743F810BD50
:1050300008216079FBF744F8FCF7CAFC10BD0000BA
:10504000D05BFF1F05140000222000005B4843498D
:1050500020444C455D25642025642025640A000019
:105060007CB5154C0546E08BE18A88420AD3218B3A
:10507000884207D8208C618B884203D1608CA18B39
:10508000884217D00520FCF7C9FD0646E18A68462C
:105090000180218B4180618B8180A18BC1806279ED
:1050A0006946E089FEF744F92571324608216079A6
:1050B000FBF700F87CBD0000D05BFF1FF8B507468A
:1050C0000E46084602F0CEFB040018D02620FCF75E
:1050D000A5FD050000D125780620FBF74BF804005C
:1050E0000DD006220021FAF7BBFFD0202070677098
:1050F0000E20A070A680E8B22146FBF71DF8F8BD8F
:1051000070B50F4D06462878FF2818D00E20FBF703
:1051100031F8040013D0D020207066700020A070F9
:1051200006220849E01CFAF783FF06481038C18AB6
:105130006181007E207321462878FAF7FDFF70BD5B
:105140006A62FF1FFC77FF1FFFB581B01E4617463E
:105150000D460C20FBF70EF8040013D0284602F091
:1051600081FB002810D00078D02121700199617056
:105170000721A170A580E78026810A9961812146D7
:10518000FAF7DAFF05B0F0BD0048ECE76A62FF1FEE
:1051900070B50D4D044628680E46002812D0062032
:1051A000FAF7E8FF010009D0D02008704C70032006
:1051B00088708E8028680078FAF7BEFF002C01D036
:1051C000FFF724FA70BD0000C862FF1FFFB581B071
:1051D0001F460E46084602F045FB050022D010206F
:1051E000FAF7C8FF04001DD010220021FAF738FF9B
:1051F0002620FCF713FD002800D12878D02121704B
:10520000019961700F21A170A680039921726772C4
:105210000A99A1720B99E1720C99E160C0B2214622
:10522000FAF78AFF05B0F0BDF0B51F4D85B02868CC
:10523000002837D08778FCF76DFD002805D00A20BC
:10524000FCF7ECFC04900B200EE001F093FE00282C
:1052500005D00620FCF7E2FC0490072004E00820BB
:10526000FCF7DCFC04900920FCF7D8FC04460F484E
:105270000078002814D001262968C878091DFEF797
:10528000C1FD29686D46CA7A8B7A091D0BC5039248
:1052900033463A4621460498FAF7F0FF05B0F0BDD0
:1052A0000026E9E70120F9E7C862FF1F6C62FF1FD3
:1052B00010B50949096800290CD0002805D1012042
:1052C0004870FAF721FF002802D00021FFF760FFA5
:1052D000012010BD002010BDC862FF1FF8B50C46AC
:1052E00002F0C0FA020021D026201462FCF796FCDE
:1052F00005062D0E00D115789679D01D009010204E
:10530000176AFAF737FF040010D0D0202070002071
:1053100060700920A070E6700622201D0099FAF73F
:1053200087FE21462846E760FAF706FFF8BD411ED2
:10533000152903D9FF2801D00020704701207047AC
:1053400070B50A4E054630780C46FF280DD0042073
:10535000FAF710FF010008D0D02008704C7002202E
:105360008870CD703078FAF7E7FE70BDDC62FF1F01
:10537000F3B5284D81B0286800284AD04078264EE1
:10538000012803D03078002831D041E001F0F2FD4F
:10539000224F002813D00120FCF740FC044641288E
:1053A00008D91F4A02213878FAF7BAFE1D483C3C5A
:1053B00044800EE07D20C0002246424303E00020EE
:1053C000FCF72CFC0246002A03D002213878FAF7B9
:1053D00071FE2968022048703078002802D0002031
:1053E000307015E002990198FFF7D2FE10E003201B
:1053F000019CFAF7BFFE010008D0D02008704C7065
:105400000420887028680078FAF796FEFFF7FEF807
:105410000120FEBDC862FF1F6D62FF1FF962FF1F02
:1054200060EA0000DC62FF1F074A00218B00D35AAC
:10543000834202D1880080187047491CC9B20229F2
:10544000F4D30020704700000C63FF1F10B50C461A
:10545000FFF7EAFF00280DD0002C00D020608078F4
:10546000FE2803D0FF2803D0162010BD172010BD42
:10547000002010BD022010BDFFB581B0FF201E46E8
:10548000174605300A9DFAF775FE04001BD0B020C0
:1054900020706770029860802671002D06D020462B
:1054A000FC2229460830FAF7C3FD05E02046FC221D
:1054B00000210830FAF7D4FD21460198FAF73CFEA6
:1054C000002005B0F0BD1320FBE7000005481722BF
:1054D00002800988172901D204207047018000202A
:1054E000704700006662FF1F0020704708B50A463B
:1054F0000888498888420BD8002809D000230093E7
:105500001379521DFDF782F8002803D0002008BD52
:10551000012008BD0A2008BDF3B50D46088849885A
:10552000002687B0814215D3002813D00027694692
:105530000F710097002369881A46FDF767F8040089
:105540004FD068460079002807D06946497901297B
:1055500025D008E0012009B0F0BD217802291BD038
:1055600002216A4651711222504301AA61898018B2
:105570004180684600791223584380181022001D8C
:105580006168FAF755FD68460079401C0106090E6E
:10559000684601711FD11AE001216A4651712178D4
:1055A00002291ED1820001A86189121851806A4621
:1055B00012796168920010180222001DFAF738FD76
:1055C0006A461079401CC0B21071052803D2618967
:1055D0000A48814200D101266089401C80B2002E19
:1055E000A7D068460079002805D001A90798FBF7E5
:1055F000DBF90020AFE70A20ADE70000FFFF000065
:1056000038B50C4608884988884215D8002813D038
:105610002379621D02210B48FBF74BF900280DD0BE
:1056200000200090237961882088621DFCF7EEFF3E
:10563000002805D0002038BD012038BD102038BD1D
:105640000A2038BD5C9D021108B50A4608884988C1
:1056500088420BD8002809D0002300931379521DEB
:10566000FCF7D4FF002803D0002008BD012008BDAE
:105670000A2008BDF8B500250F4606460C46E0375F
:1056800017E06800205A0021FCF79AFF002809D093
:10569000017A3046FDF756F9002808D06900615AB2
:1056A0002180F8BD6800205A20800120F8BD6D1CC3
:1056B000EDB2B87DA842E4D80020F8BD10B504468C
:1056C00008880021FCF77CFF002804D0017A2046DE
:1056D000FDF738F910BD012010BD000030B585B0D0
:1056E00005466946FBF7DEF9040026D16846807856
:1056F000C1071E4809D08268002A04D0688869461C
:105700009047044619E0062417E04268002A05D0B5
:10571000688869469047040001D10EE00624684677
:105720004078002809D16846817801730021C18141
:105730000474688803A9FBF7F7F8A868002801D06B
:10574000FAF748FD002C05D168468078122807D06A
:105750001B2803D068880121FDF7FAFD05B030BD94
:10576000684640780128F5D1F8E700001463FF1F70
:1057700070B505460C4608880021FCF721FF00287B
:1057800005D0017A22462846FDF7EFF870BD0120CA
:1057900070BD000001494860704700001463FF1F9E
:1057A00010B50446801C00F046FDFF20E07010BDDF
:1057B00010B500F025F8002800D0806810BD002248
:1057C0009300CB5A834202D1900040187047521C7C
:1057D000D2B2022AF4D3002070470000074A002109
:1057E000CB00D35A834202D1C80080187047491CAD
:1057F0000906090EF4D0002070470000445CFF1F2A
:105800000649896805E08A88824201D18868704724
:1058100009680029F7D1002070470000345CFF1FA1
:10582000F8B50746012906D0022924D1012102F04A
:10583000BDF800281FD13846FFF7D0FF050015D06E
:1058400000240D4E0CE0F8206968604308180188B8
:10585000002908D0F8220021FAF702FC641CE4B207
:1058600070788442EFD30020C04328800249384634
:105870001831FCF76FFCF8BD345CFF1FF3B506462A
:1058800083B008300190002000907088FFF7A6FFD9
:1058900007002FD0002523E0F820796868430C1812
:1058A0002188002920D00198007801280FD1608834
:1058B0000090A3887088A21DFCF734FE0090002899
:1058C00005D0019900200870049821880180F822F1
:1058D00000212046FAF7C4FB00206D1C2080EDB2A9
:1058E000074840788542D7D30020C04338800098CD
:1058F000002802D17088FBF741F8009805B0F0BD90
:10590000345CFF1FF3B50546374C064685B00835B5
:10591000F62200212046FAF7A3FB03A800902B797A
:10592000698828886A1DFCF771FE074645E0708883
:105930002E4A4100515C2E4BC91FC9B20093002270
:1059400002910192284B69468A89F63B3946FCF759
:1059500061FC002812D126482989001F82889142C3
:105960000CD121492846F6390A30FAF76DFB002898
:1059700004D021787889890009194880684682898D
:10598000698804AB3846FCF773FE0746207881002F
:1059900009194A88002A10D0002F05D06A46128AB9
:1059A000401C20708A800AE002060021920DC94343
:1059B0001219401C2070918006E0002F04D00D4881
:1059C000217800888142B2D32078002806D07088E0
:1059D0002146FAF7DBFF002007B0F0BD06982988C2
:1059E00001800A20F8E700009E74FF1F6462FF1F19
:1059F000385CFF1F6062FF1FF0B585B004460020D1
:105A00006946888120790E2869D00FDC082823D0C8
:105A100004DC022813D0062818D118E025460835E2
:105A2000484F0A281DD00C2810D138E010285BD030
:105A300012285ED0162861D0182877D163E0434839
:105A40004149008808806088FAF778FF6EE003A972
:105A50002046FFF757FF5AE003A9204600F076F9E9
:105A600055E0288804A9FCF7ABFD010015D060883B
:105A7000354E4200BA5C0023521ED2B2019302920C
:105A800000966A46B31C128AFCF7C4FB00281DD19D
:105A900060883146FBF70AF948E0012016E02888C3
:105AA00004A9FCF78DFD0100F7D060886B884200E7
:105AB000BA5C254E521ED2B20193029200966A46FB
:105AC000B31C128AFCF7A6FB002803D029886A467B
:105AD00091811CE060883146FBF7B8F826E003A905
