:020000041102E7
:1000000003B40148019001BDADAE000003B4014846
:10001000019001BD456B010003B40148019001BD91
:100020000189000003B40148019001BDC53F0000F3
:1000300003B40148019001BDE94C010003B401483B
:10004000019001BDC95C010003B40148019001BDEC
:100050005952010003B40148019001BDA96F01008C
:1000600003B40148019001BDB30E000003B4014880
:10007000019001BDB52BFF1F03B40148019001BDE4
:10008000E92BFF1F03B40148019001BD21A9000025
:1000900003B40148019001BD75A9000003B40148F3
:1000A000019001BD9DA9000003B40148019001BD6C
:1000B000090E000003B40148019001BD810E00004B
:1000C00003B40148019001BD812BFF1F03B4014817
:1000D000019001BDD1A50000F8B5D349D14A002057
:1000E00004464A608300401CD450FF28FADD48686B
:1000F000CE4A014680318A606E22C262CC4A1278B2
:10010000002A01D07F22C2620A220265C94A1378FE
:100110008363C94BC36115781023022D08D015786D
:10012000012D05D01578032D02D01578042D00D1AE
:100130000362C24D45611925AD0185613725CD604A
:1001400036272826C7630825466405644F60322792
:100150000F603B27CF634127CF6439274031E0C18F
:1001600032274F6002274F6142270831E0C11E2726
:100170004F60CE608D6005264E6142260E615A2684
:1001800060390E614D613C258D61AF25ED00056044
:10019000AB4D05631578022D09D01578012D08D0D7
:1001A0001578032D07D01578042D06D007E0152506
:1001B00004E0436003E00E2500E00C254560FF25C8
:1001C0002D358560C560FF25F53505619D4D85643C
:1001D0007D25ED009C4ECD67C66445629B4D8562D2
:1001E0007325C565062545658565C51D0826F93550
:1001F00002272E6047664B27FF0087660927C766E0
:10020000934F07674667BE108467C667914F8E4E4F
:100210003E601678022E09D01678012E0AD0167884
:10022000032E0BD01278042A0CD00EE01A22CA61D9
:10023000212205E01422CA61182201E01322CB61B9
:100240000A6202E00E220B62CA617E4A8A627D2245
:10025000D2008A6764224A620522CA6202220A63C5
:10026000C8228C634A63382169607B4929647B49D1
:10027000A9614B21C900E9617349FF3064392962E2
:100280007D2109016962EC661E212C67A96670490F
:10029000A965E96589102966696469677049A96774
:1002A0007049714A8130E967026082604160FF21D4
:1002B000F531C16001616E486C495A4A81606D49EF
:1002C000803A11616A496C4A80318A626B4ACA621B
:1002D0006B4A82616B4AC2626B4A02636B4A644832
:1002E0004038C2636A4ACA616A49816360496A48A0
:1002F000403188616A49694888605D48694A803848
:100300004260694A4263694A0A62694981605849A0
:100310006848C039C860FFF773FE0120FFF776FE1A
:10032000F8BDF3B50746644881B0C169634A11401E
:10033000FF310931C161002613E000252C46112050
:10034000FFF76AFE5C48406A8007800F61008840C2
:100350002843641CE4B20546102CF0D301C7761C78
:10036000F6B202988642E8D3FEBD10B52E4C6078F6
:1003700000280AD104215248FFF7D3FF5048042136
:100380001030FFF7CEFF0120607010BDF0B50024E3
:100390008BB00D460646102902D901200BB0F0BDE6
:1003A000FFF7E3FF464900200A5C401C1419C0B265
:1003B0001028F9D3002C03D0102D03D90B20EDE722
:1003C0000E20EBE73F483E4C0023006802A91034A2
:1003D000E25CC75C7A40CA545B1CDBB2102BF7D3DB
:1003E00006AA3748FFF71EFE102D00D910252A4611
:1003F00006A93046FFF71CFEFFF720FE21684018D3
:100400002060FFF71BFE616840186060FFF716FE72
:10041000A1684018A060FFF711FEE1684018E06095
:100420000020BBE70004FF1FE440FF1F887FFF1F81
:100430009440FF1F4A0AFF1F3A07000080C3C9010A
:100440009A02000050C30000280A00006A18000049
:10045000204E0000F009FF1F00400011681000004E
:10046000DC05000040420F00102700000532FF1F8E
:100470000001FF1FA122FF1FE535FF1FBD38FF1F31
:10048000AD1FFF1F4121FF1FC91FFF1F052AFF1FAF
:10049000793EFF1F9D3CFF1F492FFF1F2124FF1F97
:1004A0000002FF1F912FFF1F5930FF1F9D2FFF1FBD
:1004B0004D2FFF1F5124FF1F40F0004000FEFEFFA4
:1004C0005873FF1F0441FF1F7CB5054600F0AEFCCA
:1004D00000F0B8FB094C00206570694608700849B7
:1004E000009800F0DDFB07A000F0C8F87D221201A3
:1004F00001216078FFF7A8FD7CBD00009C40FF1F34
:100500009D080211646D612064656D6F20737461D4
:1005100072742E2E2E0A000070B50D4C0D466178B7
:10052000884201D0002070BDE807FCD02078411C33
:10053000217000F0BBF820780C2806D305A000F04D
:100540009DF809A000F09AF8FEE70120684070BD10
:100550009C40FF1F646D6120746573742066696E32
:100560006973683A6F6B0A0073746F700A00000059
:10057000002805DBC106C90E01208840014908603A
:100580007047000000E100E0002805DBC106C90E4D
:1005900001208840014908607047000000E100E048
:1005A0008307FF22DB0E9A408907090E9940002835
:1005B00008DB830809489B001B1818689043084310
:1005C000186070470007000F0838830804489B0034
:1005D0001B18D86990430843D861704700E400E0D5
:1005E00000ED00E08307FF22DB0E9A408907090E29
:1005F0009940002808DB830809489B001B181868ED
:1006000090430843186070470007000F08388308BC
:1006100004489B001B18D86990430843D861704771
:1006200000E400E000ED00E08307FF22DB0E9A40CB
:100630008907090E9940002808DB830809489B00B8
:100640001B18186890430843186070470007000F94
:100650000838830804489B001B18D8699043084356
:10066000D861704700E400E000ED00E00A4610B5F4
:100670000146002000F068FF10BD00000FB410B567
:1006800003AA0448029900F06FFF10BC08BC04B034
:10069000184700006D06021138B5034B00240FCB3C
:1006A000009400F01FFF38BDF81C0211F8B5840754
:1006B0004848A40F8470002000F02AFB204602273F
:1006C0000025454E454C002806D0012819D00228A7
:1006D0003AD003282DD149E0FF2001302060257158
:1006E00007216771A171A66025736773A1733C49E7
:1006F000216125750022B2548D54521C9042FAD8C3
:1007000017E00020FF210A1A3254401CFF28FAD9B2
:100710003448FFF79FFCFF2001302060257167718E
:10072000A571A660257367732E48A573206101200B
:1007300020752A49002000F079F90106090E27D01A
:1007400029A0FFF79BFFF8BD0121C9022448FFF74C
:1007500087FCFF200130206025716771A571214859
:10076000A06025736773A5731D48DFE700207E2115
:100770000A1A3254401C6428FAD3202020602571C4
:100780006571A571A66027736573A5732248CDE7CF
:10079000002000F0A3FA207D0028D4D100F0F0FA68
:1007A00000210F4822680FE0735C445CA3420AD02A
:1007B000E0B20090725C0B4618A0FFF75FFF27A025
:1007C000FFF75CFFFEE7491C8A42EDD82CA0FFF73B
:1007D00055FFF8BD9C40FF1F3861FF1F3871FF1F98
:1007E0003869FF1F004000115B444D41435D436F7A
:1007F0006E666967206368616E6E656C204661692C
:100800006C65642C4572726F7220636F6465206939
:10081000732025640A00000000400040675F646D9B
:10082000615F7372635F6275666665725F75385B80
:1008300025645D3A3078257820213D20675F646D1E
:10084000615F6473745F6275666665725F75385B5D
:1008500025645D3A30782578000000006D656D658F
:100860006D6F727920746F206D656D6F7279206580
:1008700072726F722C636865636B2069740A000082
:100880006D656D6F727920746F206D656D6F727913
:1008900020746573743A6F6B0A00000038B513A0BA
:1008A000FFF7ECFE1548807802281DD1164B002179
:1008B0001348144A1B680FE0445C555CAC420AD0F4
:1008C000EAB20092425C0B4610A0FFF7D7FE1FA0D1
:1008D000FFF7D4FEFEE7491C8B42EDD824A0FFF7BA
:1008E000CDFE2AA0FFF7CAFE38BD00000A646D6184
:1008F00020646F6E652121210A0000009C40FF1FCB
:100900003861FF1F3869FF1F3871FF1F675F646D13
:10091000615F7372635F6275666665725F75385B8F
:1009200025645D3A3078257820213D20675F646D2D
:10093000615F6473745F6275666665725F75385B6C
:1009400025645D3A30782578000000006D656D659E
:100950006D6F727920746F206D656D6F727920658F
:1009600072726F722C636865636B2069740A000091
:100970006D656D6F727920746F20666C617368208D
:10098000746573743A6F6B0A00000000666C6173E3
:100990006820746F206D656D6F7279207465737453
:1009A0003A6F6B0A0000000010B50320FFF75EFBF2
:1009B00002211320FFF738FE1320FFF7E5FD04495D
:1009C0000248C86003490120886110BDD90902119D
:1009D000C003FF1F80030140F8B500240B4F0C4EED
:1009E0000125B86A2946A140084209D0204600F0F6
:1009F0008FF9E00080198168002901D020468847DE
:100A0000641CE4B2042CECD3F8BD0000C002014029
:100A10003473FF1F10B50448C16B034A403210689D
:100A2000D06000F0FBFB10BD00800040FEB5774AAF
:100A3000002592692C46029201229207926A019245
:100A4000734A1378002B14D004287DD2C3009B185E
:100A50001A791B1D002A0ED06E4A166A012787409C
:100A6000FFB2BC463E4202D19E78002E05D0112036
:100A7000FEBD1220FEBD0720FEBD664E803EB76360
:100A8000B215824000923261634F8A68BA4201D146
:100A9000022619E0614EB24201D1042614E0604EF4
:100AA000B24201D10A260FE05E4EB24201D10C26BD
:100AB0000AE05D4EB24201D10E2605E05B4EB24225
:100AC00001D1102600E000260A699646BA4201D1FB
:100AD00001271AE0514FBA4201D1032715E0504FC8
:100AE000BA4201D1092710E04E4FBA4201D10B277B
:100AF0000BE04D4FBA4201D10D2706E017464B4A95
:100B0000974201D10F2700E00027002E0AD0002FC6
:100B100021D0761EF4067F1EE40EFA060325D20DC0
:100B2000144305E0002F03D07F1E0125FA06D40DE3
:100B30003F4E724692193F4EB24215D80022DA70EB
:100B4000029E002E03D000E021E0304EB261019AF7
:100B5000002A05D00AE0761E0225F406E40EE7E737
:100B600001229607B26201E00122DA70582702469C
:100B70007A43314F8E68D21916600E69966000264E
:100B80001661002805D01F270E68B74203D2062041
:100B9000FEBD2A4FF8E77605760DD661566C284FD4
:100BA000E4013E4026435664002616642C058D79E8
:100BB0006D07ED0B2C438D7B6D07AD0C2C434D79F0
:100BC0006D076D0E2C434D7B6D072D0F2C430D795A
:100BD000AD076D0D2C430D7BAD07ED0D2C43641C53
:100BE0009461097D002908D0FF2102318140094824
:100BF000803801610120587006E00648614680385F
:100C00008163009901615E700020FEBD40C8004014
:100C10003473FF1F8003014060600040607000403B
:100C2000105000401058004000400040009000402C
:100C3000FFFFFFEEFFFF070000000140FF0700007D
:100C40007F00FFFF70B50320FFF710FA0320FFF7C6
:100C500013FA02211320FFF7E7FC1320FFF794FC9F
:100C60000B490A48C8600B4A0021032000F096FB9C
:100C70000406240E08D10848012505702021001D16
:100C8000FFF7EEF905488561204670BDD9090211CC
:100C9000C003FF1FA90902113473FF1F8003014025
:100CA00003B50D490878002805D068460078042867
:100CB00003D306200CBD12200CBDC00040180179E2
:100CC000001D002901D007200CBD019941600121C0
:100CD000017000200CBD00003473FF1F10B50A49DD
:100CE0000A78002A0DD0C2005118FF220232824039
:100CF0000648026201208871032000F023FB0020D7
:100D000010BD122010BD00003473FF1F800301408E
:100D1000F8B5174B9E691C06A56A16490A78002A81
:100D200003D0042803D30620F8BD1220F8BDC2006A
:100D30005218D7790121121D002F09D1002E01D0A0
:100D400002269E61002D03D10023A3620A4B196085
:100D500081400A4BC9B29963991581400748803098
:100D6000016200209070032000F04EFB0020F8BDCF
:100D700040C800403473FF1F00C000400003014022
:100D800010B507490978002907D006490A68002AE2
:100D9000FCD0FFF7BDFF002010BD122010BD0000E9
:100DA0003473FF1FC002014030B5C21F0A2A01D3AD
:100DB000062030BD0124074D9440002905D00021B4
:100DC00000F0C0F82868204301E02868A0432860AC
:100DD000002030BD00380040054B01228240D86819
:100DE000002901D0104300E09043D8607047000014
:100DF0000038004070B5FF2814D08207D30E840855
:100E0000094A5E1DA400A518AC69F21A0126521CFD
:100E10009640761E9E40B44399400C43AC6101213C
:100E2000FFF7DAFF70BD00000038004010B5114C2C
:100E30002078002801D0072010BDFF212D310D485A
:100E4000FFF70EF9012020700B490020086348636A
:100E50000A490862486202211020FFF7A1FB102016
:100E6000FFF786FB064A07490D2000F097FA00209D
:100E700010BD00005071FF1F0080004080F0004056
:100E8000951002110910021110B5172801D3052081
:100E900010BD0C4B9C6B012282401046204398638E
:100EA000586B90435863DC6B012907D02046904370
:100EB000D863186B02431A63002010BD104620430C
:100EC000F6E7000000800040054B0122801E8240B2
:100ED0005869002901D0104300E0904358617047E1
:100EE0000038004070B5044614480E460519002924
:100EF00002D16878012808D000212046FFF76CFF56
:100F0000022C04D0032C02D005E0072070BD012183
:100F10002046FFF7D9FF00212046FFF745FF08498B
:100F20000120A0404A68012E05D082434A60022079
:100F30006870002070BD02434A60FAE75071FF1FDD
:100F40000080004070B5420083180D4A9C18A578B7
:100F50006478D65C641B0122641CA240521EAA4025
:100F6000084BA940132806D2B000C01883689343E9
:100F70000B43836070BD586990430843586170BD4E
:100F8000831C021100F0004007494A680123834096
:100F90001A4201D0096802E0034940310969C140A1
:100FA000C807C00F704700000080004070B5154CA6
:100FB00045002E1976780123114AB34000290ED03E
:100FC000142809D0152807D0162805D060578000AE
:100FD0008018816819430DE0506918430EE0142809
:100FE0000AD0152808D0162806D06057800080182F
:100FF00081689943816070BD50699843506170BDAC
:1010000000F00040C81C021170B5104D00242E19CC
:101010007078012803D1E0B20121FFF7C7FF707893
:1010200002280ED1E0B2FFF7AFFF01214140E0B24C
:1010300000F074F8E0B2FFF7A7FF0C2161434919F3
:101040004876641C172CE2DB70BD00005071FF1F56
:1010500010B50F4C0D4A0123245C142809D2106AE4
:10106000002902D0A340184301E0A3409843106236
:1010700010BD506A002903D0203CA340184302E071
:10108000203CA3409843506210BD000080F0004017
:101090006C1C021170B502211020FFF781FA10209C
:1010A000FFF766FA00241C4D07E0022C01D0032C48
:1010B00003D1E0B20121FFF707FF2819407801288A
:1010C0000BD1E0B2FFF760FFE2B20146104600F03C
:1010D00061F8E0B20021FFF769FF0C20604340197E
:1010E000007E002814D0E0B200F066F8E6B2304688
:1010F000FFF74AFF002801D0012100E000210C2267
:1011000072435219527E824202D0304600F0BAF841
:10111000641C172CC9DB70BD5071FF1FF8B542006D
:101120008318184AD55C9A189278521ED4B2164A7F
:1011300012185278022A21D1144EB76B012213469D
:1011400083401F43B763124B13280ED2002906D0E9
:10115000A900C9188B68A24093438B600BE0A900DB
:10116000C9188B68A2401343F7E70029596906D0D4
:10117000A240914359610121FFF76AFFF8BDA240E7
:101180001143F7E7831C02115071FF1F00800040DC
:1011900000F00040012200B5064B8240002919688A
:1011A00001D0114300E0914319600121FFF79AFE3D
:1011B00000BD00000080004070B50446164821467E
:1011C0000C2251430D186A680026002A02D1AA6831
:1011D000002A1CD0104B0222183B1B195A70012206
:1011E000425400212046FFF77DFE6868002808D0A1
:1011F000A86800280DD02046FFF7C6FE002808D0BA
:10120000002631462046FFF73FFE002070BD122029
:1012100070BD0126F5E700006871FF1FF3B5184E99
:10122000002481B0074601252846A040384223D03B
:101230000299084000D001200090E0B2009900F02F
:1012400021F80C20604380194168806800290ED085
:10125000002807D00098002802D00021E0B203E067
:101260000121FBE7E0B20121FFF70EFE04E00028B8
:1012700002D0E0B20021F7E7641C172CD4DBFEBDDE
:101280006871FF1F074A0C2343439B185A68002AC2
:1012900001D0012904D09A68002A02D0002900D187
:1012A000104770476871FF1F0F20704704494209BB
:1012B00003D00020C86006207047C8600020704737
:1012C000AC40FF1F0348C1691F2252049143C16112
:1012D0000020704700F000400548C1691F225204F9
:1012E0009143044A928952041143C161002070471E
:1012F00000F00040AC40FF1F10B578210C48FEF70D
:10130000AFFE0C480078012803D0022804D004283E
:1013100004D1FEF7B7FE01E0FEF772FE0648007842
:10132000C00702D0064905480863002010BD000030
:10133000BC72FF1FAC40FF1F00200040351FFF1F85
:10134000C000FF1F70B5054612481224007801281E
:1013500015D0042813D0FEF79BFE0F4800210C2265
:101360004A43825C002A11D0AA420CD10C23594373
:10137000012208184270FEF785FE002406E0FEF701
:1013800081FE002070BD491C0A29E8DBFEF786FEBD
:10139000204670BDAC40FF1FBC72FF1F30B50D4C26
:1013A00000230C255D43655D854201D1072030BDDA
:1013B000002D04D05B1C0A2BF3DB032030BD0C2571
:1013C0006B431B19F9D000245C7018709A6020469A
:1013D000596030BDBC72FF1F70B5FFF77DFF094D2E
:1013E000002420460C214843295C002907D04019DD
:1013F0004068002800D08047641C0A2CF1DB0020E4
:1014000070BD0000BC72FF1F70B505461648002471
:101410000078012811D004280FD0FEF739FE0021F2
:10142000124A0B4608460C267043165C002E0FD05D
:10143000AE4205D18018437007E0FEF723FE0DE0B1
:1014400080184078002800D0641C491C0A29E9DB78
:10145000002C05D0FEF716FEFEF720FE002070BD22
:10146000FEF7CEFDF8E70000AC40FF1FBC72FF1F87
:1014700070B519480121890742688A608268012392
:101480001A434A6115490A6B0261496B41610021A7
:101490000420FFF7A7F801211420FFF7A3F801218A
:1014A0001520FFF79FF801211720FFF79BF80C4D3F
:1014B000002420460C214843295C002909D040190A
:1014C0008068002800D08047641C0A2CF1DB0020D3
:1014D00070BD122070BD0000AC40FF1F80F00040C6
:1014E000BC72FF1FFFB581B00A9F144D7E01A85D3D
:1014F000002802D0112005B0F0BD6846407B0028CE
:1015000001D00520F7E7741920212046FEF7A8FD39
:1015100001A80FC810340FC4384600F0F1FA0120BA
:10152000A855002F06D0064A00211920FFF736FFE4
:101530000020E0E70021034A0820F7E77C72FF1F44
:10154000631C0211591C021110B5064C43011B19F2
:101550009B7E002B02D000F035FA10BD00F0FCF9A4
:1015600010BD00007C72FF1FF7B5064686B0002054
:1015700004900390079810E125290AD004990029C6
:1015800001D0039802E0049000200390401C0390D7
:1015900000E10398002805D081B20498B0470020EC
:1015A0000490039000250422082310210798401C72
:1015B000079000782B2819D004DC202818D0232885
:1015C00004D117E02D280FD0302815D0079A002716
:1015D0001078FF430346303B3C46092B0FD807A841
:1015E00000F0AAF9044615E00D43DFE71543DDE7F7
:1015F0001D43DBE7202000E001200543D6E72A2831
:1016000008D1521C0898079210C80890002C01DAE3
:1016100064420D43079938460A782E2A14D1491C92
:10162000079108780246303A092A03D807A800F043
:1016300083F906E02A2806D1491C0791089901C9B7
:101640000891002800DA0020079A39461778682F99
:1016500003D06C2F01D04C2F02D1521C3946079277
:10166000079B0A221B786E2B2CD00CDC632B2AD014
:1016700004DC412B26D0582B11D19BE0642B01D0E8
:10168000692B0CD19AE0732B3DD004DC6F2B77D003
:10169000702B04D164E0752B73D0782B6FD0252B81
:1016A00009D0252069460872012102A8B047079891
:1016B0000178002975D007986946007808720121E1
:1016C00002A8B04766E0E80609D42025641E002C75
:1016D00005DD68460572012102A8B047F6E70898C3
:1016E0006A4601781172001D0890012102A8B047D6
:1016F000202504E068460572012102A8B047641E57
:10170000002CF7DC46E0089A02CA089200910029F2
:1017100001D12DA100910A4600E0491C0B78002B55
:1017200001D0401EF9D28F1AE8060AD4202520469F
:10173000641EB84205DD68460572012102A8B04763
:10174000F5E7B9B20098B047202504E06846057275
:10175000012102A8B0472046641EB842F6DC19E019
:10176000611C02D1082401210D43009008980195C5
:1017700002C823461022089009E001E001E01BE0C6
:101780000822089B02CB089301950090234630461F
:1017900000F01EF80798401C07900178002901D03E
:1017A000EAE60EE00398002802D081B20498B04720
:1017B00009B0F0BD402215431022E2E702231D4389
:1017C000DFE7401E0790E5E73C4E554C4C3E0000DD
:1017D000FFB50746574897B0219D006815901E46F3
:1017E0000A46680602D5534840681590E80601D5B8
:1017F0006D086D001998801E232870D2E80701D06B
:10180000302100E0202110A8017300210172A807F7
:1018100010D5002A04DA2D2010A90872524208E0DF
:10182000680701D52B2002E0280703D5202010A946
:1018300008725E1EA80608D51998102802D008283C
:1018400002D002E0B61E00E0761E0024002A14D06A
:1018500010461999FEF728FC159A525C01A90A5501
:10186000641C0200F4D12098844200DD209420986A
:10187000361A112005420BD00EE03020694608715F
:101880000124F0E720206946087001216846B84726
:101890003046761E0028F5DC10A8007A002802D019
:1018A000012112A8B847A80616D51998082802D011
:1018B000102802D010E0302009E03020694608707E
:1018C00001216846B8471B480068203040786946C7
:1018D000087001216846B847E80604D507E027E00C
:1018E000012113A8B8473046761E0028F8DC3025C1
:1018F0002099481E2090A1420BDD68460570012109
:10190000B847F5E7285D6946087001216846B84781
:1019100000E001AD2046641E0028F3DC20243046A0
:10192000761E002804DD684604700121B847F6E7FA
:101930001BB0F0BDA440FF1F0146002006E0531C71
:101940000B600A2312785843303810180A6813784D
:10195000303B092BF3D9704778B5174B012800D1DC
:10196000164B00241648009404E0009D6E1C00965F
:1019700085421ADCDD6FED07F7D10AE0009D6E1C91
:101980000096854211DC1D7DAD06F7D50D781D70E2
:10199000491C1546521E92B2002D0094F3D106E068
:1019A00000994A1C0092814201DD0D2078BD197D0D
:1019B0004906F5D5002078BD004000400090004069
:1019C000A0860100F7B507462A49400144182A4E6F
:1019D000241D1546002A10D0019800280DD021782A
:1019E000002908D0E088A84205D3012916D0A18893
:1019F0004919814203D90320FEBD0620FEBDFEF732
:101A000047FBA188A0682A4640180199FEF752FBBF
:101A1000A0884019A080FEF741FB27E0A06801994B
:101A2000FEF748FBA5800020608002202070A1689E
:101A3000102D00D91025012F00D1104E7268022000
:101A40008243726004E06088421C6280085C3070EF
:101A500028466D1EADB20028F5D1002F08D0192000
:101A6000FFF770FC70680221084370600020FEBD23
:101A70000820F5E77C72FF1F004000400090004006
:101A8000F8B5064608270B20184C012E02D119275D
:101A9000174C11200121814016480160BFF34F8F80
:101AA000BFF36F8F144871010D18287C0021FFF7D8
:101AB00093F9687C0021FFF78FF9802020730025BF
:101AC000257125702573257265603846FEF7D4FAB6
:101AD0003846FEF7F5FA002E03D00848456000208E
:101AE000F8BD06484038C562F9E7000000400040F4
:101AF0000090004080E100E07C72FF1FC003FF1FE8
:101B0000F0B587B00746FEF7E1FA0690082001908D
:101B10000420009005200390464C0B263846FFF722
:101B2000AFFF012F07D11920019008201126009046
:101B3000414C09200390414879010D18287CFF2869
:101B400002D1687CFF282CD010350198FEF78EFA60
:101B50000198FEF791FA28780221FFF7F3F96878E7
:101B60000221FFF7EFF928780099FFF743F9687829
:101B70000399FFF73FF90020207306986968001168
:101B80004A088018FEF790FA014600202061802064
:101B900020730A0A22712170E97A002904D01B21DE
:101BA00003E0062007B0F0BD03212173297A002944
:101BB00000D087212172012161602A7A002A02D097
:101BC000626802436260AA7A002A03D06268022334
:101BD0001A436260002F12D01A4B194A5A60FF2232
:101BE000002E11DBB408184BA400E4182368B507D5
:101BF000ED0EAA409343A8400343236013E0114B2A
:101C0000124A403BDA62EAE733071B0F083B9C08A5
:101C10000F4BA400E418E369B507ED0EAA40934307
:101C2000A8400343E361002E02DB0A48B140016093
:101C30000020B7E700400040009000407C72FF1F8A
:101C4000BD1EFF1FC003FF1F00E400E0F11EFF1FC9
:101C500000ED00E000E100E010B50020FFF750FFCC
:101C600010BD10B50120FFF74BFF10BD00010203AE
:101C700007090A0B0E0F101112141718191A1B1F3F
:101C8000202122000201000504000807000B0A00C1
:101C90001716001D1C010201010504010E0D0111A2
:101CA00010011413011716011A19020201020B0A7E
:101CB000020E0D021110021413021716030504037D
:101CC0000807030B0A030E0D000D000E0010001193
:101CD0000013001401070108010A010B011C011D7A
:101CE00002040205020702080219021A021C021D60
:101CF00003010302031700000506FFFF00C20100F5
:101D000001000000000000000300000000000000CF
:101D10000000000030313233343536373839414233
:101D2000434445464748494A4B4C4D4E4F5051520B
:101D3000535455565758595A000000003031323329
:101D40003435363738396162636465666768696A55
:101D50006B6C6D6E6F707172737475767778797A5B
:041D6000000000007F
:020000041FFFDC
:10000000000000003935FF1FF03FFF1FF83FFF1FC2
:10001000A040FF1F000000000000000000000000E2
:1000200000000000000000000000000000000000D0
:1000300000000000000000000000000000000000C0
:1000400000000000000000000000000000000000B0
:1000500000000000000000000000000000000000A0
:100060000000000000000000000000000000000090
:100070000000000000000000000000000000000080
:100080000000000000000000000000000000000070
:100090000000000000000000000000000000000060
:1000A0000000000000000000000000000000000050
:1000B0000000000000000000000000000000000040
:1000C0000000000000000000000000000000000030
:1000D0000000000000000000000000000000000020
:1000E0000000000000000000000000000000000010
:1000F0000000000000000000000000000000000000
:1001000000000000000000000000000000000000EF
:1001100000000000000000000000000000000000DF
:1001200000000000000000000000000000000000CF
:1001300000000000000000000000000000000000BF
:1001400000000000000000000000000000000000AF
:10015000000000000000000000000000000000009F
:10016000000000000000000000000000000000008F
:10017000000000000000000000000000000000007F
:10018000000000000000000000000000000000006F
:10019000D9130211711402116539FF1F000000000C
:1001A000000000000000000000000000000000004F
:1001B000000000000000000000000000000000003F
:1001C000000000000000000000000000000000002F
:1001D000000000000000000000000000000000001F
:1001E000000000000000000000000000000000000F
:1001F00000000000000000000000000000000000FF
:1002000000000000000000000000000000000000EE
:1002100000000000000000000000000000000000DE
:1002200000000000000000000000000000000000CE
:1002300000000000000000000000000000000000BE
:1002400000000000000000000000000000000000AE
:10025000000000000000000000000000000000009E
:10026000000000000000000000000000000000008E
:10027000000000000000000000000000000000007E
:10028000000000000000000000000000000000006E
:10029000000000000000000000000000000000005E
:1002A000000000000000000000000000000000004E
:1002B000000000000000000000000000000000003E
:1002C000000000000000000000000000000000002E
:1002D000000000000000000000000000000000001E
:1002E000000000000000000000000000000000000E
:1002F00000000000000000000000000000000000FE
:1003000000000000000000000000000000000000ED
:1003100000000000000000000000000000000000DD
:1003200000000000000000000000000000000000CD
:1003300000000000000000000000000000000000BD
:1003400000000000000000000000000000000000AD
:10035000000000000000000000000000000000009D
:10036000000000000000000000000000000000008D
:100370000D19FF1F00000000000000000000000039
:10038000000000000000000000000000000000006D
:10039000000000000000000000000000000000005D
:1003A000000000000000000000000000F11EFF1F20
:1003B000000000000000000000000000000000003D
:1003C000000000000000000000000000000000002D
:1003D000000000000000000000000000000000001D
:1003E000000000000000000000000000000000000D
:1003F00000000000000000000000000000000000FD
:0C04000001FF01FF01FF01FF41000000AF
:020000041FFFDC
:10183800887FFF1F3D19FF1F81840000F1280000E9
:101848000000000000000000000000000000000090
:101858000000000000000000000000004919FF1F00
:101868000000000000000000CD8400004D19FF1F9B
:101878004F19FF1F4F19FF1F4F19FF1F4F19FF1F48
:101888004F19FF1F4F19FF1F4F19FF1F4F19FF1F38
:101898004F19FF1F4F19FF1F4F19FF1F4F19FF1F28
:1018A8004F19FF1F4F19FF1F4F19FF1F4F19FF1F18
:1018B8004F19FF1F4F19FF1F4F19FF1F4F19FF1F08
:1018C8000000000000000000000000000000000010
:1018D8000000000000000000000000000000000000
:1018E8004F19FF1F000000004F19FF1F4F19FF1F5E
:1018F8000348854600F02CF8004800471934FF1FBC
:10190800887FFF1F09484838694601600430F0C0E5
:1019180044464D4656465F46F0C030BCF0BCF0C069
:10192800F0BCF0C044380249084700000004FF1F1B
:101938001D25FF1F0448804704480047FEE7FEE7CF
:10194800FEE7FEE7FEE7FEE77924FF1FF918FF1F11
:10195800064C0125064E05E0E36807CC2B430C3CFA
:1019680098471034B442F7D3FFF7C6FF6440FF1F0F
:101978009440FF1F70B58C180578401C6B075B0FEF
:1019880001D10378401C2A1106D10278401C03E0DB
:1019980006780E70401C491C5B1EF9D12B0705D434
:1019A8000023521E0DD40B70491CFAE70378401C23
:1019B800CB1A921C03E01D780D70491C5B1C521E4B
:1019C800F9D5A142D8D3002070BD000003B4014866
:1019D800019001BD0914021103B40148019001BD31
:1019E800D94F010003B40148019001BD75A9000059
:1019F80003B40148019001BDF9A6000003B40148F1
:101A0800019001BDC512021103B40148019001BD46
:101A1800A1AF000003B40148019001BD9DA90000D9
:101A280003B40148019001BDDD3F000003B4014843
:101A3800019001BD8944000003B40148019001BD33
:101A48002144000003B40148019001BD750F000056
:101A580003B40148019001BDC95C010003B4014809
:101A6800019001BD1907010003B40148019001BDAF
:101A7800BD0B010003B40148019001BDDD0C01005C
:101A880003B40148019001BDDD0A010003B4014817
:101A9800019001BD0134010003B40148019001BD6A
:101AA8000934010003B40148019001BD0534010067
:101AB80003B40148019001BDF535010003B40148A4
:101AC800019001BDF935010003B40148019001BD41
:101AD800E917010003B40148019001BD6137010015
:101AE80003B40148019001BD01D7000003B40148C7
:101AF800019001BD6DF6000003B40148019001BDDD
:101B08007912010003B40148019001BD4DF90000AC
:101B180003B40148019001BDC1F7000003B40148B6
:101B2800019001BD116E000003B40148019001BD90
:101B38008D82000003B40148019001BDE1AC0000B2
:101B480003B40148019001BDE53A010003B401481E
:101B5800019001BD496D010003B40148019001BD28
:101B68003D71010003B40148019001BD01890000E5
:101B780003B40148019001BDED4A010003B40148D6
:101B8800019001BDA54F010003B40148019001BDBA
:101B98008552010003B40148019001BD156B010095
:101BA80003B40148019001BD016C010003B4014870
:101BB800019001BDBD5C010003B40148019001BD65
:101BC800CD4C010003B40148019001BD810E000015
:101BD80003B40148019001BD450F021103B4014847
:101BE800019001BDAD12021103B40148019001BD7D
:101BF800D912021103B40148019001BDA9120211C2
:101C080003B40148019001BDB54C010003B401487B
:101C1800019001BD4550000003B40148019001BD89
:101C28009D13021103B40148019001BDC56D010067
:101C380003B40148019001BD51B8000003B4014844
:101C4800019001BD85C1000003B40148019001BDA8
:101C5800E9D4000003B40148019001BDE90B01007B
:101C680003B40148019001BD090E000003B4014806
:101C7800019001BD6D0B010003B40148019001BD45
:101C8800C115010003B40148019001BDCD0C01004C
:101C980003B40148019001BD71B0000003B40148CC
:101CA800019001BDD9B0000003B40148019001BD05
:101CB8005976010003B40148019001BD53B90000F1
:101CC80003B40148019001BDE94C010003B4014887
:101CD800019001BDED6B010003B40148019001BD05
:101CE800C9A9000003B40148019001BDD90002113F
:101CF80003B40148019001BDEDA5000003B40148FB
:101D0800019001BDF912021103B40148019001BD0F
:101D18009906021103B40148019001BD2D0E02116C
:101D280003B40148019001BD7D06021103B40148C6
:101D3800019001BD3D4B010003B40148019001BD74
:101D4800154D010003B40148019001BDB14E0000DA
:101D580003B40148019001BDC904021103B401484C
:101D6800019001BD2D11010003B40148019001BD8E
:101D78008914010003B40148019001BD6189000084
:101D880003B40148019001BDD544010003B40148E2
:101D9800019001BD2D6C010003B40148019001BD03
:101DA8007997000003B40148019001BD6911010051
:101DB80003B40148019001BD8512010003B4014834
:101DC800019001BD8D11010003B40148019001BDCE
:101DD800E512010003B40148019001BDF90D0100AD
:101DE80070B54E4A8AB0012800D14D4A43014D488A
:101DF8006D461C18207E00280AD084208058C3B263
:101E0800002002E016782E54401C9842FADB03E0CA
:101E1800107D012310782870E269002A04D0297502
:101E280006952B7705A890470AB070BDFEB5044605
:101E380042013C48394D1318805C191D002829D0EF
:101E4800187E002826D0987E002823D008780228FB
:101E580020D188884A888E68801A82B2102A01D9CF
:101E6800102201E0002A02D0012C16D01CE001202B
:101E78000870002048808880D969002905D02A4B3D
:101E88006D460DCB0DC568468847002C03D0192038
:101E9800FFF79CFDFEBD0820FAE7214D04E04888C5
:101EA800431C4B80305C28701046521E92B20028AA
:101EB800F5D1FEBD1A4880680007000F062812D029
:101EC80006DC02280AD004280DD10121012087E769
:101ED800072805D00C2806D10221F7E70120A5E73D
:101EE8000F484030C06B70470C4880680007000FEF
:101EF800062812D006DC02280AD004280DD10121B8
:101F080000206DE7072805D00C2806D10221F7E745
:101F180000208BE701484030C06B7047004000400C
:101F2800009000407C72FF1F081D021110B50D497A
:101F38007620C860FFF750FD10BD0446FFF752FD3C
:101F48000949C86940229043C8612046FFF750FDFF
:101F5800FFF754FD04490420C03108600120FFF751
:101F680053FDFEE70020004000F0004010B5FFF7E9
:101F780039FD0A480468094A411780321160084946
:101F88000160FFF747FD204610BD10B50446FFF776
:101F980029FD02480460FFF73DFD10BD00E100E0A7
:101FA8001000100070B50124A407A36810252B4366
:101FB800A360FFF735FDA068A843A06070BD0000CE
:101FC800FFB5064601208007816881B01D461022B2
:101FD80011438160554F002038603046D730FFF7F5
:101FE80025FD9D20800034468059FF36CA340136CD
:101FF8000028306822462CD00121FFF71DFD4B4FE9
:102008002078F863641C2046FFF71CFD00BA000A1C
:10201800E17800020843B863241D2046FFF712FD4B
:1020280000BA000AE178000208437863241D2046BC
:10203800FFF708FD00BA000AE17800020843386398
:102048000398029900020843F860039F00243F1D8B
:102058000EE00021D1E72819401CFFF7F3FC01022C
:10206800285D0143324820180160241DA4B23F1F97
:10207800042FF0DA032F04D0022F08D0012F0CD040
:1020880011E02819FFF7DEFC0102090A06E0291908
:1020980048780A780102114300E0295D2448201895
:1020A8000160241DA4B20021214F02E0E019016063
:1020B800241DFF2CFADD1D481E4A42600F220261D2
:1020C800012202604269002AFCD04269930701D4C8
:1020D800520708D401208007826810218A43826051
:1020E800002005B0F0BD01600020039A11E0C1197D
:1020F80009682954401C80B20B0A2B54401C0B0C55
:1021080080B22B54401C80B2090E2954401C80B266
:10211800121F002AEBDC3068401C30600120800769
:10212800826810218A4382600120DAE700000440B7
:1021380000010440080F0000FFB505460120800794
:10214800816881B01E46102211438160504F0020E3
:1021580038602846D730FFF769FC9D2080002C4660
:102168004059CA3480350028E86F22462BD0002118
:10217800FFF762FC464F2078F863641C2046FFF79F
:1021880061FC00BA000AE17800020843B863241D24
:102198002046FFF757FC00BA000AE178000208431E
:1021A8007863241D2046FFF74DFC00BA000AE17849
:1021B8000002084338630398029900020843F86054
:1021C8000024039F0EE00121D2E73019401CFFF7DD
:1021D80039FC0102305D01432E4820180160241D9E
:1021E800A4B23F1F042FF0DA032F04D0022F08D027
:1021F800012F0FD014E03019FFF724FC0102090A5F
:1022080009E0311948780978000208432149611822
:10221800086003E0315D1F4820180160241DA4B246
:1022280000211C4B02E0E0180160241DFF2CFADDA0
:102238000F221748120242600F2202610122026037
:102248004269002AFCD00160039A0020121D11E0A7
:10225800C11809683154401C80B20C0A3454401C1F
:102268000C0C80B23454401C80B2090E3154401C0E
:1022780080B2121F002AEBDCE86F401CE8670120DF
:102288008007826810218A43826005B0F0BD000093
:102298000000044000010440F8B5FFF7D9FB564997
:1022A80008600420FFF7DAFBFFF7DEFB0646C007ED
:1022B80015D052490020086051480078012811D0F3
:1022C800032813D0042815D0022817D0052819D0C0
:1022D800FFF7D0FB4B4F044601281AD01EE0FFF74A
:1022E800CFFBF8BD3046FFF7D1FB0EE03046FFF7D5
:1022F800D3FB0AE03046FFF7D5FB06E03046FFF790
:10230800D7FB02E03046FFF7D9FB40B20128E8D0FE
:102318004FE0387805280BD0062809D03A483B4DBD
:102328000078022808D0052806D0022C0ED005E037
:10233800304601F031F83CE0022C02D0012C11D0DB
:1023480014E0A87B002805D0022803D03878052897
:1023580004D00BE0304601F037F815E0304601F0C4
:1023680027F811E0012807D0062809D03046FFF7E2
:10237800ABFB022C08D01CE0304601F03DF818E019
:10238800304601F02DF814E03878012811D1700595
:102398000FD4687BC10701D0252004E0800701D550
:1023A800262000E02720297D814202D93220FFF72C
:1023B80091FB154C2078042804D003280ED0072858
:1023C80011D014E0FFF78CFB002810D0FFF78EFB2C
:1023D8005820FFF791FB0220207008E00C48807C11
:1023E800FFF790FB03E00B48807BFFF791FB03208E
:1023F800FFF734FBF8BD00009C09FF1F9809FF1F79
:102408009009FF1F1C09FF1F2309FF1FA60BFF1FB1
:10241800BC0BFF1FD40BFF1F10B5FB2908D8084BB6
:102428009A4205D81B2903D3FF2349339A4201D284
:10243800302010BD034B19825A82FFF76FFB10BD85
:10244800480800008410FF1F10B5FFF76DFB024914
:102458000020488010BD0000E440FF1FC106C90EDF
:1024680001208840014908607047000000E100E051
:10247800024901480860704740787D01E040FF1F2D
:102488008307FF22DB0E9A408907090E994000282E
:1024980008DB830809489B001B1818689043084309
:1024A800186070470007000F0838830804489B002D
:1024B8001B18D86990430843D861704700E400E0CE
:1024C80000ED00E002E008C8121F08C1002AFAD196
:1024D80070477047002001E001C1121F002AFBD19C
:1024E800704700000248C069002800D000477047C4
:1024F8004003FF1F1CB569460120FFF71BFB0120A5
:1025080000900348019000F0CDFA01201CBD0000A6
:10251800BB0B0000044629A0FFF712FB2DA0616A3F
:10252800FFF70EFB2FA0A16AFFF70AFB31A0E16AB3
:10253800FFF706FB33A0216BFFF702FB35A06168AC
:10254800FFF7FEFA37A0A168FFF7FAFA39A0E168A9
:10255800FFF7F6FA3BA02169FFF7F2FA3DA061699F
:10256800FFF7EEFA3FA0A169FFF7EAFA41A0E16997
:10257800FFF7E6FA43A0216AFFF7E2FA45A0616B8C
:10258800FFF7DEFA47A02168FFF7DAFA49A0A16B46
:10259800FFF7D6FA4BA0E16BFFF7D2FA4DA0216CFA
:1025A800FFF7CEFA4F4841684FA0FFF7C9FA5248E3
:1025B8000068002800D08047FEE700005B48617291
:1025C80064206661756C742068616E646C65725D08
:1025D8000A00000052302020203D20307825303875
:1025E800780A000052312020203D203078253038EC
:1025F800780A000052322020203D203078253038DB
:10260800780A000052332020203D203078253038C9
:10261800780A000052342020203D203078253038B8
:10262800780A000052352020203D203078253038A7
:10263800780A000052362020203D20307825303896
:10264800780A000052372020203D20307825303885
:10265800780A000052382020203D20307825303874
:10266800780A000052392020203D20307825303863
:10267800780A000052313020203D2030782530384B
:10268800780A000052313120203D2030782530383A
:10269800780A000052313220203D20307825303829
:1026A800780A000053502020203D2030782530380B
:1026B800780A00004C522020203D20307825303800
:1026C800780A000050432020203D203078253038FB
:1026D800780A000050535220203D203078253038A9
:1026E800780A000000ED00E049435352203D2030B5
:1026F80078253038780A00009840FF1F10B500F0A0
:10270800C5F9FFF7F7FE002802D00248804710BD40
:10271800FEE70000E1A20000F0B585B00546029191
:10272800002927D0154F0024144E803F0023009421
:102738000222194605200194FFF708FA306980073C
:10274800FCD420200090411E009101D30846FAE7EE
:1027580038680028FCDA012103A8FFF7FDF968466C
:10276800007B284007D00520FFF7FCF90298401E9F
:102778000290DBD1112005B0F0BD000080C80040F8
:1027880010B5FFF7F5F90120FFF7F8F9FFF7FCF9A5
:10279800002010BDF8B54D484068C043000603D579
:1027A8003C20FFF7DFF9F8BDFFF7F4F9474D07467E
:1027B800803D28680121890408432860E869444964
:1027C80008402830E8610320FFF7CCF9686AC6039F
:1027D800F60B0320FFF7C6F9686AC403E40B03206D
:1027E800FFF7C0F9686AC503ED0BA64201D320467E
:1027F80000E03046A84200D32846A64201D331461D
:1028080000E02146A94200D22946324AB218C32A1A
:1028180026D2304AD243944222D92F4B9C421FD20F
:1028280095421DD99D421BD2081A132818D2274851
:1028380041680C22914341604168FF221202914392
:1028480041601420FFF78EF920488038416AC26938
:10285800C903C90B08239A43C2612048C160F8BD67
:1028680026462C460320FFF77DF918488038406A31
:10287800C503ED0BFFF78EF9B84201D3C01B01E089
:10288800C01B401E16498842AFD310484168090A48
:1028980000914268FF2109028A430099491C0906F0
:1028A800090C0A43426041680C229143091D4160AA
:1028B8000020FFF775F90B48009988400A498842BB
:1028C80000DB0846FFF739FB8FE70000C0F0004047
:1028D80000FEFEFF91FCFFFF32040000E440FF1FF2
:1028E800E40C0000E880000060361E00F8B53D48A2
:1028F80040683C4C0006803C8021002806DB60686C
:10290800084360600320FFF72DF9F8BD364D00201D
:10291800686120680122920410432060334F606888
:102928008021084360600320FFF71CF96869401C98
:102938006861606801210904084360600026E06955
:102948002B4938404018E0610320FFF70BF9606A13
:10295800E169C003C00B08229143E161E9680622DE
:102968005143814201D3091A00E0411A3C2909D296
:10297800E269012109048A43E26162688A4362606C
:102988002861F8BD761CF6B2052ED8D3E16901207E
:1029980000048143E16161688143616068692E4692
:1029A800052807D3BFF34F8F13491248C860BFF3F8
:1029B8004F8FFEE760688021884360600320FFF73F
:1029C800D1F8E06938402830E0610320FFF7CAF801
:1029D800606AC003C00BF060E16908208143E161CF
:1029E8009DE70000C0F00040E440FF1F00FEFEFF2E
:1029F800280001000400FA0500ED00E0F8B50446DF
:102A08000120FFF7AFF8FFF7D1F81849184A086016
:102A1800966A184B1E60184BDF6A184D2D68AF4236
:102A280002D2DB6AEB1A00E00023154D2B60331944
:102A3800D362536A2924E40323435362114A127868
:102A4800002A0FD0104A1378022B07D01378012BD5
:102A580006D01278032A06D0C01E02E00F3800E024
:102A680008380860F8BD401FFBE70000E408FF1FB6
:102A780000F00040340AFF1F00100040180AFF1F32
:102A88001C0AFF1F1C09FF1F4A0AFF1F03490020D9
:102A980048610349086048607047000040F0004002
:102AA80040F1004070B58AB000241E4D049405948E
:102AB8002878012806D004A90120FFF73BF8002850
:102AC80002D000200AB070BD0498009005980190CB
:102AD800154881680291C0681349039006AA10310D
:102AE8006846FEF79DFF104E10222036314606A894
:102AF800FFF762F8002811D0012028700B4A3146F0
:102B08006846FEF78DFF049400206946059482000C
:102B1800401C8C500428FADB0120D3E7FF202870E2
:102B2800CFE700000841FF1F002900117873FF1F3D
:102B380038B5FEF757FF01229207936A08240094DC
:102B4800002B01D1012090620A48022101600099FE
:102B58004D1E0095FBD2032101600094641E009471
:102B6800FCD200210160002B00D19162FEF752FFD8
:102B780038BD000000C0004001218907012220283B
:102B880004D28B68824093438B607047402805D2FB
:102B98004B692038824093434B6170476028FCD2D0
:102BA8000B6A4038824093430B62704701229207B8
:102BB8000121202804D2936881400B439360704719
:102BC800402805D25369203881400B435361704730
:102BD8006028FCD2136A403881400B431362704767
:102BE800012110B589070122202813D20346153B7D
:102BF800012B07D80A68202082430A600A6802432A
:102C08000A6010BD0B68824093430B60086810434C
:102C1800086010BD402814D20346353B032B07D863
:102C2800CA6810208243CA60CA680243CA6010BDDD
:102C3800CB68203882409343CB60C8681043C86093
:102C480010BD6028FCD24B6A4224201A824093436C
:102C58004B62486A1043486210BD0000F0B52C4C26
:102C680089B02078012818D0FFF780F9294D0790FE
:102C780028698007FCD4202700970098411E0091FE
:102C8800FBD2244E803E30680028FCDA224901201D
:102C9800FFF742FD002821D102E0002009B0F0BD75
:102CA8000020009003460146019003229F20FEF772
:102CB8004DFF032102A8FEF74FFF28698007FCD4C7
:102CC80000970098411E0091FBD230680028FCDA7A
:102CD80011490120FFF720FD002801D01120DDE770
:102CE8000798FFF752F902980C4A0002000A606040
:102CF8006846817A012308461138052802D8184603
:102D0800884001E00120C004A06090612370C4E7FE
:102D1800D440FF1F80C80040FFFFFF078008FF1F47
:102D280030B58DB0302217496846FEF74BFF0024B6
:102D38006D46600041194978285CFEF749FF641C1C
:102D4800E4B2172CF5D310484169C200914305221B
:102D580012048918416141690122520611434161F7
:102D680041690322520591430122520589184161A4
:102D78000120FEF733FFFEF737FFFEF73BFF0DB0EC
:102D880030BD0000C03FFF1F00F000401CB51A49CD
:102D98001F20087019480124047019490020087080
:102DA8001848C16B490949010931C163C16B6022E7
:102DB80091432031C16300F02DF800210420FFF772
:102DC8005FFB01211420FFF75BFB01211520FFF7B2
:102DD80057FB01211720FFF753FB21030A48FEF791
:102DE8000FFF042003460090012208490194084877
:102DF800FEF70CFF1CBD0000480AFF1F490AFF1F11
:102E0800680AFF1F80F000403851FF1F1841FF1F5C
:102E1800B44EFF1F10B5FFF771FC10BD70B540250B
:102E28001C4C012802D0002811D027E06069052138
:102E380040014009C90640186061E0691649084028
:102E480016494018E061E0692843E06116E0002176
:102E58000A20FEF7BDFE00210B20FEF7B9FEE0694F
:102E6800032109020843E061E069A843E061606961
:102E78000B21400140090907401860616069012180
:102E8800090708436061A069032149048843A061D8
:102E980070BD000000F000407F00FEFF80FD0100D3
:102EA80010B5064AD160906000F00CF8044A002181
:102EB8001320FEF7B1FE002010BD0000C440FF1F24
:102EC800CD2EFF1FF8B500251848009542680078F8
:102ED8002B460121FEF7A6FE1649154888630120F6
:102EE800154980040860BFF34F8FBFF36F8F1348F5
:102EF8000168FF22120402269143B20511430160C2
:102F0800642000904120FFF751FE4020FFF74EFE5D
:102F1800740766620098411E0091FBD2032060622C
:102F2800FFF706FEA562FFF799FEF8BDCC40FF1F2C
:102F3800050001FF00C8004080E100E010E400E067
:102F48007047000070B50D460446282910D1A4200A
:102F5800005BE188401A0B4980B2884208D32146B9
:102F68006A3105220E46481FFEF726FE002804D0C7
:102F780029462046FEF75CFE70BD31462046FEF726
:102F88005DFE70BDFF7F000010B5002901D0FEF77F
:102F98005BFE10BD70B5264D264E2868002804D06B
:102FA800FEF758FE2978C84004E0FEF753FE316862
:102FB800FEF756FE04462868002804D0FEF756FEA1
:102FC8002978C84004E0FEF751FE3168FEF748FE54
:102FD8001949A122897892005143184A184B12685E
:102FE80089180D78174A002D17D0FF31FF310231AB
:102FF8004C6C1548641C4C6400689968884201D37D
:10300800401A02E0114B591A0818D2381060012CE6
:1030180002D1FF30F530106070BDFF31FF3100255F
:1030280002314D645968201AC9684018F3E7000056
:103038001C08FF1F1808FF1F300DFF1F3409FF1F52
:10304800E440FF1FA009FF1F9C09FF1FFFFF3F006F
:10305800F3B506466548A12180788900484364494C
:1030680083B00968A12244182046FF3021305F4907
:1030780000908978920051435D4A407D126800258E
:103088008F18FF37813732281DD022281BD0F86AC5
:103098000168002909D08188001D090A891CFEF7EA
:1030A800EBFDF96A002001250860FEF7EBFD0499A5
:1030B8002746FF370880C137387C002821D0B04226
:1030C8001FDC002014E04B49012008600020F96A49
:1030D80001250860E9E780000019FF308130006BA6
:1030E8008188001D090A891CFEF7C6FD0198401C4D
:1030F8000190397C8142EEDCC8B2361A45190020AD
:1031080038743D490020C870FF20AD30005901686F
:10311800002903D00079C04380071ED00098C07DE5
:1031280000281AD00098807D002816D1387CB0423B
:1031380013DAFF204930005B010A2046FF3049308E
:10314800891CFEF799FD00990020C8750098012197
:10315800817529486D1CC170761E387C002802D004
:10316800284605B0F0BD2046FEF792FD00900028E5
:1031780021DD002E1FDD002718E02046FEF78EFD1A
:1031880080000019FF300130C06E8188001D090AD7
:10319800891CFEF771FD2046FEF786FDE01DFF3015
:1031A800FA30016A6D1C491C7F1C01620098874235
:1031B80001DAB742E1DB092080012018817E00296D
:1031C80011D0017D00290ED0428E002A0BD0817FBC
:1031D800914202D2491C817705E0002181771A21AA
:1031E8002046FEF767FDA8B2BBE70000300DFF1FC1
:1031F8003409FF1F00140340E010FF1F70B54E484C
:103208000068012803D14D48816D491C8165FEF78E
:103218001FFC4B4D4B49A8604B4841610124C460D9
:1032280004602878002806D0062248494848FEF756
:1032380047FD002028704749486B474AC0B21278BA
:10324800002A17D1454A0023D356002B444BD356A6
:1032580006DB1B04002555572A029A18121808E0A5
:10326800FF331B04002555572A029A183D4B1218A4
:10327800D2184A63022801D2022002E0502800D95D
:103288005020394A1278022A11D0384A1578384B1A
:103298001E78B5420FD915781B78EB1A801E40109E
:1032A800434310784001C01A1030401104E0314AFD
:1032B8001578314BECE710784A69120A120210436C
:1032C8004861FEF7D7FB0546052801D0042D1ED11D
:1032D8002A480078002806D029480078002802D01B
:1032E8000020FEF7F3FC2748A12180788900484395
:1032F800254909684018FF30FF300230007B042858
:1033080001D0032803D1FF205F30FEF7F5FB022D23
:103318000ED11E480078012807D0032805D00228BE
:1033280003D01B480078022802D16C20FEF7E4FB8A
:103338001848C48270BD00009809FF1FFC0FFF1FCA
:10334800E440FF1FFF3F000000100340D50BFF1FA4
:103358007211FF1F800003408C09FF1F680AFF1FBE
:1033680000000000FFFE0000490AFF1F440AFF1F7B
:10337800450AFF1F460AFF1F470AFF1FF908FF1FDC
:103388002209FF1F300DFF1F3409FF1F1C09FF1FF3
:103398002309FF1FBC0BFF1F10B50449096800294A
:1033A80001D0884710BDFEF78FFB10BD8002FF1FBC
:1033B80010B504498968002901D0884710BDFEF777
:1033C80083FB10BD8002FF1F10B50449496800291E
:1033D80001D0884710BDFEF777FB10BD8002FF1FA4
:1033E80010B504490969002901D0884710BDFEF7C6
:1033F8006BFB10BD8002FF1F10B50449C968002986
:1034080001D0884710BDFEF75FFB10BD8002FF1F8B
:103418007CB5204C012020701F4D2870FEF75CFC05
:10342800FEF760FCFFF7B2FCFFF77AFC2078FEF7A6
:103438005FFC2878FFF7F2FCFEF760FC174903C928
:10344800FFF72EFDFEF760FCFEF764FC144915A09B
:10345800FEF766FC1949097819480078019100902F
:1034680023782A781748017817A0FEF759FC224CD0
:103478000821224621A0FEF753FC0123A1221B03A9
:10348800920021462948FEF74BFCFFF779F9002006
:103498007CBD00004A0AFF1F9440FF1FB83FFF1F72
:1034A8000101030053444B2056657273696F6E2007
:1034B80049442025303878200A000000450AFF1FBB
:1034C800440AFF1F4B0AFF1F7266436C6B2025647A
:1034D800207263436C6B20256420737973436C6B93
:1034E8002025642074704361705B25303278202574
:1034F8003032785D0A0000009C0D000073697A651F
:103508006F6628737472756374206C6C5F706B746B
:103518005F6465736329203D2025642C20627566ED
:103528002073697A65203D2025640A00FC3FFF1F4F
:1035380010B500240420FEF7F9FB074904220860AF
:103548000021FEF7F9FB20460124FEF7FBFB20468D
:10355800FEF7FEFB10BD0000A040FF1FF8B51E4897
:103568004168090601D50020F8BD41688022114351
:103578004160194D0A260027803DE869400840004F
:10358800E8610620FEF7EEFA134CC03CA0698021E2
:103598000843A061E86901210843E86102E00820C6
:1035A800FEF7E0FAA86A800504D43046761EF6B223
:1035B8000028F4D1002E07D0286A7E21C70BA06905
:1035C8000F4088433843A061A16980208143A161ED
:1035D8003806400EF8BD0000C0F0004010B500F0FD
:1035E800A5FA044A0121582000F010FAFFF7B6FFA7
:1035F80010BD0000600AFF1F30B53848016801227D
:103608009204114301604168032212069143344A2F
:1036180013781B06194341604368032189058B43CE
:1036280030490C78A405234343604368602423434E
:1036380043601378022B08D01378012B05D00B7840
:10364800022B02D00B78012B04D14368FF240134EC
:10365800234343601278032A02D00A78032A03D14D
:10366800426880231A434260426803239B041A433A
:1036780042600B780122D2051B48002B03D11B4B5B
:103688001B78032B19D0C3689343C360164A184BA1
:103698004032D360FF2581351561164C5461164BB5
:1036A8009361114B80335D609C60144CDC60144B5B
:1036B80003600978002903D006E0C3681343E4E7F0
:1036C80001680123194301600E4909780E4BC906A8
:1036D800C90BC91881630D48D06130BD40F0004066
:1036E8004C0AFF1F4B0AFF1F800003404A0AFF1FB6
:1036F800C00B00207A3E6A07000089040080890414
:10370800CC240000480AFF1F250800002FFCA60152
:10371800F8B505004A484B4B4B4C4C4A4C4934D001
:10372800022D32D086155710066286699E43B3185B
:1037380083612078002833D00F61464808634648E3
:1037480000780122120380184861414E404C434BD7
:10375800803E403C002D27D06521414AC90241489E
:10376800012D2ED0022D31D0032D5AD0042D58D042
:103778003D49691831603D49A1602360E06002213C
:103788000846FEF7EBFA3A482BE08026066286697F
:103798009E430123DB04F61886612078002801D0B7
:1037A8000A61CAE70B61C8E7324830600020A060B0
:1037B80023603148E06003210846FEF7CFFA2F481E
:1037C8000FE02F4B3360A2602160D7E72C4B5B1CC6
:1037D8003360A2602160E06002210846FEF7BEFA6D
:1037E80028482061F068FF210843F060264860619E
:1037F8002648A0612648E061264820622648606283
:103808002648A0622648E06226482063264860636E
:10381800E020012D0DD02168022D0ED081432160BA
:10382800F8BD224BEB183360214B73602160A26016
:10383800A4E7216881432031F1E781434031EEE775
:10384800C000034000001C004B0AFF1F00000400DA
:103858008000034003000001440AFF1F00280B00FA
:1038680055555537D6BE898E0080064255555500A8
:10387800805508220080067807EE75368066082293
:103888000180063D80450822A49C5C544C44434278
:1038980041524C46403A342E28007F554F49433D0B
:1038A80037312B4C46403A342E28221C008006988B
:1038B800545A9850F0B5224B214D21498026204A70
:1038C8000727BF04403BC03DE02480390228166228
:1038D800966914D0BE430127BF04F6199661194AA8
:1038E8001278002A1ED07A101A6101281ED0164AB2
:1038F80080182860154808610868A04314E0012072
:10390800BE43C004361896610E4A1278002A00D0C9
:10391800401018610E4828600E4808610868A043E6
:10392800403001E01F61E0E70860F0BD0848401E34
:103938002860094808610868A0432030F4E70000BF
:10394800C00003404B0AFF1F0080069880550822DC
:103958000280063D804508228066082210B50A4983
:1039680000200870094902200870FFF745FE084842
:10397800007800F011F8074C2078FFF7C9FE20788E
:10398800FEF7F2F910BD00004B0AFF1F4C0AFF1F9B
:10399800480AFF1F490AFF1FF0B51A4A03230725E3
:1039A800D60019499B026024ED0157693F281AD0B7
:1039B800B74305263604BE195661CA689A43CB1424
:1039C800D218CA60CA69A2432032CA61CA69AA4326
:1039D800CA610D4940398A6BC0061205120DC00B29
:1039E80002438A63F0BDB7430126B604BE19566187
:1039F800CA689A43CA60CA69A243CA61CA69AA4323
:103A08008032E5E700F00040C0000340F8B53A4BCB
:103A18005D6A9C6A00265E629E62384B58630E207F
:103A280018629E155E62402098625020D862FF207E
:103A38002B30586231484030012915D0802101626D
:103A48002F49FF232D48A533403083602D4B436019
:103A58002A4B2D48403B18617D20C0000090471E2E
:103A6800009705D33846FAE7066225498331E8E727
:103A7800264889050F18214840388763234B5B1C6B
:103A8800C918816322480090224800780300FEF795
:103A980071F905040408060D08001F4800E01F48D6
:103AA80000901F4810601548403005E01D48F7E7B2
:103AB800C16AC943890F14D000994B1E0093F7D2ED
:103AC8000E4940398F630D4900228A62CA628260BA
:103AD8004E620A62FF2041304862074845628462AC
:103AE800F8BDC16A104B1940116011680122090C18
:103AF800120489184160E3E7001003408000034086
:103B0800CA0200002020000080560C2064652100B5
:103B1800102700004A0AFF1F204E000030750000E1
:103B280000002020409C0000FFFF3F3F00B500211F
:103B3800022000F021F80C49801C08700021422066
:103B480000F01AF80949801C08700121022000F0D1
:103B580013F80749801C08700121422000F00CF876
:103B68000449801C087000BD440AFF1F450AFF1F56
:103B7800460AFF1F470AFF1FF8B53B4C394A226027
:103B8800394D394A07239B04803540320129A969F8
:103B98000ED0994301239B04C918A9613349D16008
:103BA80033490B780121C905324E002B07D009E0B3
:103BB80099430123DB04C918A9612F49EFE733783A
:103BC800032B14D0D3688B43D36050630E2010624C
:103BD80000275762FF20153050622848009030783F
:103BE8000300FEF7C7F80507070D090B0D00D3689A
:103BF8000B43E9E7224802E0224800E0224800900F
:103C08000098431E0093FBD2686B57620002000EB7
:103C180017621E4BD360FF23413353626523DB02D7
:103C280023601B4D2F78E023012F0AD02D78022D19
:103C380025680AD09D4325600D4B1B78002B07D0C3
:103C480009E025689D432035F5E79D434035F2E7B7
:103C58003378032B03D0D3688B43D360F8BDD36884
:103C68000B43FAE710000300400003407F40730055
:103C78004B0AFF1F4A0AFF1F7F405300102700000E
:103C8800204E000030750000409C000040401000AD
:103C9800490AFF1FF8B5614C60688030806880F37E
:103CA8000888FEF719F85E485E49006802258842D0
:103CB80006D00020FDF774FF68070169A943016178
:103CC80000F0D6F858480078FEF74EF8574E002016
:103CD800F061F561564D75610120FDF743FF032042
:103CE800F061FDF757FF0746FDF7B2FE0646FDF700
:103CF80051FF50490860FFF731FE4F48006887427E
:103D080001D9381A01E0381A401E4C49884200D9B6
:103D1800084061688A8DD20709D0494A030C1268A5
:103D280080B2534350431B02000A18180BE0C2012B
:103D38008300D21A4300D21AC3001818921C80308C
:103D48009208400A1018E061FF313E480131496885
:103D5800006809183C480068081A41198B083B4854
:103D68008A073B4903600D68920F52190A60042ABA
:103D780004D95B1C9207920F03600A60E169354F12
:103D8800C8183946FDF76CFF02463348334D0368BF
:103D9800D31803602A688A182A60BA4206D95B1CBD
:103DA800036039461046FDF75BFF2960FDF7E8FF21
:103DB8002B480078002810D0FDF74AFE294AE1690F
:103DC800801B12680B18934202D2511A091A01E09B
:103DD8007D21C9001548FDF7D9FF234D287A002811
:103DE80011D0FDF735FE811BE3691048EA685C18BD
:103DF8003C30A24202D9D21A511A00E01B49FDF701
:103E0800C5FF00202872FDF7C7FF0220FDF726FE38
:103E18000020FDF7C5FEFDF7B7FEF8BDE440FF1F23
:103E28000C0AFF1FB6412103490AFF1F001000407A
:103E3800C4090000100AFF1F340AFF1FFFFF3F00DC
:103E4800380AFF1F1C0AFF1F200AFF1F240AFF1F32
:103E5800280AFF1F710200006008FF1F2C0AFF1FBD
:103E68001C09FF1FE408FF1F740BFF1FDC0500007F
:103E7800F8B5FEF70BFEFEF735FB0120404E00902B
:103E88003078404C022810D0FDF784FE05463220D9
:103E9800FDF768FEFEF77EFC0F20FDF763FE307825
:103EA800012808D0FEF722FD1AE037484068006A6A
:103EB800FDF758FE24E033484038C06B4007400FF8
:103EC800012802D10020FDF713FF6068FF270137A2
:103ED800B84360600220FDF745FE606838436060C3
:103EE800FDF758FEA84201D3401B01E0401B401ECD
:103EF80025491E2288615043244A49688018C861B0
:103F0800244923480860234823498030C163FF219E
:103F1800413141623078FDF7EBFE20492048FDF73A
:103F280035FF1F481F491430FDF730FF0420FEF706
:103F380095FA1420FEF792FA1520FEF78FFA17204B
:103F4800FEF78CFAFF20FDF7C1FE0120FDF72AFFDE
:103F5800FF20F530FDF72CFF5820FDF7CDFD124866
:103F6800FDF72CFF0098FDF72FFF0720FDF732FF24
:103F7800E0690E490840FF300930E061F8BD0000F3
:103F88004A0AFF1F40F00040E440FF1F720600008D
:103F98000180063D00000340340800007102000063
:103FA80014100040FFFF3F003075000000FEFEFFC8
:103FB800000000003B0001080200030005020602A1
:103FC8000703080309030A000C030D030003010398
:103FD80004030B000E030F03100311031203130352
:103FE8001403150316030000F15900001905021106
:103FF8000200000073697A656F6628675F70436F17
:104008006E6E656374696F6E4275666665722920A7
:104018003D2025642C2073697A656F662870436F8C
:104028006E6E436F6E7465787429203D2025642C6C
:104038002073697A656F66286C6172676548656187
:1040480070293D2564200A005048592B36325858AB
:10405800504C555330353034000000000004FF1F29
:104068001841FF1F0C000000CC24FF1F1841FF1F40
:104078000004FF1F000400007C19FF1F1841FF1FE8
:104088001841FF1F703E0000DC24FF1F00000000E5
:104098000000000000000000000000003C1D0211AC
:1040A800141D021102000000882108005902E001D5
:1040B80000000000000000000000000000000000F8
:1040C80000000000040000003B00010800000000A0
:1040D800000000000000080040787D01000000009A
:1040E80000000000000000000000000000000000C8
:1040F8000100000000000000000000005040FF1F09
:1041080000000000000000000000000000000000A7
:040000051FFF18F9C8
:00000001FF
