:020000041102E7
:1000000003B40148019001BDADAE000003B4014846
:10001000019001BD456B010003B40148019001BD91
:100020000189000003B40148019001BDC53F0000F3
:1000300003B40148019001BDE94C010003B401483B
:10004000019001BDC95C010003B40148019001BDEC
:10005000B30E000003B40148019001BD5135FF1FEC
:1000600003B40148019001BDD1A5000003B40148CB
:10007000019001BD090E000003B40148019001BDCB
:10008000810E000003B40148019001BDE534FF1F5B
:1000900003B40148019001BD75A9000003B40148F3
:1000A000019001BD9DA9000003B40148019001BD6C
:1000B0005138FF1F03B40148019001BD6189000060
:1000C00003B40148019001BDF533FF1F03B401489B
:1000D000019001BD252DFF1F03B40148019001BD12
:1000E000ED30FF1F03B40148019001BD810E0000F7
:1000F00003B40148019001BDE935FF1F03B4014875
:10010000019001BD3D31FF1F03B40148019001BDC5
:100110009D30FF1FF8B5D349D14A002004464A60FC
:100120008300401CD450FF28FADD4868CE4A0146BF
:1001300080318A606E22C262CC4A1278002A01D0D5
:100140007F22C2620A220265C94A13788363C94BBF
:10015000C36115781023022D08D01578012D05D024
:100160001578032D02D01578042D00D10362C24DFD
:1001700045611925AD0185613725CD6036272826D3
:10018000C7630825466405644F6032270F603B272C
:10019000CF634127CF6439274031E0C132274F6018
:1001A00002274F6142270831E0C11E274F60CE6011
:1001B0008D6005264E6142260E615A2660390E6119
:1001C0004D613C258D61AF25ED000560AB4D0563AC
:1001D0001578022D09D01578012D08D01578032D3A
:1001E00007D01578042D06D007E0152504E04360FC
:1001F00003E00E2500E00C254560FF252D358560C8
:10020000C560FF25F53505619D4D85647D25ED00B3
:100210009C4ECD67C66445629B4D85627325C5655E
:10022000062545658565C51D0826F93502272E601A
:1002300047664B27FF0087660927C766934F076706
:100240004667BE108467C667914F8E4E3E60167833
:10025000022E09D01678012E0AD01678032E0BD064
:100260001278042A0CD00EE01A22CA61212205E07D
:100270001422CA61182201E01322CB610A6202E053
:100280000E220B62CA617E4A8A627D22D2008A6790
:1002900064224A620522CA6202220A63C8228C636F
:1002A0004A63382169607B4929647B49A9614B21F4
:1002B000C900E9617349FF30643929627D21090170
:1002C0006962EC661E212C67A9667049A965E9651B
:1002D00089102966696469677049A9677049714A1C
:1002E0008130E967026082604160FF21F531C160C1
:1002F00001616E486C495A4A81606D49803A1161CA
:100300006A496C4A80318A626B4ACA626B4A82616E
:100310006B4AC2626B4A02636B4A64484038C263EC
:100320006A4ACA616A49816360496A4840318861A2
:100330006A49694888605D48694A80384260694A0C
:100340004263694A0A626949816058496848C0390C
:10035000C860FFF755FE0120FFF758FEF8BDF3B562
:100360000746644881B0C169634A1140FF310931D1
:10037000C161002613E000252C461120FFF74CFE3A
:100380005C48406A8007800F610088402843641CF5
:10039000E4B20546102CF0D301C7761CF6B20298E1
:1003A0008642E8D3FEBD10B52E4C607800280AD1F5
:1003B00004215248FFF7D3FF504804211030FFF7C3
:1003C000CEFF0120607010BDF0B500248BB00D464B
:1003D0000646102902D901200BB0F0BDFFF7E3FF5C
:1003E000464900200A5C401C1419C0B21028F9D3F9
:1003F000002C03D0102D03D90B20EDE70E20EBE7E6
:100400003F483E4C0023006802A91034E25CC75C00
:100410007A40CA545B1CDBB2102BF7D306AA3748CC
:10042000FFF700FE102D00D910252A4606A93046F8
:10043000FFF7FEFDFFF702FE216840182060FFF77E
:10044000FDFD616840186060FFF7F8FDA168401885
:10045000A060FFF7F3FDE1684018E0600020BBE713
:100460000004FF1FD853FF1FC87EFF1F4C53FF1F00
:100470004A0AFF1F3A07000080C3C9019A02000020
:1004800050C30000280A00006A180000204E000037
:10049000F009FF1F0040001168100000DC0500009B
:1004A00040420F0010270000713BFF1F0001FF1F9B
:1004B0007523FF1F1145FF1FE947FF1F8120FF1F05
:1004C0001522FF1F9D20FF1F952CFF1F8D50FF1F22
:1004D000B14EFF1FB538FF1FF524FF1F0002FF1F9D
:1004E000FD38FF1FC539FF1F0939FF1FB938FF1F2E
:1004F0002525FF1F40F0004000FEFEFF987AFF1FF9
:10050000F853FF1F002809DB00BF00BFC206D20E50
:1005100001219140024A116000BF00BF70470000F6
:1005200000E100E010B5002819DB1A4A03231B0282
:10053000D21883089B00D2588307DC0EFF23A34008
:100540009A438B071B0E8407E40EA3401A43114BFA
:10055000032424021B198408A4001A5118E00E4A2F
:1005600003071B0F083B9B089B00D2588307DC0E38
:10057000FF23A3409A438B071B0E8407E40EA3407E
:100580001A43054B0407240F083CA408A4001A5181
:1005900010BD000000E100E01CED00E010B50028F7
:1005A00019DB1A4A03231B02D21883089B00D25876
:1005B0008307DC0EFF23A3409A438B071B0E84079F
:1005C000E40EA3401A43114B032424021B19840890
:1005D000A4001A5118E00E4A03071B0F083B9B08A2
:1005E0009B00D2588307DC0EFF23A3409A438B075E
:1005F0001B0E8407E40EA3401A43054B0407240F87
:10060000083CA408A4001A5110BD000000E100E05D
:100610001CED00E010B5002819DB1A4A03231B0269
:10062000D21883089B00D2588307DC0EFF23A34017
:100630009A438B071B0E8407E40EA3401A43114B09
:10064000032424021B198408A4001A5118E00E4A3E
:1006500003071B0F083B9B089B00D2588307DC0E47
:10066000FF23A3409A438B071B0E8407E40EA3408D
:100670001A43054B0407240F083CA408A4001A5190
:1006800010BD000000E100E01CED00E070B5054881
:10069000C56B044840300468C4602946204600F019
:1006A0007FFB70BD0080004010B50A4C60690028D7
:1006B00000D110BD207E002805D0074A2146002029
:1006C00001F018F804E0044A2146002000F0A4FFDD
:1006D00000BFEEE7387AFF1F0060004010B50A4CFB
:1006E0006069002800D110BD207E002805D0074A8F
:1006F0002146012000F0FEFF04E0044A21460120CB
:1007000000F08AFF00BFEEE7687AFF1F007000402C
:1007100030B504460D46072C01DB102C01DD062008
:1007200030BD002D0CD00021204600F02BF90948E7
:100730000068E11F01228A4010430649086007E073
:1007400004480068E11F01228A4090430149086083
:100750000020E5E700380040002907D0074AD268AA
:10076000012383401A43054BDA6006E0034AD2684E
:10077000012383409A43014BDA6070470038004000
:10078000FCB504460F46002001900025FF2C27D021
:100790002046E117890F09188E10E117890F0918F3
:1007A00089108900611A00910099C806050E681D1C
:1007B000C0B201900B48B10041580198421B521C35
:1007C00001209040421EAA40084690433946A94065
:1007D00008430449B200885001212046FFF7BCFFBE
:1007E000FCBD00001838004010B511480078002802
:1007F00001D0072010BDFF212D310D48FFF724FC4B
:1008000001200B49087000200A49086348630A491F
:100810000862486202211020FFF784FE1020FFF7D3
:1008200071FE064A06490D20FFF714FC0020E1E79F
:100830002C78FF1F0080004080F00040890B0211DF
:10084000CD0A021101461048426B4B1A5B1C012075
:100850009840431E8B401046984301228A40104323
:10086000094A50631046026B4B1A5B1C01209840EA
:10087000431E8B401046984300228A401043024A90
:1008800010630020704700000080004010B5024651
:100890000B46172A01DB052010BD1248816B012091
:1008A000904001430F488163416B012090400C460A
:1008B000844321460B484163C16B012B03D10120C6
:1008C0009040014304E0012090400C4684432146BF
:1008D0000448C163016B012090400143014801635A
:1008E0000020D9E70080004010B5002908D0094A4F
:1008F0005269831E01249C402243064B5A6107E043
:10090000044A5269841E0123A3409A43014B5A6151
:1009100010BD00000038004030B504460D46002DE3
:1009200005D11648005D012801D1072030BD002106
:100930002046FFF711FF022C01D0032C03D1012127
:100940002046FFF7D1FF00212046FFF7E1FE012DF1
:1009500007D10B4840680121A1400843084948607D
:1009600009E0074840680121A140884304494860E4
:100970000221024801550020D8E700002D78FF1F12
:1009800000800040F0B5024655005519174E735DC2
:1009900055005519AD196C7855005519AD19A87841
:1009A000132A11DA124D9E00AE59271A7F1C012519
:1009B000BD406F1E87403546BD430E4686402E43E0
:1009C0000B4D9F00EE5110E0094D083D6E69271A4E
:1009D0007F1C0125BD406F1E87403546BD430E4636
:1009E00086403543024E083E7561F0BD971B0211EB
:1009F00008F0004001460948406801238B40184038
:100A0000002802D00548026802E00448403002692C
:100A10001046C840C007C00F70470000008000406B
:100A200030B5002926D0142803D0152801D0162867
:100A30000BD1244A52694300234C1B195C780123D3
:100A4000A3401A431F4B5A613AE01E4A0832430042
:100A50001D4CE3569B00D25843001B195C780123C0
:100A6000A3401A43174B08334400174D2C57A400DA
:100A70001A5125E0142803D0152801D016280BD1CF
:100A8000104A53694200104C121954780122A240B6
:100A900093430C4A536113E00A4A083243000A4C5C
:100AA000E3569B00D3584200121954780122A24009
:100AB0009343044A08324400034D2C57A4001351B9
:100AC00030BD000000F00040DC1B021170B50024B6
:100AD0001FE01148005D012803D1E0B20121FFF7BA
:100AE0009FFF0D48005D022812D1E0B2FFF782FFA0
:100AF000012148400546E0B2294600F07BF8E0B20B
:100B0000FFF778FF0C216143034A173289184870B8
:100B1000641C172CDDDB70BD2D78FF1F10B5142869
:100B200015DA002909D0164A126A164B1C5C0123FB
:100B3000A3401A43124B1A6220E0114A136A114A69
:100B4000145C0122A24093430D4A136216E000296F
:100B50000AD00B4A526A0B4B1B5C203B01249C4081
:100B60002243074B5A6209E0054A526A054B1B5C57
:100B7000203B01249C40A243014B5A6210BD00005F
:100B800080F00040801B021170B502211020FFF799
:100B9000C9FC1020FFF7B6FC002426E0022C01D08F
:100BA000032C03D1E0B20121FFF79EFE1048005D47
:100BB00001280CD1E0B2FFF71DFF0546E0B229463F
:100BC00000F06CF8E0B20021FFF72AFF00BF0C2014
:100BD000604307491731085C002805D0E0B200F0F7
:100BE00091F8E0B200F074F9641C172CD6DB70BDEC
:100BF0002D78FF1FF8B504460F46600020182349E2
:100C00000D5C6000201840188078401EC6B2204855
:100C1000005D022800D0F8BD1E48806B0121A14074
:100C200008431C498863132C15DA002F09D11A4890
:100C3000A90040580121B14001431748AA00815042
:100C40001EE01548A90040580121B14088431249CF
:100C5000AA00885014E0002F09D10F4808384069D5
:100C60000121B14008430C490839486108E00A48AD
:100C7000083840690121B140884307490839486173
:100C800001212046FFF74AFF00BFC4E7971B02116E
:100C90002D78FF1F0080004008F0004030B504466A
:100CA0000D46002D07D00A4800680121A1400843E5
:100CB0000749086006E0064800680121A140884312
:100CC0000349086001212046FFF726FE30BD0000E1
:100CD0000080004070B50446094D162C01DD05204A
:100CE00070BD00210C206043295405481738015578
:100CF0002046FFF711FE2046FFF7A4FDF0E70000B5
:100D00004478FF1FF8B50446244D002600270C2028
:100D1000604340194068002807D10C206043401907
:100D20008068002801D11220F8BD02211B48173825
:100D3000015501210C206043295400212046FFF772
:100D4000EBFD0C20604340194068002810D00C20B7
:100D500060434019806800280AD02046FFF74AFE09
:100D60000746002F01D1012000E0002006460EE0DA
:100D70000C20604340194068002801D0012606E09D
:100D80000C20604340198068002800D000263146BE
:100D90002046FFF77BFD0020C6E700004478FF1FD8
:100DA000F3B581B00646234D002440E00120A04069
:100DB000304000283AD00120A04002990840002885
:100DC00001D0012000E000200746E0B2394600F0E3
:100DD00033F80C20604340194068002810D00C20E4
:100DE00060434019806800280AD0012F01D00120FB
:100DF00000E000200746E0B23946FFF747FD14E067
:100E00000C20604340194068002804D0E0B2012162
:100E1000FFF73CFD09E00C20604340198068002882
:100E200003D0E0B20021FFF731FD00BF641C172C96
:100E3000BCDBFEBD4478FF1F70B504460E46104D66
:100E40000C20604340194068002808D0012E06D1CC
:100E50000C20604340194268204690470EE00C2069
:100E6000604340198068002808D0002E06D10C206D
:100E700060434019002182682046904770BD000001
:100E80004478FF1FF8B504460D4616460D4F204620
:100E9000FFF720FF0C206043C01945600C20604321
:100EA000C01986602046FFF72DFF009006480749CD
:100EB00008600098002802D02046FFF70BFF00983A
:100EC000F8BD00004478FF1F8D060211C003FF1F0C
:100ED00070B504462046FFF78DFD0546002D01D074
:100EE000012000E0002006460C2060430449401821
:100EF0004078A84203D031462046FFF79DFF70BDE1
:100F00004478FF1F02460020002900D17047137863
:100F1000002B01D1054B00E0054B1846002303725E
:100F20004B1E83800123037200BFEFE70060004087
:100F300000700040F8B504460D4616461F4620785E
:100F4000002810D110212846FFF71AFC1121304645
:100F5000FFF716FC12213846FFF712FC1321069802
:100F6000FFF70EFC12E0207801280FD1142128464B
:100F7000FFF706FC15213046FFF702FC1621384624
:100F8000FFF7FEFB17210698FFF7FAFBF8BD0000FC
:100F900010B50346002B02D01878012801DD062089
:100FA00010BD0F484069984205D00D48406C9842EA
:100FB00001D01220F4E7002901D0002A01D1062037
:100FC000EEE7187830246043054C00194162187828
:100FD00030246043024C001902840020E0E7000046
:100FE000387AFF1FFFB583B006460F4600200290F7
:100FF000002421480190FFF733F800903078012851
:1010000000D102903078002801D11C4800E01C4833
:101010000446002020720198C06A012202998A4089
:1010200090430199C86220880F218901884305995E
:1010300089010843069909020843012189020843EE
:1010400020807A08009950183946FFF70FF885B2CA
:10105000022D01DA022503E00A48854200DD05463B
:1010600065610420A0610120E0611120E06201209F
:10107000207207B0F0BD000000300040006000406A
:1010800000700040FEFF000010B5024600201378FB
:10109000002B01D1074B00E0074B184600230372D9
:1010A000036803242402A3430C02234303600123A7
:1010B000037210BD0060004000700040FFB585B0B5
:1010C00006460E9F00200390002E02D030780128A3
:1010D00002DD062009B0F0BD53484069B04205D09A
:1010E0005148406CB04201D01220F3E730783021F3
:1010F00048434D49441825461C35002F02D10F980E
:10110000002805D00698032802DC0798002801D1A2
:101110000620DFE7207F012801D11120DAE73078AF
:10112000002801D1414800E041480390304606992B
:10113000FFF7AAFF0698012803DD30460F99FFF755
:10114000E1FE207B012807D160780021FFF704FB36
:1011500060780021FFF7A2FDE07A002817D10F98F0
:101160003B4600903046089A079900F075F80490C5
:10117000207B012806D1207E002803D16078012140
:10118000FFF7EAFA049800284BD00D20A2E730467A
:1011900000F0E4F9A888B84201DA03209AE707983A
:1011A000002804D0A868002801D1032092E700207D
:1011B00028823A46A8680799FEF75EFF0398203018
:1011C000007A02210840002825D00898002801D084
:1011D0000898E86031780B31C8B2FEF753FF082F4A
:1011E00001DB082000E038460290A86800280AD0F9
:1011F000298A0298081828820298C1B2079A03988F
:1012000000F018F805E00298C1B26A46039800F0B1
:1012100011F86F8000BF012020771121304600F0C7
:10122000BFF9002056E70000387AFF1F0060004039
:1012300000700040F8B505460E4617460024FEF73C
:1012400027FF03E0385D2866601CC4B2B442F9DBB6
:10125000FEF724FFF8BD0000FFB583B00D460C98E3
:101260000290069F002403980078002801D163486B
:1012700000E063480446FEF717FF0090A7E028202F
:10128000005D02210840002870D0002F6ED0206A37
:1012900008210E1ABE4200D93E46002D5AD0330016
:1012A000FEF708FF095606090E151E293645560099
:1012B000287820664DE0287820666878206648E027
:1012C0002878206668782066A878206641E028782B
:1012D000206668782066A8782066E878206638E07E
:1012E0002878206668782066A8782066E8782066E6
:1012F000287920662DE02878206668782066A8780E
:101300002066E8782066287920666879206620E0E3
:101310002878206668782066A8782066E8782066B5
:101320002879206668792066A879206611E02878F7
:10133000206668782066A8782066E8782066287994
:10134000206668792066A8792066E879206600E042
:1013500000BF0AE00020019004E000202066019810
:10136000401C01900198B042F7D3BF1B0C98002895
:1013700002D1002F00D12BE00C9800281AD0606A0F
:10138000002813D0666A0020019009E0206EC1B2E7
:10139000059801700598401C05900198401C01902B
:1013A0000198B042F2D30298801B02900298002864
:1013B00000D10DE00098FEF783FE7D21C900884230
:1013C00005D910A0FEF782FE0D2007B0F0BD56E74C
:1013D00000BF0BE00098FEF773FE7D21C900884234
:1013E00004D908A0FEF772FE0D20EEE72820005D6C
:1013F000C007C00F0028EDD100BFE6E70060004045
:101400000070004068616C5F7370695F786D69742B
:101410005F706F6C6C696E6720544F0A00000000AB
:101420000FB438B504460025002C02D020780128DE
:1014300004DD062038BC08BC04B0184720783021F1
:1014400048431C4945186869002801D01120F1E77C
:1014500021780B31C8B2FEF73FFE6846C07D009090
:101460006846837D427D017D2046FFF763FD684627
:10147000037F427F20460699FFF7B4FD142205A999
:101480002846FEF72FFE142128461C30FEF7DCFD0F
:101490006C61012028766846C07F002804D01021A6
:1014A000204600F07DF802E0204600F057F80020CA
:1014B000C0E70000387AFF1F7FB5089C600118491B
:1014C000085C002802D0112004B070BD6846407A44
:1014D000002801D00520F7E76101114A8818202172
:1014E000FEF7B2FD60010E49401869462EC9103062
:1014F0002EC0204600F092FA01206101084A5054A3
:10150000002C05D1074A00210820FEF7A3FD04E0C6
:10151000054A00211920FEF79DFD0020D4E70000B8
:101520005879FF1F6D1B0211771B021170B504461D
:101530000D461646600108494018807E002805D0F7
:1015400032462946204600F0AFF970BD32462946A2
:10155000204600F061F9F8E75879FF1F10B5002226
:101560000178002901D10B4900E00B490A460378B4
:101570000E3359B2002909DBCC06E40E0123A34047
:10158000064C2360BFF34F8FBFF36F8F00BF002166
:10159000D16210BD006000400070004080E100E0BA
:1015A00070B504460D4600262078002801D1144865
:1015B00000E01448064611202840F0621048864298
:1015C00003D111481149886302E011480F49C863EB
:1015D00021780E3148B2002809DB00BF00BFC206E7
:1015E000D20E012191400B4A116000BF00BF00BF25
:1015F00021780E3148B20221FFF70CF870BD0000CF
:101600000060004000700040A90602118003FF1F27
:10161000DD06021100E100E0F7B586B00E46154682
:1016200034461C34286BC1B205916846007DC00762
:10163000C00F002822D0286A0821081AC0B20190E1
:10164000002717E0A068002806D0218A481C2082C5
:10165000A068405C286604E0208A401C20820020AC
:101660002866208A6188884202D11020E86204E05E
:10167000781CC7B201988742E4DB00BF6846007D52
:1016800010210840002833D0E869C0B2019000273B
:1016900008E0286EC1B2628A501C6082E068815402
:1016A000781CC7B201988742F3DB608A6188884260
:1016B0001ED1307B012803D170780121FFF74CF84F
:1016C00000202070E060608269460698087202215E
:1016D0006846417206990B31C8B2FEF709FD02A8AF
:1016E0003169884701216846417202A831698847FB
:1016F00009B0F0BDF7B58AB015460B9804461C3406
:10170000286BC1B2099108A80079C007C00F002852
:1017100020D0286A0821081A87B2002617E0208AFC
:101720006188884202D11020E86212E0A068002897
:1017300006D0218A481C2082A068405C286604E00C
:10174000208A401C208200202866701C86B2BE427F
:10175000E5DB00BF08A8007910210840002858D018
:10176000686A87B2E068002814D000260FE060881D
:10177000618A884207DD286EC1B2628A501C60828D
:10178000E068815401E0286E0590701C86B2BE426C
:10179000EDDB1DE02078002802D0608AC01960824D
:1017A000002604E0286E01A98855701C86B2BE424E
:1017B000F8DB69460A98087604216846417601A854
:1017C000079008A807700B98016906A8884700BF12
:1017D000207800281CD0608A6188884218DB142198
:1017E0002046FEF731FC69460A98087602216846D1
:1017F00041760020079008A807700B98016906A899
:1018000088470121684641760B98016906A88847F8
:1018100000BF0DB0F0BD000038B504460B461F49AF
:10182000012C00D11E490020009007E00098451CC3
:1018300000951C4DA84201DD0D2038BDC86FC007C2
:10184000C00F0028F2D112E00020009007E00098BD
:10185000451C0095134DA84201DD0D20EDE7087DE4
:10186000202528400028F2D0187808705B1C10460C
:10187000551EAAB20028E7D1009007E00098451C49
:101880000095084DA84201DD0D20D6E7087D4025D2
:1018900028400028F2D00020CFE7000000400040A0
:1018A00000900040A0860100F7B582B007461546BB
:1018B000780132494018041D314E002D02D00398A2
:1018C000002802D1062005B0F0BD2078002801D103
:1018D0000320F8E7E088A84201DA0320F3E7207844
:1018E000012816D0A0884019E188884201DD032034
:1018F000E9E7FEF7CDFBA288A16888182A4603997C
:10190000FEF7BAFBA0884019A080FEF7C7FB0020B5
:10191000D9E72A46A0680399FEF7AEFBA580002010
:10192000608002202070A0680190102D01DD102041
:1019300000E028460546012F00D1124E70680221B2
:101940008843706005E06188481C60800198405CB5
:1019500030702846691E8DB20028F4D1002F03D1C3
:101960000820FEF78FFB02E01920FEF78BFB706862
:101970000221084370600020A5E700005879FF1F8E
:101980000040004000900040F8B5054608270B26AF
:101990001D4C012D02D1192711261C4C3046002860
:1019A00009DBC206D20E01219140194A1160BFF332
:1019B0004F8FBFF36F8F00BF6901164A8918087CEB
:1019C0000021FEF7C9FE6901124A8918487C0021EE
:1019D000FEF7C2FE8020207300202071207020734B
:1019E000207260603846FEF789FB3846FEF78CFBB4
:1019F000002D03D100200849C86203E000200649F9
:101A0000403148600020F8BD004000400090004098
:101A100080E100E05879FF1F8003FF1FF0B585B01B
:101A20000646FEF71DFB0490494C082003900B204E
:101A3000029004200190052000903046FFF7A4FF9B
:101A4000012E08D1434C1920039011200290082048
:101A500001900920009070013F494018007CFF2848
:101A600007D170014018407CFF2802D1062005B044
:101A7000F0BD700138494018054610350398FEF74F
:101A80002BFB0398FEF73AFB28780221FEF77AFF3A
:101A900068780221FEF776FF28780199FEF770FE3C
:101AA00068780099FEF76CFE00202073049A1211EA
:101AB0006B685B08D0186968FEF7D8FA0746002003
:101AC0002061802020733846FF2109020840000A67
:101AD00020712770E87A002802D01B20207301E0D3
:101AE00003202073287A002802D08720207201E08A
:101AF0000020207201206060287A002803D06068EE
:101B0000802108436060A87A002803D06068022121
:101B100008436060002E03D110481149C86203E0F9
:101B200010480F494031486002210298FEF736FD07
:101B30000298002809DB00BF00BFC206D20E0121B7
:101B40009140094A116000BF00BF00BF00208EE72E
:101B500000400040009000405879FF1F9D1FFF1F6C
:101B60008003FF1F4F1FFF1F00E100E010B50020A2
:101B7000FFF754FF10BD10B50120FFF74FFF10BD58
:101B80000001020307090A0B0E0F10111214171897
:101B9000191A1B1F2021220002010005040008075A
:101BA000000B0A001716001D1C01020101050401AB
:101BB0000E0D011110011413011716011A1902025A
:101BC00001020B0A020E0D02111002141302171665
:101BD000030504030807030B0A030E0D000D000E96
:101BE000001000110013001401070108010A010B85
:101BF000011C011D02040205020702080219021A53
:101C0000021C021D03010302031700000300000071
:081C10000000000000000000CC
:020000041FFFDC
:10000000000000009143FF1F0452FF1F0C52FF1F0E
:100010005453FF1F0000000000000000000000001B
:1000200000000000000000000000000000000000D0
:1000300000000000000000000000000000000000C0
:1000400000000000000000000000000000000000B0
:1000500000000000000000000000000000000000A0
:100060000000000000000000000000000000000090
:100070000000000000000000000000000000000080
:100080000000000000000000000000000000000070
:100090000000000000000000000000000000000060
:1000A0000000000000000000000000000000000050
:1000B0000000000000000000000000000000000040
:1000C0000000000000000000000000000000000030
:1000D0000000000000000000000000000000000020
:1000E0000000000000000000000000000000000010
:1000F0000000000000000000000000000000000000
:1001000000000000000000000000000000000000EF
:1001100000000000000000000000000000000000DF
:1001200000000000000000000000000000000000CF
:1001300000000000000000000000000000000000BF
:1001400000000000000000000000000000000000AF
:10015000000000000000000000000000000000009F
:10016000000000000000000000000000000000008F
:10017000000000000000000000000000000000007F
:10018000000000000000000000000000000000006F
:10019000A535FF1F6D36FF1F9148FF1F00000000AF
:1001A000000000000000000000000000000000004F
:1001B000000000000000000000000000000000003F
:1001C000000000000000000000000000000000002F
:1001D000000000000000000000000000000000001F
:1001E000000000000000000000000000000000000F
:1001F00000000000000000000000000000000000FF
:1002000000000000000000000000000000000000EE
:1002100000000000000000000000000000000000DE
:1002200000000000000000000000000000000000CE
:1002300000000000000000000000000000000000BE
:1002400000000000000000000000000000000000AE
:10025000000000000000000000000000000000009E
:10026000000000000000000000000000000000008E
:10027000000000000000000000000000000000007E
:10028000000000000000000000000000000000006E
:10029000000000000000000000000000000000005E
:1002A000000000000000000000000000000000004E
:1002B000000000000000000000000000000000003E
:1002C000000000000000000000000000000000002E
:1002D000000000000000000000000000000000001E
:1002E000000000000000000000000000000000000E
:1002F00000000000000000000000000000000000FE
:1003000000000000000000000000000000000000ED
:1003100000000000000000000000000000000000DD
:1003200000000000000000000000000000000000CD
:1003300000000000000000000000000000000000BD
:1003400000000000000000000000000000000000AD
:10035000000000000000000000000000000000009D
:10036000000000000000000000000000000000008D
:100370000D19FF1F00000000000000000000000039
:10038000000000000000000000000000000000006D
:10039000000000000000000000000000000000005D
:1003A0000000000000000000000000009D1FFF1F73
:1003B000000000000000000000000000000000003D
:1003C000000000000000000000000000000000002D
:1003D000000000000000000000000000000000001D
:1003E000000000000000000000000000000000000D
:1003F00000000000000000000000000000000000FD
:0C04000001FF01FF01FF01FF910000005F
:020000041FFFDC
:10183800C87EFF1F3D19FF1F81840000F1280000AA
:101848000000000000000000000000000000000090
:101858000000000000000000000000004919FF1F00
:101868000000000000000000CD8400004D19FF1F9B
:101878004F19FF1F4F19FF1F4F19FF1F4F19FF1F48
:101888004F19FF1F4F19FF1F4F19FF1F4F19FF1F38
:101898004F19FF1F4F19FF1F4F19FF1F4F19FF1F28
:1018A8004F19FF1F4F19FF1F4F19FF1F4F19FF1F18
:1018B8004F19FF1F4F19FF1F4F19FF1F4F19FF1F08
:1018C8000000000000000000000000000000000010
:1018D8000000000000000000000000000000000000
:1018E8004F19FF1F000000004F19FF1F4F19FF1F5E
:1018F8000348854600F036F800480047C540FF1FFA
:10190800C87EFF1F09484838694601600430F0C0A6
:1019180044464D4656465F46F0C030BCF0BCF0C069
:10192800F0BCF0C044380249084700000004FF1F1B
:101938001527FF1F0448804704480047FEE7FEE7D5
:10194800FEE7FEE7FEE7FEE74D25FF1FF918FF1F3C
:1019580003460A780270401C491C002AF9D118462F
:1019680070470000064C0125064E05E0E36807CCE9
:101978002B430C3C98471034B442F7D3FFF7BCFF15
:101988001C53FF1F4C53FF1F30B58C180278401CA6
:1019980013071B0F01D10378401C120906D10278E6
:1019A800401C03E005780D70401C491C5B1EF9D1F2
:1019B80001E00B70491C521EFBD1A142E6D3002066
:1019C80030BD000003B40148019001BDD94F0100AA
:1019D80003B40148019001BD75A9000003B4014892
:1019E800019001BDF9A6000003B40148019001BDB2
:1019F800A1AF000003B40148019001BD9DA90000FA
:101A080003B40148019001BDDD3F000003B4014863
:101A1800019001BD8944000003B40148019001BD53
:101A28002144000003B40148019001BD750F000076
:101A380003B40148019001BDC95C010003B4014829
:101A4800019001BD1907010003B40148019001BDCF
:101A5800BD0B010003B40148019001BDDD0C01007C
:101A680003B40148019001BDDD0A010003B4014837
:101A7800019001BD0134010003B40148019001BD8A
:101A88000934010003B40148019001BD0534010087
:101A980003B40148019001BDF535010003B40148C4
:101AA800019001BDF935010003B40148019001BD61
:101AB800E917010003B40148019001BD6137010035
:101AC80003B40148019001BD01D7000003B40148E7
:101AD800019001BD6DF6000003B40148019001BDFD
:101AE8007912010003B40148019001BD4DF90000CD
:101AF80003B40148019001BDC1F7000003B40148D7
:101B0800019001BD116E000003B40148019001BDB0
:101B18008D82000003B40148019001BDE1AC0000D2
:101B280003B40148019001BDE53A010003B401483E
:101B3800019001BD496D010003B40148019001BD48
:101B48003D71010003B40148019001BD0189000005
:101B580003B40148019001BD2D15021103B40148D9
:101B6800019001BDED4A010003B40148019001BD97
:101B7800A54F010003B40148019001BD8552010041
:101B880003B40148019001BDB54C010003B40148FC
:101B9800019001BD4550000003B40148019001BD0A
:101BA800156B010003B40148019001BD016C0100EF
:101BB80003B40148019001BDB30E000003B401480D
:101BC800019001BDBD5C010003B40148019001BD55
:101BD800B914021103B40148019001BD11070211A3
:101BE80003B40148019001BD1909021103B4014869
:101BF800019001BD8509021103B40148019001BD9E
:101C0800CD4C010003B40148019001BDEDA50000D1
:101C180003B40148019001BDE907021103B401486A
:101C2800019001BD810E000003B40148019001BD7F
:101C3800090E000003B40148019001BD21A900006C
:101C480003B40148019001BDADAE000003B40148E2
:101C5800019001BDC56D010003B40148019001BDAB
:101C680051B8000003B40148019001BD85C10000CE
:101C780003B40148019001BDE9D4000003B4014850
:101C8800019001BDE90B010003B40148019001BDB9
:101C98006D0B010003B40148019001BDC11501009D
:101CA80003B40148019001BDCD0C010003B4014803
:101CB800019001BD71B0000003B40148019001BD5D
:101CC800D9B0000003B40148019001BD5976010064
:101CD80003B40148019001BD53B9000003B40148A1
:101CE800019001BDE94C010003B40148019001BD18
:101CF800ED6B010003B40148019001BDC9A90000C2
:101D080003B40148019001BD1501021103B4014853
:101D1800019001BD0D52010003B40148019001BDBD
:101D28003D4B010003B40148019001BD154D010070
:101D380003B40148019001BDB14E000003B401484D
:101D4800019001BD810E000003B40148019001BD5E
:101D58002D11010003B40148019001BD891401004F
:101D680003B40148019001BD6189000003B4014832
:101D7800019001BD2114021103B40148019001BD75
:101D8800350E000003B40148019001BDC90E0000E2
:101D980003B40148019001BD910F021103B4014839
:101DA800019001BDB30E000003B40148019001BDCC
:101DB800BD10021103B40148019001BD850E021146
:101DC80003B40148019001BDD544010003B40148A2
:101DD800019001BD2D6C010003B40148019001BDC3
:101DE8007997000003B40148019001BD6911010011
:101DF80003B40148019001BD8512010003B40148F4
:101E0800019001BD8D11010003B40148019001BD8D
:101E1800E512010003B40148019001BDF90D01006C
:101E2800F3B587B004466F4F012C00D16E4F6001A7
:101E38006E494018007E00280BD08420C059C6B2D5
:101E4800002503E0387803A948556D1CB542F9DB35
:101E580004E00126387D38786946087360016349D3
:101E68004018C06900280CD069460898087003A873
:101E780001900E7260015D4A8018C1696846884702
:101E880000BF09B0F0BDF0B585B0054668015749F7
:101E98004018041D534803906801085C002801D1CC
:101EA80005B0F0BD680151494018007E002800D1F6
:101EB800F6E768014D494018807E002800D1EFE719
:101EC8002078022800D0EBE7A768A0886188401A2C
:101ED80086B2102E01DD102000E030460646002EA6
:101EE8001FD10120207000206080A08068013F4938
:101EF8004018C06900280AD03D4A07CA6B4607C384
:101F080068013A4A8018C1696846884700BF002DB1
:101F180003D1082001F064FB02E0192001F060FB06
:101F2800BEE7012D01D13048039005E06188481CC7
:101F38006080795C039801703046711E8EB200286B
:101F4800F4D100BFACE710B5274880680407240F18
:101F5800062C17D004DC022C10D0042C17D108E072
:101F6800072C10D00C2C12D102210120FFF758FFAA
:101F78000EE001210846FFF753FF09E00120FFF7B3
:101F880082FF05E004E018484030C06B00E000BF65
:101F980000BF10BD10B5134880680407240F062C35
:101FA80017D004DC022C10D0042C17D108E0072C21
:101FB80010D00C2C12D102210020FFF731FF0EE0C7
:101FC80001210020FFF72CFF09E00020FFF75BFF4D
:101FD80005E004E003484030C06B00E000BF00BFEC
:101FE80010BD000000400040009000405879FF1FDD
:101FF8000C1C021110B500BF76200E49C86000BF46
:10200800FFF7E0FC10BD0446FFF7E2FC0A48C06990
:10201800402188430849C8612046FFF7DFFC01F0EA
:1020280013FA04200449C03108600120FFF7DCFCE2
:1020380000BFFEE70020004000F0004010B5FFF7A9
:10204800C7FC0B48046840170949803108600948F3
:1020580007490860FFF7CEFC204610BD10B50446BE
:10206800FFF7B6FC02480460FFF7C4FC10BD00008F
:1020780000E100E01000100070B50124A407A36877
:1020880010252B43A360FFF7BBFCA068A843A06002
:1020980070BD0000FFB5064601208007816881B049
:1020A8001D46102211438160554F0020386030468C
:1020B800D730FFF7ABFC9D20800034468059FF36AF
:1020C800CA3401360028306822462CD00121FFF797
:1020D800A3FC4B4F2078F863641C2046FFF7A2FC52
:1020E80000BA000AE17800020843B863241D2046BC
:1020F800FFF798FC00BA000AE17800020843786309
:10210800241D2046FFF78EFC00BA000AE178000281
:10211800084338630398029900020843F860039F54
:1021280000243F1D0EE00021D1E72819401CFFF7CD
:1021380079FC0102285D0143324820180160241D02
:10214800A4B23F1F042FF0DA032F04D0022F08D0C7
:10215800012F0CD011E02819FFF764FC0102090ACD
:1021680006E0291948780A780102114300E0295D40
:10217800244820180160241DA4B20021214F02E048
:10218800E0190160241DFF2CFADD1D481E4A42603B
:102198000F220261012202604269002AFCD04269D2
:1021A800930701D4520708D40120800782681021C0
:1021B8008A438260002005B0F0BD01600020039AC8
:1021C80011E0C11909682954401C80B20B0A2B542C
:1021D800401C0B0C80B22B54401C80B2090E2954B1
:1021E800401C80B2121F002AEBDC3068401C3060B3
:1021F80001208007826810218A4382600120DAE783
:102208000000044000010440080F0000FFB5054627
:1022180001208007816881B01E4610221143816029
:10222800504F002038602846D730FFF7EFFB9D203D
:1022380080002C464059CA3480350028E86F224671
:102248002BD00021FFF7E8FB464F2078F863641C89
:102258002046FFF7E7FB00BA000AE17800020843CE
:10226800B863241D2046FFF7DDFB00BA000AE178B9
:10227800000208437863241D2046FFF7D3FB00BA09
:10228800000AE178000208433863039802990002C3
:102298000843F8600024039F0EE00121D2E73019BB
:1022A800401CFFF7BFFB0102305D01432E48201898
:1022B8000160241DA4B23F1F042FF0DA032F04D0BD
:1022C800022F08D0012F0FD014E03019FFF7AAFB16
:1022D8000102090A09E0311948780978000208431F
:1022E80021496118086003E0315D1F48201801602A
:1022F800241DA4B200211C4B02E0E0180160241D3B
:10230800FF2CFADD0F221748120242600F220261E9
:10231800012202604269002AFCD00160039A002071
:10232800121D11E0C11809683154401C80B20C0A12
:102338003454401C0C0C80B23454401C80B2090E3A
:102348003154401C80B2121F002AEBDCE86F401C9D
:10235800E86701208007826810218A43826005B0FF
:10236800F0BD00000000044000010440F8B5FFF78C
:102378005FFB564908600420FFF760FBFFF764FB2A
:102388000646C00715D05249002008605148007819
:10239800012811D0032813D0042815D0022817D0FB
:1023A800052819D0FFF756FB4B4F044601281AD0D1
:1023B8001EE0FFF755FBF8BD3046FFF757FB0EE070
:1023C8003046FFF759FB0AE03046FFF75BFB06E0B3
:1023D8003046FFF75DFB02E03046FFF75FFB40B297
:1023E8000128E8D04FE0387805280BD0062809D016
:1023F8003A483B4D0078022808D0052806D0022C20
:102408000ED005E0304601F07DFC3CE0022C02D005
:10241800012C11D014E0A87B002805D0022803D095
:102428003878052804D00BE0304601F083FC15E02D
:10243800304601F073FC11E0012807D0062809D0C6
:102448003046FFF731FB022C08D01CE0304601F083
:1024580089FC18E0304601F079FC14E0387801284E
:1024680011D170050FD4687BC10701D0252004E085
:10247800800701D5262000E02720297D814202D946
:102488003220FFF717FB154C2078042804D00328C6
:102498000ED0072811D014E0FFF712FB002810D047
:1024A800FFF714FB5820FFF717FB0220207008E005
:1024B8000C48807CFFF716FB03E00B48807BFFF796
:1024C80017FB0320FFF7BAFAF8BD00009C09FF1FAD
:1024D8009809FF1F9009FF1F1C09FF1F2309FF1FF1
:1024E800A60BFF1FBC0BFF1FD40BFF1F10B5FB294A
:1024F80008D8084B9A4205D81B2903D3FF23493330
:102508009A4201D2302010BD034B19825A82FFF73C
:10251800F5FA10BD480800008410FF1F10B5FFF73A
:10252800F3FA02490020488010BD0000D853FF1F6D
:10253800C106C90E012088400149086070470000A3
:1025480000E100E0014802490860704740787D01D9
:10255800D453FF1F10B5002819DB1A4A03231B02A6
:10256800D21883089B00D2588307DC0EFF23A340B0
:102578009A438B071B0E8407E40EA3401A43114BA2
:10258800032424021B198408A4001A5118E00E4AD7
:1025980003071B0F083B9B089B00D2588307DC0EE0
:1025A800FF23A3409A438B071B0E8407E40EA34026
:1025B8001A43054B0407240F083CA408A4001A5129
:1025C80010BD000000E100E01CED00E010B500289F
:1025D80019DB1A4A03231B02D21883089B00D2581E
:1025E8008307DC0EFF23A3409A438B071B0E840747
:1025F800E40EA3401A43114B032424021B19840838
:10260800A4001A5118E00E4A03071B0F083B9B0849
:102618009B00D2588307DC0EFF23A3409A438B0705
:102628001B0E8407E40EA3401A43054B0407240F2E
:10263800083CA408A4001A5110BD000000E100E005
:102648001CED00E010B5002819DB1A4A03231B0211
:10265800D21883089B00D2588307DC0EFF23A340BF
:102668009A438B071B0E8407E40EA3401A43114BB1
:10267800032424021B198408A4001A5118E00E4AE6
:1026880003071B0F083B9B089B00D2588307DC0EEF
:10269800FF23A3409A438B071B0E8407E40EA34035
:1026A8001A43054B0407240F083CA408A4001A5138
:1026B80010BD000000E100E01CED00E002E008C8E9
:1026C800121F08C1002AFAD170477047002001E0A4
:1026D80001C1121F002AFBD1704700000248C069DF
:1026E800002800D0004770474003FF1F1CB569460B
:1026F8000120FFF70FFA012000900348019000F035
:1027080055FB01201CBD0000BB0B000004462546FC
:102718002AA0FFF705FA2FA0696AFFF701FA31A08E
:10272800A96AFFF7FDF933A0E96AFFF7F9F935A0BF
:10273800296BFFF7F5F937A06968FFF7F1F939A0B8
:10274800A968FFF7EDF93BA0E968FFF7E9F93DA0B3
:102758002969FFF7E5F93FA06969FFF7E1F941A0A9
:10276800A969FFF7DDF943A0E969FFF7D9F945A0A1
:10277800296AFFF7D5F947A0696BFFF7D1F949A096
:102788002968FFF7CDF94BA0A96BFFF7C9F94DA050
:10279800E96BFFF7C5F94FA0296CFFF7C1F951485C
:1027A800416851A0FFF7BCF953480068002802D0DF
:1027B80051480068804700BFFEE700005B4861722F
:1027C80064206661756C742068616E646C65725D06
:1027D8000A00000052302020203D20307825303873
:1027E800780A000052312020203D203078253038EA
:1027F800780A000052322020203D203078253038D9
:10280800780A000052332020203D203078253038C7
:10281800780A000052342020203D203078253038B6
:10282800780A000052352020203D203078253038A5
:10283800780A000052362020203D20307825303894
:10284800780A000052372020203D20307825303883
:10285800780A000052382020203D20307825303872
:10286800780A000052392020203D20307825303861
:10287800780A000052313020203D20307825303849
:10288800780A000052313120203D20307825303838
:10289800780A000052313220203D20307825303827
:1028A800780A000053502020203D20307825303809
:1028B800780A00004C522020203D203078253038FE
:1028C800780A000050432020203D203078253038F9
:1028D800780A000050535220203D203078253038A7
:1028E800780A000000ED00E049435352203D2030B3
:1028F80078253038780A00005053FF1F10B500F0D3
:1029080049FAFFF7F3FE002802D00248804710BDBD
:10291800FEE70000E1A200000EB50020009003468B
:102928000222014601900520FFF700F900BF00BF11
:102938000E480069022108400228F9D020200190A1
:1029480000BF0198411E01910028FAD100BF074835
:1029580080380068C00FC0070028F8D000BF0121E8
:1029680002A8FFF7E9F86846007A0EBD80C8004063
:10297800F8B505460E4600960DE0FFF7CDFF044674
:1029880020462840002800D1F8BD0520FFF7DAF8D6
:102998000098401E009000980028EED11120F3E71F
:1029A80010B502460B46114600E0491C087800287D
:1029B80003D018465B1E0028F7D1881A10BD70B5E1
:1029C80004460D462A4621460020FFF7C1F870BD8F
:1029D80010B5FFF7C3F80120FFF7C6F8FFF7CAF8EC
:1029E800002010BD1CB5012109030748FFF7C8F8EE
:1029F800012004210B460246009101900349044836
:102A0800FFF7C4F81CBD00002C64FF1F0C54FF1F07
:102A1800A861FF1FF8B54D484068C043000603D5BC
:102A28003C20FFF78FF8F8BDFFF7B6F8474D07468B
:102A3800803D28680121890408432860E8694449E1
:102A480008402830E8610320FFF77CF8686AC6036D
:102A5800F60B0320FFF776F8686AC403E40B03203B
:102A6800FFF770F8686AC503ED0BA64201D320464C
:102A780000E03046A84200D32846A64201D331469A
:102A880000E02146A94200D22946324AB218C32A98
:102A980026D2304AD243944222D92F4B9C421FD28D
:102AA80095421DD99D421BD2081A132818D22748CF
:102AB80041680C22914341604168FF221202914310
:102AC80041601420FFF73EF820488038416AC26907
:102AD800C903C90B08239A43C2612048C160F8BDE5
:102AE80026462C460320FFF72DF818488038406A00
:102AF800C503ED0BFFF750F8B84201D3C01B01E046
:102B0800C01B401E16498842AFD310484168090AC5
:102B180000914268FF2109028A430099491C09066D
:102B2800090C0A43426041680C229143091D416027
:102B38000020FFF737F80B48009988400A49884277
:102B480000DB0846FFF75FFA8FE70000C0F000409F
:102B580000FEFEFF91FCFFFF32040000D853FF1F68
:102B6800E40C0000E880000060361E00F8B53D481F
:102B780040683C4C0006803C8021002806DB6068E9
:102B8800084360600320FEF7DDFFF8BD364D0020E6
:102B9800686120680122920410432060334F606806
:102BA8008021084360600320FEF7CCFF6869401C61
:102BB8006861606801210904084360600026E069D3
:102BC8002B4938404018E0610320FEF7BBFF606ADC
:102BD800E169C003C00B08229143E161E96806225C
:102BE8005143814201D3091A00E0411A3C2909D214
:102BF800E269012109048A43E26162688A436260EA
:102C08002861F8BD761CF6B2052ED8D3E1690120FB
:102C180000048143E16161688143616068692E460F
:102C2800052807D3BFF34F8F13491248C860BFF375
:102C38004F8FFEE760688021884360600320FEF7BD
:102C480081FFE06938402830E0610320FEF77AFF11
:102C5800606AC003C00BF060E16908208143E1614C
:102C68009DE70000C0F00040D853FF1F00FEFEFFA4
:102C7800280001000400FA0500ED00E010B5282145
:102C88000148FEF795FF10BD107AFF1FF8B50446FE
:102C98000120FEF757FFFEF791FF1849184A086010
:102CA800966A184B1E60184BDF6A184D2D68AF42A4
:102CB80002D2DB6AEB1A00E00023154D2B603319B2
:102CC800D362536A2924E40323435362114A1278D6
:102CD800002A0FD0104A1378022B07D01378012B43
:102CE80006D01278032A06D0C01E02E00F3800E092
:102CF80008380860F8BD401FFBE70000E408FF1F24
:102D080000F00040340AFF1F00100040180AFF1F9F
:102D18001C0AFF1F1C09FF1F4A0AFF1F0FB408B532
:102D280003A800900548009A029901F027F80020AE
:102D3800009001B008BC04B018470000C729FF1F65
:102D480000B585B0064B0FCB049301AB07C3002039
:102D5800009001A80FC8FEF737FF05B000BD0000BE
:102D68001052FF1F70B5044626460948855DFF2DA1
:102D780000D170BD00212846FEF72CFF002128460F
:102D8800FEF72EFF00212846FEF730FF00BFF0E7D0
:102D9800AE53FF1F0349002048610349086048609B
:102DA8007047000040F0004040F1004070B58AB024
:102DB80000241E4D049405942878012806D004A9FF
:102DC8000120FEF7A7FE002802D000200AB070BD3F
:102DD8000498009005980190154881680291C06890
:102DE8001349039006AA10316846FEF709FE104EF3
:102DF80010222036314606A8FEF7FEFE002811D024
:102E0800012028700B4A31466846FEF7F9FD049404
:102E18000020694605948200401C8C500428FADB87
:102E28000120D3E7FF202870CFE70000FC53FF1FE5
:102E380000290011B87AFF1FF0B595B03C48C06B67
:102E48008705BF0D3A48406B400A4002384948633D
:102E580038484078B84263D1022459E00120A040A4
:102E68003840002852D03248406B0121A1408843A5
:102E78002F494863002516E0E0012F494118A81C96
:102E8800800008580005000D690005AA5052E001AD
:102E980029494118A81C800008580001010D681C28
:102EA800400011526D1C1D2DE6DB0120A040204979
:102EB800886320480078002800D128E02046E10FE8
:102EC800091849104900611A01D0611E00E0611C0F
:102ED8000E46B1001748001D405800280FD00120A9
:102EE80001906846067205A803901D216846017482
:102EF800B2001048001D815801A8884700BF0C483F
:102F0800406B0121A14008430949486300BF641C84
:102F1800072CA3DD07488078002801D100F010F8BD
:102F28000348406B054908430149486315B0F0BDA3
:102F380000000540107AFF1F00040540FF01000053
:102F480010B527480078002801D1122010BD254867
:102F5800254948631D20002809DBC206D20E01213D
:102F68009140224A1160BFF34F8FBFF36F8F00BFAC
:102F780000201F49486308151B49886302E0194867
:102F8800194988631848C06B0028F8D11948806827
:102F980008218843174988600846406849148843CF
:102FA80014494860002408E0A1001348405800284C
:102FB80002D0E0B2FFF7D6FE641C092CF4DB0D4802
:102FC8008068400840000B498860112000F062F8D2
:102FD800FFF754FE112000F003FB0020B6E70000C5
:102FE800A853FF1FFF0100000000054080E100E03A
:102FF800C003FF1F40F00040147AFF1F08B564208B
:103008000090412000F06EF8402000F06BF802209C
:103018004107486200BF0098411E00910028FAD17C
:10302800032001218907486200F006F800200121E9
:103038008907886208BD000038B5FEF7C9FC012081
:103048008007846A08200090002C02D101208107A3
:10305800886202200E49086000BF0098411E009156
:103068000028FAD103200A4908600820009000BF10
:103078000098411E00910028FAD105490860002CEB
:1030880002D1012189078862FEF7B4FC38BD00002F
:1030980000C00040202809DA012189078968012237
:1030A800824091430122920791601AE040280BDA8E
:1030B800012189074A690146203901238B409A4337
:1030C800012189074A610CE060280ADA0121890791
:1030D8000A6A0146403901238B409A430121890736
:1030E8000A627047202809DA0121890789680122C4
:1030F800824011430122920791601AE040280BDABE
:10310800012189074A690146203901238B401A4366
:10311800012189074A610CE060280ADA0121890740
:10312800096A0246403A0123934019430122920753
:1031380011627047202823DA15280FDB16280DDCCA
:10314800012189070968202291435206116011461E
:103158000968202211435206116056E001218907AF
:1031680009680122824091430122920711601146A9
:10317800096801228240114301229207116044E04C
:10318800402827DA35280FDB38280DDC012189078C
:10319800C968102291439206D1601146C96810226D
:1031A80011439206D16030E001218907C9680246BF
:1031B800203A01239340994301229207D160114696
:1031C800C9680246203A0123934019430122920715
:1031D800D1601AE0602818DA01218907496A024695
:1031E800413A01239B1A01229A40914301229207F6
:1031F80051621146496A0246413A01239B1A01224B
:103208009A401143012292075162704710B588B065
:1032180043480078012802D1002008B010BDFEF70D
:103228000DFF044600BF00BF3E4800690221084068
:103238000228F9D02020029000BF0298411E029176
:103248000028FAD100BF374880380068C00FC0078F
:103258000028F8D000BF34490120FFF789FB002877
:1032680001D01120D9E7002000900346032201462F
:1032780001909F20FEF75AFC032103A8FEF75CFC8F
:1032880000BF00BF27480069022108400228F9D082
:103298002020029000BF0298411E02910028FAD116
:1032A80000BF204880380068C00FC0070028F8D049
:1032B80000BF1D490120FFF75BFB002801D011204A
:1032C800ABE72046FEF7CAFE6946887B0004497BC7
:1032D800090208436946097B084311494860694661
:1032E800887B11280EDB6846807B16280ADC684636
:1032F800817B012088400A498860084680680B491C
:10330800886107E00120C004054988600846806894
:103318000649886101200249087000207DE7000005
:10332800C853FF1F80C80040FFFFFF078008FF1F2A
:103338001CB500F01DF80B480078FEF763FC0A483E
:10334800007800F017FA00F09DF8084903C90191C8
:1033580000900199009800F061FAFFF7F1FCFEF780
:1033680057FC1CBD4A0AFF1F4C53FF1FFC51FF1F8F
:1033780010B58CB030221B496846FEF74FFC00247C
:1033880009E062006B46D21851786200985CFEF73B
:103398002DFC601CC4B2172CF3D3134840690F21CD
:1033A800C90388430521090440180F4948610846A4
:1033B800406901214906884340180B49486108467D
:1033C80040690321490588430121490540180649F8
:1033D8004861012000F028F800F042F800F022F8D7
:1033E8000CB010BDCC51FF1F00F0004070B5044672
:1033F80000250A480068A04205D2681E051B074838
:103408000068451902E005480068051B044969433E
:1034180008467D21C900FEF707FC70BD6008FF1F44
:10342800710200000F20704701464809400100283A
:1034380004D00020034A106006207047014801604C
:103448000020FAE79453FF1F0448C0691F2149046C
:1034580088430249C86100207047000000F000401E
:103468000648C0691F214904884305490988490459
:1034780008430249C86100207047000000F000407E
:103488009453FF1F10B578210F48FEF791FB0F48A2
:103498000078012804D0022806D0042807D100E0CB
:1034A80000BFFEF7C7FB02E0FEF7CAFB00BF00BF84
:1034B80007480078C007C00F002802D00548064911
:1034C8000863002010BD00009879FF1F9053FF1F6C
:1034D80000200040FD1FFF1FC000FF1F70B50546FC
:1034E800122617480078012803D0154800780428C8
:1034F80003D1FEF79FFB002070BDFEF769FA002498
:1035080017E00C2060430F49085C002800D112E046
:103518000C2060430B49085CA84209D101210C200A
:103528006043084A80184170FEF784FB002602E0D9
:10353800641C0A2CE5DB00BFFEF75CFA3046DBE7CB
:103548009053FF1F9879FF1F70B503460C46154628
:103558000021002212E00C2050430F4E305C9842AC
:1035680001D1072070BD0C2050430B4E305C002861
:1035780003D10C205043811902E0521C0A2AEADBCD
:1035880000BF002901D10320ECE7002048700B7030
:103598004C608D6000BFE5E79879FF1F10B5FFF715
:1035A8005FFF002414E00C2060430C49085C0028ED
:1035B80000D10FE00C2060430849401840680028FB
:1035C80005D00C216143054A891848688047641C66
:1035D8000A2CE8DB00BF002010BD00009879FF1F0F
:1035E80070B5054600261D480078012803D01B4801
:1035F8000078042803D1FEF71DFB002070BDFEF7FC
:10360800E7F900241BE00C2060431549085C0028FA
:1036180000D116E00C2060431149085CA84205D18E
:1036280000210C2060430E4A801841700C20604332
:103638000B4940184078002800D0761C641C0A2CDE
:10364800E1DB00BF002E02D1FEF7FAFA01E0FEF737
:10365800F1FAFEF7CFF90020D0E700009053FF1FE2
:103668009879FF1F10B520480068012189078860F4
:103678001E48006801210843890748611C48006BFF
:103688001C4908601A48303040681B49086000210E
:103698000420FEF79BFF01211420FEF797FF01216C
:1036A8001520FEF793FF01211720FEF78FFF002456
:1036B80015E00C2060431149085C002801D1122054
:1036C80010BD0C2060430D4940188068002805D0C3
:1036D8000C216143094A891888688047641C0A2CB0
:1036E800E7DB0020ECE700009853FF1F9C53FF1F07
:1036F80080F00040A053FF1FA453FF1F9879FF1FBD
:1037080010B51F20154908700120154908700020C0
:10371800144908701448C06B400940010930124927
:10372800C8630846C06B6021884320300E49C863CF
:1037380000F01CF800210420FEF70CFF01211420E2
:10374800FEF708FF01211520FEF704FF01211720CD
:10375800FEF700FFFFF746F910BD0000480AFF1FFB
:10376800490AFF1F680AFF1F80F0004010B5FFF7E5
:10377800C5F810BD10B50446012C18D1244840697D
:10378800400140090521C9064018214948610846F9
:10379800C06920490840204940181D49C8610846A9
:1037A800C0694021884340301949C86120E0002C95
:1037B8001ED100210A20FEF719FA00210B20FEF77E
:1037C80015FA1348C06903210902884340181049B3
:1037D800C8610846C069402188430D49C861084648
:1037E8004069400140090B21090740180849486110
:1037F800074840690121090788434018044948617E
:10380800084680690321490488430149886110BD3D
:1038180000F000407F00FEFF80FD010013B508485E
:10382800002101604160019A009906C000F012F879
:10383800044A00211320FFF787FE00201CBD00006A
:10384800B853FF1F5D38FF1F01480068704700002C
:103858006008FF1F08B50020104900904A680878E2
:1038680000230121FEF7F2F90D480E498863122062
:10387800002809DBC206D20E012191400A4A1160D4
:10388800BFF34F8FBFF36F8F00BF02211220FEF7E7
:10389800D9FEFFF7B3FBFFF7B9FC08BDB853FF1F0C
:1038A800050001FF00C8004080E100E0704700000B
:1038B80070B50D460446282910D1A420005BE18884
:1038C800401A0B4980B2884208D321466A31052242
:1038D8000E46481FFEF790F9002804D029462046D6
:1038E800FEF7BAF970BD31462046FEF7BBF970BD48
:1038F800FF7F000010B5002901D0FEF7B9F910BD0F
:1039080070B5264D264E2868002804D0FEF7B6F973
:103918002978C84004E0FEF7B1F93168FEF784F968
:1039280004462868002804D0FEF7AEF92978C84074
:1039380004E0FEF7A9F93168FEF776F91949A122E2
:10394800897892005143184A184B126889180D78E3
:10395800174A002D17D0FF31FF3102314C6C154842
:10396800641C4C6400689968884201D3401A02E0DC
:10397800114B591A0818D2381060012C02D1FF30A7
:10398800F530106070BDFF31FF31002502314D6404
:103998005968201AC9684018F3E700001C08FF1F7F
:1039A8001808FF1F300DFF1F3409FF1FD853FF1FD2
:1039B800A009FF1F9C09FF1FFFFF3F00F3B5064644
:1039C8006548A121807889004843644983B0096823
:1039D800A12244182046FF3021305F4900908978A1
:1039E800920051435D4A407D126800258F18FF37C9
:1039F800813732281DD022281BD0F86A0168002997
:103A080009D08188001D090A891CFEF743F9F96A63
:103A1800002001250860FEF743F904992746FF377F
:103A28000880C137387C002821D0B0421FDC002034
:103A380014E04B49012008600020F96A012508605C
:103A4800E9E780000019FF308130006B8188001D94
:103A5800090A891CFEF71EF90198401C0190397C5F
:103A68008142EEDCC8B2361A4519002038743D4947
:103A78000020C870FF20AD3000590168002903D02C
:103A88000079C04380071ED00098C07D00281AD056
:103A98000098807D002816D1387CB04213DAFF20C8
:103AA8004930005B010A2046FF304930891CFEF787
:103AB800F1F800990020C8750098012181752948FE
:103AC8006D1CC170761E387C002802D0284605B0CF
:103AD800F0BD2046FEF7EAF80090002821DD002E10
:103AE8001FDD002718E02046FEF7E6F880000019E1
:103AF800FF300130C06E8188001D090A891CFEF75D
:103B0800C9F82046FEF7DEF8E01DFF30FA30016AFA
:103B18006D1C491C7F1C01620098874201DAB7427C
:103B2800E1DB092080012018817E002911D0017D68
:103B380000290ED0428E002A0BD0817F914202D2FA
:103B4800491C817705E0002181771A212046FEF77C
:103B5800BFF8A8B2BBE70000300DFF1F3409FF1FF4
:103B680000140340E010FF1F70B54E48006801289C
:103B780003D14D48816D491C8165FDF759FF4B4DB7
:103B88004B49A8604B4841610124C460046028780F
:103B9800002806D0062248494848FEF79FF800202A
:103BA80028704749486B474AC0B21278002A17D193
:103BB800454A0023D356002B444BD35606DB1B043F
:103BC800002555572A029A18121808E0FF331B04DB
:103BD800002555572A029A183D4B1218D2184A63E5
:103BE800022801D2022002E0502800D95020394A88
:103BF8001278022A11D0384A1578384B1E78B54207
:103C08000FD915781B78EB1A801E401043431078A3
:103C18004001C01A1030401104E0314A1578314B88
:103C2800ECE710784A69120A120210434861FDF75E
:103C380011FF0546052801D0042D1ED12A48007819
:103C4800002806D029480078002802D00020FEF776
:103C58004BF82748A12180788900484325490968FD
:103C68004018FF30FF300230007B042801D00328C1
:103C780003D1FF205F30FDF72FFF022D0ED11E4824
:103C88000078012807D0032805D0022803D01B4854
:103C98000078022802D16C20FDF71EFF1848C48264
:103CA80070BD00009809FF1FFC0FFF1FD853FF1FAE
:103CB800FF3F000000100340D50BFF1F7211FF1FCC
:103CC800800003408C09FF1F680AFF1F00000000E6
:103CD800FFFE0000490AFF1F440AFF1F450AFF1F95
:103CE800460AFF1F470AFF1FF908FF1F2209FF1F87
:103CF800300DFF1F3409FF1F1C09FF1F2309FF1F79
:103D0800BC0BFF1F10B504490968002901D088477A
:103D180010BDFDF7C9FE10BD8002FF1F10B5044994
:103D28008968002901D0884710BDFDF7BDFE10BD88
:103D38008002FF1F10B504494968002901D088474F
:103D480010BDFDF7B1FE10BD8002FF1F10B504497C
:103D58000969002901D0884710BDFDF7A5FE10BDEF
:103D68008002FF1F10B50449C968002901D088479F
:103D780010BDFDF799FE10BD8002FF1FF7B58CB08E
:103D8800054600200690059083E10D9800782528C7
:103D98000AD00698002803D10D98069000200590B7
:103DA8000598401C059071E10598002806D00598F3
:103DB80081B20698A847002006900590002400BF0D
:103DC8000D98401C0D900D9800782B280DD004DC20
:103DD80020280DD0232814D10DE02D2802D030281A
:103DE8000FD10BE010200443EAE704200443E7E77F
:103DF80008200443E4E720200443E1E701200443CA
:103E0800DEE70026F6430D980078302808DB0D9889
:103E18000078392804DC0DA800F03CFF06460EE0C7
:103E28000D9800782A280AD10D98401C0D900E98FC
:103E380040C80E90002E02DA76421020044300207B
:103E4800C04308900D9800782E2821D10D98401C69
:103E58000D900D980078302808DB0D9800783928E7
:103E680004DC0DA800F016FF08900CE00D9800780F
:103E78002A2808D10D98401C0D900E9800680890CB
:103E88000E98001D0E900898002801DA002008906E
:103E98000020C04307900D980078682807D00D9837
:103EA80000786C2803D00D9800784C2805D10D981F
:103EB800007807900D98401C0D900A200A900D98E4
:103EC80000786E287ED00CDC632817D004DC4128EB
:103ED80079D0582873D17AE064287FD06928F9D13D
:103EE8007DE073282AD004DC6F286DD070287AD141
:103EF80050E0752876D0782875D16BE010202040E6
:103F0800002808D104E020200490012104A8A84733
:103F1800701E061EF7DC0E980178001D0E90C8B2C0
:103F28000490012104A8A84704E02020049001215E
:103F380004A8A847701E061EF7DCA7E00E980068C4
:103F480009900E98001D0E900998002801D159A0DB
:103F5800099008990998FEF723FD0746102020408C
:103F6800002809D104E020200490012104A8A847D2
:103F78003046761EB842F6DCB9B20998A84704E084
:103F880020200490012104A8A8473046761EB84294
:103F9800F6DC7BE0701C002802D1082601200443CF
:103FA8000898019400900E9802C833461022039195
:103FB8000E90284600F002F968E003E003E012E002
:103FC8000CE001E062E061E008200A9023E0402074
:103FD800044300BF10200A901DE003E000BF022048
:103FE800044300BF17E00D980078252804D0252049
:103FF8000490012104A8A8470D980078002806D04D
:104008000D9800780490012104A8A84702E00D98B3
:10401800401E0D903AE000BF07986C2806D10E9814
:1040280000680B900E98001D0E9025E007986828F0
:1040380011D102202040002806D00E9800680B906D
:104048000E98001D0E9017E00E9800680B900E98C1
:10405800001D0E9010E002202040002806D00E9887
:1040680000680B900E98001D0E9005E00E980068F1
:104078000B900E98001D0E900898334601940090FE
:1040880028460A9A0B9900F099F800BF0D98401C31
:104098000D900D980078002800D076E60598002845
:1040A80006D0059881B20698A8470020069005908A
:1040B8000FB0F0BD3C4E554C4C3E00001CB50220E4
:1040C80018490870012018490870FDF713FEFDF71C
:1040D80017FEFFF715FBFFF72BF9144914A0FEF79D
:1040E8001DFE1948007819490978009101900D487A
:1040F80003780D4802781648017816A0FEF70EFEE0
:10410800204A082120A0FEF709FE01231B03A12253
:1041180092001C492848FEF701FEFEF759FC0020D2
:104128001CBD00004A0AFF1F4C53FF1F010103007A
:1041380053444B2056657273696F6E20494420259D
:10414800303878200A000000450AFF1F440AFF1F84
:104158004B0AFF1F7266436C6B2025642072634311
:104168006C6B20256420737973436C6B2025642065
:1041780074704361705B2530327820253032785D69
:104188000A0000009C0D000073697A656F66287349
:104198007472756374206C6C5F706B745F646573A4
:1041A8006329203D2025642C206275662073697A76
:1041B80065203D2025640A002052FF1FFFB597B0F7
:1041C800054617461E46219C684800680390402013
:1041D8002040002802D06648006803901020204044
:1041E800002801D064086400022F01DB242F01DDC0
:1041F8001BB0F0BDE007C00F002801D0302100E05F
:10420800202116910021159102202040002818D065
:104218001898002806DA2D20159018984042189012
:10422800761E0EE004202040002803D02B20159095
:10423800761E06E008202040002802D02020159095
:10424800761E20202040002806D0102F01D1B61E4F
:1042580002E0082F00D1761E00200290189800284E
:1042680006D130220298411C029104A90A5413E095
:104278000FE039461898FDF7D7FC0398425C02987E
:10428800411C029104A90A5439461898FDF7CCFC40
:10429800189018980028ECD120990298884201DDDE
:1042A800029820902098361A11202040002809D121
:1042B80004E020200190012101A8A8473046761E7D
:1042C8000028F6DC10A8007D002802D0012115A8DE
:1042D800A84720202040002816D0082F05D13020DC
:1042E8000190012101A8A8470EE0102F0CD1302120
:1042F8000191012101A8A8471C4800682030417895
:104308000191012101A8A84710202040002807D1C9
:1043180002E0012116A8A8473046761E0028F8DCDE
:1043280004E030200190012101A8A8472098411EEF
:10433800209102998842F4DC06E004A90298085CFE
:104348000190012101A8A8470298411E0291002866
:10435800F3DC04E020200190012101A8A8473046A1
:10436800761E0028F6DC00BF42E700008853FF1FD6
:104378008C53FF1F10B50446082102480078FDF74A
:10438800C5FC10BD5853FF1F10B500240420FDF7CD
:10439800C3FC084908600422002106480068FDF7AC
:1043A800C1FC2046641CFDF7C3FC204600F088FCD5
:1043B80010BD00005453FF1F70B505460C46002C75
:1043C80003D1012001490968884770BD8453FF1F44
:1043D80070B504460D462548006800280FD120789E
:1043E8005A280CD022A0FEF799FC002604E0A15D13
:1043F80020A0FEF793FC761CAE42F8D370BD1E4990
:104408001A4A126888182A462146FDF797FC174869
:1044180000684019154908600846006803280BD34E
:1044280016480068002807D113484078124989784F
:10443800090240181149086010480068002813D084
:104448000A4800680D49096888420DD380210C4844
:104458000078FDF75BFC094800680A4908600020FD
:10446800064908600149086000BFC7E77453FF1F89
:1044780021000000257820002C76FF1F7853FF1FAD
:104488005853FF1F7C53FF1FF8B51E4841680906A3
:1044980001D50020F8BD4168802211434160194DC3
:1044A8000A260027803DE86940084000E8610620A8
:1044B800FDF748FB134CC03CA06980210843A0616C
:1044C800E86901210843E86102E00820FDF73AFBAA
:1044D800A86A800504D43046761EF6B20028F4D1C6
:1044E800002E07D0286A7E21C70BA0690F40884399
:1044F8003843A061A16980208143A1613806400E3C
:10450800F8BD0000C0F0004010B500F0A5FA044A5C
:104518000121582000F010FAFFF7B6FF10BD000087
:10452800600AFF1F30B53848016801229204114320
:1045380001604168032212069143344A13781B062E
:10454800194341604368032189058B4330490C783E
:10455800A4052343436043686024234343601378DE
:10456800022B08D01378012B05D00B78022B02D030
:104578000B78012B04D14368FF24013423434360A3
:104588001278032A02D00A78032A03D142688023CA
:104598001A434260426803239B041A4342600B7823
:1045A8000122D2051B48002B03D11B4B1B78032B80
:1045B80019D0C3689343C360164A184B4032D3607E
:1045C800FF2581351561164C5461164B9361114BCB
:1045D80080335D609C60144CDC60144B0360097888
:1045E800002903D006E0C3681343E4E70168012308
:1045F800194301600E4909780E4BC906C90BC91841
:1046080081630D48D06130BD40F000404C0AFF1F67
:104618004B0AFF1F800003404A0AFF1FC00B0020FF
:104628007A3E6A070000890400808904CC240000CF
:10463800480AFF1F250800002FFCA601F8B5050051
:104648004A484B4B4B4C4C4A4C4934D0022D32D043
:1046580086155710066286699E43B31883612078D1
:10466800002833D00F614648086346480078012285
:10467800120380184861414E404C434B803E403CF9
:10468800002D27D06521414AC9024148012D2ED06D
:10469800022D31D0032D5AD0042D58D03D49691828
:1046A80031603D49A1602360E06002210846FDF7C2
:1046B8004BFB3A482BE08026066286699E4301231D
:1046C800DB04F61886612078002801D00A61CAE761
:1046D8000B61C8E7324830600020A0602360314891
:1046E800E06003210846FDF72FFB2F480FE02F4B12
:1046F8003360A2602160D7E72C4B5B1C3360A2605B
:104708002160E06002210846FDF71EFB2848206171
:10471800F068FF210843F060264860612648A061E0
:104728002648E06126482062264860622648A06242
:104738002648E0622648206326486063E020012D71
:104748000DD02168022D0ED081432160F8BD224B87
:10475800EB183360214B73602160A260A4E72168E5
:1047680081432031F1E781434031EEE7C000034047
:1047780000001C004B0AFF1F0000040080000340DB
:1047880003000001440AFF1F00280B005555553748
:10479800D6BE898E008006425555550080550822A0
:1047A8000080067807EE7536806608220180063D8F
:1047B80080450822A49C5C544C44434241524C46D8
:1047C800403A342E28007F554F49433D37312B4C12
:1047D80046403A342E28221C00800698545A985095
:1047E800F0B5224B214D21498026204A0727BF04D6
:1047F800403BC03DE024803902281662966914D0F7
:10480800BE430127BF04F6199661194A1278002A97
:104818001ED07A101A6101281ED0164A8018286006
:10482800154808610868A04314E00120BE43C0048D
:10483800361896610E4A1278002A00D04010186186
:104848000E4828600E4808610868A043403001E01F
:104858001F61E0E70860F0BD0848401E286009486D
:1048680008610868A0432030F4E70000C000034056
:104878004B0AFF1F00800698805508220280063DDB
:10488800804508228066082210B50A490020087071
:10489800094902200870FFF745FE0848007800F033
:1048A80011F8074C2078FFF7C9FE2078FDF752FA77
:1048B80010BD00004B0AFF1F4C0AFF1F480AFF1FCC
:1048C800490AFF1FF0B51A4A03230725D6001949DC
:1048D8009B026024ED0157693F281AD0B74305268B
:1048E8003604BE195661CA689A43CB14D218CA60F6
:1048F800CA69A2432032CA61CA69AA43CA610D497A
:1049080040398A6BC0061205120DC00B02438A6338
:10491800F0BDB7430126B604BE195661CA689A436A
:10492800CA60CA69A243CA61CA69AA438032E5E774
:1049380000F00040C0000340F8B53A4B5D6A9C6A3D
:1049480000265E629E62384B58630E2018629E15E0
:104958005E62402098625020D862FF202B30586257
:1049680031484030012915D0802101622F49FF23A9
:104978002D48A533403083602D4B43602A4B2D488A
:10498800403B18617D20C0000090471E009705D36A
:104998003846FAE7066225498331E8E7264889055B
:1049A8000F18214840388763234B5B1CC918816363
:1049B80022480090224800780300FDF7D1F9050449
:1049C8000408060D08001F4800E01F4800901F4813
:1049D80010601548403005E01D48F7E7C16AC94333
:1049E800890F14D000994B1E0093F7D20E49403915
:1049F8008F630D4900228A62CA6282604E620A622F
:104A0800FF2041304862074845628462F8BDC16AA8
:104A1800104B1940116011680122090C1204891801
:104A28004160E3E70010034080000340CA02000031
:104A38002020000080560C2064652100102700000B
:104A48004A0AFF1F204E0000307500000000202099
:104A5800409C0000FFFF3F3F00B50021022000F00E
:104A680021F80C49801C08700021422000F01AF837
:104A78000949801C08700121022000F013F8074939
:104A8800801C08700121422000F00CF80449801CA9
:104A9800087000BD440AFF1F450AFF1F460AFF1F92
:104AA800470AFF1FF8B53B4C394A2260394D394A4D
:104AB80007239B04803540320129A9690ED0994308
:104AC80001239B04C918A9613349D16033490B7884
:104AD8000121C905324E002B07D009E09943012373
:104AE800DB04C918A9612F49EFE73378032B14D0E9
:104AF800D3688B43D36050630E201062002757623F
:104B0800FF20153050622848009030780300FDF7E8
:104B180027F90507070D090B0D00D3680B43E9E7D3
:104B2800224802E0224800E0224800900098431EF4
:104B38000093FBD2686B57620002000E17621E4B8F
:104B4800D360FF23413353626523DB0223601B4D8F
:104B58002F78E023012F0AD02D78022D25680AD05E
:104B68009D4325600D4B1B78002B07D009E0256875
:104B78009D432035F5E79D434035F2E73378032B15
:104B880003D0D3688B43D360F8BDD3680B43FAE7EF
:104B980010000300400003407F4073004B0AFF1FD2
:104BA8004A0AFF1F7F40530010270000204E0000D4
:104BB80030750000409C000040401000490AFF1F6B
:104BC80070B50026002400251748C17817A0FEF705
:104BD800A5F81C4800680A2805D21A4801681AA0D6
:104BE800FEF79CF870BD104800790F494979090211
:104BF800401886B2062505E00B48405D001984B2CE
:104C0800681C85B2FF2DF7DDA64203D115A0FEF77B
:104C180085F807E017A0FEF781F8224631461AA06A
:104C2800FEF77CF800BFDDE72C76FF1F5278206680
:104C380072616D6520696E646578206973202564EA
:104C48000A0000007C53FF1F6672616D652073695E
:104C58007A6520696E636F72726563743A25640AB7
:104C6800000000004652414D4520435243204F4B1F
:104C78000A0000004652414D452043524320455208
:104C8800524F520A000000006372633A25782025CB
:104C9800780A00000146002008E00B685A1C0A60E8
:104CA8001B780A2242439A18104630380A6812784C
:104CB800302A03DB0A681278392AEEDD70470000D3
:104CC8001CB504460A4804700A4800F0D5F80A4999
:104CD800C86809690191009007480EC80748FDF7A0
:104CE80045F8012102480078FDF710F81CBD0000C6
:104CF8005853FF1F7D43FF1F5C53FF1F8153FF1F46
:104D0800FEB50C4608202040002847D039480168E5
:104D18003948FCF71DFE0A2138480078FDF72CF8C1
:104D28003031CEB233480068FDF72CF8401E3249C6
:104D38000E5432480078401C304908700122520253
:104D48002D492F48FDF724F8012149022D48FDF788
:104D580025F828480068FDF715F8401C86B2254854
:104D68000068FDF70FF8401C87B2264B224A002145
:104D7800234800970196FDF717F80546294622A013
:104D8800FDF7CCFF2548C07A002803D11D4924A08F
:104D9800FDF7C4FF204608214840FEBD10202040F2
:104DA800002803D0204610214840F6E72020204064
:104DB800002806D01DA0FDF7B1FF2046202148405D
:104DC800EBE740202040002807D00E4914A0FDF74B
:104DD800A5FF204640214840DFE7802020400028EA
:104DE80005D0FFF7EDFE204680214840D5E700209A
:104DF800D3E700007053FF1F2C74FF1F8053FF1F61
:104E08008153FF1F2C76FF1F5B532054785D20725F
:104E18006573756C743A2025640A00005C53FF1FA3
:104E28004556543A2025730A000000004556542080
:104E380054583A202573000010B5044660780128BC
:104E480004D0022808D0042811D10BE020210948F9
:104E58000078FCF75BFF0AE0402106480078FCF781
:104E680055FF04E0217A6068FFF7B2FA00BF00BF7F
:104E780010BD00005853FF1F10B50446002C01D187
:104E8800062010BD0648046000210920FCF7AEFE8C
:104E9800044A11460920FCF78DFF0020F1E70000C5
:104EA8008453FF1FC143FF1FF8B5614C6068803011
:104EB800806880F30888FCF71DFF5E485E4900683B
:104EC8000225884206D00020FCF76CFE68070169BD
:104ED800A943016100F0D6F858480078FCF73AFF7A
:104EE800574E0020F061F561564D75610120FCF7C1
:104EF80029FE0320F061FCF74FFE0746FCF798FDFA
:104F08000646FCF749FE50490860FFF7BDFC4F48CC
:104F18000068874201D9381A01E0381A401E4C4906
:104F2800884200D9084061688A8DD20709D0494A69
:104F3800030C126880B2534350431B02000A18182E
:104F48000BE0C2018300D21A4300D21AC30018181A
:104F5800921C80309208400A1018E061FF313E48E8
:104F680001314968006809183C480068081A411965
:104F78008B083B488A073B4903600D68920F52191A
:104F88000A60042A04D95B1C9207920F03600A6026
:104F9800E169354FC8183946FCF746FE02463348E2
:104FA800334D0368D31803602A688A182A60BA4206
:104FB80006D95B1C036039461046FCF735FE2960AC
:104FC800FCF7FEFE2B480078002810D0FCF730FDD7
:104FD800294AE169801B12680B18934202D2511AC0
:104FE800091A01E07D21C9001548FCF7EFFE234DA1
:104FF800287A002811D0FCF71BFD811BE3691048B3
:10500800EA685C183C30A24202D9D21A511A00E070
:105018001B49FCF7DBFE00202872FCF7DDFE0220AE
:10502800FCF70CFD0020FCF7BDFDFCF7A3FDF8BD67
:10503800D853FF1F0C0AFF1FB6412103490AFF1F5F
:1050480000100040C4090000100AFF1F340AFF1FA7
:10505800FFFF3F00380AFF1F1C0AFF1F200AFF1F1F
:10506800240AFF1F280AFF1F710200006008FF1FA3
:105078002C0AFF1F1C09FF1FE408FF1F740BFF1FEA
:10508800DC050000F8B5FDF785FEFDF727FB0120DC
:10509800404E00903078404C022810D0FCF77CFD40
:1050A80005463220FCF74EFDFDF7B4FC0F20FCF757
:1050B80049FD3078012808D0FDF758FD1AE0374837
:1050C8004068006AFCF73EFD24E033484038C06B76
:1050D8004007400F012802D10020FCF793FD6068CB
:1050E800FF270137B84360600220FCF72BFD60689A
:1050F80038436060FCF750FDA84201D3401B01E033
:10510800401B401E25491E2288615043244A496895
:105118008018C861244923480860234823498030FF
:10512800C163FF21413141623078FCF76BFD2049B2
:105138002048FCF74BFE1F481F491430FCF746FE79
:105148000420FDF7F5F91420FDF7F2F91520FDF715
:10515800EFF91720FDF7ECF9FF20FCF7C5FD01205A
:10516800FCF740FEFF20F530FCF742FE5820FCF724
:10517800B3FC1248FCF742FE0098FCF745FE0720F6
:10518800FCF748FEE0690E490840FF300930E0614D
:10519800F8BD00004A0AFF1F40F00040D853FF1F27
:1051A800720600000180063D00000340340800003C
:1051B8007102000014100040FFFF3F00307500002E
:1051C80000FEFEFF020003000502060207030803B3
:1051D80009030A000C030D030003010304030B0079
:1051E8000E030F0310031103120313031403150313
:1051F80016030000000000003B000108F159000000
:10520800094DFF1F020000000506FFFF00C2010054
:10521800010000000000000073697A656F66286766
:105228005F70436F6E6E656374696F6E4275666614
:10523800657229203D2025642C2073697A656F6684
:105248002870436F6E6E436F6E7465787429203DC5
:105258002025642C2073697A656F66286C617267F3
:105268006548656170293D2564200A007468697382
:1052780020737472696E6720697320666F72207478
:1052880065737420737069206D6173746572206131
:105298006E6420736C61766520786D69742C206C5F
:1052A8006F6F7020636F756E74203D2020000000C2
:1052B8003031323334353637383941424344454644
:1052C8004748494A4B4C4D4E4F50515253545556EE
:1052D8005758595A000000003031323334353637C8
