:020000041102E7
:1000000003B40148019001BDADAE000003B4014846
:10001000019001BD456B010003B40148019001BD91
:100020000189000003B40148019001BDC53F0000F3
:1000300003B40148019001BDE94C010003B401483B
:10004000019001BDC95C010003B40148019001BDEC
:10005000B30E000003B40148019001BD112FFF1F32
:1000600003B40148019001BD75A9000003B4014823
:10007000019001BD810E000003B40148019001BD53
:100080009DA9000003B40148019001BDB92EFF1FD6
:1000900003B40148019001BD712CFF1F03B4014856
:1000A000019001BD092CFF1F03B40148019001BD5F
:1000B000D1A5000003B40148019001BD3D2CFF1FF4
:1000C00003B40148019001BD090E0000F8B5D34901
:1000D000D14A002004464A608300401CD450FF28C7
:1000E000FADD4868CE4A014680318A606E22C262DB
:1000F000CC4A1278002A01D07F22C2620A2202650D
:10010000C94A13788363C94BC36115781023022D44
:1001100008D01578012D05D01578032D02D015785B
:10012000042D00D10362C24D45611925AD018561E1
:100130003725CD6036272826C76308254664056421
:100140004F6032270F603B27CF634127CF643927A9
:100150004031E0C132274F6002274F61422708310A
:10016000E0C11E274F60CE608D6005264E6142269D
:100170000E615A2660390E614D613C258D61AF25B7
:10018000ED000560AB4D05631578022D09D015789B
:10019000012D08D01578032D07D01578042D06D031
:1001A00007E0152504E0436003E00E2500E00C2580
:1001B0004560FF252D358560C560FF25F535056156
:1001C0009D4D85647D25ED009C4ECD67C6644562DE
:1001D0009B4D85627325C565062545658565C51DED
:1001E0000826F93502272E6047664B27FF008766F1
:1001F0000927C766934F07674667BE108467C667BF
:10020000914F8E4E3E601678022E09D01678012E40
:100210000AD01678032E0BD01278042A0CD00EE0E8
:100220001A22CA61212205E01422CA61182201E0C3
:100230001322CB610A6202E00E220B62CA617E4A7F
:100240008A627D22D2008A6764224A620522CA62DB
:1002500002220A63C8228C634A63382169607B49A1
:1002600029647B49A9614B21C900E9617349FF30C9
:10027000643929627D2109016962EC661E212C67BF
:10028000A9667049A965E965891029666964696785
:100290007049A9677049714A8130E96702608260DC
:1002A0004160FF21F531C16001616E486C495A4AD5
:1002B00081606D49803A11616A496C4A80318A6275
:1002C0006B4ACA626B4A82616B4AC2626B4A0263C2
:1002D0006B4A64484038C2636A4ACA616A498163AA
:1002E00060496A48403188616A49694888605D4868
:1002F000694A80384260694A4263694A0A626949C8
:10030000816058496848C039C860FFF779FE01200C
:10031000FFF77CFEF8BDF3B50746644881B0C169BC
:10032000634A1140FF310931C161002613E0002505
:100330002C461120FFF770FE5C48406A8007800F52
:10034000610088402843641CE4B20546102CF0D3B9
:1003500001C7761CF6B202988642E8D3FEBD10B5FE
:100360002E4C607800280AD104215248FFF7D3FFB1
:10037000504804211030FFF7CEFF0120607010BDFF
:10038000F0B500248BB00D460646102902D9012095
:100390000BB0F0BDFFF7E3FF464900200A5C401CAC
:1003A0001419C0B21028F9D3002C03D0102D03D992
:1003B0000B20EDE70E20EBE73F483E4C00230068A2
:1003C00002A91034E25CC75C7A40CA545B1CDBB201
:1003D000102BF7D306AA3748FFF724FE102D00D9BB
:1003E00010252A4606A93046FFF722FEFFF726FE13
:1003F000216840182060FFF721FE616840186060A6
:10040000FFF71CFEA1684018A060FFF717FEE16827
:100410004018E0600020BBE70004FF1FE048FF1F1A
:10042000486FFF1F9048FF1F4A0AFF1F3A0700004E
:1004300080C3C9019A02000050C30000280A0000CE
:100440006A180000204E0000F009FF1F0040001154
:1004500068100000DC05000040420F00102700007B
:10046000C934FF1F0001FF1FD521FF1F793CFF1F6B
:10047000513FFF1FE11EFF1F7520FF1FFD1EFF1FC5
:100480005D2AFF1F2D45FF1F5143FF1F0D32FF1F28
:100490005523FF1F0002FF1F5532FF1F1D33FF1F93
:1004A0006132FF1F1132FF1F8523FF1F40F0004004
:1004B00000FEFEFF186BFF1F0049FF1F002805DB31
:1004C000C106C90E0120884001490860704700003C
:1004D00000E100E08307FF22DB0E9A408907090E46
:1004E0009940002808DB830809489B001B181868FE
:1004F00090430843186070470007000F08388308CE
:1005000004489B001B18D86990430843D861704782
:1005100000E400E000ED00E010B50448C16B034AC0
:1005200040321068D06000F03DFA10BD00800040FD
:1005300030B5C21F0A2A01D3062030BD0124074D61
:100540009440002905D0002100F0C0F8286820431D
:1005500001E02868A0432860002030BD003800403A
:10056000054B01228240D868002901D0104300E0E9
:100570009043D860704700000038004070B5FF28F5
:1005800014D08207D30E8408094A5E1DA400A51862
:10059000AC69F21A0126521C9640761E9E40B44366
:1005A00099400C43AC610121FFF7DAFF70BD0000F8
:1005B0000038004010B5114C2078002801D00720E9
:1005C00010BDFF212D310D48FFF73EFD01202070A9
:1005D0000B490020086348630A4908624862022107
:1005E0001020FFF777FF1020FFF768FF064A074942
:1005F0000D20FFF72FFD002010BD00003469FF1F04
:100600000080004080F000401D0802119107021197
:1006100010B5172801D3052010BD0C4B9C6B01228F
:100620008240104620439863586B90435863DC6BBC
:10063000012907D020469043D863186B02431A6300
:10064000002010BD10462043F6E700000080004067
:10065000054B0122801E82405869002901D01043B9
:1006600000E09043586170470038004070B5044680
:1006700014480E460519002902D16878012808D0CF
:1006800000212046FFF76CFF022C04D0032C02D07F
:1006900005E0072070BD01212046FFF7D9FF0021AA
:1006A0002046FFF745FF08490120A0404A68012E77
:1006B00005D082434A6002206870002070BD02436A
:1006C0004A60FAE73469FF1F0080004070B54200BD
:1006D00083180D4A9C18A5786478D65C641B0122A7
:1006E000641CA240521EAA40084BA940132806D2FF
:1006F000B000C018836893430B43836070BD586992
:1007000090430843586170BDDF0D021100F00040B6
:1007100007494A68012383401A4201D0096802E070
:10072000034940310969C140C807C00F7047000044
:100730000080004070B5154C45002E1976780123D5
:10074000114AB34000290ED0142809D0152807D02B
:10075000162805D0605780008018816819430DE085
:10076000506918430EE014280AD0152808D016281E
:1007700006D060578000801881689943816070BD01
:1007800050699843506170BD00F00040240E021182
:1007900070B5104D00242E197078012803D1E0B2F5
:1007A0000121FFF7C7FF707802280ED1E0B2FFF7F2
:1007B000AFFF01214140E0B200F074F8E0B2FFF772
:1007C000A7FF0C21614349194876641C172CE2DB12
:1007D00070BD00003469FF1F10B50F4C0D4A012396
:1007E000245C142809D2106A002902D0A3401843BF
:1007F00001E0A3409843106210BD506A002903D065
:10080000203CA340184302E0203CA34098435062A0
:1008100010BD000080F00040C80D021170B502212B
:100820001020FFF757FE1020FFF748FE00241C4D54
:1008300007E0022C01D0032C03D1E0B20121FFF725
:1008400007FF2819407801280BD1E0B2FFF760FFBD
:10085000E2B20146104600F061F8E0B20021FFF775
:1008600069FF0C2060434019007E002814D0E0B2DC
:1008700000F066F8E6B23046FFF74AFF002801D0E4
:10088000012100E000210C2272435219527E824263
:1008900002D0304600F0BAF8641C172CC9DB70BDDA
:1008A0003469FF1FF8B542008318184AD55C9A18BE
:1008B0009278521ED4B2164A12185278022A21D1C6
:1008C000144EB76B0122134683401F43B763124B8C
:1008D00013280ED2002906D0A900C9188B68A2409F
:1008E00093438B600BE0A900C9188B68A2401343A7
:1008F000F7E70029596906D0A240914359610121C7
:10090000FFF76AFFF8BDA2401143F7E7DF0D0211C0
:100910003469FF1F0080004000F00040012200B554
:10092000064B82400029196801D0114300E0914331
:1009300019600121FFF79AFE00BD00000080004011
:1009400070B50446164821460C2251430D186A68BA
:100950000026002A02D1AA68002A1CD0104B0222CD
:10096000183B1B195A700122425400212046FFF700
:100970007DFE6868002808D0A86800280DD02046B1
:10098000FFF7C6FE002808D0002631462046FFF7B4
:100990003FFE002070BD122070BD0126F5E700006B
:1009A0004C69FF1FF3B5184E002481B0074601259E
:1009B0002846A040384223D00299084000D00120A8
:1009C0000090E0B2009900F021F80C2060438019FB
:1009D0004168806800290ED0002807D000980028C0
:1009E00002D00021E0B203E00121FBE7E0B20121E7
:1009F000FFF70EFE04E0002802D0E0B20021F7E786
:100A0000641C172CD4DBFEBD4C69FF1F074A0C2366
:100A100043439B185A68002A01D0012904D09A68E0
:100A2000002A02D0002900D1104770474C69FF1FEF
:100A3000FFB581B00A9F144D7E01A85D002802D049
:100A4000112005B0F0BD6846407B002801D005208C
:100A5000F7E7741920212046FFF7F6FA01A80FC81E
:100A600010340FC4384600F0F9F80120A855002FC3
:100A700006D0064A00211920FFF7ECFA0020E0E733
:100A80000021034A0820F7E7606AFF1FBF0D02112B
:100A9000B50D021110B5064C43011B199B7E002BAE
:100AA00002D000F03DF810BD00F004F810BD0000C9
:100AB000606AFF1F78B5174B012800D1164B002440
:100AC0001648009404E0009D6E1C009685421ADCD6
:100AD000DD6FED07F7D10AE0009D6E1C00968542A0
:100AE00011DC1D7DAD06F7D50D781D70491C15462E
:100AF000521E92B2002D0094F3D106E000994A1CD8
:100B00000092814201DD0D2078BD197D4906F5D5A1
:100B1000002078BD0040004000900040A086010009
:100B2000F7B507462A49400144182A4E241D1546A8
:100B3000002A10D0019800280DD02178002908D073
:100B4000E088A84205D3012916D0A188491981421D
:100B500003D90320FEBD0620FEBDFFF781FAA18860
:100B6000A0682A4640180199FFF780FAA08840192A
:100B7000A080FFF781FA27E0A0680199FFF776FAD5
:100B8000A5800020608002202070A168102D00D96F
:100B90001025012F00D1104E72680220824372602E
:100BA00004E06088421C6280085C307028466D1E3C
:100BB000ADB20028F5D1002F08D01920FFF762FA56
:100BC00070680221084370600020FEBD0820F5E730
:100BD000606AFF1F0040004000900040F8B50646E4
:100BE00008270B20184C012E02D11927174C112071
:100BF0000121814016480160BFF34F8FBFF36F8F13
:100C0000144871010D18287C0021FFF7A9FC687CAD
:100C10000021FFF7A5FC8020207300252571257099
:100C20002573257265603846FFF732FA3846FFF7BC
:100C300035FA002E03D0084845600020F8BD06486C
:100C40004038C562F9E700000040004000900040D5
:100C500080E100E0606AFF1FC003FF1FF0B587B0AE
:100C60000746FFF721FA0690082001900420009023
:100C700005200390464C0B263846FFF7AFFF012FA7
:100C800007D119200190082011260090414C09201D
:100C90000390414879010D18287CFF2802D1687C17
:100CA000FF282CD010350198FFF704FA0198FFF7C0
:100CB000EFF928780221FFF709FD68780221FFF794
:100CC00005FD28780099FFF759FC68780399FFF72C
:100CD00055FC002020730698696800114A088018A6
:100CE000FFF7EEF9014600202061802020730A0AF8
:100CF00022712170E97A002904D01B2103E006202B
:100D000007B0F0BD03212173297A002900D0872183
:100D10002172012161602A7A002A02D062680243AE
:100D20006260AA7A002A03D0626802231A436260D2
:100D3000002F12D01A4B194A5A60FF22002E11DBE5
:100D4000B408184BA400E4182368B507ED0EAA40B8
:100D50009343A8400343236013E0114B124A403BE6
:100D6000DA62EAE733071B0F083B9C080F4BA4002D
:100D7000E418E369B507ED0EAA409343A840034386
:100D8000E361002E02DB0A48B14001600020B7E7B2
:100D90000040004000900040606AFF1FF11DFF1FEF
:100DA000C003FF1F00E400E0251EFF1F00ED00E070
:100DB00000E100E010B50020FFF750FF10BD10B5B6
:100DC0000120FFF74BFF10BD0001020307090A0BCA
:100DD0000E0F101112141718191A1B1F20212200B0
:100DE0000201000504000807000B0A001716001D89
:100DF0001C010201010504010E0D01111001141363
:100E0000011716011A19020201020B0A020E0D0245
:100E10001110021413021716030504030807030B2D
:100E20000A030E0D000D000E001000110013001437
:100E300001070108010A010B011C011D0204020542
:100E4000020702080219021A021C021D0301030212
:100E50000317000003000000000000000000000075
:020000041FFFDC
:1000000000000000CD3BFF1F7C47FF1F8447FF1F00
:100010009448FF1F000000000000000000000000E6
:1000200000000000000000000000000000000000D0
:1000300000000000000000000000000000000000C0
:1000400000000000000000000000000000000000B0
:1000500000000000000000000000000000000000A0
:100060000000000000000000000000000000000090
:100070000000000000000000000000000000000080
:100080000000000000000000000000000000000070
:100090000000000000000000000000000000000060
:1000A0000000000000000000000000000000000050
:1000B0000000000000000000000000000000000040
:1000C0000000000000000000000000000000000030
:1000D0000000000000000000000000000000000020
:1000E0000000000000000000000000000000000010
:1000F0000000000000000000000000000000000000
:1001000000000000000000000000000000000000EF
:1001100000000000000000000000000000000000DF
:1001200000000000000000000000000000000000CF
:1001300000000000000000000000000000000000BF
:1001400000000000000000000000000000000000AF
:10015000000000000000000000000000000000009F
:10016000000000000000000000000000000000008F
:10017000000000000000000000000000000000007F
:10018000000000000000000000000000000000006F
:100190004D2FFF1FE52FFF1FF93FFF1F000000003D
:1001A000000000000000000000000000000000004F
:1001B000000000000000000000000000000000003F
:1001C000000000000000000000000000000000002F
:1001D000000000000000000000000000000000001F
:1001E000000000000000000000000000000000000F
:1001F00000000000000000000000000000000000FF
:1002000000000000000000000000000000000000EE
:1002100000000000000000000000000000000000DE
:1002200000000000000000000000000000000000CE
:1002300000000000000000000000000000000000BE
:1002400000000000000000000000000000000000AE
:10025000000000000000000000000000000000009E
:10026000000000000000000000000000000000008E
:10027000000000000000000000000000000000007E
:10028000000000000000000000000000000000006E
:10029000000000000000000000000000000000005E
:1002A000000000000000000000000000000000004E
:1002B000000000000000000000000000000000003E
:1002C000000000000000000000000000000000002E
:1002D000000000000000000000000000000000001E
:1002E000000000000000000000000000000000000E
:1002F00000000000000000000000000000000000FE
:1003000000000000000000000000000000000000ED
:1003100000000000000000000000000000000000DD
:1003200000000000000000000000000000000000CD
:1003300000000000000000000000000000000000BD
:1003400000000000000000000000000000000000AD
:10035000000000000000000000000000000000009D
:10036000000000000000000000000000000000008D
:100370008D18FF1F000000000000000000000000BA
:10038000000000000000000000000000000000006D
:10039000000000000000000000000000000000005D
:1003A000000000000000000000000000251EFF1FEC
:1003B000000000000000000000000000000000003D
:1003C000000000000000000000000000000000002D
:1003D000000000000000000000000000000000001D
:1003E000000000000000000000000000000000000D
:1003F00000000000000000000000000000000000FD
:0C04000001FF01FF01FF01FF910000005F
:020000041FFFDC
:10183800486FFF1FBD18FF1F81840000F1280000BA
:101848000000000000000000000000000000000090
:10185800000000000000000000000000C918FF1F81
:101868000000000000000000CD840000CD18FF1F1C
:101878000348854600F02CF8004800474539FF1F0B
:10188800486FFF1F09484838694601600430F0C0B6
:1018980044464D4656465F46F0C030BCF0BCF0C0EA
:1018A800F0BCF0C044380249084700000004FF1F9C
:1018B8006525FF1F0448804704480047FEE7FEE708
:1018C800FEE7FEE7FEE70000AD23FF1F7918FF1FC4
:1018D800064C0125064E05E0E36807CC2B430C3C7B
:1018E80098471034B442F7D3FFF7C6FF6048FF1F8C
:1018F8009048FF1F30B58C180278401C13071B0F47
:1019080001D10378401C120906D10278401C03E07B
:1019180005780D70401C491C5B1EF9D101E00B7065
:10192800491C521EFBD1A142E6D3002030BD000065
:1019380003B40148019001BDD94F010003B4014827
:10194800019001BD75A9000003B40148019001BDD3
:10195800F9A6000003B40148019001BDA1AF000041
:1019680003B40148019001BD9DA9000003B40148DA
:10197800019001BDDD3F000003B40148019001BDA5
:101988008944000003B40148019001BD21440000CE
:1019980003B40148019001BD750F000003B401486C
:1019A800019001BDC95C010003B40148019001BD6B
:1019B8001907010003B40148019001BDBD0B0100E6
:1019C80003B40148019001BDDD0C010003B40148D6
:1019D800019001BDDD0A010003B40148019001BD79
:1019E8000134010003B40148019001BD093401002C
:1019F80003B40148019001BD0534010003B4014856
:101A0800019001BDF535010003B40148019001BD05
:101A1800F935010003B40148019001BDE91701003F
:101A280003B40148019001BD6137010003B40148C6
:101A3800019001BD01D7000003B40148019001BD28
:101A48006DF6000003B40148019001BD7912010050
:101A580003B40148019001BD4DF9000003B40148E9
:101A6800019001BDC1F7000003B40148019001BD18
:101A7800116E000003B40148019001BD8D82000081
:101A880003B40148019001BD5952010003B4014853
:101A9800019001BDE1AC000003B40148019001BD13
:101AA800E53A010003B40148019001BD496D010008
:101AB80003B40148019001BD3D71010003B4014820
:101AC800019001BD0189000003B40148019001BDE6
:101AD800950A021103B40148019001BDED4A0100C5
:101AE80003B40148019001BDA54F010003B40148AA
:101AF800019001BD8552010003B40148019001BD68
:101B0800156B010003B40148019001BD016C01008F
:101B180003B40148019001BDBD5C010003B4014854
:101B2800019001BD310A021103B40148019001BDC1
:101B3800CD4C010003B40148019001BD810E0000A5
:101B480003B40148019001BDCD06021103B4014858
:101B5800019001BDB30E000003B40148019001BD1E
:101B680021A9000003B40148019001BDADAE0000F9
:101B780003B40148019001BDB54C010003B401480C
:101B8800019001BD4550000003B40148019001BD1A
:101B9800C56D010003B40148019001BD51B80000B2
:101BA80003B40148019001BD85C1000003B4014898
:101BB800019001BDE9D4000003B40148019001BDC2
:101BC800E90B010003B40148019001BD090E0000B2
:101BD80003B40148019001BD6D0B010003B4014835
:101BE800019001BDC115010003B40148019001BD78
:101BF800CD0C010003B40148019001BD71B0000093
:101C080003B40148019001BDD9B0000003B40148F4
:101C1800019001BD5976010003B40148019001BD4E
:101C280053B9000003B40148019001BDE94C01001B
:101C380003B40148019001BDED6B010003B40148F4
:101C4800019001BDC9A9000003B40148019001BD7C
:101C5800CD00021103B40148019001BDEDA50000BB
:101C680003B40148019001BDB505021103B4014850
:101C7800019001BD3D4B010003B40148019001BD35
:101C8800154D010003B40148019001BDB14E00009B
:101C980003B40148019001BD2D11010003B40148AE
:101CA800019001BD8914010003B40148019001BDF0
:101CB8006189000003B40148019001BDD5440100C9
:101CC80003B40148019001BD2D6C010003B4014823
:101CD800019001BD7997000003B40148019001BD4E
:101CE8006911010003B40148019001BD851201008A
:101CF80003B40148019001BD8D11010003B40148EE
:101D0800019001BDE512010003B40148019001BD35
:101D1800F90D010070B54E4A8AB0012800D14D4A2C
:101D280043014D486D461C18207E00280AD08420A7
:101D38008058C3B2002002E016782E54401C984206
:101D4800FADB03E0107D012310782870E269002A8D
:101D580004D0297506952B7705A890470AB070BD61
:101D6800FEB5044642013C48394D1318805C191DE4
:101D7800002829D0187E002826D0987E002823D055
:101D88000878022820D188884A888E68801A82B20A
:101D9800102A01D9102201E0002A02D0012C16D005
:101DA8001CE001200870002048808880D96900293B
:101DB80005D02A4B6D460DCB0DC568468847002CCB
:101DC80003D0192001F0D6F8FEBD0820FAE7214D0E
:101DD80004E04888431C4B80305C28701046521E33
:101DE80092B20028F5D1FEBD1A4880680007000F9E
:101DF800062812D006DC02280AD004280DD10121B9
:101E0800012087E7072805D00C2806D10221F7E72B
:101E18000120A5E70F484030C06B70470C48806828
:101E28000007000F062812D006DC02280AD0042872
:101E38000DD1012100206DE7072805D00C2806D117
:101E48000221F7E700208BE701484030C06B70475C
:101E58000040004000900040606AFF1F540E0211CD
:101E680010B50D497620C860FFF762FD10BD044625
:101E7800FFF764FD0949C86940229043C8612046BC
:101E8800FFF762FD00F0D4FF04490420C031086068
:101E98000120FFF75FFDFEE70020004000F0004052
:101EA80010B5FFF74BFD0A480468094A411780320C
:101EB800116008490160FFF753FD204610BD10B5B9
:101EC8000446FFF73BFD02480460FFF749FD10BDDB
:101ED80000E100E01000100070B50124A407A36819
:101EE80010252B43A360FFF741FDA068A843A0601D
:101EF80070BD0000FFB5064601208007816881B0EB
:101F08001D46102211438160554F0020386030462D
:101F1800D730FFF731FD9D20800034468059FF36C9
:101F2800CA3401360028306822462CD00121FFF738
:101F380029FD4B4F2078F863641C2046FFF728FDE5
:101F480000BA000AE17800020843B863241D20465D
:101F5800FFF71EFD00BA000AE17800020843786323
:101F6800241D2046FFF714FD00BA000AE17800029C
:101F7800084338630398029900020843F860039FF6
:101F880000243F1D0EE00021D1E72819401CFFF76F
:101F9800FFFC0102285D0143324820180160241D1E
:101FA800A4B23F1F042FF0DA032F04D0022F08D069
:101FB800012F0CD011E02819FFF7EAFC0102090AE9
:101FC80006E0291948780A780102114300E0295DE2
:101FD800244820180160241DA4B20021214F02E0EA
:101FE800E0190160241DFF2CFADD1D481E4A4260DD
:101FF8000F220261012202604269002AFCD0426974
:10200800930701D4520708D4012080078268102161
:102018008A438260002005B0F0BD01600020039A69
:1020280011E0C11909682954401C80B20B0A2B54CD
:10203800401C0B0C80B22B54401C80B2090E295452
:10204800401C80B2121F002AEBDC3068401C306054
:1020580001208007826810218A4382600120DAE724
:102068000000044000010440080F0000FFB50546C9
:1020780001208007816881B01E46102211438160CB
:10208800504F002038602846D730FFF775FC9D2058
:1020980080002C464059CA3480350028E86F224613
:1020A8002BD00021FFF76EFC464F2078F863641CA4
:1020B8002046FFF76DFC00BA000AE17800020843E9
:1020C800B863241D2046FFF763FC00BA000AE178D4
:1020D800000208437863241D2046FFF759FC00BA24
:1020E800000AE17800020843386303980299000265
:1020F8000843F8600024039F0EE00121D2E730195D
:10210800401CFFF745FC0102305D01432E482018B2
:102118000160241DA4B23F1F042FF0DA032F04D05E
:10212800022F08D0012F0FD014E03019FFF730FC30
:102138000102090A09E031194878097800020843C0
:1021480021496118086003E0315D1F4820180160CB
:10215800241DA4B200211C4B02E0E0180160241DDC
:10216800FF2CFADD0F221748120242600F2202618B
:10217800012202604269002AFCD00160039A002013
:10218800121D11E0C11809683154401C80B20C0AB4
:102198003454401C0C0C80B23454401C80B2090EDC
:1021A8003154401C80B2121F002AEBDCE86F401C3F
:1021B800E86701208007826810218A43826005B0A1
:1021C800F0BD00000000044000010440F8B5FFF72E
:1021D800E5FB564908600420FFF7E6FBFFF7EAFB3A
:1021E8000646C00715D052490020086051480078BB
:1021F800012811D0032813D0042815D0022817D09D
:10220800052819D0FFF7DCFB4B4F044601281AD0EC
:102218001EE0FFF7DBFBF8BD3046FFF7DDFB0EE005
:102228003046FFF7DFFB0AE03046FFF7E1FB06E048
:102238003046FFF7E3FB02E03046FFF7E5FB40B22C
:102248000128E8D04FE0387805280BD0062809D0B7
:102258003A483B4D0078022808D0052806D0022CC1
:102268000ED005E0304601F0F9F93CE0022C02D02E
:10227800012C11D014E0A87B002805D0022803D037
:102288003878052804D00BE0304601F0FFF915E056
:10229800304601F0EFF911E0012807D0062809D0EF
:1022A8003046FFF7B7FB022C08D01CE0304601F09F
:1022B80005FA18E0304601F0F5F914E038780128FD
:1022C80011D170050FD4687BC10701D0252004E027
:1022D800800701D5262000E02720297D814202D9E8
:1022E8003220FFF79DFB154C2078042804D00328E2
:1022F8000ED0072811D014E0FFF798FB002810D063
:10230800FFF79AFB5820FFF79DFB0220207008E09A
:102318000C48807CFFF79CFB03E00B48807BFFF7B1
:102328009DFB0320FFF740FBF8BD00009C09FF1F41
:102338009809FF1F9009FF1F1C09FF1F2309FF1F92
:10234800A60BFF1FBC0BFF1FD40BFF1F10B5FB29EB
:1023580008D8084B9A4205D81B2903D3FF234933D1
:102368009A4201D2302010BD034B19825A82FFF7DE
:102378007BFB10BD480800008410FF1F10B5FFF755
:1023880079FB02490020488010BD0000E048FF1F8B
:10239800C106C90E01208840014908607047000045
:1023A80000E100E0024901480860704740787D017B
:1023B800DC48FF1F10B5084C607008A000F092FBC5
:1023C8000CA000F08FFB02F04DF97D22D200012114
:1023D8006078FFF755FB10BD9848FF1F776174635D
:1023E80068646F672064656D6F2073746172743AF6
:1023F8000A00000073797374656D20656E61626C04
:102408006520736C6565700A0000000010B50C4605
:10241800C80714D00A480178491CC9B201700129BB
:1024280008D908A000F05EFB02F01CF90CA000F02F
:1024380059FBFEE70DA000F055FB0120604010BDE0
:102448009848FF1F73797374656D2077696C6C20E9
:1024580064697361626C6520736C6565700A00005D
:102468007768696C652831293B00000073797374BB
:10247800656D2069732072756E6E696E673A2564A2
:102488000A0000008307FF22DB0E9A408907090E25
:102498009940002808DB830809489B001B18186826
:1024A80090430843186070470007000F08388308F6
:1024B80004489B001B18D86990430843D8617047AB
:1024C80000E400E000ED00E08307FF22DB0E9A4005
:1024D8008907090E9940002808DB830809489B00F2
:1024E8001B18186890430843186070470007000FCE
:1024F8000838830804489B001B18D8699043084390
:10250800D861704700E400E000ED00E002E008C890
:10251800121F08C1002AFAD170477047002001E055
:1025280001C1121F002AFBD1704700000248C06990
:10253800002800D0004770474003FF1F1CB56946BC
:102548000120FFF7A3FA012000900348019000F052
:10255800EDFA01201CBD0000BB0B0000044629A0B9
:10256800FFF79AFA2DA0616AFFF796FA2FA0A16AE1
:10257800FFF792FA31A0E16AFFF78EFA33A0216BD8
:10258800FFF78AFA35A06168FFF786FA37A0A168D5
:10259800FFF782FA39A0E168FFF77EFA3BA02169CC
:1025A800FFF77AFA3DA06169FFF776FA3FA0A169C3
:1025B800FFF772FA41A0E169FFF76EFA43A0216ABA
:1025C800FFF76AFA45A0616BFFF766FA47A0216832
:1025D800FFF762FA49A0A16BFFF75EFA4BA0E16B27
:1025E800FFF75AFA4DA0216CFFF756FA4F48416899
:1025F8004FA0FFF751FA52480068002800D08047E2
:10260800FEE700005B48617264206661756C7420A7
:1026180068616E646C65725D0A00000052302020AB
:10262800203D203078253038780A000052312020AB
:10263800203D203078253038780A0000523220209A
:10264800203D203078253038780A00005233202089
:10265800203D203078253038780A00005234202078
:10266800203D203078253038780A00005235202067
:10267800203D203078253038780A00005236202056
:10268800203D203078253038780A00005237202045
:10269800203D203078253038780A00005238202034
:1026A800203D203078253038780A00005239202023
:1026B800203D203078253038780A0000523130200B
:1026C800203D203078253038780A000052313120FA
:1026D800203D203078253038780A000052313220E9
:1026E800203D203078253038780A000053502020CB
:1026F800203D203078253038780A00004C522020C0
:10270800203D203078253038780A000050432020BA
:10271800203D203078253038780A00005053522068
:10272800203D203078253038780A000000ED00E0A0
:1027380049435352203D203078253038780A00002C
:10274800D848FF1F10B500F0E5F9FFF7F7FE00289D
:1027580002D00248804710BDFEE70000E1A2000059
:10276800F0B585B005460291002927D0154F002401
:10277800144E803F0023009402221946052001943C
:10278800FFF790F930698007FCD420200090411EA3
:10279800009101D30846FAE738680028FCDA0121DD
:1027A80003A8FFF785F96846007B284007D0052075
:1027B800FFF784F90298401E0290DBD1112005B082
:1027C800F0BD000080C800400A4610B50146002050
:1027D800FFF77AF910BD10B5FFF77CF90120FFF774
:1027E8007FF9FFF783F9002010BD0000F8B54D48C8
:1027F8004068C043000603D53C20FFF75FF9F8BDE9
:10280800FFF77AF9474D0746803D2868012189047A
:1028180008432860E869444908402830E8610320F3
:10282800FFF74CF9686AC603F60B0320FFF746F971
:10283800686AC403E40B0320FFF740F9686AC5031C
:10284800ED0BA64201D3204600E03046A84200D353
:102858002846A64201D3314600E02146A94200D2CB
:102868002946324AB218C32A26D2304AD243944261
:1028780022D92F4B9C421FD295421DD99D421BD273
:10288800081A132818D2274841680C22914341603E
:102898004168FF221202914341601420FFF70EF9AC
:1028A80020488038416AC269C903C90B08239A4382
:1028B800C2612048C160F8BD26462C460320FFF7B8
:1028C800FDF818488038406AC503ED0BFFF714F986
:1028D800B84201D3C01B01E0C01B401E1649884204
:1028E800AFD310484168090A00914268FF210902E4
:1028F8008A430099491C0906090C0A434260416849
:102908000C229143091D41600020FFF7FBF80B489A
:10291800009988400A49884200DB0846FFF7A7FA71
:102928008FE70000C0F0004000FEFEFF91FCFFFFB3
:1029380032040000E048FF1FE40C0000E8800000BB
:1029480060361E00F8B53D4840683C4C0006803CA7
:102958008021002806DB6068084360600320FFF7D9
:10296800ADF8F8BD364D0020686120680122920458
:1029780010432060334F6068802108436060032063
:10298800FFF79CF86869401C6861606801210904C8
:10299800084360600026E0692B4938404018E06130
:1029A8000320FFF78BF8606AE169C003C00B0822B7
:1029B8009143E161E96806225143814201D3091A32
:1029C80000E0411A3C2909D2E269012109048A433D
:1029D800E26162688A4362602861F8BD761CF6B2DB
:1029E800052ED8D3E169012000048143E1616168C3
:1029F8008143616068692E46052807D3BFF34F8F6E
:102A080013491248C860BFF34F8FFEE76068802102
:102A1800884360600320FFF751F8E06938402830A8
:102A2800E0610320FFF74AF8606AC003C00BF0605A
:102A3800E16908208143E1619DE70000C0F00040A2
:102A4800E048FF1F00FEFEFF280001000400FA0511
:102A580000ED00E0F8B504460120FFF72FF8FFF776
:102A680057F81849184A0860966A184B1E60184BA0
:102A7800DF6A184D2D68AF4202D2DB6AEB1A00E01C
:102A88000023154D2B603319D362536A2924E403BC
:102A980023435362114A1278002A0FD0104A137840
:102AA800022B07D01378012B06D01278032A06D000
:102AB800C01E02E00F3800E008380860F8BD401F6B
:102AC800FBE70000E408FF1F00F00040340AFF1F86
:102AD80000100040180AFF1F1C0AFF1F1C09FF1FD7
:102AE8004A0AFF1F0FB410B503AA0448029900F060
:102AF800F1FD10BC08BC04B018470000D127FF1F27
:102B080038B5034B00240FCB0094FFF707F838BD06
:102B18009847FF1F0349002048610349086048603F
:102B28007047000040F0004040F1004070B58AB0A6
:102B380000241E4D049405942878012806D004A981
:102B48000120FEF7A3FF002802D000200AB070BDC4
:102B58000498009005980190154881680291C06812
:102B68001349039006AA10316846FEF7FFFE104E7F
:102B780010222036314606A8FEF7D6FF002811D0CD
:102B8800012028700B4A31466846FEF7EFFE049490
:102B98000020694605948200401C8C500428FADB0A
:102BA8000120D3E7FF202870CFE700000449FF1F6A
:102BB80000290011386BFF1F38B5FEF7BFFE012250
:102BC8009207936A08240094002B01D10120906297
:102BD8000A480221016000994D1E0095FBD203218D
:102BE80001600094641E0094FCD200210160002B57
:102BF80000D19162FEF7B4FE38BD000000C000406D
:102C0800012189070122202804D28B68824093433E
:102C18008B607047402805D24B6920388240934327
:102C28004B6170476028FCD20B6A4038824093435E
:102C38000B627047012292070121202804D2936871
:102C480081400B4393607047402805D25369203870
:102C580081400B43536170476028FCD2136A4038A7
:102C680081400B4313627047012110B58907012287
:102C7800202813D20346153B012B07D80A682020C9
:102C880082430A600A6802430A6010BD0B688240EA
:102C980093430B6008681043086010BD402814D2A5
:102CA8000346353B032B07D8CA6810208243CA6005
:102CB800CA680243CA6010BDCB682038824093437B
:102CC800CB60C8681043C86010BD6028FCD24B6A4E
:102CD8004224201A824093434B62486A1043486258
:102CE80010BD0000F0B52C4C89B02078012818D010
:102CF800FFF7D6F8294D079028698007FCD42027CC
:102D080000970098411E0091FBD2244E803E306807
:102D18000028FCDA22490120FFF722FD002821D1F2
:102D280002E0002009B0F0BD0020009003460146F3
:102D3800019003229F20FEF7B5FE032102A8FEF7AB
:102D4800B7FE28698007FCD400970098411E0091BF
:102D5800FBD230680028FCDA11490120FFF700FD9A
:102D6800002801D01120DDE70798FFF7A8F802989E
:102D78000C4A0002000A60606846817A012308460E
:102D88001138052802D81846884001E00120C004FF
:102D9800A06090612370C4E7CC48FF1F80C8004042
:102DA800FFFFFF078008FF1F30B58DB0302217499D
:102DB8006846FEF7BFFE00246D4660004119497859
:102DC800285CFEF7BDFE641CE4B2172CF5D310484E
:102DD8004169C20091430522120489184161416981
:102DE8000122520611434161416903225205914370
:102DF8000122520589184161012000F00DF800F008
:102E080021F800F007F80DB030BD00004C47FF1F57
:102E180000F000400F2070470449420903D0002009
:102E2800C86006207047C86000207047A448FF1F8C
:102E38000348C1691F2252049143C16100207047B1
:102E480000F000400548C1691F2252049143044A1A
:102E5800928952041143C1610020704700F000407C
:102E6800A448FF1F10B578210C48FEF76FFE0C48E8
:102E78000078012803D0022804D0042804D1FEF7E2
:102E88006BFE01E0FEF76EFE06480078C00702D030
:102E9800064905480863002010BD0000A06AFF1F0E
:102EA800A448FF1F00200040691EFF1FC000FF1F2D
:102EB80070B50546124812240078012815D0042858
:102EC80013D0FEF73BFD0F4800210C224A43825CD9
:102ED800002A11D0AA420CD10C2359430122081808
:102EE8004270FEF739FE002406E0FEF735FE0020AA
:102EF80070BD491C0A29E8DBFEF732FD204670BD8B
:102F0800A448FF1FA06AFF1F30B50D4C00230C25F5
:102F18005D43655D854201D1072030BD002D04D099
:102F28005B1C0A2BF3DB032030BD0C256B431B19FC
:102F3800F9D000245C7018709A602046596030BD42
:102F4800A06AFF1F70B5FFF77DFF094D00242046DA
:102F58000C214843295C002907D040194068002803
:102F680000D08047641C0A2CF1DB002070BD0000F3
:102F7800A06AFF1F70B5054616480024007801288E
:102F880011D004280FD0FEF7D9FC0021124A0B46B5
:102F980008460C267043165C002E0FD0AE4205D1B1
:102FA8008018437007E0FEF7D7FD0DE080184078E1
:102FB800002800D0641C491C0A29E9DB002C05D034
:102FC800FEF7CAFDFEF7CCFC002070BDFEF7CAFD77
:102FD800F8E70000A448FF1FA06AFF1F70B5194852
:102FE8000121890742688A60826801231A434A617D
:102FF80015490A6B0261496B416100210420FFF702
:1030080063FA01211420FFF75FFA01211520FFF769
:103018005BFA01211720FFF757FA0C4D00242046D0
:103028000C214843295C002909D0401980680028F0
:1030380000D08047641C0A2CF1DB002070BD1220F0
:1030480070BD0000A448FF1F80F00040A06AFF1F69
:103058001CB51A491F200870194801240470194921
:10306800002008701848C16B490949010931C1633A
:10307800C16B602291432031C16300F02DF800211B
:103088000420FFF7FFF901211420FFF7FBF90121C4
:103098001520FFF7F7F901211720FFF7F3F92103AE
:1030A8000A48FEF765FD04200346009001220849FE
:1030B80001940848FEF762FD1CBD0000480AFF1F86
:1030C800490AFF1F680AFF1F80F000403459FF1F9C
:1030D8001449FF1FB056FF1F10B5FFF733FB10BD93
:1030E80070B540251C4C012802D0002811D027E0DB
:1030F8006069052140014009C90640186061E0691E
:103108001649084016494018E061E0692843E06123
:1031180016E000210A20FEF713FD00210B20FEF720
:103128000FFDE069032109020843E061E069A84353
:10313800E06160690B21400140090907401860619E
:1031480060690121090708436061A06903214904F6
:103158008843A06170BD000000F000407F00FEFFC2
:1031680080FD010010B5064AD160906000F00CF8AF
:10317800044A00211320FFF7C7FE002010BD0000FD
:10318800BC48FF1F9131FF1FF8B50025184800956E
:10319800426800782B460121FEF7F6FC16491548CF
:1031A80088630120154980040860BFF34F8FBFF37F
:1031B8006F8F13480168FF22120402269143B2055B
:1031C80011430160642000904120FFF733FD402047
:1031D800FFF730FD740766620098411E0091FBD22C
:1031E80003206062FFF7E8FCA562FFF77BFDF8BDEE
:1031F800C448FF1F050001FF00C8004080E100E04F
:1032080010E400E07047000070B50D460446282918
:1032180010D1A420005BE188401A0B4980B2884293
:1032280008D321466A3105220E46481FFEF77CFC6A
:10323800002804D029462046FEF7ACFC70BD314674
:103248002046FEF7ADFC70BDFF7F000010B50029D9
:1032580001D0FEF7ABFC10BD70B5264D264E286890
:10326800002804D0FEF7A8FC2978C84004E0FEF73F
:10327800A3FC3168FEF7A6FC04462868002804D0A1
:10328800FEF7A6FC2978C84004E0FEF7A1FC3168E7
:10329800FEF798FC1949A122897892005143184AEF
:1032A800184B126889180D78174A002D17D0FF316E
:1032B800FF3102314C6C1548641C4C6400689968F5
:1032C800884201D3401A02E0114B591A0818D23823
:1032D8001060012C02D1FF30F530106070BDFF3155
:1032E800FF31002502314D645968201AC968401819
:1032F800F3E700001C08FF1F1808FF1F300DFF1F11
:103308003409FF1FE048FF1FA009FF1F9C09FF1F8A
:10331800FFFF3F00F3B506466548A1218078890084
:103328004843644983B00968A12244182046FF3005
:1033380021305F4900908978920051435D4A407D71
:10334800126800258F18FF37813732281DD02228B0
:103358001BD0F86A0168002909D08188001D090A74
:10336800891CFEF73BFCF96A002001250860FEF77E
:103378003BFC04992746FF370880C137387C002872
:1033880021D0B0421FDC002014E04B490120086026
:103398000020F96A01250860E9E780000019FF307C
:1033A8008130006B8188001D090A891CFEF716FC14
:1033B8000198401C0190397C8142EEDCC8B2361A73
:1033C8004519002038743D490020C870FF20AD30F1
:1033D80000590168002903D00079C04380071ED036
:1033E8000098C07D00281AD00098807D002816D14A
:1033F800387CB04213DAFF204930005B010A2046CE
:10340800FF304930891CFEF7E9FB00990020C87598
:1034180000980121817529486D1CC170761E387C81
:10342800002802D0284605B0F0BD2046FEF7E2FB92
:103438000090002821DD002E1FDD002718E020461F
:10344800FEF7DEFB80000019FF300130C06E818876
:10345800001D090A891CFEF7C1FB2046FEF7D6FBB2
:10346800E01DFF30FA30016A6D1C491C7F1C0162A7
:103478000098874201DAB742E1DB09208001201871
:10348800817E002911D0017D00290ED0428E002AAC
:103498000BD0817F914202D2491C817705E000213F
:1034A80081771A212046FEF7B7FBA8B2BBE70000D8
:1034B800300DFF1F3409FF1F00140340E010FF1FE9
:1034C80070B54E480068012803D14D48816D491CEC
:1034D8008165FEF763FA4B4D4B49A8604B48416143
:1034E8000124C46004602878002806D006224849D0
:1034F8004848FEF797FB002028704749486B474A21
:10350800C0B21278002A17D1454A0023D356002B9F
:10351800444BD35606DB1B04002555572A029A183C
:10352800121808E0FF331B04002555572A029A1881
:103538003D4B1218D2184A63022801D2022002E039
:10354800502800D95020394A1278022A11D0384A16
:103558001578384B1E78B5420FD915781B78EB1AB9
:10356800801E4010434310784001C01A10304011AB
:1035780004E0314A1578314BECE710784A69120AB1
:10358800120210434861FEF71BFA0546052801D0D0
:10359800042D1ED12A480078002806D02948007832
:1035A800002802D00020FEF743FB2748A12180789D
:1035B80089004843254909684018FF30FF30023028
:1035C800007B042801D0032803D1FF205F30FEF7D9
:1035D80039FA022D0ED11E480078012807D0032899
:1035E80005D0022803D01B480078022802D16C209D
:1035F800FEF728FA1848C48270BD00009809FF1F1A
:10360800FC0FFF1FE048FF1FFF3F000000100340B2
:10361800D50BFF1F7211FF1F800003408C09FF1F8D
:10362800680AFF1F00000000FFFE0000490AFF1F94
:10363800440AFF1F450AFF1F460AFF1F470AFF1FCC
:10364800F908FF1F2209FF1F300DFF1F3409FF1F54
:103658001C09FF1F2309FF1FBC0BFF1F10B50449DE
:103668000968002901D0884710BDFEF7D3F910BDBD
:103678008002FF1F10B504498968002901D08847D6
:1036880010BDFEF7C7F910BD8002FF1F10B5044931
:103698004968002901D0884710BDFEF7BBF910BD65
:1036A8008002FF1F10B504490969002901D0884725
:1036B80010BDFEF7AFF910BD8002FF1F10B5044919
:1036C800C968002901D0884710BDFEF7A3F910BDCD
:1036D8008002FF1FF7B5064686B0002004900390CD
:1036E800079810E125290AD00499002901D00398E8
:1036F80002E0049000200390401C039000E103982E
:10370800002805D081B20498B047002004900390A7
:1037180000250422082310210798401C07900078F0
:103728002B2819D004DC202818D0232804D117E02E
:103738002D280FD0302815D0079A00271078FF437E
:103748000346303B3C46092B0FD807A800F0ECFD98
:10375800044615E00D43DFE71543DDE71D43DBE7CE
:10376800202000E001200543D6E72A2808D1521C72
:103778000898079210C80890002C01DA64420D439B
:10378800079938460A782E2A14D1491C07910878D7
:103798000246303A092A03D807A800F0C5FD06E01A
:1037A8002A2806D1491C0791089901C908910028BF
:1037B80000DA0020079A39461778682F03D06C2F53
:1037C80001D04C2F02D1521C39460792079B0A227E
:1037D8001B786E2B2CD00CDC632B2AD004DC412BFD
:1037E80026D0582B11D19BE0642B01D0692B0CD12A
:1037F8009AE0732B3DD004DC6F2B77D0702B04D16B
:1038080064E0752B73D0782B6FD0252B09D0252039
:1038180069460872012102A8B04707980178002973
:1038280075D00798694600780872012102A8B04748
:1038380066E0E80609D42025641E002C05DD6846EC
:103848000572012102A8B047F6E708986A46017890
:103858001172001D0890012102A8B047202504E03C
:1038680068460572012102A8B047641E002CF7DCE7
:1038780046E0089A02CA08920091002901D12DA1B8
:1038880000910A4600E0491C0B78002B01D0401E2D
:10389800F9D28F1AE8060AD420252046641EB842B9
:1038A80005DD68460572012102A8B047F5E7B9B2FF
:1038B8000098B047202504E068460572012102A857
:1038C800B0472046641EB842F6DC19E0611C02D1FC
:1038D800082401210D4300900898019502C8234649
:1038E8001022089009E001E001E01BE00822089B93
:1038F80002CB0893019500902346304600F0AEF8BD
:103908000798401C07900178002901D0EAE60EE0EC
:103918000398002802D081B20498B04709B0F0BDDE
:10392800402215431022E2E702231D43DFE7401E31
:103938000790E5E73C4E554C4C3E00007CB5204CCA
:10394800022020701F4D01202870FEF777F9FEF73E
:103958007BF9FFF77DFBFFF727FA2078FEF77AF966
:103968002878FFF7BDFBFFF77DFA174903C9FFF772
:10397800F9FBFFF7C5F8FEF773F9144914A0FFF730
:10398800B1F819490978194800780191009023780D
:103998002A781748017817A0FFF7A4F8214C0821C6
:1039A800224621A0FFF79EF80123A1221B039200C3
:1039B80021462948FFF796F8FEF70DFF00207CBD49
:1039C8004A0AFF1F9048FF1F4447FF1F01010300D9
:1039D80053444B2056657273696F6E204944202505
:1039E800303878200A000000450AFF1F440AFF1FEC
:1039F8004B0AFF1F7266436C6B2025642072634379
:103A08006C6B20256420737973436C6B20256420CC
:103A180074704361705B2530327820253032785DD0
:103A28000A0000009C0D000073697A656F662873B0
:103A38007472756374206C6C5F706B745F6465730B
:103A48006329203D2025642C206275662073697ADD
:103A580065203D2025640A00A847FF1FFFB50746DB
:103A6800574897B0219D006815901E460A4668067B
:103A780002D5534840681590E80601D56D086D00D9
:103A88001998801E232870D2E80701D0302100E061
:103A9800202110A8017300210172A80710D5002A5F
:103AA80004DA2D2010A90872524208E0680701D5EF
:103AB8002B2002E0280703D5202010A908725E1EDB
:103AC800A80608D51998102802D0082802D002E0C4
:103AD800B61E00E0761E0024002A14D0104619995C
:103AE800FEF770F8159A525C01A90A55641C020089
:103AF800F4D12098844200DD20942098361A1120B1
:103B080005420BD00EE03020694608710124F0E729
:103B180020206946087001216846B8473046761E5D
:103B28000028F5DC10A8007A002802D0012112A88C
:103B3800B847A80616D51998082802D0102802D028
:103B480010E0302009E030206946087001216846FD
:103B5800B8471B4800682030407869460870012142
:103B68006846B847E80604D507E027E0012113A80E
:103B7800B8473046761E0028F8DC30252099481EC4
:103B88002090A1420BDD684605700121B847F5E792
:103B9800285D6946087001216846B84700E001AD14
:103BA8002046641E0028F3DC20243046761E0028B8
:103BB80004DD684604700121B847F6E71BB0F0BD84
:103BC8009C48FF1F10B500240420FEF74FF8074952
:103BD800042208600021FEF74FF820460124FEF772
:103BE80051F82046FEF7E6FB10BD00009448FF1F81
:103BF800F8B51E484168090601D50020F8BD41689E
:103C0800802211434160194D0A260027803DE8694A
:103C180040084000E8610620FDF750FF134CC03C07
:103C2800A06980210843A061E86901210843E8618F
:103C380002E00820FDF742FFA86A800504D4304658
:103C4800761EF6B20028F4D1002E07D0286A7E210D
:103C5800C70BA0690F4088433843A061A169802041
:103C68008143A1613806400EF8BD0000C0F0004055
:103C780010B500F0A5FA044A0121582000F010FA06
:103C8800FFF7B6FF10BD0000600AFF1F30B53848C7
:103C9800016801229204114301604168032212065F
:103CA8009143344A13781B06194341604368032142
:103CB80089058B4330490C78A40523434360436846
:103CC8006024234343601378022B08D01378012B18
:103CD80005D00B78022B02D00B78012B04D1436856
:103CE800FF240134234343601278032A02D00A7860
:103CF800032A03D1426880231A434260426803239F
:103D08009B041A4342600B780122D2051B48002B02
:103D180003D11B4B1B78032B19D0C3689343C36093
:103D2800164A184B4032D360FF2581351561164C71
:103D38005461164B9361114B80335D609C60144C49
:103D4800DC60144B03600978002903D006E0C368DF
:103D58001343E4E701680123194301600E49097818
:103D68000E4BC906C90BC91881630D48D06130BD17
:103D780040F000404C0AFF1F4B0AFF1F8000034021
:103D88004A0AFF1FC00B00207A3E6A070000890418
:103D980000808904CC240000480AFF1F2508000081
:103DA8002FFCA601F8B505004A484B4B4B4C4C4A32
:103DB8004C4934D0022D32D08615571006628669D8
:103DC8009E43B31883612078002833D00F6146489A
:103DD8000863464800780122120380184861414E62
:103DE800404C434B803E403C002D27D06521414A42
:103DF800C9024148012D2ED0022D31D0032D5AD0B1
:103E0800042D58D03D49691831603D49A1602360AF
:103E1800E06002210846FDF73BFF3A482BE0802688
:103E2800066286699E430123DB04F61886612078C2
:103E3800002801D00A61CAE70B61C8E73248306040
:103E48000020A06023603148E06003210846FDF7A8
:103E58001FFF2F480FE02F4B3360A2602160D7E788
:103E68002C4B5B1C3360A2602160E0600221084695
:103E7800FDF70EFF28482061F068FF210843F06035
:103E8800264860612648A0612648E06126482062ED
:103E9800264860622648A0622648E06226482063D9
:103EA80026486063E020012D0DD02168022D0ED038
:103EB80081432160F8BD224BEB183360214B7360BE
:103EC8002160A260A4E7216881432031F1E78143A2
:103ED8004031EEE7C000034000001C004B0AFF1F02
:103EE800000004008000034003000001440AFF1F93
:103EF80000280B0055555537D6BE898E00800642DE
:103F080055555500805508220080067807EE75360D
:103F1800806608220180063D80450822A49C5C54E6
:103F28004C44434241524C46403A342E28007F5577
:103F38004F49433D37312B4C46403A342E28221CFA
:103F480000800698545A9850F0B5224B214D2149CB
:103F58008026204A0727BF04403BC03DE024803923
:103F680002281662966914D0BE430127BF04F619C9
:103F78009661194A1278002A1ED07A101A6101280F
:103F88001ED0164A80182860154808610868A043A2
:103F980014E00120BE43C004361896610E4A127818
:103FA800002A00D0401018610E4828600E480861A9
:103FB8000868A043403001E01F61E0E70860F0BDF9
:103FC8000848401E2860094808610868A043203056
:103FD800F4E70000C00003404B0AFF1F008006986A
:103FE800805508220280063D804508228066082206
:103FF80010B50A4900200870094902200870FFF727
:1040080045FE0848007800F011F8074C2078FFF7C3
:10401800C9FE2078FDF742FE10BD00004B0AFF1FC5
:104028004C0AFF1F480AFF1F490AFF1FF0B51A4A2A
:1040380003230725D60019499B026024ED0157691F
:104048003F281AD0B74305263604BE195661CA68F8
:104058009A43CB14D218CA60CA69A2432032CA61F3
:10406800CA69AA43CA610D4940398A6BC00612055C
:10407800120DC00B02438A63F0BDB7430126B60494
:10408800BE195661CA689A43CA60CA69A243CA611E
:10409800CA69AA438032E5E700F00040C000034047
:1040A800F8B53A4B5D6A9C6A00265E629E62384BA0
:1040B80058630E2018629E155E6240209862502058
:1040C800D862FF202B30586231484030012915D082
:1040D800802101622F49FF232D48A533403083609A
:1040E8002D4B43602A4B2D48403B18617D20C00072
:1040F8000090471E009705D33846FAE7066225491F
:104108008331E8E7264889050F1821484038876336
:10411800234B5B1CC9188163224800902248007811
:104128000300FDF7C1FD05040408060D08001F483B
:1041380000E01F4800901F4810601548403005E017
:104148001D48F7E7C16AC943890F14D000994B1E6F
:104158000093F7D20E4940398F630D4900228A62D5
:10416800CA6282604E620A62FF2041304862074894
:1041780045628462F8BDC16A104B1940116011682C
:104188000122090C120489184160E3E7001003407A
:1041980080000340CA0200002020000080560C2046
:1041A80064652100102700004A0AFF1F204E000006
:1041B8003075000000002020409C0000FFFF3F3FBA
:1041C80000B50021022000F021F80C49801C08707D
:1041D8000021422000F01AF80949801C08700121CA
:1041E800022000F013F80749801C087001214220C2
:1041F80000F00CF80449801C087000BD440AFF1F39
:10420800450AFF1F460AFF1F470AFF1FF8B53B4C28
:10421800394A2260394D394A07239B048035403298
:104228000129A9690ED0994301239B04C918A961E2
:104238003349D16033490B780121C905324E002B2F
:1042480007D009E099430123DB04C918A9612F4964
:10425800EFE73378032B14D0D3688B43D3605063D4
:104268000E20106200275762FF2015305062284840
:10427800009030780300FDF717FD0507070D090BBF
:104288000D00D3680B43E9E7224802E0224800E02A
:10429800224800900098431E0093FBD2686B576237
:1042A8000002000E17621E4BD360FF234133536296
:1042B8006523DB0223601B4D2F78E023012F0AD0F2
:1042C8002D78022D25680AD09D4325600D4B1B785B
:1042D800002B07D009E025689D432035F5E79D436D
:1042E8004035F2E73378032B03D0D3688B43D36090
:1042F800F8BDD3680B43FAE7100003004000034001
:104308007F4073004B0AFF1F4A0AFF1F7F4053007C
:1043180010270000204E000030750000409C00006F
:1043280040401000490AFF1F0146002006E0531CC8
:104338000B600A2312785843303810180A6813782B
:10434800303B092BF3D97047F8B5614C6068803071
:10435800806880F30888FDF771FC5E485E49006854
:104368000225884206D00020FDF7CCFB68070169CA
:10437800A943016100F0D6F858480078FDF78EFC93
:10438800574E0020F061F561564D75610120FDF72B
:1043980095FB0320F061FDF7AFFB0746FDF7FEFA3A
:1043A8000646FDF7A9FB50490860FFF721FE4F4874
:1043B8000068874201D9381A01E0381A401E4C4972
:1043C800884200D9084061688A8DD20709D0494AD5
:1043D800030C126880B2534350431B02000A18189A
:1043E8000BE0C2018300D21A4300D21AC300181886
:1043F800921C80309208400A1018E061FF313E4854
:1044080001314968006809183C480068081A4119D0
:104418008B083B488A073B4903600D68920F521985
:104428000A60042A04D95B1C9207920F03600A6091
:10443800E169354FC8183946FDF7C4FB02463348D1
:10444800334D0368D31803602A688A182A60BA4271
:1044580006D95B1C036039461046FDF7B3FB29609B
:10446800FDF728FC2B480078002810D0FDF796FAB5
:10447800294AE169801B12680B18934202D2511A2B
:10448800091A01E07D21C9001548FDF719FC234DE3
:10449800287A002811D0FDF781FA811BE3691048BA
:1044A800EA685C183C30A24202D9D21A511A00E0DC
:1044B8001B49FDF705FC00202872FDF707FC0220C8
:1044C800FDF772FA0020FDF71DFBFDF70FFBF8BDA5
:1044D800E048FF1F0C0AFF1FB6412103490AFF1FCE
:1044E80000100040C4090000100AFF1F340AFF1F13
:1044F800FFFF3F00380AFF1F1C0AFF1F200AFF1F8B
:10450800240AFF1F280AFF1F710200006008FF1F0E
:104518002C0AFF1F1C09FF1FE408FF1F740BFF1F55
:10452800DC050000F8B5FEF7F5FAFDF7FFFF0120FE
:10453800404E00903078404C022810D0FDF7DCFA4D
:1045480005463220FDF7BAFAFEF750F90F20FDF7BD
:10455800B5FA3078012808D0FEF7F4F91AE03748A0
:104568004068006AFDF7AAFA24E033484038C06B77
:104578004007400F012802D10020FDF76BFB60685F
:10458800FF270137B84360600220FDF797FA60689B
:1045980038436060FDF7B0FAA84201D3401B01E040
:1045A800401B401E25491E2288615043244A496801
:1045B8008018C8612449234808602348234980306B
:1045C800C163FF21413141623078FDF743FB204947
:1045D8002048FDF775FB1F481F491430FDF770FB95
:1045E8000420FDF7D5FE1420FDF7D2FE1520FDF7B7
:1045F800CFFE1720FDF7CCFEFF20FDF719FB0120A9
:10460800FDF76AFBFF20F530FDF76CFB5820FDF73E
:1046180019FA1248FDF76CFB0098FDF76FFB0720AD
:10462800FDF772FBE0690E490840FF300930E06190
:10463800F8BD00004A0AFF1F40F00040E048FF1F95
:10464800720600000180063D0000034034080000A7
:104658007102000014100040FFFF3F003075000099
:1046680000FEFEFF10B50F490FA0FEF73BFA1148F8
:104678000078C00701D010A000E014A0FEF732FABD
:104688000120800741692020014015A0FEF72AFA81
:104698001A48C06BC00301D519A000E020A0FEF79E
:1046A80021FA10BD8547FF1F0A66756E3A25730A01
:1046B80000000000002000407761746368646F6741
:1046C80020656E61626C650A0000000077617463A2
:1046D80068646F672064697361626C650A00000032
:1046E8007761746368646F6720636C6F636B2067BE
:1046F8006174653A307825780A00000000F00040BF
:104708007761746368646F6720636C6F636B207391
:1047180072633A5854414C2033326B0A000000004F
:104728007761746368646F6720636C6F636B207371
:1047380072633A52432033326B0A000000000000D3
:104748003B000108020003000502060207030803F4
:1047580009030A000C030D030003010304030B0003
:104768000E030F031003110312031303140315039D
:1047780016030000F15900001524FF1F0277646733
:104788005F73746174655F7072696E740000000015
:104798000506FFFF00C20100010000000000000044
:1047A80073697A656F6628675F70436F6E6E6563BD
:1047B80074696F6E42756666657229203D202564AE
:1047C8002C2073697A656F662870436F6E6E436F2D
:1047D8006E7465787429203D2025642C2073697ACD
:1047E800656F66286C6172676548656170293D254B
:1047F80064200A0030313233343536373839414293
:10480800434445464748494A4B4C4D4E4F505152F8
:10481800535455565758595A000000003031323316
:104828003435363738396162636465666768696A42
:104838006B6C6D6E6F707172737475767778797A48
:10484800000000005048592B36325858504C5553E8
:1048580030353034000000000004FF1F1449FF1FEA
:104868000C0000001425FF1F1449FF1F0004FF1F40
:1048780000040000FC18FF1F1449FF1F1449FF1F04
:10488800342600002425FF1F00000000000000005F
:10489800000000002448FF1FFC47FF1F0200000023
:1048A800882108005902E001000000000000000013
:1048B80000000000000000000000000004000000EC
:1048C8003B00010800000000000000000000080094
:1048D8000000000040787D0100000000000000009A
:1048E80000000000000000000000000001000000BF
:1048F80000000000000000004C48FF1F00000000FE
:0C490800000000000000000000000000A3
:040000051FFF187948
:00000001FF
