:020000041102E7
:1000000003B40148019001BDADAE000003B4014846
:10001000019001BD456B010003B40148019001BD91
:100020000189000003B40148019001BDC53F0000F3
:1000300003B40148019001BDE94C010003B401483B
:10004000019001BDC95C010003B40148019001BDEC
:10005000CD4C010003B40148019001BD154D0100D4
:1000600003B40148019001BD1D4B010003B40148D8
:10007000019001BD6189000003B40148019001BDF8
:10008000F54E010003B40148019001BD434D01004C
:1000900003B40148019001BD2526000003B40148C6
:1000A000019001BD8B52010003B40148019001BDD4
:1000B000B352010003B40148019001BD0D5201008B
:1000C00003B40148019001BDC94A010003B40148CD
:1000D000019001BD014C010003B40148019001BD34
:1000E000F94C010003B40148019001BD691F0000F3
:1000F00003B40148019001BD5D17000003B401483D
:10010000019001BD3D4B010003B40148019001BDC8
:100110005952010003B40148019001BD512500006E
:1001200003B40148019001BD594F010003B40148D7
:10013000019001BD8D12000003B40148019001BD82
:100140004D1F000003B40148019001BD552200007D
:1001500003B40148019001BDDD52010003B4014820
:10016000019001BD1D4D010003B40148019001BD86
:10017000810E000003B40148019001BD017F000021
:1001800003B40148019001BDE117000003B4014828
:10019000019001BD7918000003B40148019001BD30
:1001A000D949010003B40148019001BDE9280000CC
:1001B00003B40148019001BD5549010003B4014851
:1001C000019001BD4551010003B40148019001BDFA
:1001D000C926000003B40148019001BD5919FF1F51
:1001E00003B40148019001BD6D3EFF1F03B40148F7
:1001F000019001BD090E000003B40148019001BD4A
:10020000311BFF1F03B40148019001BD351AFF1FC8
:1002100003B40148019001BDB919FF1F03B401489F
:10022000019001BDB30E000003B40148019001BD6F
:10023000810E000003B40148019001BD0139FF1F88
:1002400003B40148019001BDC521000003B4014879
:10025000019001BD291C000003B40148019001BDBB
:10026000851F000003B40148019001BDA9460100AB
:1002700003B40148019001BD1147010003B40148D6
:10028000019001BDC11AFF1F03B40148019001BDD7
:100290002D0F000003B40148019001BDD70E0000EE
:1002A00003B40148019001BDD31AFF1F03B40148F4
:1002B000019001BD192DFF1F03B40148019001BD3C
:1002C000C93BFF1F03B40148019001BD5138FF1F16
:1002D00003B40148019001BD713BFF1F03B4014805
:1002E000019001BD353CFF1F03B40148019001BDE1
:1002F0001D38FF1F03B40148019001BD493EFF1F97
:1003000003B40148019001BDBF23FF1F03B401489E
:10031000019001BD9923FF1F03B40148019001BD65
:10032000B13E000003B40148019001BD4D2CFF1FF8
:1003300003B40148019001BD612CFF1F03B40148C3
:10034000019001BDC90E000003B40148019001BD38
:10035000055E000003B40148019001BDE5480000BE
:1003600003B40148019001BD2951010003B40148C3
:10037000019001BDD91B000003B40148019001BDEB
:100380004124FF1F03B40148019001BD6924FF1FF0
:1003900003B40148019001BD5147010003B4014875
:1003A000019001BD75A9000003B40148019001BD91
:1003B0009DA9000003B40148019001BD8538FF1FCD
:1003C00003B40148019001BDD1A50000F8B5D3499F
:1003D000D14A002004464A608300401CD450FF28C4
:1003E000FADD4868CE4A014680318A606E22C262D8
:1003F000CC4A1278002A01D07F22C2620A2202650A
:10040000C94A13788363C94BC36115781023022D41
:1004100008D01578012D05D01578032D02D0157858
:10042000042D00D10362C24D45611925AD018561DE
:100430003725CD6036272826C7630825466405641E
:100440004F6032270F603B27CF634127CF643927A6
:100450004031E0C132274F6002274F614227083107
:10046000E0C11E274F60CE608D6005264E6142269A
:100470000E615A2660390E614D613C258D61AF25B4
:10048000ED000560AB4D05631578022D09D0157898
:10049000012D08D01578032D07D01578042D06D02E
:1004A00007E0152504E0436003E00E2500E00C257D
:1004B0004560FF252D358560C560FF25F535056153
:1004C0009D4D85647D25ED009C4ECD67C6644562DB
:1004D0009B4D85627325C565062545658565C51DEA
:1004E0000826F93502272E6047664B27FF008766EE
:1004F0000927C766934F07674667BE108467C667BC
:10050000914F8E4E3E601678022E09D01678012E3D
:100510000AD01678032E0BD01278042A0CD00EE0E5
:100520001A22CA61212205E01422CA61182201E0C0
:100530001322CB610A6202E00E220B62CA617E4A7C
:100540008A627D22D2008A6764224A620522CA62D8
:1005500002220A63C8228C634A63382169607B499E
:1005600029647B49A9614B21C900E9617349FF30C6
:10057000643929627D2109016962EC661E212C67BC
:10058000A9667049A965E965891029666964696782
:100590007049A9677049714A8130E96702608260D9
:1005A0004160FF21F531C16001616E486C495A4AD2
:1005B00081606D49803A11616A496C4A80318A6272
:1005C0006B4ACA626B4A82616B4AC2626B4A0263BF
:1005D0006B4A64484038C2636A4ACA616A498163A7
:1005E00060496A48403188616A49694888605D4865
:1005F000694A80384260694A4263694A0A626949C5
:10060000816058496848C039C860FFF7F9FC01208B
:10061000FFF7FCFCF8BDF3B50746644881B0C1693B
:10062000634A1140FF310931C161002613E0002502
:100630002C461120FFF7F0FC5C48406A8007800FD1
:10064000610088402843641CE4B20546102CF0D3B6
:1006500001C7761CF6B202988642E8D3FEBD10B5FB
:100660002E4C607800280AD104215248FFF7D3FFAE
:10067000504804211030FFF7CEFF0120607010BDFC
:10068000F0B500248BB00D460646102902D9012092
:100690000BB0F0BDFFF7E3FF464900200A5C401CA9
:1006A0001419C0B21028F9D3002C03D0102D03D98F
:1006B0000B20EDE70E20EBE73F483E4C002300689F
:1006C00002A91034E25CC75C7A40CA545B1CDBB2FE
:1006D000102BF7D306AA3748FFF7A4FC102D00D93A
:1006E00010252A4606A93046FFF7A2FCFFF7A6FC14
:1006F000216840182060FFF7A1FC61684018606025
:10070000FFF79CFCA1684018A060FFF797FCE16828
:100710004018E0600020BBE70004FF1FC85AFF1F1D
:100720009885FF1F5455FF1F4A0AFF1F3A07000014
:1007300080C3C9019A02000050C30000280A0000CB
:100740006A180000204E0000F009FF1F0040001151
:1007500068100000DC05000040420F001027000078
:100760007943FF1F0001FF1F2928FF1F5548FF1F66
:100770002D4BFF1F9124FF1F2526FF1FAD24FF1FB8
:100780003D34FF1FE552FF1F0951FF1F1924FF1FB2
:10079000E52BFF1F0002FF1FF13FFF1FCD41FF1F91
:1007A0001141FF1FAD3FFF1F152CFF1F40F0004000
:1007B00000FEFEFF8880FF1FE85AFF1F0A780270C4
:1007C0008A7842704A88120A82700979C1700420BE
:1007D00070470A7802700988090A41700220704740
:1007E00010B500220EE093005B189C7804705C88C2
:1007F000521C240A44701C7984709B88D2B21B0A54
:10080000C370001D0B789342EDD81806800D10BD03
:10081000F8B50D4606464978012031700024761C53
:1008200016E06978012917D01221614349198A78A5
:1008300032704A88871C120A7270B61C1022304629
:10084000091DFFF7F5FB1037B8B21036641CE4B28F
:100850002978A142E5D8F8BDA10049198A783270FB
:100860004A88871C120A7270B61C02223046091D83
:10087000FFF7DEFBBF1CB8B2B61CE7E710B50C46AD
:10088000097801702188090A41706288211D801C45
:10089000FFF7CEFB6088801C80B210BD10B50C46FF
:1008A000097801702188090A4170A17881706188F6
:1008B000090AC170A288A11D001DFFF7B9FBA0881D
:1008C000001D80B210BD10B50C460A88891CFFF7C8
:1008D000AFFB208810BD10B50B788A7802705343A7
:1008E000DCB22246401C091DFFF7A2FB601C10BDB4
:1008F00010B50B788A7802705343DCB22246401C54
:10090000091DFFF795FB601C10BD10B50C460A8849
:10091000891CFFF78DFB208810BD10B50C460A8896
:10092000891CFFF785FB208810BD7FB5154604465E
:10093000022901D0102903D1022B04D0102B02D0A0
:10094000002004B070BD994202D10A46294607E052
:100950001029694607D000F00DF810226946284694
:10096000FFF772FBEDE7104600F004F8102269462D
:100970002046F5E770B50C4605000CD0002C0AD0D7
:10098000102206492046FFF753FB28782073687829
:100990006073012070BD002070BD000078910211CD
:1009A00010B50B460122024902F042FA10BD0000C8
:1009B000BD07021170B5064608880C46172812D3E9
:1009C0000B4603220949304602F032FA050008D1ED
:1009D000074920880988884200D20146304600F045
:1009E000ABF9284670BD022070BD0000D30702118C
:1009F000F859FF1F10B500231922194602F018FA02
:100A000010BD000010B50A78002A05D00B46072259
:100A1000024902F00DFA10BD022010BDE1070211DB
:100A200010B54A78012A01D0022A08D10A78002A92
:100A300005D00B460522034902F0FAF910BD022049
:100A400010BD00001108021101494000085A70470A
:100A5000F659FF1F10B50B461D22024902F0E8F9B6
:100A600010BD00007D08021110B50B461B22024983
:100A700002F0DEF910BD00007D08021101491720C7
:100A800008807047F659FF1F0098022B01D0042000
:100A9000704711785278120289180180002070473F
:100AA0000098012B01D004207047117801700020BC
:100AB000704770B5049C1E461546062B1BD36978FB
:100AC0002878090240182080E978A878090240189F
:100AD000608002222271291D601DFFF7A9FAB61F4E
:100AE000B2B22281F02A06D82046A91D0A30FFF7AB
:100AF0009FFA002070BD042070BD0098042B01D027
:100B000004207047537811781B02C918018091782E
:100B1000D27812028918418000207047F8B5848984
:100B20000D460646002C26D0B2681778380620D528
:100B30000C2C20D90C3CA4B2101900900121708813
:100B4000234601F013FE002811D0022028707806F9
:100B5000C00F6870B806800EA870641E2004000CD8
:100B6000A88001D0B068401CA8600020F8BD01201A
:100B7000ECE70020EAE70120F8BD10B50298114625
:100B8000042B14D34C780A78240212190280CC78F2
:100B90008A782402121942801B1F9AB28280F22A9C
:100BA00005D8801D091DFFF743FA002010BD042061
:100BB00010BD0098042B01D00420704753781178A1
:100BC0001B02C91801809178D278120289184180DD
:100BD0000020704710B502981146062B03D0142B45
:100BE00003D0042010BD022200E0102202714B78D5
:100BF0000A781B02D2180280CB788A781B02D2189E
:100C000042800279401D091DFFF712FA002010BD35
:100C100030B5039CD80718D1D805010E022914D38A
:100C20000B488088814210D8F6200155002008E04A
:100C3000557813782D025B194500401C6353C0B2F0
:100C4000921C8842F4D3002030BD042030BD000047
:100C5000F059FF1F0098022B01D004207047117833
:100C600052781202891801800020704770B514462E
:100C700002460498022B18D3667825783602AD19FF
:100C800005800546E0352A766976002A0BD0E821F2
:100C90009B1E9AB242808A4207D8A11C001DFFF712
:100CA000C7F9002070BDF421F2E7042070BD0000F8
:100CB00010B50B461722024902F0BAF810BD000029
:100CC0009D08021110B50B460D22024902F0B0F842
:100CD00010BD0000C708021110B50A78002A05D01F
:100CE0000B461122024902F0A3F810BD022010BDEC
:100CF000D708021110B50A78002A05D00B46092240
:100D0000024902F095F810BD022010BDF108021151
:100D100010B50B460F22024902F08AF810BD000000
:100D20000B09021110B50B460B22024902F080F8A4
:100D300010BD00001B090211044A1288914203D819
:100D4000024A4000921D115270470000F059FF1FE7
:100D500010B500231322194602F06AF810BD0000F6
:100D600010B5034A1321034801F012F810BD00002A
:100D70000C9002116855FF1F10B50024134600287F
:100D800002D00224204610BD0A4619460148FFF74A
:100D90004FF9F7E75F55FF1FFFB599B000261F46D3
:100DA000079607AA089600F08FF805460A287AD217
:100DB00004460620444320462030C0B26A460E2135
:100DC00006F084F8002802D168468089C6B21B98D4
:100DD0000990082F14D000201790082F12D0204619
:100DE0002130C0B218901C2200216846FFF732F96A
:100DF0006A461C21189806F069F8002805D010E012
:100E00000120E9E720462230EBE76846807EC01FDC
:100E1000092806D8F107C90F6A46179B099800F000
:100E200021FB1422002110A8FFF714F920462430DA
:100E3000C0B210AA102106F049F8002812D11022E1
:100E4000FF2110A8FFF70CF900280BD12534E0B2E0
:100E500014AA042106F03AF8F107C90F10AA1B984A
:100E600000F046FD7035E8B20BAA102106F02EF80E
:100E7000002811D10BA802F0EAFA00240BADA00063
:100E800040190188002903D082781B9800F0DCFF0C
:100E9000641CE4B2042CF2D3B00704D509480178ED
:100EA0001B9800F0BFFF042F08D106491B98491C6E
:100EB000085C022802D11B9802F0D8FA00201DB06D
:100EC000F0BD0000EC57FF1FF0B50A2485B01646B0
:100ED0000F46002807D0012805D00A25022810D087
:100EE000032847D11FE0084602F07EFA04460A288C
:100EF00040D2002E3ED0062239463046FFF798F801
:100F000038E01E4F002400910E206043C0190622D5
:100F1000801D0099FFF798F8002823D1641CE4B2E3
:100F20000A2CF1D31CE0002420460621484323303C
:100F3000C0B26A46102105F0C9FF00280CD110226A
:100F4000FF216846FFF78CF8002805D1394668462E
:100F500000F072FC002805D0641CE4B20A2CE3D334
:100F60002C4607E00A2C05D2002E03D0314620463D
:100F700002F052FA204605B0F0BD0000627BFF1F70
:100F800070B50C460146032000020A1A00253448B9
:100F90001300FFF76BF81D1012151C1F2326282CB9
:100FA000303234383A3C3E40424446484A4E505231
:100FB0005A5456585A00C07911E01022294902E0CB
:100FC0002849102210312046FFF732F845E0C06A68
:100FD000206042E0224906223C31F4E7007820708C
:100FE0003BE0808936E01E4942784231EBE71D49FB
:100FF00082781F39E7E7007AF1E7407AEFE718498E
:1010000006223031DFE7807AE9E7C07AE7E7C08976
:1010100020E0808A1EE0C0781CE0C08A1AE0008BC5
:1010200018E0408B16E0808B14E00D490622363123
:10103000C9E7C08B0EE0008C0CE0408C0AE08079A0
:10104000CDE7008A06E0408A04E0272904D208465A
:1010500000F0BCFA208000E00225284670BD0000A8
:101060008857FF1F317BFF1F70B50E4C0025607144
:10107000A571691EE18100F0D9FB0420E071102206
:1010800000210948FEF7E6FF074810220021103032
:10109000FEF7E0FFE562257265720720A072E57237
:1010A00070BD00008857FF1F317BFF1FFEB53B4D11
:1010B0000C4608040CD56879FEF7DEFF050004D065
:1010C00002F0FCFE2846FEF7DDFF0120C00360E0D1
:1010D000600403D5012080034840FEBD2F48E1078E
:1010E0000126807900292AD02978002920D00528D6
:1010F00021D0297A68460170697A41702749062211
:101100003031801CFEF794FFA97A68460172E97AB3
:1011100041726946687900F075FA002808D0072006
:10112000A871696A002903D00968002900D088479E
:1011300020467040FEBD032069460870E4E7A10721
:101140000DD5052809D1E889FEF7A2FFAA8A002A51
:1011500003D002216879FEF7A1FF022019E06007A1
:1011600004D5002002F002FF042012E0200712D56F
:101170002879012802D002280AD107E00096AB8B1B
:101180006A8B298BE88A00F00BF801E000F05AF92D
:1011900008206040FEBD0020FEBD00008857FF1FF4
:1011A000F8B5134C069EA579052D01D01420F8BD85
:1011B000104F851FBD4219D2062917D3BD1DA94264
:1011C00014D2FF27F537BA4210D20A2B0ED3AB4206
:1011D0000CD2E08221836283A383304602F0C6FEF4
:1011E00004216079FEF760FF0020F8BD1820F8BDEB
:1011F0008857FF1F7A0C0000F7B50D46804900980C
:10120000164642187F4F00247879B9791300FEF70B
:101210002DFF190E141BE92040455970777E888FE9
:10122000E996A2A9B4BFC8E9E9E9E9D3E900102D1C
:1012300076D11022314674486FE0102D70D172487B
:1012400010223146103068E0042D69D13068F86210
:10125000CEE0012D64D13B7832783A70002B0AD071
:10126000002A07D1022903D0062901D0042901D17F
:1012700000F082F9BCE0002A0AD0012905D0032938
:1012800003D0052901D0042902D10121FEF712FF64
:10129000AEE0022D44D13088B881A9E01F2D3FD89F
:1012A00058481F2200214230FEF7D4FE55482A46F6
:1012B00031464230FEF7BCFE524B7D7042332A4627
:1012C000012112E01F2D7CD84F481F2200211F381A
:1012D000FEF7C0FE4C482A4631461F38FEF7A8FEEE
:1012E000494B2A461F3BBD700021787900F066FB10
:1012F00083E0012D65D13078042862D8387277E018
:10130000012D5ED1307803285BD8787270E0062D0D
:1013100057D13C48062231463030FEF789FE67E05F
:101320004FE0012D4DD1307807284AD8B8725FE0E0
:10133000012D46D13078032843D8F87258E0022DA9
:101340003FD13288BA82002A52D0052950D10221D9
:10135000FEF7A4FE4CE0012D33D13078012830D8BF
:10136000F87045E03088022D2BD1062829D31921A9
:10137000C901884225D8F8823AE03088022D20D170
:1013800006281ED31921C90188421AD838832FE0B4
:101390003088022D15D1FF21F531884211D2788392
:1013A00026E03088022D0CD10A280AD31921C90160
:1013B000884206D8B8831BE03178012D01D101297C
:1013C00001D0182414E00821FEF77AFE002801D08D
:1013D00016240DE0002002F0C9FD04217879FEF703
:1013E00063FE05E00098272801D2022D02D00224D6
:1013F0002046FEBD318800F06BFA0446F8E7000095
:10140000FFFCFFFF8857FF1F317BFF1F1CB50B4CF4
:10141000A179002901D011201CBD002800D06062F4
:10142000064907482C31034601910090103B0022E9
:10143000E179607900F05AF800201CBD8857FF1F41
:10144000417BFF1F10B506488179052901D0122084
:1014500010BDC1891322407900F070FA10BD000060
:101460008857FF1FFFB5204D81B028781E461746CC
:10147000022823D0012821D0002F22D0019805F086
:10148000A9F904001FD0606A002801D0FEF71EFEF3
:101490001C213846FEF720FE6062011E15D0287818
:1014A000000714D5002E12D0887E00900B46123310
:1014B0000A8A019806F0F8FC014609E0122005B0FE
:1014C000F0BD0220FBE71420F9E71320F7E7002125
:1014D0002079042210432071029A002A02D00222AD
:1014E000104320710846EAE7FD59FF1FFFB581B0A0
:1014F0001E460D4602240B9F0B00FEF7B7FD0D1A8A
:101500000B1A1A0B1A1A1A1A1A1A1A081A000AA00F
:1015100001F08CFD2946019800F0D8F8040008D1AC
:101520003A4630460A9900F08BF900F0EBF801F0EA
:101530000DF9204605B0F0BD4741505F446576691E
:101540006365496E69743A204741505F50524F4677
:10155000494C455F43454E5452414C207C20474105
:10156000505F50524F46494C455F50455249504894
:101570004552414C200A000070B5104C21680029EA
:1015800004D00978814203D0032070BD122070BDC1
:101590000B4D02212878FEF787FD0A480026468079
:1015A00004212878FEF780FD074806802168032083
:1015B00048700020FEF796FD70BD00005C5AFF1FCA
:1015C0008D5AFF1F705AFF1F005AFF1F272803D292
:1015D00002494000085A704701487047085AFF1FE7
:1015E000FFFF000010B5064C607005F023F960782D
:1015F000FEF77EFD0521607800F07EFF10BD000043
:101600008C5AFF1F70B5284E054630680C460028DE
:1016100001D0112070BD254801780520014216D067
:1016200023488068002805D00078002802D0C80729
:1016300006D101E0102070BD00F044F8002808D069
:101640002078032805D0022803D0002801D01220DA
:1016500070BD0C20FEF752FD3060002820D00570D0
:10166000002141700A222146801CFEF7E1FC02F0B5
:1016700061FD040002D001F04FFF12E00D48007838
:1016800003280ED11D20FFF7A1FF0B490028088079
:1016900007D00B48094A04210078FEF735FD00E029
:1016A0001324204670BD00005C5AFF1FFD59FF1F28
:1016B000705AFF1FFE59FF1F005AFF1F60EA00000B
:1016C0008D5AFF1F10B505F0D3F810BD70B50C464C
:1016D00005461C2200210948FEF7BCFC084805709D
:1016E0004470FEF717FD0549002803D0002008705C
:1016F000122070BD01220A7070BD0000F07FFF1F34
:10170000FC59FF1F70B50F4C0025A068002802D0BF
:10171000FEF7DCFCA560E068002802D0FEF7D6FCEE
:10172000E560094805210078084206D005481030D8
:1017300002F0C4FA01F02EFE70BD002002F0BEFAE5
:10174000002070BD705AFF1FFD59FF1FFEB5344DBC
:101750000C46080419D56878FEF78EFC0121C903F0
:101760004C40064600280ED002F0C8F9002807D1E8
:101770002878FF2804D03146FEF7D2FC002802D09A
:101780003046FEF77FFC2046FEBDE007012700281B
:101790000AD0A868002804D04168002901D00020A0
:1017A000884720467840FEBDA00709D56868002814
:1017B00004D04168002901D00120884702202AE096
:1017C00060072AD5174E308800281FD0401E00041D
:1017D000000C30801ED101F011FF002809D0124802
:1017E00007706868002804D04168002901D00120F2
:1017F000884701F0DDFE694600F0DCFE684602F035
:1018000067F91D20FFF7E2FE308003E004216878CD
:10181000FEF74AFC04206040FEBD0020FEBD000033
:101820008C5AFF1F005AFF1FFF59FF1F0149087004
:10183000704700008C5AFF1F10B500F061FF10BD0B
:1018400070B50E4C0B46261D07C60546102200211A
:101850001846FEF705FC012803D11021A06805F009
:10186000F1FE102200212846FEF7FAFB012803D1E1
:101870001021606805F0E6FE70BD0000F07FFF1FDC
:1018800038B505460F480C460078400701D41220B1
:1018900038BD284604F09EFF002811D00A48A90050
:1018A0004058002801D0817D00E02146684606F0BE
:1018B00051FB064B6A460221284606F0B1FA38BDB4
:1018C000142038BDFD59FF1F685AFF1F61840211A3
:1018D000272807D2044A914204D0044A40001152FA
:1018E0000020704702207047FFFF0000085AFF1FCA
:1018F00070B50E46104915460978022916D00129FF
:1019000014D0002D14D004F065FF040012D0002E76
:1019100003D0207902210843207110222946A01803
:10192000FEF786FB28692062002070BD122070BD82
:10193000022070BD142070BDFD59FF1FF8B50D4683
:1019400017461D4906461B4A1224C868954208D10D
:1019500000282DD00268002A2AD029463046904718
:1019600023E0144A521C954213D1002807D0026884
:10197000002A04D0294630469047040005D0394655
:10198000304601F005FC040012D10B480670477088
:101990000EE0284604F01EFF002809D00078B0426F
:1019A00005D139462846FEF7C1FB044600E0032472
:1019B0002046F8BDFEFF0000605AFF1FF8B50E4636
:1019C000014619481546007805221F46104028D0C8
:1019D000304326D01548012E1BD0C468002C20D0DF
:1019E0001F2D18D8002D01D0002F14D001701F22F8
:1019F0000021601CFEF72EFB2A463946601CFEF7CC
:101A000017FB28462570002E07D0611CFEF794FBBB
:101A1000F8BD8468E2E70220F8BD611CFEF792FB86
:101A2000F8BD1220F8BD0000FD59FF1F705AFF1FBE
:101A3000014610B50020C90704D0034A0421034819
:101A400000F0A6F910BD000020900211C056FF1F43
:101A500070B50F4D0F4CA87029461831204600F084
:101A60001DF8002128460B461030CA008452121877
:101A7000491C09065360090EF7D0012003F03AFA19
:101A8000A87800F06BFB044804F004FF70BD000070
:101A9000A056FF1FFFFF00002D47021170B50A4C32
:101AA0000025A04209D1002082008C525218401C0F
:101AB000C0B295700228F7D370BD02F006FE002870
:101AC000FAD00480857070BDFFFF0000F8B50E46A7
:101AD0000746069900240798002902D00B242046C7
:101AE000F8BD022B01D00D24F9E7117852781202CB
:101AF00089188DB22946814301D08024EFE738460A
:101B0000F16800F03DF9A842E9D02A463846F1686C
:101B100000F0C6F90400E2D171892A46384600F087
:101B200065F9DCE770B50C46080412D50A488078E0
:101B3000FEF7A2FA050008D02878B02802D128467E
:101B400002F0E0FE2846FEF79DFA0120C003604047
:101B500070BD002070BD0000A056FF1FFFB587B00C
:101B6000087A0025109E1C460F46C0060DD5099820
:101B700002F0A4FD030006D00A22394607989847D0
:101B8000050035D101E00E2532E0387802281DD15C
:101B9000786829220178407812020002081880B281
:101BA000811A90427ED009DC7249401A23D0012864
:101BB00021D0022851D0032808D125E0012972D074
:101BC000022971D003296DD004296ED0099802F042
:101BD0009DFD0028D7D00568002DD4D0129911980A
:101BE000019100903346224639460798A84705469A
:101BF00028460BB0F0BD1198002873D1F868017821
:101C000031800278416897E0119800286AD101205C
:101C10003080F8680021007820707889401C80B2FC
:101C200000F06CF900280FD0318802788918891CDF
:101C30003180817A61704189090AA1700278416816
:101C4000E01CFEF7F5F9D3E730880422001D308050
:101C50000021601CFEF7FEF9CAE71198002872D136
:101C6000F86804A900880090042030800098207053
:101C70000098000A6070009800F040F9070028D032
:101C8000F86805906846028A03AB3B49384600F085
:101C90008DF900280FD13B78022138487A68FEF789
:101CA00044FE03E027E031E01DE049E0002802D1D6
:101CB0003148694688810598007802280CD105983A
:101CC00002224168201DFEF7B3F93088801C308065
:101CD00002E069460098888168468089A070000A01
:101CE000E07085E72FE0119800282CD1F96807985B
:101CF00000F046F804E01198002824D1F868008824
:101D0000022131802070000A607071E7F868FEF7E8
:101D10001FFA1199C0B2814210D8814201D100222C
:101D200006E0129A8918814202D31199401AC2B270
:101D30003280F96811980918204682E7072557E78D
:101D40001198002801D00B2552E70721F86831804F
:101D500001782170417861708178A1704188090A09
:101D6000E1700179217181796171C088000AA071E7
:101D70003EE7000000280000FFFF0000EE91021186
:101D800010B502F0A2FC002800D0807810BD000041
:101D90007CB51446050019D068460195018000F015
:101DA000E3F903001DD1002C1BD06D89002D0DD04F
:101DB0000C20FEF7A3F900280AD0002303608580D9
:101DC000094A84609168002904D006E0022308E0F3
:101DD000132306E0906004E011460A68002AFBD154
:101DE000086018467CBD0000A056FF1FF8B50C4CDB
:101DF0000746207815460E46FF280FD00A20FEF72A
:101E0000ADF901000AD0B1200870002048700871B7
:101E10004F80CE800D812078FEF782F9F8BD00005A
:101E2000A056FF1F70B50C4605460649FFF7A8FFF0
:101E3000800704D52146284600F0EAF970BD01204C
:101E400070BD0000B856FF1F1CB56B461A71120A10
:101E50005A7100220092022301AA00F001F81CBD71
:101E6000FFB583B008461F4601A90C9E00F046F856
:101E7000050012D06846808802F048FC00280AD08D
:101E80004468002C07D000963B462946059A0398E3
:101E9000A04707B0F0BD0E20FBE70120F9E70000E6
:101EA00070B514460E46054602F00FFC002806D118
:101EB0003146054802F009FC002803D005808470F3
:101EC000002070BD112070BDFFFF000010B501782B
:101ED000B0290BD14178002908D10179122906D007
:101EE0001B2903D14088012100F090FA10BDFF2189
:101EF0000231095C0129F5D010BD0000F0B58C4617
:101F000010494B6819E09F687C89A04214D39E88D1
:101F10003119814210D900220CE011017D18698924
:101F2000814205D16046002800D004802846F0BDDB
:101F3000521C92B29642F0D81B68002BE3D10020CD
:101F4000F0BD0000985AFF1FFFB5174881B00A9FE7
:101F5000446824E000251EE0A06829014618708925
:101F60000199884215D30299884212D80498002812
:101F700007D031787068049B039AFEF7D6FC0028DE
:101F800007D0002F02D0A06840893880304605B0C5
:101F9000F0BD6D1CADB2A088A842DDD82468002C2D
:101FA000D8D10020F3E70000985AFF1FFEB517466E
:101FB00000256A469580044640891D4A1E46904287
:101FC00008D001AA0092401C237880B26268FFF713
:101FD000BBFF05462378022116486268FEF7A5FC80
:101FE000002807D12378022113486268FEF79DFC80
:101FF000002801D060890EE0237802210F48626832
:10200000FEF793FC00280DD0002D03D06846808891
:10201000B84203D0384603F081F804E06889401ED6
:1020200080B200E06089002E00D030802846FEBDDE
:10203000FFFF0000EC910211EE910211F2910211EA
:10204000FFB581B00F461E4614466946019802F05E
:1020500083F9050018D1002C06D001221021019827
:1020600004F092FB05000FD139460198FEF7F2FC0F
:10207000050009D1009CFF2E06D021461E22A31C7C
:10208000034803F057F8E670284605B0F0BD00009D
:102090002150021110B505490870042100F02CFAF6
:1020A00000F006F8FEF7EAFC10BD0000A85AFF1F7A
:1020B00070B50E4C00200C4B651CFF228100C91826
:1020C00000280ED00D80401CCA70C0B28A70022851
:1020D000F4D3074802F0E4FA064804F0DBFB0020E2
:1020E00070BD0C80EFE70000A05AFF1FFEFF00004C
:1020F0004D500211A14F0211F8B50D461446064687
:10210000694602F029F917280CD0002C06D00122CC
:102110001021304604F038FB002803D12946304610
:10212000FEF7A2FCF8BD000070B50C46080411D5FE
:1021300009480078FDF7A0FF050007D00178A02925
:1021400001D102F051FA2846FDF79CFF0120C0039F
:10215000604070BD002070BDA85AFF1F0149087083
:1021600070470000985AFF1F70B505460088002888
:102170001DD068680221037842682248FEF7D5FB2B
:10218000002808D168680221037842681E48FEF7DB
:10219000CCFB00280BD01D4C6088002805D0012204
:1021A00029881204101A814203D9012070BD02202F
:1021B00070BD0C20FDF7A2FF060001D000200AE050
:1021C000132070BD02016B6861880A329952491C64
:1021D000401C618080B229888142F3D800203060A1
:1021E00008222946301DFDF723FF6068002802D130
:1021F000666004E0084601680029FBD10660002003
:1022000070BD0000EC910211EE910211985AFF1F6F
:1022100070B5BEB00D460646002402230E4A0F4993
:1022200001200094FFF790FE002812D040896A46F2
:10223000108004205080012010715471FF20907193
:10224000D0712B46002269463046FFF7F9FE3EB0BA
:1022500070BD0120FBE700000A920211FFFF0000A1
:102260000649496806E08A685289824201D1888815
:10227000704709680029F6D100207047985AFF1F5F
:1022800010B51422114201D0012202E04A0604D501
:102290000022102104F078FA10BDC80701D00020F8
:1022A00010BD022010BD10B514468A0604D50122C7
:1022B000102104F069FA10BD882211420ED00822C4
:1022C0000A40102104F060FA00280BD0E034617E4F
:1022D0000029F0D0217E0129EDD103E0880701D447
:1022E000032010BD002010BD014610B50020C90715
:1022F00004D0034A07210348FFF74AFD10BD000040
:10230000349002111457FF1F70B50D461646002475
:102310001D490300FDF7AAFE0805123434193422C2
:102320002934152D23D8162200211848FDF792FED6
:102330002A4631461548FDF77BFE22E0022D16D1D4
:1023400011491088103908801BE0082D0FD10E4864
:10235000082231460838FDF707FF12E0012D06D1AB
:10236000CA6909493078283107E0012D01D01824C5
:1023700007E0CA6B04493078483103F006F800E002
:102380000224204670BD00001457FF1FFC7AFF1F77
:102390000B7803700B8802221B0A43700B88801C89
:1023A000012B02D0022B07D011E08A7802704988F5
:1023B000090A417004220AE08A7802704A88120AE7
:1023C00042700A7982708988090AC1700622104613
:1023D0007047000008B5044B009313460A460121DC
:1023E00004F090F808BD0000912302111CB50323EE
:1023F000019200930A46024B122104F0B3F81CBD6F
:10240000255E021110B5FDF7B5FE10BD13B50448E9
:102410000078012803D101AA6946FDF7B1FE1CBD71
:10242000B45AFF1F70B50F490F4A087000210B46C0
:102430008C00491CC9B213530429F9D30A4C00215A
:102440001034FF260A460A256A4315196B80491C79
:10245000A354C9B26E720329F4D3FDF797FE04F0BA
:1024600025F870BDB55AFF1F0C80FF1F082A01D048
:10247000012070474B780A781B02D2180280CB7873
:102480008A781B02D21842804B790A791B02D21833
:1024900082808A79C97909025118C1800020704769
:1024A00070B50C46080411D509480078FDF7E4FD25
:1024B000050007D00178902901D103F059FF284683
:1024C000FDF7E0FD0120C003604070BD002070BD3D
:1024D000B55AFF1F70B500280AD1064C002525808B
:1024E000A581A580A068002802D0FDF755FEA56053
:1024F00070BD0000B880FF1F072907D0052905D04F
:10250000042903D0062901D002207047044A8B0019
:102510009A181346403B1986203A90740020704761
:102520000C80FF1F70B506001BD10E4C0025214604
:1025300040310D744D740D76606D002802D0FDF7AA
:102540002BFE65655C20002546433419E800201801
:102550004068002801D0FDF71FFE6D1CEDB20A2D6A
:10256000F4D370BDC880FF1F70B50A880C460546BD
:10257000072A07D0052A05D0042A03D0062A01D04D
:10258000022070BD012104F0B3F9002804D02146D7
:10259000284603F05DFC70BD142070BD10B5001D11
:1025A00080B2FDF7FFFD002803D00321C943FDF7EA
:1025B000FFFD10BD38B50C46050014D0002C12D01C
:1025C0000321684605F03EF8694688784021800678
:1025D000800E0843694688702246284605F07AFD39
:1025E000050002D006E0022038BD03226946E01C47
:1025F000FDF71EFD284638BDF7B58EB00E9815467E
:102600000E4600282DD0002D2BD0301DC0B20190D9
:10261000FDF774FD040039D000F0D6FF07463246BE
:10262000201D0E99FDF7CAFDF8B20890E07038043D
:10263000000E0B90A0703802000E0A9060703F0EE2
:10264000277000F0BBFF0146102202A8FDF7B6FD7F
:1026500006AB214602A8019A05F092FC060003D0C1
:1026600010E0022011B0F0BD089828700B98687037
:102670000A98A870EF70082206A9281DFDF79EFD94
:1026800000F0A8FF2046FDF721FD00E013263046AC
:10269000E8E7000010B5064C2070FDF795FD062117
:1026A0002078FFF729FF034804F0F4F810BD00007C
:1026B000C45AFF1F9976021170B50C46080419D54B
:1026C0000D480078FDF7D8FC05000FD005F004F99F
:1026D000002808D109480078FF2804D02946FDF7D2
:1026E0001FFD002802D02846FDF7CCFC0120C003C6
:1026F000604070BD002070BDC45AFF1F8C5AFF1F80
:102700007CB50C4605001DD0002C1BD00322E11C1B
:102710006846FDF78DFC6946887840218006800E6A
:1027200008436946887001AA284605F0D3FC0028B2
:1027300007D10322214601A8FDF786FC012803D01A
:1027400001207CBD02207CBD00207CBD10B5054869
:102750000078400701D5044800E0002005F044F966
:10276000002010BDFD59FF1FB85AFF1FFFB58DB0E7
:102770000F98169C0E46002815D0002C13D00D98EB
:1027800004F028F8050011D061782078090240187B
:10279000A178E2780904120689184718286AB84215
:1027A00006D3401C04D0022011B0F0BD1420FBE77A
:1027B000002E04D02879800701D40120F4E70822F4
:1027C000002106A8FDF746FC1098001DC0B201903C
:1027D000FDF794FC060017D0301D109A0F99FDF7F5
:1027E000EDFC042221463046FDF7E8FC1022A91832
:1027F00002A8FDF7E3FC06AB314602A8019A05F0FA
:10280000BFFB050002D013E01320CDE7082206A984
:1028100008A8FDF7D3FC0822211D08A8FDF714FC29
:10282000012801D0012503E039460D9801F0DCFCB8
:102830003046FDF74BFC2846B6E70000F0B50546EC
:10284000014689B04EA000F0F1FB524C052D09D095
:10285000217819260127B601052909D0002002296F
:102860002BD02CE04B494C48091DFEF789FB83E037
:10287000684607700121A08806F0A8FA042D09D146
:1028800020210820FFF724F820210920FFF720F855
:10289000424908E031460820FFF71AF8314609207E
:1028A000FFF716F800210020FFF712F83A486A46B1
:1028B00001210938FEF7A0FC5EE0032D02D0012DB6
:1028C0000DD059E06178002901D0607054E00820F3
:1028D000FEF77CFE20284FD168460770DAE70646EF
:1028E000059006900790089068460672C12003A9DB
:1028F0008000FEF745FB6846017B0170417B41701B
:10290000817B81700671C670417CC171017C8171CF
:10291000C17B41716A4608210020FEF72DFA03A809
:1029200000F0C4FA01460E2205A8FDF781FB194804
:1029300005AE08222330B11DFDF77AFB15480822A9
:10294000B11D3430FDF774FB124A61201832132197
:10295000C000FEF751FC0F4A15212B320020FFF773
:10296000D3FC0D4802AA01210938FEF745FC0121DC
:10297000C902A078FDF79EFB257009B0F0BD0000EC
:102980005772697374476170537461746543423A56
:10299000202564008C58FF1F0E03000030750000D6
:1029A000002805DBC106C90E0120884001490860E6
:1029B0007047000000E100E08307FF22DB0E9A4031
:1029C0008907090E9940002808DB830809489B0005
:1029D0001B18186890430843186070470007000FE1
:1029E0000838830804489B001B18D86990430843A3
:1029F000D861704700E400E000ED00E00A4610B541
:102A00000146002003F0AAF910BD000030B5484C83
:102A10008BB0A07047A000F009FB00206946087247
:102A200007220A7308820875C8200883C0008883BB
:102A3000012008847D20C000888443A003C8019140
:102A400000906A4606214248FEF7D6FBC32003AA3F
:102A500001218000FEF7D0FB3D4802AA0121801F22
:102A6000FEF7CAFB3A4804AA0221401FFEF7C4FB46
:102A70002246612018321321C000FEF7BDFB344806
:102A8000224609320721001FFEF7B6FB312005AAB6
:102A900001210001FEF7B0FB2D4806AA0221801D8E
:102AA000FEF7AAFB2A4807AA0221C01DFEF7A4FBD5
:102AB000274808AA02210830FEF79EFBC52009AA74
:102AC00002218000FEF798FB22462B3215210020C0
:102AD000FFF71AFCFF25913529460620FEF7F8FE80
:102AE00029460720FEF7F4FE29460820FEF7F0FEEF
:102AF00029460920FEF7ECFE0025ED432846FFF7A6
:102B0000F3FB2846FEF794FFFEF72AF904F072FA69
:102B1000104806F045F900F0C9F80121A078FDF74A
:102B2000C9FA0321A01D03F083FD0BB030BD0000E6
:102B30008C58FF1F0A0A0A617070577269737449D2
:102B40006E69740A0A0A0000010203040506000007
:102B50000B0300009D8D021138B50C4608040AD500
:102B600018488078FDF788FA002801D0FDF78AFA26
:102B70000120C00322E0E0070125002806D011480B
:102B80001030FEF743FC2046684038BD600703D58F
:102B900000F016F9042011E0A00504D503F0C6FDED
:102BA000012040020AE020050AD5684605706A4601
:102BB00001210548FEF720FB0120C002604038BD1E
:102BC000002038BD8C58FF1F05030000F8B5174DD5
:102BD0000446192603CDB60132460023083DFDF711
:102BE000F9FA0090FDF7FCFAA968814203D9104A6E
:102BF0000099891800913146FDF7F8FA00994018BC
:102C000000906846FDF7F8FA017C0A4A491C2171D8
:102C1000818A8918E180017BE170017AA1700179D4
:102C20006170007820700020F8BD0000E07FFF1F79
:102C3000C2F528006C07000070B50446FDF7D0FA15
:102C400006462046FDF7DEFA0446002521460CA084
:102C500000F0ECF919222046920100232946FDF7E5
:102C6000D7FA801B074AA94143C207A000F0DEF94A
:102C70001021044804F0F6F90BA000F0D7F970BD5C
:102C800025780000E07FFF1F6170705F64617465EC
:102C900074696D655F61646A7573745F62617365A1
:102CA0006C696E653A0A00000A00000000B58FB03A
:102CB00003A802F09FFA03AB07CB029001910092A8
:102CC00008490898079A411807A0521C069B00F073
:102CD000ADF903A8FFF7B0FF104800F067FA0FB096
:102CE00000BD00006C070000636865636B5F64658E
:102CF0006661756C745F6461746574696D650A54AE
:102D0000696D652069732025642D25642D25642C4B
:102D10002025643A25643A256400000030750000DF
:102D2000F3B591B02C2103A8FDF778FA10A8007A2A
:102D30000E90401E079010A8408912490F9040182D
:102D4000089010A8C679069684790594457904956B
:102D500007790DA0039700F069F96846B0C03346C3
:102D60000EA00E9A0F9900F061F903A8FFF764FF17
:102D70001021114804F076F910A000F057F9002056
:102D800013B0F0BD94F8FFFF0A6170705F64617466
:102D90006574696D655F7365743A0A0054696D65A1
:102DA0002069732025642D25642D25642C2025643D
:102DB0003A25643A25640A00E07FFF1F0A000000FC
:102DC00010B586B0FDF70CFA10498A68824206D920
:102DD0000B684A681B1C012462410B604A608860D2
:102DE0000B4800F0E3F903A8FFF7F0FE6846027B0A
:102DF000417B807B6B4607C36846C37B027C418A6C
:102E000004A000F013F906B010BD0000E07FFF1F22
:102E10003075000054696D652069732025642D2587
:102E2000642D25642C2025643A25643A25640A0023
:102E3000FFB583B00F4603981B4940001646085A59
:102E4000FFF7ACFB04002AD00125601C2670002F80
:102E500003D00699B847401C85B2300610D5102122
:102E6000039803F045FD002801D0192613E06219EC
:102E7000E9B22046FFF7C0FB06000CD10C35ADB21D
:102E80000421684601800194058169460398FFF793
:102E90006BFB060004D02046FDF77EF900E0132608
:102EA000304607B0F0BD0000F659FF1F10B586B0E0
:102EB000044614220FA16846FDF7B6F912493020E6
:102EC0000870782048700620891C6A46A41D641E7C
:102ED0002378401E1B09D35C0B70237800061B0768
:102EE0001B0FD35C4B70891C000EF0D10870064894
:102EF00006B010BD303132333435363738394142BF
:102F000043444546000000005F7CFF1F01680A053E
:102F100008D11031044A016052781203914201D362
:102F2000891A016070470000E459FF1F10B503467D
:102F30000022104603E09C5C6040521CD2B28A42E0
:102F4000F9D310BD30B5BFB00C460546F821684630
:102F5000FDF764F968464480002203E0A95C831809
:102F60001971521CA242F9DB05F048FF3FB030BD99
:102F700010B5C0B003786C462370012901D94078A0
:102F800000E000206070A27003212046FFF7CEFF12
:102F90006946C8700446F82101A8FDF73FF90420EE
:102FA0006946C880087808724878487288788872BC
:102FB000CC7201A805F022FF40B010BDF3B587B078
:102FC000044605A8FFF702FEA0787D2109014118FB
:102FD00068464182E27802742379C3736579857308
:102FE000A6794673E779077308A0029701960095C2
:102FF00000F01CF804990398FFF792FEC2B2204635
:103000000899FFF7B5FF09B0F0BD0000636D645F7C
:103010007365745F74696D653A2025642C25642C92
:1030200025642C25642C252C25640A000FB410B5CA
:1030300003AA0448029903F0ABFC10BC08BC04B01E
:1030400018470000FD29021138B5034B00240FCBAF
:10305000009402F051FE38BDA0900211F8B5496805
:1030600094460A784978069C090251188EB2444A5F
:10307000112100250798B71A091B964243D009DC95
:10308000404AB21813D0012A1CD0022A25D0032AA4
:1030900008D12EE0012F40D0022F48D0032F50D06E
:1030A000292F5AD0002018800A252846F8BD082C60
:1030B00055D20821091B814200D8084682B21A80E5
:1030C000314857E00C2C4AD20C21091B814200D810
:1030D000084682B21A802D484CE00D2C3FD20D21BB
:1030E000091B814200D8084682B228481A800D3058
:1030F00040E0112C33D2814200D8084682B22348E6
:103100001A801B3036E0112C29D2814200D80846A3
:1031100082B21E481A802D302CE0112C1FD2814221
:1031200000D8084682B219481A803F3022E0112C9C
:1031300015D2814200D8084682B214481A80513014
:1031400018E00E2C0BD20E21091B814200D8084634
:1031500082B20E481A8063300CE0072C01D3072599
:10316000A3E70721091B814200D8084682B206481E
:103170001A80C01F01196046FCF75AFF95E700004E
:10318000272A0000DDD5FFFF5F55FF1F988F021132
:1031900010B50C4603F032FB002804D040882146CD
:1031A000FCF7C4FF10BD122010BD0000024610B590
:1031B000024804210078FCF771FF10BD8E58FF1FF4
:1031C000F7B501248AB000200E46274605909CE002
:1031D00056480179407CC019FDF708F8C8B2FF2CA9
:1031E00003D3FF3CA4B2FF2C33D20A9A002A01D1A8
:1031F0004E4A11740003029005980125002803D05F
:1032000000200590601C06E0012C05D92819811EBC
:10321000FF2917DA401E85B2029829010818079085
:103220004248042201680798081804A900F082F8AF
:103230000A9800280ED0012829D002283CD0062068
:103240000DB0F0BDFF200230401B201A84B20120D7
:10325000059058E004988103890F04D0022902D018
:1032600003294CD10EE00103890F012901D001246B
:1032700045E0000D0C21FCF7B9FF002900D0012129
:1032800044183CE007980005000D306047E00498C2
:1032900081038A0F04D0022A05D0032A2FD142E0ED
:1032A000890F0229DFD1328881B292B29142DAD1FC
:1032B0000C990798086032E004988103890F04D0C4
:1032C0000229D0D003291AD129E00103890F01294D
:1032D00003D0306801240C300BE0000D0C21FCF70A
:1032E00085FF002900D0012144180C20316860437B
:1032F000081830600C980C990068401C08606D1C20
:10330000ADB2FF2D80D97F1CFFB2094840788742BB
:1033100000D25DE70A98002803D0012803D00020DE
:103320008EE721208CE725208AE70000C87FFF1F59
:10333000E459FF1F10B5094C636898420BD36478B9
:103340002403E318834206D9002904D0002A02D0BE
:10335000FCF770FF10BD222010BD0000E459FF1FD4
:103360000022002913D0002811D0012806D04A7964
:103370009206920E4A71032805D007E04879C022D0
:103380001043487102E0402002434A710122104676
:103390007047000070B512480025007805210842EA
:1033A0001BD02020FCF7AAFE0E4C0028A06013D0F2
:1033B00020220021FCF74EFE2020FCF79FFEE0605B
:1033C000002804D020220021FCF744FE05E0A0687C
:1033D000FCF77CFE0020A0601325284670BD00008D
:1033E000FD59FF1F705AFF1F70B50A4D0646002495
:1033F0000E206043401906223146FCF725FE0028C6
:1034000001D0204670BD641CE4B20A2CF0D30A201F
:1034100070BD0000627BFF1F7FB50C460A280CD2EE
:10342000002C0AD0062148432030C0B26A460E2143
:1034300003F04CFD050003D007E0022004B070BD8E
:10344000062269462046FCF7F3FD2846F6E70021F0
:103450008A00835A491CDB43835212189378C9B2FD
:10346000DB4393700429F3D37047000010B50F4974
:103470004A79002A01D0012300E000238A78002A3B
:1034800000D004221A438B79002B00D00823134369
:10349000CA79002A00D01022097A1A43002900D0E4
:1034A00020211143FEF7ECF910BD0000EC57FF1F7F
:1034B000002909D0012807D1497989098901C02942
:1034C00002D0402901D00220704703207047FFB589
:1034D00000200E4608701AE01C5C401CC5B2002C8F
:1034E00017D02819904214D85F5D6D1CEDB2384694
:1034F00000F0A3FE002806D0641EE0B230700099F0
:103500008F4202D1581904B0F0BD4019C0B29042A8
:10351000E2D30020F7E7000010B5044C2068002833
:1035200003D0FCF7D3FD0020206010BD5C5AFF1FC4
:1035300070B50E4D84002859002815D0006A002867
:1035400001D0FCF7C3FD2859406A002801D0FCF7E0
:10355000BDFD2859806A002801D0FCF7B7FD285925
:10356000FCF7B4FD0020285170BD0000685AFF1F11
:1035700010B5044C6068002803D0FCF7A7FD0020BC
:10358000606010BD605AFF1F011E044805D1044948
:103590008978002901D00248801D70470080FF1FF4
:1035A000FC59FF1F0148807870470000FC59FF1F3D
:1035B0000148406870470000F07FFF1F01488068A5
:1035C00070470000F07FFF1F0148C0680068704727
:1035D000F07FFF1F10B50748C0680168491C0160F3
:1035E00005480078FF2803D001218903FCF762FD1C
:1035F00010BD0000F07FFF1FFC59FF1F024840680C
:10360000002800D001207047585AFF1FFFB581B035
:103610000F460D9E0A9D039803F0DCF8040042D08B
:10362000019800283FD12079102108432071049986
:10363000490702D50221084301E0FD21084020711D
:103640000B99284608430C9908433043207902D04F
:103650000421084301E0FB2108402071002E06D020
:103660003069102220623146A018FCF7E1FC002DE1
:1036700001D0002F05D00B98002814D0012F08D0BE
:1036800011E0606A002801D0FCF720FD1C212846CB
:1036900006E0606A002801D0FCF718FD1C210B9899
:1036A000FCF71AFD60620398224C8700E05900285D
:1036B0003ED0002D0FD0006A002806D11C20FCF758
:1036C0001DFDE1590028086205D0E0591C22006A5E
:1036D0002946FCF7ADFC0C98002810D0E059406A50
:1036E000002806D11620FCF709FDE15900284862A0
:1036F00005D0E0591622406A0C99FCF799FC002E7F
:1037000010D0E059806A002806D11420FCF7F6FC9E
:10371000E1590028886205D0E0591422806A3146B8
:10372000FCF786FC0B9B049A0399019803F0E2FDD9
:1037300005B0F0BD685AFF1FF3B581B0019803F0E2
:1037400049F8050029D00E20FCF708FD040024D01C
:103750002620FDF73BFF060000D12E78D0202070F8
:10376000002767700B20A0700622E91DE01CFCF703
:103770005FFC019860810298C1070120002901D0F7
:10378000207300E027730299890701D5607300E078
:103790006773F0B22146FCF7C3FCFEBD10B581880B
:1037A0001F4B0124CA1A994237D011DC1D4BCA1A8B
:1037B000994219D007DC1C4A8A1810D0022A1ED060
:1037C000032A29D11BE0472A27D0482A24D124E004
:1037D0001300FCF74BFC06212222222222218068C2
:1037E000007800F0EBFC08E08068827841781202F3
:1037F000891889B2007800F041FD04460DE0094ABD
:10380000921E914201D1012200E0002280680178DD
:10381000104600F01BFD00E00024204610BD000013
:10382000532000000A200000FADFFFFF70B51A4D98
:103830001A4A0146002628781268194C01290CD032
:10384000002A09D017490978490705D50221FCF754
:103850002BFC6680FFF760FE70BD6188002903D0F5
:10386000114B1B78002B05D0002AF5D01078FDF7FE
:1038700083FE70BD3C2902D33C39618070BD0221BA
:10388000FCF712FC62887D20C000424302212878A8
:10389000FCF704FC668070BD8D5AFF1F5C5AFF1F49
:1038A000705AFF1FFD59FF1FFF59FF1F08B54189BF
:1038B00000910389C2888188C07800F0CBFB08BDE5
:1038C000F0B504468088A12189004843304987B07B
:1038D00009684018FF30FF300230A1794167002CA1
:1038E00054D02C4D6868002823D006782A480068F8
:1038F000002804D04168002901D0002088472146D3
:10390000E07908310591FFF7D3FDE0710246277D8C
:10391000638A218AE089019002A88AC0A088009069
:10392000E0783146059B03F05BFDE078002802D08B
:103930000DE01A48D9E7E079E2896B46059907C39B
:10394000A379A1880122304602F0F2FEE070686897
:10395000002811D0FFF70CFE287800280CD06978D9
:10396000FFF716FC002807D0E078A28803462978E4
:1039700003F08AFD00202870A0881721FDF7DCF9EC
:10398000A088FEF7A7FDA088FEF7CCFD07B0F0BD2C
:103990003409FF1F605AFF1F905AFF1FFC59FF1F79
:1039A00070B504460026808802F014FF002803D07A
:1039B0000678A08802F080FF144D2878002808D0EF
:1039C000864206D16978FFF7E3FB002809D0002082
:1039D0002870002E05D0A379A288A078314603F084
:1039E00053FDA088094A810008325158002901D0AE
:1039F000FFF79EFDA0881721FDF79EF9A088FEF72E
:103A000069FDA088FEF78EFD70BD0000605AFF1FA3
:103A100070B58288294D0124531B2949AA4242D0FE
:103A200019DC284D531BAA4218D00BDC264BD218A8
:103A300026D0254B1033D2181ED0032A17D0042AC3
:103A400039D10BE0012B09D0022B07D0032B21D059
:103A5000042B30D11AE0433B072B2CD849680029AE
:103A60002AD00968002927D08847044624E08068C6
:103A7000007800F0ADF81FE0806800F001F9F4E78D
:103A80008068411C007800F0D9F8EEE783681B7865
:103A9000002B11D0896800290ED00B6808E0014680
:103AA00010469847E1E709490968002904D04B68A6
:103AB000002BF4D100E00024204670BD0E20000051
:103AC0008C5AFF1F08200000F7EFFFFF6C5AFF1F02
:103AD00010B5094CA17800290CD001460622A01D82
:103AE000FCF7A6FAA11DA078FFF73AFCA01DFCF791
:103AF000A7FB10BD002010BDFC59FF1F1CB52F49AE
:103B0000037801240A68912B02D0A22B2ED13EE02B
:103B10004178052909D00E2904D00F2908D03E2963
:103B200024D115E0FFF774FF10E0FFF739FF3AE00A
:103B300001468088224B0124C31801D0062B15D1E1
:103B4000002A30D05268002A2DD0904704462AE03F
:103B500081780124032917D004DC012911D002291E
:103B600004D105E015291ED016291CD000241AE026
:103B700014498968002916D04968002913D088475C
:103B800011E0FFF79DFE0EE0FFF790FE0BE00E49FF
:103B90000978042909D0002A05D05268002A02D0E9
:103BA00001460A48904720461CBD00216A46118004
:103BB00001794088FEF70EFCF5E700006C5AFF1F04
:103BC000F3DFFFFF8C5AFF1FFD59FF1FFFFF0000AF
:103BD000F8B5164F0646BD1F2878FF2814D00A20D6
:103BE000FCF7BCFA04000FD0D020207066700820CB
:103BF000A070A878E07006223946201DFCF718FA5C
:103C000021462878FCF78CFAE87801280DD108487D
:103C10000068002803D08068002800D0804706484C
:103C2000044A04210078FCF76FFAF8BD025AFF1F1E
:103C3000905AFF1F60EA00008D5AFF1F70B50024E4
:103C40000546002805D1002903D006220B48FCF7C1
:103C5000EFF90A4810380178012907D10124002D15
:103C600006D000210170284600F0D0F9204670BD32
:103C700002210170FCF7EAFAF8E700000080FF1F5C
:103C800010B50024002813D002780B49002A03D174
:103C90004288CA8202790A760A78022A08D1027812
:103CA0000124002A06D000220A70007800F0AEF944
:103CB000204610BD0322F7E7F07FFF1F014948604F
:103CC000704700008C5AFF1FF8B57A4C8778014680
:103CD000002507266079A2793B00FCF7C7F90805A3
:103CE000361A37375F9ACD36487800285CD171484C
:103CF00006223C30C91CFCF79BF90120A0716D4BDA
:103D00000146423362786079FDF758FE00284BD1B6
:103D1000A8E00F464978002946D1F978002906D055
:103D2000654BA2780021FDF749FE78700AE0022A6F
:103D30000BD00121FCF7C4F9002803D101216079DF
:103D4000FCF7B8F9787800282ED1F8BD4978002919
:103D50002AD1032F09D0A289002A0CD0217800296A
:103D60000AD00121FCF79AF906E0052A01D00220C9
:103D700012E0062010E02570A079062802D0042861
:103D800002D008E0052007E001202070014660799C
:103D9000FCF790F966E00320A07163E048780F46D5
:103DA000002803D0312832D0A6715BE041480622BA
:103DB000391D3630FCF73CF97889E081B8892082DA
:103DC000F88960820520A071A28A002A03D002210E
:103DD0006079FCF763F9B889E083F8892084388A30
:103DE0006084E07801280AD11F20FDF7EFFB7D21D8
:103DF000C9004843024604216079FCF74FF97A89EB
:103E0000F8780423391DFCF7C7FF25702AE02570D8
:103E1000C1E728480E46062200213630FCF71AF981
:103E2000E5832584658404216079FCF73DF9082148
:103E30006079FCF739F9B079082808D00320A0711F
:103E40002078002805D06079FDF796FB07E0042074
:103E5000F5E70120207001466079FCF72BF900207E
:103E6000C043E081606A002800D16EE70168002944
:103E7000FBD0A0798847F8BD0D460821FCF714F95E
:103E8000687829460028F6D1E888E08328892084CC
:103E90004889608404216079FCF712F90028EAD18E
:103EA000A06A0028E7D00368628C218CE08B9847D9
:103EB000F8BD00008857FF1F127BFF1F10B5017867
:103EC000224C912906D0A22926D0D02901D1FFF772
:103ED000FBFE10BD41780E29FBD181881C4A91421E
:103EE0000FD1816803200856A1790529F1D17F28D7
:103EF000EFD0616A0029ECD049680029E9D08847F1
:103F000010BD144A9142FBD18068837842780178D1
:103F100011A0FFF78BF810BD41791329FBD100895F
:103F2000012802D12079022808D00520FDF74EFB98
:103F3000024608216079FCF7B1F810BD08216079CC
:103F4000FCF7B2F8FDF77EFA10BD00008857FF1F9E
:103F500005140000222000005B48434920444C45E2
:103F60005D25642025642025640A00007CB5154C7D
:103F70000546E08BE18A88420AD3218B884207D824
:103F8000208C618B884203D1608CA18B884217D032
:103F90000520FDF71BFB0646E18A68460180218B60
:103FA0004180618B8180A18BC18062796946E08903
:103FB000FEF71CFA2571324608216079FCF76EF88D
:103FC0007CBD00008857FF1FF8B507460E4608461F
:103FD00002F000FC040018D02620FDF7F7FA0500D7
:103FE00000D125780620FCF7B9F804000DD0062290
:103FF0000021FCF72FF8D020207067700E20A070F1
:10400000A680E8B22146FCF78BF8F8BD70B50F4DDD
:1040100006462878FF2818D00E20FCF79FF80400E9
:1040200013D0D020207066700020A07006220849AE
:10403000E01CFBF7FDFF06481038C18A6181007E55
:10404000207321462878FCF76BF870BDFC59FF1FE0
:104050000080FF1FFFB581B01E4617460D460C209D
:10406000FCF77CF8040013D0284602F0B3FB0028CC
:1040700010D00078D0212170019961700721A170C2
:10408000A580E78026810A9961812146FCF748F8DE
:1040900005B0F0BD0048ECE7FC59FF1F70B50D4DB1
:1040A000044628680E46002812D00620FCF756F871
:1040B000010009D0D02008704C70032088708E80D9
:1040C00028680078FCF72CF8002C01D0FFF724FAC0
:1040D00070BD00005C5AFF1FFFB581B01F460E4641
:1040E000084602F077FB050022D01020FCF736F8D6
:1040F00004001DD010220021FBF7ACFF2620FDF7A5
:1041000065FA002800D12878D021217001996170CA
:104110000F21A170A6800399217267720A99A1727A
:104120000B99E1720C99E160C0B22146FBF7F8FFF0
:1041300005B0F0BDF0B51F4D85B02868002837D018
:104140008778FDF7BFFA002805D00A20FDF73EFA70
:1041500004900B200EE001F033FE002805D006206D
:10416000FDF734FA0490072004E00820FDF72EFA4A
:1041700004900920FDF72AFA04460F480078002829
:1041800014D001262968C878091DFFF7E9F82968C5
:104190006D46CA7A8B7A091D0BC5039233463A469F
:1041A00021460498FCF758F805B0F0BD0026E9E771
:1041B0000120F9E75C5AFF1FFE59FF1F10B509499E
:1041C000096800290CD0002805D101204870FBF7B0
:1041D00089FF002802D00021FFF760FF012010BDF9
:1041E000002010BD5C5AFF1FF8B50C4602F0F2FA31
:1041F000020021D026201462FDF7E8F905062D0EF5
:1042000000D115789679D01D00901020176AFBF721
:10421000A5FF040010D0D02020700020607009207D
:10422000A070E6700622201D0099FBF701FF2146D1
:104230002846E760FBF774FFF8BD411E152903D936
:10424000FF2801D0002070470120704770B50A4E4A
:10425000054630780C46FF280DD00420FBF77EFF82
:10426000010008D0D02008704C7002208870CD70FA
:104270003078FBF755FF70BD705AFF1FF3B5284D1E
:1042800081B0286800284AD04078264E012803D003
:104290003078002831D041E001F092FD224F002813
:1042A00013D00120FDF792F90446412808D91F4A8E
:1042B00002213878FBF728FF1D483C3C44800EE083
:1042C0007D20C0002246424303E00020FDF77EF936
:1042D0000246002A03D002213878FBF7DFFE296866
:1042E000022048703078002802D00020307015E09D
:1042F00002990198FFF7D2FE10E00320019CFBF722
:104300002DFF010008D0D02008704C700420887068
:1043100028680078FBF704FFFFF7FEF80120FEBDD8
:104320005C5AFF1FFF59FF1F8D5AFF1F60EA0000F4
:10433000705AFF1F074A00218B00D35A834202D1D3
:10434000880080187047491CC9B20229F4D30020A4
:1043500070470000A05AFF1F10B50C46FFF7EAFF98
:1043600000280DD0002C00D020608078FE2803D0DB
:10437000FF2803D0162010BD172010BD002010BD4F
:10438000022010BDFFB581B0FF201E461746053044
:104390000A9DFBF7E3FE04001BD0B020207067707D
:1043A000029860802671002D06D02046FC22294606
:1043B0000830FBF73DFE05E02046FC2200210830D6
:1043C000FBF748FE21460198FBF7AAFE002005B046
:1043D000F0BD1320FBE70000054817220280098882
:1043E000172901D204207047018000207047000087
:1043F000F859FF1F0020704708B50A460888498809
:1044000088420BD8002809D0002300931379521D4D
:10441000FDF79AFD002803D0002008BD012008BD4B
:104420000A2008BDF3B50D4608884988002687B0E4
:10443000814215D3002813D0002769460F710097D9
:10444000002369881A46FDF77FFD04004FD06846B7
:104450000079002807D069464979012925D008E06C
:10446000012009B0F0BD217802291BD002216A4643
:1044700051711222504301AA618980184180684617
:1044800000791223584380181022001D6168FBF741
:10449000CFFD68460079401C0106090E684601718F
:1044A0001FD11AE001216A465171217802291ED1DB
:1044B000820001A86189121851806A4612796168E8
:1044C000920010180222001DFBF7B2FD6A46107917
:1044D000401CC0B21071052803D261890A4881428C
:1044E00000D101266089401C80B2002EA7D068460A
:1044F0000079002805D001A90798FCF791FA00205F
:10450000AFE70A20ADE70000FFFF000038B50C461A
:1045100008884988884215D8002813D02379621D5D
:1045200002210B48FCF701FA00280DD00020009072
:10453000237961882088621DFDF706FD002805D0DB
:10454000002038BD012038BD102038BD0A2038BDFC
:10455000EC91021108B50A460888498888420BD8B0
:10456000002809D0002300931379521DFDF7ECFCBD
:10457000002803D0002008BD012008BD0A2008BD86
:10458000F8B500250F4606460C46E03717E06800F0
:10459000205A0021FDF7B2FC002809D0017A3046EC
:1045A000FDF76EFE002808D06900615A2180F8BD31
:1045B0006800205A20800120F8BD6D1CEDB2B87D46
:1045C000A842E4D80020F8BD10B5044608880021B0
:1045D000FDF794FC002804D0017A2046FDF750FE38
:1045E00010BD012010BD000030B585B005466946FC
:1045F000FCF794FA040026D168468078C1071E486B
:1046000009D08268002A04D0688869469047044629
:1046100019E0062417E04268002A05D06888694638
:104620009047040001D10EE0062468464078002837
:1046300009D16846817801730021C18104746888BA
:1046400003A9FCF7ADF9A868002801D0FBF7A4FD89
:10465000002C05D168468078122807D01B2803D08B
:1046600068880121FDF7D2FE05B030BD684640786C
:104670000128F5D1F8E70000A85AFF1F70B50546DC
:104680000C4608880021FDF739FC002805D0017A86
:1046900022462846FDF707FE70BD012070BD0000D0
:1046A0000149486070470000A85AFF1F10B5044632
:1046B000801C00F046FDFF20E07010BD10B500F03A
:1046C00025F8002800D0806810BD00229300CB5A46
:1046D000834202D1900040187047521CD2B2022A85
:1046E000F4D3002070470000074A0021CB00D35AC2
:1046F000834202D1C80080187047491C0906090E80
:10470000F4D0002070470000B056FF1F06498968AA
:1047100005E08A88824201D18868704709680029CB
:10472000F7D1002070470000A056FF1FF8B50746DC
:10473000012906D0022924D1012102F0D9F800284C
:104740001FD13846FFF7D0FF050015D000240D4ECD
:104750000CE0F8206968604308180188002908D037
:10476000F8220021FBF776FC641CE4B270788442E6
:10477000EFD30020C0432880024938461831FDF7A6
:104780008DF9F8BDA056FF1FF3B5064683B008307B
:104790000190002000907088FFF7A6FF07002FD03F
:1047A000002523E0F820796868430C182188002947
:1047B00020D00198007801280FD160880090A3884C
:1047C0007088A21DFDF74CFB0090002805D00199D0
:1047D00000200870049821880180F82200212046DA
:1047E000FBF738FC00206D1C2080EDB207484078B4
:1047F0008542D7D30020C04338800098002802D1DA
:104800007088FCF7F7F8009805B0F0BDA056FF1FC0
:10481000F3B50546374C064685B00835F62200212B
:104820002046FBF717FC03A800902B79698828889D
:104830006A1DFDF789FB074645E070882E4A410056
:10484000515C2E4BC91FC9B2009300220291019204
:10485000284B69468A89F63B3946FDF77FF90028DF
:1048600012D126482989001F828891420CD1214902
:104870002846F6390A30FBF7E7FB002804D02178F8
:10488000788989000919488068468289698804AB5B
:104890003846FDF78BFB07462078810009194A88C6
:1048A000002A10D0002F05D06A46128A401C2070C2
:1048B0008A800AE002060021920DC9431219401CA9
:1048C0002070918006E0002F04D00D4821780088E8
:1048D0008142B2D32078002806D070882146FCF7A8
:1048E00091F8002007B0F0BD0698298801800A20C1
:1048F000F8E70000027AFF1FF659FF1FA456FF1FBA
:10490000F259FF1FF0B585B0044600206946888142
:1049100020790E2869D00FDC082823D004DC022877
:1049200013D0062818D118E025460835484F0A2824
:104930001DD00C2810D138E010285BD012285ED092
:10494000162861D0182877D163E043484149008890
:1049500008806088FCF72EF86EE003A92046FFF778
:1049600057FF5AE003A9204600F076F955E0288861
:1049700004A9FDF7C3FA010015D06088354E420046
:10498000BA5C0023521ED2B20193029200966A468C
:10499000B31C128AFDF7E2F800281DD16088314669
:1049A000FCF7C0F948E0012016E0288804A9FDF7CB
:1049B000A5FA0100F7D060886B884200BA5C254EEA
:1049C000521ED2B20193029200966A46B31C128A1A
:1049D000FDF7C4F8002803D029886A4691811CE0BD
:1049E00060883146FCF76EF926E003A9204600F006
:1049F000D3F912E003A9204600F082F80DE003A9E4
:104A0000204600F039FA08E003A9204600F028F813
:104A100003E003A92046FFF7B7FE00280CD0617819
:104A2000142909D00B4922790A706A4692894A8072
:104A300008716088FBF7B4FF2046FDF747FA074886
:104A4000C168002901D02046884705B0F0BD0000AC
:104A5000F659FF1F027AFF1FF059FF1FA056FF1FD4
:104A6000F8B504460F460546083400896946FDF747
:104A700045FA06003AD0307A80060ED5684600889E
:104A8000FFF71CFE030006D06888122231469847C3
:104A9000060002D02BE00E2629E06E883046FFF794
:104AA00023FE010005D11448FFF71EFE01000ED0C1
:104AB0000E80124A0020527807E0F8264B684643E1
:104AC0009B5B002B05D0401CC0B29042F5D3092659
:104AD0000DE04968F822504308182146FBF7A8FA70
:104AE000002668882146FCF7E3F802E001262088CA
:104AF00038803046F8BD0000FFFF0000A056FF1FC1
:104B0000F3B58BB000200B9E0746039004A80090DD
:104B10003246337B718930894C4C0D320836FDF7B3
:104B200013FA054678E00B98297A4088FDF7A8FB30
:104B3000070003D00C98698901806FE00B98444905
:104B40004088444B4200895C0093891FC9B200220F
:104B5000029101923D4B69460A8AF63B2946FCF7D1
:104B6000FDFF0700E6D10398002833D0394861885B
:104B7000001F8088021D914253D1039909180B9898
:104B8000408842003248805A801F814249DC0399A4
:104B9000A87A6118087103986989401C80B22218AC
:104BA000090A401C117180B203906846028A71881C
:104BB00007AB2846FDF7FAF9050011D003986946BE
:104BC000898B2018017103986946401C898B80B23B
:104BD000090A0CE01F48001F8088001D6080D6E78E
:104BE0000398FF21201801710398401C80B22218FD
:104BF0001171401C80B217490390091F8A8813491C
:104C00002018F639001DFBF713FA12490398091F03
:104C10008988401880B20390002D84D10398002821
:104C20000CD061880398FBF7E1FA20700B982146BD
:104C30004088FCF751F800200DB0F0BD002F00D1E6
:104C40000A270C98318801803846F5E7027AFF1F61
:104C5000F659FF1FA456FF1FF3B507460446083751
:104C60008BB049480490388800252E4605906AE0AC
:104C700007A800903B7979887A1D0598FDF764F9BB
:104C80000890002852D0408905900898017A6088E1
:104C9000FDF7F6FA06005DD160883C494200895C68
:104CA0003B4B091FC9B20093002202910192364B7F
:104CB00069468A8BF63B0899FCF750FF060049D1FC
:104CC000002D36D0049841883148001F8088801C10
:104CD000814241D12E4B1B1F9888291860884200C1
:104CE0002A48805A001F814220DC0898817A049863
:104CF0004019017108996D1C4989E8B20A0A0499A2
:104D000009180A71401CC5B2194604988A881E49C0
:104D10004019F639001DFBF78BF91D481D49001F8E
:104D200000792818C5B20598884209D1002D13D101
:104D300023E017480499001F8088801C4880C9E739
:104D4000401C80B20590608841001048405A001F06
:104D5000A8428DDA002D0ED0049841882846FBF732
:104D600045FA01460498017060880499FBF7C2FF78
:104D700000200DB0F0BD002E00D10A260C99059838
:104D800008803046F5E70000027AFF1FF659FF1F42
:104D9000A456FF1FFFFF0000F3B50646044600209F
:104DA00085B0324D00900836288007463046E03006
:104DB000049048E07800305A03A9FDF79FF80100FD
:104DC0001AD060882B4B844642002948805C0093AF
:104DD000401EC0B2002202900192244B6846828994
:104DE000F63B6046FCF7BAFE0090002807D078003A
:104DF000315A0698018035E001200090F7E71D49FF
:104E00002888091F8988421861884B001849C95AA7
:104E10004B1E9A4204DD081A1649091F401E88805D
:104E20002988A81C08181349091F8A880F49F639D0
:104E3000FBF7FEF80F482988001F80880818288093
:104E40007F1C0498FFB2807DB84207D9608829880A
:104E500042000748805A401E8142ABDB60882946E9
:104E6000FBF756FF009807B0F0BD0000027AFF1F65
:104E7000F659FF1FA456FF1FF3B5054683B004463D
:104E80000835008901A9FDF739F82746E8370646B5
:104E9000002822D0307A80060ED568468088FFF739
:104EA0000DFC030006D060881222314698470600A8
:104EB00002D013E00E2611E0002000906B882988B4
:104EC00060882A1DFCF7CCFF060007D1787E0028F9
:104ED00007D16088FBF73CFF03E00126049829888E
:104EE0000180787E002802D0002005B0F0BD304659
:104EF000FBE70000F8B504460246F8204243194893
:104F000000250746457010377868002807D0002034
:104F1000C100C919401C00064D60000EF8D0124EA9
:104F200000213046FBF796F8002001466143C9B2E4
:104F3000F82251438B190B49C2001031521800213D
:104F4000536005E0F8274F435368491CDD53C9B24D
:104F5000A142F7D3401C0006000EE6D00148447081
:104F60000020F8BDA056FF1F1478FF1F7CB50C78F9
:104F7000069D022C0FD14C682678647824023419DF
:104F8000064EA4B2F44206D10224DBB2009501948D
:104F9000FCF79CFD7CBD01207CBD0000FED6FFFF20
:104FA000F8B505461D48854223D0461C002921D06E
:104FB00001292BD002291CD10121284601F098FC9F
:104FC000002816D12846FFF7B5F9040011D0A078C3
:104FD000FF280ED0FE2807D000200090E0781E2386
:104FE00014222946FFF7CEF92046FFF75FFBFF208A
:104FF000A070F8BD2846FFF79DF90028F9D130468A
:10500000FFF798F90028F4D00580F8BD2846FFF78F
:1050100091F90400F9D02680D9E70000FEFF0000D6
:1050200038B5040010D0A078FF280DD0FE280BD092
:10503000002000902188E0781E231722FFF7A2F9B4
:10504000FE20A070FF20E07038BD0000F3B50C46D4
:105050008978C1B01E2914D02E4D2878FF2829D078
:10506000182927D84808C2002B481218803A976F91
:10507000002F1FD0D06F00281CD02078002817D117
:1050800013E04198FFF756F905000BD0002000907F
:10509000A378E87800224199FFF774F9064628467C
:1050A000FFF704FB304643B0F0BD6278012A03D11C
:1050B000122901D00620F6E702AE0096A388617897
:1050C000A268B8470028EED1A0784008C100124875
:1050D00008188038C26F02A94198904700280FD065
:1050E00061780029DFD1A27869460A7008716846A4
:1050F0000189418069464198FBF752FC0020D2E7C4
:10510000A378042BCFD00096002228784199FFF78E
:1051100039F9C8E7985AFF1F8891021100B5034674
:10512000FDF79EF8002803D0C018401E80B200BDD5
:10513000184600BD10B57D24E4006243FBF792F8E9
:1051400010BD10B5040008D02078FF2805D0FE2837
:1051500003D0FBF78DF8FF20207010BDF7B5064691
:105160000F461020FAF7CAFF05461020FAF7C6FFCF
:105170000446002D3AD0002C2DD010220021FAF741
:1051800069FF2A462146304602F0DAF9060023D1AB
:105190002878000604D43946284601F029FA08E0A8
:1051A0002146284601F024FA3A461149204603F0E8
:1051B000D9FE3878000604D43846029901F018FA6E
:1051C0000AE02146384601F013FA09492046029ABE
:1051D00003F0C8FE00E013262846FAF777FF002CFC
:1051E00002D02046FAF772FF3046FEBD1326F6E7DE
:1051F00012920211F0B505468BB029A0FDF716FFFB
:105200002AA0FDF713FF26A102A8FBF737F82AA171
:1052100002A8FBF739F8294E0024A000315802A853
:10522000FBF738F8002836D0641C0C2CF5DB22A1E3
:105230000020FBF729F8FBF733F8C1B20A911EA151
:105240000020FBF721F8FBF72BF887B217A102A883
:10525000FBF714F81AA102A8FBF716F8FBF720F8E1
:10526000C6B217A10020FBF70FF8FBF719F8C4B27C
:1052700013A10020FBF708F8FBF712F8694609793B
:10528000C0B2491E29610F49791869610A99E9601C
:1052900051C50BB0F0BD6846641C0471C7E700003F
:1052A00044656320323020323032310031383A33B5
:1052B000373A353500000000200000004891021107
:1052C0003A00000094F8FFFFF8B5069800271D4645
:1052D00014460E46002801D00B20F8BD307800217E
:1052E000022801D019804DE07068027840780002F1
:1052F0001018152280B25202801A0300FAF7B6FE87
:105300000504121F1A254100F068FAF721FFC2B206
:105310000798824200D902462A80F1682046FAF7AF
:1053200087FE30E0F0680221008829802070000AA2
:10533000607028E0062028800246F168EEE7012030
:105340002880F068007820701DE0F068002816D0F2
:1053500008212980017821700188090A617081780B
:10536000A1704188090AE170017921718188090AD7
:1053700061718179A171C088000AE07103E0298020
:1053800001E0298001273846F8BD10B50B78840765
:1053900002D50224234301E0FD2423400B700307C0
:1053A0000B7802D50824234301E0F72423400B7037
:1053B00083060B7802D52024234301E0DF24234019
:1053C0000B700A21084201D1810603D510780C2107
:1053D000084304E0002803D11078F321084010703E
:1053E00010BD0000FFB581B0087800240A9E1F465A
:1053F0000D4602280FD1686801784078000208182D
:10540000152180B24902401A09D0012829D002286A
:1054100048D003283CD00124204605B0F0BDE86800
:10542000FAF796FEC0B2864205D8F019009015280A
:1054300003D90D24F0E70724EEE7E8683A4680191F
:105440000399FAF7F5FD0098EA6880B2002111543B
:105450001C4840680028DFD001680029DCD000200B
:1054600012E0002E12D1022BE3D10399E8680A78EA
:105470004978090251180180124840680028CBD0B1
:1054800001680029C8D001208847C5E70B24C3E77D
:10549000002EFBD1062BCCD10622E8680399FAF73F
:1054A000C7FDB9E7002EF1D1012BC2D103980078D6
:1054B000002803D0012801D08024ADE7E9680870F6
:1054C000AAE700000457FF1F10B50448C16B034A48
:1054D00040321068D06000F0A5FA10BD0080004096
:1054E00008B500220092064A1278002A06D00A4621
:1054F000009069460120FDF763FE08BD272008BD26
:10550000E459FF1FFFB583B01C4616460F46002521
:10551000FAF7CCFE800602D0292007B0F0BD224861
:10552000007800280BD0002F0BD0002E09D0694640
:105530000398FFF7D5FF002805D02520EDE72720A9
:10554000EBE72220E9E71948009900680422401897
:1055500001A9FDF7EFFE002C02D00198000D20807C
:105560000198040DB44219D91CE00C2C01D30C2075
:1055700000E02046C6B20D48791902680098001D67
:1055800010183246FDF7D6FEA01B84B200981030EA
:105590000090A81985B26846FDF7B8FC002CE4D14C
:1055A0000020BAE72620B8E7E459FF1FC87FFF1F95
:1055B00030B5C21F0A2A01D3062030BD0124074D91
:1055C0009440002905D0002100F0C0F8286820434D
:1055D00001E02868A0432860002030BD003800406A
:1055E000054B01228240D868002901D0104300E019
:1055F0009043D860704700000038004070B5FF2825
:1056000014D08207D30E8408094A5E1DA400A51891
:10561000AC69F21A0126521C9640761E9E40B44395
:1056200099400C43AC610121FFF7DAFF70BD000027
:105630000038004010B5114C2078002801D0072018
:1056400010BDFF212D310D48FAF7E8FD0120207033
:105650000B490020086348630A4908624862022136
:105660001020FDF7A9F91020FDF79AF9064A07491D
:105670000D20FAF721FE002010BD0000607DFF1F05
:105680000080004080F000409D5802111158021126
:1056900010B5172801D3052010BD0C4B9C6B0122BF
:1056A0008240104620439863586B90435863DC6BEC
:1056B000012907D020469043D863186B02431A6330
:1056C000002010BD10462043F6E700000080004097
:1056D000054B0122801E82405869002901D01043E9
:1056E00000E09043586170470038004070B50446B0
:1056F00014480E460519002902D16878012808D0FF
:1057000000212046FFF76CFF022C04D0032C02D0AE
:1057100005E0072070BD01212046FFF7D9FF0021D9
:105720002046FFF745FF08490120A0404A68012EA6
:1057300005D082434A6002206870002070BD024399
:105740004A60FAE7607DFF1F0080004070B54200AC
:1057500083180D4A9C18A5786478D65C641B0122D6
:10576000641CA240521EAA40084BA940132806D22E
:10577000B000C018836893430B43836070BD5869C1
:1057800090430843586170BDD390021100F000406F
:1057900007494A68012383401A4201D0096802E0A0
:1057A000034940310969C140C807C00F7047000074
:1057B0000080004070B5154C45002E197678012305
:1057C000114AB34000290ED0142809D0152807D05B
:1057D000162805D0605780008018816819430DE0B5
:1057E000506918430EE014280AD0152808D016284E
:1057F00006D060578000801881689943816070BD31
:1058000050699843506170BD00F00040189102113A
:1058100070B5104D00242E197078012803D1E0B224
:105820000121FFF7C7FF707802280ED1E0B2FFF721
:10583000AFFF01214140E0B200F074F8E0B2FFF7A1
:10584000A7FF0C21614349194876641C172CE2DB41
:1058500070BD0000607DFF1F10B50F4C0D4A012385
:10586000245C142809D2106A002902D0A3401843EE
:1058700001E0A3409843106210BD506A002903D094
:10588000203CA340184302E0203CA34098435062D0
:1058900010BD000080F00040BC90021170B50221E4
:1058A0001020FDF789F81020FDF77AF800241C4D30
:1058B00007E0022C01D0032C03D1E0B20121FFF755
:1058C00007FF2819407801280BD1E0B2FFF760FFED
:1058D000E2B20146104600F061F8E0B20021FFF7A5
:1058E00069FF0C2060434019007E002814D0E0B20C
:1058F00000F066F8E6B23046FFF74AFF002801D014
:10590000012100E000210C2272435219527E824292
:1059100002D0304600F0BAF8641C172CC9DB70BD09
:10592000607DFF1FF8B542008318184AD55C9A18AD
:105930009278521ED4B2164A12185278022A21D1F5
:10594000144EB76B0122134683401F43B763124BBB
:1059500013280ED2002906D0A900C9188B68A240CE
:1059600093438B600BE0A900C9188B68A2401343D6
:10597000F7E70029596906D0A240914359610121F6
:10598000FFF76AFFF8BDA2401143F7E7D390021179
:10599000607DFF1F0080004000F00040012200B544
:1059A000064B82400029196801D0114300E0914361
:1059B00019600121FFF79AFE00BD00000080004041
:1059C00070B50446164821460C2251430D186A68EA
:1059D0000026002A02D1AA68002A1CD0104B0222FD
:1059E000183B1B195A700122425400212046FFF730
:1059F0007DFE6868002808D0A86800280DD02046E1
:105A0000FFF7C6FE002808D0002631462046FFF7E3
:105A10003FFE002070BD122070BD0126F5E700009A
:105A2000787DFF1FF3B5184E002481B0074601258D
:105A30002846A040384223D00299084000D00120D7
:105A40000090E0B2009900F021F80C20604380192A
:105A50004168806800290ED0002807D000980028EF
:105A600002D00021E0B203E00121FBE7E0B2012116
:105A7000FFF70EFE04E0002802D0E0B20021F7E7B5
:105A8000641C172CD4DBFEBD787DFF1F074A0C2356
:105A900043439B185A68002A01D0012904D09A6810
:105AA000002A02D0002900D110477047787DFF1FDF
:105AB000F7B51C4882B00078002820D06846047AE8
:105AC0001848401C0090215C6846857AC689078A80
:105AD000012916D0037BC27A2946204600F050F8EF
