:020000041102E7
:1000000003B40148019001BDADAE000003B4014846
:10001000019001BD456B010003B40148019001BD91
:100020000189000003B40148019001BDC53F0000F3
:1000300003B40148019001BDE94C010003B401483B
:10004000019001BDC95C010003B40148019001BDEC
:10005000993FFF1F03B40148019001BD253FFF1FD9
:1000600003B40148019001BD6536FF1F03B4014888
:10007000019001BD154D010003B40148019001BD7F
:10008000350E000003B40148019001BD5937FF1F30
:1000900003B40148019001BD5927FF1F03B4014873
:1000A000019001BD2D38FF1F03B40148019001BD2F
:1000B000B30E000003B40148019001BD1D3CFF1FB9
:1000C00003B40148019001BD090E0000F8B5D34901
:1000D000D14A002004464A608300401CD450FF28C7
:1000E000FADD4868CE4A014680318A606E22C262DB
:1000F000CC4A1278002A01D07F22C2620A2202650D
:10010000C94A13788363C94BC36115781023022D44
:1001100008D01578012D05D01578032D02D015785B
:10012000042D00D10362C24D45611925AD018561E1
:100130003725CD6036272826C76308254664056421
:100140004F6032270F603B27CF634127CF643927A9
:100150004031E0C132274F6002274F61422708310A
:10016000E0C11E274F60CE608D6005264E6142269D
:100170000E615A2660390E614D613C258D61AF25B7
:10018000ED000560AB4D05631578022D09D015789B
:10019000012D08D01578032D07D01578042D06D031
:1001A00007E0152504E0436003E00E2500E00C2580
:1001B0004560FF252D358560C560FF25F535056156
:1001C0009D4D85647D25ED009C4ECD67C6644562DE
:1001D0009B4D85627325C565062545658565C51DED
:1001E0000826F93502272E6047664B27FF008766F1
:1001F0000927C766934F07674667BE108467C667BF
:10020000914F8E4E3E601678022E09D01678012E40
:100210000AD01678032E0BD01278042A0CD00EE0E8
:100220001A22CA61212205E01422CA61182201E0C3
:100230001322CB610A6202E00E220B62CA617E4A7F
:100240008A627D22D2008A6764224A620522CA62DB
:1002500002220A63C8228C634A63382169607B49A1
:1002600029647B49A9614B21C900E9617349FF30C9
:10027000643929627D2109016962EC661E212C67BF
:10028000A9667049A965E965891029666964696785
:100290007049A9677049714A8130E96702608260DC
:1002A0004160FF21F531C16001616E486C495A4AD5
:1002B00081606D49803A11616A496C4A80318A6275
:1002C0006B4ACA626B4A82616B4AC2626B4A0263C2
:1002D0006B4A64484038C2636A4ACA616A498163AA
:1002E00060496A48403188616A49694888605D4868
:1002F000694A80384260694A4263694A0A626949C8
:10030000816058496848C039C860FFF779FE01200C
:10031000FFF77CFEF8BDF3B50746644881B0C169BC
:10032000634A1140FF310931C161002613E0002505
:100330002C461120FFF770FE5C48406A8007800F52
:10034000610088402843641CE4B20546102CF0D3B9
:1003500001C7761CF6B202988642E8D3FEBD10B5FE
:100360002E4C607800280AD104215248FFF7D3FFB1
:10037000504804211030FFF7CEFF0120607010BDFF
:10038000F0B500248BB00D460646102902D9012095
:100390000BB0F0BDFFF7E3FF464900200A5C401CAC
:1003A0001419C0B21028F9D3002C03D0102D03D992
:1003B0000B20EDE70E20EBE73F483E4C00230068A2
:1003C00002A91034E25CC75C7A40CA545B1CDBB201
:1003D000102BF7D306AA3748FFF724FE102D00D9BB
:1003E00010252A4606A93046FFF722FEFFF726FE13
:1003F000216840182060FFF721FE616840186060A6
:10040000FFF71CFEA1684018A060FFF717FEE16827
:100410004018E0600020BBE70004FF1FA855FF1F45
:10042000288CFF1F4C55FF1F4A0AFF1F3A07000088
:1004300080C3C9019A02000050C30000280A0000CE
:100440006A180000204E0000F009FF1F0040001154
:1004500068100000DC05000040420F00102700007B
:10046000DD42FF1F0001FF1F9123FF1F9D46FF1F5D
:100470007549FF1F9D20FF1F3122FF1FB920FF1F5D
:10048000ED2CFF1F9952FF1FBD50FF1F2140FF1F82
:100490001125FF1F0002FF1F6940FF1F3141FF1F91
:1004A0007540FF1F2540FF1F4125FF1F40F0004002
:1004B00000FEFEFFF487FF1FC855FF1F002809DB61
:1004C00000BF00BFC206D20E01219140024A116056
:1004D00000BF00BF7047000000E100E010B5002839
:1004E00019DB1A4A03231B02D21883089B00D25837
:1004F0008307DC0EFF23A3409A438B071B0E840760
:10050000E40EA3401A43114B032424021B19840850
:10051000A4001A5118E00E4A03071B0F083B9B0862
:100520009B00D2588307DC0EFF23A3409A438B071E
:100530001B0E8407E40EA3401A43054B0407240F47
:10054000083CA408A4001A5110BD000000E100E01E
:100550001CED00E010B502460B46114600E0491CB8
:100560000878002803D018465B1E0028F7D1881AA7
:1005700010BD70B504460D462A4621460020FFF7FF
:1005800063FD70BD01880905090D00290ED10168C0
:1005900010310160064A127812030168914205D3B6
:1005A000034A127812030168891A0160704700003B
:1005B0007855FF1F0FB408B503A800900548009AAE
:1005C000029901F0E7F80020009001B008BC04B0E7
:1005D000184700007305021100B585B0064B0FCB1C
:1005E000049301AB07C30020009001A80FC8FFF7D8
:1005F00031FD05B000BD0000401D021110B50446DC
:10060000024909680819FFF72BFD10BD7C55FF1F33
:1006100038B5002000900D480078002801D127202F
:1006200038BD00226946104600F0DEF80446002C72
:1006300003D107490098488205E0212C03D101200D
:100640000003034948822046EAE700008055FF1F67
:10065000E077FF1F70B598B00024272500265E487C
:1006600000685E4908605E4800780871FF20887164
:10067000102048710922FF215848C01DFFF7F6FCE1
:100680004E22002104A8FFF7F1FC00BF44E05349CB
:100690000968220388181022694600F0DDF94F49E5
:1006A00000980968884224D1684600794B49097945
:1006B00088421ED16846407948494979884218D114
:1006C0006846817946480078401E81420FDA6846C4
:1006D0008079A04201D1022600E003266846807995
:1006E00004A90855684680793C49887112E00426BF
:1006F00016E00098401C00280AD168460079FF28BF
:1007000006D168464079FF2802D104A9085501E0C6
:10071000042605E0601CC4B230480079A042B6DC73
:1007200000BF042E02D1202018B070BD2B48807964
:10073000FF2800D10126012E23D100240FE02748F5
:10074000847101460968220388181022234900F0A9
:10075000A3F9002801D01F20E6E7601CC4B21F489F
:100760000079401EA042EADC00201C4908740846BB
:100770000079401E487410204882012019490870F1
:1007800027E0002406E004A8005D002800D105E071
:10079000601CC4B211480079A042F4DC00BF0F48CD
:1007A0000079A04215DD0D4A117912791219501EF7
:1007B000FFF762FCC8B20949487401200949087072
:1007C000FFF726FFC5B2212D03D0002D01D02A202E
:1007D000AAE70020A8E700007C55FF1FE077FF1F75
:1007E0007855FF1F8055FF1FF7B586B00D460124D1
:1007F000002000900120059018E1954A1179537C62
:10080000059A9818FFF738FCC8B20490FF2C05DB56
:10081000E01FF83884B2FF2C00DB03E106980028C3
:1008200009D18B4A1179537C059A9818FFF724FC5B
:10083000C8B2874908740498000303900126ECE0CD
:100840000098012804D100200090301986B211E0F0
:10085000012C0FDDB01E0019FF2803DA701E0019ED
:1008600086B207E0FF200230801B201A84B20120EC
:100870000090D5E0310103980918029174490A6883
:1008800002995018042201A900F0E6F80698002801
:1008900004D0012831D0022873D168E00198800388
:1008A000800F002804D0022803D0032822D11AE0A8
:1008B00000BF01980003800F012812D10199080D93
:1008C0000C21FFF7D9FB07460199080D0C21FFF712
:1008D000D3FB002901D0012000E00020381884B2A9
:1008E00000E0012407E002980005000D28600020C8
:1008F00009B0F0BD00BF00BF8CE001988003800FFD
:10090000002804D0022803D003282DD12AE000BFFC
:1009100001988003800F02280AD1019880B22988AB
:1009200089B2884204D10899029808600020DFE764
:1009300001980003800F012812D10199080D0C21A4
:10094000FFF79AFB07460199080D0C21FFF794FB6E
:10095000002901D0012000E00020381884B200E016
:10096000012402E02520C3E700BF00BF52E0019848
:100970008003800F002805D002282AD0032844D104
:1009800041E045E001980003800F012817D101994B
:10099000080D0C21FFF770FB07460199080D0C218B
:1009A000FFF76AFB002901D0012000E00020381881
:1009B00084B20C20604329680818286003E00124F1
:1009C00028680C30286008980068401C0899086066
:1009D0001CE001980003800F012812D10199080D35
:1009E0000C21FFF749FB07460199080D0C21FFF781
:1009F00043FB002901D0012000E00020381884B218
:100A000000E0012402E0002072E700BF00BF01E027
:100A100006206DE700BF701C86B2FF2E00DC0FE7DA
:100A200000BF00BF0598401CC0B205900949097875
:100A30000598884200DAE0E60698002802D00128EE
:100A400004D101E0212053E7252051E700204FE7A2
:100A5000E077FF1F7855FF1F70B504460D46164618
:100A60000B48006884420BD30A4800780003084909
:100A700009684018A04203D9002D01D0002E01D1F1
:100A8000222070BD324629462046FFF7FBFAF8E7E0
:100A90007C55FF1F7855FF1F70B504460D4616465E
:100AA000FFF7F6FA8006800E002801D0292070BDDD
:100AB0000B48006884420BD30A48007800030849B9
:100AC00009684018A04203D9A007800F002801D070
:100AD0002220ECE7324629462046FFF7DFFAE6E718
:100AE0007C55FF1F7855FF1F70B50548C56B04483E
:100AF00040300468C4602946204600F0BFFD70BD48
:100B000000800040F0B589B00020059004900025D9
:100B10000390FFF7BDFA8006800E002802D029203E
:100B200009B0F0BD43480078002801D12720F7E73D
:100B30004148407C0490404A1179527C501CFFF798
:100B40009BFAC8B20590049800030390002469E062
:100B5000394A1179059A1019FFF78EFA0D032E46BE
:100B60003548847102461179049A1019FFF784FA06
:100B7000080331490968401810222F490190FFF7F6
:100B80008BFF002801D01F20CAE7002C02D1039858
:100B900010300390103500273CE0274909684819B8
:100BA000042202A9FFF758FF02988003800F022851
:100BB00027D1214909684919081D0C2206A9FFF708
:100BC0004BFF1D490968039A8818042202A9FFF700
:100BD00063FF002801D01F20A2E717490968039A84
:100BE0008918081D0C2206A9FFF756FF002801D01E
:100BF0001F2095E703981030039003A8FFF7C2FC6D
:100C000005E002988003800F032800D104E010352E
:100C1000781CC7B2FF2FC0DB00BF3046FFF7EEFCE9
:100C2000601CC4B204480079401EA04290DCFFF76B
:100C300011FD75E78055FF1FE077FF1F10B50024F9
:100C400013480078002800D110BD1248408A0121C5
:100C50000903884219DA0F4A527C0E4B1B79D218CD
:100C60000C4B1B7CD21A501E0A4A1179FFF704FA6A
:100C7000FF20000141430C460648408A0121090338
:100C8000081A04190C20604304092046DCE7000020
:100C90008055FF1FE077FF1F7CB5044600200190C0
:100CA00000900B480078002801D127207CBD6A46BF
:100CB00001A90220FFF798FD0546002D05D1002C63
:100CC00001D0009820600198F0E70120EEE70000D5
:100CD0008055FF1F70B504460D460A48007801286C
:100CE00001D1272070BD2005000D002801D1022D63
:100CF00001DA0620F6E70448057004480460FFF7AF
:100D0000A9FCEFE78055FF1F7855FF1F7C55FF1F9B
:100D100001480078704700008055FF1FFEB505466A
:100D20000024012600200190FFF7B2F98006800E12
:100D3000002801D02920FEBD27480078002801D1D5
:100D40002720F8E701A9284600F04AF8002840D1FA
:100D500022490968019A881804226946FFF77CFE37
:100D60000099080D0C21FFF787F907460099080D37
:100D70000C21FFF781F9002901D0012000E00020BB
:100D8000381886B2002420E014490968019A8818AE
:100D900004226946FFF760FE032109040098884396
:100DA00000900E490968019A881804226946FFF7E5
:100DB00073FE002801D01F20BDE70198103001907C
:100DC00001A8FFF7DFFB601C84B2B442DCDB00202B
:100DD000B1E72520AFE700008055FF1FE077FF1F38
:100DE000F8B504460D460020009008480078002819
:100DF00001D12720F8BDA0B200902A466946012003
:100E0000FFF7F2FC06463046F4E700008055FF1F6E
:100E1000FFB583B00E46174600200290FFF738F961
:100E20008006800E002802D0292007B0F0BD264899
:100E30000078002801D12720F7E7002E01D0002FED
:100E400001D12220F1E701A90398FFF7C9FF00288B
:100E500038D11E490968019A881804226946FFF7AB
:100E6000FBFD0698002803D00098010D069801802C
:100E70000098050D0098000DB84221DC1CE00C2DF7
:100E800001DB0C2000E02846C4B2029831180F485C
:100E90000068019A8018031D22461846FFF7DCFD02
:100EA000281B85B20198103001900298001980B279
:100EB000029001A8FFF766FB002DE0DC0020B4E7FC
:100EC0002620B2E72520B0E78055FF1FE077FF1FFF
:100ED000F7B588B00E461446FFF7DAF88006800EA4
:100EE000002802D029200BB0F0BD5B480078002814
:100EF00001D12720F7E7002E04D0002C02D057485C
:100F0000844201DD2220EEE7FFF798FEA04201D2E5
:100F10002320E8E702A90898FFF762FF002806D11E
:100F20000898FFF7FBFE002801D00120DBE72546EB
:100F300001980003000B2105090D090508430190E4
:100F40000198000C0004089989B20843019003211C
:100F500009040198884301214904401801900C2C90
:100F600005DC032189040198884340180190002082
:100F700003906CE00C2C16DDA54208D103218904F6
:100F800001988843012189044018019007E003215A
:100F90008904019888430121C904401801900C2755
:100FA000E01B84B210E001980003800F022804D0F7
:100FB00001980003800F012804D1032189040198BE
:100FC00088430190E7B20024254800682449097C41
:100FD000090340182249498A40180290042201A9B5
:100FE00004A8FFF725F8039831183A4605A8FFF73B
:100FF0001FF83A1D04A90298FFF74EFD002801D002
:101000001F2070E70398C01980B203901448408AEB
:101010001030134948820846408A0121090388425A
:1010200015D10F4A1179127C501CFFF725F80C4896
:10103000407C81420BD01020094948820A46117930
:10104000127C501CFFF718F8C8B205490874002C30
:1010500090DC002047E700008055FF1FFF0F0000D5
:10106000E077FF1F30B504460D46072C01DB102C3E
:1010700001DD062030BD002D0CD00021204600F0FF
:1010800007F909480068E11F01228A401043064918
:10109000086007E004480068E11F01228A4090438D
:1010A000014908600020E5E700380040002907D02A
:1010B000074AD268012383401A43054BDA6006E0F1
:1010C000034AD268012383409A43014BDA60704798
:1010D00000380040FCB504460F4600200190002572
:1010E000FF2C27D02046E117890F09188E10E11731
:1010F000890F091889108900611A00910099C806A2
:10110000050E681DC0B201900B48B100415801980E
:10111000421B521C01209040421EAA4008469043A8
:101120003946A94008430449B200885001212046AD
:10113000FFF7BCFFFCBD00001838004010B5114897
:101140000078002801D0072010BDFF212D310D4867
:10115000FEF7AAFF01200B49087000200A49086326
:1011600048630A490862486202211020FFF7B6F975
:101170001020FFF7A3F9064A06490D20FEF79AFF53
:101180000020E1E7FC75FF1F0080004080F0004078
:1011900095140211D913021110B502460B46172AF5
:1011A00001DB052010BD1248816B012090400143F6
:1011B0000F488163416B012090400C4684432146D7
:1011C0000B484163C16B012B03D1012090400143C7
:1011D00004E0012090400C46844321460448C1634A
:1011E000016B012090400143014801630020D9E7D1
:1011F0000080004010B5002908D0094A5269831EBA
:1012000001249C402243064B5A6107E0044A52697C
:10121000841E0123A3409A43014B5A6110BD000074
:101220000038004030B504460D46002D05D1164863
:10123000005D012801D1072030BD00212046FFF7C5
:1012400035FF022C01D0032C03D101212046FFF7EA
:10125000D1FF00212046FFF705FF012D07D10B48E4
:1012600040680121A14008430849486009E0074857
:1012700040680121A1408843044948600221024896
:1012800001550020D8E70000FD75FF1F00800040D9
:10129000F0B5024655005519174E735D55005519A6
:1012A000AD196C7855005519AD19A878132A11DAC3
:1012B000124D9E00AE59271A7F1C0125BD406F1E9E
:1012C00087403546BD430E4686402E430B4D9F005A
:1012D000EE5110E0094D083D6E69271A7F1C01256B
:1012E000BD406F1E87403546BD430E4686403543A0
:1012F000024E083E7561F0BDCD1C021108F00040A1
:1013000001460948406801238B401840002802D05C
:101310000548026802E00448403002691046C840AF
:10132000C007C00F704700000080004030B50029A2
:1013300026D0142803D0152801D016280BD1244A12
:1013400052694300234C1B195C780123A3401A43C4
:101350001F4B5A613AE01E4A083243001D4CE356C7
:101360009B00D25843001B195C780123A3401A4309
:10137000174B08334400174D2C57A4001A5125E091
:10138000142803D0152801D016280BD1104A536910
:101390004200104C121954780122A24093430C4A87
:1013A000536113E00A4A083243000A4CE3569B009B
:1013B000D3584200121954780122A2409343044AA0
:1013C00008324400034D2C57A400135130BD0000D7
:1013D00000F00040121D021170B500241FE01148FA
:1013E000005D012803D1E0B20121FFF79FFF0D4806
:1013F000005D022812D1E0B2FFF782FF01214840D0
:101400000546E0B2294600F07BF8E0B2FFF778FF2E
:101410000C216143034A173289184870641C172C49
:10142000DDDB70BDFD75FF1F10B5142815DA00292E
:1014300009D0164A126A164B1C5C0123A3401A43BA
:10144000124B1A6220E0114A136A114A145C0122FD
:10145000A24093430D4A136216E000290AD00B4ABA
:10146000526A0B4B1B5C203B01249C402243074BE0
:101470005A6209E0054A526A054B1B5C203B012475
:101480009C40A243014B5A6210BD000080F0004016
:10149000B61C021170B502211020FFF71FF81020B2
:1014A000FFF70CF8002426E0022C01D0032C03D116
:1014B000E0B20121FFF79EFE1048005D01280CD12B
:1014C000E0B2FFF71DFF0546E0B2294600F06CF8D8
:1014D000E0B20021FFF72AFF00BF0C20604307495C
:1014E0001731085C002805D0E0B200F079F8E0B2CE
:1014F00000F036F9641C172CD6DB70BDFD75FF1F9C
:10150000F8B504460F466000201823490D5C6000C2
:10151000201840188078401EC6B22048005D02287E
:1015200000D0F8BD1E48806B0121A14008431C4932
:101530008863132C15DA002F09D11A48A9004058E6
:101540000121B14001431748AA0081501EE015480F
:10155000A90040580121B14088431249AA0088508F
:1015600014E0002F09D10F48083840690121B1402B
:1015700008430C490839486108E00A4808384069BE
:101580000121B140884307490839486101212046BB
:10159000FFF74AFF00BFC4E7CD1C0211FD75FF1F16
:1015A0000080004008F0004030B504460D46002D94
:1015B00007D00A4800680121A14008430749086094
:1015C00006E0064800680121A140884303490860FD
:1015D00001212046FFF726FE30BD000000800040BC
:1015E000F8B50446244D002600270C20604340191E
:1015F0004068002807D10C2060434019806800280B
:1016000001D11220F8BD02211B48173801550121D4
:101610000C206043295400212046FFF703FE0C20D4
:10162000604340194068002810D00C2060434019E6
:10163000806800280AD02046FFF762FE0746002F88
:1016400001D1012000E0002006460EE00C2060439E
:1016500040194068002801D0012606E00C206043B4
:1016600040198068002800D0002631462046FFF748
:1016700093FD0020C6E700001476FF1FF3B581B08C
:101680000646234D002440E00120A04030400028C1
:101690003AD00120A04002990840002801D0012042
:1016A00000E000200746E0B2394600F033F80C2095
:1016B000604340194068002810D00C206043401956
:1016C000806800280AD0012F01D0012000E000200E
:1016D0000746E0B23946FFF75FFD14E00C20604397
:1016E00040194068002804D0E0B20121FFF754FD02
:1016F00009E00C20604340198068002803D0E0B264
:101700000021FFF749FD00BF641C172CBCDBFEBDA8
:101710001476FF1F70B504460E46104D0C20604332
:1017200040194068002808D0012E06D10C206043E3
:1017300040194268204690470EE00C206043401953
:101740008068002808D0002E06D10C206043401984
:10175000002182682046904770BD00001476FF1F6C
:1017600070B504462046FFF7CBFD0546002D01D09D
:10177000012000E0002006460C2060430449401888
:101780004078A84203D031462046FFF7C3FF70BD22
:101790001476FF1FF7B58CB0054600200690059023
:1017A00083E10D98007825280AD00698002803D1F7
:1017B0000D980690002005900598401C059071E159
:1017C0000598002806D0059881B20698A847002001
:1017D00006900590002400BF0D98401C0D900D98B8
:1017E00000782B280DD004DC20280DD0232814D11C
:1017F0000DE02D2802D030280FD10BE0102004433B
:10180000EAE704200443E7E708200443E4E7202054
:101810000443E1E701200443DEE70026F6430D9888
:101820000078302808DB0D980078392804DC0DA8F2
:1018300000F02CFA06460EE00D9800782A280AD10E
:101840000D98401C0D900E9840C80E90002E02DAA4
:101850007642102004430020C04308900D98007881
:101860002E2821D10D98401C0D900D98007830281D
:1018700008DB0D980078392804DC0DA800F006FA82
:1018800008900CE00D9800782A2808D10D98401C8B
:101890000D900E98006808900E98001D0E90089804
:1018A000002801DA002008900020C04307900D981E
:1018B0000078682807D00D9800786C2803D00D9820
:1018C00000784C2805D10D98007807900D98401CA1
:1018D0000D900A200A900D9800786E287ED00CDCBE
:1018E000632817D004DC412879D0582873D17AE0D6
:1018F00064287FD06928F9D17DE073282AD004DCE0
:101900006F286DD070287AD150E0752876D078286D
:1019100075D16BE010202040002808D104E0202081
:101920000490012104A8A847701E061EF7DC0E983B
:101930000178001D0E90C8B20490012104A8A847A8
:1019400004E020200490012104A8A847701E061E70
:10195000F7DCA7E00E98006809900E98001D0E9025
:101960000998002801D159A0099008990998FEF713
:10197000F1FD074610202040002809D104E0202076
:101980000490012104A8A8473046761EB842F6DC30
:10199000B9B20998A84704E020200490012104A8C6
:1019A000A8473046761EB842F6DC7BE0701C002863
:1019B00002D10826012004430898019400900E9853
:1019C00002C83346102203910E90284600F082F898
:1019D00068E003E003E012E00CE001E062E061E0B7
:1019E00008200A9023E04020044300BF10200A9002
:1019F0001DE003E000BF0220044300BF17E00D9884
:101A00000078252804D025200490012104A8A847A7
:101A10000D980078002806D00D98007804900121D8
:101A200004A8A84702E00D98401E0D903AE000BFC0
:101A300007986C2806D10E9800680B900E98001D30
:101A40000E9025E00798682811D102202040002838
:101A500006D00E9800680B900E98001D0E9017E0AF
:101A60000E9800680B900E98001D0E9010E002205A
:101A70002040002806D00E9800680B900E98001D9C
:101A80000E9005E00E9800680B900E98001D0E90C9
:101A9000089833460194009028460A9A0B9900F062
:101AA00019F800BF0D98401C0D900D980078002883
:101AB00000D076E60598002806D0059881B20698F1
:101AC000A8470020069005900FB0F0BD3C4E554C45
:101AD0004C3E0000FFB597B0054617461E46219CB8
:101AE00068480068039040202040002802D06648E3
:101AF0000068039010202040002801D06408640092
:101B0000022F01DB242F01DD1BB0F0BDE007C00F69
:101B1000002801D0302100E02021169100211591EC
:101B200002202040002818D01898002806DA2D201E
:101B30001590189840421890761E0EE00420204020
:101B4000002803D02B201590761E06E008202040A8
:101B5000002802D020201590761E2020204000284A
:101B600006D0102F01D1B61E02E0082F00D1761E3C
:101B7000002002901898002806D130220298411CBB
:101B8000029104A90A5413E00FE039461898FEF7B1
:101B900097FA0398425C0298411C029104A90A54E6
:101BA00039461898FEF78CFA189018980028ECD14E
:101BB00020990298884201DD029820902098361AD8
:101BC00011202040002809D104E0202001900121AB
:101BD00001A8A8473046761E0028F6DC10A8007D34
:101BE000002802D0012115A8A84720202040002865
:101BF00016D0082F05D130200190012101A8A84757
:101C00000EE0102F0CD130210191012101A8A8472D
:101C10001C480068203041780191012101A8A847A3
:101C200010202040002807D102E0012116A8A84773
:101C30003046761E0028F8DC04E0302001900121B7
:101C400001A8A8472098411E209102998842F4DCFF
:101C500006E004A90298085C0190012101A8A847A8
:101C60000298411E02910028F3DC04E0202001903C
:101C7000012101A8A8473046761E0028F6DC00BFE7
:101C800042E700005455FF1F5855FF1F0146002032
:101C900008E00B685A1C0A601B780A2242439A1813
:101CA000104630380A681278302A03DB0A68127846
:101CB000392AEEDD70470001020307090A0B0E0FF7
:101CC000101112141718191A1B1F202122000201CB
:101CD000000504000807000B0A001716001D1C0170
:101CE0000201010504010E0D011110011413011769
:101CF00016011A19020201020B0A020E0D0211103E
:101D0000021413021716030504030807030B0A0342
:101D10000E0D000D000E001000110013001401073D
:101D20000108010A010B011C011D02040205020742
:101D300002080219021A021C021D03010302031702
:101D40000506FFFF00C201000100000000000000C6
:101D500030313233343536373839414243444546E1
:101D60004748494A4B4C4D4E4F505152535455568B
:101D70005758595A00000000303132333435363765
:101D800038396162636465666768696A6B6C6D6E39
:101D90006F707172737475767778797A00000000CD
:020000041FFFDC
:1000000000000000ED45FF1F1054FF1F1854FF1F94
:100010005055FF1F0000000000000000000000001D
:1000200000000000000000000000000000000000D0
:1000300000000000000000000000000000000000C0
:1000400000000000000000000000000000000000B0
:1000500000000000000000000000000000000000A0
:100060000000000000000000000000000000000090
:100070000000000000000000000000000000000080
:100080000000000000000000000000000000000070
:100090000000000000000000000000000000000060
:1000A0000000000000000000000000000000000050
:1000B0000000000000000000000000000000000040
:1000C0000000000000000000000000000000000030
:1000D0000000000000000000000000000000000020
:1000E0000000000000000000000000000000000010
:1000F0000000000000000000000000000000000000
:1001000000000000000000000000000000000000EF
:1001100000000000000000000000000000000000DF
:1001200000000000000000000000000000000000CF
:1001300000000000000000000000000000000000BF
:1001400000000000000000000000000000000000AF
:10015000000000000000000000000000000000009F
:10016000000000000000000000000000000000008F
:10017000000000000000000000000000000000007F
:10018000000000000000000000000000000000006F
:10019000713CFF1F393DFF1F1D4AFF1F000000007B
:1001A000000000000000000000000000000000004F
:1001B000000000000000000000000000000000003F
:1001C000000000000000000000000000000000002F
:1001D000000000000000000000000000000000001F
:1001E000000000000000000000000000000000000F
:1001F00000000000000000000000000000000000FF
:1002000000000000000000000000000000000000EE
:1002100000000000000000000000000000000000DE
:1002200000000000000000000000000000000000CE
:1002300000000000000000000000000000000000BE
:1002400000000000000000000000000000000000AE
:10025000000000000000000000000000000000009E
:10026000000000000000000000000000000000008E
:10027000000000000000000000000000000000007E
:10028000000000000000000000000000000000006E
:10029000000000000000000000000000000000005E
:1002A000000000000000000000000000000000004E
:1002B000000000000000000000000000000000003E
:1002C000000000000000000000000000000000002E
:1002D000000000000000000000000000000000001E
:1002E000000000000000000000000000000000000E
:1002F00000000000000000000000000000000000FE
:1003000000000000000000000000000000000000ED
:1003100000000000000000000000000000000000DD
:1003200000000000000000000000000000000000CD
:1003300000000000000000000000000000000000BD
:1003400000000000000000000000000000000000AD
:10035000000000000000000000000000000000009D
:10036000000000000000000000000000000000008D
:100370000D19FF1F00000000000000000000000039
:10038000000000000000000000000000000000006D
:10039000000000000000000000000000000000005D
:1003A000000000000000000000000000B91FFF1F57
:1003B000000000000000000000000000000000003D
:1003C000000000000000000000000000000000002D
:1003D000000000000000000000000000000000001D
:1003E000000000000000000000000000000000000D
:1003F00000000000000000000000000000000000FD
:0C04000001FF01FF01FF01FF910000005F
:020000041FFFDC
:10183800288CFF1F3D19FF1F81840000F12800003C
:101848000000000000000000000000000000000090
:101858000000000000000000000000004919FF1F00
:101868000000000000000000CD8400004D19FF1F9B
:101878004F19FF1F4F19FF1F4F19FF1F4F19FF1F48
:101888004F19FF1F4F19FF1F4F19FF1F4F19FF1F38
:101898004F19FF1F4F19FF1F4F19FF1F4F19FF1F28
:1018A8004F19FF1F4F19FF1F4F19FF1F4F19FF1F18
:1018B8004F19FF1F4F19FF1F4F19FF1F4F19FF1F08
:1018C8000000000000000000000000000000000010
:1018D8000000000000000000000000000000000000
:1018E8004F19FF1F000000004F19FF1F4F19FF1F5E
:1018F8000348854600F02CF800480047F144FF1FD4
:10190800288CFF1F09484838694601600430F0C038
:1019180044464D4656465F46F0C030BCF0BCF0C069
:10192800F0BCF0C044380249084700000004FF1F1B
:10193800AD27FF1F0448804704480047FEE7FEE73D
:10194800FEE7FEE7FEE7FEE76925FF1FF918FF1F20
:10195800064C0125064E05E0E36807CC2B430C3CFA
:1019680098471034B442F7D3FFF7C6FF1C55FF1F42
:101978004C55FF1F30B58C180278401C13071B0FFD
:1019880001D10378401C120906D10278401C03E0FB
:1019980005780D70401C491C5B1EF9D101E00B70E5
:1019A800491C521EFBD1A142E6D3002030BD0000E5
:1019B80003B40148019001BDD94F010003B40148A7
:1019C800019001BD75A9000003B40148019001BD53
:1019D800F9A6000003B40148019001BDA1AF0000C1
:1019E80003B40148019001BD9DA9000003B401485A
:1019F800019001BDDD3F000003B40148019001BD25
:101A08008944000003B40148019001BD214400004D
:101A180003B40148019001BD750F000003B40148EB
:101A2800019001BDC95C010003B40148019001BDEA
:101A38001907010003B40148019001BDBD0B010065
:101A480003B40148019001BDDD0C010003B4014855
:101A5800019001BDDD0A010003B40148019001BDF8
:101A68000134010003B40148019001BD09340100AB
:101A780003B40148019001BD0534010003B40148D5
:101A8800019001BDF535010003B40148019001BD85
:101A9800F935010003B40148019001BDE9170100BF
:101AA80003B40148019001BD6137010003B4014846
:101AB800019001BD01D7000003B40148019001BDA8
:101AC8006DF6000003B40148019001BD79120100D0
:101AD80003B40148019001BD4DF9000003B4014869
:101AE800019001BDC1F7000003B40148019001BD98
:101AF800116E000003B40148019001BD8D82000001
:101B080003B40148019001BDE1AC000003B40148F1
:101B1800019001BDE53A010003B40148019001BDFF
:101B2800496D010003B40148019001BD3D710100F8
:101B380003B40148019001BD0189000003B40148C4
:101B4800019001BDED4A010003B40148019001BDB7
:101B5800A54F010003B40148019001BD8552010061
:101B680003B40148019001BDB54C010003B401481C
:101B7800019001BD4550000003B40148019001BD2A
:101B8800156B010003B40148019001BD016C01000F
:101B980003B40148019001BDBD5C010003B40148D4
:101BA800019001BDCD4C010003B40148019001BD75
:101BB8008B52010003B40148019001BDB505021123
:101BC80003B40148019001BD110D021103B401488D
:101BD800019001BDD50C021103B40148019001BD6B
:101BE800154D010003B40148019001BD3D0C0211DF
:101BF80003B40148019001BDD10E021103B401489C
:101C0800019001BD110E021103B40148019001BDFC
:101C1800990C021103B40148019001BD1D0D021178
:101C280003B40148019001BD050B021103B401483A
:101C3800019001BDA96F010003B40148019001BDE5
:101C48009573010003B40148019001BDEDA50000A2
:101C580003B40148019001BDD905021103B401483C
:101C6800019001BD3D11021103B40148019001BD6D
:101C7800810E000003B40148019001BD91120211C8
:101C880003B40148019001BDB30E000003B401483C
:101C9800019001BD21A9000003B40148019001BDD4
:101CA800ADAE000003B40148019001BDC56D01004F
:101CB80003B40148019001BD51B8000003B40148C4
:101CC800019001BD85C1000003B40148019001BD28
:101CD800E9D4000003B40148019001BDE90B0100FB
:101CE80003B40148019001BD090E000003B4014886
:101CF800019001BD6D0B010003B40148019001BDC5
:101D0800C115010003B40148019001BDCD0C0100CB
:101D180003B40148019001BD71B0000003B401484B
:101D2800019001BDD9B0000003B40148019001BD84
:101D38005976010003B40148019001BD53B9000070
:101D480003B40148019001BDE94C010003B4014806
:101D5800019001BDED6B010003B40148019001BD84
:101D6800C9A9000003B40148019001BDCD000211CA
:101D780003B40148019001BD3D4B010003B4014883
:101D8800019001BDB14E000003B40148019001BDAE
:101D98002D11010003B40148019001BD891401000F
:101DA80003B40148019001BD6189000003B40148F2
:101DB800019001BD810E000003B40148019001BDEE
:101DC800AD10021103B40148019001BDD1A5000076
:101DD80003B40148019001BDD510021103B40148B4
:101DE800019001BDD544010003B40148019001BD33
:101DF8002D6C010003B40148019001BD79970000E2
:101E080003B40148019001BD6911010003B4014800
:101E1800019001BD8512010003B40148019001BD84
:101E28008D11010003B40148019001BDE5120100C4
:101E380003B40148019001BDF90D0100F3B587B065
:101E480004466F4F012C00D16E4F60016E49401857
:101E5800007E00280BD08420C059C6B2002503E0BC
:101E6800387803A948556D1CB542F9DB04E0012612
:101E7800387D387869460873600163494018C0693D
:101E880000280CD069460898087003A801900E72C3
:101E980060015D4A8018C1696846884700BF09B07B
:101EA800F0BDF0B585B00546680157494018041DD6
:101EB800534803906801085C002801D105B0F0BDC3
:101EC800680151494018007E002800D1F6E76801F2
:101ED8004D494018807E002800D1EFE7207802287D
:101EE80000D0EBE7A768A0886188401A86B2102E58
:101EF80001DD102000E030460646002E1FD10120EB
:101F0800207000206080A08068013F494018C069A7
:101F180000280AD03D4A07CA6B4607C368013A4AF7
:101F28008018C1696846884700BF002D03D1082082
:101F380001F0BCFE02E0192001F0B8FEBEE7012D59
:101F480001D13048039005E06188481C6080795CC5
:101F5800039801703046711E8EB20028F4D100BF7C
:101F6800ACE710B5274880680407240F062C17D063
:101F780004DC022C10D0042C17D108E0072C10D058
:101F88000C2C12D102210120FFF758FF0EE001218D
:101F98000846FFF753FF09E00120FFF782FF05E03D
:101FA80004E018484030C06B00E000BF00BF10BD1F
:101FB80010B5134880680407240F062C17D004DCDA
:101FC800022C10D0042C17D108E0072C10D00C2CB0
:101FD80012D102210020FFF731FF0EE0012100207D
:101FE800FFF72CFF09E00020FFF75BFF05E004E0A6
:101FF80003484030C06B00E000BF00BF10BD0000C8
:1020080000400040009000402877FF1F1C54FF1F2D
:1020180010B500BF76200E49C86000BFFFF7C8FCA6
:1020280010BD0446FFF7CAFC0A48C069402188432E
:102038000849C8612046FFF7C7FC01F06BFD042082
:102048000449C03108600120FFF7C4FC00BFFEE767
:102058000020004000F0004010B5FFF7AFFC0B482F
:102068000468401709498031086009480749086031
:10207800FFF7B6FC204610BD10B50446FFF79EFCDE
:1020880002480460FFF7ACFC10BD000000E100E06E
:102098001000100070B50124A407A36810252B4375
:1020A800A360FFF7A3FCA068A843A06070BD000070
:1020B800FFB5064601208007816881B01D461022C1
:1020C80011438160554F002038603046D730FFF704
:1020D80093FC9D20800034468059FF36CA3401366F
:1020E8000028306822462CD00121FFF78BFC4B4F8B
:1020F8002078F863641C2046FFF78AFC00BA000ABF
:10210800E17800020843B863241D2046FFF780FCED
:1021180000BA000AE178000208437863241D2046CB
:10212800FFF776FC00BA000AE1780002084338633A
:102138000398029900020843F860039F00243F1D9A
:102148000EE00021D1E72819401CFFF761FC0102CD
:10215800285D0143324820180160241DA4B23F1FA6
:10216800042FF0DA032F04D0022F08D0012F0CD04F
:1021780011E02819FFF74CFC0102090A06E02919A9
:1021880048780A780102114300E0295D24482018A4
:102198000160241DA4B20021214F02E0E019016072
:1021A800241DFF2CFADD1D481E4A42600F220261E1
:1021B800012202604269002AFCD04269930701D4D7
:1021C800520708D401208007826810218A43826060
:1021D800002005B0F0BD01600020039A11E0C1198C
:1021E80009682954401C80B20B0A2B54401C0B0C64
:1021F80080B22B54401C80B2090E2954401C80B276
:10220800121F002AEBDC3068401C30600120800778
:10221800826810218A4382600120DAE700000440C6
:1022280000010440080F0000FFB5054601208007A3
:10223800816881B01E46102211438160504F0020F2
:1022480038602846D730FFF7D7FB9D2080002C4602
:102258004059CA3480350028E86F22462BD0002127
:10226800FFF7D0FB464F2078F863641C2046FFF741
:10227800CFFB00BA000AE17800020843B863241DC6
:102288002046FFF7C5FB00BA000AE17800020843C0
:102298007863241D2046FFF7BBFB00BA000AE178EB
:1022A8000002084338630398029900020843F86063
:1022B8000024039F0EE00121D2E73019401CFFF7EC
:1022C800A7FB0102305D01432E4820180160241D40
:1022D800A4B23F1F042FF0DA032F04D0022F08D036
:1022E800012F0FD014E03019FFF792FB0102090A01
:1022F80009E0311948780978000208432149611832
:10230800086003E0315D1F4820180160241DA4B255
:1023180000211C4B02E0E0180160241DFF2CFADDAF
:102328000F221748120242600F2202610122026046
:102338004269002AFCD00160039A0020121D11E0B6
:10234800C11809683154401C80B20C0A3454401C2E
:102358000C0C80B23454401C80B2090E3154401C1D
:1023680080B2121F002AEBDCE86F401CE8670120EE
:102378008007826810218A43826005B0F0BD0000A2
:102388000000044000010440F8B5FFF747FB564938
:1023980008600420FFF748FBFFF74CFB0646C00720
:1023A80015D052490020086051480078012811D002
:1023B800032813D0042815D0022817D0052819D0CF
:1023C800FFF73EFB4B4F044601281AD01EE0FFF7EB
:1023D8003DFBF8BD3046FFF73FFB0EE03046FFF708
:1023E80041FB0AE03046FFF743FB06E03046FFF7C3
:1023F80045FB02E03046FFF747FB40B20128E8D032
:102408004FE0387805280BD0062809D03A483B4DCC
:102418000078022808D0052806D0022C0ED005E046
:10242800304602F025F83CE0022C02D0012C11D0F5
:1024380014E0A87B002805D0022803D038780528A6
:1024480004D00BE0304602F02BF815E0304602F0DD
:102458001BF811E0012807D0062809D03046FFF7FD
:1024680019FB022C08D01CE0304602F031F818E0C5
:10247800304602F021F814E03878012811D17005AF
:102488000FD4687BC10701D0252004E0800701D55F
:10249800262000E02720297D814202D93220FFF73B
:1024A800FFFA154C2078042804D003280ED00728FA
:1024B80011D014E0FFF7FAFA002810D0FFF7FCFA61
:1024C8005820FFF7FFFA0220207008E00C48807CB3
:1024D800FFF7FEFA03E00B48807BFFF7FFFA0320C3
:1024E800FFF7A2FAF8BD00009C09FF1F9809FF1F1B
:1024F8009009FF1F1C09FF1F2309FF1FA60BFF1FC1
:10250800BC0BFF1FD40BFF1F10B5FB2908D8084BC5
:102518009A4205D81B2903D3FF2349339A4201D293
:10252800302010BD034B19825A82FFF7DDFA10BD27
:10253800480800008410FF1F10B5FFF7DBFA0249B6
:102548000020488010BD0000A855FF1FC106C90E15
:1025580001208840014908607047000000E100E060
:10256800014802490860704740787D01A455FF1F63
:1025780010B5002819DB1A4A03231B02D218830856
:102588009B00D2588307DC0EFF23A3409A438B0796
:102598001B0E8407E40EA3401A43114B03242402A4
:1025A8001B198408A4001A5118E00E4A03071B0FD0
:1025B800083B9B089B00D2588307DC0EFF23A340EF
:1025C8009A438B071B0E8407E40EA3401A43054B5E
:1025D8000407240F083CA408A4001A5110BD0000E9
:1025E80000E100E01CED00E010B5002819DB1A4AF4
:1025F80003231B02D21883089B00D2588307DC0EE2
:10260800FF23A3409A438B071B0E8407E40EA340C5
:102618001A43114B032424021B198408A4001A51DD
:1026280018E00E4A03071B0F083B9B089B00D25873
:102638008307DC0EFF23A3409A438B071B0E8407F6
:10264800E40EA3401A43054B0407240F083CA408D2
:10265800A4001A5110BD000000E100E01CED00E0EC
:1026680010B5002819DB1A4A03231B02D218830865
:102678009B00D2588307DC0EFF23A3409A438B07A5
:102688001B0E8407E40EA3401A43114B03242402B3
:102698001B198408A4001A5118E00E4A03071B0FDF
:1026A800083B9B089B00D2588307DC0EFF23A340FE
:1026B8009A438B071B0E8407E40EA3401A43054B6D
:1026C8000407240F083CA408A4001A5110BD0000F8
:1026D80000E100E01CED00E010B5002819DB1A4A03
:1026E80003231B02D21883089B00D2588307DC0EF1
:1026F800FF23A3409A438B071B0E8407E40EA340D5
:102708001A43114B032424021B198408A4001A51EC
:1027180018E00E4A03071B0F083B9B089B00D25882
:102728008307DC0EFF23A3409A438B071B0E840705
:10273800E40EA3401A43054B0407240F083CA408E1
:10274800A4001A5110BD000000E100E01CED00E0FB
:10275800EFF30380704702E008C8121F08C1002A7F
:10276800FAD170477047002001E001C1121F002A0A
:10277800FBD170470248C069002800D00047704765
:102788004003FF1F1CB569460120FFF7B9F9012076
:1027980000900348019000F0F9FA01201CBD0000E8
:1027A800BB0B0000044625462AA0FFF7AFF92FA06F
:1027B800696AFFF7ABF931A0A96AFFF7A7F933A057
:1027C800E96AFFF7A3F935A0296BFFF79FF937A04E
:1027D8006968FFF79BF939A0A968FFF797F93BA04B
:1027E800E968FFF793F93DA02969FFF78FF93FA042
:1027F8006969FFF78BF941A0A969FFF787F943A039
:10280800E969FFF783F945A0296AFFF77FF947A02F
:10281800696BFFF77BF949A02968FFF777F94BA0A7
:10282800A96BFFF773F94DA0E96BFFF76FF94FA09C
:10283800296CFFF76BF95148416851A0FFF766F919
:1028480053480068002802D051480068804700BFFC
:10285800FEE700005B48617264206661756C742055
:1028680068616E646C65725D0A0000005230202059
:10287800203D203078253038780A00005231202059
:10288800203D203078253038780A00005232202048
:10289800203D203078253038780A00005233202037
:1028A800203D203078253038780A00005234202026
:1028B800203D203078253038780A00005235202015
:1028C800203D203078253038780A00005236202004
:1028D800203D203078253038780A000052372020F3
:1028E800203D203078253038780A000052382020E2
:1028F800203D203078253038780A000052392020D1
:10290800203D203078253038780A000052313020B8
:10291800203D203078253038780A000052313120A7
:10292800203D203078253038780A00005231322096
:10293800203D203078253038780A00005350202078
:10294800203D203078253038780A00004C5220206D
:10295800203D203078253038780A00005043202068
:10296800203D203078253038780A00005053522016
:10297800203D203078253038780A000000ED00E04E
:1029880049435352203D203078253038780A0000DA
:10299800A055FF1F10B500F0EDF9FFF7F3FE002872
:1029A80002D00248804710BDFEE70000E1A2000007
:1029B8000EB5002000900346022201460190052032
:1029C800FFF7AAF800BF00BF0E48006902210840BF
:1029D8000228F9D02020019000BF0198411E0191E2
:1029E8000028FAD100BF074880380068C00FC00728
:1029F8000028F8D000BF012102A8FFF793F8684625
:102A0800007A0EBD80C80040F8B505460E4600960F
:102A18000DE0FFF7CDFF044620462840002800D1EE
:102A2800F8BD0520FFF784F80098401E0090009834
:102A38000028EED11120F3E710B5FFF77FF8012049
:102A4800FFF782F8FFF786F8002010BD1CB50121BA
:102A580009030748FFF784F8012004210B460246C2
:102A68000091019003490448FFF780F81CBD00005D
:102A7800FC65FF1FDC55FF1F7863FF1FF8B54D4845
:102A88004068C043000603D53C20FFF751F8F8BD65
:102A9800FFF772F8474D0746803D286801218904F1
:102AA80008432860E869444908402830E861032061
:102AB800FFF73EF8686AC603F60B0320FFF738F8FD
:102AC800686AC403E40B0320FFF732F8686AC50399
:102AD800ED0BA64201D3204600E03046A84200D3C1
:102AE8002846A64201D3314600E02146A94200D239
:102AF8002946324AB218C32A26D2304AD2439442CF
:102B080022D92F4B9C421FD295421DD99D421BD2E0
:102B1800081A132818D2274841680C2291434160AB
:102B28004168FF221202914341601420FFF700F828
:102B380020488038416AC269C903C90B08239A43EF
:102B4800C2612048C160F8BD26462C460320FEF726
:102B5800EFFF18488038406AC503ED0BFFF70CF803
:102B6800B84201D3C01B01E0C01B401E1649884271
:102B7800AFD310484168090A00914268FF21090251
:102B88008A430099491C0906090C0A4342604168B6
:102B98000C229143091D41600020FEF7F3FF0B480A
:102BA800009988400A49884200DB0846FFF739FA4D
:102BB8008FE70000C0F0004000FEFEFF91FCFFFF21
:102BC80032040000A855FF1FE40C0000E880000054
:102BD80060361E00F8B53D4840683C4C0006803C15
:102BE8008021002806DB6068084360600320FEF748
:102BF8009FFFF8BD364D00206861206801229204CD
:102C080010432060334F60688021084360600320D0
:102C1800FEF78EFF6869401C68616068012109043D
:102C2800084360600026E0692B4938404018E0619D
:102C38000320FEF77DFF606AE169C003C00B08222C
:102C48009143E161E96806225143814201D3091A9F
:102C580000E0411A3C2909D2E269012109048A43AA
:102C6800E26162688A4362602861F8BD761CF6B248
:102C7800052ED8D3E169012000048143E161616830
:102C88008143616068692E46052807D3BFF34F8FDB
:102C980013491248C860BFF34F8FFEE76068802170
:102CA800884360600320FEF743FFE069384028301E
:102CB800E0610320FEF73CFF606AC003C00BF060D0
:102CC800E16908208143E1619DE70000C0F0004010
:102CD800A855FF1F00FEFEFF280001000400FA05AA
:102CE80000ED00E0F8B504460120FEF721FFFEF7ED
:102CF8004FFF1849184A0860966A184B1E60184B0F
:102D0800DF6A184D2D68AF4202D2DB6AEB1A00E089
:102D18000023154D2B603319D362536A2924E40329
:102D280023435362114A1278002A0FD0104A1378AD
:102D3800022B07D01378012B06D01278032A06D06D
:102D4800C01E02E00F3800E008380860F8BD401FD8
:102D5800FBE70000E408FF1F00F00040340AFF1FF3
:102D680000100040180AFF1F1C0AFF1F1C09FF1F44
:102D78004A0AFF1F03490020486103490860486068
:102D88007047000040F0004040F1004070B58AB044
:102D980000241E4D049405942878012806D004A91F
:102DA8000120FEF7ADFE002802D000200AB070BD59
:102DB8000498009005980190154881680291C068B0
:102DC8001349039006AA10316846FEF70FFE104E0D
:102DD80010222036314606A8FEF7E0FE002811D062
:102DE800012028700B4A31466846FEF7FFFD04941F
:102DF8000020694605948200401C8C500428FADBA8
:102E08000120D3E7FF202870CFE70000CC55FF1F33
:102E1800002900111488FF1F10B5044604480470E7
:102E28007D22D20004210078FEF7BEFE10BD00000E
:102E38004E55FF1F70B505460C460220204000285D
:102E480003D020460221484070BD042020400028BD
:102E58000FD011A0FEF7AEFE00F026F8FF22F532E3
:102E6800042110480078FEF79FFE204604214840C0
:102E7800EAE710202040002803D0204604214840DB
:102E8800E2E708202040002803D0204608214840D7
:102E9800DAE70020D8E7000066735F6578616D7037
:102EA8006C650A004E55FF1FF0B585B001200490EF
:102EB80000200190F1480078052804DBF0A0FEF717
:102EC80079FE05B0F0BDFEF77BFE002811D1022186
:102ED800F048FEF77BFE0546002D0AD02946EEA0F5
:102EE800FEF768FE23210901EEA0FEF763FE00BF8E
:102EF800FEE7EF4A0021EF48FEF76EFE00240AE0E5
:102F08002046E117090E091809120902611AE94A4F
:102F18001155601C84B2E6488442F1DBE64800782B
:102F2800012806D002284CD0032877D0042876D16F
:102F380056E1E2A0FEF73EFEFEF754FE0646314695
:102F4800EDA0FEF737FE012004900127B74215D205
:102F58003A46D8490498FEF74BFE0546002D0AD09C
:102F68002946CDA0FEF726FE93218900CDA0FEF7C5
:102F780021FE00BFFEE7E4A0FEF71CFE7F200490C0
:102F88007F27B74215D23A46CA490498FEF730FE61
:102F98000546002D0AD02946BFA0FEF70BFE972153
:102FA8008900C0A0FEF706FE00BFFEE7D6A0FEF728
:102FB80001FEFEF717FE06463146CFA0FEF7FAFDE2
:102FC80043E1D4A0FEF7F6FD01220021B948FEF73F
:102FD80003FE0120049003AB0122B6490498FEF7D2
:102FE8000DFE0546002D09D02946ABA0FEF7E2FDEF
:102FF800D749ACA0FEF7DEFD00BFFEE7D5A00499D7
:10300800FEF7D8FD68468189D4A0FEF7D3FDD6A087
:10301800FEF7D0FD00200290002411E06EE013E1DD
:103028002046A449095DE217120E12181212120264
:10303800A21A914202D00120029005E0601C84B2DD
:10304800684680898442EBDB00BF0298002809D0DB
:10305800C8A0FEF7AFFDBE49143192A0FEF7AAFD45
:1030680000BFFEE7C5A0FEF7A5FD7F22002191481D
:10307800FEF7B2FD7F20049003AB7F228D490498B0
:10308800FEF7BCFD002D03D0294683A0FEF792FD74
:10309800BBA00499FEF78EFD68468189AFA0FEF7B4
:1030A80089FDB1A0FEF786FD0020029000240FE004
:1030B80020468049095DE217120E121812121202F8
:1030C800A21A914202D00120029005E0601C84B24D
:1030D800684680898442EBDB00BF0298002809D04B
:1030E800A4A0FEF767FD9A4931316EA0FEF762FD94
:1030F80000BFFEE7A1A0FEF75DFDA6E0A2A0FEF7D7
:1031080059FDFEF76FFD014600907BA0FEF752FDCA
:1031180001A8FEF779FD00900146AAA0019AFEF7E2
:1031280049FD012004900498FEF774FD0546002D22
:1031380004D0294658A0FEF73DFD16E08FA0FEF703
:1031480039FD03AB5A4A5B490498FEF757FD05461B
:10315800252D0AD0294650A0FEF72CFD7C494B317D
:1031680050A0FEF727FD00BFFEE77F2004900498DB
:10317800FEF750FD0546002D0AD0294646A0FEF769
:1031880019FD7349553147A0FEF714FD00BFFEE74E
:103198007AA0FEF70FFD03AB7F2246490498FEF79D
:1031A8002DFD0546252D0AD029463BA0FEF702FD38
:1031B80067495F313BA0FEF7FDFC00BFFEE7FEF765
:1031C80011FD014600904CA0FEF7F4FC01A8FEF7A3
:1031D8001BFD009001467BA0019AFEF7EBFC34E052
:1031E8008048FEF7E7FCFEF7FDFC0146009042A090
:1031F800FEF7E0FC01A8FEF707FD0090014671A06C
:10320800019AFEF7D7FCFEF70BFD0546002D0AD004
:10321800294621A0FEF7CEFCB921890021A0FEF79E
:10322800C9FC00BFFEE7FEF7DDFC0146009032A0B6
:10323800FEF7C0FC01A8FEF7E7FC0090014661A07C
:10324800019AFEF7B7FC00E000BF00BF1A480078FB
:10325800401C194908700846007804280BDD012035
:10326800087006480078401C044908700846017830
:103278005D48FEF79FFC00BF23E600008255FF1F54
:103288006673206578616D706C6520656E64210ACF
:103298000000000000C003116572726F723A256465
:1032A8000A0000006C696E653A25640A0000000097
:1032B800FF0F0000F477FF1F8155FF1F0A66735F39
:1032C80077726974652E2E2E2E2E2E2E2E2E2E2ED1
:1032D8002E2E2E2E2E2E2E2E2E2E2E2E2E2E2E2E06
:1032E8002E2E2E2E2E2E2E2E2E2E2E2E2E2E2E2EF6
:1032F8002E2E2E2E2E0A0000667265655F73697A7F
:10330800653A25640A0000007772697465206F6B5E
:103318000A0000000A66735F726561642E2E2E2E05
:103328002E2E2E2E2E2E2E2E2E2E2E2E2E2E2E2EB5
:103338002E2E2E2E2E2E2E2E2E2E2E2E2E2E2E2EA5
:103348002E2E2E2E2E2E2E2E2E2E2E2E0A00000043
:103358007202000069643A25640A00006964206CFE
:10336800656E3A25640A0000696420646174613AF4
:103378000A0000006572726F720A00006F6B0A0023
:103388000A69643A25640A000A66735F64656C65B5
:1033980074652E2E2E2E2E2E2E2E2E2E2E2E2E2EC8
:1033A8002E2E2E2E2E2E2E2E2E2E2E2E2E2E2E2E35
:1033B8002E2E2E2E2E2E2E2E2E2E2E2E2E2E2E2E25
:1033C8002E2E0A00676172626167655F73697A65AC
:1033D8003A256420676172626167655F6E756D3A50
:1033E80025640A00C054FF1F7C54FF1F10B509480C
:1033F800006AC007C00F00280BD00648103000F044
:1034080089FD05480068002803D00520024909689D
:10341800884710BD401000407455FF1F10B509487B
:10342800406BC007C00F00280BD00648243000F0BE
:1034380071FD05480068002803D006200249096884
:10344800884710BD401000407455FF1F08B5642020
:103458000090412000F06EF8402000F06BF8022048
:103468004107486200BF0098411E00910028FAD128
:10347800032001218907486200F006F80020012195
:103488008907886208BD000038B5FEF797FA012061
:103498008007846A08200090002C02D1012081074F
:1034A800886202200E49086000BF0098411E009102
:1034B8000028FAD103200A4908600820009000BFBC
:1034C8000098411E00910028FAD105490860002C97
:1034D80002D1012189078862FEF782FA38BD00000F
:1034E80000C00040202809DA0121890789680122E3
:1034F800824091430122920791601AE040280BDA3A
:10350800012189074A690146203901238B409A43E2
:10351800012189074A610CE060280ADA012189073C
:103528000A6A0146403901238B409A4301218907E1
:103538000A627047202809DA01218907896801226F
:10354800824011430122920791601AE040280BDA69
:10355800012189074A690146203901238B401A4312
:10356800012189074A610CE060280ADA01218907EC
:10357800096A0246403A01239340194301229207FF
:1035880011627047202823DA15280FDB16280DDC76
:1035980001218907096820229143520611601146CA
:1035A8000968202211435206116056E0012189075B
:1035B8000968012282409143012292071160114655
:1035C800096801228240114301229207116044E0F8
:1035D800402827DA35280FDB38280DDC0121890738
:1035E800C968102291439206D1601146C968102219
:1035F80011439206D16030E001218907C96802466B
:10360800203A01239340994301229207D160114641
:10361800C9680246203A01239340194301229207C0
:10362800D1601AE0602818DA01218907496A024640
:10363800413A01239B1A01229A40914301229207A1
:1036480051621146496A0246413A01239B1A0122F6
:103658009A4011430122920751627047F8B5054616
:10366800FEF7FAFC064601208007876A00BFFEF7CE
:10367800A5F90220334908604107486201208862A1
:10368800FEF7AEF900BF00BF00BF2F480069022156
:1036980008400228F9D02020009000BF0098411E61
:1036A80000910028FAD100BF274880380068C00F71
:1036B800C0070028F8D000BF24490120FFF7A4F96B
:1036C800002801D01120F8BD2846FEF7AFFAC4B291
:1036D80000BF00BF1C480069022108400228F9D039
:1036E8002020009000BF0098411E00910028FAD1C8
:1036F80000BF154880380068C00FC0070028F8D000
:1037080000BF12490320FFF77FF9002801D01120DC
:10371800D9E700BFFEF752F900200A4908600320E4
:1037280001218907486200208862FEF759F900BF25
:10373800002F01D1FFF7A8FE3046FEF79DFC20467A
:10374800C1E7000000C0004080C80040FFFFFF073D
:10375800FEB505460E461746FEF77EFC0290680346
:10376800400B11210906401801908801806A0090D9
:10377800294880680121C90488420CD91F20C00447
:103788002C460440002C06D0244844620068C91026
:10379800084322490860009800280CD100BFFEF7B2
:1037A8000DF902201E49086041074862012088621D
:1037B800FEF716F900BF002003E00199095C3154B7
:1037C800401CB842F9D3009800280ED100BFFEF77C
:1037D800F5F8002012490860032001218907486292
:1037E80000208862FEF7FCF800BF0B4880680121C2
:1037F800C90488420BD9002C09D000200749486227
:1038080008460068012109048843044908600298B1
:10381800FEF732FC0020FEBD9455FF1F00C8004093
:1038280000C00040FEB505460E461746FEF714FCDC
:10383800019000BFFEF7C2F8022032490860410734
:10384800486201208862FEF7CBF800BF00BF00BFC6
:103858002D480069022108400228F9D02020009054
:1038680000BF0098411E00910028FAD100BF2648E9
:1038780080380068C00FC0070028F8D000BF23496F
:103888000120FFF7C1F8002801D01120FEBD3A46FB
:1038980031462846FEF7D0F9C4B200BF00BF1A4827
:1038A8000069022108400228F9D02020009000BFBA
:1038B8000098411E00910028FAD100BF12488038B4
:1038C8000068C00FC0070028F8D000BF0F490120CA
:1038D800FFF79AF8002801D01120D7E700BFFEF7BC
:1038E8006DF8002007490860032001218907486214
:1038F80000208862FEF774F800BF0198FEF7BCFB51
:103908002046C3E700C0004080C80040FFFFFF0713
:1039180010B588B043480078012802D1002008B0CB
:1039280010BDFEF799FB044600BF00BF3E48006982
:10393800022108400228F9D02020029000BF0298F6
:10394800411E02910028FAD100BF3748803800682C
:10395800C00FC0070028F8D000BF34490120FFF786
:1039680053F8002801D01120D9E700200090034621
:103978000322014601909F20FEF7CEF8032103A8F9
:10398800FEF7D0F800BF00BF2748006902210840B1
:103998000228F9D02020029000BF0298411E02910F
:1039A8000028FAD100BF204880380068C00FC0073F
:1039B8000028F8D000BF1D490120FFF725F800288E
:1039C80001D01120ABE72046FEF756FB6946887BFD
:1039D8000004497B090208436946097B08431149E9
:1039E80048606946887B11280EDB6846807B16286C
:1039F8000ADC6846817B012088400A4988600846BD
:103A080080680B49886107E00120C0040549886087
:103A1800084680680649886101200249087000202C
:103A28007DE700009455FF1F80C80040FFFFFF0797
:103A38008008FF1F1CB500F01DF80B480078FEF742
:103A480001F90A48007800F0FBF900F081F808490C
:103A580003C9019100900199009800F045FAFEF71A
:103A6800F7F8FEF7FBF81CBD4A0AFF1F4C55FF1F6D
:103A78000854FF1F10B58CB030221B496846FEF76A
:103A8800F3F8002409E062006B46D218517862000E
:103A9800985CFEF7EFF8601CC4B2172CF3D31348F8
:103AA80040690F21C90388430521090440180F49BB
:103AB80048610846406901214906884340180B4976
:103AC80048610846406903214905884301214905A1
:103AD800401806494861032000F00CF800F026F869
:103AE80000F006F80CB010BDD853FF1F00F00040DE
:103AF8000F207047014648094001002804D00020E3
:103B0800034A106006207047014801600020FAE768
:103B18006055FF1F0448C0691F21490488430249B2
:103B2800C86100207047000000F000400648C069E6
:103B38001F21490488430549098849040843024963
:103B4800C86100207047000000F000406055FF1F6A
:103B580010B578210F48FEF793F80F480078012830
:103B680004D0022806D0042807D100E000BFFEF7E1
:103B78008DF802E0FEF790F800BF00BF0748007814
:103B8800C007C00F002802D0054806490863002076
:103B980010BD00006877FF1F5C55FF1F0020004024
:103BA8001920FF1FC000FF1F70B5054612261748D1
:103BB8000078012803D015480078042803D1FEF7BF
:103BC80065F8002070BDFDF7F9FE002417E00C2011
:103BD80060430F49085C002800D112E00C206043C4
:103BE8000B49085CA84209D101210C206043084A0E
:103BF80080184170FEF74AF8002602E0641C0A2C7F
:103C0800E5DB00BFFDF7ECFE3046DBE75C55FF1F48
:103C18006877FF1F70B503460C4615460021002241
:103C280012E00C2050430F4E305C984201D107201F
:103C380070BD0C2050430B4E305C002803D10C2083
:103C48005043811902E0521C0A2AEADB00BF00290E
:103C580001D10320ECE7002048700B704C608D60A8
:103C680000BFE5E76877FF1F10B5FFF75FFF002487
:103C780014E00C2060430C49085C002800D10FE0D8
:103C88000C206043084940184068002805D00C21E2
:103C98006143054A891848688047641C0A2CE8DB98
:103CA80000BF002010BD00006877FF1F70B50546F3
:103CB80000261D480078012803D01B4800780428F6
:103CC80003D1FDF7E3FF002070BDFDF777FE002468
:103CD8001BE00C2060431549085C002800D116E061
:103CE8000C2060431149085CA84205D100210C2032
:103CF80060430E4A801841700C2060430B494018FD
:103D08004078002800D0761C641C0A2CE1DB00BF38
:103D1800002E02D1FDF7C0FF01E0FDF7B7FFFDF768
:103D28005FFE0020D0E700005C55FF1F6877FF1F8B
:103D380010B5204800680121890788601E4800687E
:103D480001210843890748611C48006B1C49086029
:103D58001A48303040681B49086000210420FEF7EB
:103D68007FFC01211420FEF77BFC01211520FEF7C2
:103D780077FC01211720FEF773FC002415E00C20C6
:103D880060431149085C002801D1122010BD0C20A5
:103D980060430D4940188068002805D00C21614314
:103DA800094A891888688047641C0A2CE7DB0020C8
:103DB800ECE700006455FF1F6855FF1F80F00040C6
:103DC8006C55FF1F7055FF1F6877FF1F10B51F2028
:103DD8001549087001201549087000201449087019
:103DE8001448C06B4009400109301249C8630846AD
:103DF800C06B6021884320300E49C86300F01CF86E
:103E080000210420FEF7B4FB01211420FEF7B0FBCB
:103E180001211520FEF7ACFB01211720FEF7A8FBB6
:103E2800FEF714FE10BD0000480AFF1F490AFF1FD5
:103E3800680AFF1F80F0004010B5FEF7ABFD10BD0B
:103E480010B50446012C18D12448406940014009A6
:103E58000521C9064018214948610846C06920491A
:103E68000840204940181D49C8610846C0694021DA
:103E7800884340301949C86120E0002C1ED1002138
:103E88000A20FDF7F7FE00210B20FDF7F3FE13488B
:103E9800C06903210902884340181049C8610846CF
:103EA800C069402188430D49C861084640694001FE
:103EB80040090B210907401808494861074840692B
:103EC8000121090788434018044948610846806968
:103ED8000321490488430149886110BD00F000406E
:103EE8007F00FEFF80FD010013B508480021016036
:103EF8004160019A009906C000F062F8044A002166
:103F08001320FFF787FE00201CBD00008455FF1F0B
:103F1800C93FFF1F0146C868704700007FB5089C6D
:103F280060011849085C002802D0112004B070BD57
:103F38006846407A002801D00520F7E76101114A58
:103F480088182021FDF79CFE60010E49401869463B
:103F58002EC910302EC0204600F0FAFF0120610162
:103F6800084A5054002C05D1074A00210820FFF7C1
:103F780051FE04E0054A00211920FFF74BFE0020FE
:103F8800D4E700002877FF1FA950FF1FB350FF1F79
:103F980070B504460D461646600108494018807EF3
:103FA800002805D032462946204600F017FF70BD8C
:103FB80032462946204600F0C9FEF8E72877FF1F59
:103FC80008B50020104900904A68087800230121AC
:103FD800FDF768FE0D480E4988631220002809DBAA
:103FE800C206D20E012191400A4A1160BFF34F8FD9
:103FF800BFF36F8F00BF02211220FEF76DFBFFF7A2
:1040080025FAFFF785FC08BD8455FF1F050001FF51
:1040180000C8004080E100E07047000070B50D4620
:104028000446282910D1A420005BE188401A0B49D6
:1040380080B2884208D321466A3105220E46481FBD
:10404800FDF7ACFD002804D029462046FDF730FED8
:1040580070BD31462046FDF731FE70BDFF7F000080
:1040680010B5002901D0FDF72FFE10BD70B5264D03
:10407800264E2868002804D0FDF72CFE2978C84071
:1040880004E0FDF727FE3168FDF72AFE044628689C
:10409800002804D0FDF72AFE2978C84004E0FDF77F
:1040A80025FE3168FDF71CFE1949A1228978920086
:1040B8005143184A184B126889180D78174A002D71
:1040C80017D0FF31FF3102314C6C1548641C4C6429
:1040D80000689968884201D3401A02E0114B591AC6
:1040E8000818D2381060012C02D1FF30F53010606A
:1040F80070BDFF31FF31002502314D645968201A27
:10410800C9684018F3E700001C08FF1F1808FF1FC4
:10411800300DFF1F3409FF1FA855FF1FA009FF1FFF
:104128009C09FF1FFFFF3F00F3B506466548A12124
:10413800807889004843644983B00968A1224418FB
:104148002046FF3021305F49009089789200514322
:104158005D4A407D126800258F18FF378137322865
:104168001DD022281BD0F86A0168002909D081884F
:10417800001D090A891CFDF7BFFDF96A0020012509
:104188000860FDF7BFFD04992746FF370880C1374F
:10419800387C002821D0B0421FDC002014E04B49B5
:1041A800012008600020F96A01250860E9E780001D
:1041B8000019FF308130006B8188001D090A891CB5
:1041C800FDF79AFD0198401C0190397C8142EEDC94
:1041D800C8B2361A4519002038743D490020C87005
:1041E800FF20AD3000590168002903D00079C04391
:1041F80080071ED00098C07D00281AD00098807DC6
:10420800002816D1387CB04213DAFF204930005B11
:10421800010A2046FF304930891CFDF76DFD0099E1
:104228000020C87500980121817529486D1CC1704E
:10423800761E387C002802D0284605B0F0BD2046FE
:10424800FDF766FD0090002821DD002E1FDD002708
:1042580018E02046FDF762FD80000019FF300130AC
:10426800C06E8188001D090A891CFDF745FD20469E
:10427800FDF75AFDE01DFF30FA30016A6D1C491C3C
:104288007F1C01620098874201DAB742E1DB09200E
:1042980080012018817E002911D0017D00290ED0CF
:1042A800428E002A0BD0817F914202D2491C81772D
:1042B80005E0002181771A212046FDF73BFDA8B2D1
:1042C800BBE70000300DFF1F3409FF1F0014034037
:1042D800E010FF1F70B54E480068012803D14D4813
:1042E800816D491C8165FDF799FB4B4D4B49A860D1
:1042F8004B4841610124C46004602878002806D036
:10430800062248494848FDF71BFD00202870474908
:10431800486B474AC0B21278002A17D1454A002391
:10432800D356002B444BD35606DB1B0400255557A8
:104338002A029A18121808E0FF331B040025555763
:104348002A029A183D4B1218D2184A63022801D241
:10435800022002E0502800D95020394A1278022A57
:1043680011D0384A1578384B1E78B5420FD91578D0
:104378001B78EB1A801E4010434310784001C01A86
:104388001030401104E0314A1578314BECE71078D1
:104398004A69120A120210434861FDF751FB0546AB
:1043A800052801D0042D1ED12A480078002806D0FF
:1043B80029480078002802D00020FDF7C7FC2748CC
:1043C800A121807889004843254909684018FF30B1
:1043D800FF300230007B042801D0032803D1FF20DE
:1043E8005F30FDF76FFB022D0ED11E4800780128C3
:1043F80007D0032805D0022803D01B4800780228DC
:1044080002D16C20FDF75EFB1848C48270BD000025
:104418009809FF1FFC0FFF1FA855FF1FFF3F000053
:1044280000100340D50BFF1F7211FF1F80000340CF
:104438008C09FF1F680AFF1F00000000FFFE000034
:10444800490AFF1F440AFF1F450AFF1F460AFF1FAC
:10445800470AFF1FF908FF1F2209FF1F300DFF1F22
:104468003409FF1F1C09FF1F2309FF1FBC0BFF1F77
:1044780010B504490968002901D0884710BDFDF727
:1044880009FB10BD8002FF1F10B504498968002987
:1044980001D0884710BDFDF7FDFA10BD8002FF1F4F
:1044A80010B504494968002901D0884710BDFDF7B7
:1044B800F1FA10BD8002FF1F10B5044909690029EF
:1044C80001D0884710BDFDF7E5FA10BD8002FF1F37
:1044D80010B50449C968002901D0884710BDFDF707
:1044E800D9FA10BD8002FF1F1CB5012017490870BA
:1044F80017490870FDF730FCFDF734FCFFF766FC40
:10450800FFF798FA134914A0FDF754FB18480078F0
:1045180018490978009101900C4803780C480278F2
:104528001548017815A0FDF745FB204A082120A071
:10453800FDF740FB01231B03A12292001B492848D9
:10454800FDF738FBFEF778FA00201CBD4A0AFF1F6A
:104558004C55FF1F0101030053444B2056657273ED
:10456800696F6E2049442025303878200A00000001
:10457800450AFF1F440AFF1F4B0AFF1F7266436C60
:104588006B202564207263436C6B2025642073794B
:1045980073436C6B2025642074704361705B253015
:1045A800327820253032785D0A0000009C0D00002A
:1045B80073697A656F6628737472756374206C6C9E
:1045C8005F706B745F6465736329203D2025642CDC
:1045D800206275662073697A65203D2025640A008B
:1045E8002854FF1F10B500240420FDF7C1FB08491B
:1045F80008600422002106480068FDF7EDFA20460D
:10460800641CFDF7BBFB2046FEF706FC10BD00004E
:104618005055FF1FF8B51E484168090601D500200E
:10462800F8BD4168802211434160194D0A260027D0
:10463800803DE86940084000E8610620FDF778FA07
:10464800134CC03CA06980210843A061E86901219E
:104658000843E86102E00820FDF76AFAA86A8005C5
:1046680004D43046761EF6B20028F4D1002E07D0C6
:10467800286A7E21C70BA0690F4088433843A06190
:10468800A16980208143A1613806400EF8BD000071
:10469800C0F0004010B500F0A5FA044A01215820E6
:1046A80000F010FAFFF7B6FF10BD0000600AFF1F08
:1046B80030B538480168012292041143016041680D
:1046C800032212069143344A13781B0619434160AA
:1046D8004368032189058B4330490C78A40523439B
:1046E800436043686024234343601378022B08D057
:1046F8001378012B05D00B78022B02D00B78012BF5
:1047080004D14368FF240134234343601278032A09
:1047180002D00A78032A03D1426880231A434260F0
:10472800426803239B041A4342600B780122D20596
:104738001B48002B03D11B4B1B78032B19D0C368D4
:104748009343C360164A184B4032D360FF25813526
:104758001561164C5461164B9361114B80335D60A3
:104768009C60144CDC60144B03600978002903D06A
:1047780006E0C3681343E4E70168012319430160B5
:104788000E4909780E4BC906C90BC91881630D4833
:10479800D06130BD40F000404C0AFF1F4B0AFF1F9C
:1047A800800003404A0AFF1FC00B00207A3E6A07B8
:1047B8000000890400808904CC240000480AFF1FF7
:1047C800250800002FFCA601F8B505004A484B4B08
:1047D8004B4C4C4A4C4934D0022D32D086155710D8
:1047E800066286699E43B31883612078002833D017
:1047F8000F61464808634648007801221203801872
:104808004861414E404C434B803E403C002D27D0F0
:104818006521414AC9024148012D2ED0022D31D0CF
:10482800032D5AD0042D58D03D49691831603D49AF
:10483800A1602360E06002210846FDF7A5FA3A4826
:104848002BE08026066286699E430123DB04F61866
:1048580086612078002801D00A61CAE70B61C8E7A1
:10486800324830600020A06023603148E0600321B6
:104878000846FDF789FA2F480FE02F4B3360A260F6
:104888002160D7E72C4B5B1C3360A2602160E0609D
:1048980002210846FDF778FA28482061F068FF21D0
:1048A8000843F060264860612648A0612648E06118
:1048B80026482062264860622648A0622648E062B0
:1048C8002648206326486063E020012D0DD021682A
:1048D800022D0ED081432160F8BD224BEB183360C6
:1048E800214B73602160A260A4E7216881432031D5
:1048F800F1E781434031EEE7C000034000001C00AF
:104908004B0AFF1F00000400800003400300000161
:10491800440AFF1F00280B0055555537D6BE898E0F
:1049280000800642555555008055082200800678BB
:1049380007EE7536806608220180063D804508220C
:10494800A49C5C544C44434241524C46403A342E59
:1049580028007F554F49433D37312B4C46403A3468
:104968002E28221C00800698545A9850F0B5224BE5
:10497800214D21498026204A0727BF04403BC03DDE
:10498800E024803902281662966914D0BE430127B4
:10499800BF04F6199661194A1278002A1ED07A10B7
:1049A8001A6101281ED0164A801828601548086127
:1049B8000868A04314E00120BE43C004361896617D
:1049C8000E4A1278002A00D0401018610E4828605C
:1049D8000E4808610868A043403001E01F61E0E725
:1049E8000860F0BD0848401E28600948086108684A
:1049F800A0432030F4E70000C00003404B0AFF1F2B
:104A080000800698805508220280063D80450822CD
:104A18008066082210B50A4900200870094902205A
:104A28000870FFF745FE0848007800F011F8074CB9
:104A38002078FFF7C9FE2078FDF7ACF910BD00001B
:104A48004B0AFF1F4C0AFF1F480AFF1F490AFF1F96
:104A5800F0B51A4A03230725D60019499B0260249A
:104A6800ED0157693F281AD0B74305263604BE1909
:104A78005661CA689A43CB14D218CA60CA69A2435D
:104A88002032CA61CA69AA43CA610D4940398A6B92
:104A9800C0061205120DC00B02438A63F0BDB7436E
:104AA8000126B604BE195661CA689A43CA60CA6923
:104AB800A243CA61CA69AA438032E5E700F0004010
:104AC800C0000340F8B53A4B5D6A9C6A00265E62F6
:104AD8009E62384B58630E2018629E155E62402015
:104AE80098625020D862FF202B30586231484030FD
:104AF800012915D0802101622F49FF232D48A533B4
:104B0800403083602D4B43602A4B2D48403B186151
:104B18007D20C0000090471E009705D33846FAE76D
:104B2800066225498331E8E7264889050F18214898
:104B380040388763234B5B1CC91881632248009067
:104B4800224800780300FDF72BF905040408060D38
:104B580008001F4800E01F4800901F4810601548D3
:104B6800403005E01D48F7E7C16AC943890F14D0F2
:104B780000994B1E0093F7D20E4940398F630D49B7
:104B880000228A62CA6282604E620A62FF20413055
:104B98004862074845628462F8BDC16A104B1940F3
:104BA800116011680122090C120489184160E3E7B9
:104BB8000010034080000340CA02000020200000CB
:104BC80080560C2064652100102700004A0AFF1F48
:104BD800204E00003075000000002020409C00009E
:104BE800FFFF3F3F00B50021022000F021F80C49EB
:104BF800801C08700021422000F01AF80949801C26
:104C080008700121022000F013F80749801C087081
:104C18000121422000F00CF80449801C087000BDF6
:104C2800440AFF1F450AFF1F460AFF1F470AFF1FC6
:104C3800F8B53B4C394A2260394D394A07239B0461
:104C4800803540320129A9690ED0994301239B047C
:104C5800C918A9613349D16033490B780121C905C5
:104C6800324E002B07D009E099430123DB04C91811
:104C7800A9612F49EFE73378032B14D0D3688B430E
:104C8800D36050630E20106200275762FF20153052
:104C980050622848009030780300FDF781F8050736
:104CA800070D090B0D00D3680B43E9E7224802E022
:104CB800224800E0224800900098431E0093FBD24F
:104CC800686B57620002000E17621E4BD360FF2309
:104CD800413353626523DB0223601B4D2F78E023A9
:104CE800012F0AD02D78022D25680AD09D43256012
:104CF8000D4B1B78002B07D009E025689D43203514
:104D0800F5E79D434035F2E73378032B03D0D368AA
:104D18008B43D360F8BDD3680B43FAE71000030058
:104D2800400003407F4073004B0AFF1F4A0AFF1FE1
:104D38007F40530010270000204E0000307500000F
:104D4800409C000040401000490AFF1F38B5044647
:104D58000B461F49012C00D11E490020009007E096
:104D68000098451C00951C4DA84201DD0D2038BD5A
:104D7800C86FC007C00F0028F2D112E000200090D1
:104D880007E00098451C0095134DA84201DD0D2051
:104D9800EDE7087D202528400028F2D01878087013
:104DA8005B1C1046551EAAB20028E7D1009007E008
:104DB8000098451C0095084DA84201DD0D20D6E756
:104DC800087D402528400028F2D00020CFE70000C9
:104DD8000040004000900040A0860100F7B582B076
:104DE80007461546780132494018041D314E002DFA
:104DF80002D00398002802D1062005B0F0BD207823
:104E0800002801D10320F8E7E088A84201DA03204E
:104E1800F3E72078012816D0A0884019E188884255
:104E280001DD0320E9E7FCF7C9FDA288A16888181D
:104E38002A460399FCF7BAFFA0884019A080FCF71E
:104E4800CFFD0020D9E72A46A0680399FCF7AEFFFA
:104E5800A5800020608002202070A0680190102D9D
:104E680001DD102000E028460546012F00D1124E32
:104E7800706802218843706005E06188481C608082
:104E88000198405C30702846691E8DB20028F4D124
:104E9800002F03D10820FEF787FE02E01920FEF755
:104EA80083FE70680221084370600020A5E70000B7
:104EB8002877FF1F0040004000900040F8B50546E5
:104EC80008270B261D4C012D02D1192711261C4C31
:104ED8003046002809DBC206D20E01219140194A4A
:104EE8001160BFF34F8FBFF36F8F00BF6901164A80
:104EF8008918087C0021FCF75FFF6901124A8918AC
:104F0800487C0021FCF758FF802020730020207186
:104F180020702073207260603846FEF733FB3846F5
:104F2800FEF7E0FA002D03D100200849C86203E02B
:104F380000200649403148600020F8BD004000408C
:104F48000090004080E100E02877FF1F8003FF1FEA
:104F5800F0B585B00646FCF735FF0490494C0820AB
:104F680003900B2002900420019005200090304609
:104F7800FFF7A4FF012E08D1434C192003901120FC
:104F88000290082001900920009070013F494018C4
:104F9800007CFF2807D170014018407CFF2802D10F
:104FA800062005B0F0BD7001384940180546103597
:104FB8000398FEF7BFFA0398FEF7E4FA287802216F
:104FC800FCF758FE68780221FCF754FE287801990E
:104FD800FCF7FEFE68780099FCF7FAFE00202073C3
:104FE800049A12116B685B08D0186968FCF778FEA0
:104FF800074600202061802020733846FF210902DF
:105008000840000A20712770E87A002802D01B2087
:10501800207301E003202073287A002802D087201B
:10502800207201E00020207201206060287A0028A8
:1050380003D06068802108436060A87A002803D004
:105048006068022108436060002E03D110481149AE
:10505800C86203E010480F494031486002210298B5
:10506800FDF7C2FA0298002809DB00BF00BFC2069C
:10507800D20E01219140094A116000BF00BF00BF54
:1050880000208EE700400040009000402877FF1F76
:10509800B91FFF1F8003FF1F6B1FFF1F00E100E008
:1050A80010B50020FFF754FF10BD10B50120FFF721
:1050B8004FFF10BDF8B5614C60688030806880F3A0
:1050C8000888FCF749FE5E485E4900680225884268
:1050D80006D00020FCF756FD68070169A943016165
:1050E80000F0D6F858480078FCF754FE574E0020D8
:1050F800F061F561564D75610120FCF719FD03203B
:10510800F061FCF739FD0746FCF788FC0646FCF71A
:1051180033FD50490860FFF77DFC4F48006887421F
:1051280001D9381A01E0381A401E4C49884200D982
:10513800084061688A8DD20709D0494A030C126871
:1051480080B2534350431B02000A18180BE0C201F7
